{
  "_format": "hh-sol-artifact-1",
  "contractName": "PropertyGovernance",
  "sourceName": "contracts/PropertyGovernance.sol",
  "abi": [
    {
      "anonymous": false,
      "inputs": [
        {
          "indexed": false,
          "internalType": "address",
          "name": "token",
          "type": "address"
        },
        {
          "indexed": false,
          "internalType": "uint256",
          "name": "id",
          "type": "uint256"
        },
        {
          "indexed": false,
          "internalType": "string",
          "name": "description",
          "type": "string"
        }
      ],
      "name": "ProposalCreated",
      "type": "event"
    },
    {
      "anonymous": false,
      "inputs": [
        {
          "indexed": false,
          "internalType": "address",
          "name": "token",
          "type": "address"
        },
        {
          "indexed": false,
          "internalType": "uint256",
          "name": "id",
          "type": "uint256"
        },
        {
          "indexed": false,
          "internalType": "bool",
          "name": "passed",
          "type": "bool"
        }
      ],
      "name": "ProposalFinalized",
      "type": "event"
    },
    {
      "anonymous": false,
      "inputs": [
        {
          "indexed": false,
          "internalType": "address",
          "name": "token",
          "type": "address"
        },
        {
          "indexed": false,
          "internalType": "uint256",
          "name": "id",
          "type": "uint256"
        },
        {
          "indexed": false,
          "internalType": "address",
          "name": "voter",
          "type": "address"
        },
        {
          "indexed": false,
          "internalType": "bool",
          "name": "support",
          "type": "bool"
        },
        {
          "indexed": false,
          "internalType": "uint256",
          "name": "weight",
          "type": "uint256"
        }
      ],
      "name": "Voted",
      "type": "event"
    },
    {
      "inputs": [
        {
          "internalType": "address",
          "name": "token",
          "type": "address"
        },
        {
          "internalType": "string",
          "name": "description",
          "type": "string"
        }
      ],
      "name": "createProposal",
      "outputs": [],
      "stateMutability": "nonpayable",
      "type": "function"
    },
    {
      "inputs": [
        {
          "internalType": "address",
          "name": "token",
          "type": "address"
        },
        {
          "internalType": "uint256",
          "name": "id",
          "type": "uint256"
        }
      ],
      "name": "finalizeProposal",
      "outputs": [],
      "stateMutability": "nonpayable",
      "type": "function"
    },
    {
      "inputs": [
        {
          "internalType": "address",
          "name": "token",
          "type": "address"
        },
        {
          "internalType": "uint256",
          "name": "id",
          "type": "uint256"
        }
      ],
      "name": "getProposal",
      "outputs": [
        {
          "internalType": "string",
          "name": "",
          "type": "string"
        },
        {
          "internalType": "uint256",
          "name": "",
          "type": "uint256"
        },
        {
          "internalType": "uint256",
          "name": "",
          "type": "uint256"
        },
        {
          "internalType": "bool",
          "name": "",
          "type": "bool"
        }
      ],
      "stateMutability": "view",
      "type": "function"
    },
    {
      "inputs": [
        {
          "internalType": "address",
          "name": "",
          "type": "address"
        }
      ],
      "name": "operators",
      "outputs": [
        {
          "internalType": "bool",
          "name": "",
          "type": "bool"
        }
      ],
      "stateMutability": "view",
      "type": "function"
    },
    {
      "inputs": [
        {
          "internalType": "address",
          "name": "token",
          "type": "address"
        }
      ],
      "name": "proposalsLength",
      "outputs": [
        {
          "internalType": "uint256",
          "name": "",
          "type": "uint256"
        }
      ],
      "stateMutability": "view",
      "type": "function"
    },
    {
      "inputs": [
        {
          "internalType": "address",
          "name": "token",
          "type": "address"
        }
      ],
      "name": "registerToken",
      "outputs": [],
      "stateMutability": "nonpayable",
      "type": "function"
    },
    {
      "inputs": [
        {
          "internalType": "address",
          "name": "",
          "type": "address"
        }
      ],
      "name": "registeredTokens",
      "outputs": [
        {
          "internalType": "bool",
          "name": "",
          "type": "bool"
        }
      ],
      "stateMutability": "view",
      "type": "function"
    },
    {
      "inputs": [
        {
          "internalType": "address",
          "name": "op",
          "type": "address"
        },
        {
          "internalType": "bool",
          "name": "active",
          "type": "bool"
        }
      ],
      "name": "setOperator",
      "outputs": [],
      "stateMutability": "nonpayable",
      "type": "function"
    },
    {
      "inputs": [
        {
          "internalType": "address",
          "name": "token",
          "type": "address"
        },
        {
          "internalType": "address",
          "name": "voter",
          "type": "address"
        },
        {
          "internalType": "uint256",
          "name": "id",
          "type": "uint256"
        },
        {
          "internalType": "bool",
          "name": "support",
          "type": "bool"
        }
      ],
      "name": "voteFor",
      "outputs": [],
      "stateMutability": "nonpayable",
      "type": "function"
    }
  ],
  "bytecode": "0x608060405234801561001057600080fd5b50610d3e806100206000396000f3fe608060405234801561001057600080fd5b50600436106100925760003560e01c8063558a729711610066578063558a72971461010a578063720e53fb146101435780638c0bd9161461017a578063cbd361631461019d578063cfa38da7146101b057600080fd5b80628db0f01461009757806309824a80146100ac57806313e7c9d8146100bf5780631f4f7d29146100f7575b600080fd5b6100aa6100a53660046108ad565b6101d3565b005b6100aa6100ba3660046108fa565b610491565b6100e26100cd3660046108fa565b60006020819052908152604090205460ff1681565b60405190151581526020015b60405180910390f35b6100aa610105366004610932565b6104fb565b6100aa6101183660046109f4565b6001600160a01b03919091166000908152602081905260409020805460ff1916911515919091179055565b61016c6101513660046108fa565b6001600160a01b031660009081526002602052604090205490565b6040519081526020016100ee565b6100e26101883660046108fa565b60016020526000908152604090205460ff1681565b6100aa6101ab366004610a27565b610617565b6101c36101be366004610a27565b610775565b6040516100ee9493929190610a97565b33600090815260208190526040902054849060ff16806101fb5750336001600160a01b038216145b6102205760405162461bcd60e51b815260040161021790610ac8565b60405180910390fd5b6001600160a01b03811660009081526001602052604090205460ff166102585760405162461bcd60e51b815260040161021790610af0565b6001600160a01b038516600090815260026020526040812080548590811061028257610282610b1e565b60009182526020909120600590910201600381015490915060ff16156102d65760405162461bcd60e51b8152602060048201526009602482015268119a5b985b1a5e995960ba1b6044820152606401610217565b6001600160a01b038516600090815260048201602052604090205460ff16156103295760405162461bcd60e51b8152602060048201526005602482015264159bdd195960da1b6044820152606401610217565b6040516370a0823160e01b81526001600160a01b038681166004830152600091908816906370a0823190602401602060405180830381865afa158015610373573d6000803e3d6000fd5b505050506040513d601f19601f820116820180604052508101906103979190610b34565b9050600081116103d45760405162461bcd60e51b81526020600482015260086024820152672737903837bbb2b960c11b6044820152606401610217565b83156103f957808260010160008282546103ee9190610b63565b909155506104139050565b8082600201600082825461040d9190610b63565b90915550505b6001600160a01b038681166000818152600485016020908152604091829020805460ff191660011790558151938b16845283018890528201528415156060820152608081018290527f23cab598653266705c9b48eecd11feea18703b726a304eabf012105268b0d48c9060a00160405180910390a150505050505050565b6001600160a01b0381166104d45760405162461bcd60e51b815260206004820152600a6024820152692d32b937903a37b5b2b760b11b6044820152606401610217565b6001600160a01b03166000908152600160208190526040909120805460ff19169091179055565b33600090815260208190526040902054829060ff16806105235750336001600160a01b038216145b61053f5760405162461bcd60e51b815260040161021790610ac8565b6001600160a01b03811660009081526001602052604090205460ff166105775760405162461bcd60e51b815260040161021790610af0565b6001600160a01b0383166000908152600260209081526040822080546001810182559083529120600590910201806105af8482610c05565b506001600160a01b0384166000908152600260205260409020547f9db6e12bf11e1f7aeb4a3bbaf7334db3a3ed38a7dc42e8f16530c97c54ec71249085906105f990600190610cc5565b8560405161060993929190610cd8565b60405180910390a150505050565b33600090815260208190526040902054829060ff168061063f5750336001600160a01b038216145b61065b5760405162461bcd60e51b815260040161021790610ac8565b6001600160a01b03811660009081526001602052604090205460ff166106935760405162461bcd60e51b815260040161021790610af0565b6001600160a01b03831660009081526002602052604081208054849081106106bd576106bd610b1e565b60009182526020909120600590910201600381015490915060ff16156107115760405162461bcd60e51b8152602060048201526009602482015268119a5b985b1a5e995960ba1b6044820152606401610217565b60038101805460ff19166001908117909155600282015490820154604080516001600160a01b03881681526020810187905292909111908201527f345996f68085f61439aabba058ce9f2ba63429329eebf0fec7ea789ba232c16690606001610609565b606060008060008060026000886001600160a01b03166001600160a01b0316815260200190815260200160002086815481106107b3576107b3610b1e565b9060005260206000209060050201905080600001816001015482600201548360030160009054906101000a900460ff168380546107ef90610b7c565b80601f016020809104026020016040519081016040528092919081815260200182805461081b90610b7c565b80156108685780601f1061083d57610100808354040283529160200191610868565b820191906000526020600020905b81548152906001019060200180831161084b57829003601f168201915b5050505050935094509450945094505092959194509250565b80356001600160a01b038116811461089857600080fd5b919050565b8035801515811461089857600080fd5b600080600080608085870312156108c357600080fd5b6108cc85610881565b93506108da60208601610881565b9250604085013591506108ef6060860161089d565b905092959194509250565b60006020828403121561090c57600080fd5b61091582610881565b9392505050565b634e487b7160e01b600052604160045260246000fd5b6000806040838503121561094557600080fd5b61094e83610881565b9150602083013567ffffffffffffffff8082111561096b57600080fd5b818501915085601f83011261097f57600080fd5b8135818111156109915761099161091c565b604051601f8201601f19908116603f011681019083821181831017156109b9576109b961091c565b816040528281528860208487010111156109d257600080fd5b8260208601602083013760006020848301015280955050505050509250929050565b60008060408385031215610a0757600080fd5b610a1083610881565b9150610a1e6020840161089d565b90509250929050565b60008060408385031215610a3a57600080fd5b610a4383610881565b946020939093013593505050565b6000815180845260005b81811015610a7757602081850181015186830182015201610a5b565b506000602082860101526020601f19601f83011685010191505092915050565b608081526000610aaa6080830187610a51565b60208301959095525060408101929092521515606090910152919050565b6020808252600e908201526d139bdd08185d5d1a1bdc9a5e995960921b604082015260600190565b602080825260149082015273151bdad95b881b9bdd081c9959da5cdd195c995960621b604082015260600190565b634e487b7160e01b600052603260045260246000fd5b600060208284031215610b4657600080fd5b5051919050565b634e487b7160e01b600052601160045260246000fd5b80820180821115610b7657610b76610b4d565b92915050565b600181811c90821680610b9057607f821691505b602082108103610bb057634e487b7160e01b600052602260045260246000fd5b50919050565b601f821115610c0057600081815260208120601f850160051c81016020861015610bdd5750805b601f850160051c820191505b81811015610bfc57828155600101610be9565b5050505b505050565b815167ffffffffffffffff811115610c1f57610c1f61091c565b610c3381610c2d8454610b7c565b84610bb6565b602080601f831160018114610c685760008415610c505750858301515b600019600386901b1c1916600185901b178555610bfc565b600085815260208120601f198616915b82811015610c9757888601518255948401946001909101908401610c78565b5085821015610cb55787850151600019600388901b60f8161c191681555b5050505050600190811b01905550565b81810381811115610b7657610b76610b4d565b60018060a01b0384168152826020820152606060408201526000610cff6060830184610a51565b9594505050505056fea264697066735822122075dd442988fe54d9a1b33d019bde295457b2701196dd89a25b7d3d714f36cc7164736f6c63430008140033",
  "linkReferences": {},
  "deployedLinkReferences": {}
}