{
  "_format": "hh-sol-artifact-1",
  "contractName": "PropertyGovernance",
  "sourceName": "contracts/PropertyGovernance.sol",
  "abi": [
    {
      "anonymous": false,
      "inputs": [
        {
          "indexed": false,
          "internalType": "address",
          "name": "token",
          "type": "address"
        },
        {
          "indexed": false,
          "internalType": "uint256",
          "name": "id",
          "type": "uint256"
        },
        {
          "indexed": false,
          "internalType": "string",
          "name": "description",
          "type": "string"
        }
      ],
      "name": "ProposalCreated",
      "type": "event"
    },
    {
      "anonymous": false,
      "inputs": [
        {
          "indexed": false,
          "internalType": "address",
          "name": "token",
          "type": "address"
        },
        {
          "indexed": false,
          "internalType": "uint256",
          "name": "id",
          "type": "uint256"
        },
        {
          "indexed": false,
          "internalType": "bool",
          "name": "passed",
          "type": "bool"
        }
      ],
      "name": "ProposalFinalized",
      "type": "event"
    },
    {
      "anonymous": false,
      "inputs": [
        {
          "indexed": false,
          "internalType": "address",
          "name": "token",
          "type": "address"
        },
        {
          "indexed": false,
          "internalType": "uint256",
          "name": "id",
          "type": "uint256"
        },
        {
          "indexed": false,
          "internalType": "address",
          "name": "voter",
          "type": "address"
        },
        {
          "indexed": false,
          "internalType": "bool",
          "name": "support",
          "type": "bool"
        },
        {
          "indexed": false,
          "internalType": "uint256",
          "name": "weight",
          "type": "uint256"
        }
      ],
      "name": "Voted",
      "type": "event"
    },
    {
      "inputs": [
        {
          "internalType": "address",
          "name": "token",
          "type": "address"
        },
        {
          "internalType": "string",
          "name": "description",
          "type": "string"
        }
      ],
      "name": "createProposal",
      "outputs": [],
      "stateMutability": "nonpayable",
      "type": "function"
    },
    {
      "inputs": [
        {
          "internalType": "address",
          "name": "token",
          "type": "address"
        },
        {
          "internalType": "uint256",
          "name": "id",
          "type": "uint256"
        }
      ],
      "name": "finalizeProposal",
      "outputs": [],
      "stateMutability": "nonpayable",
      "type": "function"
    },
    {
      "inputs": [
        {
          "internalType": "address",
          "name": "token",
          "type": "address"
        },
        {
          "internalType": "uint256",
          "name": "id",
          "type": "uint256"
        }
      ],
      "name": "getProposal",
      "outputs": [
        {
          "internalType": "string",
          "name": "",
          "type": "string"
        },
        {
          "internalType": "uint256",
          "name": "",
          "type": "uint256"
        },
        {
          "internalType": "uint256",
          "name": "",
          "type": "uint256"
        },
        {
          "internalType": "bool",
          "name": "",
          "type": "bool"
        }
      ],
      "stateMutability": "view",
      "type": "function"
    },
    {
      "inputs": [
        {
          "internalType": "address",
          "name": "",
          "type": "address"
        }
      ],
      "name": "operators",
      "outputs": [
        {
          "internalType": "bool",
          "name": "",
          "type": "bool"
        }
      ],
      "stateMutability": "view",
      "type": "function"
    },
    {
      "inputs": [
        {
          "internalType": "address",
          "name": "token",
          "type": "address"
        }
      ],
      "name": "proposalsLength",
      "outputs": [
        {
          "internalType": "uint256",
          "name": "",
          "type": "uint256"
        }
      ],
      "stateMutability": "view",
      "type": "function"
    },
    {
      "inputs": [
        {
          "internalType": "address",
          "name": "token",
          "type": "address"
        }
      ],
      "name": "registerToken",
      "outputs": [],
      "stateMutability": "nonpayable",
      "type": "function"
    },
    {
      "inputs": [
        {
          "internalType": "address",
          "name": "",
          "type": "address"
        }
      ],
      "name": "registeredTokens",
      "outputs": [
        {
          "internalType": "bool",
          "name": "",
          "type": "bool"
        }
      ],
      "stateMutability": "view",
      "type": "function"
    },
    {
      "inputs": [
        {
          "internalType": "address",
          "name": "op",
          "type": "address"
        },
        {
          "internalType": "bool",
          "name": "active",
          "type": "bool"
        }
      ],
      "name": "setOperator",
      "outputs": [],
      "stateMutability": "nonpayable",
      "type": "function"
    },
    {
      "inputs": [
        {
          "internalType": "address",
          "name": "token",
          "type": "address"
        },
        {
          "internalType": "address",
          "name": "voter",
          "type": "address"
        },
        {
          "internalType": "uint256",
          "name": "id",
          "type": "uint256"
        },
        {
          "internalType": "bool",
          "name": "support",
          "type": "bool"
        }
      ],
      "name": "voteFor",
      "outputs": [],
      "stateMutability": "nonpayable",
      "type": "function"
    }
  ],
  "bytecode": "0x608060405234801561001057600080fd5b50610d19806100206000396000f3fe608060405234801561001057600080fd5b50600436106100825760003560e01c80628db0f01461008757806309824a801461009c57806313e7c9d8146100af5780631f4f7d29146100e7578063558a7297146100fa578063720e53fb146101335780638c0bd9161461016a578063cbd361631461018d578063cfa38da7146101a0575b600080fd5b61009a610095366004610865565b6101c3565b005b61009a6100aa3660046108b2565b610465565b6100d26100bd3660046108b2565b60006020819052908152604090205460ff1681565b60405190151581526020015b60405180910390f35b61009a6100f53660046108ea565b6104cf565b61009a6101083660046109ac565b6001600160a01b03919091166000908152602081905260409020805460ff1916911515919091179055565b61015c6101413660046108b2565b6001600160a01b031660009081526002602052604090205490565b6040519081526020016100de565b6100d26101783660046108b2565b60016020526000908152604090205460ff1681565b61009a61019b3660046109df565b6105eb565b6101b36101ae3660046109df565b61072d565b6040516100de9493929190610a4f565b33600090815260208190526040902054849060ff16806101eb5750336001600160a01b038216145b6102105760405162461bcd60e51b815260040161020790610a80565b60405180910390fd5b6001600160a01b03811660009081526001602052604090205460ff166102485760405162461bcd60e51b815260040161020790610aa8565b6001600160a01b038516600090815260026020526040812080548590811061027257610272610ad6565b60009182526020909120600590910201600381015490915060ff16156102aa5760405162461bcd60e51b815260040161020790610aec565b6001600160a01b038516600090815260048201602052604090205460ff16156102fd5760405162461bcd60e51b8152602060048201526005602482015264159bdd195960da1b6044820152606401610207565b6040516370a0823160e01b81526001600160a01b038681166004830152600091908816906370a0823190602401602060405180830381865afa158015610347573d6000803e3d6000fd5b505050506040513d601f19601f8201168201806040525081019061036b9190610b0f565b9050600081116103a85760405162461bcd60e51b81526020600482015260086024820152672737903837bbb2b960c11b6044820152606401610207565b83156103cd57808260010160008282546103c29190610b3e565b909155506103e79050565b808260020160008282546103e19190610b3e565b90915550505b6001600160a01b038681166000818152600485016020908152604091829020805460ff191660011790558151938b16845283018890528201528415156060820152608081018290527f23cab598653266705c9b48eecd11feea18703b726a304eabf012105268b0d48c9060a00160405180910390a150505050505050565b6001600160a01b0381166104a85760405162461bcd60e51b815260206004820152600a6024820152692d32b937903a37b5b2b760b11b6044820152606401610207565b6001600160a01b03166000908152600160208190526040909120805460ff19169091179055565b33600090815260208190526040902054829060ff16806104f75750336001600160a01b038216145b6105135760405162461bcd60e51b815260040161020790610a80565b6001600160a01b03811660009081526001602052604090205460ff1661054b5760405162461bcd60e51b815260040161020790610aa8565b6001600160a01b0383166000908152600260209081526040822080546001810182559083529120600590910201806105838482610be0565b506001600160a01b0384166000908152600260205260409020547f9db6e12bf11e1f7aeb4a3bbaf7334db3a3ed38a7dc42e8f16530c97c54ec71249085906105cd90600190610ca0565b856040516105dd93929190610cb3565b60405180910390a150505050565b33600090815260208190526040902054829060ff16806106135750336001600160a01b038216145b61062f5760405162461bcd60e51b815260040161020790610a80565b6001600160a01b03811660009081526001602052604090205460ff166106675760405162461bcd60e51b815260040161020790610aa8565b6001600160a01b038316600090815260026020526040812080548490811061069157610691610ad6565b60009182526020909120600590910201600381015490915060ff16156106c95760405162461bcd60e51b815260040161020790610aec565b60038101805460ff19166001908117909155600282015490820154604080516001600160a01b03881681526020810187905292909111908201527f345996f68085f61439aabba058ce9f2ba63429329eebf0fec7ea789ba232c166906060016105dd565b606060008060008060026000886001600160a01b03166001600160a01b03168152602001908152602001600020868154811061076b5761076b610ad6565b9060005260206000209060050201905080600001816001015482600201548360030160009054906101000a900460ff168380546107a790610b57565b80601f01602080910402602001604051908101604052809291908181526020018280546107d390610b57565b80156108205780601f106107f557610100808354040283529160200191610820565b820191906000526020600020905b81548152906001019060200180831161080357829003601f168201915b5050505050935094509450945094505092959194509250565b80356001600160a01b038116811461085057600080fd5b919050565b8035801515811461085057600080fd5b6000806000806080858703121561087b57600080fd5b61088485610839565b935061089260208601610839565b9250604085013591506108a760608601610855565b905092959194509250565b6000602082840312156108c457600080fd5b6108cd82610839565b9392505050565b634e487b7160e01b600052604160045260246000fd5b600080604083850312156108fd57600080fd5b61090683610839565b9150602083013567ffffffffffffffff8082111561092357600080fd5b818501915085601f83011261093757600080fd5b813581811115610949576109496108d4565b604051601f8201601f19908116603f01168101908382118183101715610971576109716108d4565b8160405282815288602084870101111561098a57600080fd5b8260208601602083013760006020848301015280955050505050509250929050565b600080604083850312156109bf57600080fd5b6109c883610839565b91506109d660208401610855565b90509250929050565b600080604083850312156109f257600080fd5b6109fb83610839565b946020939093013593505050565b6000815180845260005b81811015610a2f57602081850181015186830182015201610a13565b506000602082860101526020601f19601f83011685010191505092915050565b608081526000610a626080830187610a09565b60208301959095525060408101929092521515606090910152919050565b6020808252600e908201526d139bdd08185d5d1a1bdc9a5e995960921b604082015260600190565b602080825260149082015273151bdad95b881b9bdd081c9959da5cdd195c995960621b604082015260600190565b634e487b7160e01b600052603260045260246000fd5b602080825260099082015268119a5b985b1a5e995960ba1b604082015260600190565b600060208284031215610b2157600080fd5b5051919050565b634e487b7160e01b600052601160045260246000fd5b80820180821115610b5157610b51610b28565b92915050565b600181811c90821680610b6b57607f821691505b602082108103610b8b57634e487b7160e01b600052602260045260246000fd5b50919050565b601f821115610bdb57600081815260208120601f850160051c81016020861015610bb85750805b601f850160051c820191505b81811015610bd757828155600101610bc4565b5050505b505050565b815167ffffffffffffffff811115610bfa57610bfa6108d4565b610c0e81610c088454610b57565b84610b91565b602080601f831160018114610c435760008415610c2b5750858301515b600019600386901b1c1916600185901b178555610bd7565b600085815260208120601f198616915b82811015610c7257888601518255948401946001909101908401610c53565b5085821015610c905787850151600019600388901b60f8161c191681555b5050505050600190811b01905550565b81810381811115610b5157610b51610b28565b60018060a01b0384168152826020820152606060408201526000610cda6060830184610a09565b9594505050505056fea264697066735822122035dcd305148bd9fb287ee3440e84d8eac61e299abc93ec42be560a043fb9f53664736f6c63430008140033",
  "linkReferences": {},
  "deployedLinkReferences": {}
}