{"contracts/PropertyToken.sol":{"PropertyToken":{"abi":[{"inputs":[{"internalType":"string","name":"name_","type":"string"},{"internalType":"string","name":"symbol_","type":"string"},{"internalType":"uint256","name":"initialSupply_","type":"uint256"},{"internalType":"address","name":"seller_","type":"address"},{"internalType":"address","name":"whimsyAddress","type":"address"},{"internalType":"address","name":"owner_","type":"address"},{"internalType":"address","name":"paymentTokenAddress","type":"address"},{"internalType":"address","name":"assignedSigner","type":"address"}],"stateMutability":"nonpayable","type":"constructor"},{"inputs":[],"name":"ECDSAInvalidSignature","type":"error"},{"inputs":[{"internalType":"uint256","name":"length","type":"uint256"}],"name":"ECDSAInvalidSignatureLength","type":"error"},{"inputs":[{"internalType":"bytes32","name":"s","type":"bytes32"}],"name":"ECDSAInvalidSignatureS","type":"error"},{"inputs":[{"internalType":"address","name":"spender","type":"address"},{"internalType":"uint256","name":"allowance","type":"uint256"},{"internalType":"uint256","name":"needed","type":"uint256"}],"name":"ERC20InsufficientAllowance","type":"error"},{"inputs":[{"internalType":"address","name":"sender","type":"address"},{"internalType":"uint256","name":"balance","type":"uint256"},{"internalType":"uint256","name":"needed","type":"uint256"}],"name":"ERC20InsufficientBalance","type":"error"},{"inputs":[{"internalType":"address","name":"approver","type":"address"}],"name":"ERC20InvalidApprover","type":"error"},{"inputs":[{"internalType":"address","name":"receiver","type":"address"}],"name":"ERC20InvalidReceiver","type":"error"},{"inputs":[{"internalType":"address","name":"sender","type":"address"}],"name":"ERC20InvalidSender","type":"error"},{"inputs":[{"internalType":"address","name":"spender","type":"address"}],"name":"ERC20InvalidSpender","type":"error"},{"inputs":[],"name":"EnforcedPause","type":"error"},{"inputs":[],"name":"ExpectedPause","type":"error"},{"inputs":[{"internalType":"address","name":"owner","type":"address"}],"name":"OwnableInvalidOwner","type":"error"},{"inputs":[{"internalType":"address","name":"account","type":"address"}],"name":"OwnableUnauthorizedAccount","type":"error"},{"inputs":[],"name":"ReentrancyGuardReentrantCall","type":"error"},{"inputs":[{"internalType":"address","name":"token","type":"address"}],"name":"SafeERC20FailedOperation","type":"error"},{"anonymous":false,"inputs":[{"indexed":true,"internalType":"address","name":"owner","type":"address"},{"indexed":true,"internalType":"address","name":"spender","type":"address"},{"indexed":false,"internalType":"uint256","name":"value","type":"uint256"}],"name":"Approval","type":"event"},{"anonymous":false,"inputs":[{"indexed":true,"internalType":"address","name":"buyer","type":"address"}],"name":"DisclaimerAgreed","type":"event"},{"anonymous":false,"inputs":[{"indexed":false,"internalType":"uint256","name":"amount","type":"uint256"},{"indexed":false,"internalType":"address","name":"to","type":"address"}],"name":"ETHWithdrawn","type":"event"},{"anonymous":false,"inputs":[{"indexed":true,"internalType":"address","name":"oldOperator","type":"address"},{"indexed":true,"internalType":"address","name":"newOperator","type":"address"}],"name":"OperatorUpdated","type":"event"},{"anonymous":false,"inputs":[{"indexed":true,"internalType":"address","name":"previousOwner","type":"address"},{"indexed":true,"internalType":"address","name":"newOwner","type":"address"}],"name":"OwnershipTransferred","type":"event"},{"anonymous":false,"inputs":[{"indexed":false,"internalType":"address","name":"account","type":"address"}],"name":"Paused","type":"event"},{"anonymous":false,"inputs":[{"indexed":true,"internalType":"address","name":"buyer","type":"address"},{"indexed":false,"internalType":"uint256","name":"amount","type":"uint256"}],"name":"RefundIssued","type":"event"},{"anonymous":false,"inputs":[],"name":"SaleEndedEarly","type":"event"},{"anonymous":false,"inputs":[{"indexed":false,"internalType":"uint256","name":"tokensForSale","type":"uint256"},{"indexed":false,"internalType":"uint256","name":"tokenPrice","type":"uint256"},{"indexed":false,"internalType":"uint256","name":"targetSellerOwnership","type":"uint256"}],"name":"SaleParametersUpdated","type":"event"},{"anonymous":false,"inputs":[{"indexed":false,"internalType":"address","name":"oldSeller","type":"address"},{"indexed":false,"internalType":"address","name":"newSeller","type":"address"}],"name":"SellerAddressUpdated","type":"event"},{"anonymous":false,"inputs":[{"indexed":true,"internalType":"address","name":"from","type":"address"},{"indexed":true,"internalType":"address","name":"to","type":"address"},{"indexed":false,"internalType":"uint256","name":"amount","type":"uint256"},{"indexed":false,"internalType":"bytes32","name":"buffer","type":"bytes32"}],"name":"SignatureTransfer","type":"event"},{"anonymous":false,"inputs":[{"indexed":false,"internalType":"uint256","name":"additionalTokens","type":"uint256"}],"name":"SupplyIncreased","type":"event"},{"anonymous":false,"inputs":[{"indexed":true,"internalType":"address","name":"buyer","type":"address"},{"indexed":false,"internalType":"uint256","name":"amount","type":"uint256"}],"name":"TokensPurchased","type":"event"},{"anonymous":false,"inputs":[{"indexed":true,"internalType":"address","name":"from","type":"address"},{"indexed":true,"internalType":"address","name":"to","type":"address"},{"indexed":false,"internalType":"uint256","name":"value","type":"uint256"}],"name":"Transfer","type":"event"},{"anonymous":false,"inputs":[{"indexed":false,"internalType":"bool","name":"enabled","type":"bool"}],"name":"TransfersToggled","type":"event"},{"anonymous":false,"inputs":[{"indexed":false,"internalType":"address","name":"account","type":"address"}],"name":"Unpaused","type":"event"},{"anonymous":false,"inputs":[{"indexed":true,"internalType":"address","name":"oldWhimsy","type":"address"},{"indexed":true,"internalType":"address","name":"newWhimsy","type":"address"}],"name":"WhimsyUpdated","type":"event"},{"anonymous":false,"inputs":[{"indexed":false,"internalType":"uint256","name":"amount","type":"uint256"},{"indexed":false,"internalType":"address","name":"to","type":"address"}],"name":"Withdrawn","type":"event"},{"stateMutability":"payable","type":"fallback"},{"inputs":[],"name":"AGREEMENT_TIMEOUT","outputs":[{"internalType":"uint256","name":"","type":"uint256"}],"stateMutability":"view","type":"function"},{"inputs":[],"name":"MAX_BUYER_PERCENT","outputs":[{"internalType":"uint8","name":"","type":"uint8"}],"stateMutability":"view","type":"function"},{"inputs":[],"name":"MAX_SELLER_PERCENT","outputs":[{"internalType":"uint8","name":"","type":"uint8"}],"stateMutability":"view","type":"function"},{"inputs":[],"name":"MIN_SELLER_PERCENT","outputs":[{"internalType":"uint8","name":"","type":"uint8"}],"stateMutability":"view","type":"function"},{"inputs":[],"name":"PERCENT_BASE","outputs":[{"internalType":"uint8","name":"","type":"uint8"}],"stateMutability":"view","type":"function"},{"inputs":[],"name":"SELLER_ALLOCATION_PERCENT","outputs":[{"internalType":"uint8","name":"","type":"uint8"}],"stateMutability":"view","type":"function"},{"inputs":[],"name":"WHIMSY_ALLOCATION_PERCENT","outputs":[{"internalType":"uint8","name":"","type":"uint8"}],"stateMutability":"view","type":"function"},{"inputs":[{"internalType":"address","name":"buyer","type":"address"}],"name":"agreeDisclaimerFor","outputs":[],"stateMutability":"nonpayable","type":"function"},{"inputs":[{"internalType":"address","name":"owner","type":"address"},{"internalType":"address","name":"spender","type":"address"}],"name":"allowance","outputs":[{"internalType":"uint256","name":"","type":"uint256"}],"stateMutability":"view","type":"function"},{"inputs":[{"internalType":"address","name":"spender","type":"address"},{"internalType":"uint256","name":"value","type":"uint256"}],"name":"approve","outputs":[{"internalType":"bool","name":"","type":"bool"}],"stateMutability":"nonpayable","type":"function"},{"inputs":[{"internalType":"address","name":"account","type":"address"}],"name":"balanceOf","outputs":[{"internalType":"uint256","name":"","type":"uint256"}],"stateMutability":"view","type":"function"},{"inputs":[{"internalType":"bytes32","name":"","type":"bytes32"}],"name":"bufferUsed","outputs":[{"internalType":"bool","name":"","type":"bool"}],"stateMutability":"view","type":"function"},{"inputs":[{"internalType":"address","name":"buyer","type":"address"},{"internalType":"uint256","name":"amount","type":"uint256"}],"name":"buyTokensFor","outputs":[],"stateMutability":"nonpayable","type":"function"},{"inputs":[],"name":"decimals","outputs":[{"internalType":"uint8","name":"","type":"uint8"}],"stateMutability":"pure","type":"function"},{"inputs":[],"name":"endSaleEarly","outputs":[],"stateMutability":"nonpayable","type":"function"},{"inputs":[],"name":"factory","outputs":[{"internalType":"address","name":"","type":"address"}],"stateMutability":"view","type":"function"},{"inputs":[{"internalType":"uint256","name":"preMoneyValuation","type":"uint256"}],"name":"getPostMoneyValuation","outputs":[{"internalType":"uint256","name":"","type":"uint256"}],"stateMutability":"view","type":"function"},{"inputs":[],"name":"governanceContract","outputs":[{"internalType":"address","name":"","type":"address"}],"stateMutability":"view","type":"function"},{"inputs":[{"internalType":"address","name":"","type":"address"}],"name":"hasAgreedDisclaimer","outputs":[{"internalType":"bool","name":"","type":"bool"}],"stateMutability":"view","type":"function"},{"inputs":[{"internalType":"uint256","name":"amount","type":"uint256"}],"name":"increaseSupply","outputs":[],"stateMutability":"nonpayable","type":"function"},{"inputs":[],"name":"name","outputs":[{"internalType":"string","name":"","type":"string"}],"stateMutability":"view","type":"function"},{"inputs":[],"name":"operator","outputs":[{"internalType":"address","name":"","type":"address"}],"stateMutability":"view","type":"function"},{"inputs":[{"internalType":"address","name":"from","type":"address"},{"internalType":"address","name":"to","type":"address"},{"internalType":"uint256","name":"amount","type":"uint256"}],"name":"operatorTransfer","outputs":[],"stateMutability":"nonpayable","type":"function"},{"inputs":[],"name":"owner","outputs":[{"internalType":"address","name":"","type":"address"}],"stateMutability":"view","type":"function"},{"inputs":[],"name":"pause","outputs":[],"stateMutability":"nonpayable","type":"function"},{"inputs":[],"name":"paused","outputs":[{"internalType":"bool","name":"","type":"bool"}],"stateMutability":"view","type":"function"},{"inputs":[],"name":"paymentToken","outputs":[{"internalType":"contract IERC20","name":"","type":"address"}],"stateMutability":"view","type":"function"},{"inputs":[{"internalType":"address","name":"","type":"address"}],"name":"pendingReservations","outputs":[{"internalType":"uint256","name":"amount","type":"uint256"},{"internalType":"uint256","name":"timestamp","type":"uint256"}],"stateMutability":"view","type":"function"},{"inputs":[{"internalType":"address","name":"buyer","type":"address"}],"name":"refundUnagreedBuyer","outputs":[],"stateMutability":"nonpayable","type":"function"},{"inputs":[],"name":"renounceOwnership","outputs":[],"stateMutability":"nonpayable","type":"function"},{"inputs":[],"name":"requireSignatureOnTransfer","outputs":[{"internalType":"bool","name":"","type":"bool"}],"stateMutability":"view","type":"function"},{"inputs":[{"internalType":"address","name":"buyer","type":"address"},{"internalType":"uint256","name":"amount","type":"uint256"}],"name":"reserveTokensFor","outputs":[],"stateMutability":"nonpayable","type":"function"},{"inputs":[],"name":"saleEnded","outputs":[{"internalType":"bool","name":"","type":"bool"}],"stateMutability":"view","type":"function"},{"inputs":[],"name":"saleSupplySnapshot","outputs":[{"internalType":"uint256","name":"","type":"uint256"}],"stateMutability":"view","type":"function"},{"inputs":[],"name":"seller","outputs":[{"internalType":"address","name":"","type":"address"}],"stateMutability":"view","type":"function"},{"inputs":[{"internalType":"address","name":"_factory","type":"address"}],"name":"setFactory","outputs":[],"stateMutability":"nonpayable","type":"function"},{"inputs":[{"internalType":"address","name":"newOperator","type":"address"}],"name":"setOperator","outputs":[],"stateMutability":"nonpayable","type":"function"},{"inputs":[{"internalType":"bool","name":"on","type":"bool"}],"name":"setRequireSignatureOnTransfer","outputs":[],"stateMutability":"nonpayable","type":"function"},{"inputs":[{"internalType":"uint256","name":"_tokensForSale","type":"uint256"},{"internalType":"uint256","name":"_tokenPrice","type":"uint256"},{"internalType":"uint256","name":"_targetSellerOwnership","type":"uint256"}],"name":"setSaleParameters","outputs":[],"stateMutability":"nonpayable","type":"function"},{"inputs":[{"internalType":"address","name":"assignedSigner","type":"address"}],"name":"setSigner","outputs":[],"stateMutability":"nonpayable","type":"function"},{"inputs":[{"internalType":"address","name":"newWhimsy","type":"address"}],"name":"setWhimsy","outputs":[],"stateMutability":"nonpayable","type":"function"},{"inputs":[{"internalType":"bytes32","name":"buffer","type":"bytes32"},{"internalType":"bytes","name":"sig","type":"bytes"},{"internalType":"address","name":"to","type":"address"},{"internalType":"uint256","name":"amount","type":"uint256"}],"name":"signatureTransfer","outputs":[{"internalType":"bool","name":"","type":"bool"}],"stateMutability":"nonpayable","type":"function"},{"inputs":[],"name":"symbol","outputs":[{"internalType":"string","name":"","type":"string"}],"stateMutability":"view","type":"function"},{"inputs":[],"name":"targetSellerOwnership","outputs":[{"internalType":"uint256","name":"","type":"uint256"}],"stateMutability":"view","type":"function"},{"inputs":[{"internalType":"bool","name":"enabled","type":"bool"}],"name":"toggleTransfers","outputs":[],"stateMutability":"nonpayable","type":"function"},{"inputs":[],"name":"tokenPrice","outputs":[{"internalType":"uint256","name":"","type":"uint256"}],"stateMutability":"view","type":"function"},{"inputs":[],"name":"tokensForSale","outputs":[{"internalType":"uint256","name":"","type":"uint256"}],"stateMutability":"view","type":"function"},{"inputs":[],"name":"totalRaised","outputs":[{"internalType":"uint256","name":"","type":"uint256"}],"stateMutability":"view","type":"function"},{"inputs":[],"name":"totalReserved","outputs":[{"internalType":"uint256","name":"","type":"uint256"}],"stateMutability":"view","type":"function"},{"inputs":[],"name":"totalSupply","outputs":[{"internalType":"uint256","name":"","type":"uint256"}],"stateMutability":"view","type":"function"},{"inputs":[{"internalType":"address","name":"to","type":"address"},{"internalType":"uint256","name":"amount","type":"uint256"}],"name":"transfer","outputs":[{"internalType":"bool","name":"","type":"bool"}],"stateMutability":"nonpayable","type":"function"},{"inputs":[{"internalType":"address","name":"from","type":"address"},{"internalType":"address","name":"to","type":"address"},{"internalType":"uint256","name":"amount","type":"uint256"}],"name":"transferFrom","outputs":[{"internalType":"bool","name":"","type":"bool"}],"stateMutability":"nonpayable","type":"function"},{"inputs":[{"internalType":"address","name":"newOwner","type":"address"}],"name":"transferOwnership","outputs":[],"stateMutability":"nonpayable","type":"function"},{"inputs":[],"name":"transfersEnabled","outputs":[{"internalType":"bool","name":"","type":"bool"}],"stateMutability":"view","type":"function"},{"inputs":[],"name":"unpause","outputs":[],"stateMutability":"nonpayable","type":"function"},{"inputs":[{"internalType":"address","name":"newSeller","type":"address"}],"name":"updateSellerAddress","outputs":[],"stateMutability":"nonpayable","type":"function"},{"inputs":[],"name":"whimsy","outputs":[{"internalType":"address","name":"","type":"address"}],"stateMutability":"view","type":"function"},{"inputs":[],"name":"withdrawETH","outputs":[],"stateMutability":"nonpayable","type":"function"},{"inputs":[],"name":"withdrawPayment","outputs":[],"stateMutability":"nonpayable","type":"function"},{"stateMutability":"payable","type":"receive"}],"evm":{"bytecode":{"linkReferences":{},"object":"60a06040526007805461ff001916610100179055600d805461ffff60a01b1916600160a81b1790553480156200003457600080fd5b506040516200391d3803806200391d833981016040819052620000579162000735565b828888600362000068838262000894565b50600462000077828262000894565b5050506001600160a01b038116620000aa57604051631e4fbdf760e01b8152600060048201526024015b60405180910390fd5b620000b58162000256565b5060016006556007805460ff191690556001600160a01b0385166200010e5760405162461bcd60e51b815260206004820152600e60248201526d24b73b30b634b21039b2b63632b960911b6044820152606401620000a1565b6001600160a01b038416620001575760405162461bcd60e51b815260206004820152600e60248201526d496e76616c6964207768696d737960901b6044820152606401620000a1565b6001600160a01b038216620001af5760405162461bcd60e51b815260206004820152601460248201527f496e76616c6964207061796d656e74546f6b656e0000000000000000000000006044820152606401620000a1565b600d80546001600160a01b038087166001600160a01b03199283161790925560098054888416908316179055600b80548684169083161790558382166080526014805492841692909116919091179055600060646200021060038962000976565b6200021c919062000996565b905060006200022c8289620009b9565b90506200023a8782620002a8565b620002468683620002a8565b50505050505050505050620009e5565b600580546001600160a01b038381166001600160a01b0319831681179093556040519116919082907f8be0079c531659141344cd1fd0a4f28419497f9722a3daafe3b4186f6b6457e090600090a35050565b6001600160a01b038216620002d45760405163ec442f0560e01b815260006004820152602401620000a1565b620002e260008383620002e6565b5050565b620002f383838362000305565b6200030083838362000520565b505050565b600d54600160a81b900460ff16806200032557506001600160a01b038316155b806200033857506001600160a01b038216155b620003865760405162461bcd60e51b815260206004820152601660248201527f5472616e7366657273206172652064697361626c6564000000000000000000006044820152606401620000a1565b6001600160a01b03831615801590620003a757506001600160a01b03821615155b1562000300576009546001600160a01b039081169084160362000450576009546001600160a01b0316600090815260208190526040812054620003ec908390620009b9565b90506010548110156200044e5760405162461bcd60e51b8152602060048201526024808201527f53656c6c6572206d7573742072657461696e206d696e696d756d206f776e65726044820152630736869760e41b6064820152608401620000a1565b505b6009546001600160a01b03838116911614620003005760006013546000146200047c5760135462000480565b6002545b9050606462000491600f8362000976565b6200049d919062000996565b82620004be856001600160a01b031660009081526020819052604090205490565b620004ca9190620009cf565b11156200051a5760405162461bcd60e51b815260206004820152601560248201527f42757965722065786365656473203135252063617000000000000000000000006044820152606401620000a1565b50505050565b6001600160a01b0383166200054f578060026000828254620005439190620009cf565b90915550620005c39050565b6001600160a01b03831660009081526020819052604090205481811015620005a45760405163391434e360e21b81526001600160a01b03851660048201526024810182905260448101839052606401620000a1565b6001600160a01b03841660009081526020819052604090209082900390555b6001600160a01b038216620005e15760028054829003905562000600565b6001600160a01b03821660009081526020819052604090208054820190555b816001600160a01b0316836001600160a01b03167fddf252ad1be2c89b69c2b068fc378daa952ba7f163c4a11628f55a4df523b3ef836040516200064691815260200190565b60405180910390a3505050565b634e487b7160e01b600052604160045260246000fd5b600082601f8301126200067b57600080fd5b81516001600160401b038082111562000698576200069862000653565b604051601f8301601f19908116603f01168101908282118183101715620006c357620006c362000653565b81604052838152602092508683858801011115620006e057600080fd5b600091505b83821015620007045785820183015181830184015290820190620006e5565b600093810190920192909252949350505050565b80516001600160a01b03811681146200073057600080fd5b919050565b600080600080600080600080610100898b0312156200075357600080fd5b88516001600160401b03808211156200076b57600080fd5b620007798c838d0162000669565b995060208b01519150808211156200079057600080fd5b506200079f8b828c0162000669565b97505060408901519550620007b760608a0162000718565b9450620007c760808a0162000718565b9350620007d760a08a0162000718565b9250620007e760c08a0162000718565b9150620007f760e08a0162000718565b90509295985092959890939650565b600181811c908216806200081b57607f821691505b6020821081036200083c57634e487b7160e01b600052602260045260246000fd5b50919050565b601f8211156200030057600081815260208120601f850160051c810160208610156200086b5750805b601f850160051c820191505b818110156200088c5782815560010162000877565b505050505050565b81516001600160401b03811115620008b057620008b062000653565b620008c881620008c1845462000806565b8462000842565b602080601f831160018114620009005760008415620008e75750858301515b600019600386901b1c1916600185901b1785556200088c565b600085815260208120601f198616915b82811015620009315788860151825594840194600190910190840162000910565b5085821015620009505787850151600019600388901b60f8161c191681555b5050505050600190811b01905550565b634e487b7160e01b600052601160045260246000fd5b808202811582820484141762000990576200099062000960565b92915050565b600082620009b457634e487b7160e01b600052601260045260246000fd5b500490565b8181038181111562000990576200099062000960565b8082018082111562000990576200099062000960565b608051612ef962000a24600039600081816104ab01528181610d3e015281816112da01528181611619015281816116e901526118a40152612ef96000f3fe6080604052600436106102cf5760003560e01c80637b239e221161017c578063b91f6f0e116100d2578063b91f6f0e14610878578063b921e1631461088d578063bb979d62146108ad578063bbd30fb9146108c3578063bef97c87146108e3578063c157c5ff14610904578063c421d18f14610919578063c45a015514610939578063c5c4744c14610959578063c71b0e1c1461096f578063d5cf7cfe14610985578063dd62ed3e1461099a578063e086e5ec146109ba578063e249b7ce146109cf578063f2fde38b146109ef576102f5565b80637b239e22146106df5780637d6c8c00146106f45780637ff9b59614610724578063805d835d1461073a5780638456cb591461074f5780638da5cb5b146107645780638f52f0f91461077957806393634c0a1461078e57806395d89b41146107ad5780639b8906ae146107c2578063a118babd146107e3578063a9059cbb146107f8578063b172b22214610818578063b2826b9114610838578063b3ab15fb14610858576102f5565b80633f4ba83a116102315780633f4ba83a146104ef578063490deb3d14610504578063570ca7351461054d57806358bcc4fb1461056d5780635bb478081461059d5780635c975abb146105bd578063624b233d146105d557806368504158146105ea578063685dab8f1461060a5780636add3bdb1461062a5780636c19e7831461064a57806370a082311461066a578063712daa751461068a578063715018a6146106aa57806374faa74b146106bf576102f5565b8062267f9a1461030d57806306fdde031461033757806308551a5314610359578063095ea7b3146103865780630d1af103146103b657806312aef8c3146103d857806315482ce1146103ee57806316314a691461040457806318160ddd146104245780631df374921461043957806323b872dd146104595780632b319a8f146104795780633013ce2914610499578063313ce567146104cd576102f5565b366102f55760405162461bcd60e51b81526004016102ec906129a8565b60405180910390fd5b60405162461bcd60e51b81526004016102ec906129a8565b34801561031957600080fd5b506103246206978081565b6040519081526020015b60405180910390f35b34801561034357600080fd5b5061034c610a0f565b60405161032e91906129d2565b34801561036557600080fd5b50600954610379906001600160a01b031681565b60405161032e9190612a20565b34801561039257600080fd5b506103a66103a1366004612a50565b610aa1565b604051901515815260200161032e565b3480156103c257600080fd5b506103d66103d1366004612a7a565b610abb565b005b3480156103e457600080fd5b50610324600f5481565b3480156103fa57600080fd5b5061032460135481565b34801561041057600080fd5b50600d54610379906001600160a01b031681565b34801561043057600080fd5b50600254610324565b34801561044557600080fd5b506103d6610454366004612ab6565b610b9d565b34801561046557600080fd5b506103a6610474366004612a7a565b610db4565b34801561048557600080fd5b50610324610494366004612ad1565b610df2565b3480156104a557600080fd5b506103797f000000000000000000000000000000000000000000000000000000000000000081565b3480156104d957600080fd5b5060065b60405160ff909116815260200161032e565b3480156104fb57600080fd5b506103d6610e02565b34801561051057600080fd5b5061053861051f366004612ab6565b6016602052600090815260409020805460019091015482565b6040805192835260208301919091520161032e565b34801561055957600080fd5b50600a54610379906001600160a01b031681565b34801561057957600080fd5b506103a6610588366004612ad1565b60086020526000908152604090205460ff1681565b3480156105a957600080fd5b506103d66105b8366004612ab6565b610e14565b3480156105c957600080fd5b5060075460ff166103a6565b3480156105e157600080fd5b506104dd601e81565b3480156105f657600080fd5b506103d6610605366004612aea565b610e94565b34801561061657600080fd5b506103d6610625366004612ab6565b610ef4565b34801561063657600080fd5b506103d6610645366004612ab6565b610fac565b34801561065657600080fd5b506103d6610665366004612ab6565b611022565b34801561067657600080fd5b50610324610685366004612ab6565b6110a2565b34801561069657600080fd5b506103d66106a5366004612a50565b6110bd565b3480156106b657600080fd5b506103d661139c565b3480156106cb57600080fd5b506103d66106da366004612ab6565b6113ae565b3480156106eb57600080fd5b506104dd600a81565b34801561070057600080fd5b506103a661070f366004612ab6565b60156020526000908152604090205460ff1681565b34801561073057600080fd5b50610324600e5481565b34801561074657600080fd5b506104dd606481565b34801561075b57600080fd5b506103d661145a565b34801561077057600080fd5b5061037961146a565b34801561078557600080fd5b506103d6611479565b34801561079a57600080fd5b506007546103a690610100900460ff1681565b3480156107b957600080fd5b5061034c61151b565b3480156107ce57600080fd5b50600d546103a690600160a01b900460ff1681565b3480156107ef57600080fd5b506103d661152a565b34801561080457600080fd5b506103a6610813366004612a50565b611762565b34801561082457600080fd5b50600c54610379906001600160a01b031681565b34801561084457600080fd5b506103d6610853366004612a50565b61179e565b34801561086457600080fd5b506103d6610873366004612ab6565b61191f565b34801561088457600080fd5b506104dd600381565b34801561089957600080fd5b506103d66108a8366004612ad1565b6119bc565b3480156108b957600080fd5b5061032460105481565b3480156108cf57600080fd5b506103d66108de366004612aea565b611a53565b3480156108ef57600080fd5b50600d546103a690600160a81b900460ff1681565b34801561091057600080fd5b506104dd611a75565b34801561092557600080fd5b506103a6610934366004612b0c565b611a84565b34801561094557600080fd5b50600b54610379906001600160a01b031681565b34801561096557600080fd5b5061032460115481565b34801561097b57600080fd5b5061032460125481565b34801561099157600080fd5b506104dd600f81565b3480156109a657600080fd5b506103246109b5366004612ba1565b611c80565b3480156109c657600080fd5b506103d6611cab565b3480156109db57600080fd5b506103d66109ea366004612bd4565b611dd8565b3480156109fb57600080fd5b506103d6610a0a366004612ab6565b611ff9565b606060038054610a1e90612c00565b80601f0160208091040260200160405190810160405280929190818152602001828054610a4a90612c00565b8015610a975780601f10610a6c57610100808354040283529160200191610a97565b820191906000526020600020905b815481529060010190602001808311610a7a57829003601f168201915b5050505050905090565b600033610aaf818585612034565b60019150505b92915050565b610ac3612041565b610acb612073565b6001600160a01b038316610b2d5760405162461bcd60e51b815260206004820152602360248201527f6f70657261746f725472616e736665723a2066726f6d207a65726f206164647260448201526265737360e81b60648201526084016102ec565b6001600160a01b038216610b8d5760405162461bcd60e51b815260206004820152602160248201527f6f70657261746f725472616e736665723a20746f207a65726f206164647265736044820152607360f81b60648201526084016102ec565b610b98838383612097565b505050565b610ba5612041565b610bad612073565b610bb56120f6565b6001600160a01b0381166000908152601660209081526040918290208251808401909352805480845260019091015491830191909152610c285760405162461bcd60e51b815260206004820152600e60248201526d2737903932b9b2b93b30ba34b7b760911b60448201526064016102ec565b6001600160a01b03821660009081526015602052604090205460ff1615610c825760405162461bcd60e51b815260206004820152600e60248201526d105b1c9958591e481859dc99595960921b60448201526064016102ec565b620697808160200151610c959190612c50565b421015610cd05760405162461bcd60e51b8152602060048201526009602482015268546f6f206561726c7960b81b60448201526064016102ec565b805160128054600090610ce4908490612c63565b90915550506001600160a01b0382166000908152601660205260408120818155600101819055610d166006600a612d5a565b600e548351610d259190612d69565b610d2f9190612d80565b9050610d656001600160a01b037f0000000000000000000000000000000000000000000000000000000000000000168483612120565b81516040519081526001600160a01b038416907fa171b6942063c6f2800ce40a780edce37baa2b618571b11eedd1e69e626e7d769060200160405180910390a25050610db16001600655565b50565b600754600090610100900460ff1615610ddf5760405162461bcd60e51b81526004016102ec90612da2565b610dea84848461217f565b949350505050565b600060115482610ab59190612c50565b610e0a612041565b610e126121a3565b565b610e1c612041565b6001600160a01b038116610e725760405162461bcd60e51b815260206004820152601e60248201527f466163746f72792063616e6e6f74206265207a65726f2061646472657373000060448201526064016102ec565b600b80546001600160a01b0319166001600160a01b0392909216919091179055565b610e9c612041565b600d8054821515600160a81b0260ff60a81b199091161790556040517fe1965432af4c9923f6ebb98f1721262967cfa6178008742d23041dc8ee74ee8f90610ee990831515815260200190565b60405180910390a150565b610efc612041565b6001600160a01b038116610f435760405162461bcd60e51b815260206004820152600e60248201526d24b73b30b634b21039b2b63632b960911b60448201526064016102ec565b600954604080516001600160a01b03928316815291831660208301527fd08dbba23a735d81eaf53ac5ede2c722bb186e9d3d46b62842853f0d017c2212910160405180910390a1600980546001600160a01b0319166001600160a01b0392909216919091179055565b600b546001600160a01b03163314610fd65760405162461bcd60e51b81526004016102ec90612dd5565b6001600160a01b038116600081815260156020526040808220805460ff19166001179055517fec25952115d724de7fec274999c9cbe0cff9898f9f5128eaa42bd599138462a19190a250565b61102a612041565b6001600160a01b0381166110805760405162461bcd60e51b815260206004820152601d60248201527f5369676e65722063616e6e6f74206265207a65726f206164647265737300000060448201526064016102ec565b601480546001600160a01b0319166001600160a01b0392909216919091179055565b6001600160a01b031660009081526020819052604090205490565b6110c56120f6565b6110cd612073565b600b546001600160a01b031633146110f75760405162461bcd60e51b81526004016102ec90612dd5565b600d54600160a01b900460ff16156111425760405162461bcd60e51b815260206004820152600e60248201526d14d85b19481a185cc8195b99195960921b60448201526064016102ec565b6001600160a01b03821660009081526015602052604090205460ff1661119b5760405162461bcd60e51b815260206004820152600e60248201526d111a5cd8db185a5b48199a5c9cdd60921b60448201526064016102ec565b600081116111bb5760405162461bcd60e51b81526004016102ec90612dfb565b60006111c96006600a612d5a565b600e546111d69084612d69565b6111e09190612d80565b6001600160a01b0384166000908152601660209081526040918290208251808401909352805480845260019091015491830191909152919250901561129e57805183146112635760405162461bcd60e51b8152602060048201526011602482015270135d5cdd08189d5e481c995cd95c9d9959607a1b60448201526064016102ec565b82601260008282546112759190612c63565b90915550506001600160a01b038416600090815260166020526040812081815560010155611302565b601254600f546112ae9190612c63565b8311156112cd5760405162461bcd60e51b81526004016102ec90612e1d565b6113026001600160a01b037f0000000000000000000000000000000000000000000000000000000000000000168530856121ef565b82600f60008282546113149190612c63565b92505081905550816011600082825461132d9190612c50565b9091555050600954611349906001600160a01b03168585612097565b836001600160a01b03167f8f28852646c20cc973d3a8218f7eefed58c25c909f78f0265af4818c3d4dc2718460405161138491815260200190565b60405180910390a250506113986001600655565b5050565b6113a4612041565b610e12600061222e565b6113b6612041565b6001600160a01b0381166113fe5760405162461bcd60e51b815260206004820152600f60248201526e496e76616c6964206164647265737360881b60448201526064016102ec565b600d546040516001600160a01b038084169216907fb27a84474703ce30a05e600606fa29dbcfb1671aa7363e45dbf0f1b78f3ee11690600090a3600d80546001600160a01b0319166001600160a01b0392909216919091179055565b611462612041565b610e12612280565b6005546001600160a01b031690565b611481612041565b611489612073565b600d54600160a01b900460ff16156114d85760405162461bcd60e51b815260206004820152601260248201527114d85b1948185b1c9958591e48195b99195960721b60448201526064016102ec565b600d805460ff60a01b1916600160a01b1790556000600f8190556040517f7910379dd0db65208b77494ac6a3acca01262c78703f044e0abb7e4386a0bcbe9190a1565b606060048054610a1e90612c00565b6115326120f6565b61153a612073565b61154261146a565b6001600160a01b0316336001600160a01b0316148061156b5750600a546001600160a01b031633145b6115a85760405162461bcd60e51b815260206004820152600e60248201526d139bdd08185d5d1a1bdc9a5e995960921b60448201526064016102ec565b600d54600160a01b900460ff166115ff5760405162461bcd60e51b815260206004820152601b60248201527a43616e6e6f7420776974686472617720647572696e672073616c6560281b60448201526064016102ec565b6040516370a0823160e01b81526000906001600160a01b037f000000000000000000000000000000000000000000000000000000000000000016906370a082319061164e903090600401612a20565b602060405180830381865afa15801561166b573d6000803e3d6000fd5b505050506040513d601f19601f8201168201806040525081019061168f9190612e43565b9050600081116116d85760405162461bcd60e51b81526020600482015260146024820152734e6f2066756e647320746f20776974686472617760601b60448201526064016102ec565b600954611712906001600160a01b037f00000000000000000000000000000000000000000000000000000000000000008116911683612120565b6009546040517f8c7cdad0d12a8db3e23561b42da6f10c8137914c97beff202213a410e1f520a39161174f9184916001600160a01b031690612e5c565b60405180910390a150610e126001600655565b600754600090610100900460ff161561178d5760405162461bcd60e51b81526004016102ec90612da2565b61179783836122bd565b9392505050565b600b546001600160a01b031633146117c85760405162461bcd60e51b81526004016102ec90612dd5565b600081116117e85760405162461bcd60e51b81526004016102ec90612dfb565b6001600160a01b038216600090815260166020526040902054156118415760405162461bcd60e51b815260206004820152601060248201526f105b1c9958591e481c995cd95c9d995960821b60448201526064016102ec565b601254600f546118519190612c63565b8111156118705760405162461bcd60e51b81526004016102ec90612e1d565b600061187e6006600a612d5a565b600e5461188b9084612d69565b6118959190612d80565b90506118cc6001600160a01b037f0000000000000000000000000000000000000000000000000000000000000000168430846121ef565b6040805180820182528381524260208083019182526001600160a01b03871660009081526016909152928320915182555160019091015560128054849290611915908490612c50565b9091555050505050565b611927612041565b6001600160a01b0381166119705760405162461bcd60e51b815260206004820152601060248201526f24b73b30b634b21037b832b930ba37b960811b60448201526064016102ec565b600a80546001600160a01b0319166001600160a01b03831690811790915560405181907ffbe5b6cbafb274f445d7fed869dc77a838d8243a22c460de156560e8857cad0390600090a350565b6119c4612041565b600f5415611a0d5760405162461bcd60e51b815260206004820152601660248201527543616e2774206d696e7420647572696e672073616c6560501b60448201526064016102ec565b600954611a23906001600160a01b0316826122cb565b6040518181527f359675c23a13743cf846e03b084a0b1fd129ffa3404dbdd936effd23fb97aa9d90602001610ee9565b611a5b612041565b600780549115156101000261ff0019909216919091179055565b611a8160036064612e73565b81565b6000611a8e612073565b60008681526008602052604090205460ff1615611add5760405162461bcd60e51b815260206004820152600d60248201526c427566666572207265706c617960981b60448201526064016102ec565b6000868152600860209081526040808320805460ff1916600117905551611b3591899133918891889101938452606092831b6001600160601b031990811660208601529190921b166034830152604882015260680190565b6040516020818303038152906040528051906020012090506000611b86827f19457468657265756d205369676e6564204d6573736167653a0a3332000000006000908152601c91909152603c902090565b90506000611bcc88888080601f01602080910402602001604051908101604052809392919081815260200183838082843760009201919091525086939250506123019050565b6014549091506001600160a01b03808316911614611c205760405162461bcd60e51b8152602060048201526011602482015270496e76616c6964207369676e617475726560781b60448201526064016102ec565b611c2b338787612097565b60408051868152602081018b90526001600160a01b0388169133917fa50cbf27035f35522914ccdb748ac5870b90728775602ff8e87ab35817157f08910160405180910390a350600198975050505050505050565b6001600160a01b03918216600090815260016020908152604080832093909416825291909152205490565b611cb3612041565b4780611cf65760405162461bcd60e51b81526020600482015260126024820152714e6f2045544820746f20776974686472617760701b60448201526064016102ec565b6009546040516000916001600160a01b03169083908381818185875af1925050503d8060008114611d43576040519150601f19603f3d011682016040523d82523d6000602084013e611d48565b606091505b5050905080611d8f5760405162461bcd60e51b8152602060048201526013602482015272115512081d1c985b9cd9995c8819985a5b1959606a1b60448201526064016102ec565b6009546040517f6148672a948a12b8e0bf92a9338349b9ac890fad62a234abaf0a4da99f62cfcc91611dcc9185916001600160a01b031690612e5c565b60405180910390a15050565b611de0612041565b611de8612073565b60008211611e2a5760405162461bcd60e51b815260206004820152600f60248201526e0546f6b656e207072696365203e203608c1b60448201526064016102ec565b6000611e3560025490565b601381905590506064611e49600a83612d69565b611e539190612d80565b821015611e925760405162461bcd60e51b815260206004820152600d60248201526c546172676574203e3d2031302560981b60448201526064016102ec565b6064611e9f601e83612d69565b611ea99190612d80565b821115611ee85760405162461bcd60e51b815260206004820152600d60248201526c546172676574203c3d2033302560981b60448201526064016102ec565b6009548490611eff906001600160a01b03166110a2565b1015611f3e5760405162461bcd60e51b815260206004820152600e60248201526d53656c6c65722062616c206c6f7760901b60448201526064016102ec565b60095482908590611f57906001600160a01b03166110a2565b611f619190612c63565b14611fa35760405162461bcd60e51b8152602060048201526012602482015271109859081cd85b194bdd19dd081cdc1b1a5d60721b60448201526064016102ec565b600f849055600e839055601082905560408051858152602081018590529081018390527f4d012a69148885509f5eb0377244099c968f990db1f853707b9d8e3fea20f7b99060600160405180910390a150505050565b612001612041565b6001600160a01b03811661202b576000604051631e4fbdf760e01b81526004016102ec9190612a20565b610db18161222e565b610b98838383600161232b565b3361204a61146a565b6001600160a01b031614610e12573360405163118cdaa760e01b81526004016102ec9190612a20565b60075460ff1615610e125760405163d93c066560e01b815260040160405180910390fd5b6001600160a01b0383166120c1576000604051634b637e8f60e11b81526004016102ec9190612a20565b6001600160a01b0382166120eb57600060405163ec442f0560e01b81526004016102ec9190612a20565b610b98838383612400565b60026006540361211957604051633ee5aeb560e01b815260040160405180910390fd5b6002600655565b6040516001600160a01b03838116602483015260448201839052610b9891859182169063a9059cbb906064015b604051602081830303815290604052915060e01b6020820180516001600160e01b038381831617835250505050612416565b60003361218d85828561247e565b612198858585612097565b506001949350505050565b6121ab6124cc565b6007805460ff191690557f5db9ee0a495bf2e6ff9c91a7834c1ba4fdd244a5e8aa4e537bd38aeae4b073aa335b6040516121e59190612a20565b60405180910390a1565b6040516001600160a01b0384811660248301528381166044830152606482018390526122289186918216906323b872dd9060840161214d565b50505050565b600580546001600160a01b038381166001600160a01b0319831681179093556040519116919082907f8be0079c531659141344cd1fd0a4f28419497f9722a3daafe3b4186f6b6457e090600090a35050565b612288612073565b6007805460ff191660011790557f62e78cea01bee320cd4e420270b5ea74000d11b0c9f74754ebdbfc544b05a2586121d83390565b600033610aaf818585612097565b6001600160a01b0382166122f557600060405163ec442f0560e01b81526004016102ec9190612a20565b61139860008383612400565b60008060008061231186866124ef565b925092509250612321828261253c565b5090949350505050565b6001600160a01b03841661235557600060405163e602df0560e01b81526004016102ec9190612a20565b6001600160a01b03831661237f576000604051634a1406b160e11b81526004016102ec9190612a20565b6001600160a01b038085166000908152600160209081526040808320938716835292905220829055801561222857826001600160a01b0316846001600160a01b03167f8c5be1e5ebec7d5bd14f71427d1e84f3dd0314c0f7b2291e5b200ac8c7c3b925846040516123f291815260200190565b60405180910390a350505050565b61240b8383836125f5565b610b988383836127cc565b600080602060008451602086016000885af180612439576040513d6000823e3d81fd5b50506000513d9150811561245157806001141561245e565b6001600160a01b0384163b155b156122285783604051635274afe760e01b81526004016102ec9190612a20565b600061248a8484611c80565b905060001981101561222857818110156124bd57828183604051637dc7a0d960e11b81526004016102ec93929190612e8c565b6122288484848403600061232b565b60075460ff16610e1257604051638dfc202b60e01b815260040160405180910390fd5b600080600083516041036125295760208401516040850151606086015160001a61251b888285856128e3565b955095509550505050612535565b50508151600091506002905b9250925092565b600082600381111561255057612550612ead565b03612559575050565b600182600381111561256d5761256d612ead565b0361258b5760405163f645eedf60e01b815260040160405180910390fd5b600282600381111561259f5761259f612ead565b036125c05760405163fce698f760e01b8152600481018290526024016102ec565b60038260038111156125d4576125d4612ead565b03611398576040516335e2f38360e21b8152600481018290526024016102ec565b600d54600160a81b900460ff168061261457506001600160a01b038316155b8061262657506001600160a01b038216155b61266b5760405162461bcd60e51b8152602060048201526016602482015275151c985b9cd9995c9cc8185c9948191a5cd8589b195960521b60448201526064016102ec565b6001600160a01b0383161580159061268b57506001600160a01b03821615155b15610b98576009546001600160a01b039081169084160361272c5760095460009082906126c0906001600160a01b03166110a2565b6126ca9190612c63565b905060105481101561272a5760405162461bcd60e51b8152602060048201526024808201527f53656c6c6572206d7573742072657461696e206d696e696d756d206f776e65726044820152630736869760e41b60648201526084016102ec565b505b6009546001600160a01b03838116911614610b9857600060135460001461275557601354612759565b6002545b90506064612768600f83612d69565b6127729190612d80565b8261277c856110a2565b6127869190612c50565b11156122285760405162461bcd60e51b8152602060048201526015602482015274042757965722065786365656473203135252063617605c1b60448201526064016102ec565b6001600160a01b0383166127f75780600260008282546127ec9190612c50565b909155506128569050565b6001600160a01b038316600090815260208190526040902054818110156128375783818360405163391434e360e21b81526004016102ec93929190612e8c565b6001600160a01b03841660009081526020819052604090209082900390555b6001600160a01b03821661287257600280548290039055612891565b6001600160a01b03821660009081526020819052604090208054820190555b816001600160a01b0316836001600160a01b03167fddf252ad1be2c89b69c2b068fc378daa952ba7f163c4a11628f55a4df523b3ef836040516128d691815260200190565b60405180910390a3505050565b600080806fa2a8918ca85bafe22016d0b997e4df60600160ff1b03841115612914575060009150600390508261299e565b604080516000808252602082018084528a905260ff891692820192909252606081018790526080810186905260019060a0016020604051602081039080840390855afa158015612968573d6000803e3d6000fd5b5050604051601f1901519150506001600160a01b0381166129945750600092506001915082905061299e565b9250600091508190505b9450945094915050565b60208082526010908201526f115512081b9bdd081858d8d95c1d195960821b604082015260600190565b600060208083528351808285015260005b818110156129ff578581018301518582016040015282016129e3565b506000604082860101526040601f19601f8301168501019250505092915050565b6001600160a01b0391909116815260200190565b80356001600160a01b0381168114612a4b57600080fd5b919050565b60008060408385031215612a6357600080fd5b612a6c83612a34565b946020939093013593505050565b600080600060608486031215612a8f57600080fd5b612a9884612a34565b9250612aa660208501612a34565b9150604084013590509250925092565b600060208284031215612ac857600080fd5b61179782612a34565b600060208284031215612ae357600080fd5b5035919050565b600060208284031215612afc57600080fd5b8135801515811461179757600080fd5b600080600080600060808688031215612b2457600080fd5b85359450602086013567ffffffffffffffff80821115612b4357600080fd5b818801915088601f830112612b5757600080fd5b813581811115612b6657600080fd5b896020828501011115612b7857600080fd5b602083019650809550505050612b9060408701612a34565b949793965091946060013592915050565b60008060408385031215612bb457600080fd5b612bbd83612a34565b9150612bcb60208401612a34565b90509250929050565b600080600060608486031215612be957600080fd5b505081359360208301359350604090920135919050565b600181811c90821680612c1457607f821691505b602082108103612c3457634e487b7160e01b600052602260045260246000fd5b50919050565b634e487b7160e01b600052601160045260246000fd5b80820180821115610ab557610ab5612c3a565b81810381811115610ab557610ab5612c3a565b600181815b80851115612cb1578160001904821115612c9757612c97612c3a565b80851615612ca457918102915b93841c9390800290612c7b565b509250929050565b600082612cc857506001610ab5565b81612cd557506000610ab5565b8160018114612ceb5760028114612cf557612d11565b6001915050610ab5565b60ff841115612d0657612d06612c3a565b50506001821b610ab5565b5060208310610133831016604e8410600b8410161715612d34575081810a610ab5565b612d3e8383612c76565b8060001904821115612d5257612d52612c3a565b029392505050565b600061179760ff841683612cb9565b8082028115828204841417610ab557610ab5612c3a565b600082612d9d57634e487b7160e01b600052601260045260246000fd5b500490565b602080825260199082015278111a5c9958dd081d1c985b9cd9995c9cc8191a5cd8589b1959603a1b604082015260600190565b6020808252600c908201526b4f6e6c7920666163746f727960a01b604082015260600190565b6020808252600890820152670416d6f756e743e360c41b604082015260600190565b6020808252600c908201526b457863656564732073616c6560a01b604082015260600190565b600060208284031215612e5557600080fd5b5051919050565b9182526001600160a01b0316602082015260400190565b60ff8281168282160390811115610ab557610ab5612c3a565b6001600160a01b039390931683526020830191909152604082015260600190565b634e487b7160e01b600052602160045260246000fdfea2646970667358221220bf9c63d239853a8efa555e67b183bda510472e1e5b46c9d6d1d7640d68c5aed164736f6c63430008140033","opcodes":"PUSH1 0xA0 PUSH1 0x40 MSTORE PUSH1 0x7 DUP1 SLOAD PUSH2 0xFF00 NOT AND PUSH2 0x100 OR SWAP1 SSTORE PUSH1 0xD DUP1 SLOAD PUSH2 0xFFFF PUSH1 0xA0 SHL NOT AND PUSH1 0x1 PUSH1 0xA8 SHL OR SWAP1 SSTORE CALLVALUE DUP1 ISZERO PUSH3 0x34 JUMPI PUSH1 0x0 DUP1 REVERT JUMPDEST POP PUSH1 0x40 MLOAD PUSH3 0x391D CODESIZE SUB DUP1 PUSH3 0x391D DUP4 CODECOPY DUP2 ADD PUSH1 0x40 DUP2 SWAP1 MSTORE PUSH3 0x57 SWAP2 PUSH3 0x735 JUMP JUMPDEST DUP3 DUP9 DUP9 PUSH1 0x3 PUSH3 0x68 DUP4 DUP3 PUSH3 0x894 JUMP JUMPDEST POP PUSH1 0x4 PUSH3 0x77 DUP3 DUP3 PUSH3 0x894 JUMP JUMPDEST POP POP POP PUSH1 0x1 PUSH1 0x1 PUSH1 0xA0 SHL SUB DUP2 AND PUSH3 0xAA JUMPI PUSH1 0x40 MLOAD PUSH4 0x1E4FBDF7 PUSH1 0xE0 SHL DUP2 MSTORE PUSH1 0x0 PUSH1 0x4 DUP3 ADD MSTORE PUSH1 0x24 ADD JUMPDEST PUSH1 0x40 MLOAD DUP1 SWAP2 SUB SWAP1 REVERT JUMPDEST PUSH3 0xB5 DUP2 PUSH3 0x256 JUMP JUMPDEST POP PUSH1 0x1 PUSH1 0x6 SSTORE PUSH1 0x7 DUP1 SLOAD PUSH1 0xFF NOT AND SWAP1 SSTORE PUSH1 0x1 PUSH1 0x1 PUSH1 0xA0 SHL SUB DUP6 AND PUSH3 0x10E JUMPI PUSH1 0x40 MLOAD PUSH3 0x461BCD PUSH1 0xE5 SHL DUP2 MSTORE PUSH1 0x20 PUSH1 0x4 DUP3 ADD MSTORE PUSH1 0xE PUSH1 0x24 DUP3 ADD MSTORE PUSH14 0x24B73B30B634B21039B2B63632B9 PUSH1 0x91 SHL PUSH1 0x44 DUP3 ADD MSTORE PUSH1 0x64 ADD PUSH3 0xA1 JUMP JUMPDEST PUSH1 0x1 PUSH1 0x1 PUSH1 0xA0 SHL SUB DUP5 AND PUSH3 0x157 JUMPI PUSH1 0x40 MLOAD PUSH3 0x461BCD PUSH1 0xE5 SHL DUP2 MSTORE PUSH1 0x20 PUSH1 0x4 DUP3 ADD MSTORE PUSH1 0xE PUSH1 0x24 DUP3 ADD MSTORE PUSH14 0x496E76616C6964207768696D7379 PUSH1 0x90 SHL PUSH1 0x44 DUP3 ADD MSTORE PUSH1 0x64 ADD PUSH3 0xA1 JUMP JUMPDEST PUSH1 0x1 PUSH1 0x1 PUSH1 0xA0 SHL SUB DUP3 AND PUSH3 0x1AF JUMPI PUSH1 0x40 MLOAD PUSH3 0x461BCD PUSH1 0xE5 SHL DUP2 MSTORE PUSH1 0x20 PUSH1 0x4 DUP3 ADD MSTORE PUSH1 0x14 PUSH1 0x24 DUP3 ADD MSTORE PUSH32 0x496E76616C6964207061796D656E74546F6B656E000000000000000000000000 PUSH1 0x44 DUP3 ADD MSTORE PUSH1 0x64 ADD PUSH3 0xA1 JUMP JUMPDEST PUSH1 0xD DUP1 SLOAD PUSH1 0x1 PUSH1 0x1 PUSH1 0xA0 SHL SUB DUP1 DUP8 AND PUSH1 0x1 PUSH1 0x1 PUSH1 0xA0 SHL SUB NOT SWAP3 DUP4 AND OR SWAP1 SWAP3 SSTORE PUSH1 0x9 DUP1 SLOAD DUP9 DUP5 AND SWAP1 DUP4 AND OR SWAP1 SSTORE PUSH1 0xB DUP1 SLOAD DUP7 DUP5 AND SWAP1 DUP4 AND OR SWAP1 SSTORE DUP4 DUP3 AND PUSH1 0x80 MSTORE PUSH1 0x14 DUP1 SLOAD SWAP3 DUP5 AND SWAP3 SWAP1 SWAP2 AND SWAP2 SWAP1 SWAP2 OR SWAP1 SSTORE PUSH1 0x0 PUSH1 0x64 PUSH3 0x210 PUSH1 0x3 DUP10 PUSH3 0x976 JUMP JUMPDEST PUSH3 0x21C SWAP2 SWAP1 PUSH3 0x996 JUMP JUMPDEST SWAP1 POP PUSH1 0x0 PUSH3 0x22C DUP3 DUP10 PUSH3 0x9B9 JUMP JUMPDEST SWAP1 POP PUSH3 0x23A DUP8 DUP3 PUSH3 0x2A8 JUMP JUMPDEST PUSH3 0x246 DUP7 DUP4 PUSH3 0x2A8 JUMP JUMPDEST POP POP POP POP POP POP POP POP POP POP PUSH3 0x9E5 JUMP JUMPDEST PUSH1 0x5 DUP1 SLOAD PUSH1 0x1 PUSH1 0x1 PUSH1 0xA0 SHL SUB DUP4 DUP2 AND PUSH1 0x1 PUSH1 0x1 PUSH1 0xA0 SHL SUB NOT DUP4 AND DUP2 OR SWAP1 SWAP4 SSTORE PUSH1 0x40 MLOAD SWAP2 AND SWAP2 SWAP1 DUP3 SWAP1 PUSH32 0x8BE0079C531659141344CD1FD0A4F28419497F9722A3DAAFE3B4186F6B6457E0 SWAP1 PUSH1 0x0 SWAP1 LOG3 POP POP JUMP JUMPDEST PUSH1 0x1 PUSH1 0x1 PUSH1 0xA0 SHL SUB DUP3 AND PUSH3 0x2D4 JUMPI PUSH1 0x40 MLOAD PUSH4 0xEC442F05 PUSH1 0xE0 SHL DUP2 MSTORE PUSH1 0x0 PUSH1 0x4 DUP3 ADD MSTORE PUSH1 0x24 ADD PUSH3 0xA1 JUMP JUMPDEST PUSH3 0x2E2 PUSH1 0x0 DUP4 DUP4 PUSH3 0x2E6 JUMP JUMPDEST POP POP JUMP JUMPDEST PUSH3 0x2F3 DUP4 DUP4 DUP4 PUSH3 0x305 JUMP JUMPDEST PUSH3 0x300 DUP4 DUP4 DUP4 PUSH3 0x520 JUMP JUMPDEST POP POP POP JUMP JUMPDEST PUSH1 0xD SLOAD PUSH1 0x1 PUSH1 0xA8 SHL SWAP1 DIV PUSH1 0xFF AND DUP1 PUSH3 0x325 JUMPI POP PUSH1 0x1 PUSH1 0x1 PUSH1 0xA0 SHL SUB DUP4 AND ISZERO JUMPDEST DUP1 PUSH3 0x338 JUMPI POP PUSH1 0x1 PUSH1 0x1 PUSH1 0xA0 SHL SUB DUP3 AND ISZERO JUMPDEST PUSH3 0x386 JUMPI PUSH1 0x40 MLOAD PUSH3 0x461BCD PUSH1 0xE5 SHL DUP2 MSTORE PUSH1 0x20 PUSH1 0x4 DUP3 ADD MSTORE PUSH1 0x16 PUSH1 0x24 DUP3 ADD MSTORE PUSH32 0x5472616E7366657273206172652064697361626C656400000000000000000000 PUSH1 0x44 DUP3 ADD MSTORE PUSH1 0x64 ADD PUSH3 0xA1 JUMP JUMPDEST PUSH1 0x1 PUSH1 0x1 PUSH1 0xA0 SHL SUB DUP4 AND ISZERO DUP1 ISZERO SWAP1 PUSH3 0x3A7 JUMPI POP PUSH1 0x1 PUSH1 0x1 PUSH1 0xA0 SHL SUB DUP3 AND ISZERO ISZERO JUMPDEST ISZERO PUSH3 0x300 JUMPI PUSH1 0x9 SLOAD PUSH1 0x1 PUSH1 0x1 PUSH1 0xA0 SHL SUB SWAP1 DUP2 AND SWAP1 DUP5 AND SUB PUSH3 0x450 JUMPI PUSH1 0x9 SLOAD PUSH1 0x1 PUSH1 0x1 PUSH1 0xA0 SHL SUB AND PUSH1 0x0 SWAP1 DUP2 MSTORE PUSH1 0x20 DUP2 SWAP1 MSTORE PUSH1 0x40 DUP2 KECCAK256 SLOAD PUSH3 0x3EC SWAP1 DUP4 SWAP1 PUSH3 0x9B9 JUMP JUMPDEST SWAP1 POP PUSH1 0x10 SLOAD DUP2 LT ISZERO PUSH3 0x44E JUMPI PUSH1 0x40 MLOAD PUSH3 0x461BCD PUSH1 0xE5 SHL DUP2 MSTORE PUSH1 0x20 PUSH1 0x4 DUP3 ADD MSTORE PUSH1 0x24 DUP1 DUP3 ADD MSTORE PUSH32 0x53656C6C6572206D7573742072657461696E206D696E696D756D206F776E6572 PUSH1 0x44 DUP3 ADD MSTORE PUSH4 0x7368697 PUSH1 0xE4 SHL PUSH1 0x64 DUP3 ADD MSTORE PUSH1 0x84 ADD PUSH3 0xA1 JUMP JUMPDEST POP JUMPDEST PUSH1 0x9 SLOAD PUSH1 0x1 PUSH1 0x1 PUSH1 0xA0 SHL SUB DUP4 DUP2 AND SWAP2 AND EQ PUSH3 0x300 JUMPI PUSH1 0x0 PUSH1 0x13 SLOAD PUSH1 0x0 EQ PUSH3 0x47C JUMPI PUSH1 0x13 SLOAD PUSH3 0x480 JUMP JUMPDEST PUSH1 0x2 SLOAD JUMPDEST SWAP1 POP PUSH1 0x64 PUSH3 0x491 PUSH1 0xF DUP4 PUSH3 0x976 JUMP JUMPDEST PUSH3 0x49D SWAP2 SWAP1 PUSH3 0x996 JUMP JUMPDEST DUP3 PUSH3 0x4BE DUP6 PUSH1 0x1 PUSH1 0x1 PUSH1 0xA0 SHL SUB AND PUSH1 0x0 SWAP1 DUP2 MSTORE PUSH1 0x20 DUP2 SWAP1 MSTORE PUSH1 0x40 SWAP1 KECCAK256 SLOAD SWAP1 JUMP JUMPDEST PUSH3 0x4CA SWAP2 SWAP1 PUSH3 0x9CF JUMP JUMPDEST GT ISZERO PUSH3 0x51A JUMPI PUSH1 0x40 MLOAD PUSH3 0x461BCD PUSH1 0xE5 SHL DUP2 MSTORE PUSH1 0x20 PUSH1 0x4 DUP3 ADD MSTORE PUSH1 0x15 PUSH1 0x24 DUP3 ADD MSTORE PUSH32 0x4275796572206578636565647320313525206361700000000000000000000000 PUSH1 0x44 DUP3 ADD MSTORE PUSH1 0x64 ADD PUSH3 0xA1 JUMP JUMPDEST POP POP POP POP JUMP JUMPDEST PUSH1 0x1 PUSH1 0x1 PUSH1 0xA0 SHL SUB DUP4 AND PUSH3 0x54F JUMPI DUP1 PUSH1 0x2 PUSH1 0x0 DUP3 DUP3 SLOAD PUSH3 0x543 SWAP2 SWAP1 PUSH3 0x9CF JUMP JUMPDEST SWAP1 SWAP2 SSTORE POP PUSH3 0x5C3 SWAP1 POP JUMP JUMPDEST PUSH1 0x1 PUSH1 0x1 PUSH1 0xA0 SHL SUB DUP4 AND PUSH1 0x0 SWAP1 DUP2 MSTORE PUSH1 0x20 DUP2 SWAP1 MSTORE PUSH1 0x40 SWAP1 KECCAK256 SLOAD DUP2 DUP2 LT ISZERO PUSH3 0x5A4 JUMPI PUSH1 0x40 MLOAD PUSH4 0x391434E3 PUSH1 0xE2 SHL DUP2 MSTORE PUSH1 0x1 PUSH1 0x1 PUSH1 0xA0 SHL SUB DUP6 AND PUSH1 0x4 DUP3 ADD MSTORE PUSH1 0x24 DUP2 ADD DUP3 SWAP1 MSTORE PUSH1 0x44 DUP2 ADD DUP4 SWAP1 MSTORE PUSH1 0x64 ADD PUSH3 0xA1 JUMP JUMPDEST PUSH1 0x1 PUSH1 0x1 PUSH1 0xA0 SHL SUB DUP5 AND PUSH1 0x0 SWAP1 DUP2 MSTORE PUSH1 0x20 DUP2 SWAP1 MSTORE PUSH1 0x40 SWAP1 KECCAK256 SWAP1 DUP3 SWAP1 SUB SWAP1 SSTORE JUMPDEST PUSH1 0x1 PUSH1 0x1 PUSH1 0xA0 SHL SUB DUP3 AND PUSH3 0x5E1 JUMPI PUSH1 0x2 DUP1 SLOAD DUP3 SWAP1 SUB SWAP1 SSTORE PUSH3 0x600 JUMP JUMPDEST PUSH1 0x1 PUSH1 0x1 PUSH1 0xA0 SHL SUB DUP3 AND PUSH1 0x0 SWAP1 DUP2 MSTORE PUSH1 0x20 DUP2 SWAP1 MSTORE PUSH1 0x40 SWAP1 KECCAK256 DUP1 SLOAD DUP3 ADD SWAP1 SSTORE JUMPDEST DUP2 PUSH1 0x1 PUSH1 0x1 PUSH1 0xA0 SHL SUB AND DUP4 PUSH1 0x1 PUSH1 0x1 PUSH1 0xA0 SHL SUB AND PUSH32 0xDDF252AD1BE2C89B69C2B068FC378DAA952BA7F163C4A11628F55A4DF523B3EF DUP4 PUSH1 0x40 MLOAD PUSH3 0x646 SWAP2 DUP2 MSTORE PUSH1 0x20 ADD SWAP1 JUMP JUMPDEST PUSH1 0x40 MLOAD DUP1 SWAP2 SUB SWAP1 LOG3 POP POP POP JUMP JUMPDEST PUSH4 0x4E487B71 PUSH1 0xE0 SHL PUSH1 0x0 MSTORE PUSH1 0x41 PUSH1 0x4 MSTORE PUSH1 0x24 PUSH1 0x0 REVERT JUMPDEST PUSH1 0x0 DUP3 PUSH1 0x1F DUP4 ADD SLT PUSH3 0x67B JUMPI PUSH1 0x0 DUP1 REVERT JUMPDEST DUP2 MLOAD PUSH1 0x1 PUSH1 0x1 PUSH1 0x40 SHL SUB DUP1 DUP3 GT ISZERO PUSH3 0x698 JUMPI PUSH3 0x698 PUSH3 0x653 JUMP JUMPDEST PUSH1 0x40 MLOAD PUSH1 0x1F DUP4 ADD PUSH1 0x1F NOT SWAP1 DUP2 AND PUSH1 0x3F ADD AND DUP2 ADD SWAP1 DUP3 DUP3 GT DUP2 DUP4 LT OR ISZERO PUSH3 0x6C3 JUMPI PUSH3 0x6C3 PUSH3 0x653 JUMP JUMPDEST DUP2 PUSH1 0x40 MSTORE DUP4 DUP2 MSTORE PUSH1 0x20 SWAP3 POP DUP7 DUP4 DUP6 DUP9 ADD ADD GT ISZERO PUSH3 0x6E0 JUMPI PUSH1 0x0 DUP1 REVERT JUMPDEST PUSH1 0x0 SWAP2 POP JUMPDEST DUP4 DUP3 LT ISZERO PUSH3 0x704 JUMPI DUP6 DUP3 ADD DUP4 ADD MLOAD DUP2 DUP4 ADD DUP5 ADD MSTORE SWAP1 DUP3 ADD SWAP1 PUSH3 0x6E5 JUMP JUMPDEST PUSH1 0x0 SWAP4 DUP2 ADD SWAP1 SWAP3 ADD SWAP3 SWAP1 SWAP3 MSTORE SWAP5 SWAP4 POP POP POP POP JUMP JUMPDEST DUP1 MLOAD PUSH1 0x1 PUSH1 0x1 PUSH1 0xA0 SHL SUB DUP2 AND DUP2 EQ PUSH3 0x730 JUMPI PUSH1 0x0 DUP1 REVERT JUMPDEST SWAP2 SWAP1 POP JUMP JUMPDEST PUSH1 0x0 DUP1 PUSH1 0x0 DUP1 PUSH1 0x0 DUP1 PUSH1 0x0 DUP1 PUSH2 0x100 DUP10 DUP12 SUB SLT ISZERO PUSH3 0x753 JUMPI PUSH1 0x0 DUP1 REVERT JUMPDEST DUP9 MLOAD PUSH1 0x1 PUSH1 0x1 PUSH1 0x40 SHL SUB DUP1 DUP3 GT ISZERO PUSH3 0x76B JUMPI PUSH1 0x0 DUP1 REVERT JUMPDEST PUSH3 0x779 DUP13 DUP4 DUP14 ADD PUSH3 0x669 JUMP JUMPDEST SWAP10 POP PUSH1 0x20 DUP12 ADD MLOAD SWAP2 POP DUP1 DUP3 GT ISZERO PUSH3 0x790 JUMPI PUSH1 0x0 DUP1 REVERT JUMPDEST POP PUSH3 0x79F DUP12 DUP3 DUP13 ADD PUSH3 0x669 JUMP JUMPDEST SWAP8 POP POP PUSH1 0x40 DUP10 ADD MLOAD SWAP6 POP PUSH3 0x7B7 PUSH1 0x60 DUP11 ADD PUSH3 0x718 JUMP JUMPDEST SWAP5 POP PUSH3 0x7C7 PUSH1 0x80 DUP11 ADD PUSH3 0x718 JUMP JUMPDEST SWAP4 POP PUSH3 0x7D7 PUSH1 0xA0 DUP11 ADD PUSH3 0x718 JUMP JUMPDEST SWAP3 POP PUSH3 0x7E7 PUSH1 0xC0 DUP11 ADD PUSH3 0x718 JUMP JUMPDEST SWAP2 POP PUSH3 0x7F7 PUSH1 0xE0 DUP11 ADD PUSH3 0x718 JUMP JUMPDEST SWAP1 POP SWAP3 SWAP6 SWAP9 POP SWAP3 SWAP6 SWAP9 SWAP1 SWAP4 SWAP7 POP JUMP JUMPDEST PUSH1 0x1 DUP2 DUP2 SHR SWAP1 DUP3 AND DUP1 PUSH3 0x81B JUMPI PUSH1 0x7F DUP3 AND SWAP2 POP JUMPDEST PUSH1 0x20 DUP3 LT DUP2 SUB PUSH3 0x83C JUMPI PUSH4 0x4E487B71 PUSH1 0xE0 SHL PUSH1 0x0 MSTORE PUSH1 0x22 PUSH1 0x4 MSTORE PUSH1 0x24 PUSH1 0x0 REVERT JUMPDEST POP SWAP2 SWAP1 POP JUMP JUMPDEST PUSH1 0x1F DUP3 GT ISZERO PUSH3 0x300 JUMPI PUSH1 0x0 DUP2 DUP2 MSTORE PUSH1 0x20 DUP2 KECCAK256 PUSH1 0x1F DUP6 ADD PUSH1 0x5 SHR DUP2 ADD PUSH1 0x20 DUP7 LT ISZERO PUSH3 0x86B JUMPI POP DUP1 JUMPDEST PUSH1 0x1F DUP6 ADD PUSH1 0x5 SHR DUP3 ADD SWAP2 POP JUMPDEST DUP2 DUP2 LT ISZERO PUSH3 0x88C JUMPI DUP3 DUP2 SSTORE PUSH1 0x1 ADD PUSH3 0x877 JUMP JUMPDEST POP POP POP POP POP POP JUMP JUMPDEST DUP2 MLOAD PUSH1 0x1 PUSH1 0x1 PUSH1 0x40 SHL SUB DUP2 GT ISZERO PUSH3 0x8B0 JUMPI PUSH3 0x8B0 PUSH3 0x653 JUMP JUMPDEST PUSH3 0x8C8 DUP2 PUSH3 0x8C1 DUP5 SLOAD PUSH3 0x806 JUMP JUMPDEST DUP5 PUSH3 0x842 JUMP JUMPDEST PUSH1 0x20 DUP1 PUSH1 0x1F DUP4 GT PUSH1 0x1 DUP2 EQ PUSH3 0x900 JUMPI PUSH1 0x0 DUP5 ISZERO PUSH3 0x8E7 JUMPI POP DUP6 DUP4 ADD MLOAD JUMPDEST PUSH1 0x0 NOT PUSH1 0x3 DUP7 SWAP1 SHL SHR NOT AND PUSH1 0x1 DUP6 SWAP1 SHL OR DUP6 SSTORE PUSH3 0x88C JUMP JUMPDEST PUSH1 0x0 DUP6 DUP2 MSTORE PUSH1 0x20 DUP2 KECCAK256 PUSH1 0x1F NOT DUP7 AND SWAP2 JUMPDEST DUP3 DUP2 LT ISZERO PUSH3 0x931 JUMPI DUP9 DUP7 ADD MLOAD DUP3 SSTORE SWAP5 DUP5 ADD SWAP5 PUSH1 0x1 SWAP1 SWAP2 ADD SWAP1 DUP5 ADD PUSH3 0x910 JUMP JUMPDEST POP DUP6 DUP3 LT ISZERO PUSH3 0x950 JUMPI DUP8 DUP6 ADD MLOAD PUSH1 0x0 NOT PUSH1 0x3 DUP9 SWAP1 SHL PUSH1 0xF8 AND SHR NOT AND DUP2 SSTORE JUMPDEST POP POP POP POP POP PUSH1 0x1 SWAP1 DUP2 SHL ADD SWAP1 SSTORE POP JUMP JUMPDEST PUSH4 0x4E487B71 PUSH1 0xE0 SHL PUSH1 0x0 MSTORE PUSH1 0x11 PUSH1 0x4 MSTORE PUSH1 0x24 PUSH1 0x0 REVERT JUMPDEST DUP1 DUP3 MUL DUP2 ISZERO DUP3 DUP3 DIV DUP5 EQ OR PUSH3 0x990 JUMPI PUSH3 0x990 PUSH3 0x960 JUMP JUMPDEST SWAP3 SWAP2 POP POP JUMP JUMPDEST PUSH1 0x0 DUP3 PUSH3 0x9B4 JUMPI PUSH4 0x4E487B71 PUSH1 0xE0 SHL PUSH1 0x0 MSTORE PUSH1 0x12 PUSH1 0x4 MSTORE PUSH1 0x24 PUSH1 0x0 REVERT JUMPDEST POP DIV SWAP1 JUMP JUMPDEST DUP2 DUP2 SUB DUP2 DUP2 GT ISZERO PUSH3 0x990 JUMPI PUSH3 0x990 PUSH3 0x960 JUMP JUMPDEST DUP1 DUP3 ADD DUP1 DUP3 GT ISZERO PUSH3 0x990 JUMPI PUSH3 0x990 PUSH3 0x960 JUMP JUMPDEST PUSH1 0x80 MLOAD PUSH2 0x2EF9 PUSH3 0xA24 PUSH1 0x0 CODECOPY PUSH1 0x0 DUP2 DUP2 PUSH2 0x4AB ADD MSTORE DUP2 DUP2 PUSH2 0xD3E ADD MSTORE DUP2 DUP2 PUSH2 0x12DA ADD MSTORE DUP2 DUP2 PUSH2 0x1619 ADD MSTORE DUP2 DUP2 PUSH2 0x16E9 ADD MSTORE PUSH2 0x18A4 ADD MSTORE PUSH2 0x2EF9 PUSH1 0x0 RETURN INVALID PUSH1 0x80 PUSH1 0x40 MSTORE PUSH1 0x4 CALLDATASIZE LT PUSH2 0x2CF JUMPI PUSH1 0x0 CALLDATALOAD PUSH1 0xE0 SHR DUP1 PUSH4 0x7B239E22 GT PUSH2 0x17C JUMPI DUP1 PUSH4 0xB91F6F0E GT PUSH2 0xD2 JUMPI DUP1 PUSH4 0xB91F6F0E EQ PUSH2 0x878 JUMPI DUP1 PUSH4 0xB921E163 EQ PUSH2 0x88D JUMPI DUP1 PUSH4 0xBB979D62 EQ PUSH2 0x8AD JUMPI DUP1 PUSH4 0xBBD30FB9 EQ PUSH2 0x8C3 JUMPI DUP1 PUSH4 0xBEF97C87 EQ PUSH2 0x8E3 JUMPI DUP1 PUSH4 0xC157C5FF EQ PUSH2 0x904 JUMPI DUP1 PUSH4 0xC421D18F EQ PUSH2 0x919 JUMPI DUP1 PUSH4 0xC45A0155 EQ PUSH2 0x939 JUMPI DUP1 PUSH4 0xC5C4744C EQ PUSH2 0x959 JUMPI DUP1 PUSH4 0xC71B0E1C EQ PUSH2 0x96F JUMPI DUP1 PUSH4 0xD5CF7CFE EQ PUSH2 0x985 JUMPI DUP1 PUSH4 0xDD62ED3E EQ PUSH2 0x99A JUMPI DUP1 PUSH4 0xE086E5EC EQ PUSH2 0x9BA JUMPI DUP1 PUSH4 0xE249B7CE EQ PUSH2 0x9CF JUMPI DUP1 PUSH4 0xF2FDE38B EQ PUSH2 0x9EF JUMPI PUSH2 0x2F5 JUMP JUMPDEST DUP1 PUSH4 0x7B239E22 EQ PUSH2 0x6DF JUMPI DUP1 PUSH4 0x7D6C8C00 EQ PUSH2 0x6F4 JUMPI DUP1 PUSH4 0x7FF9B596 EQ PUSH2 0x724 JUMPI DUP1 PUSH4 0x805D835D EQ PUSH2 0x73A JUMPI DUP1 PUSH4 0x8456CB59 EQ PUSH2 0x74F JUMPI DUP1 PUSH4 0x8DA5CB5B EQ PUSH2 0x764 JUMPI DUP1 PUSH4 0x8F52F0F9 EQ PUSH2 0x779 JUMPI DUP1 PUSH4 0x93634C0A EQ PUSH2 0x78E JUMPI DUP1 PUSH4 0x95D89B41 EQ PUSH2 0x7AD JUMPI DUP1 PUSH4 0x9B8906AE EQ PUSH2 0x7C2 JUMPI DUP1 PUSH4 0xA118BABD EQ PUSH2 0x7E3 JUMPI DUP1 PUSH4 0xA9059CBB EQ PUSH2 0x7F8 JUMPI DUP1 PUSH4 0xB172B222 EQ PUSH2 0x818 JUMPI DUP1 PUSH4 0xB2826B91 EQ PUSH2 0x838 JUMPI DUP1 PUSH4 0xB3AB15FB EQ PUSH2 0x858 JUMPI PUSH2 0x2F5 JUMP JUMPDEST DUP1 PUSH4 0x3F4BA83A GT PUSH2 0x231 JUMPI DUP1 PUSH4 0x3F4BA83A EQ PUSH2 0x4EF JUMPI DUP1 PUSH4 0x490DEB3D EQ PUSH2 0x504 JUMPI DUP1 PUSH4 0x570CA735 EQ PUSH2 0x54D JUMPI DUP1 PUSH4 0x58BCC4FB EQ PUSH2 0x56D JUMPI DUP1 PUSH4 0x5BB47808 EQ PUSH2 0x59D JUMPI DUP1 PUSH4 0x5C975ABB EQ PUSH2 0x5BD JUMPI DUP1 PUSH4 0x624B233D EQ PUSH2 0x5D5 JUMPI DUP1 PUSH4 0x68504158 EQ PUSH2 0x5EA JUMPI DUP1 PUSH4 0x685DAB8F EQ PUSH2 0x60A JUMPI DUP1 PUSH4 0x6ADD3BDB EQ PUSH2 0x62A JUMPI DUP1 PUSH4 0x6C19E783 EQ PUSH2 0x64A JUMPI DUP1 PUSH4 0x70A08231 EQ PUSH2 0x66A JUMPI DUP1 PUSH4 0x712DAA75 EQ PUSH2 0x68A JUMPI DUP1 PUSH4 0x715018A6 EQ PUSH2 0x6AA JUMPI DUP1 PUSH4 0x74FAA74B EQ PUSH2 0x6BF JUMPI PUSH2 0x2F5 JUMP JUMPDEST DUP1 PUSH3 0x267F9A EQ PUSH2 0x30D JUMPI DUP1 PUSH4 0x6FDDE03 EQ PUSH2 0x337 JUMPI DUP1 PUSH4 0x8551A53 EQ PUSH2 0x359 JUMPI DUP1 PUSH4 0x95EA7B3 EQ PUSH2 0x386 JUMPI DUP1 PUSH4 0xD1AF103 EQ PUSH2 0x3B6 JUMPI DUP1 PUSH4 0x12AEF8C3 EQ PUSH2 0x3D8 JUMPI DUP1 PUSH4 0x15482CE1 EQ PUSH2 0x3EE JUMPI DUP1 PUSH4 0x16314A69 EQ PUSH2 0x404 JUMPI DUP1 PUSH4 0x18160DDD EQ PUSH2 0x424 JUMPI DUP1 PUSH4 0x1DF37492 EQ PUSH2 0x439 JUMPI DUP1 PUSH4 0x23B872DD EQ PUSH2 0x459 JUMPI DUP1 PUSH4 0x2B319A8F EQ PUSH2 0x479 JUMPI DUP1 PUSH4 0x3013CE29 EQ PUSH2 0x499 JUMPI DUP1 PUSH4 0x313CE567 EQ PUSH2 0x4CD JUMPI PUSH2 0x2F5 JUMP JUMPDEST CALLDATASIZE PUSH2 0x2F5 JUMPI PUSH1 0x40 MLOAD PUSH3 0x461BCD PUSH1 0xE5 SHL DUP2 MSTORE PUSH1 0x4 ADD PUSH2 0x2EC SWAP1 PUSH2 0x29A8 JUMP JUMPDEST PUSH1 0x40 MLOAD DUP1 SWAP2 SUB SWAP1 REVERT JUMPDEST PUSH1 0x40 MLOAD PUSH3 0x461BCD PUSH1 0xE5 SHL DUP2 MSTORE PUSH1 0x4 ADD PUSH2 0x2EC SWAP1 PUSH2 0x29A8 JUMP JUMPDEST CALLVALUE DUP1 ISZERO PUSH2 0x319 JUMPI PUSH1 0x0 DUP1 REVERT JUMPDEST POP PUSH2 0x324 PUSH3 0x69780 DUP2 JUMP JUMPDEST PUSH1 0x40 MLOAD SWAP1 DUP2 MSTORE PUSH1 0x20 ADD JUMPDEST PUSH1 0x40 MLOAD DUP1 SWAP2 SUB SWAP1 RETURN JUMPDEST CALLVALUE DUP1 ISZERO PUSH2 0x343 JUMPI PUSH1 0x0 DUP1 REVERT JUMPDEST POP PUSH2 0x34C PUSH2 0xA0F JUMP JUMPDEST PUSH1 0x40 MLOAD PUSH2 0x32E SWAP2 SWAP1 PUSH2 0x29D2 JUMP JUMPDEST CALLVALUE DUP1 ISZERO PUSH2 0x365 JUMPI PUSH1 0x0 DUP1 REVERT JUMPDEST POP PUSH1 0x9 SLOAD PUSH2 0x379 SWAP1 PUSH1 0x1 PUSH1 0x1 PUSH1 0xA0 SHL SUB AND DUP2 JUMP JUMPDEST PUSH1 0x40 MLOAD PUSH2 0x32E SWAP2 SWAP1 PUSH2 0x2A20 JUMP JUMPDEST CALLVALUE DUP1 ISZERO PUSH2 0x392 JUMPI PUSH1 0x0 DUP1 REVERT JUMPDEST POP PUSH2 0x3A6 PUSH2 0x3A1 CALLDATASIZE PUSH1 0x4 PUSH2 0x2A50 JUMP JUMPDEST PUSH2 0xAA1 JUMP JUMPDEST PUSH1 0x40 MLOAD SWAP1 ISZERO ISZERO DUP2 MSTORE PUSH1 0x20 ADD PUSH2 0x32E JUMP JUMPDEST CALLVALUE DUP1 ISZERO PUSH2 0x3C2 JUMPI PUSH1 0x0 DUP1 REVERT JUMPDEST POP PUSH2 0x3D6 PUSH2 0x3D1 CALLDATASIZE PUSH1 0x4 PUSH2 0x2A7A JUMP JUMPDEST PUSH2 0xABB JUMP JUMPDEST STOP JUMPDEST CALLVALUE DUP1 ISZERO PUSH2 0x3E4 JUMPI PUSH1 0x0 DUP1 REVERT JUMPDEST POP PUSH2 0x324 PUSH1 0xF SLOAD DUP2 JUMP JUMPDEST CALLVALUE DUP1 ISZERO PUSH2 0x3FA JUMPI PUSH1 0x0 DUP1 REVERT JUMPDEST POP PUSH2 0x324 PUSH1 0x13 SLOAD DUP2 JUMP JUMPDEST CALLVALUE DUP1 ISZERO PUSH2 0x410 JUMPI PUSH1 0x0 DUP1 REVERT JUMPDEST POP PUSH1 0xD SLOAD PUSH2 0x379 SWAP1 PUSH1 0x1 PUSH1 0x1 PUSH1 0xA0 SHL SUB AND DUP2 JUMP JUMPDEST CALLVALUE DUP1 ISZERO PUSH2 0x430 JUMPI PUSH1 0x0 DUP1 REVERT JUMPDEST POP PUSH1 0x2 SLOAD PUSH2 0x324 JUMP JUMPDEST CALLVALUE DUP1 ISZERO PUSH2 0x445 JUMPI PUSH1 0x0 DUP1 REVERT JUMPDEST POP PUSH2 0x3D6 PUSH2 0x454 CALLDATASIZE PUSH1 0x4 PUSH2 0x2AB6 JUMP JUMPDEST PUSH2 0xB9D JUMP JUMPDEST CALLVALUE DUP1 ISZERO PUSH2 0x465 JUMPI PUSH1 0x0 DUP1 REVERT JUMPDEST POP PUSH2 0x3A6 PUSH2 0x474 CALLDATASIZE PUSH1 0x4 PUSH2 0x2A7A JUMP JUMPDEST PUSH2 0xDB4 JUMP JUMPDEST CALLVALUE DUP1 ISZERO PUSH2 0x485 JUMPI PUSH1 0x0 DUP1 REVERT JUMPDEST POP PUSH2 0x324 PUSH2 0x494 CALLDATASIZE PUSH1 0x4 PUSH2 0x2AD1 JUMP JUMPDEST PUSH2 0xDF2 JUMP JUMPDEST CALLVALUE DUP1 ISZERO PUSH2 0x4A5 JUMPI PUSH1 0x0 DUP1 REVERT JUMPDEST POP PUSH2 0x379 PUSH32 0x0 DUP2 JUMP JUMPDEST CALLVALUE DUP1 ISZERO PUSH2 0x4D9 JUMPI PUSH1 0x0 DUP1 REVERT JUMPDEST POP PUSH1 0x6 JUMPDEST PUSH1 0x40 MLOAD PUSH1 0xFF SWAP1 SWAP2 AND DUP2 MSTORE PUSH1 0x20 ADD PUSH2 0x32E JUMP JUMPDEST CALLVALUE DUP1 ISZERO PUSH2 0x4FB JUMPI PUSH1 0x0 DUP1 REVERT JUMPDEST POP PUSH2 0x3D6 PUSH2 0xE02 JUMP JUMPDEST CALLVALUE DUP1 ISZERO PUSH2 0x510 JUMPI PUSH1 0x0 DUP1 REVERT JUMPDEST POP PUSH2 0x538 PUSH2 0x51F CALLDATASIZE PUSH1 0x4 PUSH2 0x2AB6 JUMP JUMPDEST PUSH1 0x16 PUSH1 0x20 MSTORE PUSH1 0x0 SWAP1 DUP2 MSTORE PUSH1 0x40 SWAP1 KECCAK256 DUP1 SLOAD PUSH1 0x1 SWAP1 SWAP2 ADD SLOAD DUP3 JUMP JUMPDEST PUSH1 0x40 DUP1 MLOAD SWAP3 DUP4 MSTORE PUSH1 0x20 DUP4 ADD SWAP2 SWAP1 SWAP2 MSTORE ADD PUSH2 0x32E JUMP JUMPDEST CALLVALUE DUP1 ISZERO PUSH2 0x559 JUMPI PUSH1 0x0 DUP1 REVERT JUMPDEST POP PUSH1 0xA SLOAD PUSH2 0x379 SWAP1 PUSH1 0x1 PUSH1 0x1 PUSH1 0xA0 SHL SUB AND DUP2 JUMP JUMPDEST CALLVALUE DUP1 ISZERO PUSH2 0x579 JUMPI PUSH1 0x0 DUP1 REVERT JUMPDEST POP PUSH2 0x3A6 PUSH2 0x588 CALLDATASIZE PUSH1 0x4 PUSH2 0x2AD1 JUMP JUMPDEST PUSH1 0x8 PUSH1 0x20 MSTORE PUSH1 0x0 SWAP1 DUP2 MSTORE PUSH1 0x40 SWAP1 KECCAK256 SLOAD PUSH1 0xFF AND DUP2 JUMP JUMPDEST CALLVALUE DUP1 ISZERO PUSH2 0x5A9 JUMPI PUSH1 0x0 DUP1 REVERT JUMPDEST POP PUSH2 0x3D6 PUSH2 0x5B8 CALLDATASIZE PUSH1 0x4 PUSH2 0x2AB6 JUMP JUMPDEST PUSH2 0xE14 JUMP JUMPDEST CALLVALUE DUP1 ISZERO PUSH2 0x5C9 JUMPI PUSH1 0x0 DUP1 REVERT JUMPDEST POP PUSH1 0x7 SLOAD PUSH1 0xFF AND PUSH2 0x3A6 JUMP JUMPDEST CALLVALUE DUP1 ISZERO PUSH2 0x5E1 JUMPI PUSH1 0x0 DUP1 REVERT JUMPDEST POP PUSH2 0x4DD PUSH1 0x1E DUP2 JUMP JUMPDEST CALLVALUE DUP1 ISZERO PUSH2 0x5F6 JUMPI PUSH1 0x0 DUP1 REVERT JUMPDEST POP PUSH2 0x3D6 PUSH2 0x605 CALLDATASIZE PUSH1 0x4 PUSH2 0x2AEA JUMP JUMPDEST PUSH2 0xE94 JUMP JUMPDEST CALLVALUE DUP1 ISZERO PUSH2 0x616 JUMPI PUSH1 0x0 DUP1 REVERT JUMPDEST POP PUSH2 0x3D6 PUSH2 0x625 CALLDATASIZE PUSH1 0x4 PUSH2 0x2AB6 JUMP JUMPDEST PUSH2 0xEF4 JUMP JUMPDEST CALLVALUE DUP1 ISZERO PUSH2 0x636 JUMPI PUSH1 0x0 DUP1 REVERT JUMPDEST POP PUSH2 0x3D6 PUSH2 0x645 CALLDATASIZE PUSH1 0x4 PUSH2 0x2AB6 JUMP JUMPDEST PUSH2 0xFAC JUMP JUMPDEST CALLVALUE DUP1 ISZERO PUSH2 0x656 JUMPI PUSH1 0x0 DUP1 REVERT JUMPDEST POP PUSH2 0x3D6 PUSH2 0x665 CALLDATASIZE PUSH1 0x4 PUSH2 0x2AB6 JUMP JUMPDEST PUSH2 0x1022 JUMP JUMPDEST CALLVALUE DUP1 ISZERO PUSH2 0x676 JUMPI PUSH1 0x0 DUP1 REVERT JUMPDEST POP PUSH2 0x324 PUSH2 0x685 CALLDATASIZE PUSH1 0x4 PUSH2 0x2AB6 JUMP JUMPDEST PUSH2 0x10A2 JUMP JUMPDEST CALLVALUE DUP1 ISZERO PUSH2 0x696 JUMPI PUSH1 0x0 DUP1 REVERT JUMPDEST POP PUSH2 0x3D6 PUSH2 0x6A5 CALLDATASIZE PUSH1 0x4 PUSH2 0x2A50 JUMP JUMPDEST PUSH2 0x10BD JUMP JUMPDEST CALLVALUE DUP1 ISZERO PUSH2 0x6B6 JUMPI PUSH1 0x0 DUP1 REVERT JUMPDEST POP PUSH2 0x3D6 PUSH2 0x139C JUMP JUMPDEST CALLVALUE DUP1 ISZERO PUSH2 0x6CB JUMPI PUSH1 0x0 DUP1 REVERT JUMPDEST POP PUSH2 0x3D6 PUSH2 0x6DA CALLDATASIZE PUSH1 0x4 PUSH2 0x2AB6 JUMP JUMPDEST PUSH2 0x13AE JUMP JUMPDEST CALLVALUE DUP1 ISZERO PUSH2 0x6EB JUMPI PUSH1 0x0 DUP1 REVERT JUMPDEST POP PUSH2 0x4DD PUSH1 0xA DUP2 JUMP JUMPDEST CALLVALUE DUP1 ISZERO PUSH2 0x700 JUMPI PUSH1 0x0 DUP1 REVERT JUMPDEST POP PUSH2 0x3A6 PUSH2 0x70F CALLDATASIZE PUSH1 0x4 PUSH2 0x2AB6 JUMP JUMPDEST PUSH1 0x15 PUSH1 0x20 MSTORE PUSH1 0x0 SWAP1 DUP2 MSTORE PUSH1 0x40 SWAP1 KECCAK256 SLOAD PUSH1 0xFF AND DUP2 JUMP JUMPDEST CALLVALUE DUP1 ISZERO PUSH2 0x730 JUMPI PUSH1 0x0 DUP1 REVERT JUMPDEST POP PUSH2 0x324 PUSH1 0xE SLOAD DUP2 JUMP JUMPDEST CALLVALUE DUP1 ISZERO PUSH2 0x746 JUMPI PUSH1 0x0 DUP1 REVERT JUMPDEST POP PUSH2 0x4DD PUSH1 0x64 DUP2 JUMP JUMPDEST CALLVALUE DUP1 ISZERO PUSH2 0x75B JUMPI PUSH1 0x0 DUP1 REVERT JUMPDEST POP PUSH2 0x3D6 PUSH2 0x145A JUMP JUMPDEST CALLVALUE DUP1 ISZERO PUSH2 0x770 JUMPI PUSH1 0x0 DUP1 REVERT JUMPDEST POP PUSH2 0x379 PUSH2 0x146A JUMP JUMPDEST CALLVALUE DUP1 ISZERO PUSH2 0x785 JUMPI PUSH1 0x0 DUP1 REVERT JUMPDEST POP PUSH2 0x3D6 PUSH2 0x1479 JUMP JUMPDEST CALLVALUE DUP1 ISZERO PUSH2 0x79A JUMPI PUSH1 0x0 DUP1 REVERT JUMPDEST POP PUSH1 0x7 SLOAD PUSH2 0x3A6 SWAP1 PUSH2 0x100 SWAP1 DIV PUSH1 0xFF AND DUP2 JUMP JUMPDEST CALLVALUE DUP1 ISZERO PUSH2 0x7B9 JUMPI PUSH1 0x0 DUP1 REVERT JUMPDEST POP PUSH2 0x34C PUSH2 0x151B JUMP JUMPDEST CALLVALUE DUP1 ISZERO PUSH2 0x7CE JUMPI PUSH1 0x0 DUP1 REVERT JUMPDEST POP PUSH1 0xD SLOAD PUSH2 0x3A6 SWAP1 PUSH1 0x1 PUSH1 0xA0 SHL SWAP1 DIV PUSH1 0xFF AND DUP2 JUMP JUMPDEST CALLVALUE DUP1 ISZERO PUSH2 0x7EF JUMPI PUSH1 0x0 DUP1 REVERT JUMPDEST POP PUSH2 0x3D6 PUSH2 0x152A JUMP JUMPDEST CALLVALUE DUP1 ISZERO PUSH2 0x804 JUMPI PUSH1 0x0 DUP1 REVERT JUMPDEST POP PUSH2 0x3A6 PUSH2 0x813 CALLDATASIZE PUSH1 0x4 PUSH2 0x2A50 JUMP JUMPDEST PUSH2 0x1762 JUMP JUMPDEST CALLVALUE DUP1 ISZERO PUSH2 0x824 JUMPI PUSH1 0x0 DUP1 REVERT JUMPDEST POP PUSH1 0xC SLOAD PUSH2 0x379 SWAP1 PUSH1 0x1 PUSH1 0x1 PUSH1 0xA0 SHL SUB AND DUP2 JUMP JUMPDEST CALLVALUE DUP1 ISZERO PUSH2 0x844 JUMPI PUSH1 0x0 DUP1 REVERT JUMPDEST POP PUSH2 0x3D6 PUSH2 0x853 CALLDATASIZE PUSH1 0x4 PUSH2 0x2A50 JUMP JUMPDEST PUSH2 0x179E JUMP JUMPDEST CALLVALUE DUP1 ISZERO PUSH2 0x864 JUMPI PUSH1 0x0 DUP1 REVERT JUMPDEST POP PUSH2 0x3D6 PUSH2 0x873 CALLDATASIZE PUSH1 0x4 PUSH2 0x2AB6 JUMP JUMPDEST PUSH2 0x191F JUMP JUMPDEST CALLVALUE DUP1 ISZERO PUSH2 0x884 JUMPI PUSH1 0x0 DUP1 REVERT JUMPDEST POP PUSH2 0x4DD PUSH1 0x3 DUP2 JUMP JUMPDEST CALLVALUE DUP1 ISZERO PUSH2 0x899 JUMPI PUSH1 0x0 DUP1 REVERT JUMPDEST POP PUSH2 0x3D6 PUSH2 0x8A8 CALLDATASIZE PUSH1 0x4 PUSH2 0x2AD1 JUMP JUMPDEST PUSH2 0x19BC JUMP JUMPDEST CALLVALUE DUP1 ISZERO PUSH2 0x8B9 JUMPI PUSH1 0x0 DUP1 REVERT JUMPDEST POP PUSH2 0x324 PUSH1 0x10 SLOAD DUP2 JUMP JUMPDEST CALLVALUE DUP1 ISZERO PUSH2 0x8CF JUMPI PUSH1 0x0 DUP1 REVERT JUMPDEST POP PUSH2 0x3D6 PUSH2 0x8DE CALLDATASIZE PUSH1 0x4 PUSH2 0x2AEA JUMP JUMPDEST PUSH2 0x1A53 JUMP JUMPDEST CALLVALUE DUP1 ISZERO PUSH2 0x8EF JUMPI PUSH1 0x0 DUP1 REVERT JUMPDEST POP PUSH1 0xD SLOAD PUSH2 0x3A6 SWAP1 PUSH1 0x1 PUSH1 0xA8 SHL SWAP1 DIV PUSH1 0xFF AND DUP2 JUMP JUMPDEST CALLVALUE DUP1 ISZERO PUSH2 0x910 JUMPI PUSH1 0x0 DUP1 REVERT JUMPDEST POP PUSH2 0x4DD PUSH2 0x1A75 JUMP JUMPDEST CALLVALUE DUP1 ISZERO PUSH2 0x925 JUMPI PUSH1 0x0 DUP1 REVERT JUMPDEST POP PUSH2 0x3A6 PUSH2 0x934 CALLDATASIZE PUSH1 0x4 PUSH2 0x2B0C JUMP JUMPDEST PUSH2 0x1A84 JUMP JUMPDEST CALLVALUE DUP1 ISZERO PUSH2 0x945 JUMPI PUSH1 0x0 DUP1 REVERT JUMPDEST POP PUSH1 0xB SLOAD PUSH2 0x379 SWAP1 PUSH1 0x1 PUSH1 0x1 PUSH1 0xA0 SHL SUB AND DUP2 JUMP JUMPDEST CALLVALUE DUP1 ISZERO PUSH2 0x965 JUMPI PUSH1 0x0 DUP1 REVERT JUMPDEST POP PUSH2 0x324 PUSH1 0x11 SLOAD DUP2 JUMP JUMPDEST CALLVALUE DUP1 ISZERO PUSH2 0x97B JUMPI PUSH1 0x0 DUP1 REVERT JUMPDEST POP PUSH2 0x324 PUSH1 0x12 SLOAD DUP2 JUMP JUMPDEST CALLVALUE DUP1 ISZERO PUSH2 0x991 JUMPI PUSH1 0x0 DUP1 REVERT JUMPDEST POP PUSH2 0x4DD PUSH1 0xF DUP2 JUMP JUMPDEST CALLVALUE DUP1 ISZERO PUSH2 0x9A6 JUMPI PUSH1 0x0 DUP1 REVERT JUMPDEST POP PUSH2 0x324 PUSH2 0x9B5 CALLDATASIZE PUSH1 0x4 PUSH2 0x2BA1 JUMP JUMPDEST PUSH2 0x1C80 JUMP JUMPDEST CALLVALUE DUP1 ISZERO PUSH2 0x9C6 JUMPI PUSH1 0x0 DUP1 REVERT JUMPDEST POP PUSH2 0x3D6 PUSH2 0x1CAB JUMP JUMPDEST CALLVALUE DUP1 ISZERO PUSH2 0x9DB JUMPI PUSH1 0x0 DUP1 REVERT JUMPDEST POP PUSH2 0x3D6 PUSH2 0x9EA CALLDATASIZE PUSH1 0x4 PUSH2 0x2BD4 JUMP JUMPDEST PUSH2 0x1DD8 JUMP JUMPDEST CALLVALUE DUP1 ISZERO PUSH2 0x9FB JUMPI PUSH1 0x0 DUP1 REVERT JUMPDEST POP PUSH2 0x3D6 PUSH2 0xA0A CALLDATASIZE PUSH1 0x4 PUSH2 0x2AB6 JUMP JUMPDEST PUSH2 0x1FF9 JUMP JUMPDEST PUSH1 0x60 PUSH1 0x3 DUP1 SLOAD PUSH2 0xA1E SWAP1 PUSH2 0x2C00 JUMP JUMPDEST DUP1 PUSH1 0x1F ADD PUSH1 0x20 DUP1 SWAP2 DIV MUL PUSH1 0x20 ADD PUSH1 0x40 MLOAD SWAP1 DUP2 ADD PUSH1 0x40 MSTORE DUP1 SWAP3 SWAP2 SWAP1 DUP2 DUP2 MSTORE PUSH1 0x20 ADD DUP3 DUP1 SLOAD PUSH2 0xA4A SWAP1 PUSH2 0x2C00 JUMP JUMPDEST DUP1 ISZERO PUSH2 0xA97 JUMPI DUP1 PUSH1 0x1F LT PUSH2 0xA6C JUMPI PUSH2 0x100 DUP1 DUP4 SLOAD DIV MUL DUP4 MSTORE SWAP2 PUSH1 0x20 ADD SWAP2 PUSH2 0xA97 JUMP JUMPDEST DUP3 ADD SWAP2 SWAP1 PUSH1 0x0 MSTORE PUSH1 0x20 PUSH1 0x0 KECCAK256 SWAP1 JUMPDEST DUP2 SLOAD DUP2 MSTORE SWAP1 PUSH1 0x1 ADD SWAP1 PUSH1 0x20 ADD DUP1 DUP4 GT PUSH2 0xA7A JUMPI DUP3 SWAP1 SUB PUSH1 0x1F AND DUP3 ADD SWAP2 JUMPDEST POP POP POP POP POP SWAP1 POP SWAP1 JUMP JUMPDEST PUSH1 0x0 CALLER PUSH2 0xAAF DUP2 DUP6 DUP6 PUSH2 0x2034 JUMP JUMPDEST PUSH1 0x1 SWAP2 POP POP JUMPDEST SWAP3 SWAP2 POP POP JUMP JUMPDEST PUSH2 0xAC3 PUSH2 0x2041 JUMP JUMPDEST PUSH2 0xACB PUSH2 0x2073 JUMP JUMPDEST PUSH1 0x1 PUSH1 0x1 PUSH1 0xA0 SHL SUB DUP4 AND PUSH2 0xB2D JUMPI PUSH1 0x40 MLOAD PUSH3 0x461BCD PUSH1 0xE5 SHL DUP2 MSTORE PUSH1 0x20 PUSH1 0x4 DUP3 ADD MSTORE PUSH1 0x23 PUSH1 0x24 DUP3 ADD MSTORE PUSH32 0x6F70657261746F725472616E736665723A2066726F6D207A65726F2061646472 PUSH1 0x44 DUP3 ADD MSTORE PUSH3 0x657373 PUSH1 0xE8 SHL PUSH1 0x64 DUP3 ADD MSTORE PUSH1 0x84 ADD PUSH2 0x2EC JUMP JUMPDEST PUSH1 0x1 PUSH1 0x1 PUSH1 0xA0 SHL SUB DUP3 AND PUSH2 0xB8D JUMPI PUSH1 0x40 MLOAD PUSH3 0x461BCD PUSH1 0xE5 SHL DUP2 MSTORE PUSH1 0x20 PUSH1 0x4 DUP3 ADD MSTORE PUSH1 0x21 PUSH1 0x24 DUP3 ADD MSTORE PUSH32 0x6F70657261746F725472616E736665723A20746F207A65726F20616464726573 PUSH1 0x44 DUP3 ADD MSTORE PUSH1 0x73 PUSH1 0xF8 SHL PUSH1 0x64 DUP3 ADD MSTORE PUSH1 0x84 ADD PUSH2 0x2EC JUMP JUMPDEST PUSH2 0xB98 DUP4 DUP4 DUP4 PUSH2 0x2097 JUMP JUMPDEST POP POP POP JUMP JUMPDEST PUSH2 0xBA5 PUSH2 0x2041 JUMP JUMPDEST PUSH2 0xBAD PUSH2 0x2073 JUMP JUMPDEST PUSH2 0xBB5 PUSH2 0x20F6 JUMP JUMPDEST PUSH1 0x1 PUSH1 0x1 PUSH1 0xA0 SHL SUB DUP2 AND PUSH1 0x0 SWAP1 DUP2 MSTORE PUSH1 0x16 PUSH1 0x20 SWAP1 DUP2 MSTORE PUSH1 0x40 SWAP2 DUP3 SWAP1 KECCAK256 DUP3 MLOAD DUP1 DUP5 ADD SWAP1 SWAP4 MSTORE DUP1 SLOAD DUP1 DUP5 MSTORE PUSH1 0x1 SWAP1 SWAP2 ADD SLOAD SWAP2 DUP4 ADD SWAP2 SWAP1 SWAP2 MSTORE PUSH2 0xC28 JUMPI PUSH1 0x40 MLOAD PUSH3 0x461BCD PUSH1 0xE5 SHL DUP2 MSTORE PUSH1 0x20 PUSH1 0x4 DUP3 ADD MSTORE PUSH1 0xE PUSH1 0x24 DUP3 ADD MSTORE PUSH14 0x2737903932B9B2B93B30BA34B7B7 PUSH1 0x91 SHL PUSH1 0x44 DUP3 ADD MSTORE PUSH1 0x64 ADD PUSH2 0x2EC JUMP JUMPDEST PUSH1 0x1 PUSH1 0x1 PUSH1 0xA0 SHL SUB DUP3 AND PUSH1 0x0 SWAP1 DUP2 MSTORE PUSH1 0x15 PUSH1 0x20 MSTORE PUSH1 0x40 SWAP1 KECCAK256 SLOAD PUSH1 0xFF AND ISZERO PUSH2 0xC82 JUMPI PUSH1 0x40 MLOAD PUSH3 0x461BCD PUSH1 0xE5 SHL DUP2 MSTORE PUSH1 0x20 PUSH1 0x4 DUP3 ADD MSTORE PUSH1 0xE PUSH1 0x24 DUP3 ADD MSTORE PUSH14 0x105B1C9958591E481859DC995959 PUSH1 0x92 SHL PUSH1 0x44 DUP3 ADD MSTORE PUSH1 0x64 ADD PUSH2 0x2EC JUMP JUMPDEST PUSH3 0x69780 DUP2 PUSH1 0x20 ADD MLOAD PUSH2 0xC95 SWAP2 SWAP1 PUSH2 0x2C50 JUMP JUMPDEST TIMESTAMP LT ISZERO PUSH2 0xCD0 JUMPI PUSH1 0x40 MLOAD PUSH3 0x461BCD PUSH1 0xE5 SHL DUP2 MSTORE PUSH1 0x20 PUSH1 0x4 DUP3 ADD MSTORE PUSH1 0x9 PUSH1 0x24 DUP3 ADD MSTORE PUSH9 0x546F6F206561726C79 PUSH1 0xB8 SHL PUSH1 0x44 DUP3 ADD MSTORE PUSH1 0x64 ADD PUSH2 0x2EC JUMP JUMPDEST DUP1 MLOAD PUSH1 0x12 DUP1 SLOAD PUSH1 0x0 SWAP1 PUSH2 0xCE4 SWAP1 DUP5 SWAP1 PUSH2 0x2C63 JUMP JUMPDEST SWAP1 SWAP2 SSTORE POP POP PUSH1 0x1 PUSH1 0x1 PUSH1 0xA0 SHL SUB DUP3 AND PUSH1 0x0 SWAP1 DUP2 MSTORE PUSH1 0x16 PUSH1 0x20 MSTORE PUSH1 0x40 DUP2 KECCAK256 DUP2 DUP2 SSTORE PUSH1 0x1 ADD DUP2 SWAP1 SSTORE PUSH2 0xD16 PUSH1 0x6 PUSH1 0xA PUSH2 0x2D5A JUMP JUMPDEST PUSH1 0xE SLOAD DUP4 MLOAD PUSH2 0xD25 SWAP2 SWAP1 PUSH2 0x2D69 JUMP JUMPDEST PUSH2 0xD2F SWAP2 SWAP1 PUSH2 0x2D80 JUMP JUMPDEST SWAP1 POP PUSH2 0xD65 PUSH1 0x1 PUSH1 0x1 PUSH1 0xA0 SHL SUB PUSH32 0x0 AND DUP5 DUP4 PUSH2 0x2120 JUMP JUMPDEST DUP2 MLOAD PUSH1 0x40 MLOAD SWAP1 DUP2 MSTORE PUSH1 0x1 PUSH1 0x1 PUSH1 0xA0 SHL SUB DUP5 AND SWAP1 PUSH32 0xA171B6942063C6F2800CE40A780EDCE37BAA2B618571B11EEDD1E69E626E7D76 SWAP1 PUSH1 0x20 ADD PUSH1 0x40 MLOAD DUP1 SWAP2 SUB SWAP1 LOG2 POP POP PUSH2 0xDB1 PUSH1 0x1 PUSH1 0x6 SSTORE JUMP JUMPDEST POP JUMP JUMPDEST PUSH1 0x7 SLOAD PUSH1 0x0 SWAP1 PUSH2 0x100 SWAP1 DIV PUSH1 0xFF AND ISZERO PUSH2 0xDDF JUMPI PUSH1 0x40 MLOAD PUSH3 0x461BCD PUSH1 0xE5 SHL DUP2 MSTORE PUSH1 0x4 ADD PUSH2 0x2EC SWAP1 PUSH2 0x2DA2 JUMP JUMPDEST PUSH2 0xDEA DUP5 DUP5 DUP5 PUSH2 0x217F JUMP JUMPDEST SWAP5 SWAP4 POP POP POP POP JUMP JUMPDEST PUSH1 0x0 PUSH1 0x11 SLOAD DUP3 PUSH2 0xAB5 SWAP2 SWAP1 PUSH2 0x2C50 JUMP JUMPDEST PUSH2 0xE0A PUSH2 0x2041 JUMP JUMPDEST PUSH2 0xE12 PUSH2 0x21A3 JUMP JUMPDEST JUMP JUMPDEST PUSH2 0xE1C PUSH2 0x2041 JUMP JUMPDEST PUSH1 0x1 PUSH1 0x1 PUSH1 0xA0 SHL SUB DUP2 AND PUSH2 0xE72 JUMPI PUSH1 0x40 MLOAD PUSH3 0x461BCD PUSH1 0xE5 SHL DUP2 MSTORE PUSH1 0x20 PUSH1 0x4 DUP3 ADD MSTORE PUSH1 0x1E PUSH1 0x24 DUP3 ADD MSTORE PUSH32 0x466163746F72792063616E6E6F74206265207A65726F20616464726573730000 PUSH1 0x44 DUP3 ADD MSTORE PUSH1 0x64 ADD PUSH2 0x2EC JUMP JUMPDEST PUSH1 0xB DUP1 SLOAD PUSH1 0x1 PUSH1 0x1 PUSH1 0xA0 SHL SUB NOT AND PUSH1 0x1 PUSH1 0x1 PUSH1 0xA0 SHL SUB SWAP3 SWAP1 SWAP3 AND SWAP2 SWAP1 SWAP2 OR SWAP1 SSTORE JUMP JUMPDEST PUSH2 0xE9C PUSH2 0x2041 JUMP JUMPDEST PUSH1 0xD DUP1 SLOAD DUP3 ISZERO ISZERO PUSH1 0x1 PUSH1 0xA8 SHL MUL PUSH1 0xFF PUSH1 0xA8 SHL NOT SWAP1 SWAP2 AND OR SWAP1 SSTORE PUSH1 0x40 MLOAD PUSH32 0xE1965432AF4C9923F6EBB98F1721262967CFA6178008742D23041DC8EE74EE8F SWAP1 PUSH2 0xEE9 SWAP1 DUP4 ISZERO ISZERO DUP2 MSTORE PUSH1 0x20 ADD SWAP1 JUMP JUMPDEST PUSH1 0x40 MLOAD DUP1 SWAP2 SUB SWAP1 LOG1 POP JUMP JUMPDEST PUSH2 0xEFC PUSH2 0x2041 JUMP JUMPDEST PUSH1 0x1 PUSH1 0x1 PUSH1 0xA0 SHL SUB DUP2 AND PUSH2 0xF43 JUMPI PUSH1 0x40 MLOAD PUSH3 0x461BCD PUSH1 0xE5 SHL DUP2 MSTORE PUSH1 0x20 PUSH1 0x4 DUP3 ADD MSTORE PUSH1 0xE PUSH1 0x24 DUP3 ADD MSTORE PUSH14 0x24B73B30B634B21039B2B63632B9 PUSH1 0x91 SHL PUSH1 0x44 DUP3 ADD MSTORE PUSH1 0x64 ADD PUSH2 0x2EC JUMP JUMPDEST PUSH1 0x9 SLOAD PUSH1 0x40 DUP1 MLOAD PUSH1 0x1 PUSH1 0x1 PUSH1 0xA0 SHL SUB SWAP3 DUP4 AND DUP2 MSTORE SWAP2 DUP4 AND PUSH1 0x20 DUP4 ADD MSTORE PUSH32 0xD08DBBA23A735D81EAF53AC5EDE2C722BB186E9D3D46B62842853F0D017C2212 SWAP2 ADD PUSH1 0x40 MLOAD DUP1 SWAP2 SUB SWAP1 LOG1 PUSH1 0x9 DUP1 SLOAD PUSH1 0x1 PUSH1 0x1 PUSH1 0xA0 SHL SUB NOT AND PUSH1 0x1 PUSH1 0x1 PUSH1 0xA0 SHL SUB SWAP3 SWAP1 SWAP3 AND SWAP2 SWAP1 SWAP2 OR SWAP1 SSTORE JUMP JUMPDEST PUSH1 0xB SLOAD PUSH1 0x1 PUSH1 0x1 PUSH1 0xA0 SHL SUB AND CALLER EQ PUSH2 0xFD6 JUMPI PUSH1 0x40 MLOAD PUSH3 0x461BCD PUSH1 0xE5 SHL DUP2 MSTORE PUSH1 0x4 ADD PUSH2 0x2EC SWAP1 PUSH2 0x2DD5 JUMP JUMPDEST PUSH1 0x1 PUSH1 0x1 PUSH1 0xA0 SHL SUB DUP2 AND PUSH1 0x0 DUP2 DUP2 MSTORE PUSH1 0x15 PUSH1 0x20 MSTORE PUSH1 0x40 DUP1 DUP3 KECCAK256 DUP1 SLOAD PUSH1 0xFF NOT AND PUSH1 0x1 OR SWAP1 SSTORE MLOAD PUSH32 0xEC25952115D724DE7FEC274999C9CBE0CFF9898F9F5128EAA42BD599138462A1 SWAP2 SWAP1 LOG2 POP JUMP JUMPDEST PUSH2 0x102A PUSH2 0x2041 JUMP JUMPDEST PUSH1 0x1 PUSH1 0x1 PUSH1 0xA0 SHL SUB DUP2 AND PUSH2 0x1080 JUMPI PUSH1 0x40 MLOAD PUSH3 0x461BCD PUSH1 0xE5 SHL DUP2 MSTORE PUSH1 0x20 PUSH1 0x4 DUP3 ADD MSTORE PUSH1 0x1D PUSH1 0x24 DUP3 ADD MSTORE PUSH32 0x5369676E65722063616E6E6F74206265207A65726F2061646472657373000000 PUSH1 0x44 DUP3 ADD MSTORE PUSH1 0x64 ADD PUSH2 0x2EC JUMP JUMPDEST PUSH1 0x14 DUP1 SLOAD PUSH1 0x1 PUSH1 0x1 PUSH1 0xA0 SHL SUB NOT AND PUSH1 0x1 PUSH1 0x1 PUSH1 0xA0 SHL SUB SWAP3 SWAP1 SWAP3 AND SWAP2 SWAP1 SWAP2 OR SWAP1 SSTORE JUMP JUMPDEST PUSH1 0x1 PUSH1 0x1 PUSH1 0xA0 SHL SUB AND PUSH1 0x0 SWAP1 DUP2 MSTORE PUSH1 0x20 DUP2 SWAP1 MSTORE PUSH1 0x40 SWAP1 KECCAK256 SLOAD SWAP1 JUMP JUMPDEST PUSH2 0x10C5 PUSH2 0x20F6 JUMP JUMPDEST PUSH2 0x10CD PUSH2 0x2073 JUMP JUMPDEST PUSH1 0xB SLOAD PUSH1 0x1 PUSH1 0x1 PUSH1 0xA0 SHL SUB AND CALLER EQ PUSH2 0x10F7 JUMPI PUSH1 0x40 MLOAD PUSH3 0x461BCD PUSH1 0xE5 SHL DUP2 MSTORE PUSH1 0x4 ADD PUSH2 0x2EC SWAP1 PUSH2 0x2DD5 JUMP JUMPDEST PUSH1 0xD SLOAD PUSH1 0x1 PUSH1 0xA0 SHL SWAP1 DIV PUSH1 0xFF AND ISZERO PUSH2 0x1142 JUMPI PUSH1 0x40 MLOAD PUSH3 0x461BCD PUSH1 0xE5 SHL DUP2 MSTORE PUSH1 0x20 PUSH1 0x4 DUP3 ADD MSTORE PUSH1 0xE PUSH1 0x24 DUP3 ADD MSTORE PUSH14 0x14D85B19481A185CC8195B991959 PUSH1 0x92 SHL PUSH1 0x44 DUP3 ADD MSTORE PUSH1 0x64 ADD PUSH2 0x2EC JUMP JUMPDEST PUSH1 0x1 PUSH1 0x1 PUSH1 0xA0 SHL SUB DUP3 AND PUSH1 0x0 SWAP1 DUP2 MSTORE PUSH1 0x15 PUSH1 0x20 MSTORE PUSH1 0x40 SWAP1 KECCAK256 SLOAD PUSH1 0xFF AND PUSH2 0x119B JUMPI PUSH1 0x40 MLOAD PUSH3 0x461BCD PUSH1 0xE5 SHL DUP2 MSTORE PUSH1 0x20 PUSH1 0x4 DUP3 ADD MSTORE PUSH1 0xE PUSH1 0x24 DUP3 ADD MSTORE PUSH14 0x111A5CD8DB185A5B48199A5C9CDD PUSH1 0x92 SHL PUSH1 0x44 DUP3 ADD MSTORE PUSH1 0x64 ADD PUSH2 0x2EC JUMP JUMPDEST PUSH1 0x0 DUP2 GT PUSH2 0x11BB JUMPI PUSH1 0x40 MLOAD PUSH3 0x461BCD PUSH1 0xE5 SHL DUP2 MSTORE PUSH1 0x4 ADD PUSH2 0x2EC SWAP1 PUSH2 0x2DFB JUMP JUMPDEST PUSH1 0x0 PUSH2 0x11C9 PUSH1 0x6 PUSH1 0xA PUSH2 0x2D5A JUMP JUMPDEST PUSH1 0xE SLOAD PUSH2 0x11D6 SWAP1 DUP5 PUSH2 0x2D69 JUMP JUMPDEST PUSH2 0x11E0 SWAP2 SWAP1 PUSH2 0x2D80 JUMP JUMPDEST PUSH1 0x1 PUSH1 0x1 PUSH1 0xA0 SHL SUB DUP5 AND PUSH1 0x0 SWAP1 DUP2 MSTORE PUSH1 0x16 PUSH1 0x20 SWAP1 DUP2 MSTORE PUSH1 0x40 SWAP2 DUP3 SWAP1 KECCAK256 DUP3 MLOAD DUP1 DUP5 ADD SWAP1 SWAP4 MSTORE DUP1 SLOAD DUP1 DUP5 MSTORE PUSH1 0x1 SWAP1 SWAP2 ADD SLOAD SWAP2 DUP4 ADD SWAP2 SWAP1 SWAP2 MSTORE SWAP2 SWAP3 POP SWAP1 ISZERO PUSH2 0x129E JUMPI DUP1 MLOAD DUP4 EQ PUSH2 0x1263 JUMPI PUSH1 0x40 MLOAD PUSH3 0x461BCD PUSH1 0xE5 SHL DUP2 MSTORE PUSH1 0x20 PUSH1 0x4 DUP3 ADD MSTORE PUSH1 0x11 PUSH1 0x24 DUP3 ADD MSTORE PUSH17 0x135D5CDD08189D5E481C995CD95C9D9959 PUSH1 0x7A SHL PUSH1 0x44 DUP3 ADD MSTORE PUSH1 0x64 ADD PUSH2 0x2EC JUMP JUMPDEST DUP3 PUSH1 0x12 PUSH1 0x0 DUP3 DUP3 SLOAD PUSH2 0x1275 SWAP2 SWAP1 PUSH2 0x2C63 JUMP JUMPDEST SWAP1 SWAP2 SSTORE POP POP PUSH1 0x1 PUSH1 0x1 PUSH1 0xA0 SHL SUB DUP5 AND PUSH1 0x0 SWAP1 DUP2 MSTORE PUSH1 0x16 PUSH1 0x20 MSTORE PUSH1 0x40 DUP2 KECCAK256 DUP2 DUP2 SSTORE PUSH1 0x1 ADD SSTORE PUSH2 0x1302 JUMP JUMPDEST PUSH1 0x12 SLOAD PUSH1 0xF SLOAD PUSH2 0x12AE SWAP2 SWAP1 PUSH2 0x2C63 JUMP JUMPDEST DUP4 GT ISZERO PUSH2 0x12CD JUMPI PUSH1 0x40 MLOAD PUSH3 0x461BCD PUSH1 0xE5 SHL DUP2 MSTORE PUSH1 0x4 ADD PUSH2 0x2EC SWAP1 PUSH2 0x2E1D JUMP JUMPDEST PUSH2 0x1302 PUSH1 0x1 PUSH1 0x1 PUSH1 0xA0 SHL SUB PUSH32 0x0 AND DUP6 ADDRESS DUP6 PUSH2 0x21EF JUMP JUMPDEST DUP3 PUSH1 0xF PUSH1 0x0 DUP3 DUP3 SLOAD PUSH2 0x1314 SWAP2 SWAP1 PUSH2 0x2C63 JUMP JUMPDEST SWAP3 POP POP DUP2 SWAP1 SSTORE POP DUP2 PUSH1 0x11 PUSH1 0x0 DUP3 DUP3 SLOAD PUSH2 0x132D SWAP2 SWAP1 PUSH2 0x2C50 JUMP JUMPDEST SWAP1 SWAP2 SSTORE POP POP PUSH1 0x9 SLOAD PUSH2 0x1349 SWAP1 PUSH1 0x1 PUSH1 0x1 PUSH1 0xA0 SHL SUB AND DUP6 DUP6 PUSH2 0x2097 JUMP JUMPDEST DUP4 PUSH1 0x1 PUSH1 0x1 PUSH1 0xA0 SHL SUB AND PUSH32 0x8F28852646C20CC973D3A8218F7EEFED58C25C909F78F0265AF4818C3D4DC271 DUP5 PUSH1 0x40 MLOAD PUSH2 0x1384 SWAP2 DUP2 MSTORE PUSH1 0x20 ADD SWAP1 JUMP JUMPDEST PUSH1 0x40 MLOAD DUP1 SWAP2 SUB SWAP1 LOG2 POP POP PUSH2 0x1398 PUSH1 0x1 PUSH1 0x6 SSTORE JUMP JUMPDEST POP POP JUMP JUMPDEST PUSH2 0x13A4 PUSH2 0x2041 JUMP JUMPDEST PUSH2 0xE12 PUSH1 0x0 PUSH2 0x222E JUMP JUMPDEST PUSH2 0x13B6 PUSH2 0x2041 JUMP JUMPDEST PUSH1 0x1 PUSH1 0x1 PUSH1 0xA0 SHL SUB DUP2 AND PUSH2 0x13FE JUMPI PUSH1 0x40 MLOAD PUSH3 0x461BCD PUSH1 0xE5 SHL DUP2 MSTORE PUSH1 0x20 PUSH1 0x4 DUP3 ADD MSTORE PUSH1 0xF PUSH1 0x24 DUP3 ADD MSTORE PUSH15 0x496E76616C69642061646472657373 PUSH1 0x88 SHL PUSH1 0x44 DUP3 ADD MSTORE PUSH1 0x64 ADD PUSH2 0x2EC JUMP JUMPDEST PUSH1 0xD SLOAD PUSH1 0x40 MLOAD PUSH1 0x1 PUSH1 0x1 PUSH1 0xA0 SHL SUB DUP1 DUP5 AND SWAP3 AND SWAP1 PUSH32 0xB27A84474703CE30A05E600606FA29DBCFB1671AA7363E45DBF0F1B78F3EE116 SWAP1 PUSH1 0x0 SWAP1 LOG3 PUSH1 0xD DUP1 SLOAD PUSH1 0x1 PUSH1 0x1 PUSH1 0xA0 SHL SUB NOT AND PUSH1 0x1 PUSH1 0x1 PUSH1 0xA0 SHL SUB SWAP3 SWAP1 SWAP3 AND SWAP2 SWAP1 SWAP2 OR SWAP1 SSTORE JUMP JUMPDEST PUSH2 0x1462 PUSH2 0x2041 JUMP JUMPDEST PUSH2 0xE12 PUSH2 0x2280 JUMP JUMPDEST PUSH1 0x5 SLOAD PUSH1 0x1 PUSH1 0x1 PUSH1 0xA0 SHL SUB AND SWAP1 JUMP JUMPDEST PUSH2 0x1481 PUSH2 0x2041 JUMP JUMPDEST PUSH2 0x1489 PUSH2 0x2073 JUMP JUMPDEST PUSH1 0xD SLOAD PUSH1 0x1 PUSH1 0xA0 SHL SWAP1 DIV PUSH1 0xFF AND ISZERO PUSH2 0x14D8 JUMPI PUSH1 0x40 MLOAD PUSH3 0x461BCD PUSH1 0xE5 SHL DUP2 MSTORE PUSH1 0x20 PUSH1 0x4 DUP3 ADD MSTORE PUSH1 0x12 PUSH1 0x24 DUP3 ADD MSTORE PUSH18 0x14D85B1948185B1C9958591E48195B991959 PUSH1 0x72 SHL PUSH1 0x44 DUP3 ADD MSTORE PUSH1 0x64 ADD PUSH2 0x2EC JUMP JUMPDEST PUSH1 0xD DUP1 SLOAD PUSH1 0xFF PUSH1 0xA0 SHL NOT AND PUSH1 0x1 PUSH1 0xA0 SHL OR SWAP1 SSTORE PUSH1 0x0 PUSH1 0xF DUP2 SWAP1 SSTORE PUSH1 0x40 MLOAD PUSH32 0x7910379DD0DB65208B77494AC6A3ACCA01262C78703F044E0ABB7E4386A0BCBE SWAP2 SWAP1 LOG1 JUMP JUMPDEST PUSH1 0x60 PUSH1 0x4 DUP1 SLOAD PUSH2 0xA1E SWAP1 PUSH2 0x2C00 JUMP JUMPDEST PUSH2 0x1532 PUSH2 0x20F6 JUMP JUMPDEST PUSH2 0x153A PUSH2 0x2073 JUMP JUMPDEST PUSH2 0x1542 PUSH2 0x146A JUMP JUMPDEST PUSH1 0x1 PUSH1 0x1 PUSH1 0xA0 SHL SUB AND CALLER PUSH1 0x1 PUSH1 0x1 PUSH1 0xA0 SHL SUB AND EQ DUP1 PUSH2 0x156B JUMPI POP PUSH1 0xA SLOAD PUSH1 0x1 PUSH1 0x1 PUSH1 0xA0 SHL SUB AND CALLER EQ JUMPDEST PUSH2 0x15A8 JUMPI PUSH1 0x40 MLOAD PUSH3 0x461BCD PUSH1 0xE5 SHL DUP2 MSTORE PUSH1 0x20 PUSH1 0x4 DUP3 ADD MSTORE PUSH1 0xE PUSH1 0x24 DUP3 ADD MSTORE PUSH14 0x139BDD08185D5D1A1BDC9A5E9959 PUSH1 0x92 SHL PUSH1 0x44 DUP3 ADD MSTORE PUSH1 0x64 ADD PUSH2 0x2EC JUMP JUMPDEST PUSH1 0xD SLOAD PUSH1 0x1 PUSH1 0xA0 SHL SWAP1 DIV PUSH1 0xFF AND PUSH2 0x15FF JUMPI PUSH1 0x40 MLOAD PUSH3 0x461BCD PUSH1 0xE5 SHL DUP2 MSTORE PUSH1 0x20 PUSH1 0x4 DUP3 ADD MSTORE PUSH1 0x1B PUSH1 0x24 DUP3 ADD MSTORE PUSH27 0x43616E6E6F7420776974686472617720647572696E672073616C65 PUSH1 0x28 SHL PUSH1 0x44 DUP3 ADD MSTORE PUSH1 0x64 ADD PUSH2 0x2EC JUMP JUMPDEST PUSH1 0x40 MLOAD PUSH4 0x70A08231 PUSH1 0xE0 SHL DUP2 MSTORE PUSH1 0x0 SWAP1 PUSH1 0x1 PUSH1 0x1 PUSH1 0xA0 SHL SUB PUSH32 0x0 AND SWAP1 PUSH4 0x70A08231 SWAP1 PUSH2 0x164E SWAP1 ADDRESS SWAP1 PUSH1 0x4 ADD PUSH2 0x2A20 JUMP JUMPDEST PUSH1 0x20 PUSH1 0x40 MLOAD DUP1 DUP4 SUB DUP2 DUP7 GAS STATICCALL ISZERO DUP1 ISZERO PUSH2 0x166B JUMPI RETURNDATASIZE PUSH1 0x0 DUP1 RETURNDATACOPY RETURNDATASIZE PUSH1 0x0 REVERT JUMPDEST POP POP POP POP PUSH1 0x40 MLOAD RETURNDATASIZE PUSH1 0x1F NOT PUSH1 0x1F DUP3 ADD AND DUP3 ADD DUP1 PUSH1 0x40 MSTORE POP DUP2 ADD SWAP1 PUSH2 0x168F SWAP2 SWAP1 PUSH2 0x2E43 JUMP JUMPDEST SWAP1 POP PUSH1 0x0 DUP2 GT PUSH2 0x16D8 JUMPI PUSH1 0x40 MLOAD PUSH3 0x461BCD PUSH1 0xE5 SHL DUP2 MSTORE PUSH1 0x20 PUSH1 0x4 DUP3 ADD MSTORE PUSH1 0x14 PUSH1 0x24 DUP3 ADD MSTORE PUSH20 0x4E6F2066756E647320746F207769746864726177 PUSH1 0x60 SHL PUSH1 0x44 DUP3 ADD MSTORE PUSH1 0x64 ADD PUSH2 0x2EC JUMP JUMPDEST PUSH1 0x9 SLOAD PUSH2 0x1712 SWAP1 PUSH1 0x1 PUSH1 0x1 PUSH1 0xA0 SHL SUB PUSH32 0x0 DUP2 AND SWAP2 AND DUP4 PUSH2 0x2120 JUMP JUMPDEST PUSH1 0x9 SLOAD PUSH1 0x40 MLOAD PUSH32 0x8C7CDAD0D12A8DB3E23561B42DA6F10C8137914C97BEFF202213A410E1F520A3 SWAP2 PUSH2 0x174F SWAP2 DUP5 SWAP2 PUSH1 0x1 PUSH1 0x1 PUSH1 0xA0 SHL SUB AND SWAP1 PUSH2 0x2E5C JUMP JUMPDEST PUSH1 0x40 MLOAD DUP1 SWAP2 SUB SWAP1 LOG1 POP PUSH2 0xE12 PUSH1 0x1 PUSH1 0x6 SSTORE JUMP JUMPDEST PUSH1 0x7 SLOAD PUSH1 0x0 SWAP1 PUSH2 0x100 SWAP1 DIV PUSH1 0xFF AND ISZERO PUSH2 0x178D JUMPI PUSH1 0x40 MLOAD PUSH3 0x461BCD PUSH1 0xE5 SHL DUP2 MSTORE PUSH1 0x4 ADD PUSH2 0x2EC SWAP1 PUSH2 0x2DA2 JUMP JUMPDEST PUSH2 0x1797 DUP4 DUP4 PUSH2 0x22BD JUMP JUMPDEST SWAP4 SWAP3 POP POP POP JUMP JUMPDEST PUSH1 0xB SLOAD PUSH1 0x1 PUSH1 0x1 PUSH1 0xA0 SHL SUB AND CALLER EQ PUSH2 0x17C8 JUMPI PUSH1 0x40 MLOAD PUSH3 0x461BCD PUSH1 0xE5 SHL DUP2 MSTORE PUSH1 0x4 ADD PUSH2 0x2EC SWAP1 PUSH2 0x2DD5 JUMP JUMPDEST PUSH1 0x0 DUP2 GT PUSH2 0x17E8 JUMPI PUSH1 0x40 MLOAD PUSH3 0x461BCD PUSH1 0xE5 SHL DUP2 MSTORE PUSH1 0x4 ADD PUSH2 0x2EC SWAP1 PUSH2 0x2DFB JUMP JUMPDEST PUSH1 0x1 PUSH1 0x1 PUSH1 0xA0 SHL SUB DUP3 AND PUSH1 0x0 SWAP1 DUP2 MSTORE PUSH1 0x16 PUSH1 0x20 MSTORE PUSH1 0x40 SWAP1 KECCAK256 SLOAD ISZERO PUSH2 0x1841 JUMPI PUSH1 0x40 MLOAD PUSH3 0x461BCD PUSH1 0xE5 SHL DUP2 MSTORE PUSH1 0x20 PUSH1 0x4 DUP3 ADD MSTORE PUSH1 0x10 PUSH1 0x24 DUP3 ADD MSTORE PUSH16 0x105B1C9958591E481C995CD95C9D9959 PUSH1 0x82 SHL PUSH1 0x44 DUP3 ADD MSTORE PUSH1 0x64 ADD PUSH2 0x2EC JUMP JUMPDEST PUSH1 0x12 SLOAD PUSH1 0xF SLOAD PUSH2 0x1851 SWAP2 SWAP1 PUSH2 0x2C63 JUMP JUMPDEST DUP2 GT ISZERO PUSH2 0x1870 JUMPI PUSH1 0x40 MLOAD PUSH3 0x461BCD PUSH1 0xE5 SHL DUP2 MSTORE PUSH1 0x4 ADD PUSH2 0x2EC SWAP1 PUSH2 0x2E1D JUMP JUMPDEST PUSH1 0x0 PUSH2 0x187E PUSH1 0x6 PUSH1 0xA PUSH2 0x2D5A JUMP JUMPDEST PUSH1 0xE SLOAD PUSH2 0x188B SWAP1 DUP5 PUSH2 0x2D69 JUMP JUMPDEST PUSH2 0x1895 SWAP2 SWAP1 PUSH2 0x2D80 JUMP JUMPDEST SWAP1 POP PUSH2 0x18CC PUSH1 0x1 PUSH1 0x1 PUSH1 0xA0 SHL SUB PUSH32 0x0 AND DUP5 ADDRESS DUP5 PUSH2 0x21EF JUMP JUMPDEST PUSH1 0x40 DUP1 MLOAD DUP1 DUP3 ADD DUP3 MSTORE DUP4 DUP2 MSTORE TIMESTAMP PUSH1 0x20 DUP1 DUP4 ADD SWAP2 DUP3 MSTORE PUSH1 0x1 PUSH1 0x1 PUSH1 0xA0 SHL SUB DUP8 AND PUSH1 0x0 SWAP1 DUP2 MSTORE PUSH1 0x16 SWAP1 SWAP2 MSTORE SWAP3 DUP4 KECCAK256 SWAP2 MLOAD DUP3 SSTORE MLOAD PUSH1 0x1 SWAP1 SWAP2 ADD SSTORE PUSH1 0x12 DUP1 SLOAD DUP5 SWAP3 SWAP1 PUSH2 0x1915 SWAP1 DUP5 SWAP1 PUSH2 0x2C50 JUMP JUMPDEST SWAP1 SWAP2 SSTORE POP POP POP POP POP JUMP JUMPDEST PUSH2 0x1927 PUSH2 0x2041 JUMP JUMPDEST PUSH1 0x1 PUSH1 0x1 PUSH1 0xA0 SHL SUB DUP2 AND PUSH2 0x1970 JUMPI PUSH1 0x40 MLOAD PUSH3 0x461BCD PUSH1 0xE5 SHL DUP2 MSTORE PUSH1 0x20 PUSH1 0x4 DUP3 ADD MSTORE PUSH1 0x10 PUSH1 0x24 DUP3 ADD MSTORE PUSH16 0x24B73B30B634B21037B832B930BA37B9 PUSH1 0x81 SHL PUSH1 0x44 DUP3 ADD MSTORE PUSH1 0x64 ADD PUSH2 0x2EC JUMP JUMPDEST PUSH1 0xA DUP1 SLOAD PUSH1 0x1 PUSH1 0x1 PUSH1 0xA0 SHL SUB NOT AND PUSH1 0x1 PUSH1 0x1 PUSH1 0xA0 SHL SUB DUP4 AND SWAP1 DUP2 OR SWAP1 SWAP2 SSTORE PUSH1 0x40 MLOAD DUP2 SWAP1 PUSH32 0xFBE5B6CBAFB274F445D7FED869DC77A838D8243A22C460DE156560E8857CAD03 SWAP1 PUSH1 0x0 SWAP1 LOG3 POP JUMP JUMPDEST PUSH2 0x19C4 PUSH2 0x2041 JUMP JUMPDEST PUSH1 0xF SLOAD ISZERO PUSH2 0x1A0D JUMPI PUSH1 0x40 MLOAD PUSH3 0x461BCD PUSH1 0xE5 SHL DUP2 MSTORE PUSH1 0x20 PUSH1 0x4 DUP3 ADD MSTORE PUSH1 0x16 PUSH1 0x24 DUP3 ADD MSTORE PUSH22 0x43616E2774206D696E7420647572696E672073616C65 PUSH1 0x50 SHL PUSH1 0x44 DUP3 ADD MSTORE PUSH1 0x64 ADD PUSH2 0x2EC JUMP JUMPDEST PUSH1 0x9 SLOAD PUSH2 0x1A23 SWAP1 PUSH1 0x1 PUSH1 0x1 PUSH1 0xA0 SHL SUB AND DUP3 PUSH2 0x22CB JUMP JUMPDEST PUSH1 0x40 MLOAD DUP2 DUP2 MSTORE PUSH32 0x359675C23A13743CF846E03B084A0B1FD129FFA3404DBDD936EFFD23FB97AA9D SWAP1 PUSH1 0x20 ADD PUSH2 0xEE9 JUMP JUMPDEST PUSH2 0x1A5B PUSH2 0x2041 JUMP JUMPDEST PUSH1 0x7 DUP1 SLOAD SWAP2 ISZERO ISZERO PUSH2 0x100 MUL PUSH2 0xFF00 NOT SWAP1 SWAP3 AND SWAP2 SWAP1 SWAP2 OR SWAP1 SSTORE JUMP JUMPDEST PUSH2 0x1A81 PUSH1 0x3 PUSH1 0x64 PUSH2 0x2E73 JUMP JUMPDEST DUP2 JUMP JUMPDEST PUSH1 0x0 PUSH2 0x1A8E PUSH2 0x2073 JUMP JUMPDEST PUSH1 0x0 DUP7 DUP2 MSTORE PUSH1 0x8 PUSH1 0x20 MSTORE PUSH1 0x40 SWAP1 KECCAK256 SLOAD PUSH1 0xFF AND ISZERO PUSH2 0x1ADD JUMPI PUSH1 0x40 MLOAD PUSH3 0x461BCD PUSH1 0xE5 SHL DUP2 MSTORE PUSH1 0x20 PUSH1 0x4 DUP3 ADD MSTORE PUSH1 0xD PUSH1 0x24 DUP3 ADD MSTORE PUSH13 0x427566666572207265706C6179 PUSH1 0x98 SHL PUSH1 0x44 DUP3 ADD MSTORE PUSH1 0x64 ADD PUSH2 0x2EC JUMP JUMPDEST PUSH1 0x0 DUP7 DUP2 MSTORE PUSH1 0x8 PUSH1 0x20 SWAP1 DUP2 MSTORE PUSH1 0x40 DUP1 DUP4 KECCAK256 DUP1 SLOAD PUSH1 0xFF NOT AND PUSH1 0x1 OR SWAP1 SSTORE MLOAD PUSH2 0x1B35 SWAP2 DUP10 SWAP2 CALLER SWAP2 DUP9 SWAP2 DUP9 SWAP2 ADD SWAP4 DUP5 MSTORE PUSH1 0x60 SWAP3 DUP4 SHL PUSH1 0x1 PUSH1 0x1 PUSH1 0x60 SHL SUB NOT SWAP1 DUP2 AND PUSH1 0x20 DUP7 ADD MSTORE SWAP2 SWAP1 SWAP3 SHL AND PUSH1 0x34 DUP4 ADD MSTORE PUSH1 0x48 DUP3 ADD MSTORE PUSH1 0x68 ADD SWAP1 JUMP JUMPDEST PUSH1 0x40 MLOAD PUSH1 0x20 DUP2 DUP4 SUB SUB DUP2 MSTORE SWAP1 PUSH1 0x40 MSTORE DUP1 MLOAD SWAP1 PUSH1 0x20 ADD KECCAK256 SWAP1 POP PUSH1 0x0 PUSH2 0x1B86 DUP3 PUSH32 0x19457468657265756D205369676E6564204D6573736167653A0A333200000000 PUSH1 0x0 SWAP1 DUP2 MSTORE PUSH1 0x1C SWAP2 SWAP1 SWAP2 MSTORE PUSH1 0x3C SWAP1 KECCAK256 SWAP1 JUMP JUMPDEST SWAP1 POP PUSH1 0x0 PUSH2 0x1BCC DUP9 DUP9 DUP1 DUP1 PUSH1 0x1F ADD PUSH1 0x20 DUP1 SWAP2 DIV MUL PUSH1 0x20 ADD PUSH1 0x40 MLOAD SWAP1 DUP2 ADD PUSH1 0x40 MSTORE DUP1 SWAP4 SWAP3 SWAP2 SWAP1 DUP2 DUP2 MSTORE PUSH1 0x20 ADD DUP4 DUP4 DUP1 DUP3 DUP5 CALLDATACOPY PUSH1 0x0 SWAP3 ADD SWAP2 SWAP1 SWAP2 MSTORE POP DUP7 SWAP4 SWAP3 POP POP PUSH2 0x2301 SWAP1 POP JUMP JUMPDEST PUSH1 0x14 SLOAD SWAP1 SWAP2 POP PUSH1 0x1 PUSH1 0x1 PUSH1 0xA0 SHL SUB DUP1 DUP4 AND SWAP2 AND EQ PUSH2 0x1C20 JUMPI PUSH1 0x40 MLOAD PUSH3 0x461BCD PUSH1 0xE5 SHL DUP2 MSTORE PUSH1 0x20 PUSH1 0x4 DUP3 ADD MSTORE PUSH1 0x11 PUSH1 0x24 DUP3 ADD MSTORE PUSH17 0x496E76616C6964207369676E6174757265 PUSH1 0x78 SHL PUSH1 0x44 DUP3 ADD MSTORE PUSH1 0x64 ADD PUSH2 0x2EC JUMP JUMPDEST PUSH2 0x1C2B CALLER DUP8 DUP8 PUSH2 0x2097 JUMP JUMPDEST PUSH1 0x40 DUP1 MLOAD DUP7 DUP2 MSTORE PUSH1 0x20 DUP2 ADD DUP12 SWAP1 MSTORE PUSH1 0x1 PUSH1 0x1 PUSH1 0xA0 SHL SUB DUP9 AND SWAP2 CALLER SWAP2 PUSH32 0xA50CBF27035F35522914CCDB748AC5870B90728775602FF8E87AB35817157F08 SWAP2 ADD PUSH1 0x40 MLOAD DUP1 SWAP2 SUB SWAP1 LOG3 POP PUSH1 0x1 SWAP9 SWAP8 POP POP POP POP POP POP POP POP JUMP JUMPDEST PUSH1 0x1 PUSH1 0x1 PUSH1 0xA0 SHL SUB SWAP2 DUP3 AND PUSH1 0x0 SWAP1 DUP2 MSTORE PUSH1 0x1 PUSH1 0x20 SWAP1 DUP2 MSTORE PUSH1 0x40 DUP1 DUP4 KECCAK256 SWAP4 SWAP1 SWAP5 AND DUP3 MSTORE SWAP2 SWAP1 SWAP2 MSTORE KECCAK256 SLOAD SWAP1 JUMP JUMPDEST PUSH2 0x1CB3 PUSH2 0x2041 JUMP JUMPDEST SELFBALANCE DUP1 PUSH2 0x1CF6 JUMPI PUSH1 0x40 MLOAD PUSH3 0x461BCD PUSH1 0xE5 SHL DUP2 MSTORE PUSH1 0x20 PUSH1 0x4 DUP3 ADD MSTORE PUSH1 0x12 PUSH1 0x24 DUP3 ADD MSTORE PUSH18 0x4E6F2045544820746F207769746864726177 PUSH1 0x70 SHL PUSH1 0x44 DUP3 ADD MSTORE PUSH1 0x64 ADD PUSH2 0x2EC JUMP JUMPDEST PUSH1 0x9 SLOAD PUSH1 0x40 MLOAD PUSH1 0x0 SWAP2 PUSH1 0x1 PUSH1 0x1 PUSH1 0xA0 SHL SUB AND SWAP1 DUP4 SWAP1 DUP4 DUP2 DUP2 DUP2 DUP6 DUP8 GAS CALL SWAP3 POP POP POP RETURNDATASIZE DUP1 PUSH1 0x0 DUP2 EQ PUSH2 0x1D43 JUMPI PUSH1 0x40 MLOAD SWAP2 POP PUSH1 0x1F NOT PUSH1 0x3F RETURNDATASIZE ADD AND DUP3 ADD PUSH1 0x40 MSTORE RETURNDATASIZE DUP3 MSTORE RETURNDATASIZE PUSH1 0x0 PUSH1 0x20 DUP5 ADD RETURNDATACOPY PUSH2 0x1D48 JUMP JUMPDEST PUSH1 0x60 SWAP2 POP JUMPDEST POP POP SWAP1 POP DUP1 PUSH2 0x1D8F JUMPI PUSH1 0x40 MLOAD PUSH3 0x461BCD PUSH1 0xE5 SHL DUP2 MSTORE PUSH1 0x20 PUSH1 0x4 DUP3 ADD MSTORE PUSH1 0x13 PUSH1 0x24 DUP3 ADD MSTORE PUSH19 0x115512081D1C985B9CD9995C8819985A5B1959 PUSH1 0x6A SHL PUSH1 0x44 DUP3 ADD MSTORE PUSH1 0x64 ADD PUSH2 0x2EC JUMP JUMPDEST PUSH1 0x9 SLOAD PUSH1 0x40 MLOAD PUSH32 0x6148672A948A12B8E0BF92A9338349B9AC890FAD62A234ABAF0A4DA99F62CFCC SWAP2 PUSH2 0x1DCC SWAP2 DUP6 SWAP2 PUSH1 0x1 PUSH1 0x1 PUSH1 0xA0 SHL SUB AND SWAP1 PUSH2 0x2E5C JUMP JUMPDEST PUSH1 0x40 MLOAD DUP1 SWAP2 SUB SWAP1 LOG1 POP POP JUMP JUMPDEST PUSH2 0x1DE0 PUSH2 0x2041 JUMP JUMPDEST PUSH2 0x1DE8 PUSH2 0x2073 JUMP JUMPDEST PUSH1 0x0 DUP3 GT PUSH2 0x1E2A JUMPI PUSH1 0x40 MLOAD PUSH3 0x461BCD PUSH1 0xE5 SHL DUP2 MSTORE PUSH1 0x20 PUSH1 0x4 DUP3 ADD MSTORE PUSH1 0xF PUSH1 0x24 DUP3 ADD MSTORE PUSH15 0x546F6B656E207072696365203E203 PUSH1 0x8C SHL PUSH1 0x44 DUP3 ADD MSTORE PUSH1 0x64 ADD PUSH2 0x2EC JUMP JUMPDEST PUSH1 0x0 PUSH2 0x1E35 PUSH1 0x2 SLOAD SWAP1 JUMP JUMPDEST PUSH1 0x13 DUP2 SWAP1 SSTORE SWAP1 POP PUSH1 0x64 PUSH2 0x1E49 PUSH1 0xA DUP4 PUSH2 0x2D69 JUMP JUMPDEST PUSH2 0x1E53 SWAP2 SWAP1 PUSH2 0x2D80 JUMP JUMPDEST DUP3 LT ISZERO PUSH2 0x1E92 JUMPI PUSH1 0x40 MLOAD PUSH3 0x461BCD PUSH1 0xE5 SHL DUP2 MSTORE PUSH1 0x20 PUSH1 0x4 DUP3 ADD MSTORE PUSH1 0xD PUSH1 0x24 DUP3 ADD MSTORE PUSH13 0x546172676574203E3D20313025 PUSH1 0x98 SHL PUSH1 0x44 DUP3 ADD MSTORE PUSH1 0x64 ADD PUSH2 0x2EC JUMP JUMPDEST PUSH1 0x64 PUSH2 0x1E9F PUSH1 0x1E DUP4 PUSH2 0x2D69 JUMP JUMPDEST PUSH2 0x1EA9 SWAP2 SWAP1 PUSH2 0x2D80 JUMP JUMPDEST DUP3 GT ISZERO PUSH2 0x1EE8 JUMPI PUSH1 0x40 MLOAD PUSH3 0x461BCD PUSH1 0xE5 SHL DUP2 MSTORE PUSH1 0x20 PUSH1 0x4 DUP3 ADD MSTORE PUSH1 0xD PUSH1 0x24 DUP3 ADD MSTORE PUSH13 0x546172676574203C3D20333025 PUSH1 0x98 SHL PUSH1 0x44 DUP3 ADD MSTORE PUSH1 0x64 ADD PUSH2 0x2EC JUMP JUMPDEST PUSH1 0x9 SLOAD DUP5 SWAP1 PUSH2 0x1EFF SWAP1 PUSH1 0x1 PUSH1 0x1 PUSH1 0xA0 SHL SUB AND PUSH2 0x10A2 JUMP JUMPDEST LT ISZERO PUSH2 0x1F3E JUMPI PUSH1 0x40 MLOAD PUSH3 0x461BCD PUSH1 0xE5 SHL DUP2 MSTORE PUSH1 0x20 PUSH1 0x4 DUP3 ADD MSTORE PUSH1 0xE PUSH1 0x24 DUP3 ADD MSTORE PUSH14 0x53656C6C65722062616C206C6F77 PUSH1 0x90 SHL PUSH1 0x44 DUP3 ADD MSTORE PUSH1 0x64 ADD PUSH2 0x2EC JUMP JUMPDEST PUSH1 0x9 SLOAD DUP3 SWAP1 DUP6 SWAP1 PUSH2 0x1F57 SWAP1 PUSH1 0x1 PUSH1 0x1 PUSH1 0xA0 SHL SUB AND PUSH2 0x10A2 JUMP JUMPDEST PUSH2 0x1F61 SWAP2 SWAP1 PUSH2 0x2C63 JUMP JUMPDEST EQ PUSH2 0x1FA3 JUMPI PUSH1 0x40 MLOAD PUSH3 0x461BCD PUSH1 0xE5 SHL DUP2 MSTORE PUSH1 0x20 PUSH1 0x4 DUP3 ADD MSTORE PUSH1 0x12 PUSH1 0x24 DUP3 ADD MSTORE PUSH18 0x109859081CD85B194BDD19DD081CDC1B1A5D PUSH1 0x72 SHL PUSH1 0x44 DUP3 ADD MSTORE PUSH1 0x64 ADD PUSH2 0x2EC JUMP JUMPDEST PUSH1 0xF DUP5 SWAP1 SSTORE PUSH1 0xE DUP4 SWAP1 SSTORE PUSH1 0x10 DUP3 SWAP1 SSTORE PUSH1 0x40 DUP1 MLOAD DUP6 DUP2 MSTORE PUSH1 0x20 DUP2 ADD DUP6 SWAP1 MSTORE SWAP1 DUP2 ADD DUP4 SWAP1 MSTORE PUSH32 0x4D012A69148885509F5EB0377244099C968F990DB1F853707B9D8E3FEA20F7B9 SWAP1 PUSH1 0x60 ADD PUSH1 0x40 MLOAD DUP1 SWAP2 SUB SWAP1 LOG1 POP POP POP POP JUMP JUMPDEST PUSH2 0x2001 PUSH2 0x2041 JUMP JUMPDEST PUSH1 0x1 PUSH1 0x1 PUSH1 0xA0 SHL SUB DUP2 AND PUSH2 0x202B JUMPI PUSH1 0x0 PUSH1 0x40 MLOAD PUSH4 0x1E4FBDF7 PUSH1 0xE0 SHL DUP2 MSTORE PUSH1 0x4 ADD PUSH2 0x2EC SWAP2 SWAP1 PUSH2 0x2A20 JUMP JUMPDEST PUSH2 0xDB1 DUP2 PUSH2 0x222E JUMP JUMPDEST PUSH2 0xB98 DUP4 DUP4 DUP4 PUSH1 0x1 PUSH2 0x232B JUMP JUMPDEST CALLER PUSH2 0x204A PUSH2 0x146A JUMP JUMPDEST PUSH1 0x1 PUSH1 0x1 PUSH1 0xA0 SHL SUB AND EQ PUSH2 0xE12 JUMPI CALLER PUSH1 0x40 MLOAD PUSH4 0x118CDAA7 PUSH1 0xE0 SHL DUP2 MSTORE PUSH1 0x4 ADD PUSH2 0x2EC SWAP2 SWAP1 PUSH2 0x2A20 JUMP JUMPDEST PUSH1 0x7 SLOAD PUSH1 0xFF AND ISZERO PUSH2 0xE12 JUMPI PUSH1 0x40 MLOAD PUSH4 0xD93C0665 PUSH1 0xE0 SHL DUP2 MSTORE PUSH1 0x4 ADD PUSH1 0x40 MLOAD DUP1 SWAP2 SUB SWAP1 REVERT JUMPDEST PUSH1 0x1 PUSH1 0x1 PUSH1 0xA0 SHL SUB DUP4 AND PUSH2 0x20C1 JUMPI PUSH1 0x0 PUSH1 0x40 MLOAD PUSH4 0x4B637E8F PUSH1 0xE1 SHL DUP2 MSTORE PUSH1 0x4 ADD PUSH2 0x2EC SWAP2 SWAP1 PUSH2 0x2A20 JUMP JUMPDEST PUSH1 0x1 PUSH1 0x1 PUSH1 0xA0 SHL SUB DUP3 AND PUSH2 0x20EB JUMPI PUSH1 0x0 PUSH1 0x40 MLOAD PUSH4 0xEC442F05 PUSH1 0xE0 SHL DUP2 MSTORE PUSH1 0x4 ADD PUSH2 0x2EC SWAP2 SWAP1 PUSH2 0x2A20 JUMP JUMPDEST PUSH2 0xB98 DUP4 DUP4 DUP4 PUSH2 0x2400 JUMP JUMPDEST PUSH1 0x2 PUSH1 0x6 SLOAD SUB PUSH2 0x2119 JUMPI PUSH1 0x40 MLOAD PUSH4 0x3EE5AEB5 PUSH1 0xE0 SHL DUP2 MSTORE PUSH1 0x4 ADD PUSH1 0x40 MLOAD DUP1 SWAP2 SUB SWAP1 REVERT JUMPDEST PUSH1 0x2 PUSH1 0x6 SSTORE JUMP JUMPDEST PUSH1 0x40 MLOAD PUSH1 0x1 PUSH1 0x1 PUSH1 0xA0 SHL SUB DUP4 DUP2 AND PUSH1 0x24 DUP4 ADD MSTORE PUSH1 0x44 DUP3 ADD DUP4 SWAP1 MSTORE PUSH2 0xB98 SWAP2 DUP6 SWAP2 DUP3 AND SWAP1 PUSH4 0xA9059CBB SWAP1 PUSH1 0x64 ADD JUMPDEST PUSH1 0x40 MLOAD PUSH1 0x20 DUP2 DUP4 SUB SUB DUP2 MSTORE SWAP1 PUSH1 0x40 MSTORE SWAP2 POP PUSH1 0xE0 SHL PUSH1 0x20 DUP3 ADD DUP1 MLOAD PUSH1 0x1 PUSH1 0x1 PUSH1 0xE0 SHL SUB DUP4 DUP2 DUP4 AND OR DUP4 MSTORE POP POP POP POP PUSH2 0x2416 JUMP JUMPDEST PUSH1 0x0 CALLER PUSH2 0x218D DUP6 DUP3 DUP6 PUSH2 0x247E JUMP JUMPDEST PUSH2 0x2198 DUP6 DUP6 DUP6 PUSH2 0x2097 JUMP JUMPDEST POP PUSH1 0x1 SWAP5 SWAP4 POP POP POP POP JUMP JUMPDEST PUSH2 0x21AB PUSH2 0x24CC JUMP JUMPDEST PUSH1 0x7 DUP1 SLOAD PUSH1 0xFF NOT AND SWAP1 SSTORE PUSH32 0x5DB9EE0A495BF2E6FF9C91A7834C1BA4FDD244A5E8AA4E537BD38AEAE4B073AA CALLER JUMPDEST PUSH1 0x40 MLOAD PUSH2 0x21E5 SWAP2 SWAP1 PUSH2 0x2A20 JUMP JUMPDEST PUSH1 0x40 MLOAD DUP1 SWAP2 SUB SWAP1 LOG1 JUMP JUMPDEST PUSH1 0x40 MLOAD PUSH1 0x1 PUSH1 0x1 PUSH1 0xA0 SHL SUB DUP5 DUP2 AND PUSH1 0x24 DUP4 ADD MSTORE DUP4 DUP2 AND PUSH1 0x44 DUP4 ADD MSTORE PUSH1 0x64 DUP3 ADD DUP4 SWAP1 MSTORE PUSH2 0x2228 SWAP2 DUP7 SWAP2 DUP3 AND SWAP1 PUSH4 0x23B872DD SWAP1 PUSH1 0x84 ADD PUSH2 0x214D JUMP JUMPDEST POP POP POP POP JUMP JUMPDEST PUSH1 0x5 DUP1 SLOAD PUSH1 0x1 PUSH1 0x1 PUSH1 0xA0 SHL SUB DUP4 DUP2 AND PUSH1 0x1 PUSH1 0x1 PUSH1 0xA0 SHL SUB NOT DUP4 AND DUP2 OR SWAP1 SWAP4 SSTORE PUSH1 0x40 MLOAD SWAP2 AND SWAP2 SWAP1 DUP3 SWAP1 PUSH32 0x8BE0079C531659141344CD1FD0A4F28419497F9722A3DAAFE3B4186F6B6457E0 SWAP1 PUSH1 0x0 SWAP1 LOG3 POP POP JUMP JUMPDEST PUSH2 0x2288 PUSH2 0x2073 JUMP JUMPDEST PUSH1 0x7 DUP1 SLOAD PUSH1 0xFF NOT AND PUSH1 0x1 OR SWAP1 SSTORE PUSH32 0x62E78CEA01BEE320CD4E420270B5EA74000D11B0C9F74754EBDBFC544B05A258 PUSH2 0x21D8 CALLER SWAP1 JUMP JUMPDEST PUSH1 0x0 CALLER PUSH2 0xAAF DUP2 DUP6 DUP6 PUSH2 0x2097 JUMP JUMPDEST PUSH1 0x1 PUSH1 0x1 PUSH1 0xA0 SHL SUB DUP3 AND PUSH2 0x22F5 JUMPI PUSH1 0x0 PUSH1 0x40 MLOAD PUSH4 0xEC442F05 PUSH1 0xE0 SHL DUP2 MSTORE PUSH1 0x4 ADD PUSH2 0x2EC SWAP2 SWAP1 PUSH2 0x2A20 JUMP JUMPDEST PUSH2 0x1398 PUSH1 0x0 DUP4 DUP4 PUSH2 0x2400 JUMP JUMPDEST PUSH1 0x0 DUP1 PUSH1 0x0 DUP1 PUSH2 0x2311 DUP7 DUP7 PUSH2 0x24EF JUMP JUMPDEST SWAP3 POP SWAP3 POP SWAP3 POP PUSH2 0x2321 DUP3 DUP3 PUSH2 0x253C JUMP JUMPDEST POP SWAP1 SWAP5 SWAP4 POP POP POP POP JUMP JUMPDEST PUSH1 0x1 PUSH1 0x1 PUSH1 0xA0 SHL SUB DUP5 AND PUSH2 0x2355 JUMPI PUSH1 0x0 PUSH1 0x40 MLOAD PUSH4 0xE602DF05 PUSH1 0xE0 SHL DUP2 MSTORE PUSH1 0x4 ADD PUSH2 0x2EC SWAP2 SWAP1 PUSH2 0x2A20 JUMP JUMPDEST PUSH1 0x1 PUSH1 0x1 PUSH1 0xA0 SHL SUB DUP4 AND PUSH2 0x237F JUMPI PUSH1 0x0 PUSH1 0x40 MLOAD PUSH4 0x4A1406B1 PUSH1 0xE1 SHL DUP2 MSTORE PUSH1 0x4 ADD PUSH2 0x2EC SWAP2 SWAP1 PUSH2 0x2A20 JUMP JUMPDEST PUSH1 0x1 PUSH1 0x1 PUSH1 0xA0 SHL SUB DUP1 DUP6 AND PUSH1 0x0 SWAP1 DUP2 MSTORE PUSH1 0x1 PUSH1 0x20 SWAP1 DUP2 MSTORE PUSH1 0x40 DUP1 DUP4 KECCAK256 SWAP4 DUP8 AND DUP4 MSTORE SWAP3 SWAP1 MSTORE KECCAK256 DUP3 SWAP1 SSTORE DUP1 ISZERO PUSH2 0x2228 JUMPI DUP3 PUSH1 0x1 PUSH1 0x1 PUSH1 0xA0 SHL SUB AND DUP5 PUSH1 0x1 PUSH1 0x1 PUSH1 0xA0 SHL SUB AND PUSH32 0x8C5BE1E5EBEC7D5BD14F71427D1E84F3DD0314C0F7B2291E5B200AC8C7C3B925 DUP5 PUSH1 0x40 MLOAD PUSH2 0x23F2 SWAP2 DUP2 MSTORE PUSH1 0x20 ADD SWAP1 JUMP JUMPDEST PUSH1 0x40 MLOAD DUP1 SWAP2 SUB SWAP1 LOG3 POP POP POP POP JUMP JUMPDEST PUSH2 0x240B DUP4 DUP4 DUP4 PUSH2 0x25F5 JUMP JUMPDEST PUSH2 0xB98 DUP4 DUP4 DUP4 PUSH2 0x27CC JUMP JUMPDEST PUSH1 0x0 DUP1 PUSH1 0x20 PUSH1 0x0 DUP5 MLOAD PUSH1 0x20 DUP7 ADD PUSH1 0x0 DUP9 GAS CALL DUP1 PUSH2 0x2439 JUMPI PUSH1 0x40 MLOAD RETURNDATASIZE PUSH1 0x0 DUP3 RETURNDATACOPY RETURNDATASIZE DUP2 REVERT JUMPDEST POP POP PUSH1 0x0 MLOAD RETURNDATASIZE SWAP2 POP DUP2 ISZERO PUSH2 0x2451 JUMPI DUP1 PUSH1 0x1 EQ ISZERO PUSH2 0x245E JUMP JUMPDEST PUSH1 0x1 PUSH1 0x1 PUSH1 0xA0 SHL SUB DUP5 AND EXTCODESIZE ISZERO JUMPDEST ISZERO PUSH2 0x2228 JUMPI DUP4 PUSH1 0x40 MLOAD PUSH4 0x5274AFE7 PUSH1 0xE0 SHL DUP2 MSTORE PUSH1 0x4 ADD PUSH2 0x2EC SWAP2 SWAP1 PUSH2 0x2A20 JUMP JUMPDEST PUSH1 0x0 PUSH2 0x248A DUP5 DUP5 PUSH2 0x1C80 JUMP JUMPDEST SWAP1 POP PUSH1 0x0 NOT DUP2 LT ISZERO PUSH2 0x2228 JUMPI DUP2 DUP2 LT ISZERO PUSH2 0x24BD JUMPI DUP3 DUP2 DUP4 PUSH1 0x40 MLOAD PUSH4 0x7DC7A0D9 PUSH1 0xE1 SHL DUP2 MSTORE PUSH1 0x4 ADD PUSH2 0x2EC SWAP4 SWAP3 SWAP2 SWAP1 PUSH2 0x2E8C JUMP JUMPDEST PUSH2 0x2228 DUP5 DUP5 DUP5 DUP5 SUB PUSH1 0x0 PUSH2 0x232B JUMP JUMPDEST PUSH1 0x7 SLOAD PUSH1 0xFF AND PUSH2 0xE12 JUMPI PUSH1 0x40 MLOAD PUSH4 0x8DFC202B PUSH1 0xE0 SHL DUP2 MSTORE PUSH1 0x4 ADD PUSH1 0x40 MLOAD DUP1 SWAP2 SUB SWAP1 REVERT JUMPDEST PUSH1 0x0 DUP1 PUSH1 0x0 DUP4 MLOAD PUSH1 0x41 SUB PUSH2 0x2529 JUMPI PUSH1 0x20 DUP5 ADD MLOAD PUSH1 0x40 DUP6 ADD MLOAD PUSH1 0x60 DUP7 ADD MLOAD PUSH1 0x0 BYTE PUSH2 0x251B DUP9 DUP3 DUP6 DUP6 PUSH2 0x28E3 JUMP JUMPDEST SWAP6 POP SWAP6 POP SWAP6 POP POP POP POP PUSH2 0x2535 JUMP JUMPDEST POP POP DUP2 MLOAD PUSH1 0x0 SWAP2 POP PUSH1 0x2 SWAP1 JUMPDEST SWAP3 POP SWAP3 POP SWAP3 JUMP JUMPDEST PUSH1 0x0 DUP3 PUSH1 0x3 DUP2 GT ISZERO PUSH2 0x2550 JUMPI PUSH2 0x2550 PUSH2 0x2EAD JUMP JUMPDEST SUB PUSH2 0x2559 JUMPI POP POP JUMP JUMPDEST PUSH1 0x1 DUP3 PUSH1 0x3 DUP2 GT ISZERO PUSH2 0x256D JUMPI PUSH2 0x256D PUSH2 0x2EAD JUMP JUMPDEST SUB PUSH2 0x258B JUMPI PUSH1 0x40 MLOAD PUSH4 0xF645EEDF PUSH1 0xE0 SHL DUP2 MSTORE PUSH1 0x4 ADD PUSH1 0x40 MLOAD DUP1 SWAP2 SUB SWAP1 REVERT JUMPDEST PUSH1 0x2 DUP3 PUSH1 0x3 DUP2 GT ISZERO PUSH2 0x259F JUMPI PUSH2 0x259F PUSH2 0x2EAD JUMP JUMPDEST SUB PUSH2 0x25C0 JUMPI PUSH1 0x40 MLOAD PUSH4 0xFCE698F7 PUSH1 0xE0 SHL DUP2 MSTORE PUSH1 0x4 DUP2 ADD DUP3 SWAP1 MSTORE PUSH1 0x24 ADD PUSH2 0x2EC JUMP JUMPDEST PUSH1 0x3 DUP3 PUSH1 0x3 DUP2 GT ISZERO PUSH2 0x25D4 JUMPI PUSH2 0x25D4 PUSH2 0x2EAD JUMP JUMPDEST SUB PUSH2 0x1398 JUMPI PUSH1 0x40 MLOAD PUSH4 0x35E2F383 PUSH1 0xE2 SHL DUP2 MSTORE PUSH1 0x4 DUP2 ADD DUP3 SWAP1 MSTORE PUSH1 0x24 ADD PUSH2 0x2EC JUMP JUMPDEST PUSH1 0xD SLOAD PUSH1 0x1 PUSH1 0xA8 SHL SWAP1 DIV PUSH1 0xFF AND DUP1 PUSH2 0x2614 JUMPI POP PUSH1 0x1 PUSH1 0x1 PUSH1 0xA0 SHL SUB DUP4 AND ISZERO JUMPDEST DUP1 PUSH2 0x2626 JUMPI POP PUSH1 0x1 PUSH1 0x1 PUSH1 0xA0 SHL SUB DUP3 AND ISZERO JUMPDEST PUSH2 0x266B JUMPI PUSH1 0x40 MLOAD PUSH3 0x461BCD PUSH1 0xE5 SHL DUP2 MSTORE PUSH1 0x20 PUSH1 0x4 DUP3 ADD MSTORE PUSH1 0x16 PUSH1 0x24 DUP3 ADD MSTORE PUSH22 0x151C985B9CD9995C9CC8185C9948191A5CD8589B1959 PUSH1 0x52 SHL PUSH1 0x44 DUP3 ADD MSTORE PUSH1 0x64 ADD PUSH2 0x2EC JUMP JUMPDEST PUSH1 0x1 PUSH1 0x1 PUSH1 0xA0 SHL SUB DUP4 AND ISZERO DUP1 ISZERO SWAP1 PUSH2 0x268B JUMPI POP PUSH1 0x1 PUSH1 0x1 PUSH1 0xA0 SHL SUB DUP3 AND ISZERO ISZERO JUMPDEST ISZERO PUSH2 0xB98 JUMPI PUSH1 0x9 SLOAD PUSH1 0x1 PUSH1 0x1 PUSH1 0xA0 SHL SUB SWAP1 DUP2 AND SWAP1 DUP5 AND SUB PUSH2 0x272C JUMPI PUSH1 0x9 SLOAD PUSH1 0x0 SWAP1 DUP3 SWAP1 PUSH2 0x26C0 SWAP1 PUSH1 0x1 PUSH1 0x1 PUSH1 0xA0 SHL SUB AND PUSH2 0x10A2 JUMP JUMPDEST PUSH2 0x26CA SWAP2 SWAP1 PUSH2 0x2C63 JUMP JUMPDEST SWAP1 POP PUSH1 0x10 SLOAD DUP2 LT ISZERO PUSH2 0x272A JUMPI PUSH1 0x40 MLOAD PUSH3 0x461BCD PUSH1 0xE5 SHL DUP2 MSTORE PUSH1 0x20 PUSH1 0x4 DUP3 ADD MSTORE PUSH1 0x24 DUP1 DUP3 ADD MSTORE PUSH32 0x53656C6C6572206D7573742072657461696E206D696E696D756D206F776E6572 PUSH1 0x44 DUP3 ADD MSTORE PUSH4 0x7368697 PUSH1 0xE4 SHL PUSH1 0x64 DUP3 ADD MSTORE PUSH1 0x84 ADD PUSH2 0x2EC JUMP JUMPDEST POP JUMPDEST PUSH1 0x9 SLOAD PUSH1 0x1 PUSH1 0x1 PUSH1 0xA0 SHL SUB DUP4 DUP2 AND SWAP2 AND EQ PUSH2 0xB98 JUMPI PUSH1 0x0 PUSH1 0x13 SLOAD PUSH1 0x0 EQ PUSH2 0x2755 JUMPI PUSH1 0x13 SLOAD PUSH2 0x2759 JUMP JUMPDEST PUSH1 0x2 SLOAD JUMPDEST SWAP1 POP PUSH1 0x64 PUSH2 0x2768 PUSH1 0xF DUP4 PUSH2 0x2D69 JUMP JUMPDEST PUSH2 0x2772 SWAP2 SWAP1 PUSH2 0x2D80 JUMP JUMPDEST DUP3 PUSH2 0x277C DUP6 PUSH2 0x10A2 JUMP JUMPDEST PUSH2 0x2786 SWAP2 SWAP1 PUSH2 0x2C50 JUMP JUMPDEST GT ISZERO PUSH2 0x2228 JUMPI PUSH1 0x40 MLOAD PUSH3 0x461BCD PUSH1 0xE5 SHL DUP2 MSTORE PUSH1 0x20 PUSH1 0x4 DUP3 ADD MSTORE PUSH1 0x15 PUSH1 0x24 DUP3 ADD MSTORE PUSH21 0x42757965722065786365656473203135252063617 PUSH1 0x5C SHL PUSH1 0x44 DUP3 ADD MSTORE PUSH1 0x64 ADD PUSH2 0x2EC JUMP JUMPDEST PUSH1 0x1 PUSH1 0x1 PUSH1 0xA0 SHL SUB DUP4 AND PUSH2 0x27F7 JUMPI DUP1 PUSH1 0x2 PUSH1 0x0 DUP3 DUP3 SLOAD PUSH2 0x27EC SWAP2 SWAP1 PUSH2 0x2C50 JUMP JUMPDEST SWAP1 SWAP2 SSTORE POP PUSH2 0x2856 SWAP1 POP JUMP JUMPDEST PUSH1 0x1 PUSH1 0x1 PUSH1 0xA0 SHL SUB DUP4 AND PUSH1 0x0 SWAP1 DUP2 MSTORE PUSH1 0x20 DUP2 SWAP1 MSTORE PUSH1 0x40 SWAP1 KECCAK256 SLOAD DUP2 DUP2 LT ISZERO PUSH2 0x2837 JUMPI DUP4 DUP2 DUP4 PUSH1 0x40 MLOAD PUSH4 0x391434E3 PUSH1 0xE2 SHL DUP2 MSTORE PUSH1 0x4 ADD PUSH2 0x2EC SWAP4 SWAP3 SWAP2 SWAP1 PUSH2 0x2E8C JUMP JUMPDEST PUSH1 0x1 PUSH1 0x1 PUSH1 0xA0 SHL SUB DUP5 AND PUSH1 0x0 SWAP1 DUP2 MSTORE PUSH1 0x20 DUP2 SWAP1 MSTORE PUSH1 0x40 SWAP1 KECCAK256 SWAP1 DUP3 SWAP1 SUB SWAP1 SSTORE JUMPDEST PUSH1 0x1 PUSH1 0x1 PUSH1 0xA0 SHL SUB DUP3 AND PUSH2 0x2872 JUMPI PUSH1 0x2 DUP1 SLOAD DUP3 SWAP1 SUB SWAP1 SSTORE PUSH2 0x2891 JUMP JUMPDEST PUSH1 0x1 PUSH1 0x1 PUSH1 0xA0 SHL SUB DUP3 AND PUSH1 0x0 SWAP1 DUP2 MSTORE PUSH1 0x20 DUP2 SWAP1 MSTORE PUSH1 0x40 SWAP1 KECCAK256 DUP1 SLOAD DUP3 ADD SWAP1 SSTORE JUMPDEST DUP2 PUSH1 0x1 PUSH1 0x1 PUSH1 0xA0 SHL SUB AND DUP4 PUSH1 0x1 PUSH1 0x1 PUSH1 0xA0 SHL SUB AND PUSH32 0xDDF252AD1BE2C89B69C2B068FC378DAA952BA7F163C4A11628F55A4DF523B3EF DUP4 PUSH1 0x40 MLOAD PUSH2 0x28D6 SWAP2 DUP2 MSTORE PUSH1 0x20 ADD SWAP1 JUMP JUMPDEST PUSH1 0x40 MLOAD DUP1 SWAP2 SUB SWAP1 LOG3 POP POP POP JUMP JUMPDEST PUSH1 0x0 DUP1 DUP1 PUSH16 0xA2A8918CA85BAFE22016D0B997E4DF60 PUSH1 0x1 PUSH1 0xFF SHL SUB DUP5 GT ISZERO PUSH2 0x2914 JUMPI POP PUSH1 0x0 SWAP2 POP PUSH1 0x3 SWAP1 POP DUP3 PUSH2 0x299E JUMP JUMPDEST PUSH1 0x40 DUP1 MLOAD PUSH1 0x0 DUP1 DUP3 MSTORE PUSH1 0x20 DUP3 ADD DUP1 DUP5 MSTORE DUP11 SWAP1 MSTORE PUSH1 0xFF DUP10 AND SWAP3 DUP3 ADD SWAP3 SWAP1 SWAP3 MSTORE PUSH1 0x60 DUP2 ADD DUP8 SWAP1 MSTORE PUSH1 0x80 DUP2 ADD DUP7 SWAP1 MSTORE PUSH1 0x1 SWAP1 PUSH1 0xA0 ADD PUSH1 0x20 PUSH1 0x40 MLOAD PUSH1 0x20 DUP2 SUB SWAP1 DUP1 DUP5 SUB SWAP1 DUP6 GAS STATICCALL ISZERO DUP1 ISZERO PUSH2 0x2968 JUMPI RETURNDATASIZE PUSH1 0x0 DUP1 RETURNDATACOPY RETURNDATASIZE PUSH1 0x0 REVERT JUMPDEST POP POP PUSH1 0x40 MLOAD PUSH1 0x1F NOT ADD MLOAD SWAP2 POP POP PUSH1 0x1 PUSH1 0x1 PUSH1 0xA0 SHL SUB DUP2 AND PUSH2 0x2994 JUMPI POP PUSH1 0x0 SWAP3 POP PUSH1 0x1 SWAP2 POP DUP3 SWAP1 POP PUSH2 0x299E JUMP JUMPDEST SWAP3 POP PUSH1 0x0 SWAP2 POP DUP2 SWAP1 POP JUMPDEST SWAP5 POP SWAP5 POP SWAP5 SWAP2 POP POP JUMP JUMPDEST PUSH1 0x20 DUP1 DUP3 MSTORE PUSH1 0x10 SWAP1 DUP3 ADD MSTORE PUSH16 0x115512081B9BDD081858D8D95C1D1959 PUSH1 0x82 SHL PUSH1 0x40 DUP3 ADD MSTORE PUSH1 0x60 ADD SWAP1 JUMP JUMPDEST PUSH1 0x0 PUSH1 0x20 DUP1 DUP4 MSTORE DUP4 MLOAD DUP1 DUP3 DUP6 ADD MSTORE PUSH1 0x0 JUMPDEST DUP2 DUP2 LT ISZERO PUSH2 0x29FF JUMPI DUP6 DUP2 ADD DUP4 ADD MLOAD DUP6 DUP3 ADD PUSH1 0x40 ADD MSTORE DUP3 ADD PUSH2 0x29E3 JUMP JUMPDEST POP PUSH1 0x0 PUSH1 0x40 DUP3 DUP7 ADD ADD MSTORE PUSH1 0x40 PUSH1 0x1F NOT PUSH1 0x1F DUP4 ADD AND DUP6 ADD ADD SWAP3 POP POP POP SWAP3 SWAP2 POP POP JUMP JUMPDEST PUSH1 0x1 PUSH1 0x1 PUSH1 0xA0 SHL SUB SWAP2 SWAP1 SWAP2 AND DUP2 MSTORE PUSH1 0x20 ADD SWAP1 JUMP JUMPDEST DUP1 CALLDATALOAD PUSH1 0x1 PUSH1 0x1 PUSH1 0xA0 SHL SUB DUP2 AND DUP2 EQ PUSH2 0x2A4B JUMPI PUSH1 0x0 DUP1 REVERT JUMPDEST SWAP2 SWAP1 POP JUMP JUMPDEST PUSH1 0x0 DUP1 PUSH1 0x40 DUP4 DUP6 SUB SLT ISZERO PUSH2 0x2A63 JUMPI PUSH1 0x0 DUP1 REVERT JUMPDEST PUSH2 0x2A6C DUP4 PUSH2 0x2A34 JUMP JUMPDEST SWAP5 PUSH1 0x20 SWAP4 SWAP1 SWAP4 ADD CALLDATALOAD SWAP4 POP POP POP JUMP JUMPDEST PUSH1 0x0 DUP1 PUSH1 0x0 PUSH1 0x60 DUP5 DUP7 SUB SLT ISZERO PUSH2 0x2A8F JUMPI PUSH1 0x0 DUP1 REVERT JUMPDEST PUSH2 0x2A98 DUP5 PUSH2 0x2A34 JUMP JUMPDEST SWAP3 POP PUSH2 0x2AA6 PUSH1 0x20 DUP6 ADD PUSH2 0x2A34 JUMP JUMPDEST SWAP2 POP PUSH1 0x40 DUP5 ADD CALLDATALOAD SWAP1 POP SWAP3 POP SWAP3 POP SWAP3 JUMP JUMPDEST PUSH1 0x0 PUSH1 0x20 DUP3 DUP5 SUB SLT ISZERO PUSH2 0x2AC8 JUMPI PUSH1 0x0 DUP1 REVERT JUMPDEST PUSH2 0x1797 DUP3 PUSH2 0x2A34 JUMP JUMPDEST PUSH1 0x0 PUSH1 0x20 DUP3 DUP5 SUB SLT ISZERO PUSH2 0x2AE3 JUMPI PUSH1 0x0 DUP1 REVERT JUMPDEST POP CALLDATALOAD SWAP2 SWAP1 POP JUMP JUMPDEST PUSH1 0x0 PUSH1 0x20 DUP3 DUP5 SUB SLT ISZERO PUSH2 0x2AFC JUMPI PUSH1 0x0 DUP1 REVERT JUMPDEST DUP2 CALLDATALOAD DUP1 ISZERO ISZERO DUP2 EQ PUSH2 0x1797 JUMPI PUSH1 0x0 DUP1 REVERT JUMPDEST PUSH1 0x0 DUP1 PUSH1 0x0 DUP1 PUSH1 0x0 PUSH1 0x80 DUP7 DUP9 SUB SLT ISZERO PUSH2 0x2B24 JUMPI PUSH1 0x0 DUP1 REVERT JUMPDEST DUP6 CALLDATALOAD SWAP5 POP PUSH1 0x20 DUP7 ADD CALLDATALOAD PUSH8 0xFFFFFFFFFFFFFFFF DUP1 DUP3 GT ISZERO PUSH2 0x2B43 JUMPI PUSH1 0x0 DUP1 REVERT JUMPDEST DUP2 DUP9 ADD SWAP2 POP DUP9 PUSH1 0x1F DUP4 ADD SLT PUSH2 0x2B57 JUMPI PUSH1 0x0 DUP1 REVERT JUMPDEST DUP2 CALLDATALOAD DUP2 DUP2 GT ISZERO PUSH2 0x2B66 JUMPI PUSH1 0x0 DUP1 REVERT JUMPDEST DUP10 PUSH1 0x20 DUP3 DUP6 ADD ADD GT ISZERO PUSH2 0x2B78 JUMPI PUSH1 0x0 DUP1 REVERT JUMPDEST PUSH1 0x20 DUP4 ADD SWAP7 POP DUP1 SWAP6 POP POP POP POP PUSH2 0x2B90 PUSH1 0x40 DUP8 ADD PUSH2 0x2A34 JUMP JUMPDEST SWAP5 SWAP8 SWAP4 SWAP7 POP SWAP2 SWAP5 PUSH1 0x60 ADD CALLDATALOAD SWAP3 SWAP2 POP POP JUMP JUMPDEST PUSH1 0x0 DUP1 PUSH1 0x40 DUP4 DUP6 SUB SLT ISZERO PUSH2 0x2BB4 JUMPI PUSH1 0x0 DUP1 REVERT JUMPDEST PUSH2 0x2BBD DUP4 PUSH2 0x2A34 JUMP JUMPDEST SWAP2 POP PUSH2 0x2BCB PUSH1 0x20 DUP5 ADD PUSH2 0x2A34 JUMP JUMPDEST SWAP1 POP SWAP3 POP SWAP3 SWAP1 POP JUMP JUMPDEST PUSH1 0x0 DUP1 PUSH1 0x0 PUSH1 0x60 DUP5 DUP7 SUB SLT ISZERO PUSH2 0x2BE9 JUMPI PUSH1 0x0 DUP1 REVERT JUMPDEST POP POP DUP2 CALLDATALOAD SWAP4 PUSH1 0x20 DUP4 ADD CALLDATALOAD SWAP4 POP PUSH1 0x40 SWAP1 SWAP3 ADD CALLDATALOAD SWAP2 SWAP1 POP JUMP JUMPDEST PUSH1 0x1 DUP2 DUP2 SHR SWAP1 DUP3 AND DUP1 PUSH2 0x2C14 JUMPI PUSH1 0x7F DUP3 AND SWAP2 POP JUMPDEST PUSH1 0x20 DUP3 LT DUP2 SUB PUSH2 0x2C34 JUMPI PUSH4 0x4E487B71 PUSH1 0xE0 SHL PUSH1 0x0 MSTORE PUSH1 0x22 PUSH1 0x4 MSTORE PUSH1 0x24 PUSH1 0x0 REVERT JUMPDEST POP SWAP2 SWAP1 POP JUMP JUMPDEST PUSH4 0x4E487B71 PUSH1 0xE0 SHL PUSH1 0x0 MSTORE PUSH1 0x11 PUSH1 0x4 MSTORE PUSH1 0x24 PUSH1 0x0 REVERT JUMPDEST DUP1 DUP3 ADD DUP1 DUP3 GT ISZERO PUSH2 0xAB5 JUMPI PUSH2 0xAB5 PUSH2 0x2C3A JUMP JUMPDEST DUP2 DUP2 SUB DUP2 DUP2 GT ISZERO PUSH2 0xAB5 JUMPI PUSH2 0xAB5 PUSH2 0x2C3A JUMP JUMPDEST PUSH1 0x1 DUP2 DUP2 JUMPDEST DUP1 DUP6 GT ISZERO PUSH2 0x2CB1 JUMPI DUP2 PUSH1 0x0 NOT DIV DUP3 GT ISZERO PUSH2 0x2C97 JUMPI PUSH2 0x2C97 PUSH2 0x2C3A JUMP JUMPDEST DUP1 DUP6 AND ISZERO PUSH2 0x2CA4 JUMPI SWAP2 DUP2 MUL SWAP2 JUMPDEST SWAP4 DUP5 SHR SWAP4 SWAP1 DUP1 MUL SWAP1 PUSH2 0x2C7B JUMP JUMPDEST POP SWAP3 POP SWAP3 SWAP1 POP JUMP JUMPDEST PUSH1 0x0 DUP3 PUSH2 0x2CC8 JUMPI POP PUSH1 0x1 PUSH2 0xAB5 JUMP JUMPDEST DUP2 PUSH2 0x2CD5 JUMPI POP PUSH1 0x0 PUSH2 0xAB5 JUMP JUMPDEST DUP2 PUSH1 0x1 DUP2 EQ PUSH2 0x2CEB JUMPI PUSH1 0x2 DUP2 EQ PUSH2 0x2CF5 JUMPI PUSH2 0x2D11 JUMP JUMPDEST PUSH1 0x1 SWAP2 POP POP PUSH2 0xAB5 JUMP JUMPDEST PUSH1 0xFF DUP5 GT ISZERO PUSH2 0x2D06 JUMPI PUSH2 0x2D06 PUSH2 0x2C3A JUMP JUMPDEST POP POP PUSH1 0x1 DUP3 SHL PUSH2 0xAB5 JUMP JUMPDEST POP PUSH1 0x20 DUP4 LT PUSH2 0x133 DUP4 LT AND PUSH1 0x4E DUP5 LT PUSH1 0xB DUP5 LT AND OR ISZERO PUSH2 0x2D34 JUMPI POP DUP2 DUP2 EXP PUSH2 0xAB5 JUMP JUMPDEST PUSH2 0x2D3E DUP4 DUP4 PUSH2 0x2C76 JUMP JUMPDEST DUP1 PUSH1 0x0 NOT DIV DUP3 GT ISZERO PUSH2 0x2D52 JUMPI PUSH2 0x2D52 PUSH2 0x2C3A JUMP JUMPDEST MUL SWAP4 SWAP3 POP POP POP JUMP JUMPDEST PUSH1 0x0 PUSH2 0x1797 PUSH1 0xFF DUP5 AND DUP4 PUSH2 0x2CB9 JUMP JUMPDEST DUP1 DUP3 MUL DUP2 ISZERO DUP3 DUP3 DIV DUP5 EQ OR PUSH2 0xAB5 JUMPI PUSH2 0xAB5 PUSH2 0x2C3A JUMP JUMPDEST PUSH1 0x0 DUP3 PUSH2 0x2D9D JUMPI PUSH4 0x4E487B71 PUSH1 0xE0 SHL PUSH1 0x0 MSTORE PUSH1 0x12 PUSH1 0x4 MSTORE PUSH1 0x24 PUSH1 0x0 REVERT JUMPDEST POP DIV SWAP1 JUMP JUMPDEST PUSH1 0x20 DUP1 DUP3 MSTORE PUSH1 0x19 SWAP1 DUP3 ADD MSTORE PUSH25 0x111A5C9958DD081D1C985B9CD9995C9CC8191A5CD8589B1959 PUSH1 0x3A SHL PUSH1 0x40 DUP3 ADD MSTORE PUSH1 0x60 ADD SWAP1 JUMP JUMPDEST PUSH1 0x20 DUP1 DUP3 MSTORE PUSH1 0xC SWAP1 DUP3 ADD MSTORE PUSH12 0x4F6E6C7920666163746F7279 PUSH1 0xA0 SHL PUSH1 0x40 DUP3 ADD MSTORE PUSH1 0x60 ADD SWAP1 JUMP JUMPDEST PUSH1 0x20 DUP1 DUP3 MSTORE PUSH1 0x8 SWAP1 DUP3 ADD MSTORE PUSH8 0x416D6F756E743E3 PUSH1 0xC4 SHL PUSH1 0x40 DUP3 ADD MSTORE PUSH1 0x60 ADD SWAP1 JUMP JUMPDEST PUSH1 0x20 DUP1 DUP3 MSTORE PUSH1 0xC SWAP1 DUP3 ADD MSTORE PUSH12 0x457863656564732073616C65 PUSH1 0xA0 SHL PUSH1 0x40 DUP3 ADD MSTORE PUSH1 0x60 ADD SWAP1 JUMP JUMPDEST PUSH1 0x0 PUSH1 0x20 DUP3 DUP5 SUB SLT ISZERO PUSH2 0x2E55 JUMPI PUSH1 0x0 DUP1 REVERT JUMPDEST POP MLOAD SWAP2 SWAP1 POP JUMP JUMPDEST SWAP2 DUP3 MSTORE PUSH1 0x1 PUSH1 0x1 PUSH1 0xA0 SHL SUB AND PUSH1 0x20 DUP3 ADD MSTORE PUSH1 0x40 ADD SWAP1 JUMP JUMPDEST PUSH1 0xFF DUP3 DUP2 AND DUP3 DUP3 AND SUB SWAP1 DUP2 GT ISZERO PUSH2 0xAB5 JUMPI PUSH2 0xAB5 PUSH2 0x2C3A JUMP JUMPDEST PUSH1 0x1 PUSH1 0x1 PUSH1 0xA0 SHL SUB SWAP4 SWAP1 SWAP4 AND DUP4 MSTORE PUSH1 0x20 DUP4 ADD SWAP2 SWAP1 SWAP2 MSTORE PUSH1 0x40 DUP3 ADD MSTORE PUSH1 0x60 ADD SWAP1 JUMP JUMPDEST PUSH4 0x4E487B71 PUSH1 0xE0 SHL PUSH1 0x0 MSTORE PUSH1 0x21 PUSH1 0x4 MSTORE PUSH1 0x24 PUSH1 0x0 REVERT INVALID LOG2 PUSH5 0x6970667358 0x22 SLT KECCAK256 0xBF SWAP13 PUSH4 0xD239853A DUP15 STATICCALL SSTORE 0x5E PUSH8 0xB183BDA510472E1E JUMPDEST CHAINID 0xC9 0xD6 0xD1 0xD7 PUSH5 0xD68C5AED1 PUSH5 0x736F6C6343 STOP ADDMOD EQ STOP CALLER "},"methodIdentifiers":{"AGREEMENT_TIMEOUT()":"00267f9a","MAX_BUYER_PERCENT()":"d5cf7cfe","MAX_SELLER_PERCENT()":"624b233d","MIN_SELLER_PERCENT()":"7b239e22","PERCENT_BASE()":"805d835d","SELLER_ALLOCATION_PERCENT()":"c157c5ff","WHIMSY_ALLOCATION_PERCENT()":"b91f6f0e","agreeDisclaimerFor(address)":"6add3bdb","allowance(address,address)":"dd62ed3e","approve(address,uint256)":"095ea7b3","balanceOf(address)":"70a08231","bufferUsed(bytes32)":"58bcc4fb","buyTokensFor(address,uint256)":"712daa75","decimals()":"313ce567","endSaleEarly()":"8f52f0f9","factory()":"c45a0155","getPostMoneyValuation(uint256)":"2b319a8f","governanceContract()":"b172b222","hasAgreedDisclaimer(address)":"7d6c8c00","increaseSupply(uint256)":"b921e163","name()":"06fdde03","operator()":"570ca735","operatorTransfer(address,address,uint256)":"0d1af103","owner()":"8da5cb5b","pause()":"8456cb59","paused()":"5c975abb","paymentToken()":"3013ce29","pendingReservations(address)":"490deb3d","refundUnagreedBuyer(address)":"1df37492","renounceOwnership()":"715018a6","requireSignatureOnTransfer()":"93634c0a","reserveTokensFor(address,uint256)":"b2826b91","saleEnded()":"9b8906ae","saleSupplySnapshot()":"15482ce1","seller()":"08551a53","setFactory(address)":"5bb47808","setOperator(address)":"b3ab15fb","setRequireSignatureOnTransfer(bool)":"bbd30fb9","setSaleParameters(uint256,uint256,uint256)":"e249b7ce","setSigner(address)":"6c19e783","setWhimsy(address)":"74faa74b","signatureTransfer(bytes32,bytes,address,uint256)":"c421d18f","symbol()":"95d89b41","targetSellerOwnership()":"bb979d62","toggleTransfers(bool)":"68504158","tokenPrice()":"7ff9b596","tokensForSale()":"12aef8c3","totalRaised()":"c5c4744c","totalReserved()":"c71b0e1c","totalSupply()":"18160ddd","transfer(address,uint256)":"a9059cbb","transferFrom(address,address,uint256)":"23b872dd","transferOwnership(address)":"f2fde38b","transfersEnabled()":"bef97c87","unpause()":"3f4ba83a","updateSellerAddress(address)":"685dab8f","whimsy()":"16314a69","withdrawETH()":"e086e5ec","withdrawPayment()":"a118babd"}}}}}