{"contracts/PropertyToken.sol":{"PropertyToken":{"abi":[{"inputs":[{"internalType":"string","name":"name_","type":"string"},{"internalType":"string","name":"symbol_","type":"string"},{"internalType":"uint256","name":"initialSupply_","type":"uint256"},{"internalType":"address","name":"seller_","type":"address"},{"internalType":"address","name":"whimsyAddress","type":"address"},{"internalType":"address","name":"owner_","type":"address"},{"internalType":"address","name":"paymentTokenAddress","type":"address"},{"internalType":"address","name":"assignedSigner","type":"address"}],"stateMutability":"nonpayable","type":"constructor"},{"inputs":[],"name":"ECDSAInvalidSignature","type":"error"},{"inputs":[{"internalType":"uint256","name":"length","type":"uint256"}],"name":"ECDSAInvalidSignatureLength","type":"error"},{"inputs":[{"internalType":"bytes32","name":"s","type":"bytes32"}],"name":"ECDSAInvalidSignatureS","type":"error"},{"inputs":[{"internalType":"address","name":"spender","type":"address"},{"internalType":"uint256","name":"allowance","type":"uint256"},{"internalType":"uint256","name":"needed","type":"uint256"}],"name":"ERC20InsufficientAllowance","type":"error"},{"inputs":[{"internalType":"address","name":"sender","type":"address"},{"internalType":"uint256","name":"balance","type":"uint256"},{"internalType":"uint256","name":"needed","type":"uint256"}],"name":"ERC20InsufficientBalance","type":"error"},{"inputs":[{"internalType":"address","name":"approver","type":"address"}],"name":"ERC20InvalidApprover","type":"error"},{"inputs":[{"internalType":"address","name":"receiver","type":"address"}],"name":"ERC20InvalidReceiver","type":"error"},{"inputs":[{"internalType":"address","name":"sender","type":"address"}],"name":"ERC20InvalidSender","type":"error"},{"inputs":[{"internalType":"address","name":"spender","type":"address"}],"name":"ERC20InvalidSpender","type":"error"},{"inputs":[],"name":"EnforcedPause","type":"error"},{"inputs":[],"name":"ExpectedPause","type":"error"},{"inputs":[{"internalType":"address","name":"owner","type":"address"}],"name":"OwnableInvalidOwner","type":"error"},{"inputs":[{"internalType":"address","name":"account","type":"address"}],"name":"OwnableUnauthorizedAccount","type":"error"},{"inputs":[],"name":"ReentrancyGuardReentrantCall","type":"error"},{"inputs":[{"internalType":"address","name":"token","type":"address"}],"name":"SafeERC20FailedOperation","type":"error"},{"anonymous":false,"inputs":[{"indexed":true,"internalType":"address","name":"owner","type":"address"},{"indexed":true,"internalType":"address","name":"spender","type":"address"},{"indexed":false,"internalType":"uint256","name":"value","type":"uint256"}],"name":"Approval","type":"event"},{"anonymous":false,"inputs":[{"indexed":true,"internalType":"address","name":"buyer","type":"address"}],"name":"DisclaimerAgreed","type":"event"},{"anonymous":false,"inputs":[{"indexed":false,"internalType":"uint256","name":"amount","type":"uint256"},{"indexed":false,"internalType":"address","name":"to","type":"address"}],"name":"ETHWithdrawn","type":"event"},{"anonymous":false,"inputs":[{"indexed":true,"internalType":"address","name":"oldOperator","type":"address"},{"indexed":true,"internalType":"address","name":"newOperator","type":"address"}],"name":"OperatorUpdated","type":"event"},{"anonymous":false,"inputs":[{"indexed":true,"internalType":"address","name":"previousOwner","type":"address"},{"indexed":true,"internalType":"address","name":"newOwner","type":"address"}],"name":"OwnershipTransferred","type":"event"},{"anonymous":false,"inputs":[{"indexed":false,"internalType":"address","name":"account","type":"address"}],"name":"Paused","type":"event"},{"anonymous":false,"inputs":[{"indexed":true,"internalType":"address","name":"buyer","type":"address"},{"indexed":false,"internalType":"uint256","name":"amount","type":"uint256"}],"name":"RefundIssued","type":"event"},{"anonymous":false,"inputs":[],"name":"SaleEndedEarly","type":"event"},{"anonymous":false,"inputs":[{"indexed":false,"internalType":"uint256","name":"tokensForSale","type":"uint256"},{"indexed":false,"internalType":"uint256","name":"tokenPrice","type":"uint256"},{"indexed":false,"internalType":"uint256","name":"targetSellerOwnership","type":"uint256"}],"name":"SaleParametersUpdated","type":"event"},{"anonymous":false,"inputs":[{"indexed":false,"internalType":"address","name":"oldSeller","type":"address"},{"indexed":false,"internalType":"address","name":"newSeller","type":"address"}],"name":"SellerAddressUpdated","type":"event"},{"anonymous":false,"inputs":[{"indexed":true,"internalType":"address","name":"from","type":"address"},{"indexed":true,"internalType":"address","name":"to","type":"address"},{"indexed":false,"internalType":"uint256","name":"amount","type":"uint256"},{"indexed":false,"internalType":"bytes32","name":"buffer","type":"bytes32"}],"name":"SignatureTransfer","type":"event"},{"anonymous":false,"inputs":[{"indexed":false,"internalType":"uint256","name":"additionalTokens","type":"uint256"}],"name":"SupplyIncreased","type":"event"},{"anonymous":false,"inputs":[{"indexed":true,"internalType":"address","name":"buyer","type":"address"},{"indexed":false,"internalType":"uint256","name":"amount","type":"uint256"}],"name":"TokensPurchased","type":"event"},{"anonymous":false,"inputs":[{"indexed":true,"internalType":"address","name":"from","type":"address"},{"indexed":true,"internalType":"address","name":"to","type":"address"},{"indexed":false,"internalType":"uint256","name":"value","type":"uint256"}],"name":"Transfer","type":"event"},{"anonymous":false,"inputs":[{"indexed":false,"internalType":"bool","name":"enabled","type":"bool"}],"name":"TransfersToggled","type":"event"},{"anonymous":false,"inputs":[{"indexed":false,"internalType":"address","name":"account","type":"address"}],"name":"Unpaused","type":"event"},{"anonymous":false,"inputs":[{"indexed":true,"internalType":"address","name":"oldWhimsy","type":"address"},{"indexed":true,"internalType":"address","name":"newWhimsy","type":"address"}],"name":"WhimsyUpdated","type":"event"},{"anonymous":false,"inputs":[{"indexed":false,"internalType":"uint256","name":"amount","type":"uint256"},{"indexed":false,"internalType":"address","name":"to","type":"address"}],"name":"Withdrawn","type":"event"},{"stateMutability":"payable","type":"fallback"},{"inputs":[],"name":"AGREEMENT_TIMEOUT","outputs":[{"internalType":"uint256","name":"","type":"uint256"}],"stateMutability":"view","type":"function"},{"inputs":[],"name":"MAX_BUYER_PERCENT","outputs":[{"internalType":"uint8","name":"","type":"uint8"}],"stateMutability":"view","type":"function"},{"inputs":[],"name":"MAX_SELLER_PERCENT","outputs":[{"internalType":"uint8","name":"","type":"uint8"}],"stateMutability":"view","type":"function"},{"inputs":[],"name":"MIN_SELLER_PERCENT","outputs":[{"internalType":"uint8","name":"","type":"uint8"}],"stateMutability":"view","type":"function"},{"inputs":[],"name":"PERCENT_BASE","outputs":[{"internalType":"uint8","name":"","type":"uint8"}],"stateMutability":"view","type":"function"},{"inputs":[],"name":"SELLER_ALLOCATION_PERCENT","outputs":[{"internalType":"uint8","name":"","type":"uint8"}],"stateMutability":"view","type":"function"},{"inputs":[],"name":"WHIMSY_ALLOCATION_PERCENT","outputs":[{"internalType":"uint8","name":"","type":"uint8"}],"stateMutability":"view","type":"function"},{"inputs":[{"internalType":"address","name":"buyer","type":"address"}],"name":"agreeDisclaimerFor","outputs":[],"stateMutability":"nonpayable","type":"function"},{"inputs":[{"internalType":"address","name":"owner","type":"address"},{"internalType":"address","name":"spender","type":"address"}],"name":"allowance","outputs":[{"internalType":"uint256","name":"","type":"uint256"}],"stateMutability":"view","type":"function"},{"inputs":[{"internalType":"address","name":"spender","type":"address"},{"internalType":"uint256","name":"value","type":"uint256"}],"name":"approve","outputs":[{"internalType":"bool","name":"","type":"bool"}],"stateMutability":"nonpayable","type":"function"},{"inputs":[{"internalType":"address","name":"account","type":"address"}],"name":"balanceOf","outputs":[{"internalType":"uint256","name":"","type":"uint256"}],"stateMutability":"view","type":"function"},{"inputs":[{"internalType":"bytes32","name":"","type":"bytes32"}],"name":"bufferUsed","outputs":[{"internalType":"bool","name":"","type":"bool"}],"stateMutability":"view","type":"function"},{"inputs":[{"internalType":"address","name":"buyer","type":"address"},{"internalType":"uint256","name":"amount","type":"uint256"}],"name":"buyTokensFor","outputs":[],"stateMutability":"nonpayable","type":"function"},{"inputs":[],"name":"decimals","outputs":[{"internalType":"uint8","name":"","type":"uint8"}],"stateMutability":"view","type":"function"},{"inputs":[],"name":"endSaleEarly","outputs":[],"stateMutability":"nonpayable","type":"function"},{"inputs":[],"name":"factory","outputs":[{"internalType":"address","name":"","type":"address"}],"stateMutability":"view","type":"function"},{"inputs":[{"internalType":"uint256","name":"preMoneyValuation","type":"uint256"}],"name":"getPostMoneyValuation","outputs":[{"internalType":"uint256","name":"","type":"uint256"}],"stateMutability":"view","type":"function"},{"inputs":[],"name":"governanceContract","outputs":[{"internalType":"address","name":"","type":"address"}],"stateMutability":"view","type":"function"},{"inputs":[{"internalType":"address","name":"","type":"address"}],"name":"hasAgreedDisclaimer","outputs":[{"internalType":"bool","name":"","type":"bool"}],"stateMutability":"view","type":"function"},{"inputs":[{"internalType":"uint256","name":"amount","type":"uint256"}],"name":"increaseSupply","outputs":[],"stateMutability":"nonpayable","type":"function"},{"inputs":[],"name":"name","outputs":[{"internalType":"string","name":"","type":"string"}],"stateMutability":"view","type":"function"},{"inputs":[],"name":"operator","outputs":[{"internalType":"address","name":"","type":"address"}],"stateMutability":"view","type":"function"},{"inputs":[{"internalType":"address","name":"from","type":"address"},{"internalType":"address","name":"to","type":"address"},{"internalType":"uint256","name":"amount","type":"uint256"}],"name":"operatorTransfer","outputs":[],"stateMutability":"nonpayable","type":"function"},{"inputs":[],"name":"owner","outputs":[{"internalType":"address","name":"","type":"address"}],"stateMutability":"view","type":"function"},{"inputs":[],"name":"pause","outputs":[],"stateMutability":"nonpayable","type":"function"},{"inputs":[],"name":"paused","outputs":[{"internalType":"bool","name":"","type":"bool"}],"stateMutability":"view","type":"function"},{"inputs":[],"name":"paymentToken","outputs":[{"internalType":"contract IERC20","name":"","type":"address"}],"stateMutability":"view","type":"function"},{"inputs":[],"name":"paymentTokenDecimals","outputs":[{"internalType":"uint8","name":"","type":"uint8"}],"stateMutability":"view","type":"function"},{"inputs":[{"internalType":"address","name":"","type":"address"}],"name":"pendingReservations","outputs":[{"internalType":"uint256","name":"amount","type":"uint256"},{"internalType":"uint256","name":"timestamp","type":"uint256"}],"stateMutability":"view","type":"function"},{"inputs":[{"internalType":"address","name":"buyer","type":"address"}],"name":"refundUnagreedBuyer","outputs":[],"stateMutability":"nonpayable","type":"function"},{"inputs":[],"name":"renounceOwnership","outputs":[],"stateMutability":"nonpayable","type":"function"},{"inputs":[],"name":"requireSignatureOnTransfer","outputs":[{"internalType":"bool","name":"","type":"bool"}],"stateMutability":"view","type":"function"},{"inputs":[{"internalType":"address","name":"buyer","type":"address"},{"internalType":"uint256","name":"amount","type":"uint256"}],"name":"reserveTokensFor","outputs":[],"stateMutability":"nonpayable","type":"function"},{"inputs":[],"name":"saleEnded","outputs":[{"internalType":"bool","name":"","type":"bool"}],"stateMutability":"view","type":"function"},{"inputs":[],"name":"saleSupplySnapshot","outputs":[{"internalType":"uint256","name":"","type":"uint256"}],"stateMutability":"view","type":"function"},{"inputs":[],"name":"seller","outputs":[{"internalType":"address","name":"","type":"address"}],"stateMutability":"view","type":"function"},{"inputs":[{"internalType":"address","name":"_factory","type":"address"}],"name":"setFactory","outputs":[],"stateMutability":"nonpayable","type":"function"},{"inputs":[{"internalType":"address","name":"newOperator","type":"address"}],"name":"setOperator","outputs":[],"stateMutability":"nonpayable","type":"function"},{"inputs":[{"internalType":"bool","name":"on","type":"bool"}],"name":"setRequireSignatureOnTransfer","outputs":[],"stateMutability":"nonpayable","type":"function"},{"inputs":[{"internalType":"uint256","name":"_tokensForSale","type":"uint256"},{"internalType":"uint256","name":"_tokenPrice","type":"uint256"},{"internalType":"uint256","name":"_targetSellerOwnership","type":"uint256"}],"name":"setSaleParameters","outputs":[],"stateMutability":"nonpayable","type":"function"},{"inputs":[{"internalType":"address","name":"assignedSigner","type":"address"}],"name":"setSigner","outputs":[],"stateMutability":"nonpayable","type":"function"},{"inputs":[{"internalType":"address","name":"newWhimsy","type":"address"}],"name":"setWhimsy","outputs":[],"stateMutability":"nonpayable","type":"function"},{"inputs":[{"internalType":"bytes32","name":"buffer","type":"bytes32"},{"internalType":"bytes","name":"sig","type":"bytes"},{"internalType":"address","name":"to","type":"address"},{"internalType":"uint256","name":"amount","type":"uint256"}],"name":"signatureTransfer","outputs":[{"internalType":"bool","name":"","type":"bool"}],"stateMutability":"nonpayable","type":"function"},{"inputs":[],"name":"symbol","outputs":[{"internalType":"string","name":"","type":"string"}],"stateMutability":"view","type":"function"},{"inputs":[],"name":"targetSellerOwnership","outputs":[{"internalType":"uint256","name":"","type":"uint256"}],"stateMutability":"view","type":"function"},{"inputs":[{"internalType":"bool","name":"enabled","type":"bool"}],"name":"toggleTransfers","outputs":[],"stateMutability":"nonpayable","type":"function"},{"inputs":[],"name":"tokenPrice","outputs":[{"internalType":"uint256","name":"","type":"uint256"}],"stateMutability":"view","type":"function"},{"inputs":[],"name":"tokensForSale","outputs":[{"internalType":"uint256","name":"","type":"uint256"}],"stateMutability":"view","type":"function"},{"inputs":[],"name":"totalRaised","outputs":[{"internalType":"uint256","name":"","type":"uint256"}],"stateMutability":"view","type":"function"},{"inputs":[],"name":"totalReserved","outputs":[{"internalType":"uint256","name":"","type":"uint256"}],"stateMutability":"view","type":"function"},{"inputs":[],"name":"totalSupply","outputs":[{"internalType":"uint256","name":"","type":"uint256"}],"stateMutability":"view","type":"function"},{"inputs":[{"internalType":"address","name":"to","type":"address"},{"internalType":"uint256","name":"amount","type":"uint256"}],"name":"transfer","outputs":[{"internalType":"bool","name":"","type":"bool"}],"stateMutability":"nonpayable","type":"function"},{"inputs":[{"internalType":"address","name":"from","type":"address"},{"internalType":"address","name":"to","type":"address"},{"internalType":"uint256","name":"amount","type":"uint256"}],"name":"transferFrom","outputs":[{"internalType":"bool","name":"","type":"bool"}],"stateMutability":"nonpayable","type":"function"},{"inputs":[{"internalType":"address","name":"newOwner","type":"address"}],"name":"transferOwnership","outputs":[],"stateMutability":"nonpayable","type":"function"},{"inputs":[],"name":"transfersEnabled","outputs":[{"internalType":"bool","name":"","type":"bool"}],"stateMutability":"view","type":"function"},{"inputs":[],"name":"unpause","outputs":[],"stateMutability":"nonpayable","type":"function"},{"inputs":[{"internalType":"address","name":"newSeller","type":"address"}],"name":"updateSellerAddress","outputs":[],"stateMutability":"nonpayable","type":"function"},{"inputs":[],"name":"whimsy","outputs":[{"internalType":"address","name":"","type":"address"}],"stateMutability":"view","type":"function"},{"inputs":[],"name":"withdrawETH","outputs":[],"stateMutability":"nonpayable","type":"function"},{"inputs":[],"name":"withdrawPayment","outputs":[],"stateMutability":"nonpayable","type":"function"},{"stateMutability":"payable","type":"receive"}],"evm":{"bytecode":{"linkReferences":{},"object":"60a06040526007805461ff001916610100179055600d805461ffff60a01b1916600160a81b1790553480156200003457600080fd5b5060405162003a2238038062003a228339810160408190526200005791620007b8565b828888600362000068838262000917565b50600462000077828262000917565b5050506001600160a01b038116620000aa57604051631e4fbdf760e01b8152600060048201526024015b60405180910390fd5b620000b581620002d9565b5060016006556007805460ff191690556001600160a01b0385166200010e5760405162461bcd60e51b815260206004820152600e60248201526d24b73b30b634b21039b2b63632b960911b6044820152606401620000a1565b6001600160a01b038416620001575760405162461bcd60e51b815260206004820152600e60248201526d496e76616c6964207768696d737960901b6044820152606401620000a1565b6001600160a01b038216620001af5760405162461bcd60e51b815260206004820152601460248201527f496e76616c6964207061796d656e74546f6b656e0000000000000000000000006044820152606401620000a1565b600d80546001600160a01b038087166001600160a01b03199283161790925560098054888416908316179055600b8054868416908316179055838216608081905260148054938516939092169290921790556040805163313ce56760e01b8152905163313ce567916004818101926020929091908290030181865afa1580156200023d573d6000803e3d6000fd5b505050506040513d601f19601f82011682018060405250810190620002639190620009e3565b6014805460ff92909216600160a01b0260ff60a01b19909216919091179055600060646200029360038962000a25565b6200029f919062000a45565b90506000620002af828962000a68565b9050620002bd87826200032b565b620002c986836200032b565b5050505050505050505062000a94565b600580546001600160a01b038381166001600160a01b0319831681179093556040519116919082907f8be0079c531659141344cd1fd0a4f28419497f9722a3daafe3b4186f6b6457e090600090a35050565b6001600160a01b038216620003575760405163ec442f0560e01b815260006004820152602401620000a1565b620003656000838362000369565b5050565b6200037683838362000388565b62000383838383620005a3565b505050565b600d54600160a81b900460ff1680620003a857506001600160a01b038316155b80620003bb57506001600160a01b038216155b620004095760405162461bcd60e51b815260206004820152601660248201527f5472616e7366657273206172652064697361626c6564000000000000000000006044820152606401620000a1565b6001600160a01b038316158015906200042a57506001600160a01b03821615155b1562000383576009546001600160a01b0390811690841603620004d3576009546001600160a01b03166000908152602081905260408120546200046f90839062000a68565b9050601054811015620004d15760405162461bcd60e51b8152602060048201526024808201527f53656c6c6572206d7573742072657461696e206d696e696d756d206f776e65726044820152630736869760e41b6064820152608401620000a1565b505b6009546001600160a01b0383811691161462000383576000601354600014620004ff5760135462000503565b6002545b9050606462000514600f8362000a25565b62000520919062000a45565b8262000541856001600160a01b031660009081526020819052604090205490565b6200054d919062000a7e565b11156200059d5760405162461bcd60e51b815260206004820152601560248201527f42757965722065786365656473203135252063617000000000000000000000006044820152606401620000a1565b50505050565b6001600160a01b038316620005d2578060026000828254620005c6919062000a7e565b90915550620006469050565b6001600160a01b03831660009081526020819052604090205481811015620006275760405163391434e360e21b81526001600160a01b03851660048201526024810182905260448101839052606401620000a1565b6001600160a01b03841660009081526020819052604090209082900390555b6001600160a01b038216620006645760028054829003905562000683565b6001600160a01b03821660009081526020819052604090208054820190555b816001600160a01b0316836001600160a01b03167fddf252ad1be2c89b69c2b068fc378daa952ba7f163c4a11628f55a4df523b3ef83604051620006c991815260200190565b60405180910390a3505050565b634e487b7160e01b600052604160045260246000fd5b600082601f830112620006fe57600080fd5b81516001600160401b03808211156200071b576200071b620006d6565b604051601f8301601f19908116603f01168101908282118183101715620007465762000746620006d6565b816040528381526020925086838588010111156200076357600080fd5b600091505b8382101562000787578582018301518183018401529082019062000768565b600093810190920192909252949350505050565b80516001600160a01b0381168114620007b357600080fd5b919050565b600080600080600080600080610100898b031215620007d657600080fd5b88516001600160401b0380821115620007ee57600080fd5b620007fc8c838d01620006ec565b995060208b01519150808211156200081357600080fd5b50620008228b828c01620006ec565b975050604089015195506200083a60608a016200079b565b94506200084a60808a016200079b565b93506200085a60a08a016200079b565b92506200086a60c08a016200079b565b91506200087a60e08a016200079b565b90509295985092959890939650565b600181811c908216806200089e57607f821691505b602082108103620008bf57634e487b7160e01b600052602260045260246000fd5b50919050565b601f8211156200038357600081815260208120601f850160051c81016020861015620008ee5750805b601f850160051c820191505b818110156200090f57828155600101620008fa565b505050505050565b81516001600160401b03811115620009335762000933620006d6565b6200094b8162000944845462000889565b84620008c5565b602080601f8311600181146200098357600084156200096a5750858301515b600019600386901b1c1916600185901b1785556200090f565b600085815260208120601f198616915b82811015620009b45788860151825594840194600190910190840162000993565b5085821015620009d35787850151600019600388901b60f8161c191681555b5050505050600190811b01905550565b600060208284031215620009f657600080fd5b815160ff8116811462000a0857600080fd5b9392505050565b634e487b7160e01b600052601160045260246000fd5b808202811582820484141762000a3f5762000a3f62000a0f565b92915050565b60008262000a6357634e487b7160e01b600052601260045260246000fd5b500490565b8181038181111562000a3f5762000a3f62000a0f565b8082018082111562000a3f5762000a3f62000a0f565b608051612f4f62000ad3600039600081816104b601528181610d7601528181611329015281816116680152818161173801526118fa0152612f4f6000f3fe6080604052600436106102da5760003560e01c80637b239e221161017c578063b91f6f0e116100d2578063b91f6f0e146108a9578063b921e163146108be578063bb979d62146108de578063bbd30fb9146108f4578063bef97c8714610914578063c157c5ff14610935578063c421d18f1461094a578063c45a01551461096a578063c5c4744c1461098a578063c71b0e1c146109a0578063d5cf7cfe146109b6578063dd62ed3e146109cb578063e086e5ec146109eb578063e249b7ce14610a00578063f2fde38b14610a2057610300565b80637b239e22146107105780637d6c8c00146107255780637ff9b59614610755578063805d835d1461076b5780638456cb59146107805780638da5cb5b146107955780638f52f0f9146107aa57806393634c0a146107bf57806395d89b41146107de5780639b8906ae146107f3578063a118babd14610814578063a9059cbb14610829578063b172b22214610849578063b2826b9114610869578063b3ab15fb1461088957610300565b80633f4ba83a116102315780633f4ba83a14610520578063490deb3d14610535578063570ca7351461057e57806358bcc4fb1461059e5780635bb47808146105ce5780635c975abb146105ee578063624b233d14610606578063685041581461061b578063685dab8f1461063b5780636add3bdb1461065b5780636c19e7831461067b57806370a082311461069b578063712daa75146106bb578063715018a6146106db57806374faa74b146106f057610300565b8062267f9a1461031857806306fdde031461034257806308551a5314610364578063095ea7b3146103915780630d1af103146103c157806312aef8c3146103e357806315482ce1146103f957806316314a691461040f57806318160ddd1461042f5780631df374921461044457806323b872dd146104645780632b319a8f146104845780633013ce29146104a4578063313ce567146104d8578063325cd796146104ff57610300565b366103005760405162461bcd60e51b81526004016102f7906129fe565b60405180910390fd5b60405162461bcd60e51b81526004016102f7906129fe565b34801561032457600080fd5b5061032f6206978081565b6040519081526020015b60405180910390f35b34801561034e57600080fd5b50610357610a40565b6040516103399190612a28565b34801561037057600080fd5b50600954610384906001600160a01b031681565b6040516103399190612a76565b34801561039d57600080fd5b506103b16103ac366004612aa6565b610ad2565b6040519015158152602001610339565b3480156103cd57600080fd5b506103e16103dc366004612ad0565b610aec565b005b3480156103ef57600080fd5b5061032f600f5481565b34801561040557600080fd5b5061032f60135481565b34801561041b57600080fd5b50600d54610384906001600160a01b031681565b34801561043b57600080fd5b5060025461032f565b34801561045057600080fd5b506103e161045f366004612b0c565b610bce565b34801561047057600080fd5b506103b161047f366004612ad0565b610dec565b34801561049057600080fd5b5061032f61049f366004612b27565b610e2a565b3480156104b057600080fd5b506103847f000000000000000000000000000000000000000000000000000000000000000081565b3480156104e457600080fd5b506104ed610e3a565b60405160ff9091168152602001610339565b34801561050b57600080fd5b506014546104ed90600160a01b900460ff1681565b34801561052c57600080fd5b506103e1610e4a565b34801561054157600080fd5b50610569610550366004612b0c565b6016602052600090815260409020805460019091015482565b60408051928352602083019190915201610339565b34801561058a57600080fd5b50600a54610384906001600160a01b031681565b3480156105aa57600080fd5b506103b16105b9366004612b27565b60086020526000908152604090205460ff1681565b3480156105da57600080fd5b506103e16105e9366004612b0c565b610e5c565b3480156105fa57600080fd5b5060075460ff166103b1565b34801561061257600080fd5b506104ed601e81565b34801561062757600080fd5b506103e1610636366004612b40565b610edc565b34801561064757600080fd5b506103e1610656366004612b0c565b610f3c565b34801561066757600080fd5b506103e1610676366004612b0c565b610ff4565b34801561068757600080fd5b506103e1610696366004612b0c565b61106a565b3480156106a757600080fd5b5061032f6106b6366004612b0c565b6110ea565b3480156106c757600080fd5b506103e16106d6366004612aa6565b611105565b3480156106e757600080fd5b506103e16113eb565b3480156106fc57600080fd5b506103e161070b366004612b0c565b6113fd565b34801561071c57600080fd5b506104ed600a81565b34801561073157600080fd5b506103b1610740366004612b0c565b60156020526000908152604090205460ff1681565b34801561076157600080fd5b5061032f600e5481565b34801561077757600080fd5b506104ed606481565b34801561078c57600080fd5b506103e16114a9565b3480156107a157600080fd5b506103846114b9565b3480156107b657600080fd5b506103e16114c8565b3480156107cb57600080fd5b506007546103b190610100900460ff1681565b3480156107ea57600080fd5b5061035761156a565b3480156107ff57600080fd5b50600d546103b190600160a01b900460ff1681565b34801561082057600080fd5b506103e1611579565b34801561083557600080fd5b506103b1610844366004612aa6565b6117b1565b34801561085557600080fd5b50600c54610384906001600160a01b031681565b34801561087557600080fd5b506103e1610884366004612aa6565b6117ed565b34801561089557600080fd5b506103e16108a4366004612b0c565b611975565b3480156108b557600080fd5b506104ed600381565b3480156108ca57600080fd5b506103e16108d9366004612b27565b611a12565b3480156108ea57600080fd5b5061032f60105481565b34801561090057600080fd5b506103e161090f366004612b40565b611aa9565b34801561092057600080fd5b50600d546103b190600160a81b900460ff1681565b34801561094157600080fd5b506104ed611acb565b34801561095657600080fd5b506103b1610965366004612b62565b611ada565b34801561097657600080fd5b50600b54610384906001600160a01b031681565b34801561099657600080fd5b5061032f60115481565b3480156109ac57600080fd5b5061032f60125481565b3480156109c257600080fd5b506104ed600f81565b3480156109d757600080fd5b5061032f6109e6366004612bf7565b611cd6565b3480156109f757600080fd5b506103e1611d01565b348015610a0c57600080fd5b506103e1610a1b366004612c2a565b611e2e565b348015610a2c57600080fd5b506103e1610a3b366004612b0c565b61204f565b606060038054610a4f90612c56565b80601f0160208091040260200160405190810160405280929190818152602001828054610a7b90612c56565b8015610ac85780601f10610a9d57610100808354040283529160200191610ac8565b820191906000526020600020905b815481529060010190602001808311610aab57829003601f168201915b5050505050905090565b600033610ae081858561208a565b60019150505b92915050565b610af4612097565b610afc6120c9565b6001600160a01b038316610b5e5760405162461bcd60e51b815260206004820152602360248201527f6f70657261746f725472616e736665723a2066726f6d207a65726f206164647260448201526265737360e81b60648201526084016102f7565b6001600160a01b038216610bbe5760405162461bcd60e51b815260206004820152602160248201527f6f70657261746f725472616e736665723a20746f207a65726f206164647265736044820152607360f81b60648201526084016102f7565b610bc98383836120ed565b505050565b610bd6612097565b610bde6120c9565b610be661214c565b6001600160a01b0381166000908152601660209081526040918290208251808401909352805480845260019091015491830191909152610c595760405162461bcd60e51b815260206004820152600e60248201526d2737903932b9b2b93b30ba34b7b760911b60448201526064016102f7565b6001600160a01b03821660009081526015602052604090205460ff1615610cb35760405162461bcd60e51b815260206004820152600e60248201526d105b1c9958591e481859dc99595960921b60448201526064016102f7565b620697808160200151610cc69190612ca6565b421015610d015760405162461bcd60e51b8152602060048201526009602482015268546f6f206561726c7960b81b60448201526064016102f7565b805160128054600090610d15908490612cb9565b90915550506001600160a01b0382166000908152601660205260408120818155600101819055610d43610e3a565b610d4e90600a612db0565b600e548351610d5d9190612dbf565b610d679190612dd6565b9050610d9d6001600160a01b037f0000000000000000000000000000000000000000000000000000000000000000168483612176565b81516040519081526001600160a01b038416907fa171b6942063c6f2800ce40a780edce37baa2b618571b11eedd1e69e626e7d769060200160405180910390a25050610de96001600655565b50565b600754600090610100900460ff1615610e175760405162461bcd60e51b81526004016102f790612df8565b610e228484846121d5565b949350505050565b600060115482610ae69190612ca6565b601454600160a01b900460ff1690565b610e52612097565b610e5a6121f9565b565b610e64612097565b6001600160a01b038116610eba5760405162461bcd60e51b815260206004820152601e60248201527f466163746f72792063616e6e6f74206265207a65726f2061646472657373000060448201526064016102f7565b600b80546001600160a01b0319166001600160a01b0392909216919091179055565b610ee4612097565b600d8054821515600160a81b0260ff60a81b199091161790556040517fe1965432af4c9923f6ebb98f1721262967cfa6178008742d23041dc8ee74ee8f90610f3190831515815260200190565b60405180910390a150565b610f44612097565b6001600160a01b038116610f8b5760405162461bcd60e51b815260206004820152600e60248201526d24b73b30b634b21039b2b63632b960911b60448201526064016102f7565b600954604080516001600160a01b03928316815291831660208301527fd08dbba23a735d81eaf53ac5ede2c722bb186e9d3d46b62842853f0d017c2212910160405180910390a1600980546001600160a01b0319166001600160a01b0392909216919091179055565b600b546001600160a01b0316331461101e5760405162461bcd60e51b81526004016102f790612e2b565b6001600160a01b038116600081815260156020526040808220805460ff19166001179055517fec25952115d724de7fec274999c9cbe0cff9898f9f5128eaa42bd599138462a19190a250565b611072612097565b6001600160a01b0381166110c85760405162461bcd60e51b815260206004820152601d60248201527f5369676e65722063616e6e6f74206265207a65726f206164647265737300000060448201526064016102f7565b601480546001600160a01b0319166001600160a01b0392909216919091179055565b6001600160a01b031660009081526020819052604090205490565b61110d61214c565b6111156120c9565b600b546001600160a01b0316331461113f5760405162461bcd60e51b81526004016102f790612e2b565b600d54600160a01b900460ff161561118a5760405162461bcd60e51b815260206004820152600e60248201526d14d85b19481a185cc8195b99195960921b60448201526064016102f7565b6001600160a01b03821660009081526015602052604090205460ff166111e35760405162461bcd60e51b815260206004820152600e60248201526d111a5cd8db185a5b48199a5c9cdd60921b60448201526064016102f7565b600081116112035760405162461bcd60e51b81526004016102f790612e51565b600061120d610e3a565b61121890600a612db0565b600e546112259084612dbf565b61122f9190612dd6565b6001600160a01b038416600090815260166020908152604091829020825180840190935280548084526001909101549183019190915291925090156112ed57805183146112b25760405162461bcd60e51b8152602060048201526011602482015270135d5cdd08189d5e481c995cd95c9d9959607a1b60448201526064016102f7565b82601260008282546112c49190612cb9565b90915550506001600160a01b038416600090815260166020526040812081815560010155611351565b601254600f546112fd9190612cb9565b83111561131c5760405162461bcd60e51b81526004016102f790612e73565b6113516001600160a01b037f000000000000000000000000000000000000000000000000000000000000000016853085612245565b82600f60008282546113639190612cb9565b92505081905550816011600082825461137c9190612ca6565b9091555050600954611398906001600160a01b031685856120ed565b836001600160a01b03167f8f28852646c20cc973d3a8218f7eefed58c25c909f78f0265af4818c3d4dc271846040516113d391815260200190565b60405180910390a250506113e76001600655565b5050565b6113f3612097565b610e5a6000612284565b611405612097565b6001600160a01b03811661144d5760405162461bcd60e51b815260206004820152600f60248201526e496e76616c6964206164647265737360881b60448201526064016102f7565b600d546040516001600160a01b038084169216907fb27a84474703ce30a05e600606fa29dbcfb1671aa7363e45dbf0f1b78f3ee11690600090a3600d80546001600160a01b0319166001600160a01b0392909216919091179055565b6114b1612097565b610e5a6122d6565b6005546001600160a01b031690565b6114d0612097565b6114d86120c9565b600d54600160a01b900460ff16156115275760405162461bcd60e51b815260206004820152601260248201527114d85b1948185b1c9958591e48195b99195960721b60448201526064016102f7565b600d805460ff60a01b1916600160a01b1790556000600f8190556040517f7910379dd0db65208b77494ac6a3acca01262c78703f044e0abb7e4386a0bcbe9190a1565b606060048054610a4f90612c56565b61158161214c565b6115896120c9565b6115916114b9565b6001600160a01b0316336001600160a01b031614806115ba5750600a546001600160a01b031633145b6115f75760405162461bcd60e51b815260206004820152600e60248201526d139bdd08185d5d1a1bdc9a5e995960921b60448201526064016102f7565b600d54600160a01b900460ff1661164e5760405162461bcd60e51b815260206004820152601b60248201527a43616e6e6f7420776974686472617720647572696e672073616c6560281b60448201526064016102f7565b6040516370a0823160e01b81526000906001600160a01b037f000000000000000000000000000000000000000000000000000000000000000016906370a082319061169d903090600401612a76565b602060405180830381865afa1580156116ba573d6000803e3d6000fd5b505050506040513d601f19601f820116820180604052508101906116de9190612e99565b9050600081116117275760405162461bcd60e51b81526020600482015260146024820152734e6f2066756e647320746f20776974686472617760601b60448201526064016102f7565b600954611761906001600160a01b037f00000000000000000000000000000000000000000000000000000000000000008116911683612176565b6009546040517f8c7cdad0d12a8db3e23561b42da6f10c8137914c97beff202213a410e1f520a39161179e9184916001600160a01b031690612eb2565b60405180910390a150610e5a6001600655565b600754600090610100900460ff16156117dc5760405162461bcd60e51b81526004016102f790612df8565b6117e68383612313565b9392505050565b600b546001600160a01b031633146118175760405162461bcd60e51b81526004016102f790612e2b565b600081116118375760405162461bcd60e51b81526004016102f790612e51565b6001600160a01b038216600090815260166020526040902054156118905760405162461bcd60e51b815260206004820152601060248201526f105b1c9958591e481c995cd95c9d995960821b60448201526064016102f7565b601254600f546118a09190612cb9565b8111156118bf5760405162461bcd60e51b81526004016102f790612e73565b60006118c9610e3a565b6118d490600a612db0565b600e546118e19084612dbf565b6118eb9190612dd6565b90506119226001600160a01b037f000000000000000000000000000000000000000000000000000000000000000016843084612245565b6040805180820182528381524260208083019182526001600160a01b0387166000908152601690915292832091518255516001909101556012805484929061196b908490612ca6565b9091555050505050565b61197d612097565b6001600160a01b0381166119c65760405162461bcd60e51b815260206004820152601060248201526f24b73b30b634b21037b832b930ba37b960811b60448201526064016102f7565b600a80546001600160a01b0319166001600160a01b03831690811790915560405181907ffbe5b6cbafb274f445d7fed869dc77a838d8243a22c460de156560e8857cad0390600090a350565b611a1a612097565b600f5415611a635760405162461bcd60e51b815260206004820152601660248201527543616e2774206d696e7420647572696e672073616c6560501b60448201526064016102f7565b600954611a79906001600160a01b031682612321565b6040518181527f359675c23a13743cf846e03b084a0b1fd129ffa3404dbdd936effd23fb97aa9d90602001610f31565b611ab1612097565b600780549115156101000261ff0019909216919091179055565b611ad760036064612ec9565b81565b6000611ae46120c9565b60008681526008602052604090205460ff1615611b335760405162461bcd60e51b815260206004820152600d60248201526c427566666572207265706c617960981b60448201526064016102f7565b6000868152600860209081526040808320805460ff1916600117905551611b8b91899133918891889101938452606092831b6001600160601b031990811660208601529190921b166034830152604882015260680190565b6040516020818303038152906040528051906020012090506000611bdc827f19457468657265756d205369676e6564204d6573736167653a0a3332000000006000908152601c91909152603c902090565b90506000611c2288888080601f01602080910402602001604051908101604052809392919081815260200183838082843760009201919091525086939250506123579050565b6014549091506001600160a01b03808316911614611c765760405162461bcd60e51b8152602060048201526011602482015270496e76616c6964207369676e617475726560781b60448201526064016102f7565b611c813387876120ed565b60408051868152602081018b90526001600160a01b0388169133917fa50cbf27035f35522914ccdb748ac5870b90728775602ff8e87ab35817157f08910160405180910390a350600198975050505050505050565b6001600160a01b03918216600090815260016020908152604080832093909416825291909152205490565b611d09612097565b4780611d4c5760405162461bcd60e51b81526020600482015260126024820152714e6f2045544820746f20776974686472617760701b60448201526064016102f7565b6009546040516000916001600160a01b03169083908381818185875af1925050503d8060008114611d99576040519150601f19603f3d011682016040523d82523d6000602084013e611d9e565b606091505b5050905080611de55760405162461bcd60e51b8152602060048201526013602482015272115512081d1c985b9cd9995c8819985a5b1959606a1b60448201526064016102f7565b6009546040517f6148672a948a12b8e0bf92a9338349b9ac890fad62a234abaf0a4da99f62cfcc91611e229185916001600160a01b031690612eb2565b60405180910390a15050565b611e36612097565b611e3e6120c9565b60008211611e805760405162461bcd60e51b815260206004820152600f60248201526e0546f6b656e207072696365203e203608c1b60448201526064016102f7565b6000611e8b60025490565b601381905590506064611e9f600a83612dbf565b611ea99190612dd6565b821015611ee85760405162461bcd60e51b815260206004820152600d60248201526c546172676574203e3d2031302560981b60448201526064016102f7565b6064611ef5601e83612dbf565b611eff9190612dd6565b821115611f3e5760405162461bcd60e51b815260206004820152600d60248201526c546172676574203c3d2033302560981b60448201526064016102f7565b6009548490611f55906001600160a01b03166110ea565b1015611f945760405162461bcd60e51b815260206004820152600e60248201526d53656c6c65722062616c206c6f7760901b60448201526064016102f7565b60095482908590611fad906001600160a01b03166110ea565b611fb79190612cb9565b14611ff95760405162461bcd60e51b8152602060048201526012602482015271109859081cd85b194bdd19dd081cdc1b1a5d60721b60448201526064016102f7565b600f849055600e839055601082905560408051858152602081018590529081018390527f4d012a69148885509f5eb0377244099c968f990db1f853707b9d8e3fea20f7b99060600160405180910390a150505050565b612057612097565b6001600160a01b038116612081576000604051631e4fbdf760e01b81526004016102f79190612a76565b610de981612284565b610bc98383836001612381565b336120a06114b9565b6001600160a01b031614610e5a573360405163118cdaa760e01b81526004016102f79190612a76565b60075460ff1615610e5a5760405163d93c066560e01b815260040160405180910390fd5b6001600160a01b038316612117576000604051634b637e8f60e11b81526004016102f79190612a76565b6001600160a01b03821661214157600060405163ec442f0560e01b81526004016102f79190612a76565b610bc9838383612456565b60026006540361216f57604051633ee5aeb560e01b815260040160405180910390fd5b6002600655565b6040516001600160a01b03838116602483015260448201839052610bc991859182169063a9059cbb906064015b604051602081830303815290604052915060e01b6020820180516001600160e01b03838183161783525050505061246c565b6000336121e38582856124d4565b6121ee8585856120ed565b506001949350505050565b612201612522565b6007805460ff191690557f5db9ee0a495bf2e6ff9c91a7834c1ba4fdd244a5e8aa4e537bd38aeae4b073aa335b60405161223b9190612a76565b60405180910390a1565b6040516001600160a01b03848116602483015283811660448301526064820183905261227e9186918216906323b872dd906084016121a3565b50505050565b600580546001600160a01b038381166001600160a01b0319831681179093556040519116919082907f8be0079c531659141344cd1fd0a4f28419497f9722a3daafe3b4186f6b6457e090600090a35050565b6122de6120c9565b6007805460ff191660011790557f62e78cea01bee320cd4e420270b5ea74000d11b0c9f74754ebdbfc544b05a25861222e3390565b600033610ae08185856120ed565b6001600160a01b03821661234b57600060405163ec442f0560e01b81526004016102f79190612a76565b6113e760008383612456565b6000806000806123678686612545565b9250925092506123778282612592565b5090949350505050565b6001600160a01b0384166123ab57600060405163e602df0560e01b81526004016102f79190612a76565b6001600160a01b0383166123d5576000604051634a1406b160e11b81526004016102f79190612a76565b6001600160a01b038085166000908152600160209081526040808320938716835292905220829055801561227e57826001600160a01b0316846001600160a01b03167f8c5be1e5ebec7d5bd14f71427d1e84f3dd0314c0f7b2291e5b200ac8c7c3b9258460405161244891815260200190565b60405180910390a350505050565b61246183838361264b565b610bc9838383612822565b600080602060008451602086016000885af18061248f576040513d6000823e3d81fd5b50506000513d915081156124a75780600114156124b4565b6001600160a01b0384163b155b1561227e5783604051635274afe760e01b81526004016102f79190612a76565b60006124e08484611cd6565b905060001981101561227e578181101561251357828183604051637dc7a0d960e11b81526004016102f793929190612ee2565b61227e84848484036000612381565b60075460ff16610e5a57604051638dfc202b60e01b815260040160405180910390fd5b6000806000835160410361257f5760208401516040850151606086015160001a61257188828585612939565b95509550955050505061258b565b50508151600091506002905b9250925092565b60008260038111156125a6576125a6612f03565b036125af575050565b60018260038111156125c3576125c3612f03565b036125e15760405163f645eedf60e01b815260040160405180910390fd5b60028260038111156125f5576125f5612f03565b036126165760405163fce698f760e01b8152600481018290526024016102f7565b600382600381111561262a5761262a612f03565b036113e7576040516335e2f38360e21b8152600481018290526024016102f7565b600d54600160a81b900460ff168061266a57506001600160a01b038316155b8061267c57506001600160a01b038216155b6126c15760405162461bcd60e51b8152602060048201526016602482015275151c985b9cd9995c9cc8185c9948191a5cd8589b195960521b60448201526064016102f7565b6001600160a01b038316158015906126e157506001600160a01b03821615155b15610bc9576009546001600160a01b0390811690841603612782576009546000908290612716906001600160a01b03166110ea565b6127209190612cb9565b90506010548110156127805760405162461bcd60e51b8152602060048201526024808201527f53656c6c6572206d7573742072657461696e206d696e696d756d206f776e65726044820152630736869760e41b60648201526084016102f7565b505b6009546001600160a01b03838116911614610bc95760006013546000146127ab576013546127af565b6002545b905060646127be600f83612dbf565b6127c89190612dd6565b826127d2856110ea565b6127dc9190612ca6565b111561227e5760405162461bcd60e51b8152602060048201526015602482015274042757965722065786365656473203135252063617605c1b60448201526064016102f7565b6001600160a01b03831661284d5780600260008282546128429190612ca6565b909155506128ac9050565b6001600160a01b0383166000908152602081905260409020548181101561288d5783818360405163391434e360e21b81526004016102f793929190612ee2565b6001600160a01b03841660009081526020819052604090209082900390555b6001600160a01b0382166128c8576002805482900390556128e7565b6001600160a01b03821660009081526020819052604090208054820190555b816001600160a01b0316836001600160a01b03167fddf252ad1be2c89b69c2b068fc378daa952ba7f163c4a11628f55a4df523b3ef8360405161292c91815260200190565b60405180910390a3505050565b600080806fa2a8918ca85bafe22016d0b997e4df60600160ff1b0384111561296a57506000915060039050826129f4565b604080516000808252602082018084528a905260ff891692820192909252606081018790526080810186905260019060a0016020604051602081039080840390855afa1580156129be573d6000803e3d6000fd5b5050604051601f1901519150506001600160a01b0381166129ea575060009250600191508290506129f4565b9250600091508190505b9450945094915050565b60208082526010908201526f115512081b9bdd081858d8d95c1d195960821b604082015260600190565b600060208083528351808285015260005b81811015612a5557858101830151858201604001528201612a39565b506000604082860101526040601f19601f8301168501019250505092915050565b6001600160a01b0391909116815260200190565b80356001600160a01b0381168114612aa157600080fd5b919050565b60008060408385031215612ab957600080fd5b612ac283612a8a565b946020939093013593505050565b600080600060608486031215612ae557600080fd5b612aee84612a8a565b9250612afc60208501612a8a565b9150604084013590509250925092565b600060208284031215612b1e57600080fd5b6117e682612a8a565b600060208284031215612b3957600080fd5b5035919050565b600060208284031215612b5257600080fd5b813580151581146117e657600080fd5b600080600080600060808688031215612b7a57600080fd5b85359450602086013567ffffffffffffffff80821115612b9957600080fd5b818801915088601f830112612bad57600080fd5b813581811115612bbc57600080fd5b896020828501011115612bce57600080fd5b602083019650809550505050612be660408701612a8a565b949793965091946060013592915050565b60008060408385031215612c0a57600080fd5b612c1383612a8a565b9150612c2160208401612a8a565b90509250929050565b600080600060608486031215612c3f57600080fd5b505081359360208301359350604090920135919050565b600181811c90821680612c6a57607f821691505b602082108103612c8a57634e487b7160e01b600052602260045260246000fd5b50919050565b634e487b7160e01b600052601160045260246000fd5b80820180821115610ae657610ae6612c90565b81810381811115610ae657610ae6612c90565b600181815b80851115612d07578160001904821115612ced57612ced612c90565b80851615612cfa57918102915b93841c9390800290612cd1565b509250929050565b600082612d1e57506001610ae6565b81612d2b57506000610ae6565b8160018114612d415760028114612d4b57612d67565b6001915050610ae6565b60ff841115612d5c57612d5c612c90565b50506001821b610ae6565b5060208310610133831016604e8410600b8410161715612d8a575081810a610ae6565b612d948383612ccc565b8060001904821115612da857612da8612c90565b029392505050565b60006117e660ff841683612d0f565b8082028115828204841417610ae657610ae6612c90565b600082612df357634e487b7160e01b600052601260045260246000fd5b500490565b602080825260199082015278111a5c9958dd081d1c985b9cd9995c9cc8191a5cd8589b1959603a1b604082015260600190565b6020808252600c908201526b4f6e6c7920666163746f727960a01b604082015260600190565b6020808252600890820152670416d6f756e743e360c41b604082015260600190565b6020808252600c908201526b457863656564732073616c6560a01b604082015260600190565b600060208284031215612eab57600080fd5b5051919050565b9182526001600160a01b0316602082015260400190565b60ff8281168282160390811115610ae657610ae6612c90565b6001600160a01b039390931683526020830191909152604082015260600190565b634e487b7160e01b600052602160045260246000fdfea26469706673582212207db6f9cda1193d221d3997c846c70c1af491db0b638893b29b33730f1948f9ab64736f6c63430008140033","opcodes":"PUSH1 0xA0 PUSH1 0x40 MSTORE PUSH1 0x7 DUP1 SLOAD PUSH2 0xFF00 NOT AND PUSH2 0x100 OR SWAP1 SSTORE PUSH1 0xD DUP1 SLOAD PUSH2 0xFFFF PUSH1 0xA0 SHL NOT AND PUSH1 0x1 PUSH1 0xA8 SHL OR SWAP1 SSTORE CALLVALUE DUP1 ISZERO PUSH3 0x34 JUMPI PUSH1 0x0 DUP1 REVERT JUMPDEST POP PUSH1 0x40 MLOAD PUSH3 0x3A22 CODESIZE SUB DUP1 PUSH3 0x3A22 DUP4 CODECOPY DUP2 ADD PUSH1 0x40 DUP2 SWAP1 MSTORE PUSH3 0x57 SWAP2 PUSH3 0x7B8 JUMP JUMPDEST DUP3 DUP9 DUP9 PUSH1 0x3 PUSH3 0x68 DUP4 DUP3 PUSH3 0x917 JUMP JUMPDEST POP PUSH1 0x4 PUSH3 0x77 DUP3 DUP3 PUSH3 0x917 JUMP JUMPDEST POP POP POP PUSH1 0x1 PUSH1 0x1 PUSH1 0xA0 SHL SUB DUP2 AND PUSH3 0xAA JUMPI PUSH1 0x40 MLOAD PUSH4 0x1E4FBDF7 PUSH1 0xE0 SHL DUP2 MSTORE PUSH1 0x0 PUSH1 0x4 DUP3 ADD MSTORE PUSH1 0x24 ADD JUMPDEST PUSH1 0x40 MLOAD DUP1 SWAP2 SUB SWAP1 REVERT JUMPDEST PUSH3 0xB5 DUP2 PUSH3 0x2D9 JUMP JUMPDEST POP PUSH1 0x1 PUSH1 0x6 SSTORE PUSH1 0x7 DUP1 SLOAD PUSH1 0xFF NOT AND SWAP1 SSTORE PUSH1 0x1 PUSH1 0x1 PUSH1 0xA0 SHL SUB DUP6 AND PUSH3 0x10E JUMPI PUSH1 0x40 MLOAD PUSH3 0x461BCD PUSH1 0xE5 SHL DUP2 MSTORE PUSH1 0x20 PUSH1 0x4 DUP3 ADD MSTORE PUSH1 0xE PUSH1 0x24 DUP3 ADD MSTORE PUSH14 0x24B73B30B634B21039B2B63632B9 PUSH1 0x91 SHL PUSH1 0x44 DUP3 ADD MSTORE PUSH1 0x64 ADD PUSH3 0xA1 JUMP JUMPDEST PUSH1 0x1 PUSH1 0x1 PUSH1 0xA0 SHL SUB DUP5 AND PUSH3 0x157 JUMPI PUSH1 0x40 MLOAD PUSH3 0x461BCD PUSH1 0xE5 SHL DUP2 MSTORE PUSH1 0x20 PUSH1 0x4 DUP3 ADD MSTORE PUSH1 0xE PUSH1 0x24 DUP3 ADD MSTORE PUSH14 0x496E76616C6964207768696D7379 PUSH1 0x90 SHL PUSH1 0x44 DUP3 ADD MSTORE PUSH1 0x64 ADD PUSH3 0xA1 JUMP JUMPDEST PUSH1 0x1 PUSH1 0x1 PUSH1 0xA0 SHL SUB DUP3 AND PUSH3 0x1AF JUMPI PUSH1 0x40 MLOAD PUSH3 0x461BCD PUSH1 0xE5 SHL DUP2 MSTORE PUSH1 0x20 PUSH1 0x4 DUP3 ADD MSTORE PUSH1 0x14 PUSH1 0x24 DUP3 ADD MSTORE PUSH32 0x496E76616C6964207061796D656E74546F6B656E000000000000000000000000 PUSH1 0x44 DUP3 ADD MSTORE PUSH1 0x64 ADD PUSH3 0xA1 JUMP JUMPDEST PUSH1 0xD DUP1 SLOAD PUSH1 0x1 PUSH1 0x1 PUSH1 0xA0 SHL SUB DUP1 DUP8 AND PUSH1 0x1 PUSH1 0x1 PUSH1 0xA0 SHL SUB NOT SWAP3 DUP4 AND OR SWAP1 SWAP3 SSTORE PUSH1 0x9 DUP1 SLOAD DUP9 DUP5 AND SWAP1 DUP4 AND OR SWAP1 SSTORE PUSH1 0xB DUP1 SLOAD DUP7 DUP5 AND SWAP1 DUP4 AND OR SWAP1 SSTORE DUP4 DUP3 AND PUSH1 0x80 DUP2 SWAP1 MSTORE PUSH1 0x14 DUP1 SLOAD SWAP4 DUP6 AND SWAP4 SWAP1 SWAP3 AND SWAP3 SWAP1 SWAP3 OR SWAP1 SSTORE PUSH1 0x40 DUP1 MLOAD PUSH4 0x313CE567 PUSH1 0xE0 SHL DUP2 MSTORE SWAP1 MLOAD PUSH4 0x313CE567 SWAP2 PUSH1 0x4 DUP2 DUP2 ADD SWAP3 PUSH1 0x20 SWAP3 SWAP1 SWAP2 SWAP1 DUP3 SWAP1 SUB ADD DUP2 DUP7 GAS STATICCALL ISZERO DUP1 ISZERO PUSH3 0x23D JUMPI RETURNDATASIZE PUSH1 0x0 DUP1 RETURNDATACOPY RETURNDATASIZE PUSH1 0x0 REVERT JUMPDEST POP POP POP POP PUSH1 0x40 MLOAD RETURNDATASIZE PUSH1 0x1F NOT PUSH1 0x1F DUP3 ADD AND DUP3 ADD DUP1 PUSH1 0x40 MSTORE POP DUP2 ADD SWAP1 PUSH3 0x263 SWAP2 SWAP1 PUSH3 0x9E3 JUMP JUMPDEST PUSH1 0x14 DUP1 SLOAD PUSH1 0xFF SWAP3 SWAP1 SWAP3 AND PUSH1 0x1 PUSH1 0xA0 SHL MUL PUSH1 0xFF PUSH1 0xA0 SHL NOT SWAP1 SWAP3 AND SWAP2 SWAP1 SWAP2 OR SWAP1 SSTORE PUSH1 0x0 PUSH1 0x64 PUSH3 0x293 PUSH1 0x3 DUP10 PUSH3 0xA25 JUMP JUMPDEST PUSH3 0x29F SWAP2 SWAP1 PUSH3 0xA45 JUMP JUMPDEST SWAP1 POP PUSH1 0x0 PUSH3 0x2AF DUP3 DUP10 PUSH3 0xA68 JUMP JUMPDEST SWAP1 POP PUSH3 0x2BD DUP8 DUP3 PUSH3 0x32B JUMP JUMPDEST PUSH3 0x2C9 DUP7 DUP4 PUSH3 0x32B JUMP JUMPDEST POP POP POP POP POP POP POP POP POP POP PUSH3 0xA94 JUMP JUMPDEST PUSH1 0x5 DUP1 SLOAD PUSH1 0x1 PUSH1 0x1 PUSH1 0xA0 SHL SUB DUP4 DUP2 AND PUSH1 0x1 PUSH1 0x1 PUSH1 0xA0 SHL SUB NOT DUP4 AND DUP2 OR SWAP1 SWAP4 SSTORE PUSH1 0x40 MLOAD SWAP2 AND SWAP2 SWAP1 DUP3 SWAP1 PUSH32 0x8BE0079C531659141344CD1FD0A4F28419497F9722A3DAAFE3B4186F6B6457E0 SWAP1 PUSH1 0x0 SWAP1 LOG3 POP POP JUMP JUMPDEST PUSH1 0x1 PUSH1 0x1 PUSH1 0xA0 SHL SUB DUP3 AND PUSH3 0x357 JUMPI PUSH1 0x40 MLOAD PUSH4 0xEC442F05 PUSH1 0xE0 SHL DUP2 MSTORE PUSH1 0x0 PUSH1 0x4 DUP3 ADD MSTORE PUSH1 0x24 ADD PUSH3 0xA1 JUMP JUMPDEST PUSH3 0x365 PUSH1 0x0 DUP4 DUP4 PUSH3 0x369 JUMP JUMPDEST POP POP JUMP JUMPDEST PUSH3 0x376 DUP4 DUP4 DUP4 PUSH3 0x388 JUMP JUMPDEST PUSH3 0x383 DUP4 DUP4 DUP4 PUSH3 0x5A3 JUMP JUMPDEST POP POP POP JUMP JUMPDEST PUSH1 0xD SLOAD PUSH1 0x1 PUSH1 0xA8 SHL SWAP1 DIV PUSH1 0xFF AND DUP1 PUSH3 0x3A8 JUMPI POP PUSH1 0x1 PUSH1 0x1 PUSH1 0xA0 SHL SUB DUP4 AND ISZERO JUMPDEST DUP1 PUSH3 0x3BB JUMPI POP PUSH1 0x1 PUSH1 0x1 PUSH1 0xA0 SHL SUB DUP3 AND ISZERO JUMPDEST PUSH3 0x409 JUMPI PUSH1 0x40 MLOAD PUSH3 0x461BCD PUSH1 0xE5 SHL DUP2 MSTORE PUSH1 0x20 PUSH1 0x4 DUP3 ADD MSTORE PUSH1 0x16 PUSH1 0x24 DUP3 ADD MSTORE PUSH32 0x5472616E7366657273206172652064697361626C656400000000000000000000 PUSH1 0x44 DUP3 ADD MSTORE PUSH1 0x64 ADD PUSH3 0xA1 JUMP JUMPDEST PUSH1 0x1 PUSH1 0x1 PUSH1 0xA0 SHL SUB DUP4 AND ISZERO DUP1 ISZERO SWAP1 PUSH3 0x42A JUMPI POP PUSH1 0x1 PUSH1 0x1 PUSH1 0xA0 SHL SUB DUP3 AND ISZERO ISZERO JUMPDEST ISZERO PUSH3 0x383 JUMPI PUSH1 0x9 SLOAD PUSH1 0x1 PUSH1 0x1 PUSH1 0xA0 SHL SUB SWAP1 DUP2 AND SWAP1 DUP5 AND SUB PUSH3 0x4D3 JUMPI PUSH1 0x9 SLOAD PUSH1 0x1 PUSH1 0x1 PUSH1 0xA0 SHL SUB AND PUSH1 0x0 SWAP1 DUP2 MSTORE PUSH1 0x20 DUP2 SWAP1 MSTORE PUSH1 0x40 DUP2 KECCAK256 SLOAD PUSH3 0x46F SWAP1 DUP4 SWAP1 PUSH3 0xA68 JUMP JUMPDEST SWAP1 POP PUSH1 0x10 SLOAD DUP2 LT ISZERO PUSH3 0x4D1 JUMPI PUSH1 0x40 MLOAD PUSH3 0x461BCD PUSH1 0xE5 SHL DUP2 MSTORE PUSH1 0x20 PUSH1 0x4 DUP3 ADD MSTORE PUSH1 0x24 DUP1 DUP3 ADD MSTORE PUSH32 0x53656C6C6572206D7573742072657461696E206D696E696D756D206F776E6572 PUSH1 0x44 DUP3 ADD MSTORE PUSH4 0x7368697 PUSH1 0xE4 SHL PUSH1 0x64 DUP3 ADD MSTORE PUSH1 0x84 ADD PUSH3 0xA1 JUMP JUMPDEST POP JUMPDEST PUSH1 0x9 SLOAD PUSH1 0x1 PUSH1 0x1 PUSH1 0xA0 SHL SUB DUP4 DUP2 AND SWAP2 AND EQ PUSH3 0x383 JUMPI PUSH1 0x0 PUSH1 0x13 SLOAD PUSH1 0x0 EQ PUSH3 0x4FF JUMPI PUSH1 0x13 SLOAD PUSH3 0x503 JUMP JUMPDEST PUSH1 0x2 SLOAD JUMPDEST SWAP1 POP PUSH1 0x64 PUSH3 0x514 PUSH1 0xF DUP4 PUSH3 0xA25 JUMP JUMPDEST PUSH3 0x520 SWAP2 SWAP1 PUSH3 0xA45 JUMP JUMPDEST DUP3 PUSH3 0x541 DUP6 PUSH1 0x1 PUSH1 0x1 PUSH1 0xA0 SHL SUB AND PUSH1 0x0 SWAP1 DUP2 MSTORE PUSH1 0x20 DUP2 SWAP1 MSTORE PUSH1 0x40 SWAP1 KECCAK256 SLOAD SWAP1 JUMP JUMPDEST PUSH3 0x54D SWAP2 SWAP1 PUSH3 0xA7E JUMP JUMPDEST GT ISZERO PUSH3 0x59D JUMPI PUSH1 0x40 MLOAD PUSH3 0x461BCD PUSH1 0xE5 SHL DUP2 MSTORE PUSH1 0x20 PUSH1 0x4 DUP3 ADD MSTORE PUSH1 0x15 PUSH1 0x24 DUP3 ADD MSTORE PUSH32 0x4275796572206578636565647320313525206361700000000000000000000000 PUSH1 0x44 DUP3 ADD MSTORE PUSH1 0x64 ADD PUSH3 0xA1 JUMP JUMPDEST POP POP POP POP JUMP JUMPDEST PUSH1 0x1 PUSH1 0x1 PUSH1 0xA0 SHL SUB DUP4 AND PUSH3 0x5D2 JUMPI DUP1 PUSH1 0x2 PUSH1 0x0 DUP3 DUP3 SLOAD PUSH3 0x5C6 SWAP2 SWAP1 PUSH3 0xA7E JUMP JUMPDEST SWAP1 SWAP2 SSTORE POP PUSH3 0x646 SWAP1 POP JUMP JUMPDEST PUSH1 0x1 PUSH1 0x1 PUSH1 0xA0 SHL SUB DUP4 AND PUSH1 0x0 SWAP1 DUP2 MSTORE PUSH1 0x20 DUP2 SWAP1 MSTORE PUSH1 0x40 SWAP1 KECCAK256 SLOAD DUP2 DUP2 LT ISZERO PUSH3 0x627 JUMPI PUSH1 0x40 MLOAD PUSH4 0x391434E3 PUSH1 0xE2 SHL DUP2 MSTORE PUSH1 0x1 PUSH1 0x1 PUSH1 0xA0 SHL SUB DUP6 AND PUSH1 0x4 DUP3 ADD MSTORE PUSH1 0x24 DUP2 ADD DUP3 SWAP1 MSTORE PUSH1 0x44 DUP2 ADD DUP4 SWAP1 MSTORE PUSH1 0x64 ADD PUSH3 0xA1 JUMP JUMPDEST PUSH1 0x1 PUSH1 0x1 PUSH1 0xA0 SHL SUB DUP5 AND PUSH1 0x0 SWAP1 DUP2 MSTORE PUSH1 0x20 DUP2 SWAP1 MSTORE PUSH1 0x40 SWAP1 KECCAK256 SWAP1 DUP3 SWAP1 SUB SWAP1 SSTORE JUMPDEST PUSH1 0x1 PUSH1 0x1 PUSH1 0xA0 SHL SUB DUP3 AND PUSH3 0x664 JUMPI PUSH1 0x2 DUP1 SLOAD DUP3 SWAP1 SUB SWAP1 SSTORE PUSH3 0x683 JUMP JUMPDEST PUSH1 0x1 PUSH1 0x1 PUSH1 0xA0 SHL SUB DUP3 AND PUSH1 0x0 SWAP1 DUP2 MSTORE PUSH1 0x20 DUP2 SWAP1 MSTORE PUSH1 0x40 SWAP1 KECCAK256 DUP1 SLOAD DUP3 ADD SWAP1 SSTORE JUMPDEST DUP2 PUSH1 0x1 PUSH1 0x1 PUSH1 0xA0 SHL SUB AND DUP4 PUSH1 0x1 PUSH1 0x1 PUSH1 0xA0 SHL SUB AND PUSH32 0xDDF252AD1BE2C89B69C2B068FC378DAA952BA7F163C4A11628F55A4DF523B3EF DUP4 PUSH1 0x40 MLOAD PUSH3 0x6C9 SWAP2 DUP2 MSTORE PUSH1 0x20 ADD SWAP1 JUMP JUMPDEST PUSH1 0x40 MLOAD DUP1 SWAP2 SUB SWAP1 LOG3 POP POP POP JUMP JUMPDEST PUSH4 0x4E487B71 PUSH1 0xE0 SHL PUSH1 0x0 MSTORE PUSH1 0x41 PUSH1 0x4 MSTORE PUSH1 0x24 PUSH1 0x0 REVERT JUMPDEST PUSH1 0x0 DUP3 PUSH1 0x1F DUP4 ADD SLT PUSH3 0x6FE JUMPI PUSH1 0x0 DUP1 REVERT JUMPDEST DUP2 MLOAD PUSH1 0x1 PUSH1 0x1 PUSH1 0x40 SHL SUB DUP1 DUP3 GT ISZERO PUSH3 0x71B JUMPI PUSH3 0x71B PUSH3 0x6D6 JUMP JUMPDEST PUSH1 0x40 MLOAD PUSH1 0x1F DUP4 ADD PUSH1 0x1F NOT SWAP1 DUP2 AND PUSH1 0x3F ADD AND DUP2 ADD SWAP1 DUP3 DUP3 GT DUP2 DUP4 LT OR ISZERO PUSH3 0x746 JUMPI PUSH3 0x746 PUSH3 0x6D6 JUMP JUMPDEST DUP2 PUSH1 0x40 MSTORE DUP4 DUP2 MSTORE PUSH1 0x20 SWAP3 POP DUP7 DUP4 DUP6 DUP9 ADD ADD GT ISZERO PUSH3 0x763 JUMPI PUSH1 0x0 DUP1 REVERT JUMPDEST PUSH1 0x0 SWAP2 POP JUMPDEST DUP4 DUP3 LT ISZERO PUSH3 0x787 JUMPI DUP6 DUP3 ADD DUP4 ADD MLOAD DUP2 DUP4 ADD DUP5 ADD MSTORE SWAP1 DUP3 ADD SWAP1 PUSH3 0x768 JUMP JUMPDEST PUSH1 0x0 SWAP4 DUP2 ADD SWAP1 SWAP3 ADD SWAP3 SWAP1 SWAP3 MSTORE SWAP5 SWAP4 POP POP POP POP JUMP JUMPDEST DUP1 MLOAD PUSH1 0x1 PUSH1 0x1 PUSH1 0xA0 SHL SUB DUP2 AND DUP2 EQ PUSH3 0x7B3 JUMPI PUSH1 0x0 DUP1 REVERT JUMPDEST SWAP2 SWAP1 POP JUMP JUMPDEST PUSH1 0x0 DUP1 PUSH1 0x0 DUP1 PUSH1 0x0 DUP1 PUSH1 0x0 DUP1 PUSH2 0x100 DUP10 DUP12 SUB SLT ISZERO PUSH3 0x7D6 JUMPI PUSH1 0x0 DUP1 REVERT JUMPDEST DUP9 MLOAD PUSH1 0x1 PUSH1 0x1 PUSH1 0x40 SHL SUB DUP1 DUP3 GT ISZERO PUSH3 0x7EE JUMPI PUSH1 0x0 DUP1 REVERT JUMPDEST PUSH3 0x7FC DUP13 DUP4 DUP14 ADD PUSH3 0x6EC JUMP JUMPDEST SWAP10 POP PUSH1 0x20 DUP12 ADD MLOAD SWAP2 POP DUP1 DUP3 GT ISZERO PUSH3 0x813 JUMPI PUSH1 0x0 DUP1 REVERT JUMPDEST POP PUSH3 0x822 DUP12 DUP3 DUP13 ADD PUSH3 0x6EC JUMP JUMPDEST SWAP8 POP POP PUSH1 0x40 DUP10 ADD MLOAD SWAP6 POP PUSH3 0x83A PUSH1 0x60 DUP11 ADD PUSH3 0x79B JUMP JUMPDEST SWAP5 POP PUSH3 0x84A PUSH1 0x80 DUP11 ADD PUSH3 0x79B JUMP JUMPDEST SWAP4 POP PUSH3 0x85A PUSH1 0xA0 DUP11 ADD PUSH3 0x79B JUMP JUMPDEST SWAP3 POP PUSH3 0x86A PUSH1 0xC0 DUP11 ADD PUSH3 0x79B JUMP JUMPDEST SWAP2 POP PUSH3 0x87A PUSH1 0xE0 DUP11 ADD PUSH3 0x79B JUMP JUMPDEST SWAP1 POP SWAP3 SWAP6 SWAP9 POP SWAP3 SWAP6 SWAP9 SWAP1 SWAP4 SWAP7 POP JUMP JUMPDEST PUSH1 0x1 DUP2 DUP2 SHR SWAP1 DUP3 AND DUP1 PUSH3 0x89E JUMPI PUSH1 0x7F DUP3 AND SWAP2 POP JUMPDEST PUSH1 0x20 DUP3 LT DUP2 SUB PUSH3 0x8BF JUMPI PUSH4 0x4E487B71 PUSH1 0xE0 SHL PUSH1 0x0 MSTORE PUSH1 0x22 PUSH1 0x4 MSTORE PUSH1 0x24 PUSH1 0x0 REVERT JUMPDEST POP SWAP2 SWAP1 POP JUMP JUMPDEST PUSH1 0x1F DUP3 GT ISZERO PUSH3 0x383 JUMPI PUSH1 0x0 DUP2 DUP2 MSTORE PUSH1 0x20 DUP2 KECCAK256 PUSH1 0x1F DUP6 ADD PUSH1 0x5 SHR DUP2 ADD PUSH1 0x20 DUP7 LT ISZERO PUSH3 0x8EE JUMPI POP DUP1 JUMPDEST PUSH1 0x1F DUP6 ADD PUSH1 0x5 SHR DUP3 ADD SWAP2 POP JUMPDEST DUP2 DUP2 LT ISZERO PUSH3 0x90F JUMPI DUP3 DUP2 SSTORE PUSH1 0x1 ADD PUSH3 0x8FA JUMP JUMPDEST POP POP POP POP POP POP JUMP JUMPDEST DUP2 MLOAD PUSH1 0x1 PUSH1 0x1 PUSH1 0x40 SHL SUB DUP2 GT ISZERO PUSH3 0x933 JUMPI PUSH3 0x933 PUSH3 0x6D6 JUMP JUMPDEST PUSH3 0x94B DUP2 PUSH3 0x944 DUP5 SLOAD PUSH3 0x889 JUMP JUMPDEST DUP5 PUSH3 0x8C5 JUMP JUMPDEST PUSH1 0x20 DUP1 PUSH1 0x1F DUP4 GT PUSH1 0x1 DUP2 EQ PUSH3 0x983 JUMPI PUSH1 0x0 DUP5 ISZERO PUSH3 0x96A JUMPI POP DUP6 DUP4 ADD MLOAD JUMPDEST PUSH1 0x0 NOT PUSH1 0x3 DUP7 SWAP1 SHL SHR NOT AND PUSH1 0x1 DUP6 SWAP1 SHL OR DUP6 SSTORE PUSH3 0x90F JUMP JUMPDEST PUSH1 0x0 DUP6 DUP2 MSTORE PUSH1 0x20 DUP2 KECCAK256 PUSH1 0x1F NOT DUP7 AND SWAP2 JUMPDEST DUP3 DUP2 LT ISZERO PUSH3 0x9B4 JUMPI DUP9 DUP7 ADD MLOAD DUP3 SSTORE SWAP5 DUP5 ADD SWAP5 PUSH1 0x1 SWAP1 SWAP2 ADD SWAP1 DUP5 ADD PUSH3 0x993 JUMP JUMPDEST POP DUP6 DUP3 LT ISZERO PUSH3 0x9D3 JUMPI DUP8 DUP6 ADD MLOAD PUSH1 0x0 NOT PUSH1 0x3 DUP9 SWAP1 SHL PUSH1 0xF8 AND SHR NOT AND DUP2 SSTORE JUMPDEST POP POP POP POP POP PUSH1 0x1 SWAP1 DUP2 SHL ADD SWAP1 SSTORE POP JUMP JUMPDEST PUSH1 0x0 PUSH1 0x20 DUP3 DUP5 SUB SLT ISZERO PUSH3 0x9F6 JUMPI PUSH1 0x0 DUP1 REVERT JUMPDEST DUP2 MLOAD PUSH1 0xFF DUP2 AND DUP2 EQ PUSH3 0xA08 JUMPI PUSH1 0x0 DUP1 REVERT JUMPDEST SWAP4 SWAP3 POP POP POP JUMP JUMPDEST PUSH4 0x4E487B71 PUSH1 0xE0 SHL PUSH1 0x0 MSTORE PUSH1 0x11 PUSH1 0x4 MSTORE PUSH1 0x24 PUSH1 0x0 REVERT JUMPDEST DUP1 DUP3 MUL DUP2 ISZERO DUP3 DUP3 DIV DUP5 EQ OR PUSH3 0xA3F JUMPI PUSH3 0xA3F PUSH3 0xA0F JUMP JUMPDEST SWAP3 SWAP2 POP POP JUMP JUMPDEST PUSH1 0x0 DUP3 PUSH3 0xA63 JUMPI PUSH4 0x4E487B71 PUSH1 0xE0 SHL PUSH1 0x0 MSTORE PUSH1 0x12 PUSH1 0x4 MSTORE PUSH1 0x24 PUSH1 0x0 REVERT JUMPDEST POP DIV SWAP1 JUMP JUMPDEST DUP2 DUP2 SUB DUP2 DUP2 GT ISZERO PUSH3 0xA3F JUMPI PUSH3 0xA3F PUSH3 0xA0F JUMP JUMPDEST DUP1 DUP3 ADD DUP1 DUP3 GT ISZERO PUSH3 0xA3F JUMPI PUSH3 0xA3F PUSH3 0xA0F JUMP JUMPDEST PUSH1 0x80 MLOAD PUSH2 0x2F4F PUSH3 0xAD3 PUSH1 0x0 CODECOPY PUSH1 0x0 DUP2 DUP2 PUSH2 0x4B6 ADD MSTORE DUP2 DUP2 PUSH2 0xD76 ADD MSTORE DUP2 DUP2 PUSH2 0x1329 ADD MSTORE DUP2 DUP2 PUSH2 0x1668 ADD MSTORE DUP2 DUP2 PUSH2 0x1738 ADD MSTORE PUSH2 0x18FA ADD MSTORE PUSH2 0x2F4F PUSH1 0x0 RETURN INVALID PUSH1 0x80 PUSH1 0x40 MSTORE PUSH1 0x4 CALLDATASIZE LT PUSH2 0x2DA JUMPI PUSH1 0x0 CALLDATALOAD PUSH1 0xE0 SHR DUP1 PUSH4 0x7B239E22 GT PUSH2 0x17C JUMPI DUP1 PUSH4 0xB91F6F0E GT PUSH2 0xD2 JUMPI DUP1 PUSH4 0xB91F6F0E EQ PUSH2 0x8A9 JUMPI DUP1 PUSH4 0xB921E163 EQ PUSH2 0x8BE JUMPI DUP1 PUSH4 0xBB979D62 EQ PUSH2 0x8DE JUMPI DUP1 PUSH4 0xBBD30FB9 EQ PUSH2 0x8F4 JUMPI DUP1 PUSH4 0xBEF97C87 EQ PUSH2 0x914 JUMPI DUP1 PUSH4 0xC157C5FF EQ PUSH2 0x935 JUMPI DUP1 PUSH4 0xC421D18F EQ PUSH2 0x94A JUMPI DUP1 PUSH4 0xC45A0155 EQ PUSH2 0x96A JUMPI DUP1 PUSH4 0xC5C4744C EQ PUSH2 0x98A JUMPI DUP1 PUSH4 0xC71B0E1C EQ PUSH2 0x9A0 JUMPI DUP1 PUSH4 0xD5CF7CFE EQ PUSH2 0x9B6 JUMPI DUP1 PUSH4 0xDD62ED3E EQ PUSH2 0x9CB JUMPI DUP1 PUSH4 0xE086E5EC EQ PUSH2 0x9EB JUMPI DUP1 PUSH4 0xE249B7CE EQ PUSH2 0xA00 JUMPI DUP1 PUSH4 0xF2FDE38B EQ PUSH2 0xA20 JUMPI PUSH2 0x300 JUMP JUMPDEST DUP1 PUSH4 0x7B239E22 EQ PUSH2 0x710 JUMPI DUP1 PUSH4 0x7D6C8C00 EQ PUSH2 0x725 JUMPI DUP1 PUSH4 0x7FF9B596 EQ PUSH2 0x755 JUMPI DUP1 PUSH4 0x805D835D EQ PUSH2 0x76B JUMPI DUP1 PUSH4 0x8456CB59 EQ PUSH2 0x780 JUMPI DUP1 PUSH4 0x8DA5CB5B EQ PUSH2 0x795 JUMPI DUP1 PUSH4 0x8F52F0F9 EQ PUSH2 0x7AA JUMPI DUP1 PUSH4 0x93634C0A EQ PUSH2 0x7BF JUMPI DUP1 PUSH4 0x95D89B41 EQ PUSH2 0x7DE JUMPI DUP1 PUSH4 0x9B8906AE EQ PUSH2 0x7F3 JUMPI DUP1 PUSH4 0xA118BABD EQ PUSH2 0x814 JUMPI DUP1 PUSH4 0xA9059CBB EQ PUSH2 0x829 JUMPI DUP1 PUSH4 0xB172B222 EQ PUSH2 0x849 JUMPI DUP1 PUSH4 0xB2826B91 EQ PUSH2 0x869 JUMPI DUP1 PUSH4 0xB3AB15FB EQ PUSH2 0x889 JUMPI PUSH2 0x300 JUMP JUMPDEST DUP1 PUSH4 0x3F4BA83A GT PUSH2 0x231 JUMPI DUP1 PUSH4 0x3F4BA83A EQ PUSH2 0x520 JUMPI DUP1 PUSH4 0x490DEB3D EQ PUSH2 0x535 JUMPI DUP1 PUSH4 0x570CA735 EQ PUSH2 0x57E JUMPI DUP1 PUSH4 0x58BCC4FB EQ PUSH2 0x59E JUMPI DUP1 PUSH4 0x5BB47808 EQ PUSH2 0x5CE JUMPI DUP1 PUSH4 0x5C975ABB EQ PUSH2 0x5EE JUMPI DUP1 PUSH4 0x624B233D EQ PUSH2 0x606 JUMPI DUP1 PUSH4 0x68504158 EQ PUSH2 0x61B JUMPI DUP1 PUSH4 0x685DAB8F EQ PUSH2 0x63B JUMPI DUP1 PUSH4 0x6ADD3BDB EQ PUSH2 0x65B JUMPI DUP1 PUSH4 0x6C19E783 EQ PUSH2 0x67B JUMPI DUP1 PUSH4 0x70A08231 EQ PUSH2 0x69B JUMPI DUP1 PUSH4 0x712DAA75 EQ PUSH2 0x6BB JUMPI DUP1 PUSH4 0x715018A6 EQ PUSH2 0x6DB JUMPI DUP1 PUSH4 0x74FAA74B EQ PUSH2 0x6F0 JUMPI PUSH2 0x300 JUMP JUMPDEST DUP1 PUSH3 0x267F9A EQ PUSH2 0x318 JUMPI DUP1 PUSH4 0x6FDDE03 EQ PUSH2 0x342 JUMPI DUP1 PUSH4 0x8551A53 EQ PUSH2 0x364 JUMPI DUP1 PUSH4 0x95EA7B3 EQ PUSH2 0x391 JUMPI DUP1 PUSH4 0xD1AF103 EQ PUSH2 0x3C1 JUMPI DUP1 PUSH4 0x12AEF8C3 EQ PUSH2 0x3E3 JUMPI DUP1 PUSH4 0x15482CE1 EQ PUSH2 0x3F9 JUMPI DUP1 PUSH4 0x16314A69 EQ PUSH2 0x40F JUMPI DUP1 PUSH4 0x18160DDD EQ PUSH2 0x42F JUMPI DUP1 PUSH4 0x1DF37492 EQ PUSH2 0x444 JUMPI DUP1 PUSH4 0x23B872DD EQ PUSH2 0x464 JUMPI DUP1 PUSH4 0x2B319A8F EQ PUSH2 0x484 JUMPI DUP1 PUSH4 0x3013CE29 EQ PUSH2 0x4A4 JUMPI DUP1 PUSH4 0x313CE567 EQ PUSH2 0x4D8 JUMPI DUP1 PUSH4 0x325CD796 EQ PUSH2 0x4FF JUMPI PUSH2 0x300 JUMP JUMPDEST CALLDATASIZE PUSH2 0x300 JUMPI PUSH1 0x40 MLOAD PUSH3 0x461BCD PUSH1 0xE5 SHL DUP2 MSTORE PUSH1 0x4 ADD PUSH2 0x2F7 SWAP1 PUSH2 0x29FE JUMP JUMPDEST PUSH1 0x40 MLOAD DUP1 SWAP2 SUB SWAP1 REVERT JUMPDEST PUSH1 0x40 MLOAD PUSH3 0x461BCD PUSH1 0xE5 SHL DUP2 MSTORE PUSH1 0x4 ADD PUSH2 0x2F7 SWAP1 PUSH2 0x29FE JUMP JUMPDEST CALLVALUE DUP1 ISZERO PUSH2 0x324 JUMPI PUSH1 0x0 DUP1 REVERT JUMPDEST POP PUSH2 0x32F PUSH3 0x69780 DUP2 JUMP JUMPDEST PUSH1 0x40 MLOAD SWAP1 DUP2 MSTORE PUSH1 0x20 ADD JUMPDEST PUSH1 0x40 MLOAD DUP1 SWAP2 SUB SWAP1 RETURN JUMPDEST CALLVALUE DUP1 ISZERO PUSH2 0x34E JUMPI PUSH1 0x0 DUP1 REVERT JUMPDEST POP PUSH2 0x357 PUSH2 0xA40 JUMP JUMPDEST PUSH1 0x40 MLOAD PUSH2 0x339 SWAP2 SWAP1 PUSH2 0x2A28 JUMP JUMPDEST CALLVALUE DUP1 ISZERO PUSH2 0x370 JUMPI PUSH1 0x0 DUP1 REVERT JUMPDEST POP PUSH1 0x9 SLOAD PUSH2 0x384 SWAP1 PUSH1 0x1 PUSH1 0x1 PUSH1 0xA0 SHL SUB AND DUP2 JUMP JUMPDEST PUSH1 0x40 MLOAD PUSH2 0x339 SWAP2 SWAP1 PUSH2 0x2A76 JUMP JUMPDEST CALLVALUE DUP1 ISZERO PUSH2 0x39D JUMPI PUSH1 0x0 DUP1 REVERT JUMPDEST POP PUSH2 0x3B1 PUSH2 0x3AC CALLDATASIZE PUSH1 0x4 PUSH2 0x2AA6 JUMP JUMPDEST PUSH2 0xAD2 JUMP JUMPDEST PUSH1 0x40 MLOAD SWAP1 ISZERO ISZERO DUP2 MSTORE PUSH1 0x20 ADD PUSH2 0x339 JUMP JUMPDEST CALLVALUE DUP1 ISZERO PUSH2 0x3CD JUMPI PUSH1 0x0 DUP1 REVERT JUMPDEST POP PUSH2 0x3E1 PUSH2 0x3DC CALLDATASIZE PUSH1 0x4 PUSH2 0x2AD0 JUMP JUMPDEST PUSH2 0xAEC JUMP JUMPDEST STOP JUMPDEST CALLVALUE DUP1 ISZERO PUSH2 0x3EF JUMPI PUSH1 0x0 DUP1 REVERT JUMPDEST POP PUSH2 0x32F PUSH1 0xF SLOAD DUP2 JUMP JUMPDEST CALLVALUE DUP1 ISZERO PUSH2 0x405 JUMPI PUSH1 0x0 DUP1 REVERT JUMPDEST POP PUSH2 0x32F PUSH1 0x13 SLOAD DUP2 JUMP JUMPDEST CALLVALUE DUP1 ISZERO PUSH2 0x41B JUMPI PUSH1 0x0 DUP1 REVERT JUMPDEST POP PUSH1 0xD SLOAD PUSH2 0x384 SWAP1 PUSH1 0x1 PUSH1 0x1 PUSH1 0xA0 SHL SUB AND DUP2 JUMP JUMPDEST CALLVALUE DUP1 ISZERO PUSH2 0x43B JUMPI PUSH1 0x0 DUP1 REVERT JUMPDEST POP PUSH1 0x2 SLOAD PUSH2 0x32F JUMP JUMPDEST CALLVALUE DUP1 ISZERO PUSH2 0x450 JUMPI PUSH1 0x0 DUP1 REVERT JUMPDEST POP PUSH2 0x3E1 PUSH2 0x45F CALLDATASIZE PUSH1 0x4 PUSH2 0x2B0C JUMP JUMPDEST PUSH2 0xBCE JUMP JUMPDEST CALLVALUE DUP1 ISZERO PUSH2 0x470 JUMPI PUSH1 0x0 DUP1 REVERT JUMPDEST POP PUSH2 0x3B1 PUSH2 0x47F CALLDATASIZE PUSH1 0x4 PUSH2 0x2AD0 JUMP JUMPDEST PUSH2 0xDEC JUMP JUMPDEST CALLVALUE DUP1 ISZERO PUSH2 0x490 JUMPI PUSH1 0x0 DUP1 REVERT JUMPDEST POP PUSH2 0x32F PUSH2 0x49F CALLDATASIZE PUSH1 0x4 PUSH2 0x2B27 JUMP JUMPDEST PUSH2 0xE2A JUMP JUMPDEST CALLVALUE DUP1 ISZERO PUSH2 0x4B0 JUMPI PUSH1 0x0 DUP1 REVERT JUMPDEST POP PUSH2 0x384 PUSH32 0x0 DUP2 JUMP JUMPDEST CALLVALUE DUP1 ISZERO PUSH2 0x4E4 JUMPI PUSH1 0x0 DUP1 REVERT JUMPDEST POP PUSH2 0x4ED PUSH2 0xE3A JUMP JUMPDEST PUSH1 0x40 MLOAD PUSH1 0xFF SWAP1 SWAP2 AND DUP2 MSTORE PUSH1 0x20 ADD PUSH2 0x339 JUMP JUMPDEST CALLVALUE DUP1 ISZERO PUSH2 0x50B JUMPI PUSH1 0x0 DUP1 REVERT JUMPDEST POP PUSH1 0x14 SLOAD PUSH2 0x4ED SWAP1 PUSH1 0x1 PUSH1 0xA0 SHL SWAP1 DIV PUSH1 0xFF AND DUP2 JUMP JUMPDEST CALLVALUE DUP1 ISZERO PUSH2 0x52C JUMPI PUSH1 0x0 DUP1 REVERT JUMPDEST POP PUSH2 0x3E1 PUSH2 0xE4A JUMP JUMPDEST CALLVALUE DUP1 ISZERO PUSH2 0x541 JUMPI PUSH1 0x0 DUP1 REVERT JUMPDEST POP PUSH2 0x569 PUSH2 0x550 CALLDATASIZE PUSH1 0x4 PUSH2 0x2B0C JUMP JUMPDEST PUSH1 0x16 PUSH1 0x20 MSTORE PUSH1 0x0 SWAP1 DUP2 MSTORE PUSH1 0x40 SWAP1 KECCAK256 DUP1 SLOAD PUSH1 0x1 SWAP1 SWAP2 ADD SLOAD DUP3 JUMP JUMPDEST PUSH1 0x40 DUP1 MLOAD SWAP3 DUP4 MSTORE PUSH1 0x20 DUP4 ADD SWAP2 SWAP1 SWAP2 MSTORE ADD PUSH2 0x339 JUMP JUMPDEST CALLVALUE DUP1 ISZERO PUSH2 0x58A JUMPI PUSH1 0x0 DUP1 REVERT JUMPDEST POP PUSH1 0xA SLOAD PUSH2 0x384 SWAP1 PUSH1 0x1 PUSH1 0x1 PUSH1 0xA0 SHL SUB AND DUP2 JUMP JUMPDEST CALLVALUE DUP1 ISZERO PUSH2 0x5AA JUMPI PUSH1 0x0 DUP1 REVERT JUMPDEST POP PUSH2 0x3B1 PUSH2 0x5B9 CALLDATASIZE PUSH1 0x4 PUSH2 0x2B27 JUMP JUMPDEST PUSH1 0x8 PUSH1 0x20 MSTORE PUSH1 0x0 SWAP1 DUP2 MSTORE PUSH1 0x40 SWAP1 KECCAK256 SLOAD PUSH1 0xFF AND DUP2 JUMP JUMPDEST CALLVALUE DUP1 ISZERO PUSH2 0x5DA JUMPI PUSH1 0x0 DUP1 REVERT JUMPDEST POP PUSH2 0x3E1 PUSH2 0x5E9 CALLDATASIZE PUSH1 0x4 PUSH2 0x2B0C JUMP JUMPDEST PUSH2 0xE5C JUMP JUMPDEST CALLVALUE DUP1 ISZERO PUSH2 0x5FA JUMPI PUSH1 0x0 DUP1 REVERT JUMPDEST POP PUSH1 0x7 SLOAD PUSH1 0xFF AND PUSH2 0x3B1 JUMP JUMPDEST CALLVALUE DUP1 ISZERO PUSH2 0x612 JUMPI PUSH1 0x0 DUP1 REVERT JUMPDEST POP PUSH2 0x4ED PUSH1 0x1E DUP2 JUMP JUMPDEST CALLVALUE DUP1 ISZERO PUSH2 0x627 JUMPI PUSH1 0x0 DUP1 REVERT JUMPDEST POP PUSH2 0x3E1 PUSH2 0x636 CALLDATASIZE PUSH1 0x4 PUSH2 0x2B40 JUMP JUMPDEST PUSH2 0xEDC JUMP JUMPDEST CALLVALUE DUP1 ISZERO PUSH2 0x647 JUMPI PUSH1 0x0 DUP1 REVERT JUMPDEST POP PUSH2 0x3E1 PUSH2 0x656 CALLDATASIZE PUSH1 0x4 PUSH2 0x2B0C JUMP JUMPDEST PUSH2 0xF3C JUMP JUMPDEST CALLVALUE DUP1 ISZERO PUSH2 0x667 JUMPI PUSH1 0x0 DUP1 REVERT JUMPDEST POP PUSH2 0x3E1 PUSH2 0x676 CALLDATASIZE PUSH1 0x4 PUSH2 0x2B0C JUMP JUMPDEST PUSH2 0xFF4 JUMP JUMPDEST CALLVALUE DUP1 ISZERO PUSH2 0x687 JUMPI PUSH1 0x0 DUP1 REVERT JUMPDEST POP PUSH2 0x3E1 PUSH2 0x696 CALLDATASIZE PUSH1 0x4 PUSH2 0x2B0C JUMP JUMPDEST PUSH2 0x106A JUMP JUMPDEST CALLVALUE DUP1 ISZERO PUSH2 0x6A7 JUMPI PUSH1 0x0 DUP1 REVERT JUMPDEST POP PUSH2 0x32F PUSH2 0x6B6 CALLDATASIZE PUSH1 0x4 PUSH2 0x2B0C JUMP JUMPDEST PUSH2 0x10EA JUMP JUMPDEST CALLVALUE DUP1 ISZERO PUSH2 0x6C7 JUMPI PUSH1 0x0 DUP1 REVERT JUMPDEST POP PUSH2 0x3E1 PUSH2 0x6D6 CALLDATASIZE PUSH1 0x4 PUSH2 0x2AA6 JUMP JUMPDEST PUSH2 0x1105 JUMP JUMPDEST CALLVALUE DUP1 ISZERO PUSH2 0x6E7 JUMPI PUSH1 0x0 DUP1 REVERT JUMPDEST POP PUSH2 0x3E1 PUSH2 0x13EB JUMP JUMPDEST CALLVALUE DUP1 ISZERO PUSH2 0x6FC JUMPI PUSH1 0x0 DUP1 REVERT JUMPDEST POP PUSH2 0x3E1 PUSH2 0x70B CALLDATASIZE PUSH1 0x4 PUSH2 0x2B0C JUMP JUMPDEST PUSH2 0x13FD JUMP JUMPDEST CALLVALUE DUP1 ISZERO PUSH2 0x71C JUMPI PUSH1 0x0 DUP1 REVERT JUMPDEST POP PUSH2 0x4ED PUSH1 0xA DUP2 JUMP JUMPDEST CALLVALUE DUP1 ISZERO PUSH2 0x731 JUMPI PUSH1 0x0 DUP1 REVERT JUMPDEST POP PUSH2 0x3B1 PUSH2 0x740 CALLDATASIZE PUSH1 0x4 PUSH2 0x2B0C JUMP JUMPDEST PUSH1 0x15 PUSH1 0x20 MSTORE PUSH1 0x0 SWAP1 DUP2 MSTORE PUSH1 0x40 SWAP1 KECCAK256 SLOAD PUSH1 0xFF AND DUP2 JUMP JUMPDEST CALLVALUE DUP1 ISZERO PUSH2 0x761 JUMPI PUSH1 0x0 DUP1 REVERT JUMPDEST POP PUSH2 0x32F PUSH1 0xE SLOAD DUP2 JUMP JUMPDEST CALLVALUE DUP1 ISZERO PUSH2 0x777 JUMPI PUSH1 0x0 DUP1 REVERT JUMPDEST POP PUSH2 0x4ED PUSH1 0x64 DUP2 JUMP JUMPDEST CALLVALUE DUP1 ISZERO PUSH2 0x78C JUMPI PUSH1 0x0 DUP1 REVERT JUMPDEST POP PUSH2 0x3E1 PUSH2 0x14A9 JUMP JUMPDEST CALLVALUE DUP1 ISZERO PUSH2 0x7A1 JUMPI PUSH1 0x0 DUP1 REVERT JUMPDEST POP PUSH2 0x384 PUSH2 0x14B9 JUMP JUMPDEST CALLVALUE DUP1 ISZERO PUSH2 0x7B6 JUMPI PUSH1 0x0 DUP1 REVERT JUMPDEST POP PUSH2 0x3E1 PUSH2 0x14C8 JUMP JUMPDEST CALLVALUE DUP1 ISZERO PUSH2 0x7CB JUMPI PUSH1 0x0 DUP1 REVERT JUMPDEST POP PUSH1 0x7 SLOAD PUSH2 0x3B1 SWAP1 PUSH2 0x100 SWAP1 DIV PUSH1 0xFF AND DUP2 JUMP JUMPDEST CALLVALUE DUP1 ISZERO PUSH2 0x7EA JUMPI PUSH1 0x0 DUP1 REVERT JUMPDEST POP PUSH2 0x357 PUSH2 0x156A JUMP JUMPDEST CALLVALUE DUP1 ISZERO PUSH2 0x7FF JUMPI PUSH1 0x0 DUP1 REVERT JUMPDEST POP PUSH1 0xD SLOAD PUSH2 0x3B1 SWAP1 PUSH1 0x1 PUSH1 0xA0 SHL SWAP1 DIV PUSH1 0xFF AND DUP2 JUMP JUMPDEST CALLVALUE DUP1 ISZERO PUSH2 0x820 JUMPI PUSH1 0x0 DUP1 REVERT JUMPDEST POP PUSH2 0x3E1 PUSH2 0x1579 JUMP JUMPDEST CALLVALUE DUP1 ISZERO PUSH2 0x835 JUMPI PUSH1 0x0 DUP1 REVERT JUMPDEST POP PUSH2 0x3B1 PUSH2 0x844 CALLDATASIZE PUSH1 0x4 PUSH2 0x2AA6 JUMP JUMPDEST PUSH2 0x17B1 JUMP JUMPDEST CALLVALUE DUP1 ISZERO PUSH2 0x855 JUMPI PUSH1 0x0 DUP1 REVERT JUMPDEST POP PUSH1 0xC SLOAD PUSH2 0x384 SWAP1 PUSH1 0x1 PUSH1 0x1 PUSH1 0xA0 SHL SUB AND DUP2 JUMP JUMPDEST CALLVALUE DUP1 ISZERO PUSH2 0x875 JUMPI PUSH1 0x0 DUP1 REVERT JUMPDEST POP PUSH2 0x3E1 PUSH2 0x884 CALLDATASIZE PUSH1 0x4 PUSH2 0x2AA6 JUMP JUMPDEST PUSH2 0x17ED JUMP JUMPDEST CALLVALUE DUP1 ISZERO PUSH2 0x895 JUMPI PUSH1 0x0 DUP1 REVERT JUMPDEST POP PUSH2 0x3E1 PUSH2 0x8A4 CALLDATASIZE PUSH1 0x4 PUSH2 0x2B0C JUMP JUMPDEST PUSH2 0x1975 JUMP JUMPDEST CALLVALUE DUP1 ISZERO PUSH2 0x8B5 JUMPI PUSH1 0x0 DUP1 REVERT JUMPDEST POP PUSH2 0x4ED PUSH1 0x3 DUP2 JUMP JUMPDEST CALLVALUE DUP1 ISZERO PUSH2 0x8CA JUMPI PUSH1 0x0 DUP1 REVERT JUMPDEST POP PUSH2 0x3E1 PUSH2 0x8D9 CALLDATASIZE PUSH1 0x4 PUSH2 0x2B27 JUMP JUMPDEST PUSH2 0x1A12 JUMP JUMPDEST CALLVALUE DUP1 ISZERO PUSH2 0x8EA JUMPI PUSH1 0x0 DUP1 REVERT JUMPDEST POP PUSH2 0x32F PUSH1 0x10 SLOAD DUP2 JUMP JUMPDEST CALLVALUE DUP1 ISZERO PUSH2 0x900 JUMPI PUSH1 0x0 DUP1 REVERT JUMPDEST POP PUSH2 0x3E1 PUSH2 0x90F CALLDATASIZE PUSH1 0x4 PUSH2 0x2B40 JUMP JUMPDEST PUSH2 0x1AA9 JUMP JUMPDEST CALLVALUE DUP1 ISZERO PUSH2 0x920 JUMPI PUSH1 0x0 DUP1 REVERT JUMPDEST POP PUSH1 0xD SLOAD PUSH2 0x3B1 SWAP1 PUSH1 0x1 PUSH1 0xA8 SHL SWAP1 DIV PUSH1 0xFF AND DUP2 JUMP JUMPDEST CALLVALUE DUP1 ISZERO PUSH2 0x941 JUMPI PUSH1 0x0 DUP1 REVERT JUMPDEST POP PUSH2 0x4ED PUSH2 0x1ACB JUMP JUMPDEST CALLVALUE DUP1 ISZERO PUSH2 0x956 JUMPI PUSH1 0x0 DUP1 REVERT JUMPDEST POP PUSH2 0x3B1 PUSH2 0x965 CALLDATASIZE PUSH1 0x4 PUSH2 0x2B62 JUMP JUMPDEST PUSH2 0x1ADA JUMP JUMPDEST CALLVALUE DUP1 ISZERO PUSH2 0x976 JUMPI PUSH1 0x0 DUP1 REVERT JUMPDEST POP PUSH1 0xB SLOAD PUSH2 0x384 SWAP1 PUSH1 0x1 PUSH1 0x1 PUSH1 0xA0 SHL SUB AND DUP2 JUMP JUMPDEST CALLVALUE DUP1 ISZERO PUSH2 0x996 JUMPI PUSH1 0x0 DUP1 REVERT JUMPDEST POP PUSH2 0x32F PUSH1 0x11 SLOAD DUP2 JUMP JUMPDEST CALLVALUE DUP1 ISZERO PUSH2 0x9AC JUMPI PUSH1 0x0 DUP1 REVERT JUMPDEST POP PUSH2 0x32F PUSH1 0x12 SLOAD DUP2 JUMP JUMPDEST CALLVALUE DUP1 ISZERO PUSH2 0x9C2 JUMPI PUSH1 0x0 DUP1 REVERT JUMPDEST POP PUSH2 0x4ED PUSH1 0xF DUP2 JUMP JUMPDEST CALLVALUE DUP1 ISZERO PUSH2 0x9D7 JUMPI PUSH1 0x0 DUP1 REVERT JUMPDEST POP PUSH2 0x32F PUSH2 0x9E6 CALLDATASIZE PUSH1 0x4 PUSH2 0x2BF7 JUMP JUMPDEST PUSH2 0x1CD6 JUMP JUMPDEST CALLVALUE DUP1 ISZERO PUSH2 0x9F7 JUMPI PUSH1 0x0 DUP1 REVERT JUMPDEST POP PUSH2 0x3E1 PUSH2 0x1D01 JUMP JUMPDEST CALLVALUE DUP1 ISZERO PUSH2 0xA0C JUMPI PUSH1 0x0 DUP1 REVERT JUMPDEST POP PUSH2 0x3E1 PUSH2 0xA1B CALLDATASIZE PUSH1 0x4 PUSH2 0x2C2A JUMP JUMPDEST PUSH2 0x1E2E JUMP JUMPDEST CALLVALUE DUP1 ISZERO PUSH2 0xA2C JUMPI PUSH1 0x0 DUP1 REVERT JUMPDEST POP PUSH2 0x3E1 PUSH2 0xA3B CALLDATASIZE PUSH1 0x4 PUSH2 0x2B0C JUMP JUMPDEST PUSH2 0x204F JUMP JUMPDEST PUSH1 0x60 PUSH1 0x3 DUP1 SLOAD PUSH2 0xA4F SWAP1 PUSH2 0x2C56 JUMP JUMPDEST DUP1 PUSH1 0x1F ADD PUSH1 0x20 DUP1 SWAP2 DIV MUL PUSH1 0x20 ADD PUSH1 0x40 MLOAD SWAP1 DUP2 ADD PUSH1 0x40 MSTORE DUP1 SWAP3 SWAP2 SWAP1 DUP2 DUP2 MSTORE PUSH1 0x20 ADD DUP3 DUP1 SLOAD PUSH2 0xA7B SWAP1 PUSH2 0x2C56 JUMP JUMPDEST DUP1 ISZERO PUSH2 0xAC8 JUMPI DUP1 PUSH1 0x1F LT PUSH2 0xA9D JUMPI PUSH2 0x100 DUP1 DUP4 SLOAD DIV MUL DUP4 MSTORE SWAP2 PUSH1 0x20 ADD SWAP2 PUSH2 0xAC8 JUMP JUMPDEST DUP3 ADD SWAP2 SWAP1 PUSH1 0x0 MSTORE PUSH1 0x20 PUSH1 0x0 KECCAK256 SWAP1 JUMPDEST DUP2 SLOAD DUP2 MSTORE SWAP1 PUSH1 0x1 ADD SWAP1 PUSH1 0x20 ADD DUP1 DUP4 GT PUSH2 0xAAB JUMPI DUP3 SWAP1 SUB PUSH1 0x1F AND DUP3 ADD SWAP2 JUMPDEST POP POP POP POP POP SWAP1 POP SWAP1 JUMP JUMPDEST PUSH1 0x0 CALLER PUSH2 0xAE0 DUP2 DUP6 DUP6 PUSH2 0x208A JUMP JUMPDEST PUSH1 0x1 SWAP2 POP POP JUMPDEST SWAP3 SWAP2 POP POP JUMP JUMPDEST PUSH2 0xAF4 PUSH2 0x2097 JUMP JUMPDEST PUSH2 0xAFC PUSH2 0x20C9 JUMP JUMPDEST PUSH1 0x1 PUSH1 0x1 PUSH1 0xA0 SHL SUB DUP4 AND PUSH2 0xB5E JUMPI PUSH1 0x40 MLOAD PUSH3 0x461BCD PUSH1 0xE5 SHL DUP2 MSTORE PUSH1 0x20 PUSH1 0x4 DUP3 ADD MSTORE PUSH1 0x23 PUSH1 0x24 DUP3 ADD MSTORE PUSH32 0x6F70657261746F725472616E736665723A2066726F6D207A65726F2061646472 PUSH1 0x44 DUP3 ADD MSTORE PUSH3 0x657373 PUSH1 0xE8 SHL PUSH1 0x64 DUP3 ADD MSTORE PUSH1 0x84 ADD PUSH2 0x2F7 JUMP JUMPDEST PUSH1 0x1 PUSH1 0x1 PUSH1 0xA0 SHL SUB DUP3 AND PUSH2 0xBBE JUMPI PUSH1 0x40 MLOAD PUSH3 0x461BCD PUSH1 0xE5 SHL DUP2 MSTORE PUSH1 0x20 PUSH1 0x4 DUP3 ADD MSTORE PUSH1 0x21 PUSH1 0x24 DUP3 ADD MSTORE PUSH32 0x6F70657261746F725472616E736665723A20746F207A65726F20616464726573 PUSH1 0x44 DUP3 ADD MSTORE PUSH1 0x73 PUSH1 0xF8 SHL PUSH1 0x64 DUP3 ADD MSTORE PUSH1 0x84 ADD PUSH2 0x2F7 JUMP JUMPDEST PUSH2 0xBC9 DUP4 DUP4 DUP4 PUSH2 0x20ED JUMP JUMPDEST POP POP POP JUMP JUMPDEST PUSH2 0xBD6 PUSH2 0x2097 JUMP JUMPDEST PUSH2 0xBDE PUSH2 0x20C9 JUMP JUMPDEST PUSH2 0xBE6 PUSH2 0x214C JUMP JUMPDEST PUSH1 0x1 PUSH1 0x1 PUSH1 0xA0 SHL SUB DUP2 AND PUSH1 0x0 SWAP1 DUP2 MSTORE PUSH1 0x16 PUSH1 0x20 SWAP1 DUP2 MSTORE PUSH1 0x40 SWAP2 DUP3 SWAP1 KECCAK256 DUP3 MLOAD DUP1 DUP5 ADD SWAP1 SWAP4 MSTORE DUP1 SLOAD DUP1 DUP5 MSTORE PUSH1 0x1 SWAP1 SWAP2 ADD SLOAD SWAP2 DUP4 ADD SWAP2 SWAP1 SWAP2 MSTORE PUSH2 0xC59 JUMPI PUSH1 0x40 MLOAD PUSH3 0x461BCD PUSH1 0xE5 SHL DUP2 MSTORE PUSH1 0x20 PUSH1 0x4 DUP3 ADD MSTORE PUSH1 0xE PUSH1 0x24 DUP3 ADD MSTORE PUSH14 0x2737903932B9B2B93B30BA34B7B7 PUSH1 0x91 SHL PUSH1 0x44 DUP3 ADD MSTORE PUSH1 0x64 ADD PUSH2 0x2F7 JUMP JUMPDEST PUSH1 0x1 PUSH1 0x1 PUSH1 0xA0 SHL SUB DUP3 AND PUSH1 0x0 SWAP1 DUP2 MSTORE PUSH1 0x15 PUSH1 0x20 MSTORE PUSH1 0x40 SWAP1 KECCAK256 SLOAD PUSH1 0xFF AND ISZERO PUSH2 0xCB3 JUMPI PUSH1 0x40 MLOAD PUSH3 0x461BCD PUSH1 0xE5 SHL DUP2 MSTORE PUSH1 0x20 PUSH1 0x4 DUP3 ADD MSTORE PUSH1 0xE PUSH1 0x24 DUP3 ADD MSTORE PUSH14 0x105B1C9958591E481859DC995959 PUSH1 0x92 SHL PUSH1 0x44 DUP3 ADD MSTORE PUSH1 0x64 ADD PUSH2 0x2F7 JUMP JUMPDEST PUSH3 0x69780 DUP2 PUSH1 0x20 ADD MLOAD PUSH2 0xCC6 SWAP2 SWAP1 PUSH2 0x2CA6 JUMP JUMPDEST TIMESTAMP LT ISZERO PUSH2 0xD01 JUMPI PUSH1 0x40 MLOAD PUSH3 0x461BCD PUSH1 0xE5 SHL DUP2 MSTORE PUSH1 0x20 PUSH1 0x4 DUP3 ADD MSTORE PUSH1 0x9 PUSH1 0x24 DUP3 ADD MSTORE PUSH9 0x546F6F206561726C79 PUSH1 0xB8 SHL PUSH1 0x44 DUP3 ADD MSTORE PUSH1 0x64 ADD PUSH2 0x2F7 JUMP JUMPDEST DUP1 MLOAD PUSH1 0x12 DUP1 SLOAD PUSH1 0x0 SWAP1 PUSH2 0xD15 SWAP1 DUP5 SWAP1 PUSH2 0x2CB9 JUMP JUMPDEST SWAP1 SWAP2 SSTORE POP POP PUSH1 0x1 PUSH1 0x1 PUSH1 0xA0 SHL SUB DUP3 AND PUSH1 0x0 SWAP1 DUP2 MSTORE PUSH1 0x16 PUSH1 0x20 MSTORE PUSH1 0x40 DUP2 KECCAK256 DUP2 DUP2 SSTORE PUSH1 0x1 ADD DUP2 SWAP1 SSTORE PUSH2 0xD43 PUSH2 0xE3A JUMP JUMPDEST PUSH2 0xD4E SWAP1 PUSH1 0xA PUSH2 0x2DB0 JUMP JUMPDEST PUSH1 0xE SLOAD DUP4 MLOAD PUSH2 0xD5D SWAP2 SWAP1 PUSH2 0x2DBF JUMP JUMPDEST PUSH2 0xD67 SWAP2 SWAP1 PUSH2 0x2DD6 JUMP JUMPDEST SWAP1 POP PUSH2 0xD9D PUSH1 0x1 PUSH1 0x1 PUSH1 0xA0 SHL SUB PUSH32 0x0 AND DUP5 DUP4 PUSH2 0x2176 JUMP JUMPDEST DUP2 MLOAD PUSH1 0x40 MLOAD SWAP1 DUP2 MSTORE PUSH1 0x1 PUSH1 0x1 PUSH1 0xA0 SHL SUB DUP5 AND SWAP1 PUSH32 0xA171B6942063C6F2800CE40A780EDCE37BAA2B618571B11EEDD1E69E626E7D76 SWAP1 PUSH1 0x20 ADD PUSH1 0x40 MLOAD DUP1 SWAP2 SUB SWAP1 LOG2 POP POP PUSH2 0xDE9 PUSH1 0x1 PUSH1 0x6 SSTORE JUMP JUMPDEST POP JUMP JUMPDEST PUSH1 0x7 SLOAD PUSH1 0x0 SWAP1 PUSH2 0x100 SWAP1 DIV PUSH1 0xFF AND ISZERO PUSH2 0xE17 JUMPI PUSH1 0x40 MLOAD PUSH3 0x461BCD PUSH1 0xE5 SHL DUP2 MSTORE PUSH1 0x4 ADD PUSH2 0x2F7 SWAP1 PUSH2 0x2DF8 JUMP JUMPDEST PUSH2 0xE22 DUP5 DUP5 DUP5 PUSH2 0x21D5 JUMP JUMPDEST SWAP5 SWAP4 POP POP POP POP JUMP JUMPDEST PUSH1 0x0 PUSH1 0x11 SLOAD DUP3 PUSH2 0xAE6 SWAP2 SWAP1 PUSH2 0x2CA6 JUMP JUMPDEST PUSH1 0x14 SLOAD PUSH1 0x1 PUSH1 0xA0 SHL SWAP1 DIV PUSH1 0xFF AND SWAP1 JUMP JUMPDEST PUSH2 0xE52 PUSH2 0x2097 JUMP JUMPDEST PUSH2 0xE5A PUSH2 0x21F9 JUMP JUMPDEST JUMP JUMPDEST PUSH2 0xE64 PUSH2 0x2097 JUMP JUMPDEST PUSH1 0x1 PUSH1 0x1 PUSH1 0xA0 SHL SUB DUP2 AND PUSH2 0xEBA JUMPI PUSH1 0x40 MLOAD PUSH3 0x461BCD PUSH1 0xE5 SHL DUP2 MSTORE PUSH1 0x20 PUSH1 0x4 DUP3 ADD MSTORE PUSH1 0x1E PUSH1 0x24 DUP3 ADD MSTORE PUSH32 0x466163746F72792063616E6E6F74206265207A65726F20616464726573730000 PUSH1 0x44 DUP3 ADD MSTORE PUSH1 0x64 ADD PUSH2 0x2F7 JUMP JUMPDEST PUSH1 0xB DUP1 SLOAD PUSH1 0x1 PUSH1 0x1 PUSH1 0xA0 SHL SUB NOT AND PUSH1 0x1 PUSH1 0x1 PUSH1 0xA0 SHL SUB SWAP3 SWAP1 SWAP3 AND SWAP2 SWAP1 SWAP2 OR SWAP1 SSTORE JUMP JUMPDEST PUSH2 0xEE4 PUSH2 0x2097 JUMP JUMPDEST PUSH1 0xD DUP1 SLOAD DUP3 ISZERO ISZERO PUSH1 0x1 PUSH1 0xA8 SHL MUL PUSH1 0xFF PUSH1 0xA8 SHL NOT SWAP1 SWAP2 AND OR SWAP1 SSTORE PUSH1 0x40 MLOAD PUSH32 0xE1965432AF4C9923F6EBB98F1721262967CFA6178008742D23041DC8EE74EE8F SWAP1 PUSH2 0xF31 SWAP1 DUP4 ISZERO ISZERO DUP2 MSTORE PUSH1 0x20 ADD SWAP1 JUMP JUMPDEST PUSH1 0x40 MLOAD DUP1 SWAP2 SUB SWAP1 LOG1 POP JUMP JUMPDEST PUSH2 0xF44 PUSH2 0x2097 JUMP JUMPDEST PUSH1 0x1 PUSH1 0x1 PUSH1 0xA0 SHL SUB DUP2 AND PUSH2 0xF8B JUMPI PUSH1 0x40 MLOAD PUSH3 0x461BCD PUSH1 0xE5 SHL DUP2 MSTORE PUSH1 0x20 PUSH1 0x4 DUP3 ADD MSTORE PUSH1 0xE PUSH1 0x24 DUP3 ADD MSTORE PUSH14 0x24B73B30B634B21039B2B63632B9 PUSH1 0x91 SHL PUSH1 0x44 DUP3 ADD MSTORE PUSH1 0x64 ADD PUSH2 0x2F7 JUMP JUMPDEST PUSH1 0x9 SLOAD PUSH1 0x40 DUP1 MLOAD PUSH1 0x1 PUSH1 0x1 PUSH1 0xA0 SHL SUB SWAP3 DUP4 AND DUP2 MSTORE SWAP2 DUP4 AND PUSH1 0x20 DUP4 ADD MSTORE PUSH32 0xD08DBBA23A735D81EAF53AC5EDE2C722BB186E9D3D46B62842853F0D017C2212 SWAP2 ADD PUSH1 0x40 MLOAD DUP1 SWAP2 SUB SWAP1 LOG1 PUSH1 0x9 DUP1 SLOAD PUSH1 0x1 PUSH1 0x1 PUSH1 0xA0 SHL SUB NOT AND PUSH1 0x1 PUSH1 0x1 PUSH1 0xA0 SHL SUB SWAP3 SWAP1 SWAP3 AND SWAP2 SWAP1 SWAP2 OR SWAP1 SSTORE JUMP JUMPDEST PUSH1 0xB SLOAD PUSH1 0x1 PUSH1 0x1 PUSH1 0xA0 SHL SUB AND CALLER EQ PUSH2 0x101E JUMPI PUSH1 0x40 MLOAD PUSH3 0x461BCD PUSH1 0xE5 SHL DUP2 MSTORE PUSH1 0x4 ADD PUSH2 0x2F7 SWAP1 PUSH2 0x2E2B JUMP JUMPDEST PUSH1 0x1 PUSH1 0x1 PUSH1 0xA0 SHL SUB DUP2 AND PUSH1 0x0 DUP2 DUP2 MSTORE PUSH1 0x15 PUSH1 0x20 MSTORE PUSH1 0x40 DUP1 DUP3 KECCAK256 DUP1 SLOAD PUSH1 0xFF NOT AND PUSH1 0x1 OR SWAP1 SSTORE MLOAD PUSH32 0xEC25952115D724DE7FEC274999C9CBE0CFF9898F9F5128EAA42BD599138462A1 SWAP2 SWAP1 LOG2 POP JUMP JUMPDEST PUSH2 0x1072 PUSH2 0x2097 JUMP JUMPDEST PUSH1 0x1 PUSH1 0x1 PUSH1 0xA0 SHL SUB DUP2 AND PUSH2 0x10C8 JUMPI PUSH1 0x40 MLOAD PUSH3 0x461BCD PUSH1 0xE5 SHL DUP2 MSTORE PUSH1 0x20 PUSH1 0x4 DUP3 ADD MSTORE PUSH1 0x1D PUSH1 0x24 DUP3 ADD MSTORE PUSH32 0x5369676E65722063616E6E6F74206265207A65726F2061646472657373000000 PUSH1 0x44 DUP3 ADD MSTORE PUSH1 0x64 ADD PUSH2 0x2F7 JUMP JUMPDEST PUSH1 0x14 DUP1 SLOAD PUSH1 0x1 PUSH1 0x1 PUSH1 0xA0 SHL SUB NOT AND PUSH1 0x1 PUSH1 0x1 PUSH1 0xA0 SHL SUB SWAP3 SWAP1 SWAP3 AND SWAP2 SWAP1 SWAP2 OR SWAP1 SSTORE JUMP JUMPDEST PUSH1 0x1 PUSH1 0x1 PUSH1 0xA0 SHL SUB AND PUSH1 0x0 SWAP1 DUP2 MSTORE PUSH1 0x20 DUP2 SWAP1 MSTORE PUSH1 0x40 SWAP1 KECCAK256 SLOAD SWAP1 JUMP JUMPDEST PUSH2 0x110D PUSH2 0x214C JUMP JUMPDEST PUSH2 0x1115 PUSH2 0x20C9 JUMP JUMPDEST PUSH1 0xB SLOAD PUSH1 0x1 PUSH1 0x1 PUSH1 0xA0 SHL SUB AND CALLER EQ PUSH2 0x113F JUMPI PUSH1 0x40 MLOAD PUSH3 0x461BCD PUSH1 0xE5 SHL DUP2 MSTORE PUSH1 0x4 ADD PUSH2 0x2F7 SWAP1 PUSH2 0x2E2B JUMP JUMPDEST PUSH1 0xD SLOAD PUSH1 0x1 PUSH1 0xA0 SHL SWAP1 DIV PUSH1 0xFF AND ISZERO PUSH2 0x118A JUMPI PUSH1 0x40 MLOAD PUSH3 0x461BCD PUSH1 0xE5 SHL DUP2 MSTORE PUSH1 0x20 PUSH1 0x4 DUP3 ADD MSTORE PUSH1 0xE PUSH1 0x24 DUP3 ADD MSTORE PUSH14 0x14D85B19481A185CC8195B991959 PUSH1 0x92 SHL PUSH1 0x44 DUP3 ADD MSTORE PUSH1 0x64 ADD PUSH2 0x2F7 JUMP JUMPDEST PUSH1 0x1 PUSH1 0x1 PUSH1 0xA0 SHL SUB DUP3 AND PUSH1 0x0 SWAP1 DUP2 MSTORE PUSH1 0x15 PUSH1 0x20 MSTORE PUSH1 0x40 SWAP1 KECCAK256 SLOAD PUSH1 0xFF AND PUSH2 0x11E3 JUMPI PUSH1 0x40 MLOAD PUSH3 0x461BCD PUSH1 0xE5 SHL DUP2 MSTORE PUSH1 0x20 PUSH1 0x4 DUP3 ADD MSTORE PUSH1 0xE PUSH1 0x24 DUP3 ADD MSTORE PUSH14 0x111A5CD8DB185A5B48199A5C9CDD PUSH1 0x92 SHL PUSH1 0x44 DUP3 ADD MSTORE PUSH1 0x64 ADD PUSH2 0x2F7 JUMP JUMPDEST PUSH1 0x0 DUP2 GT PUSH2 0x1203 JUMPI PUSH1 0x40 MLOAD PUSH3 0x461BCD PUSH1 0xE5 SHL DUP2 MSTORE PUSH1 0x4 ADD PUSH2 0x2F7 SWAP1 PUSH2 0x2E51 JUMP JUMPDEST PUSH1 0x0 PUSH2 0x120D PUSH2 0xE3A JUMP JUMPDEST PUSH2 0x1218 SWAP1 PUSH1 0xA PUSH2 0x2DB0 JUMP JUMPDEST PUSH1 0xE SLOAD PUSH2 0x1225 SWAP1 DUP5 PUSH2 0x2DBF JUMP JUMPDEST PUSH2 0x122F SWAP2 SWAP1 PUSH2 0x2DD6 JUMP JUMPDEST PUSH1 0x1 PUSH1 0x1 PUSH1 0xA0 SHL SUB DUP5 AND PUSH1 0x0 SWAP1 DUP2 MSTORE PUSH1 0x16 PUSH1 0x20 SWAP1 DUP2 MSTORE PUSH1 0x40 SWAP2 DUP3 SWAP1 KECCAK256 DUP3 MLOAD DUP1 DUP5 ADD SWAP1 SWAP4 MSTORE DUP1 SLOAD DUP1 DUP5 MSTORE PUSH1 0x1 SWAP1 SWAP2 ADD SLOAD SWAP2 DUP4 ADD SWAP2 SWAP1 SWAP2 MSTORE SWAP2 SWAP3 POP SWAP1 ISZERO PUSH2 0x12ED JUMPI DUP1 MLOAD DUP4 EQ PUSH2 0x12B2 JUMPI PUSH1 0x40 MLOAD PUSH3 0x461BCD PUSH1 0xE5 SHL DUP2 MSTORE PUSH1 0x20 PUSH1 0x4 DUP3 ADD MSTORE PUSH1 0x11 PUSH1 0x24 DUP3 ADD MSTORE PUSH17 0x135D5CDD08189D5E481C995CD95C9D9959 PUSH1 0x7A SHL PUSH1 0x44 DUP3 ADD MSTORE PUSH1 0x64 ADD PUSH2 0x2F7 JUMP JUMPDEST DUP3 PUSH1 0x12 PUSH1 0x0 DUP3 DUP3 SLOAD PUSH2 0x12C4 SWAP2 SWAP1 PUSH2 0x2CB9 JUMP JUMPDEST SWAP1 SWAP2 SSTORE POP POP PUSH1 0x1 PUSH1 0x1 PUSH1 0xA0 SHL SUB DUP5 AND PUSH1 0x0 SWAP1 DUP2 MSTORE PUSH1 0x16 PUSH1 0x20 MSTORE PUSH1 0x40 DUP2 KECCAK256 DUP2 DUP2 SSTORE PUSH1 0x1 ADD SSTORE PUSH2 0x1351 JUMP JUMPDEST PUSH1 0x12 SLOAD PUSH1 0xF SLOAD PUSH2 0x12FD SWAP2 SWAP1 PUSH2 0x2CB9 JUMP JUMPDEST DUP4 GT ISZERO PUSH2 0x131C JUMPI PUSH1 0x40 MLOAD PUSH3 0x461BCD PUSH1 0xE5 SHL DUP2 MSTORE PUSH1 0x4 ADD PUSH2 0x2F7 SWAP1 PUSH2 0x2E73 JUMP JUMPDEST PUSH2 0x1351 PUSH1 0x1 PUSH1 0x1 PUSH1 0xA0 SHL SUB PUSH32 0x0 AND DUP6 ADDRESS DUP6 PUSH2 0x2245 JUMP JUMPDEST DUP3 PUSH1 0xF PUSH1 0x0 DUP3 DUP3 SLOAD PUSH2 0x1363 SWAP2 SWAP1 PUSH2 0x2CB9 JUMP JUMPDEST SWAP3 POP POP DUP2 SWAP1 SSTORE POP DUP2 PUSH1 0x11 PUSH1 0x0 DUP3 DUP3 SLOAD PUSH2 0x137C SWAP2 SWAP1 PUSH2 0x2CA6 JUMP JUMPDEST SWAP1 SWAP2 SSTORE POP POP PUSH1 0x9 SLOAD PUSH2 0x1398 SWAP1 PUSH1 0x1 PUSH1 0x1 PUSH1 0xA0 SHL SUB AND DUP6 DUP6 PUSH2 0x20ED JUMP JUMPDEST DUP4 PUSH1 0x1 PUSH1 0x1 PUSH1 0xA0 SHL SUB AND PUSH32 0x8F28852646C20CC973D3A8218F7EEFED58C25C909F78F0265AF4818C3D4DC271 DUP5 PUSH1 0x40 MLOAD PUSH2 0x13D3 SWAP2 DUP2 MSTORE PUSH1 0x20 ADD SWAP1 JUMP JUMPDEST PUSH1 0x40 MLOAD DUP1 SWAP2 SUB SWAP1 LOG2 POP POP PUSH2 0x13E7 PUSH1 0x1 PUSH1 0x6 SSTORE JUMP JUMPDEST POP POP JUMP JUMPDEST PUSH2 0x13F3 PUSH2 0x2097 JUMP JUMPDEST PUSH2 0xE5A PUSH1 0x0 PUSH2 0x2284 JUMP JUMPDEST PUSH2 0x1405 PUSH2 0x2097 JUMP JUMPDEST PUSH1 0x1 PUSH1 0x1 PUSH1 0xA0 SHL SUB DUP2 AND PUSH2 0x144D JUMPI PUSH1 0x40 MLOAD PUSH3 0x461BCD PUSH1 0xE5 SHL DUP2 MSTORE PUSH1 0x20 PUSH1 0x4 DUP3 ADD MSTORE PUSH1 0xF PUSH1 0x24 DUP3 ADD MSTORE PUSH15 0x496E76616C69642061646472657373 PUSH1 0x88 SHL PUSH1 0x44 DUP3 ADD MSTORE PUSH1 0x64 ADD PUSH2 0x2F7 JUMP JUMPDEST PUSH1 0xD SLOAD PUSH1 0x40 MLOAD PUSH1 0x1 PUSH1 0x1 PUSH1 0xA0 SHL SUB DUP1 DUP5 AND SWAP3 AND SWAP1 PUSH32 0xB27A84474703CE30A05E600606FA29DBCFB1671AA7363E45DBF0F1B78F3EE116 SWAP1 PUSH1 0x0 SWAP1 LOG3 PUSH1 0xD DUP1 SLOAD PUSH1 0x1 PUSH1 0x1 PUSH1 0xA0 SHL SUB NOT AND PUSH1 0x1 PUSH1 0x1 PUSH1 0xA0 SHL SUB SWAP3 SWAP1 SWAP3 AND SWAP2 SWAP1 SWAP2 OR SWAP1 SSTORE JUMP JUMPDEST PUSH2 0x14B1 PUSH2 0x2097 JUMP JUMPDEST PUSH2 0xE5A PUSH2 0x22D6 JUMP JUMPDEST PUSH1 0x5 SLOAD PUSH1 0x1 PUSH1 0x1 PUSH1 0xA0 SHL SUB AND SWAP1 JUMP JUMPDEST PUSH2 0x14D0 PUSH2 0x2097 JUMP JUMPDEST PUSH2 0x14D8 PUSH2 0x20C9 JUMP JUMPDEST PUSH1 0xD SLOAD PUSH1 0x1 PUSH1 0xA0 SHL SWAP1 DIV PUSH1 0xFF AND ISZERO PUSH2 0x1527 JUMPI PUSH1 0x40 MLOAD PUSH3 0x461BCD PUSH1 0xE5 SHL DUP2 MSTORE PUSH1 0x20 PUSH1 0x4 DUP3 ADD MSTORE PUSH1 0x12 PUSH1 0x24 DUP3 ADD MSTORE PUSH18 0x14D85B1948185B1C9958591E48195B991959 PUSH1 0x72 SHL PUSH1 0x44 DUP3 ADD MSTORE PUSH1 0x64 ADD PUSH2 0x2F7 JUMP JUMPDEST PUSH1 0xD DUP1 SLOAD PUSH1 0xFF PUSH1 0xA0 SHL NOT AND PUSH1 0x1 PUSH1 0xA0 SHL OR SWAP1 SSTORE PUSH1 0x0 PUSH1 0xF DUP2 SWAP1 SSTORE PUSH1 0x40 MLOAD PUSH32 0x7910379DD0DB65208B77494AC6A3ACCA01262C78703F044E0ABB7E4386A0BCBE SWAP2 SWAP1 LOG1 JUMP JUMPDEST PUSH1 0x60 PUSH1 0x4 DUP1 SLOAD PUSH2 0xA4F SWAP1 PUSH2 0x2C56 JUMP JUMPDEST PUSH2 0x1581 PUSH2 0x214C JUMP JUMPDEST PUSH2 0x1589 PUSH2 0x20C9 JUMP JUMPDEST PUSH2 0x1591 PUSH2 0x14B9 JUMP JUMPDEST PUSH1 0x1 PUSH1 0x1 PUSH1 0xA0 SHL SUB AND CALLER PUSH1 0x1 PUSH1 0x1 PUSH1 0xA0 SHL SUB AND EQ DUP1 PUSH2 0x15BA JUMPI POP PUSH1 0xA SLOAD PUSH1 0x1 PUSH1 0x1 PUSH1 0xA0 SHL SUB AND CALLER EQ JUMPDEST PUSH2 0x15F7 JUMPI PUSH1 0x40 MLOAD PUSH3 0x461BCD PUSH1 0xE5 SHL DUP2 MSTORE PUSH1 0x20 PUSH1 0x4 DUP3 ADD MSTORE PUSH1 0xE PUSH1 0x24 DUP3 ADD MSTORE PUSH14 0x139BDD08185D5D1A1BDC9A5E9959 PUSH1 0x92 SHL PUSH1 0x44 DUP3 ADD MSTORE PUSH1 0x64 ADD PUSH2 0x2F7 JUMP JUMPDEST PUSH1 0xD SLOAD PUSH1 0x1 PUSH1 0xA0 SHL SWAP1 DIV PUSH1 0xFF AND PUSH2 0x164E JUMPI PUSH1 0x40 MLOAD PUSH3 0x461BCD PUSH1 0xE5 SHL DUP2 MSTORE PUSH1 0x20 PUSH1 0x4 DUP3 ADD MSTORE PUSH1 0x1B PUSH1 0x24 DUP3 ADD MSTORE PUSH27 0x43616E6E6F7420776974686472617720647572696E672073616C65 PUSH1 0x28 SHL PUSH1 0x44 DUP3 ADD MSTORE PUSH1 0x64 ADD PUSH2 0x2F7 JUMP JUMPDEST PUSH1 0x40 MLOAD PUSH4 0x70A08231 PUSH1 0xE0 SHL DUP2 MSTORE PUSH1 0x0 SWAP1 PUSH1 0x1 PUSH1 0x1 PUSH1 0xA0 SHL SUB PUSH32 0x0 AND SWAP1 PUSH4 0x70A08231 SWAP1 PUSH2 0x169D SWAP1 ADDRESS SWAP1 PUSH1 0x4 ADD PUSH2 0x2A76 JUMP JUMPDEST PUSH1 0x20 PUSH1 0x40 MLOAD DUP1 DUP4 SUB DUP2 DUP7 GAS STATICCALL ISZERO DUP1 ISZERO PUSH2 0x16BA JUMPI RETURNDATASIZE PUSH1 0x0 DUP1 RETURNDATACOPY RETURNDATASIZE PUSH1 0x0 REVERT JUMPDEST POP POP POP POP PUSH1 0x40 MLOAD RETURNDATASIZE PUSH1 0x1F NOT PUSH1 0x1F DUP3 ADD AND DUP3 ADD DUP1 PUSH1 0x40 MSTORE POP DUP2 ADD SWAP1 PUSH2 0x16DE SWAP2 SWAP1 PUSH2 0x2E99 JUMP JUMPDEST SWAP1 POP PUSH1 0x0 DUP2 GT PUSH2 0x1727 JUMPI PUSH1 0x40 MLOAD PUSH3 0x461BCD PUSH1 0xE5 SHL DUP2 MSTORE PUSH1 0x20 PUSH1 0x4 DUP3 ADD MSTORE PUSH1 0x14 PUSH1 0x24 DUP3 ADD MSTORE PUSH20 0x4E6F2066756E647320746F207769746864726177 PUSH1 0x60 SHL PUSH1 0x44 DUP3 ADD MSTORE PUSH1 0x64 ADD PUSH2 0x2F7 JUMP JUMPDEST PUSH1 0x9 SLOAD PUSH2 0x1761 SWAP1 PUSH1 0x1 PUSH1 0x1 PUSH1 0xA0 SHL SUB PUSH32 0x0 DUP2 AND SWAP2 AND DUP4 PUSH2 0x2176 JUMP JUMPDEST PUSH1 0x9 SLOAD PUSH1 0x40 MLOAD PUSH32 0x8C7CDAD0D12A8DB3E23561B42DA6F10C8137914C97BEFF202213A410E1F520A3 SWAP2 PUSH2 0x179E SWAP2 DUP5 SWAP2 PUSH1 0x1 PUSH1 0x1 PUSH1 0xA0 SHL SUB AND SWAP1 PUSH2 0x2EB2 JUMP JUMPDEST PUSH1 0x40 MLOAD DUP1 SWAP2 SUB SWAP1 LOG1 POP PUSH2 0xE5A PUSH1 0x1 PUSH1 0x6 SSTORE JUMP JUMPDEST PUSH1 0x7 SLOAD PUSH1 0x0 SWAP1 PUSH2 0x100 SWAP1 DIV PUSH1 0xFF AND ISZERO PUSH2 0x17DC JUMPI PUSH1 0x40 MLOAD PUSH3 0x461BCD PUSH1 0xE5 SHL DUP2 MSTORE PUSH1 0x4 ADD PUSH2 0x2F7 SWAP1 PUSH2 0x2DF8 JUMP JUMPDEST PUSH2 0x17E6 DUP4 DUP4 PUSH2 0x2313 JUMP JUMPDEST SWAP4 SWAP3 POP POP POP JUMP JUMPDEST PUSH1 0xB SLOAD PUSH1 0x1 PUSH1 0x1 PUSH1 0xA0 SHL SUB AND CALLER EQ PUSH2 0x1817 JUMPI PUSH1 0x40 MLOAD PUSH3 0x461BCD PUSH1 0xE5 SHL DUP2 MSTORE PUSH1 0x4 ADD PUSH2 0x2F7 SWAP1 PUSH2 0x2E2B JUMP JUMPDEST PUSH1 0x0 DUP2 GT PUSH2 0x1837 JUMPI PUSH1 0x40 MLOAD PUSH3 0x461BCD PUSH1 0xE5 SHL DUP2 MSTORE PUSH1 0x4 ADD PUSH2 0x2F7 SWAP1 PUSH2 0x2E51 JUMP JUMPDEST PUSH1 0x1 PUSH1 0x1 PUSH1 0xA0 SHL SUB DUP3 AND PUSH1 0x0 SWAP1 DUP2 MSTORE PUSH1 0x16 PUSH1 0x20 MSTORE PUSH1 0x40 SWAP1 KECCAK256 SLOAD ISZERO PUSH2 0x1890 JUMPI PUSH1 0x40 MLOAD PUSH3 0x461BCD PUSH1 0xE5 SHL DUP2 MSTORE PUSH1 0x20 PUSH1 0x4 DUP3 ADD MSTORE PUSH1 0x10 PUSH1 0x24 DUP3 ADD MSTORE PUSH16 0x105B1C9958591E481C995CD95C9D9959 PUSH1 0x82 SHL PUSH1 0x44 DUP3 ADD MSTORE PUSH1 0x64 ADD PUSH2 0x2F7 JUMP JUMPDEST PUSH1 0x12 SLOAD PUSH1 0xF SLOAD PUSH2 0x18A0 SWAP2 SWAP1 PUSH2 0x2CB9 JUMP JUMPDEST DUP2 GT ISZERO PUSH2 0x18BF JUMPI PUSH1 0x40 MLOAD PUSH3 0x461BCD PUSH1 0xE5 SHL DUP2 MSTORE PUSH1 0x4 ADD PUSH2 0x2F7 SWAP1 PUSH2 0x2E73 JUMP JUMPDEST PUSH1 0x0 PUSH2 0x18C9 PUSH2 0xE3A JUMP JUMPDEST PUSH2 0x18D4 SWAP1 PUSH1 0xA PUSH2 0x2DB0 JUMP JUMPDEST PUSH1 0xE SLOAD PUSH2 0x18E1 SWAP1 DUP5 PUSH2 0x2DBF JUMP JUMPDEST PUSH2 0x18EB SWAP2 SWAP1 PUSH2 0x2DD6 JUMP JUMPDEST SWAP1 POP PUSH2 0x1922 PUSH1 0x1 PUSH1 0x1 PUSH1 0xA0 SHL SUB PUSH32 0x0 AND DUP5 ADDRESS DUP5 PUSH2 0x2245 JUMP JUMPDEST PUSH1 0x40 DUP1 MLOAD DUP1 DUP3 ADD DUP3 MSTORE DUP4 DUP2 MSTORE TIMESTAMP PUSH1 0x20 DUP1 DUP4 ADD SWAP2 DUP3 MSTORE PUSH1 0x1 PUSH1 0x1 PUSH1 0xA0 SHL SUB DUP8 AND PUSH1 0x0 SWAP1 DUP2 MSTORE PUSH1 0x16 SWAP1 SWAP2 MSTORE SWAP3 DUP4 KECCAK256 SWAP2 MLOAD DUP3 SSTORE MLOAD PUSH1 0x1 SWAP1 SWAP2 ADD SSTORE PUSH1 0x12 DUP1 SLOAD DUP5 SWAP3 SWAP1 PUSH2 0x196B SWAP1 DUP5 SWAP1 PUSH2 0x2CA6 JUMP JUMPDEST SWAP1 SWAP2 SSTORE POP POP POP POP POP JUMP JUMPDEST PUSH2 0x197D PUSH2 0x2097 JUMP JUMPDEST PUSH1 0x1 PUSH1 0x1 PUSH1 0xA0 SHL SUB DUP2 AND PUSH2 0x19C6 JUMPI PUSH1 0x40 MLOAD PUSH3 0x461BCD PUSH1 0xE5 SHL DUP2 MSTORE PUSH1 0x20 PUSH1 0x4 DUP3 ADD MSTORE PUSH1 0x10 PUSH1 0x24 DUP3 ADD MSTORE PUSH16 0x24B73B30B634B21037B832B930BA37B9 PUSH1 0x81 SHL PUSH1 0x44 DUP3 ADD MSTORE PUSH1 0x64 ADD PUSH2 0x2F7 JUMP JUMPDEST PUSH1 0xA DUP1 SLOAD PUSH1 0x1 PUSH1 0x1 PUSH1 0xA0 SHL SUB NOT AND PUSH1 0x1 PUSH1 0x1 PUSH1 0xA0 SHL SUB DUP4 AND SWAP1 DUP2 OR SWAP1 SWAP2 SSTORE PUSH1 0x40 MLOAD DUP2 SWAP1 PUSH32 0xFBE5B6CBAFB274F445D7FED869DC77A838D8243A22C460DE156560E8857CAD03 SWAP1 PUSH1 0x0 SWAP1 LOG3 POP JUMP JUMPDEST PUSH2 0x1A1A PUSH2 0x2097 JUMP JUMPDEST PUSH1 0xF SLOAD ISZERO PUSH2 0x1A63 JUMPI PUSH1 0x40 MLOAD PUSH3 0x461BCD PUSH1 0xE5 SHL DUP2 MSTORE PUSH1 0x20 PUSH1 0x4 DUP3 ADD MSTORE PUSH1 0x16 PUSH1 0x24 DUP3 ADD MSTORE PUSH22 0x43616E2774206D696E7420647572696E672073616C65 PUSH1 0x50 SHL PUSH1 0x44 DUP3 ADD MSTORE PUSH1 0x64 ADD PUSH2 0x2F7 JUMP JUMPDEST PUSH1 0x9 SLOAD PUSH2 0x1A79 SWAP1 PUSH1 0x1 PUSH1 0x1 PUSH1 0xA0 SHL SUB AND DUP3 PUSH2 0x2321 JUMP JUMPDEST PUSH1 0x40 MLOAD DUP2 DUP2 MSTORE PUSH32 0x359675C23A13743CF846E03B084A0B1FD129FFA3404DBDD936EFFD23FB97AA9D SWAP1 PUSH1 0x20 ADD PUSH2 0xF31 JUMP JUMPDEST PUSH2 0x1AB1 PUSH2 0x2097 JUMP JUMPDEST PUSH1 0x7 DUP1 SLOAD SWAP2 ISZERO ISZERO PUSH2 0x100 MUL PUSH2 0xFF00 NOT SWAP1 SWAP3 AND SWAP2 SWAP1 SWAP2 OR SWAP1 SSTORE JUMP JUMPDEST PUSH2 0x1AD7 PUSH1 0x3 PUSH1 0x64 PUSH2 0x2EC9 JUMP JUMPDEST DUP2 JUMP JUMPDEST PUSH1 0x0 PUSH2 0x1AE4 PUSH2 0x20C9 JUMP JUMPDEST PUSH1 0x0 DUP7 DUP2 MSTORE PUSH1 0x8 PUSH1 0x20 MSTORE PUSH1 0x40 SWAP1 KECCAK256 SLOAD PUSH1 0xFF AND ISZERO PUSH2 0x1B33 JUMPI PUSH1 0x40 MLOAD PUSH3 0x461BCD PUSH1 0xE5 SHL DUP2 MSTORE PUSH1 0x20 PUSH1 0x4 DUP3 ADD MSTORE PUSH1 0xD PUSH1 0x24 DUP3 ADD MSTORE PUSH13 0x427566666572207265706C6179 PUSH1 0x98 SHL PUSH1 0x44 DUP3 ADD MSTORE PUSH1 0x64 ADD PUSH2 0x2F7 JUMP JUMPDEST PUSH1 0x0 DUP7 DUP2 MSTORE PUSH1 0x8 PUSH1 0x20 SWAP1 DUP2 MSTORE PUSH1 0x40 DUP1 DUP4 KECCAK256 DUP1 SLOAD PUSH1 0xFF NOT AND PUSH1 0x1 OR SWAP1 SSTORE MLOAD PUSH2 0x1B8B SWAP2 DUP10 SWAP2 CALLER SWAP2 DUP9 SWAP2 DUP9 SWAP2 ADD SWAP4 DUP5 MSTORE PUSH1 0x60 SWAP3 DUP4 SHL PUSH1 0x1 PUSH1 0x1 PUSH1 0x60 SHL SUB NOT SWAP1 DUP2 AND PUSH1 0x20 DUP7 ADD MSTORE SWAP2 SWAP1 SWAP3 SHL AND PUSH1 0x34 DUP4 ADD MSTORE PUSH1 0x48 DUP3 ADD MSTORE PUSH1 0x68 ADD SWAP1 JUMP JUMPDEST PUSH1 0x40 MLOAD PUSH1 0x20 DUP2 DUP4 SUB SUB DUP2 MSTORE SWAP1 PUSH1 0x40 MSTORE DUP1 MLOAD SWAP1 PUSH1 0x20 ADD KECCAK256 SWAP1 POP PUSH1 0x0 PUSH2 0x1BDC DUP3 PUSH32 0x19457468657265756D205369676E6564204D6573736167653A0A333200000000 PUSH1 0x0 SWAP1 DUP2 MSTORE PUSH1 0x1C SWAP2 SWAP1 SWAP2 MSTORE PUSH1 0x3C SWAP1 KECCAK256 SWAP1 JUMP JUMPDEST SWAP1 POP PUSH1 0x0 PUSH2 0x1C22 DUP9 DUP9 DUP1 DUP1 PUSH1 0x1F ADD PUSH1 0x20 DUP1 SWAP2 DIV MUL PUSH1 0x20 ADD PUSH1 0x40 MLOAD SWAP1 DUP2 ADD PUSH1 0x40 MSTORE DUP1 SWAP4 SWAP3 SWAP2 SWAP1 DUP2 DUP2 MSTORE PUSH1 0x20 ADD DUP4 DUP4 DUP1 DUP3 DUP5 CALLDATACOPY PUSH1 0x0 SWAP3 ADD SWAP2 SWAP1 SWAP2 MSTORE POP DUP7 SWAP4 SWAP3 POP POP PUSH2 0x2357 SWAP1 POP JUMP JUMPDEST PUSH1 0x14 SLOAD SWAP1 SWAP2 POP PUSH1 0x1 PUSH1 0x1 PUSH1 0xA0 SHL SUB DUP1 DUP4 AND SWAP2 AND EQ PUSH2 0x1C76 JUMPI PUSH1 0x40 MLOAD PUSH3 0x461BCD PUSH1 0xE5 SHL DUP2 MSTORE PUSH1 0x20 PUSH1 0x4 DUP3 ADD MSTORE PUSH1 0x11 PUSH1 0x24 DUP3 ADD MSTORE PUSH17 0x496E76616C6964207369676E6174757265 PUSH1 0x78 SHL PUSH1 0x44 DUP3 ADD MSTORE PUSH1 0x64 ADD PUSH2 0x2F7 JUMP JUMPDEST PUSH2 0x1C81 CALLER DUP8 DUP8 PUSH2 0x20ED JUMP JUMPDEST PUSH1 0x40 DUP1 MLOAD DUP7 DUP2 MSTORE PUSH1 0x20 DUP2 ADD DUP12 SWAP1 MSTORE PUSH1 0x1 PUSH1 0x1 PUSH1 0xA0 SHL SUB DUP9 AND SWAP2 CALLER SWAP2 PUSH32 0xA50CBF27035F35522914CCDB748AC5870B90728775602FF8E87AB35817157F08 SWAP2 ADD PUSH1 0x40 MLOAD DUP1 SWAP2 SUB SWAP1 LOG3 POP PUSH1 0x1 SWAP9 SWAP8 POP POP POP POP POP POP POP POP JUMP JUMPDEST PUSH1 0x1 PUSH1 0x1 PUSH1 0xA0 SHL SUB SWAP2 DUP3 AND PUSH1 0x0 SWAP1 DUP2 MSTORE PUSH1 0x1 PUSH1 0x20 SWAP1 DUP2 MSTORE PUSH1 0x40 DUP1 DUP4 KECCAK256 SWAP4 SWAP1 SWAP5 AND DUP3 MSTORE SWAP2 SWAP1 SWAP2 MSTORE KECCAK256 SLOAD SWAP1 JUMP JUMPDEST PUSH2 0x1D09 PUSH2 0x2097 JUMP JUMPDEST SELFBALANCE DUP1 PUSH2 0x1D4C JUMPI PUSH1 0x40 MLOAD PUSH3 0x461BCD PUSH1 0xE5 SHL DUP2 MSTORE PUSH1 0x20 PUSH1 0x4 DUP3 ADD MSTORE PUSH1 0x12 PUSH1 0x24 DUP3 ADD MSTORE PUSH18 0x4E6F2045544820746F207769746864726177 PUSH1 0x70 SHL PUSH1 0x44 DUP3 ADD MSTORE PUSH1 0x64 ADD PUSH2 0x2F7 JUMP JUMPDEST PUSH1 0x9 SLOAD PUSH1 0x40 MLOAD PUSH1 0x0 SWAP2 PUSH1 0x1 PUSH1 0x1 PUSH1 0xA0 SHL SUB AND SWAP1 DUP4 SWAP1 DUP4 DUP2 DUP2 DUP2 DUP6 DUP8 GAS CALL SWAP3 POP POP POP RETURNDATASIZE DUP1 PUSH1 0x0 DUP2 EQ PUSH2 0x1D99 JUMPI PUSH1 0x40 MLOAD SWAP2 POP PUSH1 0x1F NOT PUSH1 0x3F RETURNDATASIZE ADD AND DUP3 ADD PUSH1 0x40 MSTORE RETURNDATASIZE DUP3 MSTORE RETURNDATASIZE PUSH1 0x0 PUSH1 0x20 DUP5 ADD RETURNDATACOPY PUSH2 0x1D9E JUMP JUMPDEST PUSH1 0x60 SWAP2 POP JUMPDEST POP POP SWAP1 POP DUP1 PUSH2 0x1DE5 JUMPI PUSH1 0x40 MLOAD PUSH3 0x461BCD PUSH1 0xE5 SHL DUP2 MSTORE PUSH1 0x20 PUSH1 0x4 DUP3 ADD MSTORE PUSH1 0x13 PUSH1 0x24 DUP3 ADD MSTORE PUSH19 0x115512081D1C985B9CD9995C8819985A5B1959 PUSH1 0x6A SHL PUSH1 0x44 DUP3 ADD MSTORE PUSH1 0x64 ADD PUSH2 0x2F7 JUMP JUMPDEST PUSH1 0x9 SLOAD PUSH1 0x40 MLOAD PUSH32 0x6148672A948A12B8E0BF92A9338349B9AC890FAD62A234ABAF0A4DA99F62CFCC SWAP2 PUSH2 0x1E22 SWAP2 DUP6 SWAP2 PUSH1 0x1 PUSH1 0x1 PUSH1 0xA0 SHL SUB AND SWAP1 PUSH2 0x2EB2 JUMP JUMPDEST PUSH1 0x40 MLOAD DUP1 SWAP2 SUB SWAP1 LOG1 POP POP JUMP JUMPDEST PUSH2 0x1E36 PUSH2 0x2097 JUMP JUMPDEST PUSH2 0x1E3E PUSH2 0x20C9 JUMP JUMPDEST PUSH1 0x0 DUP3 GT PUSH2 0x1E80 JUMPI PUSH1 0x40 MLOAD PUSH3 0x461BCD PUSH1 0xE5 SHL DUP2 MSTORE PUSH1 0x20 PUSH1 0x4 DUP3 ADD MSTORE PUSH1 0xF PUSH1 0x24 DUP3 ADD MSTORE PUSH15 0x546F6B656E207072696365203E203 PUSH1 0x8C SHL PUSH1 0x44 DUP3 ADD MSTORE PUSH1 0x64 ADD PUSH2 0x2F7 JUMP JUMPDEST PUSH1 0x0 PUSH2 0x1E8B PUSH1 0x2 SLOAD SWAP1 JUMP JUMPDEST PUSH1 0x13 DUP2 SWAP1 SSTORE SWAP1 POP PUSH1 0x64 PUSH2 0x1E9F PUSH1 0xA DUP4 PUSH2 0x2DBF JUMP JUMPDEST PUSH2 0x1EA9 SWAP2 SWAP1 PUSH2 0x2DD6 JUMP JUMPDEST DUP3 LT ISZERO PUSH2 0x1EE8 JUMPI PUSH1 0x40 MLOAD PUSH3 0x461BCD PUSH1 0xE5 SHL DUP2 MSTORE PUSH1 0x20 PUSH1 0x4 DUP3 ADD MSTORE PUSH1 0xD PUSH1 0x24 DUP3 ADD MSTORE PUSH13 0x546172676574203E3D20313025 PUSH1 0x98 SHL PUSH1 0x44 DUP3 ADD MSTORE PUSH1 0x64 ADD PUSH2 0x2F7 JUMP JUMPDEST PUSH1 0x64 PUSH2 0x1EF5 PUSH1 0x1E DUP4 PUSH2 0x2DBF JUMP JUMPDEST PUSH2 0x1EFF SWAP2 SWAP1 PUSH2 0x2DD6 JUMP JUMPDEST DUP3 GT ISZERO PUSH2 0x1F3E JUMPI PUSH1 0x40 MLOAD PUSH3 0x461BCD PUSH1 0xE5 SHL DUP2 MSTORE PUSH1 0x20 PUSH1 0x4 DUP3 ADD MSTORE PUSH1 0xD PUSH1 0x24 DUP3 ADD MSTORE PUSH13 0x546172676574203C3D20333025 PUSH1 0x98 SHL PUSH1 0x44 DUP3 ADD MSTORE PUSH1 0x64 ADD PUSH2 0x2F7 JUMP JUMPDEST PUSH1 0x9 SLOAD DUP5 SWAP1 PUSH2 0x1F55 SWAP1 PUSH1 0x1 PUSH1 0x1 PUSH1 0xA0 SHL SUB AND PUSH2 0x10EA JUMP JUMPDEST LT ISZERO PUSH2 0x1F94 JUMPI PUSH1 0x40 MLOAD PUSH3 0x461BCD PUSH1 0xE5 SHL DUP2 MSTORE PUSH1 0x20 PUSH1 0x4 DUP3 ADD MSTORE PUSH1 0xE PUSH1 0x24 DUP3 ADD MSTORE PUSH14 0x53656C6C65722062616C206C6F77 PUSH1 0x90 SHL PUSH1 0x44 DUP3 ADD MSTORE PUSH1 0x64 ADD PUSH2 0x2F7 JUMP JUMPDEST PUSH1 0x9 SLOAD DUP3 SWAP1 DUP6 SWAP1 PUSH2 0x1FAD SWAP1 PUSH1 0x1 PUSH1 0x1 PUSH1 0xA0 SHL SUB AND PUSH2 0x10EA JUMP JUMPDEST PUSH2 0x1FB7 SWAP2 SWAP1 PUSH2 0x2CB9 JUMP JUMPDEST EQ PUSH2 0x1FF9 JUMPI PUSH1 0x40 MLOAD PUSH3 0x461BCD PUSH1 0xE5 SHL DUP2 MSTORE PUSH1 0x20 PUSH1 0x4 DUP3 ADD MSTORE PUSH1 0x12 PUSH1 0x24 DUP3 ADD MSTORE PUSH18 0x109859081CD85B194BDD19DD081CDC1B1A5D PUSH1 0x72 SHL PUSH1 0x44 DUP3 ADD MSTORE PUSH1 0x64 ADD PUSH2 0x2F7 JUMP JUMPDEST PUSH1 0xF DUP5 SWAP1 SSTORE PUSH1 0xE DUP4 SWAP1 SSTORE PUSH1 0x10 DUP3 SWAP1 SSTORE PUSH1 0x40 DUP1 MLOAD DUP6 DUP2 MSTORE PUSH1 0x20 DUP2 ADD DUP6 SWAP1 MSTORE SWAP1 DUP2 ADD DUP4 SWAP1 MSTORE PUSH32 0x4D012A69148885509F5EB0377244099C968F990DB1F853707B9D8E3FEA20F7B9 SWAP1 PUSH1 0x60 ADD PUSH1 0x40 MLOAD DUP1 SWAP2 SUB SWAP1 LOG1 POP POP POP POP JUMP JUMPDEST PUSH2 0x2057 PUSH2 0x2097 JUMP JUMPDEST PUSH1 0x1 PUSH1 0x1 PUSH1 0xA0 SHL SUB DUP2 AND PUSH2 0x2081 JUMPI PUSH1 0x0 PUSH1 0x40 MLOAD PUSH4 0x1E4FBDF7 PUSH1 0xE0 SHL DUP2 MSTORE PUSH1 0x4 ADD PUSH2 0x2F7 SWAP2 SWAP1 PUSH2 0x2A76 JUMP JUMPDEST PUSH2 0xDE9 DUP2 PUSH2 0x2284 JUMP JUMPDEST PUSH2 0xBC9 DUP4 DUP4 DUP4 PUSH1 0x1 PUSH2 0x2381 JUMP JUMPDEST CALLER PUSH2 0x20A0 PUSH2 0x14B9 JUMP JUMPDEST PUSH1 0x1 PUSH1 0x1 PUSH1 0xA0 SHL SUB AND EQ PUSH2 0xE5A JUMPI CALLER PUSH1 0x40 MLOAD PUSH4 0x118CDAA7 PUSH1 0xE0 SHL DUP2 MSTORE PUSH1 0x4 ADD PUSH2 0x2F7 SWAP2 SWAP1 PUSH2 0x2A76 JUMP JUMPDEST PUSH1 0x7 SLOAD PUSH1 0xFF AND ISZERO PUSH2 0xE5A JUMPI PUSH1 0x40 MLOAD PUSH4 0xD93C0665 PUSH1 0xE0 SHL DUP2 MSTORE PUSH1 0x4 ADD PUSH1 0x40 MLOAD DUP1 SWAP2 SUB SWAP1 REVERT JUMPDEST PUSH1 0x1 PUSH1 0x1 PUSH1 0xA0 SHL SUB DUP4 AND PUSH2 0x2117 JUMPI PUSH1 0x0 PUSH1 0x40 MLOAD PUSH4 0x4B637E8F PUSH1 0xE1 SHL DUP2 MSTORE PUSH1 0x4 ADD PUSH2 0x2F7 SWAP2 SWAP1 PUSH2 0x2A76 JUMP JUMPDEST PUSH1 0x1 PUSH1 0x1 PUSH1 0xA0 SHL SUB DUP3 AND PUSH2 0x2141 JUMPI PUSH1 0x0 PUSH1 0x40 MLOAD PUSH4 0xEC442F05 PUSH1 0xE0 SHL DUP2 MSTORE PUSH1 0x4 ADD PUSH2 0x2F7 SWAP2 SWAP1 PUSH2 0x2A76 JUMP JUMPDEST PUSH2 0xBC9 DUP4 DUP4 DUP4 PUSH2 0x2456 JUMP JUMPDEST PUSH1 0x2 PUSH1 0x6 SLOAD SUB PUSH2 0x216F JUMPI PUSH1 0x40 MLOAD PUSH4 0x3EE5AEB5 PUSH1 0xE0 SHL DUP2 MSTORE PUSH1 0x4 ADD PUSH1 0x40 MLOAD DUP1 SWAP2 SUB SWAP1 REVERT JUMPDEST PUSH1 0x2 PUSH1 0x6 SSTORE JUMP JUMPDEST PUSH1 0x40 MLOAD PUSH1 0x1 PUSH1 0x1 PUSH1 0xA0 SHL SUB DUP4 DUP2 AND PUSH1 0x24 DUP4 ADD MSTORE PUSH1 0x44 DUP3 ADD DUP4 SWAP1 MSTORE PUSH2 0xBC9 SWAP2 DUP6 SWAP2 DUP3 AND SWAP1 PUSH4 0xA9059CBB SWAP1 PUSH1 0x64 ADD JUMPDEST PUSH1 0x40 MLOAD PUSH1 0x20 DUP2 DUP4 SUB SUB DUP2 MSTORE SWAP1 PUSH1 0x40 MSTORE SWAP2 POP PUSH1 0xE0 SHL PUSH1 0x20 DUP3 ADD DUP1 MLOAD PUSH1 0x1 PUSH1 0x1 PUSH1 0xE0 SHL SUB DUP4 DUP2 DUP4 AND OR DUP4 MSTORE POP POP POP POP PUSH2 0x246C JUMP JUMPDEST PUSH1 0x0 CALLER PUSH2 0x21E3 DUP6 DUP3 DUP6 PUSH2 0x24D4 JUMP JUMPDEST PUSH2 0x21EE DUP6 DUP6 DUP6 PUSH2 0x20ED JUMP JUMPDEST POP PUSH1 0x1 SWAP5 SWAP4 POP POP POP POP JUMP JUMPDEST PUSH2 0x2201 PUSH2 0x2522 JUMP JUMPDEST PUSH1 0x7 DUP1 SLOAD PUSH1 0xFF NOT AND SWAP1 SSTORE PUSH32 0x5DB9EE0A495BF2E6FF9C91A7834C1BA4FDD244A5E8AA4E537BD38AEAE4B073AA CALLER JUMPDEST PUSH1 0x40 MLOAD PUSH2 0x223B SWAP2 SWAP1 PUSH2 0x2A76 JUMP JUMPDEST PUSH1 0x40 MLOAD DUP1 SWAP2 SUB SWAP1 LOG1 JUMP JUMPDEST PUSH1 0x40 MLOAD PUSH1 0x1 PUSH1 0x1 PUSH1 0xA0 SHL SUB DUP5 DUP2 AND PUSH1 0x24 DUP4 ADD MSTORE DUP4 DUP2 AND PUSH1 0x44 DUP4 ADD MSTORE PUSH1 0x64 DUP3 ADD DUP4 SWAP1 MSTORE PUSH2 0x227E SWAP2 DUP7 SWAP2 DUP3 AND SWAP1 PUSH4 0x23B872DD SWAP1 PUSH1 0x84 ADD PUSH2 0x21A3 JUMP JUMPDEST POP POP POP POP JUMP JUMPDEST PUSH1 0x5 DUP1 SLOAD PUSH1 0x1 PUSH1 0x1 PUSH1 0xA0 SHL SUB DUP4 DUP2 AND PUSH1 0x1 PUSH1 0x1 PUSH1 0xA0 SHL SUB NOT DUP4 AND DUP2 OR SWAP1 SWAP4 SSTORE PUSH1 0x40 MLOAD SWAP2 AND SWAP2 SWAP1 DUP3 SWAP1 PUSH32 0x8BE0079C531659141344CD1FD0A4F28419497F9722A3DAAFE3B4186F6B6457E0 SWAP1 PUSH1 0x0 SWAP1 LOG3 POP POP JUMP JUMPDEST PUSH2 0x22DE PUSH2 0x20C9 JUMP JUMPDEST PUSH1 0x7 DUP1 SLOAD PUSH1 0xFF NOT AND PUSH1 0x1 OR SWAP1 SSTORE PUSH32 0x62E78CEA01BEE320CD4E420270B5EA74000D11B0C9F74754EBDBFC544B05A258 PUSH2 0x222E CALLER SWAP1 JUMP JUMPDEST PUSH1 0x0 CALLER PUSH2 0xAE0 DUP2 DUP6 DUP6 PUSH2 0x20ED JUMP JUMPDEST PUSH1 0x1 PUSH1 0x1 PUSH1 0xA0 SHL SUB DUP3 AND PUSH2 0x234B JUMPI PUSH1 0x0 PUSH1 0x40 MLOAD PUSH4 0xEC442F05 PUSH1 0xE0 SHL DUP2 MSTORE PUSH1 0x4 ADD PUSH2 0x2F7 SWAP2 SWAP1 PUSH2 0x2A76 JUMP JUMPDEST PUSH2 0x13E7 PUSH1 0x0 DUP4 DUP4 PUSH2 0x2456 JUMP JUMPDEST PUSH1 0x0 DUP1 PUSH1 0x0 DUP1 PUSH2 0x2367 DUP7 DUP7 PUSH2 0x2545 JUMP JUMPDEST SWAP3 POP SWAP3 POP SWAP3 POP PUSH2 0x2377 DUP3 DUP3 PUSH2 0x2592 JUMP JUMPDEST POP SWAP1 SWAP5 SWAP4 POP POP POP POP JUMP JUMPDEST PUSH1 0x1 PUSH1 0x1 PUSH1 0xA0 SHL SUB DUP5 AND PUSH2 0x23AB JUMPI PUSH1 0x0 PUSH1 0x40 MLOAD PUSH4 0xE602DF05 PUSH1 0xE0 SHL DUP2 MSTORE PUSH1 0x4 ADD PUSH2 0x2F7 SWAP2 SWAP1 PUSH2 0x2A76 JUMP JUMPDEST PUSH1 0x1 PUSH1 0x1 PUSH1 0xA0 SHL SUB DUP4 AND PUSH2 0x23D5 JUMPI PUSH1 0x0 PUSH1 0x40 MLOAD PUSH4 0x4A1406B1 PUSH1 0xE1 SHL DUP2 MSTORE PUSH1 0x4 ADD PUSH2 0x2F7 SWAP2 SWAP1 PUSH2 0x2A76 JUMP JUMPDEST PUSH1 0x1 PUSH1 0x1 PUSH1 0xA0 SHL SUB DUP1 DUP6 AND PUSH1 0x0 SWAP1 DUP2 MSTORE PUSH1 0x1 PUSH1 0x20 SWAP1 DUP2 MSTORE PUSH1 0x40 DUP1 DUP4 KECCAK256 SWAP4 DUP8 AND DUP4 MSTORE SWAP3 SWAP1 MSTORE KECCAK256 DUP3 SWAP1 SSTORE DUP1 ISZERO PUSH2 0x227E JUMPI DUP3 PUSH1 0x1 PUSH1 0x1 PUSH1 0xA0 SHL SUB AND DUP5 PUSH1 0x1 PUSH1 0x1 PUSH1 0xA0 SHL SUB AND PUSH32 0x8C5BE1E5EBEC7D5BD14F71427D1E84F3DD0314C0F7B2291E5B200AC8C7C3B925 DUP5 PUSH1 0x40 MLOAD PUSH2 0x2448 SWAP2 DUP2 MSTORE PUSH1 0x20 ADD SWAP1 JUMP JUMPDEST PUSH1 0x40 MLOAD DUP1 SWAP2 SUB SWAP1 LOG3 POP POP POP POP JUMP JUMPDEST PUSH2 0x2461 DUP4 DUP4 DUP4 PUSH2 0x264B JUMP JUMPDEST PUSH2 0xBC9 DUP4 DUP4 DUP4 PUSH2 0x2822 JUMP JUMPDEST PUSH1 0x0 DUP1 PUSH1 0x20 PUSH1 0x0 DUP5 MLOAD PUSH1 0x20 DUP7 ADD PUSH1 0x0 DUP9 GAS CALL DUP1 PUSH2 0x248F JUMPI PUSH1 0x40 MLOAD RETURNDATASIZE PUSH1 0x0 DUP3 RETURNDATACOPY RETURNDATASIZE DUP2 REVERT JUMPDEST POP POP PUSH1 0x0 MLOAD RETURNDATASIZE SWAP2 POP DUP2 ISZERO PUSH2 0x24A7 JUMPI DUP1 PUSH1 0x1 EQ ISZERO PUSH2 0x24B4 JUMP JUMPDEST PUSH1 0x1 PUSH1 0x1 PUSH1 0xA0 SHL SUB DUP5 AND EXTCODESIZE ISZERO JUMPDEST ISZERO PUSH2 0x227E JUMPI DUP4 PUSH1 0x40 MLOAD PUSH4 0x5274AFE7 PUSH1 0xE0 SHL DUP2 MSTORE PUSH1 0x4 ADD PUSH2 0x2F7 SWAP2 SWAP1 PUSH2 0x2A76 JUMP JUMPDEST PUSH1 0x0 PUSH2 0x24E0 DUP5 DUP5 PUSH2 0x1CD6 JUMP JUMPDEST SWAP1 POP PUSH1 0x0 NOT DUP2 LT ISZERO PUSH2 0x227E JUMPI DUP2 DUP2 LT ISZERO PUSH2 0x2513 JUMPI DUP3 DUP2 DUP4 PUSH1 0x40 MLOAD PUSH4 0x7DC7A0D9 PUSH1 0xE1 SHL DUP2 MSTORE PUSH1 0x4 ADD PUSH2 0x2F7 SWAP4 SWAP3 SWAP2 SWAP1 PUSH2 0x2EE2 JUMP JUMPDEST PUSH2 0x227E DUP5 DUP5 DUP5 DUP5 SUB PUSH1 0x0 PUSH2 0x2381 JUMP JUMPDEST PUSH1 0x7 SLOAD PUSH1 0xFF AND PUSH2 0xE5A JUMPI PUSH1 0x40 MLOAD PUSH4 0x8DFC202B PUSH1 0xE0 SHL DUP2 MSTORE PUSH1 0x4 ADD PUSH1 0x40 MLOAD DUP1 SWAP2 SUB SWAP1 REVERT JUMPDEST PUSH1 0x0 DUP1 PUSH1 0x0 DUP4 MLOAD PUSH1 0x41 SUB PUSH2 0x257F JUMPI PUSH1 0x20 DUP5 ADD MLOAD PUSH1 0x40 DUP6 ADD MLOAD PUSH1 0x60 DUP7 ADD MLOAD PUSH1 0x0 BYTE PUSH2 0x2571 DUP9 DUP3 DUP6 DUP6 PUSH2 0x2939 JUMP JUMPDEST SWAP6 POP SWAP6 POP SWAP6 POP POP POP POP PUSH2 0x258B JUMP JUMPDEST POP POP DUP2 MLOAD PUSH1 0x0 SWAP2 POP PUSH1 0x2 SWAP1 JUMPDEST SWAP3 POP SWAP3 POP SWAP3 JUMP JUMPDEST PUSH1 0x0 DUP3 PUSH1 0x3 DUP2 GT ISZERO PUSH2 0x25A6 JUMPI PUSH2 0x25A6 PUSH2 0x2F03 JUMP JUMPDEST SUB PUSH2 0x25AF JUMPI POP POP JUMP JUMPDEST PUSH1 0x1 DUP3 PUSH1 0x3 DUP2 GT ISZERO PUSH2 0x25C3 JUMPI PUSH2 0x25C3 PUSH2 0x2F03 JUMP JUMPDEST SUB PUSH2 0x25E1 JUMPI PUSH1 0x40 MLOAD PUSH4 0xF645EEDF PUSH1 0xE0 SHL DUP2 MSTORE PUSH1 0x4 ADD PUSH1 0x40 MLOAD DUP1 SWAP2 SUB SWAP1 REVERT JUMPDEST PUSH1 0x2 DUP3 PUSH1 0x3 DUP2 GT ISZERO PUSH2 0x25F5 JUMPI PUSH2 0x25F5 PUSH2 0x2F03 JUMP JUMPDEST SUB PUSH2 0x2616 JUMPI PUSH1 0x40 MLOAD PUSH4 0xFCE698F7 PUSH1 0xE0 SHL DUP2 MSTORE PUSH1 0x4 DUP2 ADD DUP3 SWAP1 MSTORE PUSH1 0x24 ADD PUSH2 0x2F7 JUMP JUMPDEST PUSH1 0x3 DUP3 PUSH1 0x3 DUP2 GT ISZERO PUSH2 0x262A JUMPI PUSH2 0x262A PUSH2 0x2F03 JUMP JUMPDEST SUB PUSH2 0x13E7 JUMPI PUSH1 0x40 MLOAD PUSH4 0x35E2F383 PUSH1 0xE2 SHL DUP2 MSTORE PUSH1 0x4 DUP2 ADD DUP3 SWAP1 MSTORE PUSH1 0x24 ADD PUSH2 0x2F7 JUMP JUMPDEST PUSH1 0xD SLOAD PUSH1 0x1 PUSH1 0xA8 SHL SWAP1 DIV PUSH1 0xFF AND DUP1 PUSH2 0x266A JUMPI POP PUSH1 0x1 PUSH1 0x1 PUSH1 0xA0 SHL SUB DUP4 AND ISZERO JUMPDEST DUP1 PUSH2 0x267C JUMPI POP PUSH1 0x1 PUSH1 0x1 PUSH1 0xA0 SHL SUB DUP3 AND ISZERO JUMPDEST PUSH2 0x26C1 JUMPI PUSH1 0x40 MLOAD PUSH3 0x461BCD PUSH1 0xE5 SHL DUP2 MSTORE PUSH1 0x20 PUSH1 0x4 DUP3 ADD MSTORE PUSH1 0x16 PUSH1 0x24 DUP3 ADD MSTORE PUSH22 0x151C985B9CD9995C9CC8185C9948191A5CD8589B1959 PUSH1 0x52 SHL PUSH1 0x44 DUP3 ADD MSTORE PUSH1 0x64 ADD PUSH2 0x2F7 JUMP JUMPDEST PUSH1 0x1 PUSH1 0x1 PUSH1 0xA0 SHL SUB DUP4 AND ISZERO DUP1 ISZERO SWAP1 PUSH2 0x26E1 JUMPI POP PUSH1 0x1 PUSH1 0x1 PUSH1 0xA0 SHL SUB DUP3 AND ISZERO ISZERO JUMPDEST ISZERO PUSH2 0xBC9 JUMPI PUSH1 0x9 SLOAD PUSH1 0x1 PUSH1 0x1 PUSH1 0xA0 SHL SUB SWAP1 DUP2 AND SWAP1 DUP5 AND SUB PUSH2 0x2782 JUMPI PUSH1 0x9 SLOAD PUSH1 0x0 SWAP1 DUP3 SWAP1 PUSH2 0x2716 SWAP1 PUSH1 0x1 PUSH1 0x1 PUSH1 0xA0 SHL SUB AND PUSH2 0x10EA JUMP JUMPDEST PUSH2 0x2720 SWAP2 SWAP1 PUSH2 0x2CB9 JUMP JUMPDEST SWAP1 POP PUSH1 0x10 SLOAD DUP2 LT ISZERO PUSH2 0x2780 JUMPI PUSH1 0x40 MLOAD PUSH3 0x461BCD PUSH1 0xE5 SHL DUP2 MSTORE PUSH1 0x20 PUSH1 0x4 DUP3 ADD MSTORE PUSH1 0x24 DUP1 DUP3 ADD MSTORE PUSH32 0x53656C6C6572206D7573742072657461696E206D696E696D756D206F776E6572 PUSH1 0x44 DUP3 ADD MSTORE PUSH4 0x7368697 PUSH1 0xE4 SHL PUSH1 0x64 DUP3 ADD MSTORE PUSH1 0x84 ADD PUSH2 0x2F7 JUMP JUMPDEST POP JUMPDEST PUSH1 0x9 SLOAD PUSH1 0x1 PUSH1 0x1 PUSH1 0xA0 SHL SUB DUP4 DUP2 AND SWAP2 AND EQ PUSH2 0xBC9 JUMPI PUSH1 0x0 PUSH1 0x13 SLOAD PUSH1 0x0 EQ PUSH2 0x27AB JUMPI PUSH1 0x13 SLOAD PUSH2 0x27AF JUMP JUMPDEST PUSH1 0x2 SLOAD JUMPDEST SWAP1 POP PUSH1 0x64 PUSH2 0x27BE PUSH1 0xF DUP4 PUSH2 0x2DBF JUMP JUMPDEST PUSH2 0x27C8 SWAP2 SWAP1 PUSH2 0x2DD6 JUMP JUMPDEST DUP3 PUSH2 0x27D2 DUP6 PUSH2 0x10EA JUMP JUMPDEST PUSH2 0x27DC SWAP2 SWAP1 PUSH2 0x2CA6 JUMP JUMPDEST GT ISZERO PUSH2 0x227E JUMPI PUSH1 0x40 MLOAD PUSH3 0x461BCD PUSH1 0xE5 SHL DUP2 MSTORE PUSH1 0x20 PUSH1 0x4 DUP3 ADD MSTORE PUSH1 0x15 PUSH1 0x24 DUP3 ADD MSTORE PUSH21 0x42757965722065786365656473203135252063617 PUSH1 0x5C SHL PUSH1 0x44 DUP3 ADD MSTORE PUSH1 0x64 ADD PUSH2 0x2F7 JUMP JUMPDEST PUSH1 0x1 PUSH1 0x1 PUSH1 0xA0 SHL SUB DUP4 AND PUSH2 0x284D JUMPI DUP1 PUSH1 0x2 PUSH1 0x0 DUP3 DUP3 SLOAD PUSH2 0x2842 SWAP2 SWAP1 PUSH2 0x2CA6 JUMP JUMPDEST SWAP1 SWAP2 SSTORE POP PUSH2 0x28AC SWAP1 POP JUMP JUMPDEST PUSH1 0x1 PUSH1 0x1 PUSH1 0xA0 SHL SUB DUP4 AND PUSH1 0x0 SWAP1 DUP2 MSTORE PUSH1 0x20 DUP2 SWAP1 MSTORE PUSH1 0x40 SWAP1 KECCAK256 SLOAD DUP2 DUP2 LT ISZERO PUSH2 0x288D JUMPI DUP4 DUP2 DUP4 PUSH1 0x40 MLOAD PUSH4 0x391434E3 PUSH1 0xE2 SHL DUP2 MSTORE PUSH1 0x4 ADD PUSH2 0x2F7 SWAP4 SWAP3 SWAP2 SWAP1 PUSH2 0x2EE2 JUMP JUMPDEST PUSH1 0x1 PUSH1 0x1 PUSH1 0xA0 SHL SUB DUP5 AND PUSH1 0x0 SWAP1 DUP2 MSTORE PUSH1 0x20 DUP2 SWAP1 MSTORE PUSH1 0x40 SWAP1 KECCAK256 SWAP1 DUP3 SWAP1 SUB SWAP1 SSTORE JUMPDEST PUSH1 0x1 PUSH1 0x1 PUSH1 0xA0 SHL SUB DUP3 AND PUSH2 0x28C8 JUMPI PUSH1 0x2 DUP1 SLOAD DUP3 SWAP1 SUB SWAP1 SSTORE PUSH2 0x28E7 JUMP JUMPDEST PUSH1 0x1 PUSH1 0x1 PUSH1 0xA0 SHL SUB DUP3 AND PUSH1 0x0 SWAP1 DUP2 MSTORE PUSH1 0x20 DUP2 SWAP1 MSTORE PUSH1 0x40 SWAP1 KECCAK256 DUP1 SLOAD DUP3 ADD SWAP1 SSTORE JUMPDEST DUP2 PUSH1 0x1 PUSH1 0x1 PUSH1 0xA0 SHL SUB AND DUP4 PUSH1 0x1 PUSH1 0x1 PUSH1 0xA0 SHL SUB AND PUSH32 0xDDF252AD1BE2C89B69C2B068FC378DAA952BA7F163C4A11628F55A4DF523B3EF DUP4 PUSH1 0x40 MLOAD PUSH2 0x292C SWAP2 DUP2 MSTORE PUSH1 0x20 ADD SWAP1 JUMP JUMPDEST PUSH1 0x40 MLOAD DUP1 SWAP2 SUB SWAP1 LOG3 POP POP POP JUMP JUMPDEST PUSH1 0x0 DUP1 DUP1 PUSH16 0xA2A8918CA85BAFE22016D0B997E4DF60 PUSH1 0x1 PUSH1 0xFF SHL SUB DUP5 GT ISZERO PUSH2 0x296A JUMPI POP PUSH1 0x0 SWAP2 POP PUSH1 0x3 SWAP1 POP DUP3 PUSH2 0x29F4 JUMP JUMPDEST PUSH1 0x40 DUP1 MLOAD PUSH1 0x0 DUP1 DUP3 MSTORE PUSH1 0x20 DUP3 ADD DUP1 DUP5 MSTORE DUP11 SWAP1 MSTORE PUSH1 0xFF DUP10 AND SWAP3 DUP3 ADD SWAP3 SWAP1 SWAP3 MSTORE PUSH1 0x60 DUP2 ADD DUP8 SWAP1 MSTORE PUSH1 0x80 DUP2 ADD DUP7 SWAP1 MSTORE PUSH1 0x1 SWAP1 PUSH1 0xA0 ADD PUSH1 0x20 PUSH1 0x40 MLOAD PUSH1 0x20 DUP2 SUB SWAP1 DUP1 DUP5 SUB SWAP1 DUP6 GAS STATICCALL ISZERO DUP1 ISZERO PUSH2 0x29BE JUMPI RETURNDATASIZE PUSH1 0x0 DUP1 RETURNDATACOPY RETURNDATASIZE PUSH1 0x0 REVERT JUMPDEST POP POP PUSH1 0x40 MLOAD PUSH1 0x1F NOT ADD MLOAD SWAP2 POP POP PUSH1 0x1 PUSH1 0x1 PUSH1 0xA0 SHL SUB DUP2 AND PUSH2 0x29EA JUMPI POP PUSH1 0x0 SWAP3 POP PUSH1 0x1 SWAP2 POP DUP3 SWAP1 POP PUSH2 0x29F4 JUMP JUMPDEST SWAP3 POP PUSH1 0x0 SWAP2 POP DUP2 SWAP1 POP JUMPDEST SWAP5 POP SWAP5 POP SWAP5 SWAP2 POP POP JUMP JUMPDEST PUSH1 0x20 DUP1 DUP3 MSTORE PUSH1 0x10 SWAP1 DUP3 ADD MSTORE PUSH16 0x115512081B9BDD081858D8D95C1D1959 PUSH1 0x82 SHL PUSH1 0x40 DUP3 ADD MSTORE PUSH1 0x60 ADD SWAP1 JUMP JUMPDEST PUSH1 0x0 PUSH1 0x20 DUP1 DUP4 MSTORE DUP4 MLOAD DUP1 DUP3 DUP6 ADD MSTORE PUSH1 0x0 JUMPDEST DUP2 DUP2 LT ISZERO PUSH2 0x2A55 JUMPI DUP6 DUP2 ADD DUP4 ADD MLOAD DUP6 DUP3 ADD PUSH1 0x40 ADD MSTORE DUP3 ADD PUSH2 0x2A39 JUMP JUMPDEST POP PUSH1 0x0 PUSH1 0x40 DUP3 DUP7 ADD ADD MSTORE PUSH1 0x40 PUSH1 0x1F NOT PUSH1 0x1F DUP4 ADD AND DUP6 ADD ADD SWAP3 POP POP POP SWAP3 SWAP2 POP POP JUMP JUMPDEST PUSH1 0x1 PUSH1 0x1 PUSH1 0xA0 SHL SUB SWAP2 SWAP1 SWAP2 AND DUP2 MSTORE PUSH1 0x20 ADD SWAP1 JUMP JUMPDEST DUP1 CALLDATALOAD PUSH1 0x1 PUSH1 0x1 PUSH1 0xA0 SHL SUB DUP2 AND DUP2 EQ PUSH2 0x2AA1 JUMPI PUSH1 0x0 DUP1 REVERT JUMPDEST SWAP2 SWAP1 POP JUMP JUMPDEST PUSH1 0x0 DUP1 PUSH1 0x40 DUP4 DUP6 SUB SLT ISZERO PUSH2 0x2AB9 JUMPI PUSH1 0x0 DUP1 REVERT JUMPDEST PUSH2 0x2AC2 DUP4 PUSH2 0x2A8A JUMP JUMPDEST SWAP5 PUSH1 0x20 SWAP4 SWAP1 SWAP4 ADD CALLDATALOAD SWAP4 POP POP POP JUMP JUMPDEST PUSH1 0x0 DUP1 PUSH1 0x0 PUSH1 0x60 DUP5 DUP7 SUB SLT ISZERO PUSH2 0x2AE5 JUMPI PUSH1 0x0 DUP1 REVERT JUMPDEST PUSH2 0x2AEE DUP5 PUSH2 0x2A8A JUMP JUMPDEST SWAP3 POP PUSH2 0x2AFC PUSH1 0x20 DUP6 ADD PUSH2 0x2A8A JUMP JUMPDEST SWAP2 POP PUSH1 0x40 DUP5 ADD CALLDATALOAD SWAP1 POP SWAP3 POP SWAP3 POP SWAP3 JUMP JUMPDEST PUSH1 0x0 PUSH1 0x20 DUP3 DUP5 SUB SLT ISZERO PUSH2 0x2B1E JUMPI PUSH1 0x0 DUP1 REVERT JUMPDEST PUSH2 0x17E6 DUP3 PUSH2 0x2A8A JUMP JUMPDEST PUSH1 0x0 PUSH1 0x20 DUP3 DUP5 SUB SLT ISZERO PUSH2 0x2B39 JUMPI PUSH1 0x0 DUP1 REVERT JUMPDEST POP CALLDATALOAD SWAP2 SWAP1 POP JUMP JUMPDEST PUSH1 0x0 PUSH1 0x20 DUP3 DUP5 SUB SLT ISZERO PUSH2 0x2B52 JUMPI PUSH1 0x0 DUP1 REVERT JUMPDEST DUP2 CALLDATALOAD DUP1 ISZERO ISZERO DUP2 EQ PUSH2 0x17E6 JUMPI PUSH1 0x0 DUP1 REVERT JUMPDEST PUSH1 0x0 DUP1 PUSH1 0x0 DUP1 PUSH1 0x0 PUSH1 0x80 DUP7 DUP9 SUB SLT ISZERO PUSH2 0x2B7A JUMPI PUSH1 0x0 DUP1 REVERT JUMPDEST DUP6 CALLDATALOAD SWAP5 POP PUSH1 0x20 DUP7 ADD CALLDATALOAD PUSH8 0xFFFFFFFFFFFFFFFF DUP1 DUP3 GT ISZERO PUSH2 0x2B99 JUMPI PUSH1 0x0 DUP1 REVERT JUMPDEST DUP2 DUP9 ADD SWAP2 POP DUP9 PUSH1 0x1F DUP4 ADD SLT PUSH2 0x2BAD JUMPI PUSH1 0x0 DUP1 REVERT JUMPDEST DUP2 CALLDATALOAD DUP2 DUP2 GT ISZERO PUSH2 0x2BBC JUMPI PUSH1 0x0 DUP1 REVERT JUMPDEST DUP10 PUSH1 0x20 DUP3 DUP6 ADD ADD GT ISZERO PUSH2 0x2BCE JUMPI PUSH1 0x0 DUP1 REVERT JUMPDEST PUSH1 0x20 DUP4 ADD SWAP7 POP DUP1 SWAP6 POP POP POP POP PUSH2 0x2BE6 PUSH1 0x40 DUP8 ADD PUSH2 0x2A8A JUMP JUMPDEST SWAP5 SWAP8 SWAP4 SWAP7 POP SWAP2 SWAP5 PUSH1 0x60 ADD CALLDATALOAD SWAP3 SWAP2 POP POP JUMP JUMPDEST PUSH1 0x0 DUP1 PUSH1 0x40 DUP4 DUP6 SUB SLT ISZERO PUSH2 0x2C0A JUMPI PUSH1 0x0 DUP1 REVERT JUMPDEST PUSH2 0x2C13 DUP4 PUSH2 0x2A8A JUMP JUMPDEST SWAP2 POP PUSH2 0x2C21 PUSH1 0x20 DUP5 ADD PUSH2 0x2A8A JUMP JUMPDEST SWAP1 POP SWAP3 POP SWAP3 SWAP1 POP JUMP JUMPDEST PUSH1 0x0 DUP1 PUSH1 0x0 PUSH1 0x60 DUP5 DUP7 SUB SLT ISZERO PUSH2 0x2C3F JUMPI PUSH1 0x0 DUP1 REVERT JUMPDEST POP POP DUP2 CALLDATALOAD SWAP4 PUSH1 0x20 DUP4 ADD CALLDATALOAD SWAP4 POP PUSH1 0x40 SWAP1 SWAP3 ADD CALLDATALOAD SWAP2 SWAP1 POP JUMP JUMPDEST PUSH1 0x1 DUP2 DUP2 SHR SWAP1 DUP3 AND DUP1 PUSH2 0x2C6A JUMPI PUSH1 0x7F DUP3 AND SWAP2 POP JUMPDEST PUSH1 0x20 DUP3 LT DUP2 SUB PUSH2 0x2C8A JUMPI PUSH4 0x4E487B71 PUSH1 0xE0 SHL PUSH1 0x0 MSTORE PUSH1 0x22 PUSH1 0x4 MSTORE PUSH1 0x24 PUSH1 0x0 REVERT JUMPDEST POP SWAP2 SWAP1 POP JUMP JUMPDEST PUSH4 0x4E487B71 PUSH1 0xE0 SHL PUSH1 0x0 MSTORE PUSH1 0x11 PUSH1 0x4 MSTORE PUSH1 0x24 PUSH1 0x0 REVERT JUMPDEST DUP1 DUP3 ADD DUP1 DUP3 GT ISZERO PUSH2 0xAE6 JUMPI PUSH2 0xAE6 PUSH2 0x2C90 JUMP JUMPDEST DUP2 DUP2 SUB DUP2 DUP2 GT ISZERO PUSH2 0xAE6 JUMPI PUSH2 0xAE6 PUSH2 0x2C90 JUMP JUMPDEST PUSH1 0x1 DUP2 DUP2 JUMPDEST DUP1 DUP6 GT ISZERO PUSH2 0x2D07 JUMPI DUP2 PUSH1 0x0 NOT DIV DUP3 GT ISZERO PUSH2 0x2CED JUMPI PUSH2 0x2CED PUSH2 0x2C90 JUMP JUMPDEST DUP1 DUP6 AND ISZERO PUSH2 0x2CFA JUMPI SWAP2 DUP2 MUL SWAP2 JUMPDEST SWAP4 DUP5 SHR SWAP4 SWAP1 DUP1 MUL SWAP1 PUSH2 0x2CD1 JUMP JUMPDEST POP SWAP3 POP SWAP3 SWAP1 POP JUMP JUMPDEST PUSH1 0x0 DUP3 PUSH2 0x2D1E JUMPI POP PUSH1 0x1 PUSH2 0xAE6 JUMP JUMPDEST DUP2 PUSH2 0x2D2B JUMPI POP PUSH1 0x0 PUSH2 0xAE6 JUMP JUMPDEST DUP2 PUSH1 0x1 DUP2 EQ PUSH2 0x2D41 JUMPI PUSH1 0x2 DUP2 EQ PUSH2 0x2D4B JUMPI PUSH2 0x2D67 JUMP JUMPDEST PUSH1 0x1 SWAP2 POP POP PUSH2 0xAE6 JUMP JUMPDEST PUSH1 0xFF DUP5 GT ISZERO PUSH2 0x2D5C JUMPI PUSH2 0x2D5C PUSH2 0x2C90 JUMP JUMPDEST POP POP PUSH1 0x1 DUP3 SHL PUSH2 0xAE6 JUMP JUMPDEST POP PUSH1 0x20 DUP4 LT PUSH2 0x133 DUP4 LT AND PUSH1 0x4E DUP5 LT PUSH1 0xB DUP5 LT AND OR ISZERO PUSH2 0x2D8A JUMPI POP DUP2 DUP2 EXP PUSH2 0xAE6 JUMP JUMPDEST PUSH2 0x2D94 DUP4 DUP4 PUSH2 0x2CCC JUMP JUMPDEST DUP1 PUSH1 0x0 NOT DIV DUP3 GT ISZERO PUSH2 0x2DA8 JUMPI PUSH2 0x2DA8 PUSH2 0x2C90 JUMP JUMPDEST MUL SWAP4 SWAP3 POP POP POP JUMP JUMPDEST PUSH1 0x0 PUSH2 0x17E6 PUSH1 0xFF DUP5 AND DUP4 PUSH2 0x2D0F JUMP JUMPDEST DUP1 DUP3 MUL DUP2 ISZERO DUP3 DUP3 DIV DUP5 EQ OR PUSH2 0xAE6 JUMPI PUSH2 0xAE6 PUSH2 0x2C90 JUMP JUMPDEST PUSH1 0x0 DUP3 PUSH2 0x2DF3 JUMPI PUSH4 0x4E487B71 PUSH1 0xE0 SHL PUSH1 0x0 MSTORE PUSH1 0x12 PUSH1 0x4 MSTORE PUSH1 0x24 PUSH1 0x0 REVERT JUMPDEST POP DIV SWAP1 JUMP JUMPDEST PUSH1 0x20 DUP1 DUP3 MSTORE PUSH1 0x19 SWAP1 DUP3 ADD MSTORE PUSH25 0x111A5C9958DD081D1C985B9CD9995C9CC8191A5CD8589B1959 PUSH1 0x3A SHL PUSH1 0x40 DUP3 ADD MSTORE PUSH1 0x60 ADD SWAP1 JUMP JUMPDEST PUSH1 0x20 DUP1 DUP3 MSTORE PUSH1 0xC SWAP1 DUP3 ADD MSTORE PUSH12 0x4F6E6C7920666163746F7279 PUSH1 0xA0 SHL PUSH1 0x40 DUP3 ADD MSTORE PUSH1 0x60 ADD SWAP1 JUMP JUMPDEST PUSH1 0x20 DUP1 DUP3 MSTORE PUSH1 0x8 SWAP1 DUP3 ADD MSTORE PUSH8 0x416D6F756E743E3 PUSH1 0xC4 SHL PUSH1 0x40 DUP3 ADD MSTORE PUSH1 0x60 ADD SWAP1 JUMP JUMPDEST PUSH1 0x20 DUP1 DUP3 MSTORE PUSH1 0xC SWAP1 DUP3 ADD MSTORE PUSH12 0x457863656564732073616C65 PUSH1 0xA0 SHL PUSH1 0x40 DUP3 ADD MSTORE PUSH1 0x60 ADD SWAP1 JUMP JUMPDEST PUSH1 0x0 PUSH1 0x20 DUP3 DUP5 SUB SLT ISZERO PUSH2 0x2EAB JUMPI PUSH1 0x0 DUP1 REVERT JUMPDEST POP MLOAD SWAP2 SWAP1 POP JUMP JUMPDEST SWAP2 DUP3 MSTORE PUSH1 0x1 PUSH1 0x1 PUSH1 0xA0 SHL SUB AND PUSH1 0x20 DUP3 ADD MSTORE PUSH1 0x40 ADD SWAP1 JUMP JUMPDEST PUSH1 0xFF DUP3 DUP2 AND DUP3 DUP3 AND SUB SWAP1 DUP2 GT ISZERO PUSH2 0xAE6 JUMPI PUSH2 0xAE6 PUSH2 0x2C90 JUMP JUMPDEST PUSH1 0x1 PUSH1 0x1 PUSH1 0xA0 SHL SUB SWAP4 SWAP1 SWAP4 AND DUP4 MSTORE PUSH1 0x20 DUP4 ADD SWAP2 SWAP1 SWAP2 MSTORE PUSH1 0x40 DUP3 ADD MSTORE PUSH1 0x60 ADD SWAP1 JUMP JUMPDEST PUSH4 0x4E487B71 PUSH1 0xE0 SHL PUSH1 0x0 MSTORE PUSH1 0x21 PUSH1 0x4 MSTORE PUSH1 0x24 PUSH1 0x0 REVERT INVALID LOG2 PUSH5 0x6970667358 0x22 SLT KECCAK256 PUSH30 0xB6F9CDA1193D221D3997C846C70C1AF491DB0B638893B29B33730F1948F9 0xAB PUSH5 0x736F6C6343 STOP ADDMOD EQ STOP CALLER "},"methodIdentifiers":{"AGREEMENT_TIMEOUT()":"00267f9a","MAX_BUYER_PERCENT()":"d5cf7cfe","MAX_SELLER_PERCENT()":"624b233d","MIN_SELLER_PERCENT()":"7b239e22","PERCENT_BASE()":"805d835d","SELLER_ALLOCATION_PERCENT()":"c157c5ff","WHIMSY_ALLOCATION_PERCENT()":"b91f6f0e","agreeDisclaimerFor(address)":"6add3bdb","allowance(address,address)":"dd62ed3e","approve(address,uint256)":"095ea7b3","balanceOf(address)":"70a08231","bufferUsed(bytes32)":"58bcc4fb","buyTokensFor(address,uint256)":"712daa75","decimals()":"313ce567","endSaleEarly()":"8f52f0f9","factory()":"c45a0155","getPostMoneyValuation(uint256)":"2b319a8f","governanceContract()":"b172b222","hasAgreedDisclaimer(address)":"7d6c8c00","increaseSupply(uint256)":"b921e163","name()":"06fdde03","operator()":"570ca735","operatorTransfer(address,address,uint256)":"0d1af103","owner()":"8da5cb5b","pause()":"8456cb59","paused()":"5c975abb","paymentToken()":"3013ce29","paymentTokenDecimals()":"325cd796","pendingReservations(address)":"490deb3d","refundUnagreedBuyer(address)":"1df37492","renounceOwnership()":"715018a6","requireSignatureOnTransfer()":"93634c0a","reserveTokensFor(address,uint256)":"b2826b91","saleEnded()":"9b8906ae","saleSupplySnapshot()":"15482ce1","seller()":"08551a53","setFactory(address)":"5bb47808","setOperator(address)":"b3ab15fb","setRequireSignatureOnTransfer(bool)":"bbd30fb9","setSaleParameters(uint256,uint256,uint256)":"e249b7ce","setSigner(address)":"6c19e783","setWhimsy(address)":"74faa74b","signatureTransfer(bytes32,bytes,address,uint256)":"c421d18f","symbol()":"95d89b41","targetSellerOwnership()":"bb979d62","toggleTransfers(bool)":"68504158","tokenPrice()":"7ff9b596","tokensForSale()":"12aef8c3","totalRaised()":"c5c4744c","totalReserved()":"c71b0e1c","totalSupply()":"18160ddd","transfer(address,uint256)":"a9059cbb","transferFrom(address,address,uint256)":"23b872dd","transferOwnership(address)":"f2fde38b","transfersEnabled()":"bef97c87","unpause()":"3f4ba83a","updateSellerAddress(address)":"685dab8f","whimsy()":"16314a69","withdrawETH()":"e086e5ec","withdrawPayment()":"a118babd"}}}}}