{"contracts/PropertyToken.sol":{"PropertyToken":{"abi":[{"inputs":[{"internalType":"string","name":"name_","type":"string"},{"internalType":"string","name":"symbol_","type":"string"},{"internalType":"uint256","name":"initialSupply_","type":"uint256"},{"internalType":"address","name":"seller_","type":"address"},{"internalType":"address","name":"whimsyAddress","type":"address"},{"internalType":"address","name":"owner_","type":"address"},{"internalType":"address","name":"paymentTokenAddress","type":"address"},{"internalType":"address","name":"assignedSigner","type":"address"}],"stateMutability":"nonpayable","type":"constructor"},{"inputs":[],"name":"ECDSAInvalidSignature","type":"error"},{"inputs":[{"internalType":"uint256","name":"length","type":"uint256"}],"name":"ECDSAInvalidSignatureLength","type":"error"},{"inputs":[{"internalType":"bytes32","name":"s","type":"bytes32"}],"name":"ECDSAInvalidSignatureS","type":"error"},{"inputs":[{"internalType":"address","name":"spender","type":"address"},{"internalType":"uint256","name":"allowance","type":"uint256"},{"internalType":"uint256","name":"needed","type":"uint256"}],"name":"ERC20InsufficientAllowance","type":"error"},{"inputs":[{"internalType":"address","name":"sender","type":"address"},{"internalType":"uint256","name":"balance","type":"uint256"},{"internalType":"uint256","name":"needed","type":"uint256"}],"name":"ERC20InsufficientBalance","type":"error"},{"inputs":[{"internalType":"address","name":"approver","type":"address"}],"name":"ERC20InvalidApprover","type":"error"},{"inputs":[{"internalType":"address","name":"receiver","type":"address"}],"name":"ERC20InvalidReceiver","type":"error"},{"inputs":[{"internalType":"address","name":"sender","type":"address"}],"name":"ERC20InvalidSender","type":"error"},{"inputs":[{"internalType":"address","name":"spender","type":"address"}],"name":"ERC20InvalidSpender","type":"error"},{"inputs":[],"name":"EnforcedPause","type":"error"},{"inputs":[],"name":"ExpectedPause","type":"error"},{"inputs":[{"internalType":"address","name":"owner","type":"address"}],"name":"OwnableInvalidOwner","type":"error"},{"inputs":[{"internalType":"address","name":"account","type":"address"}],"name":"OwnableUnauthorizedAccount","type":"error"},{"inputs":[],"name":"ReentrancyGuardReentrantCall","type":"error"},{"inputs":[{"internalType":"address","name":"token","type":"address"}],"name":"SafeERC20FailedOperation","type":"error"},{"anonymous":false,"inputs":[{"indexed":true,"internalType":"address","name":"owner","type":"address"},{"indexed":true,"internalType":"address","name":"spender","type":"address"},{"indexed":false,"internalType":"uint256","name":"value","type":"uint256"}],"name":"Approval","type":"event"},{"anonymous":false,"inputs":[{"indexed":true,"internalType":"address","name":"buyer","type":"address"}],"name":"DisclaimerAgreed","type":"event"},{"anonymous":false,"inputs":[{"indexed":true,"internalType":"address","name":"oldOperator","type":"address"},{"indexed":true,"internalType":"address","name":"newOperator","type":"address"}],"name":"OperatorUpdated","type":"event"},{"anonymous":false,"inputs":[{"indexed":true,"internalType":"address","name":"previousOwner","type":"address"},{"indexed":true,"internalType":"address","name":"newOwner","type":"address"}],"name":"OwnershipTransferred","type":"event"},{"anonymous":false,"inputs":[{"indexed":false,"internalType":"address","name":"account","type":"address"}],"name":"Paused","type":"event"},{"anonymous":false,"inputs":[{"indexed":true,"internalType":"address","name":"buyer","type":"address"},{"indexed":false,"internalType":"uint256","name":"amount","type":"uint256"}],"name":"RefundIssued","type":"event"},{"anonymous":false,"inputs":[],"name":"SaleEndedEarly","type":"event"},{"anonymous":false,"inputs":[{"indexed":false,"internalType":"uint256","name":"tokensForSale","type":"uint256"},{"indexed":false,"internalType":"uint256","name":"tokenPrice","type":"uint256"},{"indexed":false,"internalType":"uint256","name":"targetSellerOwnership","type":"uint256"}],"name":"SaleParametersUpdated","type":"event"},{"anonymous":false,"inputs":[{"indexed":false,"internalType":"address","name":"oldSeller","type":"address"},{"indexed":false,"internalType":"address","name":"newSeller","type":"address"}],"name":"SellerAddressUpdated","type":"event"},{"anonymous":false,"inputs":[{"indexed":false,"internalType":"uint256","name":"additionalTokens","type":"uint256"}],"name":"SupplyIncreased","type":"event"},{"anonymous":false,"inputs":[{"indexed":true,"internalType":"address","name":"buyer","type":"address"},{"indexed":false,"internalType":"uint256","name":"amount","type":"uint256"}],"name":"TokensPurchased","type":"event"},{"anonymous":false,"inputs":[{"indexed":true,"internalType":"address","name":"from","type":"address"},{"indexed":true,"internalType":"address","name":"to","type":"address"},{"indexed":false,"internalType":"uint256","name":"value","type":"uint256"}],"name":"Transfer","type":"event"},{"anonymous":false,"inputs":[{"indexed":false,"internalType":"bool","name":"enabled","type":"bool"}],"name":"TransfersToggled","type":"event"},{"anonymous":false,"inputs":[{"indexed":false,"internalType":"address","name":"account","type":"address"}],"name":"Unpaused","type":"event"},{"anonymous":false,"inputs":[{"indexed":true,"internalType":"address","name":"oldWhimsy","type":"address"},{"indexed":true,"internalType":"address","name":"newWhimsy","type":"address"}],"name":"WhimsyUpdated","type":"event"},{"anonymous":false,"inputs":[{"indexed":false,"internalType":"uint256","name":"amount","type":"uint256"},{"indexed":false,"internalType":"address","name":"to","type":"address"}],"name":"Withdrawn","type":"event"},{"stateMutability":"payable","type":"fallback"},{"inputs":[],"name":"AGREEMENT_TIMEOUT","outputs":[{"internalType":"uint256","name":"","type":"uint256"}],"stateMutability":"view","type":"function"},{"inputs":[],"name":"MAX_BUYER_PERCENT","outputs":[{"internalType":"uint8","name":"","type":"uint8"}],"stateMutability":"view","type":"function"},{"inputs":[],"name":"MAX_SELLER_PERCENT","outputs":[{"internalType":"uint8","name":"","type":"uint8"}],"stateMutability":"view","type":"function"},{"inputs":[],"name":"MIN_SELLER_PERCENT","outputs":[{"internalType":"uint8","name":"","type":"uint8"}],"stateMutability":"view","type":"function"},{"inputs":[],"name":"PERCENT_BASE","outputs":[{"internalType":"uint8","name":"","type":"uint8"}],"stateMutability":"view","type":"function"},{"inputs":[],"name":"SELLER_ALLOCATION_PERCENT","outputs":[{"internalType":"uint8","name":"","type":"uint8"}],"stateMutability":"view","type":"function"},{"inputs":[],"name":"WHIMSY_ALLOCATION_PERCENT","outputs":[{"internalType":"uint8","name":"","type":"uint8"}],"stateMutability":"view","type":"function"},{"inputs":[{"internalType":"address","name":"buyer","type":"address"}],"name":"agreeDisclaimerFor","outputs":[],"stateMutability":"nonpayable","type":"function"},{"inputs":[{"internalType":"address","name":"owner","type":"address"},{"internalType":"address","name":"spender","type":"address"}],"name":"allowance","outputs":[{"internalType":"uint256","name":"","type":"uint256"}],"stateMutability":"view","type":"function"},{"inputs":[{"internalType":"address","name":"spender","type":"address"},{"internalType":"uint256","name":"value","type":"uint256"}],"name":"approve","outputs":[{"internalType":"bool","name":"","type":"bool"}],"stateMutability":"nonpayable","type":"function"},{"inputs":[{"internalType":"address","name":"account","type":"address"}],"name":"balanceOf","outputs":[{"internalType":"uint256","name":"","type":"uint256"}],"stateMutability":"view","type":"function"},{"inputs":[{"internalType":"bytes32","name":"","type":"bytes32"}],"name":"bufferUsed","outputs":[{"internalType":"bool","name":"","type":"bool"}],"stateMutability":"view","type":"function"},{"inputs":[{"internalType":"address","name":"buyer","type":"address"},{"internalType":"uint256","name":"amount","type":"uint256"}],"name":"buyTokensFor","outputs":[],"stateMutability":"nonpayable","type":"function"},{"inputs":[],"name":"decimals","outputs":[{"internalType":"uint8","name":"","type":"uint8"}],"stateMutability":"pure","type":"function"},{"inputs":[],"name":"endSaleEarly","outputs":[],"stateMutability":"nonpayable","type":"function"},{"inputs":[],"name":"factory","outputs":[{"internalType":"address","name":"","type":"address"}],"stateMutability":"view","type":"function"},{"inputs":[{"internalType":"uint256","name":"preMoneyValuation","type":"uint256"}],"name":"getPostMoneyValuation","outputs":[{"internalType":"uint256","name":"","type":"uint256"}],"stateMutability":"view","type":"function"},{"inputs":[],"name":"governanceContract","outputs":[{"internalType":"address","name":"","type":"address"}],"stateMutability":"view","type":"function"},{"inputs":[{"internalType":"address","name":"","type":"address"}],"name":"hasAgreedDisclaimer","outputs":[{"internalType":"bool","name":"","type":"bool"}],"stateMutability":"view","type":"function"},{"inputs":[{"internalType":"uint256","name":"amount","type":"uint256"}],"name":"increaseSupply","outputs":[],"stateMutability":"nonpayable","type":"function"},{"inputs":[],"name":"name","outputs":[{"internalType":"string","name":"","type":"string"}],"stateMutability":"view","type":"function"},{"inputs":[],"name":"operator","outputs":[{"internalType":"address","name":"","type":"address"}],"stateMutability":"view","type":"function"},{"inputs":[{"internalType":"address","name":"from","type":"address"},{"internalType":"address","name":"to","type":"address"},{"internalType":"uint256","name":"amount","type":"uint256"}],"name":"operatorTransfer","outputs":[],"stateMutability":"nonpayable","type":"function"},{"inputs":[],"name":"owner","outputs":[{"internalType":"address","name":"","type":"address"}],"stateMutability":"view","type":"function"},{"inputs":[],"name":"pause","outputs":[],"stateMutability":"nonpayable","type":"function"},{"inputs":[],"name":"paused","outputs":[{"internalType":"bool","name":"","type":"bool"}],"stateMutability":"view","type":"function"},{"inputs":[],"name":"paymentToken","outputs":[{"internalType":"contract IERC20","name":"","type":"address"}],"stateMutability":"view","type":"function"},{"inputs":[{"internalType":"address","name":"","type":"address"}],"name":"pendingReservations","outputs":[{"internalType":"uint256","name":"amount","type":"uint256"},{"internalType":"uint256","name":"timestamp","type":"uint256"}],"stateMutability":"view","type":"function"},{"inputs":[{"internalType":"address","name":"buyer","type":"address"}],"name":"refundUnagreedBuyer","outputs":[],"stateMutability":"nonpayable","type":"function"},{"inputs":[],"name":"renounceOwnership","outputs":[],"stateMutability":"nonpayable","type":"function"},{"inputs":[],"name":"requireSignatureOnTransfer","outputs":[{"internalType":"bool","name":"","type":"bool"}],"stateMutability":"view","type":"function"},{"inputs":[{"internalType":"address","name":"buyer","type":"address"},{"internalType":"uint256","name":"amount","type":"uint256"}],"name":"reserveTokensFor","outputs":[],"stateMutability":"nonpayable","type":"function"},{"inputs":[],"name":"saleEnded","outputs":[{"internalType":"bool","name":"","type":"bool"}],"stateMutability":"view","type":"function"},{"inputs":[],"name":"saleSupplySnapshot","outputs":[{"internalType":"uint256","name":"","type":"uint256"}],"stateMutability":"view","type":"function"},{"inputs":[],"name":"seller","outputs":[{"internalType":"address","name":"","type":"address"}],"stateMutability":"view","type":"function"},{"inputs":[{"internalType":"address","name":"_factory","type":"address"}],"name":"setFactory","outputs":[],"stateMutability":"nonpayable","type":"function"},{"inputs":[{"internalType":"address","name":"_gov","type":"address"}],"name":"setGovernance","outputs":[],"stateMutability":"nonpayable","type":"function"},{"inputs":[{"internalType":"address","name":"newOperator","type":"address"}],"name":"setOperator","outputs":[],"stateMutability":"nonpayable","type":"function"},{"inputs":[{"internalType":"bool","name":"on","type":"bool"}],"name":"setRequireSignatureOnTransfer","outputs":[],"stateMutability":"nonpayable","type":"function"},{"inputs":[{"internalType":"uint256","name":"_tokensForSale","type":"uint256"},{"internalType":"uint256","name":"_tokenPrice","type":"uint256"},{"internalType":"uint256","name":"_targetSellerOwnership","type":"uint256"}],"name":"setSaleParameters","outputs":[],"stateMutability":"nonpayable","type":"function"},{"inputs":[{"internalType":"address","name":"assignedSigner","type":"address"}],"name":"setSigner","outputs":[],"stateMutability":"nonpayable","type":"function"},{"inputs":[{"internalType":"address","name":"newWhimsy","type":"address"}],"name":"setWhimsy","outputs":[],"stateMutability":"nonpayable","type":"function"},{"inputs":[{"internalType":"bytes32","name":"buffer","type":"bytes32"},{"internalType":"bytes","name":"sig","type":"bytes"},{"internalType":"address","name":"to","type":"address"},{"internalType":"uint256","name":"amount","type":"uint256"}],"name":"signatureTransfer","outputs":[{"internalType":"bool","name":"","type":"bool"}],"stateMutability":"nonpayable","type":"function"},{"inputs":[],"name":"symbol","outputs":[{"internalType":"string","name":"","type":"string"}],"stateMutability":"view","type":"function"},{"inputs":[],"name":"targetSellerOwnership","outputs":[{"internalType":"uint256","name":"","type":"uint256"}],"stateMutability":"view","type":"function"},{"inputs":[{"internalType":"bool","name":"enabled","type":"bool"}],"name":"toggleTransfers","outputs":[],"stateMutability":"nonpayable","type":"function"},{"inputs":[],"name":"tokenPrice","outputs":[{"internalType":"uint256","name":"","type":"uint256"}],"stateMutability":"view","type":"function"},{"inputs":[],"name":"tokensForSale","outputs":[{"internalType":"uint256","name":"","type":"uint256"}],"stateMutability":"view","type":"function"},{"inputs":[],"name":"totalRaised","outputs":[{"internalType":"uint256","name":"","type":"uint256"}],"stateMutability":"view","type":"function"},{"inputs":[],"name":"totalReserved","outputs":[{"internalType":"uint256","name":"","type":"uint256"}],"stateMutability":"view","type":"function"},{"inputs":[],"name":"totalSupply","outputs":[{"internalType":"uint256","name":"","type":"uint256"}],"stateMutability":"view","type":"function"},{"inputs":[{"internalType":"address","name":"to","type":"address"},{"internalType":"uint256","name":"amount","type":"uint256"}],"name":"transfer","outputs":[{"internalType":"bool","name":"","type":"bool"}],"stateMutability":"nonpayable","type":"function"},{"inputs":[{"internalType":"address","name":"from","type":"address"},{"internalType":"address","name":"to","type":"address"},{"internalType":"uint256","name":"amount","type":"uint256"}],"name":"transferFrom","outputs":[{"internalType":"bool","name":"","type":"bool"}],"stateMutability":"nonpayable","type":"function"},{"inputs":[{"internalType":"address","name":"newOwner","type":"address"}],"name":"transferOwnership","outputs":[],"stateMutability":"nonpayable","type":"function"},{"inputs":[],"name":"transfersEnabled","outputs":[{"internalType":"bool","name":"","type":"bool"}],"stateMutability":"view","type":"function"},{"inputs":[],"name":"unpause","outputs":[],"stateMutability":"nonpayable","type":"function"},{"inputs":[{"internalType":"address","name":"newSeller","type":"address"}],"name":"updateSellerAddress","outputs":[],"stateMutability":"nonpayable","type":"function"},{"inputs":[],"name":"whimsy","outputs":[{"internalType":"address","name":"","type":"address"}],"stateMutability":"view","type":"function"},{"inputs":[],"name":"withdrawPayment","outputs":[],"stateMutability":"nonpayable","type":"function"},{"stateMutability":"payable","type":"receive"}],"evm":{"bytecode":{"linkReferences":{},"object":"60a06040526007805461ff001916610100179055600d805461ffff60a01b1916600160a81b1790553480156200003457600080fd5b50604051620038ea380380620038ea833981016040819052620000579162000735565b828888600362000068838262000894565b50600462000077828262000894565b5050506001600160a01b038116620000aa57604051631e4fbdf760e01b8152600060048201526024015b60405180910390fd5b620000b58162000256565b5060016006556007805460ff191690556001600160a01b0385166200010e5760405162461bcd60e51b815260206004820152600e60248201526d24b73b30b634b21039b2b63632b960911b6044820152606401620000a1565b6001600160a01b038416620001575760405162461bcd60e51b815260206004820152600e60248201526d496e76616c6964207768696d737960901b6044820152606401620000a1565b6001600160a01b038216620001af5760405162461bcd60e51b815260206004820152601460248201527f496e76616c6964207061796d656e74546f6b656e0000000000000000000000006044820152606401620000a1565b600d80546001600160a01b038087166001600160a01b03199283161790925560098054888416908316179055600b80548684169083161790558382166080526014805492841692909116919091179055600060646200021060038962000976565b6200021c919062000996565b905060006200022c8289620009b9565b90506200023a8782620002a8565b620002468683620002a8565b50505050505050505050620009e5565b600580546001600160a01b038381166001600160a01b0319831681179093556040519116919082907f8be0079c531659141344cd1fd0a4f28419497f9722a3daafe3b4186f6b6457e090600090a35050565b6001600160a01b038216620002d45760405163ec442f0560e01b815260006004820152602401620000a1565b620002e260008383620002e6565b5050565b620002f383838362000305565b6200030083838362000520565b505050565b600d54600160a81b900460ff16806200032557506001600160a01b038316155b806200033857506001600160a01b038216155b620003865760405162461bcd60e51b815260206004820152601660248201527f5472616e7366657273206172652064697361626c6564000000000000000000006044820152606401620000a1565b6001600160a01b03831615801590620003a757506001600160a01b03821615155b1562000300576009546001600160a01b039081169084160362000450576009546001600160a01b0316600090815260208190526040812054620003ec908390620009b9565b90506010548110156200044e5760405162461bcd60e51b8152602060048201526024808201527f53656c6c6572206d7573742072657461696e206d696e696d756d206f776e65726044820152630736869760e41b6064820152608401620000a1565b505b6009546001600160a01b03838116911614620003005760006013546000146200047c5760135462000480565b6002545b9050606462000491600f8362000976565b6200049d919062000996565b82620004be856001600160a01b031660009081526020819052604090205490565b620004ca9190620009cf565b11156200051a5760405162461bcd60e51b815260206004820152601560248201527f42757965722065786365656473203135252063617000000000000000000000006044820152606401620000a1565b50505050565b6001600160a01b0383166200054f578060026000828254620005439190620009cf565b90915550620005c39050565b6001600160a01b03831660009081526020819052604090205481811015620005a45760405163391434e360e21b81526001600160a01b03851660048201526024810182905260448101839052606401620000a1565b6001600160a01b03841660009081526020819052604090209082900390555b6001600160a01b038216620005e15760028054829003905562000600565b6001600160a01b03821660009081526020819052604090208054820190555b816001600160a01b0316836001600160a01b03167fddf252ad1be2c89b69c2b068fc378daa952ba7f163c4a11628f55a4df523b3ef836040516200064691815260200190565b60405180910390a3505050565b634e487b7160e01b600052604160045260246000fd5b600082601f8301126200067b57600080fd5b81516001600160401b038082111562000698576200069862000653565b604051601f8301601f19908116603f01168101908282118183101715620006c357620006c362000653565b81604052838152602092508683858801011115620006e057600080fd5b600091505b83821015620007045785820183015181830184015290820190620006e5565b600093810190920192909252949350505050565b80516001600160a01b03811681146200073057600080fd5b919050565b600080600080600080600080610100898b0312156200075357600080fd5b88516001600160401b03808211156200076b57600080fd5b620007798c838d0162000669565b995060208b01519150808211156200079057600080fd5b506200079f8b828c0162000669565b97505060408901519550620007b760608a0162000718565b9450620007c760808a0162000718565b9350620007d760a08a0162000718565b9250620007e760c08a0162000718565b9150620007f760e08a0162000718565b90509295985092959890939650565b600181811c908216806200081b57607f821691505b6020821081036200083c57634e487b7160e01b600052602260045260246000fd5b50919050565b601f8211156200030057600081815260208120601f850160051c810160208610156200086b5750805b601f850160051c820191505b818110156200088c5782815560010162000877565b505050505050565b81516001600160401b03811115620008b057620008b062000653565b620008c881620008c1845462000806565b8462000842565b602080601f831160018114620009005760008415620008e75750858301515b600019600386901b1c1916600185901b1785556200088c565b600085815260208120601f198616915b82811015620009315788860151825594840194600190910190840162000910565b5085821015620009505787850151600019600388901b60f8161c191681555b5050505050600190811b01905550565b634e487b7160e01b600052601160045260246000fd5b808202811582820484141762000990576200099062000960565b92915050565b600082620009b457634e487b7160e01b600052601260045260246000fd5b500490565b8181038181111562000990576200099062000960565b8082018082111562000990576200099062000960565b608051612ec662000a246000396000818161050f01528181610df7015281816114070152818161172a015281816117f70152611a870152612ec66000f3fe60806040526004361061035f5760003560e01c80637b239e22116101c4578063b3ab15fb116100f6578063c421d18f1161009a578063d5cf7cfe1161006c578063d5cf7cfe14610a28578063dd62ed3e14610a3d578063e249b7ce14610a83578063f2fde38b14610aa357005b8063c421d18f146109bc578063c45a0155146109dc578063c5c4744c146109fc578063c71b0e1c14610a1257005b8063bb979d62116100d3578063bb979d6214610950578063bbd30fb914610966578063bef97c8714610986578063c157c5ff146109a757005b8063b3ab15fb146108fb578063b91f6f0e1461091b578063b921e1631461093057005b806393634c0a11610168578063a9059cbb1161013a578063a9059cbb1461087b578063ab033ea91461089b578063b172b222146108bb578063b2826b91146108db57005b806393634c0a1461081157806395d89b41146108305780639b8906ae14610845578063a118babd1461086657005b8063805d835d116101a1578063805d835d146107b45780638456cb59146107c95780638da5cb5b146107de5780638f52f0f9146107fc57005b80637b239e22146107595780637d6c8c001461076e5780637ff9b5961461079e57005b80633f4ba83a1161029d578063685041581161024157806370a082311161021357806370a08231146106ce578063712daa7514610704578063715018a61461072457806374faa74b1461073957005b8063685041581461064e578063685dab8f1461066e5780636add3bdb1461068e5780636c19e783146106ae57005b806358bcc4fb1161027a57806358bcc4fb146105d15780635bb47808146106015780635c975abb14610621578063624b233d1461063957005b80633f4ba83a14610553578063490deb3d14610568578063570ca735146105b157005b806316314a691161030457806323b872dd116102e157806323b872dd146104bd5780632b319a8f146104dd5780633013ce29146104fd578063313ce5671461053157005b806316314a691461046857806318160ddd146104885780631df374921461049d57005b8063095ea7b31161033d578063095ea7b3146103ec5780630d1af1031461041c57806312aef8c31461043c57806315482ce11461045257005b8062267f9a1461036857806306fdde031461039257806308551a53146103b457005b3661036657005b005b34801561037457600080fd5b5061037f6206978081565b6040519081526020015b60405180910390f35b34801561039e57600080fd5b506103a7610ac3565b6040516103899190612a66565b3480156103c057600080fd5b506009546103d4906001600160a01b031681565b6040516001600160a01b039091168152602001610389565b3480156103f857600080fd5b5061040c610407366004612ad0565b610b55565b6040519015158152602001610389565b34801561042857600080fd5b50610366610437366004612afa565b610b6f565b34801561044857600080fd5b5061037f600f5481565b34801561045e57600080fd5b5061037f60135481565b34801561047457600080fd5b50600d546103d4906001600160a01b031681565b34801561049457600080fd5b5060025461037f565b3480156104a957600080fd5b506103666104b8366004612b36565b610c56565b3480156104c957600080fd5b5061040c6104d8366004612afa565b610e6d565b3480156104e957600080fd5b5061037f6104f8366004612b51565b610ed7565b34801561050957600080fd5b506103d47f000000000000000000000000000000000000000000000000000000000000000081565b34801561053d57600080fd5b5060065b60405160ff9091168152602001610389565b34801561055f57600080fd5b50610366610ee7565b34801561057457600080fd5b5061059c610583366004612b36565b6016602052600090815260409020805460019091015482565b60408051928352602083019190915201610389565b3480156105bd57600080fd5b50600a546103d4906001600160a01b031681565b3480156105dd57600080fd5b5061040c6105ec366004612b51565b60086020526000908152604090205460ff1681565b34801561060d57600080fd5b5061036661061c366004612b36565b610ef9565b34801561062d57600080fd5b5060075460ff1661040c565b34801561064557600080fd5b50610541601e81565b34801561065a57600080fd5b50610366610669366004612b6a565b610f72565b34801561067a57600080fd5b50610366610689366004612b36565b610fd2565b34801561069a57600080fd5b506103666106a9366004612b36565b61108a565b3480156106ba57600080fd5b506103666106c9366004612b36565b611100565b3480156106da57600080fd5b5061037f6106e9366004612b36565b6001600160a01b031660009081526020819052604090205490565b34801561071057600080fd5b5061036661071f366004612ad0565b611175565b34801561073057600080fd5b506103666114ca565b34801561074557600080fd5b50610366610754366004612b36565b6114dc565b34801561076557600080fd5b50610541600a81565b34801561077a57600080fd5b5061040c610789366004612b36565b60156020526000908152604090205460ff1681565b3480156107aa57600080fd5b5061037f600e5481565b3480156107c057600080fd5b50610541606481565b3480156107d557600080fd5b50610366611588565b3480156107ea57600080fd5b506005546001600160a01b03166103d4565b34801561080857600080fd5b50610366611598565b34801561081d57600080fd5b5060075461040c90610100900460ff1681565b34801561083c57600080fd5b506103a761163a565b34801561085157600080fd5b50600d5461040c90600160a01b900460ff1681565b34801561087257600080fd5b50610366611649565b34801561088757600080fd5b5061040c610896366004612ad0565b611870565b3480156108a757600080fd5b506103666108b6366004612b36565b6118d8565b3480156108c757600080fd5b50600c546103d4906001600160a01b031681565b3480156108e757600080fd5b506103666108f6366004612ad0565b611947565b34801561090757600080fd5b50610366610916366004612b36565b611b02565b34801561092757600080fd5b50610541600381565b34801561093c57600080fd5b5061036661094b366004612b51565b611b9f565b34801561095c57600080fd5b5061037f60105481565b34801561097257600080fd5b50610366610981366004612b6a565b611c36565b34801561099257600080fd5b50600d5461040c90600160a81b900460ff1681565b3480156109b357600080fd5b50610541611c58565b3480156109c857600080fd5b5061040c6109d7366004612b8c565b611c67565b3480156109e857600080fd5b50600b546103d4906001600160a01b031681565b348015610a0857600080fd5b5061037f60115481565b348015610a1e57600080fd5b5061037f60125481565b348015610a3457600080fd5b50610541600f81565b348015610a4957600080fd5b5061037f610a58366004612c21565b6001600160a01b03918216600090815260016020908152604080832093909416825291909152205490565b348015610a8f57600080fd5b50610366610a9e366004612c54565b611e22565b348015610aaf57600080fd5b50610366610abe366004612b36565b61204d565b606060038054610ad290612c80565b80601f0160208091040260200160405190810160405280929190818152602001828054610afe90612c80565b8015610b4b5780601f10610b2057610100808354040283529160200191610b4b565b820191906000526020600020905b815481529060010190602001808311610b2e57829003601f168201915b5050505050905090565b600033610b63818585612088565b60019150505b92915050565b610b77612095565b610b7f6120c2565b6001600160a01b038316610be65760405162461bcd60e51b815260206004820152602360248201527f6f70657261746f725472616e736665723a2066726f6d207a65726f206164647260448201526265737360e81b60648201526084015b60405180910390fd5b6001600160a01b038216610c465760405162461bcd60e51b815260206004820152602160248201527f6f70657261746f725472616e736665723a20746f207a65726f206164647265736044820152607360f81b6064820152608401610bdd565b610c518383836120e6565b505050565b610c5e612095565b610c666120c2565b610c6e612145565b6001600160a01b0381166000908152601660209081526040918290208251808401909352805480845260019091015491830191909152610ce15760405162461bcd60e51b815260206004820152600e60248201526d2737903932b9b2b93b30ba34b7b760911b6044820152606401610bdd565b6001600160a01b03821660009081526015602052604090205460ff1615610d3b5760405162461bcd60e51b815260206004820152600e60248201526d105b1c9958591e481859dc99595960921b6044820152606401610bdd565b620697808160200151610d4e9190612cd0565b421015610d895760405162461bcd60e51b8152602060048201526009602482015268546f6f206561726c7960b81b6044820152606401610bdd565b805160128054600090610d9d908490612ce3565b90915550506001600160a01b0382166000908152601660205260408120818155600101819055610dcf6006600a612dda565b600e548351610dde9190612de9565b610de89190612e00565b9050610e1e6001600160a01b037f000000000000000000000000000000000000000000000000000000000000000016848361216f565b81516040519081526001600160a01b038416907fa171b6942063c6f2800ce40a780edce37baa2b618571b11eedd1e69e626e7d769060200160405180910390a25050610e6a6001600655565b50565b600754600090610100900460ff1615610ec45760405162461bcd60e51b8152602060048201526019602482015278111a5c9958dd081d1c985b9cd9995c9cc8191a5cd8589b1959603a1b6044820152606401610bdd565b610ecf8484846121ce565b949350505050565b600060115482610b699190612cd0565b610eef612095565b610ef76121f2565b565b610f01612095565b600b546001600160a01b031615610f505760405162461bcd60e51b8152602060048201526013602482015272119858dd1bdc9e48185b1c9958591e481cd95d606a1b6044820152606401610bdd565b600b80546001600160a01b0319166001600160a01b0392909216919091179055565b610f7a612095565b600d8054821515600160a81b0260ff60a81b199091161790556040517fe1965432af4c9923f6ebb98f1721262967cfa6178008742d23041dc8ee74ee8f90610fc790831515815260200190565b60405180910390a150565b610fda612095565b6001600160a01b0381166110215760405162461bcd60e51b815260206004820152600e60248201526d24b73b30b634b21039b2b63632b960911b6044820152606401610bdd565b600954604080516001600160a01b03928316815291831660208301527fd08dbba23a735d81eaf53ac5ede2c722bb186e9d3d46b62842853f0d017c2212910160405180910390a1600980546001600160a01b0319166001600160a01b0392909216919091179055565b600b546001600160a01b031633146110b45760405162461bcd60e51b8152600401610bdd90612e22565b6001600160a01b038116600081815260156020526040808220805460ff19166001179055517fec25952115d724de7fec274999c9cbe0cff9898f9f5128eaa42bd599138462a19190a250565b611108612095565b600b546001600160a01b0316156111535760405162461bcd60e51b815260206004820152600f60248201526e496e76616c6964206164647265737360881b6044820152606401610bdd565b601480546001600160a01b0319166001600160a01b0392909216919091179055565b61117d612145565b6111856120c2565b600b546001600160a01b031633146111af5760405162461bcd60e51b8152600401610bdd90612e22565b600d54600160a01b900460ff16156111fa5760405162461bcd60e51b815260206004820152600e60248201526d14d85b19481a185cc8195b99195960921b6044820152606401610bdd565b6001600160a01b03821660009081526015602052604090205460ff166112535760405162461bcd60e51b815260206004820152600e60248201526d111a5cd8db185a5b48199a5c9cdd60921b6044820152606401610bdd565b6000811161128e5760405162461bcd60e51b81526020600482015260086024820152670416d6f756e743e360c41b6044820152606401610bdd565b6001600160a01b038216600090815260166020908152604091829020825180840190935280548084526001909101549183019190915215611385578051821461130d5760405162461bcd60e51b8152602060048201526011602482015270135d5cdd08189d5e481c995cd95c9d9959607a1b6044820152606401610bdd565b816012600082825461131f9190612ce3565b90915550506001600160a01b0383166000908152601660205260408120818155600101819055600f8054849290611357908490612ce3565b9091555050600e546113699083612de9565b6011600082825461137a9190612cd0565b909155506114619050565b601254600f546113959190612ce3565b8211156113d35760405162461bcd60e51b815260206004820152600c60248201526b457863656564732073616c6560a01b6044820152606401610bdd565b60006113e16006600a612dda565b600e546113ee9085612de9565b6113f89190612e00565b905061142f6001600160a01b037f000000000000000000000000000000000000000000000000000000000000000016853084612244565b82600f60008282546114419190612ce3565b92505081905550806011600082825461145a9190612cd0565b9091555050505b600954611478906001600160a01b031684846120e6565b826001600160a01b03167f8f28852646c20cc973d3a8218f7eefed58c25c909f78f0265af4818c3d4dc271836040516114b391815260200190565b60405180910390a2506114c66001600655565b5050565b6114d2612095565b610ef76000612283565b6114e4612095565b6001600160a01b03811661152c5760405162461bcd60e51b815260206004820152600f60248201526e496e76616c6964206164647265737360881b6044820152606401610bdd565b600d546040516001600160a01b038084169216907fb27a84474703ce30a05e600606fa29dbcfb1671aa7363e45dbf0f1b78f3ee11690600090a3600d80546001600160a01b0319166001600160a01b0392909216919091179055565b611590612095565b610ef76122d5565b6115a0612095565b6115a86120c2565b600d54600160a01b900460ff16156115f75760405162461bcd60e51b815260206004820152601260248201527114d85b1948185b1c9958591e48195b99195960721b6044820152606401610bdd565b600d805460ff60a01b1916600160a01b1790556000600f8190556040517f7910379dd0db65208b77494ac6a3acca01262c78703f044e0abb7e4386a0bcbe9190a1565b606060048054610ad290612c80565b611651612145565b6116596120c2565b6005546001600160a01b031633148061167c5750600a546001600160a01b031633145b6116b95760405162461bcd60e51b815260206004820152600e60248201526d139bdd08185d5d1a1bdc9a5e995960921b6044820152606401610bdd565b600d54600160a01b900460ff166117125760405162461bcd60e51b815260206004820152601b60248201527f43616e6e6f7420776974686472617720647572696e672073616c6500000000006044820152606401610bdd565b6040516370a0823160e01b81523060048201526000907f00000000000000000000000000000000000000000000000000000000000000006001600160a01b0316906370a0823190602401602060405180830381865afa158015611779573d6000803e3d6000fd5b505050506040513d601f19601f8201168201806040525081019061179d9190612e48565b9050600081116117e65760405162461bcd60e51b81526020600482015260146024820152734e6f2066756e647320746f20776974686472617760601b6044820152606401610bdd565b600954611820906001600160a01b037f0000000000000000000000000000000000000000000000000000000000000000811691168361216f565b600954604080518381526001600160a01b0390921660208301527f8c7cdad0d12a8db3e23561b42da6f10c8137914c97beff202213a410e1f520a3910160405180910390a150610ef76001600655565b600754600090610100900460ff16156118c75760405162461bcd60e51b8152602060048201526019602482015278111a5c9958dd081d1c985b9cd9995c9cc8191a5cd8589b1959603a1b6044820152606401610bdd565b6118d18383612312565b9392505050565b6118e0612095565b6001600160a01b0381166119255760405162461bcd60e51b815260206004820152600c60248201526b5a65726f206164647265737360a01b6044820152606401610bdd565b600c80546001600160a01b0319166001600160a01b0392909216919091179055565b600b546001600160a01b031633146119715760405162461bcd60e51b8152600401610bdd90612e22565b600081116119ac5760405162461bcd60e51b81526020600482015260086024820152670416d6f756e743e360c41b6044820152606401610bdd565b6001600160a01b03821660009081526016602052604090205415611a055760405162461bcd60e51b815260206004820152601060248201526f105b1c9958591e481c995cd95c9d995960821b6044820152606401610bdd565b601254600f54611a159190612ce3565b811115611a535760405162461bcd60e51b815260206004820152600c60248201526b457863656564732073616c6560a01b6044820152606401610bdd565b6000611a616006600a612dda565b600e54611a6e9084612de9565b611a789190612e00565b9050611aaf6001600160a01b037f000000000000000000000000000000000000000000000000000000000000000016843084612244565b6040805180820182528381524260208083019182526001600160a01b03871660009081526016909152928320915182555160019091015560128054849290611af8908490612cd0565b9091555050505050565b611b0a612095565b6001600160a01b038116611b535760405162461bcd60e51b815260206004820152601060248201526f24b73b30b634b21037b832b930ba37b960811b6044820152606401610bdd565b600a80546001600160a01b0319166001600160a01b03831690811790915560405181907ffbe5b6cbafb274f445d7fed869dc77a838d8243a22c460de156560e8857cad0390600090a350565b611ba7612095565b600f5415611bf05760405162461bcd60e51b815260206004820152601660248201527543616e2774206d696e7420647572696e672073616c6560501b6044820152606401610bdd565b600954611c06906001600160a01b031682612320565b6040518181527f359675c23a13743cf846e03b084a0b1fd129ffa3404dbdd936effd23fb97aa9d90602001610fc7565b611c3e612095565b600780549115156101000261ff0019909216919091179055565b611c6460036064612e61565b81565b6000611c716120c2565b60008681526008602052604090205460ff1615611cc05760405162461bcd60e51b815260206004820152600d60248201526c427566666572207265706c617960981b6044820152606401610bdd565b6000868152600860209081526040808320805460ff1916600117905551611d1d91899133918891889101938452606092831b6bffffffffffffffffffffffff1990811660208601529190921b166034830152604882015260680190565b6040516020818303038152906040528051906020012090506000611d6e827f19457468657265756d205369676e6564204d6573736167653a0a3332000000006000908152601c91909152603c902090565b90506000611db488888080601f01602080910402602001604051908101604052809392919081815260200183838082843760009201919091525086939250506123569050565b6014549091506001600160a01b03808316911614611e085760405162461bcd60e51b8152602060048201526011602482015270496e76616c6964207369676e617475726560781b6044820152606401610bdd565b611e133387876120e6565b50600198975050505050505050565b611e2a612095565b611e326120c2565b60008211611e745760405162461bcd60e51b815260206004820152600f60248201526e0546f6b656e207072696365203e203608c1b6044820152606401610bdd565b6000611e7f60025490565b601381905590506064611e93600a83612de9565b611e9d9190612e00565b821015611edc5760405162461bcd60e51b815260206004820152600d60248201526c546172676574203e3d2031302560981b6044820152606401610bdd565b6064611ee9601e83612de9565b611ef39190612e00565b821115611f325760405162461bcd60e51b815260206004820152600d60248201526c546172676574203c3d2033302560981b6044820152606401610bdd565b6009546001600160a01b0316600090815260208190526040902054841115611f8d5760405162461bcd60e51b815260206004820152600e60248201526d53656c6c65722062616c206c6f7760901b6044820152606401610bdd565b6009546001600160a01b03166000908152602081905260409020548290611fb5908690612ce3565b14611ff75760405162461bcd60e51b8152602060048201526012602482015271109859081cd85b194bdd19dd081cdc1b1a5d60721b6044820152606401610bdd565b600f849055600e839055601082905560408051858152602081018590529081018390527f4d012a69148885509f5eb0377244099c968f990db1f853707b9d8e3fea20f7b99060600160405180910390a150505050565b612055612095565b6001600160a01b03811661207f57604051631e4fbdf760e01b815260006004820152602401610bdd565b610e6a81612283565b610c518383836001612380565b6005546001600160a01b03163314610ef75760405163118cdaa760e01b8152336004820152602401610bdd565b60075460ff1615610ef75760405163d93c066560e01b815260040160405180910390fd5b6001600160a01b03831661211057604051634b637e8f60e11b815260006004820152602401610bdd565b6001600160a01b03821661213a5760405163ec442f0560e01b815260006004820152602401610bdd565b610c51838383612455565b60026006540361216857604051633ee5aeb560e01b815260040160405180910390fd5b6002600655565b6040516001600160a01b03838116602483015260448201839052610c5191859182169063a9059cbb906064015b604051602081830303815290604052915060e01b6020820180516001600160e01b03838183161783525050505061246b565b6000336121dc8582856124dc565b6121e78585856120e6565b506001949350505050565b6121fa612555565b6007805460ff191690557f5db9ee0a495bf2e6ff9c91a7834c1ba4fdd244a5e8aa4e537bd38aeae4b073aa335b6040516001600160a01b03909116815260200160405180910390a1565b6040516001600160a01b03848116602483015283811660448301526064820183905261227d9186918216906323b872dd9060840161219c565b50505050565b600580546001600160a01b038381166001600160a01b0319831681179093556040519116919082907f8be0079c531659141344cd1fd0a4f28419497f9722a3daafe3b4186f6b6457e090600090a35050565b6122dd6120c2565b6007805460ff191660011790557f62e78cea01bee320cd4e420270b5ea74000d11b0c9f74754ebdbfc544b05a2586122273390565b600033610b638185856120e6565b6001600160a01b03821661234a5760405163ec442f0560e01b815260006004820152602401610bdd565b6114c660008383612455565b6000806000806123668686612578565b92509250925061237682826125c5565b5090949350505050565b6001600160a01b0384166123aa5760405163e602df0560e01b815260006004820152602401610bdd565b6001600160a01b0383166123d457604051634a1406b160e11b815260006004820152602401610bdd565b6001600160a01b038085166000908152600160209081526040808320938716835292905220829055801561227d57826001600160a01b0316846001600160a01b03167f8c5be1e5ebec7d5bd14f71427d1e84f3dd0314c0f7b2291e5b200ac8c7c3b9258460405161244791815260200190565b60405180910390a350505050565b61246083838361267e565b610c5183838361286d565b600080602060008451602086016000885af18061248e576040513d6000823e3d81fd5b50506000513d915081156124a65780600114156124b3565b6001600160a01b0384163b155b1561227d57604051635274afe760e01b81526001600160a01b0385166004820152602401610bdd565b6001600160a01b0383811660009081526001602090815260408083209386168352929052205460001981101561227d578181101561254657604051637dc7a0d960e11b81526001600160a01b03841660048201526024810182905260448101839052606401610bdd565b61227d84848484036000612380565b60075460ff16610ef757604051638dfc202b60e01b815260040160405180910390fd5b600080600083516041036125b25760208401516040850151606086015160001a6125a488828585612997565b9550955095505050506125be565b50508151600091506002905b9250925092565b60008260038111156125d9576125d9612e7a565b036125e2575050565b60018260038111156125f6576125f6612e7a565b036126145760405163f645eedf60e01b815260040160405180910390fd5b600282600381111561262857612628612e7a565b036126495760405163fce698f760e01b815260048101829052602401610bdd565b600382600381111561265d5761265d612e7a565b036114c6576040516335e2f38360e21b815260048101829052602401610bdd565b600d54600160a81b900460ff168061269d57506001600160a01b038316155b806126af57506001600160a01b038216155b6126f45760405162461bcd60e51b8152602060048201526016602482015275151c985b9cd9995c9cc8185c9948191a5cd8589b195960521b6044820152606401610bdd565b6001600160a01b0383161580159061271457506001600160a01b03821615155b15610c51576009546001600160a01b03908116908416036127b7576009546001600160a01b0316600090815260208190526040812054612755908390612ce3565b90506010548110156127b55760405162461bcd60e51b8152602060048201526024808201527f53656c6c6572206d7573742072657461696e206d696e696d756d206f776e65726044820152630736869760e41b6064820152608401610bdd565b505b6009546001600160a01b03838116911614610c515760006013546000146127e0576013546127e4565b6002545b905060646127f3600f83612de9565b6127fd9190612e00565b8261281d856001600160a01b031660009081526020819052604090205490565b6128279190612cd0565b111561227d5760405162461bcd60e51b8152602060048201526015602482015274042757965722065786365656473203135252063617605c1b6044820152606401610bdd565b6001600160a01b03831661289857806002600082825461288d9190612cd0565b9091555061290a9050565b6001600160a01b038316600090815260208190526040902054818110156128eb5760405163391434e360e21b81526001600160a01b03851660048201526024810182905260448101839052606401610bdd565b6001600160a01b03841660009081526020819052604090209082900390555b6001600160a01b03821661292657600280548290039055612945565b6001600160a01b03821660009081526020819052604090208054820190555b816001600160a01b0316836001600160a01b03167fddf252ad1be2c89b69c2b068fc378daa952ba7f163c4a11628f55a4df523b3ef8360405161298a91815260200190565b60405180910390a3505050565b600080807f7fffffffffffffffffffffffffffffff5d576e7357a4501ddfe92f46681b20a08411156129d25750600091506003905082612a5c565b604080516000808252602082018084528a905260ff891692820192909252606081018790526080810186905260019060a0016020604051602081039080840390855afa158015612a26573d6000803e3d6000fd5b5050604051601f1901519150506001600160a01b038116612a5257506000925060019150829050612a5c565b9250600091508190505b9450945094915050565b600060208083528351808285015260005b81811015612a9357858101830151858201604001528201612a77565b506000604082860101526040601f19601f8301168501019250505092915050565b80356001600160a01b0381168114612acb57600080fd5b919050565b60008060408385031215612ae357600080fd5b612aec83612ab4565b946020939093013593505050565b600080600060608486031215612b0f57600080fd5b612b1884612ab4565b9250612b2660208501612ab4565b9150604084013590509250925092565b600060208284031215612b4857600080fd5b6118d182612ab4565b600060208284031215612b6357600080fd5b5035919050565b600060208284031215612b7c57600080fd5b813580151581146118d157600080fd5b600080600080600060808688031215612ba457600080fd5b85359450602086013567ffffffffffffffff80821115612bc357600080fd5b818801915088601f830112612bd757600080fd5b813581811115612be657600080fd5b896020828501011115612bf857600080fd5b602083019650809550505050612c1060408701612ab4565b949793965091946060013592915050565b60008060408385031215612c3457600080fd5b612c3d83612ab4565b9150612c4b60208401612ab4565b90509250929050565b600080600060608486031215612c6957600080fd5b505081359360208301359350604090920135919050565b600181811c90821680612c9457607f821691505b602082108103612cb457634e487b7160e01b600052602260045260246000fd5b50919050565b634e487b7160e01b600052601160045260246000fd5b80820180821115610b6957610b69612cba565b81810381811115610b6957610b69612cba565b600181815b80851115612d31578160001904821115612d1757612d17612cba565b80851615612d2457918102915b93841c9390800290612cfb565b509250929050565b600082612d4857506001610b69565b81612d5557506000610b69565b8160018114612d6b5760028114612d7557612d91565b6001915050610b69565b60ff841115612d8657612d86612cba565b50506001821b610b69565b5060208310610133831016604e8410600b8410161715612db4575081810a610b69565b612dbe8383612cf6565b8060001904821115612dd257612dd2612cba565b029392505050565b60006118d160ff841683612d39565b8082028115828204841417610b6957610b69612cba565b600082612e1d57634e487b7160e01b600052601260045260246000fd5b500490565b6020808252600c908201526b4f6e6c7920666163746f727960a01b604082015260600190565b600060208284031215612e5a57600080fd5b5051919050565b60ff8281168282160390811115610b6957610b69612cba565b634e487b7160e01b600052602160045260246000fdfea26469706673582212206bcb7485133de53760ff1a8c37b9fb15fb11739cf182c76ace1fa955b5ac23e664736f6c63430008140033","opcodes":"PUSH1 0xA0 PUSH1 0x40 MSTORE PUSH1 0x7 DUP1 SLOAD PUSH2 0xFF00 NOT AND PUSH2 0x100 OR SWAP1 SSTORE PUSH1 0xD DUP1 SLOAD PUSH2 0xFFFF PUSH1 0xA0 SHL NOT AND PUSH1 0x1 PUSH1 0xA8 SHL OR SWAP1 SSTORE CALLVALUE DUP1 ISZERO PUSH3 0x34 JUMPI PUSH1 0x0 DUP1 REVERT JUMPDEST POP PUSH1 0x40 MLOAD PUSH3 0x38EA CODESIZE SUB DUP1 PUSH3 0x38EA DUP4 CODECOPY DUP2 ADD PUSH1 0x40 DUP2 SWAP1 MSTORE PUSH3 0x57 SWAP2 PUSH3 0x735 JUMP JUMPDEST DUP3 DUP9 DUP9 PUSH1 0x3 PUSH3 0x68 DUP4 DUP3 PUSH3 0x894 JUMP JUMPDEST POP PUSH1 0x4 PUSH3 0x77 DUP3 DUP3 PUSH3 0x894 JUMP JUMPDEST POP POP POP PUSH1 0x1 PUSH1 0x1 PUSH1 0xA0 SHL SUB DUP2 AND PUSH3 0xAA JUMPI PUSH1 0x40 MLOAD PUSH4 0x1E4FBDF7 PUSH1 0xE0 SHL DUP2 MSTORE PUSH1 0x0 PUSH1 0x4 DUP3 ADD MSTORE PUSH1 0x24 ADD JUMPDEST PUSH1 0x40 MLOAD DUP1 SWAP2 SUB SWAP1 REVERT JUMPDEST PUSH3 0xB5 DUP2 PUSH3 0x256 JUMP JUMPDEST POP PUSH1 0x1 PUSH1 0x6 SSTORE PUSH1 0x7 DUP1 SLOAD PUSH1 0xFF NOT AND SWAP1 SSTORE PUSH1 0x1 PUSH1 0x1 PUSH1 0xA0 SHL SUB DUP6 AND PUSH3 0x10E JUMPI PUSH1 0x40 MLOAD PUSH3 0x461BCD PUSH1 0xE5 SHL DUP2 MSTORE PUSH1 0x20 PUSH1 0x4 DUP3 ADD MSTORE PUSH1 0xE PUSH1 0x24 DUP3 ADD MSTORE PUSH14 0x24B73B30B634B21039B2B63632B9 PUSH1 0x91 SHL PUSH1 0x44 DUP3 ADD MSTORE PUSH1 0x64 ADD PUSH3 0xA1 JUMP JUMPDEST PUSH1 0x1 PUSH1 0x1 PUSH1 0xA0 SHL SUB DUP5 AND PUSH3 0x157 JUMPI PUSH1 0x40 MLOAD PUSH3 0x461BCD PUSH1 0xE5 SHL DUP2 MSTORE PUSH1 0x20 PUSH1 0x4 DUP3 ADD MSTORE PUSH1 0xE PUSH1 0x24 DUP3 ADD MSTORE PUSH14 0x496E76616C6964207768696D7379 PUSH1 0x90 SHL PUSH1 0x44 DUP3 ADD MSTORE PUSH1 0x64 ADD PUSH3 0xA1 JUMP JUMPDEST PUSH1 0x1 PUSH1 0x1 PUSH1 0xA0 SHL SUB DUP3 AND PUSH3 0x1AF JUMPI PUSH1 0x40 MLOAD PUSH3 0x461BCD PUSH1 0xE5 SHL DUP2 MSTORE PUSH1 0x20 PUSH1 0x4 DUP3 ADD MSTORE PUSH1 0x14 PUSH1 0x24 DUP3 ADD MSTORE PUSH32 0x496E76616C6964207061796D656E74546F6B656E000000000000000000000000 PUSH1 0x44 DUP3 ADD MSTORE PUSH1 0x64 ADD PUSH3 0xA1 JUMP JUMPDEST PUSH1 0xD DUP1 SLOAD PUSH1 0x1 PUSH1 0x1 PUSH1 0xA0 SHL SUB DUP1 DUP8 AND PUSH1 0x1 PUSH1 0x1 PUSH1 0xA0 SHL SUB NOT SWAP3 DUP4 AND OR SWAP1 SWAP3 SSTORE PUSH1 0x9 DUP1 SLOAD DUP9 DUP5 AND SWAP1 DUP4 AND OR SWAP1 SSTORE PUSH1 0xB DUP1 SLOAD DUP7 DUP5 AND SWAP1 DUP4 AND OR SWAP1 SSTORE DUP4 DUP3 AND PUSH1 0x80 MSTORE PUSH1 0x14 DUP1 SLOAD SWAP3 DUP5 AND SWAP3 SWAP1 SWAP2 AND SWAP2 SWAP1 SWAP2 OR SWAP1 SSTORE PUSH1 0x0 PUSH1 0x64 PUSH3 0x210 PUSH1 0x3 DUP10 PUSH3 0x976 JUMP JUMPDEST PUSH3 0x21C SWAP2 SWAP1 PUSH3 0x996 JUMP JUMPDEST SWAP1 POP PUSH1 0x0 PUSH3 0x22C DUP3 DUP10 PUSH3 0x9B9 JUMP JUMPDEST SWAP1 POP PUSH3 0x23A DUP8 DUP3 PUSH3 0x2A8 JUMP JUMPDEST PUSH3 0x246 DUP7 DUP4 PUSH3 0x2A8 JUMP JUMPDEST POP POP POP POP POP POP POP POP POP POP PUSH3 0x9E5 JUMP JUMPDEST PUSH1 0x5 DUP1 SLOAD PUSH1 0x1 PUSH1 0x1 PUSH1 0xA0 SHL SUB DUP4 DUP2 AND PUSH1 0x1 PUSH1 0x1 PUSH1 0xA0 SHL SUB NOT DUP4 AND DUP2 OR SWAP1 SWAP4 SSTORE PUSH1 0x40 MLOAD SWAP2 AND SWAP2 SWAP1 DUP3 SWAP1 PUSH32 0x8BE0079C531659141344CD1FD0A4F28419497F9722A3DAAFE3B4186F6B6457E0 SWAP1 PUSH1 0x0 SWAP1 LOG3 POP POP JUMP JUMPDEST PUSH1 0x1 PUSH1 0x1 PUSH1 0xA0 SHL SUB DUP3 AND PUSH3 0x2D4 JUMPI PUSH1 0x40 MLOAD PUSH4 0xEC442F05 PUSH1 0xE0 SHL DUP2 MSTORE PUSH1 0x0 PUSH1 0x4 DUP3 ADD MSTORE PUSH1 0x24 ADD PUSH3 0xA1 JUMP JUMPDEST PUSH3 0x2E2 PUSH1 0x0 DUP4 DUP4 PUSH3 0x2E6 JUMP JUMPDEST POP POP JUMP JUMPDEST PUSH3 0x2F3 DUP4 DUP4 DUP4 PUSH3 0x305 JUMP JUMPDEST PUSH3 0x300 DUP4 DUP4 DUP4 PUSH3 0x520 JUMP JUMPDEST POP POP POP JUMP JUMPDEST PUSH1 0xD SLOAD PUSH1 0x1 PUSH1 0xA8 SHL SWAP1 DIV PUSH1 0xFF AND DUP1 PUSH3 0x325 JUMPI POP PUSH1 0x1 PUSH1 0x1 PUSH1 0xA0 SHL SUB DUP4 AND ISZERO JUMPDEST DUP1 PUSH3 0x338 JUMPI POP PUSH1 0x1 PUSH1 0x1 PUSH1 0xA0 SHL SUB DUP3 AND ISZERO JUMPDEST PUSH3 0x386 JUMPI PUSH1 0x40 MLOAD PUSH3 0x461BCD PUSH1 0xE5 SHL DUP2 MSTORE PUSH1 0x20 PUSH1 0x4 DUP3 ADD MSTORE PUSH1 0x16 PUSH1 0x24 DUP3 ADD MSTORE PUSH32 0x5472616E7366657273206172652064697361626C656400000000000000000000 PUSH1 0x44 DUP3 ADD MSTORE PUSH1 0x64 ADD PUSH3 0xA1 JUMP JUMPDEST PUSH1 0x1 PUSH1 0x1 PUSH1 0xA0 SHL SUB DUP4 AND ISZERO DUP1 ISZERO SWAP1 PUSH3 0x3A7 JUMPI POP PUSH1 0x1 PUSH1 0x1 PUSH1 0xA0 SHL SUB DUP3 AND ISZERO ISZERO JUMPDEST ISZERO PUSH3 0x300 JUMPI PUSH1 0x9 SLOAD PUSH1 0x1 PUSH1 0x1 PUSH1 0xA0 SHL SUB SWAP1 DUP2 AND SWAP1 DUP5 AND SUB PUSH3 0x450 JUMPI PUSH1 0x9 SLOAD PUSH1 0x1 PUSH1 0x1 PUSH1 0xA0 SHL SUB AND PUSH1 0x0 SWAP1 DUP2 MSTORE PUSH1 0x20 DUP2 SWAP1 MSTORE PUSH1 0x40 DUP2 KECCAK256 SLOAD PUSH3 0x3EC SWAP1 DUP4 SWAP1 PUSH3 0x9B9 JUMP JUMPDEST SWAP1 POP PUSH1 0x10 SLOAD DUP2 LT ISZERO PUSH3 0x44E JUMPI PUSH1 0x40 MLOAD PUSH3 0x461BCD PUSH1 0xE5 SHL DUP2 MSTORE PUSH1 0x20 PUSH1 0x4 DUP3 ADD MSTORE PUSH1 0x24 DUP1 DUP3 ADD MSTORE PUSH32 0x53656C6C6572206D7573742072657461696E206D696E696D756D206F776E6572 PUSH1 0x44 DUP3 ADD MSTORE PUSH4 0x7368697 PUSH1 0xE4 SHL PUSH1 0x64 DUP3 ADD MSTORE PUSH1 0x84 ADD PUSH3 0xA1 JUMP JUMPDEST POP JUMPDEST PUSH1 0x9 SLOAD PUSH1 0x1 PUSH1 0x1 PUSH1 0xA0 SHL SUB DUP4 DUP2 AND SWAP2 AND EQ PUSH3 0x300 JUMPI PUSH1 0x0 PUSH1 0x13 SLOAD PUSH1 0x0 EQ PUSH3 0x47C JUMPI PUSH1 0x13 SLOAD PUSH3 0x480 JUMP JUMPDEST PUSH1 0x2 SLOAD JUMPDEST SWAP1 POP PUSH1 0x64 PUSH3 0x491 PUSH1 0xF DUP4 PUSH3 0x976 JUMP JUMPDEST PUSH3 0x49D SWAP2 SWAP1 PUSH3 0x996 JUMP JUMPDEST DUP3 PUSH3 0x4BE DUP6 PUSH1 0x1 PUSH1 0x1 PUSH1 0xA0 SHL SUB AND PUSH1 0x0 SWAP1 DUP2 MSTORE PUSH1 0x20 DUP2 SWAP1 MSTORE PUSH1 0x40 SWAP1 KECCAK256 SLOAD SWAP1 JUMP JUMPDEST PUSH3 0x4CA SWAP2 SWAP1 PUSH3 0x9CF JUMP JUMPDEST GT ISZERO PUSH3 0x51A JUMPI PUSH1 0x40 MLOAD PUSH3 0x461BCD PUSH1 0xE5 SHL DUP2 MSTORE PUSH1 0x20 PUSH1 0x4 DUP3 ADD MSTORE PUSH1 0x15 PUSH1 0x24 DUP3 ADD MSTORE PUSH32 0x4275796572206578636565647320313525206361700000000000000000000000 PUSH1 0x44 DUP3 ADD MSTORE PUSH1 0x64 ADD PUSH3 0xA1 JUMP JUMPDEST POP POP POP POP JUMP JUMPDEST PUSH1 0x1 PUSH1 0x1 PUSH1 0xA0 SHL SUB DUP4 AND PUSH3 0x54F JUMPI DUP1 PUSH1 0x2 PUSH1 0x0 DUP3 DUP3 SLOAD PUSH3 0x543 SWAP2 SWAP1 PUSH3 0x9CF JUMP JUMPDEST SWAP1 SWAP2 SSTORE POP PUSH3 0x5C3 SWAP1 POP JUMP JUMPDEST PUSH1 0x1 PUSH1 0x1 PUSH1 0xA0 SHL SUB DUP4 AND PUSH1 0x0 SWAP1 DUP2 MSTORE PUSH1 0x20 DUP2 SWAP1 MSTORE PUSH1 0x40 SWAP1 KECCAK256 SLOAD DUP2 DUP2 LT ISZERO PUSH3 0x5A4 JUMPI PUSH1 0x40 MLOAD PUSH4 0x391434E3 PUSH1 0xE2 SHL DUP2 MSTORE PUSH1 0x1 PUSH1 0x1 PUSH1 0xA0 SHL SUB DUP6 AND PUSH1 0x4 DUP3 ADD MSTORE PUSH1 0x24 DUP2 ADD DUP3 SWAP1 MSTORE PUSH1 0x44 DUP2 ADD DUP4 SWAP1 MSTORE PUSH1 0x64 ADD PUSH3 0xA1 JUMP JUMPDEST PUSH1 0x1 PUSH1 0x1 PUSH1 0xA0 SHL SUB DUP5 AND PUSH1 0x0 SWAP1 DUP2 MSTORE PUSH1 0x20 DUP2 SWAP1 MSTORE PUSH1 0x40 SWAP1 KECCAK256 SWAP1 DUP3 SWAP1 SUB SWAP1 SSTORE JUMPDEST PUSH1 0x1 PUSH1 0x1 PUSH1 0xA0 SHL SUB DUP3 AND PUSH3 0x5E1 JUMPI PUSH1 0x2 DUP1 SLOAD DUP3 SWAP1 SUB SWAP1 SSTORE PUSH3 0x600 JUMP JUMPDEST PUSH1 0x1 PUSH1 0x1 PUSH1 0xA0 SHL SUB DUP3 AND PUSH1 0x0 SWAP1 DUP2 MSTORE PUSH1 0x20 DUP2 SWAP1 MSTORE PUSH1 0x40 SWAP1 KECCAK256 DUP1 SLOAD DUP3 ADD SWAP1 SSTORE JUMPDEST DUP2 PUSH1 0x1 PUSH1 0x1 PUSH1 0xA0 SHL SUB AND DUP4 PUSH1 0x1 PUSH1 0x1 PUSH1 0xA0 SHL SUB AND PUSH32 0xDDF252AD1BE2C89B69C2B068FC378DAA952BA7F163C4A11628F55A4DF523B3EF DUP4 PUSH1 0x40 MLOAD PUSH3 0x646 SWAP2 DUP2 MSTORE PUSH1 0x20 ADD SWAP1 JUMP JUMPDEST PUSH1 0x40 MLOAD DUP1 SWAP2 SUB SWAP1 LOG3 POP POP POP JUMP JUMPDEST PUSH4 0x4E487B71 PUSH1 0xE0 SHL PUSH1 0x0 MSTORE PUSH1 0x41 PUSH1 0x4 MSTORE PUSH1 0x24 PUSH1 0x0 REVERT JUMPDEST PUSH1 0x0 DUP3 PUSH1 0x1F DUP4 ADD SLT PUSH3 0x67B JUMPI PUSH1 0x0 DUP1 REVERT JUMPDEST DUP2 MLOAD PUSH1 0x1 PUSH1 0x1 PUSH1 0x40 SHL SUB DUP1 DUP3 GT ISZERO PUSH3 0x698 JUMPI PUSH3 0x698 PUSH3 0x653 JUMP JUMPDEST PUSH1 0x40 MLOAD PUSH1 0x1F DUP4 ADD PUSH1 0x1F NOT SWAP1 DUP2 AND PUSH1 0x3F ADD AND DUP2 ADD SWAP1 DUP3 DUP3 GT DUP2 DUP4 LT OR ISZERO PUSH3 0x6C3 JUMPI PUSH3 0x6C3 PUSH3 0x653 JUMP JUMPDEST DUP2 PUSH1 0x40 MSTORE DUP4 DUP2 MSTORE PUSH1 0x20 SWAP3 POP DUP7 DUP4 DUP6 DUP9 ADD ADD GT ISZERO PUSH3 0x6E0 JUMPI PUSH1 0x0 DUP1 REVERT JUMPDEST PUSH1 0x0 SWAP2 POP JUMPDEST DUP4 DUP3 LT ISZERO PUSH3 0x704 JUMPI DUP6 DUP3 ADD DUP4 ADD MLOAD DUP2 DUP4 ADD DUP5 ADD MSTORE SWAP1 DUP3 ADD SWAP1 PUSH3 0x6E5 JUMP JUMPDEST PUSH1 0x0 SWAP4 DUP2 ADD SWAP1 SWAP3 ADD SWAP3 SWAP1 SWAP3 MSTORE SWAP5 SWAP4 POP POP POP POP JUMP JUMPDEST DUP1 MLOAD PUSH1 0x1 PUSH1 0x1 PUSH1 0xA0 SHL SUB DUP2 AND DUP2 EQ PUSH3 0x730 JUMPI PUSH1 0x0 DUP1 REVERT JUMPDEST SWAP2 SWAP1 POP JUMP JUMPDEST PUSH1 0x0 DUP1 PUSH1 0x0 DUP1 PUSH1 0x0 DUP1 PUSH1 0x0 DUP1 PUSH2 0x100 DUP10 DUP12 SUB SLT ISZERO PUSH3 0x753 JUMPI PUSH1 0x0 DUP1 REVERT JUMPDEST DUP9 MLOAD PUSH1 0x1 PUSH1 0x1 PUSH1 0x40 SHL SUB DUP1 DUP3 GT ISZERO PUSH3 0x76B JUMPI PUSH1 0x0 DUP1 REVERT JUMPDEST PUSH3 0x779 DUP13 DUP4 DUP14 ADD PUSH3 0x669 JUMP JUMPDEST SWAP10 POP PUSH1 0x20 DUP12 ADD MLOAD SWAP2 POP DUP1 DUP3 GT ISZERO PUSH3 0x790 JUMPI PUSH1 0x0 DUP1 REVERT JUMPDEST POP PUSH3 0x79F DUP12 DUP3 DUP13 ADD PUSH3 0x669 JUMP JUMPDEST SWAP8 POP POP PUSH1 0x40 DUP10 ADD MLOAD SWAP6 POP PUSH3 0x7B7 PUSH1 0x60 DUP11 ADD PUSH3 0x718 JUMP JUMPDEST SWAP5 POP PUSH3 0x7C7 PUSH1 0x80 DUP11 ADD PUSH3 0x718 JUMP JUMPDEST SWAP4 POP PUSH3 0x7D7 PUSH1 0xA0 DUP11 ADD PUSH3 0x718 JUMP JUMPDEST SWAP3 POP PUSH3 0x7E7 PUSH1 0xC0 DUP11 ADD PUSH3 0x718 JUMP JUMPDEST SWAP2 POP PUSH3 0x7F7 PUSH1 0xE0 DUP11 ADD PUSH3 0x718 JUMP JUMPDEST SWAP1 POP SWAP3 SWAP6 SWAP9 POP SWAP3 SWAP6 SWAP9 SWAP1 SWAP4 SWAP7 POP JUMP JUMPDEST PUSH1 0x1 DUP2 DUP2 SHR SWAP1 DUP3 AND DUP1 PUSH3 0x81B JUMPI PUSH1 0x7F DUP3 AND SWAP2 POP JUMPDEST PUSH1 0x20 DUP3 LT DUP2 SUB PUSH3 0x83C JUMPI PUSH4 0x4E487B71 PUSH1 0xE0 SHL PUSH1 0x0 MSTORE PUSH1 0x22 PUSH1 0x4 MSTORE PUSH1 0x24 PUSH1 0x0 REVERT JUMPDEST POP SWAP2 SWAP1 POP JUMP JUMPDEST PUSH1 0x1F DUP3 GT ISZERO PUSH3 0x300 JUMPI PUSH1 0x0 DUP2 DUP2 MSTORE PUSH1 0x20 DUP2 KECCAK256 PUSH1 0x1F DUP6 ADD PUSH1 0x5 SHR DUP2 ADD PUSH1 0x20 DUP7 LT ISZERO PUSH3 0x86B JUMPI POP DUP1 JUMPDEST PUSH1 0x1F DUP6 ADD PUSH1 0x5 SHR DUP3 ADD SWAP2 POP JUMPDEST DUP2 DUP2 LT ISZERO PUSH3 0x88C JUMPI DUP3 DUP2 SSTORE PUSH1 0x1 ADD PUSH3 0x877 JUMP JUMPDEST POP POP POP POP POP POP JUMP JUMPDEST DUP2 MLOAD PUSH1 0x1 PUSH1 0x1 PUSH1 0x40 SHL SUB DUP2 GT ISZERO PUSH3 0x8B0 JUMPI PUSH3 0x8B0 PUSH3 0x653 JUMP JUMPDEST PUSH3 0x8C8 DUP2 PUSH3 0x8C1 DUP5 SLOAD PUSH3 0x806 JUMP JUMPDEST DUP5 PUSH3 0x842 JUMP JUMPDEST PUSH1 0x20 DUP1 PUSH1 0x1F DUP4 GT PUSH1 0x1 DUP2 EQ PUSH3 0x900 JUMPI PUSH1 0x0 DUP5 ISZERO PUSH3 0x8E7 JUMPI POP DUP6 DUP4 ADD MLOAD JUMPDEST PUSH1 0x0 NOT PUSH1 0x3 DUP7 SWAP1 SHL SHR NOT AND PUSH1 0x1 DUP6 SWAP1 SHL OR DUP6 SSTORE PUSH3 0x88C JUMP JUMPDEST PUSH1 0x0 DUP6 DUP2 MSTORE PUSH1 0x20 DUP2 KECCAK256 PUSH1 0x1F NOT DUP7 AND SWAP2 JUMPDEST DUP3 DUP2 LT ISZERO PUSH3 0x931 JUMPI DUP9 DUP7 ADD MLOAD DUP3 SSTORE SWAP5 DUP5 ADD SWAP5 PUSH1 0x1 SWAP1 SWAP2 ADD SWAP1 DUP5 ADD PUSH3 0x910 JUMP JUMPDEST POP DUP6 DUP3 LT ISZERO PUSH3 0x950 JUMPI DUP8 DUP6 ADD MLOAD PUSH1 0x0 NOT PUSH1 0x3 DUP9 SWAP1 SHL PUSH1 0xF8 AND SHR NOT AND DUP2 SSTORE JUMPDEST POP POP POP POP POP PUSH1 0x1 SWAP1 DUP2 SHL ADD SWAP1 SSTORE POP JUMP JUMPDEST PUSH4 0x4E487B71 PUSH1 0xE0 SHL PUSH1 0x0 MSTORE PUSH1 0x11 PUSH1 0x4 MSTORE PUSH1 0x24 PUSH1 0x0 REVERT JUMPDEST DUP1 DUP3 MUL DUP2 ISZERO DUP3 DUP3 DIV DUP5 EQ OR PUSH3 0x990 JUMPI PUSH3 0x990 PUSH3 0x960 JUMP JUMPDEST SWAP3 SWAP2 POP POP JUMP JUMPDEST PUSH1 0x0 DUP3 PUSH3 0x9B4 JUMPI PUSH4 0x4E487B71 PUSH1 0xE0 SHL PUSH1 0x0 MSTORE PUSH1 0x12 PUSH1 0x4 MSTORE PUSH1 0x24 PUSH1 0x0 REVERT JUMPDEST POP DIV SWAP1 JUMP JUMPDEST DUP2 DUP2 SUB DUP2 DUP2 GT ISZERO PUSH3 0x990 JUMPI PUSH3 0x990 PUSH3 0x960 JUMP JUMPDEST DUP1 DUP3 ADD DUP1 DUP3 GT ISZERO PUSH3 0x990 JUMPI PUSH3 0x990 PUSH3 0x960 JUMP JUMPDEST PUSH1 0x80 MLOAD PUSH2 0x2EC6 PUSH3 0xA24 PUSH1 0x0 CODECOPY PUSH1 0x0 DUP2 DUP2 PUSH2 0x50F ADD MSTORE DUP2 DUP2 PUSH2 0xDF7 ADD MSTORE DUP2 DUP2 PUSH2 0x1407 ADD MSTORE DUP2 DUP2 PUSH2 0x172A ADD MSTORE DUP2 DUP2 PUSH2 0x17F7 ADD MSTORE PUSH2 0x1A87 ADD MSTORE PUSH2 0x2EC6 PUSH1 0x0 RETURN INVALID PUSH1 0x80 PUSH1 0x40 MSTORE PUSH1 0x4 CALLDATASIZE LT PUSH2 0x35F JUMPI PUSH1 0x0 CALLDATALOAD PUSH1 0xE0 SHR DUP1 PUSH4 0x7B239E22 GT PUSH2 0x1C4 JUMPI DUP1 PUSH4 0xB3AB15FB GT PUSH2 0xF6 JUMPI DUP1 PUSH4 0xC421D18F GT PUSH2 0x9A JUMPI DUP1 PUSH4 0xD5CF7CFE GT PUSH2 0x6C JUMPI DUP1 PUSH4 0xD5CF7CFE EQ PUSH2 0xA28 JUMPI DUP1 PUSH4 0xDD62ED3E EQ PUSH2 0xA3D JUMPI DUP1 PUSH4 0xE249B7CE EQ PUSH2 0xA83 JUMPI DUP1 PUSH4 0xF2FDE38B EQ PUSH2 0xAA3 JUMPI STOP JUMPDEST DUP1 PUSH4 0xC421D18F EQ PUSH2 0x9BC JUMPI DUP1 PUSH4 0xC45A0155 EQ PUSH2 0x9DC JUMPI DUP1 PUSH4 0xC5C4744C EQ PUSH2 0x9FC JUMPI DUP1 PUSH4 0xC71B0E1C EQ PUSH2 0xA12 JUMPI STOP JUMPDEST DUP1 PUSH4 0xBB979D62 GT PUSH2 0xD3 JUMPI DUP1 PUSH4 0xBB979D62 EQ PUSH2 0x950 JUMPI DUP1 PUSH4 0xBBD30FB9 EQ PUSH2 0x966 JUMPI DUP1 PUSH4 0xBEF97C87 EQ PUSH2 0x986 JUMPI DUP1 PUSH4 0xC157C5FF EQ PUSH2 0x9A7 JUMPI STOP JUMPDEST DUP1 PUSH4 0xB3AB15FB EQ PUSH2 0x8FB JUMPI DUP1 PUSH4 0xB91F6F0E EQ PUSH2 0x91B JUMPI DUP1 PUSH4 0xB921E163 EQ PUSH2 0x930 JUMPI STOP JUMPDEST DUP1 PUSH4 0x93634C0A GT PUSH2 0x168 JUMPI DUP1 PUSH4 0xA9059CBB GT PUSH2 0x13A JUMPI DUP1 PUSH4 0xA9059CBB EQ PUSH2 0x87B JUMPI DUP1 PUSH4 0xAB033EA9 EQ PUSH2 0x89B JUMPI DUP1 PUSH4 0xB172B222 EQ PUSH2 0x8BB JUMPI DUP1 PUSH4 0xB2826B91 EQ PUSH2 0x8DB JUMPI STOP JUMPDEST DUP1 PUSH4 0x93634C0A EQ PUSH2 0x811 JUMPI DUP1 PUSH4 0x95D89B41 EQ PUSH2 0x830 JUMPI DUP1 PUSH4 0x9B8906AE EQ PUSH2 0x845 JUMPI DUP1 PUSH4 0xA118BABD EQ PUSH2 0x866 JUMPI STOP JUMPDEST DUP1 PUSH4 0x805D835D GT PUSH2 0x1A1 JUMPI DUP1 PUSH4 0x805D835D EQ PUSH2 0x7B4 JUMPI DUP1 PUSH4 0x8456CB59 EQ PUSH2 0x7C9 JUMPI DUP1 PUSH4 0x8DA5CB5B EQ PUSH2 0x7DE JUMPI DUP1 PUSH4 0x8F52F0F9 EQ PUSH2 0x7FC JUMPI STOP JUMPDEST DUP1 PUSH4 0x7B239E22 EQ PUSH2 0x759 JUMPI DUP1 PUSH4 0x7D6C8C00 EQ PUSH2 0x76E JUMPI DUP1 PUSH4 0x7FF9B596 EQ PUSH2 0x79E JUMPI STOP JUMPDEST DUP1 PUSH4 0x3F4BA83A GT PUSH2 0x29D JUMPI DUP1 PUSH4 0x68504158 GT PUSH2 0x241 JUMPI DUP1 PUSH4 0x70A08231 GT PUSH2 0x213 JUMPI DUP1 PUSH4 0x70A08231 EQ PUSH2 0x6CE JUMPI DUP1 PUSH4 0x712DAA75 EQ PUSH2 0x704 JUMPI DUP1 PUSH4 0x715018A6 EQ PUSH2 0x724 JUMPI DUP1 PUSH4 0x74FAA74B EQ PUSH2 0x739 JUMPI STOP JUMPDEST DUP1 PUSH4 0x68504158 EQ PUSH2 0x64E JUMPI DUP1 PUSH4 0x685DAB8F EQ PUSH2 0x66E JUMPI DUP1 PUSH4 0x6ADD3BDB EQ PUSH2 0x68E JUMPI DUP1 PUSH4 0x6C19E783 EQ PUSH2 0x6AE JUMPI STOP JUMPDEST DUP1 PUSH4 0x58BCC4FB GT PUSH2 0x27A JUMPI DUP1 PUSH4 0x58BCC4FB EQ PUSH2 0x5D1 JUMPI DUP1 PUSH4 0x5BB47808 EQ PUSH2 0x601 JUMPI DUP1 PUSH4 0x5C975ABB EQ PUSH2 0x621 JUMPI DUP1 PUSH4 0x624B233D EQ PUSH2 0x639 JUMPI STOP JUMPDEST DUP1 PUSH4 0x3F4BA83A EQ PUSH2 0x553 JUMPI DUP1 PUSH4 0x490DEB3D EQ PUSH2 0x568 JUMPI DUP1 PUSH4 0x570CA735 EQ PUSH2 0x5B1 JUMPI STOP JUMPDEST DUP1 PUSH4 0x16314A69 GT PUSH2 0x304 JUMPI DUP1 PUSH4 0x23B872DD GT PUSH2 0x2E1 JUMPI DUP1 PUSH4 0x23B872DD EQ PUSH2 0x4BD JUMPI DUP1 PUSH4 0x2B319A8F EQ PUSH2 0x4DD JUMPI DUP1 PUSH4 0x3013CE29 EQ PUSH2 0x4FD JUMPI DUP1 PUSH4 0x313CE567 EQ PUSH2 0x531 JUMPI STOP JUMPDEST DUP1 PUSH4 0x16314A69 EQ PUSH2 0x468 JUMPI DUP1 PUSH4 0x18160DDD EQ PUSH2 0x488 JUMPI DUP1 PUSH4 0x1DF37492 EQ PUSH2 0x49D JUMPI STOP JUMPDEST DUP1 PUSH4 0x95EA7B3 GT PUSH2 0x33D JUMPI DUP1 PUSH4 0x95EA7B3 EQ PUSH2 0x3EC JUMPI DUP1 PUSH4 0xD1AF103 EQ PUSH2 0x41C JUMPI DUP1 PUSH4 0x12AEF8C3 EQ PUSH2 0x43C JUMPI DUP1 PUSH4 0x15482CE1 EQ PUSH2 0x452 JUMPI STOP JUMPDEST DUP1 PUSH3 0x267F9A EQ PUSH2 0x368 JUMPI DUP1 PUSH4 0x6FDDE03 EQ PUSH2 0x392 JUMPI DUP1 PUSH4 0x8551A53 EQ PUSH2 0x3B4 JUMPI STOP JUMPDEST CALLDATASIZE PUSH2 0x366 JUMPI STOP JUMPDEST STOP JUMPDEST CALLVALUE DUP1 ISZERO PUSH2 0x374 JUMPI PUSH1 0x0 DUP1 REVERT JUMPDEST POP PUSH2 0x37F PUSH3 0x69780 DUP2 JUMP JUMPDEST PUSH1 0x40 MLOAD SWAP1 DUP2 MSTORE PUSH1 0x20 ADD JUMPDEST PUSH1 0x40 MLOAD DUP1 SWAP2 SUB SWAP1 RETURN JUMPDEST CALLVALUE DUP1 ISZERO PUSH2 0x39E JUMPI PUSH1 0x0 DUP1 REVERT JUMPDEST POP PUSH2 0x3A7 PUSH2 0xAC3 JUMP JUMPDEST PUSH1 0x40 MLOAD PUSH2 0x389 SWAP2 SWAP1 PUSH2 0x2A66 JUMP JUMPDEST CALLVALUE DUP1 ISZERO PUSH2 0x3C0 JUMPI PUSH1 0x0 DUP1 REVERT JUMPDEST POP PUSH1 0x9 SLOAD PUSH2 0x3D4 SWAP1 PUSH1 0x1 PUSH1 0x1 PUSH1 0xA0 SHL SUB AND DUP2 JUMP JUMPDEST PUSH1 0x40 MLOAD PUSH1 0x1 PUSH1 0x1 PUSH1 0xA0 SHL SUB SWAP1 SWAP2 AND DUP2 MSTORE PUSH1 0x20 ADD PUSH2 0x389 JUMP JUMPDEST CALLVALUE DUP1 ISZERO PUSH2 0x3F8 JUMPI PUSH1 0x0 DUP1 REVERT JUMPDEST POP PUSH2 0x40C PUSH2 0x407 CALLDATASIZE PUSH1 0x4 PUSH2 0x2AD0 JUMP JUMPDEST PUSH2 0xB55 JUMP JUMPDEST PUSH1 0x40 MLOAD SWAP1 ISZERO ISZERO DUP2 MSTORE PUSH1 0x20 ADD PUSH2 0x389 JUMP JUMPDEST CALLVALUE DUP1 ISZERO PUSH2 0x428 JUMPI PUSH1 0x0 DUP1 REVERT JUMPDEST POP PUSH2 0x366 PUSH2 0x437 CALLDATASIZE PUSH1 0x4 PUSH2 0x2AFA JUMP JUMPDEST PUSH2 0xB6F JUMP JUMPDEST CALLVALUE DUP1 ISZERO PUSH2 0x448 JUMPI PUSH1 0x0 DUP1 REVERT JUMPDEST POP PUSH2 0x37F PUSH1 0xF SLOAD DUP2 JUMP JUMPDEST CALLVALUE DUP1 ISZERO PUSH2 0x45E JUMPI PUSH1 0x0 DUP1 REVERT JUMPDEST POP PUSH2 0x37F PUSH1 0x13 SLOAD DUP2 JUMP JUMPDEST CALLVALUE DUP1 ISZERO PUSH2 0x474 JUMPI PUSH1 0x0 DUP1 REVERT JUMPDEST POP PUSH1 0xD SLOAD PUSH2 0x3D4 SWAP1 PUSH1 0x1 PUSH1 0x1 PUSH1 0xA0 SHL SUB AND DUP2 JUMP JUMPDEST CALLVALUE DUP1 ISZERO PUSH2 0x494 JUMPI PUSH1 0x0 DUP1 REVERT JUMPDEST POP PUSH1 0x2 SLOAD PUSH2 0x37F JUMP JUMPDEST CALLVALUE DUP1 ISZERO PUSH2 0x4A9 JUMPI PUSH1 0x0 DUP1 REVERT JUMPDEST POP PUSH2 0x366 PUSH2 0x4B8 CALLDATASIZE PUSH1 0x4 PUSH2 0x2B36 JUMP JUMPDEST PUSH2 0xC56 JUMP JUMPDEST CALLVALUE DUP1 ISZERO PUSH2 0x4C9 JUMPI PUSH1 0x0 DUP1 REVERT JUMPDEST POP PUSH2 0x40C PUSH2 0x4D8 CALLDATASIZE PUSH1 0x4 PUSH2 0x2AFA JUMP JUMPDEST PUSH2 0xE6D JUMP JUMPDEST CALLVALUE DUP1 ISZERO PUSH2 0x4E9 JUMPI PUSH1 0x0 DUP1 REVERT JUMPDEST POP PUSH2 0x37F PUSH2 0x4F8 CALLDATASIZE PUSH1 0x4 PUSH2 0x2B51 JUMP JUMPDEST PUSH2 0xED7 JUMP JUMPDEST CALLVALUE DUP1 ISZERO PUSH2 0x509 JUMPI PUSH1 0x0 DUP1 REVERT JUMPDEST POP PUSH2 0x3D4 PUSH32 0x0 DUP2 JUMP JUMPDEST CALLVALUE DUP1 ISZERO PUSH2 0x53D JUMPI PUSH1 0x0 DUP1 REVERT JUMPDEST POP PUSH1 0x6 JUMPDEST PUSH1 0x40 MLOAD PUSH1 0xFF SWAP1 SWAP2 AND DUP2 MSTORE PUSH1 0x20 ADD PUSH2 0x389 JUMP JUMPDEST CALLVALUE DUP1 ISZERO PUSH2 0x55F JUMPI PUSH1 0x0 DUP1 REVERT JUMPDEST POP PUSH2 0x366 PUSH2 0xEE7 JUMP JUMPDEST CALLVALUE DUP1 ISZERO PUSH2 0x574 JUMPI PUSH1 0x0 DUP1 REVERT JUMPDEST POP PUSH2 0x59C PUSH2 0x583 CALLDATASIZE PUSH1 0x4 PUSH2 0x2B36 JUMP JUMPDEST PUSH1 0x16 PUSH1 0x20 MSTORE PUSH1 0x0 SWAP1 DUP2 MSTORE PUSH1 0x40 SWAP1 KECCAK256 DUP1 SLOAD PUSH1 0x1 SWAP1 SWAP2 ADD SLOAD DUP3 JUMP JUMPDEST PUSH1 0x40 DUP1 MLOAD SWAP3 DUP4 MSTORE PUSH1 0x20 DUP4 ADD SWAP2 SWAP1 SWAP2 MSTORE ADD PUSH2 0x389 JUMP JUMPDEST CALLVALUE DUP1 ISZERO PUSH2 0x5BD JUMPI PUSH1 0x0 DUP1 REVERT JUMPDEST POP PUSH1 0xA SLOAD PUSH2 0x3D4 SWAP1 PUSH1 0x1 PUSH1 0x1 PUSH1 0xA0 SHL SUB AND DUP2 JUMP JUMPDEST CALLVALUE DUP1 ISZERO PUSH2 0x5DD JUMPI PUSH1 0x0 DUP1 REVERT JUMPDEST POP PUSH2 0x40C PUSH2 0x5EC CALLDATASIZE PUSH1 0x4 PUSH2 0x2B51 JUMP JUMPDEST PUSH1 0x8 PUSH1 0x20 MSTORE PUSH1 0x0 SWAP1 DUP2 MSTORE PUSH1 0x40 SWAP1 KECCAK256 SLOAD PUSH1 0xFF AND DUP2 JUMP JUMPDEST CALLVALUE DUP1 ISZERO PUSH2 0x60D JUMPI PUSH1 0x0 DUP1 REVERT JUMPDEST POP PUSH2 0x366 PUSH2 0x61C CALLDATASIZE PUSH1 0x4 PUSH2 0x2B36 JUMP JUMPDEST PUSH2 0xEF9 JUMP JUMPDEST CALLVALUE DUP1 ISZERO PUSH2 0x62D JUMPI PUSH1 0x0 DUP1 REVERT JUMPDEST POP PUSH1 0x7 SLOAD PUSH1 0xFF AND PUSH2 0x40C JUMP JUMPDEST CALLVALUE DUP1 ISZERO PUSH2 0x645 JUMPI PUSH1 0x0 DUP1 REVERT JUMPDEST POP PUSH2 0x541 PUSH1 0x1E DUP2 JUMP JUMPDEST CALLVALUE DUP1 ISZERO PUSH2 0x65A JUMPI PUSH1 0x0 DUP1 REVERT JUMPDEST POP PUSH2 0x366 PUSH2 0x669 CALLDATASIZE PUSH1 0x4 PUSH2 0x2B6A JUMP JUMPDEST PUSH2 0xF72 JUMP JUMPDEST CALLVALUE DUP1 ISZERO PUSH2 0x67A JUMPI PUSH1 0x0 DUP1 REVERT JUMPDEST POP PUSH2 0x366 PUSH2 0x689 CALLDATASIZE PUSH1 0x4 PUSH2 0x2B36 JUMP JUMPDEST PUSH2 0xFD2 JUMP JUMPDEST CALLVALUE DUP1 ISZERO PUSH2 0x69A JUMPI PUSH1 0x0 DUP1 REVERT JUMPDEST POP PUSH2 0x366 PUSH2 0x6A9 CALLDATASIZE PUSH1 0x4 PUSH2 0x2B36 JUMP JUMPDEST PUSH2 0x108A JUMP JUMPDEST CALLVALUE DUP1 ISZERO PUSH2 0x6BA JUMPI PUSH1 0x0 DUP1 REVERT JUMPDEST POP PUSH2 0x366 PUSH2 0x6C9 CALLDATASIZE PUSH1 0x4 PUSH2 0x2B36 JUMP JUMPDEST PUSH2 0x1100 JUMP JUMPDEST CALLVALUE DUP1 ISZERO PUSH2 0x6DA JUMPI PUSH1 0x0 DUP1 REVERT JUMPDEST POP PUSH2 0x37F PUSH2 0x6E9 CALLDATASIZE PUSH1 0x4 PUSH2 0x2B36 JUMP JUMPDEST PUSH1 0x1 PUSH1 0x1 PUSH1 0xA0 SHL SUB AND PUSH1 0x0 SWAP1 DUP2 MSTORE PUSH1 0x20 DUP2 SWAP1 MSTORE PUSH1 0x40 SWAP1 KECCAK256 SLOAD SWAP1 JUMP JUMPDEST CALLVALUE DUP1 ISZERO PUSH2 0x710 JUMPI PUSH1 0x0 DUP1 REVERT JUMPDEST POP PUSH2 0x366 PUSH2 0x71F CALLDATASIZE PUSH1 0x4 PUSH2 0x2AD0 JUMP JUMPDEST PUSH2 0x1175 JUMP JUMPDEST CALLVALUE DUP1 ISZERO PUSH2 0x730 JUMPI PUSH1 0x0 DUP1 REVERT JUMPDEST POP PUSH2 0x366 PUSH2 0x14CA JUMP JUMPDEST CALLVALUE DUP1 ISZERO PUSH2 0x745 JUMPI PUSH1 0x0 DUP1 REVERT JUMPDEST POP PUSH2 0x366 PUSH2 0x754 CALLDATASIZE PUSH1 0x4 PUSH2 0x2B36 JUMP JUMPDEST PUSH2 0x14DC JUMP JUMPDEST CALLVALUE DUP1 ISZERO PUSH2 0x765 JUMPI PUSH1 0x0 DUP1 REVERT JUMPDEST POP PUSH2 0x541 PUSH1 0xA DUP2 JUMP JUMPDEST CALLVALUE DUP1 ISZERO PUSH2 0x77A JUMPI PUSH1 0x0 DUP1 REVERT JUMPDEST POP PUSH2 0x40C PUSH2 0x789 CALLDATASIZE PUSH1 0x4 PUSH2 0x2B36 JUMP JUMPDEST PUSH1 0x15 PUSH1 0x20 MSTORE PUSH1 0x0 SWAP1 DUP2 MSTORE PUSH1 0x40 SWAP1 KECCAK256 SLOAD PUSH1 0xFF AND DUP2 JUMP JUMPDEST CALLVALUE DUP1 ISZERO PUSH2 0x7AA JUMPI PUSH1 0x0 DUP1 REVERT JUMPDEST POP PUSH2 0x37F PUSH1 0xE SLOAD DUP2 JUMP JUMPDEST CALLVALUE DUP1 ISZERO PUSH2 0x7C0 JUMPI PUSH1 0x0 DUP1 REVERT JUMPDEST POP PUSH2 0x541 PUSH1 0x64 DUP2 JUMP JUMPDEST CALLVALUE DUP1 ISZERO PUSH2 0x7D5 JUMPI PUSH1 0x0 DUP1 REVERT JUMPDEST POP PUSH2 0x366 PUSH2 0x1588 JUMP JUMPDEST CALLVALUE DUP1 ISZERO PUSH2 0x7EA JUMPI PUSH1 0x0 DUP1 REVERT JUMPDEST POP PUSH1 0x5 SLOAD PUSH1 0x1 PUSH1 0x1 PUSH1 0xA0 SHL SUB AND PUSH2 0x3D4 JUMP JUMPDEST CALLVALUE DUP1 ISZERO PUSH2 0x808 JUMPI PUSH1 0x0 DUP1 REVERT JUMPDEST POP PUSH2 0x366 PUSH2 0x1598 JUMP JUMPDEST CALLVALUE DUP1 ISZERO PUSH2 0x81D JUMPI PUSH1 0x0 DUP1 REVERT JUMPDEST POP PUSH1 0x7 SLOAD PUSH2 0x40C SWAP1 PUSH2 0x100 SWAP1 DIV PUSH1 0xFF AND DUP2 JUMP JUMPDEST CALLVALUE DUP1 ISZERO PUSH2 0x83C JUMPI PUSH1 0x0 DUP1 REVERT JUMPDEST POP PUSH2 0x3A7 PUSH2 0x163A JUMP JUMPDEST CALLVALUE DUP1 ISZERO PUSH2 0x851 JUMPI PUSH1 0x0 DUP1 REVERT JUMPDEST POP PUSH1 0xD SLOAD PUSH2 0x40C SWAP1 PUSH1 0x1 PUSH1 0xA0 SHL SWAP1 DIV PUSH1 0xFF AND DUP2 JUMP JUMPDEST CALLVALUE DUP1 ISZERO PUSH2 0x872 JUMPI PUSH1 0x0 DUP1 REVERT JUMPDEST POP PUSH2 0x366 PUSH2 0x1649 JUMP JUMPDEST CALLVALUE DUP1 ISZERO PUSH2 0x887 JUMPI PUSH1 0x0 DUP1 REVERT JUMPDEST POP PUSH2 0x40C PUSH2 0x896 CALLDATASIZE PUSH1 0x4 PUSH2 0x2AD0 JUMP JUMPDEST PUSH2 0x1870 JUMP JUMPDEST CALLVALUE DUP1 ISZERO PUSH2 0x8A7 JUMPI PUSH1 0x0 DUP1 REVERT JUMPDEST POP PUSH2 0x366 PUSH2 0x8B6 CALLDATASIZE PUSH1 0x4 PUSH2 0x2B36 JUMP JUMPDEST PUSH2 0x18D8 JUMP JUMPDEST CALLVALUE DUP1 ISZERO PUSH2 0x8C7 JUMPI PUSH1 0x0 DUP1 REVERT JUMPDEST POP PUSH1 0xC SLOAD PUSH2 0x3D4 SWAP1 PUSH1 0x1 PUSH1 0x1 PUSH1 0xA0 SHL SUB AND DUP2 JUMP JUMPDEST CALLVALUE DUP1 ISZERO PUSH2 0x8E7 JUMPI PUSH1 0x0 DUP1 REVERT JUMPDEST POP PUSH2 0x366 PUSH2 0x8F6 CALLDATASIZE PUSH1 0x4 PUSH2 0x2AD0 JUMP JUMPDEST PUSH2 0x1947 JUMP JUMPDEST CALLVALUE DUP1 ISZERO PUSH2 0x907 JUMPI PUSH1 0x0 DUP1 REVERT JUMPDEST POP PUSH2 0x366 PUSH2 0x916 CALLDATASIZE PUSH1 0x4 PUSH2 0x2B36 JUMP JUMPDEST PUSH2 0x1B02 JUMP JUMPDEST CALLVALUE DUP1 ISZERO PUSH2 0x927 JUMPI PUSH1 0x0 DUP1 REVERT JUMPDEST POP PUSH2 0x541 PUSH1 0x3 DUP2 JUMP JUMPDEST CALLVALUE DUP1 ISZERO PUSH2 0x93C JUMPI PUSH1 0x0 DUP1 REVERT JUMPDEST POP PUSH2 0x366 PUSH2 0x94B CALLDATASIZE PUSH1 0x4 PUSH2 0x2B51 JUMP JUMPDEST PUSH2 0x1B9F JUMP JUMPDEST CALLVALUE DUP1 ISZERO PUSH2 0x95C JUMPI PUSH1 0x0 DUP1 REVERT JUMPDEST POP PUSH2 0x37F PUSH1 0x10 SLOAD DUP2 JUMP JUMPDEST CALLVALUE DUP1 ISZERO PUSH2 0x972 JUMPI PUSH1 0x0 DUP1 REVERT JUMPDEST POP PUSH2 0x366 PUSH2 0x981 CALLDATASIZE PUSH1 0x4 PUSH2 0x2B6A JUMP JUMPDEST PUSH2 0x1C36 JUMP JUMPDEST CALLVALUE DUP1 ISZERO PUSH2 0x992 JUMPI PUSH1 0x0 DUP1 REVERT JUMPDEST POP PUSH1 0xD SLOAD PUSH2 0x40C SWAP1 PUSH1 0x1 PUSH1 0xA8 SHL SWAP1 DIV PUSH1 0xFF AND DUP2 JUMP JUMPDEST CALLVALUE DUP1 ISZERO PUSH2 0x9B3 JUMPI PUSH1 0x0 DUP1 REVERT JUMPDEST POP PUSH2 0x541 PUSH2 0x1C58 JUMP JUMPDEST CALLVALUE DUP1 ISZERO PUSH2 0x9C8 JUMPI PUSH1 0x0 DUP1 REVERT JUMPDEST POP PUSH2 0x40C PUSH2 0x9D7 CALLDATASIZE PUSH1 0x4 PUSH2 0x2B8C JUMP JUMPDEST PUSH2 0x1C67 JUMP JUMPDEST CALLVALUE DUP1 ISZERO PUSH2 0x9E8 JUMPI PUSH1 0x0 DUP1 REVERT JUMPDEST POP PUSH1 0xB SLOAD PUSH2 0x3D4 SWAP1 PUSH1 0x1 PUSH1 0x1 PUSH1 0xA0 SHL SUB AND DUP2 JUMP JUMPDEST CALLVALUE DUP1 ISZERO PUSH2 0xA08 JUMPI PUSH1 0x0 DUP1 REVERT JUMPDEST POP PUSH2 0x37F PUSH1 0x11 SLOAD DUP2 JUMP JUMPDEST CALLVALUE DUP1 ISZERO PUSH2 0xA1E JUMPI PUSH1 0x0 DUP1 REVERT JUMPDEST POP PUSH2 0x37F PUSH1 0x12 SLOAD DUP2 JUMP JUMPDEST CALLVALUE DUP1 ISZERO PUSH2 0xA34 JUMPI PUSH1 0x0 DUP1 REVERT JUMPDEST POP PUSH2 0x541 PUSH1 0xF DUP2 JUMP JUMPDEST CALLVALUE DUP1 ISZERO PUSH2 0xA49 JUMPI PUSH1 0x0 DUP1 REVERT JUMPDEST POP PUSH2 0x37F PUSH2 0xA58 CALLDATASIZE PUSH1 0x4 PUSH2 0x2C21 JUMP JUMPDEST PUSH1 0x1 PUSH1 0x1 PUSH1 0xA0 SHL SUB SWAP2 DUP3 AND PUSH1 0x0 SWAP1 DUP2 MSTORE PUSH1 0x1 PUSH1 0x20 SWAP1 DUP2 MSTORE PUSH1 0x40 DUP1 DUP4 KECCAK256 SWAP4 SWAP1 SWAP5 AND DUP3 MSTORE SWAP2 SWAP1 SWAP2 MSTORE KECCAK256 SLOAD SWAP1 JUMP JUMPDEST CALLVALUE DUP1 ISZERO PUSH2 0xA8F JUMPI PUSH1 0x0 DUP1 REVERT JUMPDEST POP PUSH2 0x366 PUSH2 0xA9E CALLDATASIZE PUSH1 0x4 PUSH2 0x2C54 JUMP JUMPDEST PUSH2 0x1E22 JUMP JUMPDEST CALLVALUE DUP1 ISZERO PUSH2 0xAAF JUMPI PUSH1 0x0 DUP1 REVERT JUMPDEST POP PUSH2 0x366 PUSH2 0xABE CALLDATASIZE PUSH1 0x4 PUSH2 0x2B36 JUMP JUMPDEST PUSH2 0x204D JUMP JUMPDEST PUSH1 0x60 PUSH1 0x3 DUP1 SLOAD PUSH2 0xAD2 SWAP1 PUSH2 0x2C80 JUMP JUMPDEST DUP1 PUSH1 0x1F ADD PUSH1 0x20 DUP1 SWAP2 DIV MUL PUSH1 0x20 ADD PUSH1 0x40 MLOAD SWAP1 DUP2 ADD PUSH1 0x40 MSTORE DUP1 SWAP3 SWAP2 SWAP1 DUP2 DUP2 MSTORE PUSH1 0x20 ADD DUP3 DUP1 SLOAD PUSH2 0xAFE SWAP1 PUSH2 0x2C80 JUMP JUMPDEST DUP1 ISZERO PUSH2 0xB4B JUMPI DUP1 PUSH1 0x1F LT PUSH2 0xB20 JUMPI PUSH2 0x100 DUP1 DUP4 SLOAD DIV MUL DUP4 MSTORE SWAP2 PUSH1 0x20 ADD SWAP2 PUSH2 0xB4B JUMP JUMPDEST DUP3 ADD SWAP2 SWAP1 PUSH1 0x0 MSTORE PUSH1 0x20 PUSH1 0x0 KECCAK256 SWAP1 JUMPDEST DUP2 SLOAD DUP2 MSTORE SWAP1 PUSH1 0x1 ADD SWAP1 PUSH1 0x20 ADD DUP1 DUP4 GT PUSH2 0xB2E JUMPI DUP3 SWAP1 SUB PUSH1 0x1F AND DUP3 ADD SWAP2 JUMPDEST POP POP POP POP POP SWAP1 POP SWAP1 JUMP JUMPDEST PUSH1 0x0 CALLER PUSH2 0xB63 DUP2 DUP6 DUP6 PUSH2 0x2088 JUMP JUMPDEST PUSH1 0x1 SWAP2 POP POP JUMPDEST SWAP3 SWAP2 POP POP JUMP JUMPDEST PUSH2 0xB77 PUSH2 0x2095 JUMP JUMPDEST PUSH2 0xB7F PUSH2 0x20C2 JUMP JUMPDEST PUSH1 0x1 PUSH1 0x1 PUSH1 0xA0 SHL SUB DUP4 AND PUSH2 0xBE6 JUMPI PUSH1 0x40 MLOAD PUSH3 0x461BCD PUSH1 0xE5 SHL DUP2 MSTORE PUSH1 0x20 PUSH1 0x4 DUP3 ADD MSTORE PUSH1 0x23 PUSH1 0x24 DUP3 ADD MSTORE PUSH32 0x6F70657261746F725472616E736665723A2066726F6D207A65726F2061646472 PUSH1 0x44 DUP3 ADD MSTORE PUSH3 0x657373 PUSH1 0xE8 SHL PUSH1 0x64 DUP3 ADD MSTORE PUSH1 0x84 ADD JUMPDEST PUSH1 0x40 MLOAD DUP1 SWAP2 SUB SWAP1 REVERT JUMPDEST PUSH1 0x1 PUSH1 0x1 PUSH1 0xA0 SHL SUB DUP3 AND PUSH2 0xC46 JUMPI PUSH1 0x40 MLOAD PUSH3 0x461BCD PUSH1 0xE5 SHL DUP2 MSTORE PUSH1 0x20 PUSH1 0x4 DUP3 ADD MSTORE PUSH1 0x21 PUSH1 0x24 DUP3 ADD MSTORE PUSH32 0x6F70657261746F725472616E736665723A20746F207A65726F20616464726573 PUSH1 0x44 DUP3 ADD MSTORE PUSH1 0x73 PUSH1 0xF8 SHL PUSH1 0x64 DUP3 ADD MSTORE PUSH1 0x84 ADD PUSH2 0xBDD JUMP JUMPDEST PUSH2 0xC51 DUP4 DUP4 DUP4 PUSH2 0x20E6 JUMP JUMPDEST POP POP POP JUMP JUMPDEST PUSH2 0xC5E PUSH2 0x2095 JUMP JUMPDEST PUSH2 0xC66 PUSH2 0x20C2 JUMP JUMPDEST PUSH2 0xC6E PUSH2 0x2145 JUMP JUMPDEST PUSH1 0x1 PUSH1 0x1 PUSH1 0xA0 SHL SUB DUP2 AND PUSH1 0x0 SWAP1 DUP2 MSTORE PUSH1 0x16 PUSH1 0x20 SWAP1 DUP2 MSTORE PUSH1 0x40 SWAP2 DUP3 SWAP1 KECCAK256 DUP3 MLOAD DUP1 DUP5 ADD SWAP1 SWAP4 MSTORE DUP1 SLOAD DUP1 DUP5 MSTORE PUSH1 0x1 SWAP1 SWAP2 ADD SLOAD SWAP2 DUP4 ADD SWAP2 SWAP1 SWAP2 MSTORE PUSH2 0xCE1 JUMPI PUSH1 0x40 MLOAD PUSH3 0x461BCD PUSH1 0xE5 SHL DUP2 MSTORE PUSH1 0x20 PUSH1 0x4 DUP3 ADD MSTORE PUSH1 0xE PUSH1 0x24 DUP3 ADD MSTORE PUSH14 0x2737903932B9B2B93B30BA34B7B7 PUSH1 0x91 SHL PUSH1 0x44 DUP3 ADD MSTORE PUSH1 0x64 ADD PUSH2 0xBDD JUMP JUMPDEST PUSH1 0x1 PUSH1 0x1 PUSH1 0xA0 SHL SUB DUP3 AND PUSH1 0x0 SWAP1 DUP2 MSTORE PUSH1 0x15 PUSH1 0x20 MSTORE PUSH1 0x40 SWAP1 KECCAK256 SLOAD PUSH1 0xFF AND ISZERO PUSH2 0xD3B JUMPI PUSH1 0x40 MLOAD PUSH3 0x461BCD PUSH1 0xE5 SHL DUP2 MSTORE PUSH1 0x20 PUSH1 0x4 DUP3 ADD MSTORE PUSH1 0xE PUSH1 0x24 DUP3 ADD MSTORE PUSH14 0x105B1C9958591E481859DC995959 PUSH1 0x92 SHL PUSH1 0x44 DUP3 ADD MSTORE PUSH1 0x64 ADD PUSH2 0xBDD JUMP JUMPDEST PUSH3 0x69780 DUP2 PUSH1 0x20 ADD MLOAD PUSH2 0xD4E SWAP2 SWAP1 PUSH2 0x2CD0 JUMP JUMPDEST TIMESTAMP LT ISZERO PUSH2 0xD89 JUMPI PUSH1 0x40 MLOAD PUSH3 0x461BCD PUSH1 0xE5 SHL DUP2 MSTORE PUSH1 0x20 PUSH1 0x4 DUP3 ADD MSTORE PUSH1 0x9 PUSH1 0x24 DUP3 ADD MSTORE PUSH9 0x546F6F206561726C79 PUSH1 0xB8 SHL PUSH1 0x44 DUP3 ADD MSTORE PUSH1 0x64 ADD PUSH2 0xBDD JUMP JUMPDEST DUP1 MLOAD PUSH1 0x12 DUP1 SLOAD PUSH1 0x0 SWAP1 PUSH2 0xD9D SWAP1 DUP5 SWAP1 PUSH2 0x2CE3 JUMP JUMPDEST SWAP1 SWAP2 SSTORE POP POP PUSH1 0x1 PUSH1 0x1 PUSH1 0xA0 SHL SUB DUP3 AND PUSH1 0x0 SWAP1 DUP2 MSTORE PUSH1 0x16 PUSH1 0x20 MSTORE PUSH1 0x40 DUP2 KECCAK256 DUP2 DUP2 SSTORE PUSH1 0x1 ADD DUP2 SWAP1 SSTORE PUSH2 0xDCF PUSH1 0x6 PUSH1 0xA PUSH2 0x2DDA JUMP JUMPDEST PUSH1 0xE SLOAD DUP4 MLOAD PUSH2 0xDDE SWAP2 SWAP1 PUSH2 0x2DE9 JUMP JUMPDEST PUSH2 0xDE8 SWAP2 SWAP1 PUSH2 0x2E00 JUMP JUMPDEST SWAP1 POP PUSH2 0xE1E PUSH1 0x1 PUSH1 0x1 PUSH1 0xA0 SHL SUB PUSH32 0x0 AND DUP5 DUP4 PUSH2 0x216F JUMP JUMPDEST DUP2 MLOAD PUSH1 0x40 MLOAD SWAP1 DUP2 MSTORE PUSH1 0x1 PUSH1 0x1 PUSH1 0xA0 SHL SUB DUP5 AND SWAP1 PUSH32 0xA171B6942063C6F2800CE40A780EDCE37BAA2B618571B11EEDD1E69E626E7D76 SWAP1 PUSH1 0x20 ADD PUSH1 0x40 MLOAD DUP1 SWAP2 SUB SWAP1 LOG2 POP POP PUSH2 0xE6A PUSH1 0x1 PUSH1 0x6 SSTORE JUMP JUMPDEST POP JUMP JUMPDEST PUSH1 0x7 SLOAD PUSH1 0x0 SWAP1 PUSH2 0x100 SWAP1 DIV PUSH1 0xFF AND ISZERO PUSH2 0xEC4 JUMPI PUSH1 0x40 MLOAD PUSH3 0x461BCD PUSH1 0xE5 SHL DUP2 MSTORE PUSH1 0x20 PUSH1 0x4 DUP3 ADD MSTORE PUSH1 0x19 PUSH1 0x24 DUP3 ADD MSTORE PUSH25 0x111A5C9958DD081D1C985B9CD9995C9CC8191A5CD8589B1959 PUSH1 0x3A SHL PUSH1 0x44 DUP3 ADD MSTORE PUSH1 0x64 ADD PUSH2 0xBDD JUMP JUMPDEST PUSH2 0xECF DUP5 DUP5 DUP5 PUSH2 0x21CE JUMP JUMPDEST SWAP5 SWAP4 POP POP POP POP JUMP JUMPDEST PUSH1 0x0 PUSH1 0x11 SLOAD DUP3 PUSH2 0xB69 SWAP2 SWAP1 PUSH2 0x2CD0 JUMP JUMPDEST PUSH2 0xEEF PUSH2 0x2095 JUMP JUMPDEST PUSH2 0xEF7 PUSH2 0x21F2 JUMP JUMPDEST JUMP JUMPDEST PUSH2 0xF01 PUSH2 0x2095 JUMP JUMPDEST PUSH1 0xB SLOAD PUSH1 0x1 PUSH1 0x1 PUSH1 0xA0 SHL SUB AND ISZERO PUSH2 0xF50 JUMPI PUSH1 0x40 MLOAD PUSH3 0x461BCD PUSH1 0xE5 SHL DUP2 MSTORE PUSH1 0x20 PUSH1 0x4 DUP3 ADD MSTORE PUSH1 0x13 PUSH1 0x24 DUP3 ADD MSTORE PUSH19 0x119858DD1BDC9E48185B1C9958591E481CD95D PUSH1 0x6A SHL PUSH1 0x44 DUP3 ADD MSTORE PUSH1 0x64 ADD PUSH2 0xBDD JUMP JUMPDEST PUSH1 0xB DUP1 SLOAD PUSH1 0x1 PUSH1 0x1 PUSH1 0xA0 SHL SUB NOT AND PUSH1 0x1 PUSH1 0x1 PUSH1 0xA0 SHL SUB SWAP3 SWAP1 SWAP3 AND SWAP2 SWAP1 SWAP2 OR SWAP1 SSTORE JUMP JUMPDEST PUSH2 0xF7A PUSH2 0x2095 JUMP JUMPDEST PUSH1 0xD DUP1 SLOAD DUP3 ISZERO ISZERO PUSH1 0x1 PUSH1 0xA8 SHL MUL PUSH1 0xFF PUSH1 0xA8 SHL NOT SWAP1 SWAP2 AND OR SWAP1 SSTORE PUSH1 0x40 MLOAD PUSH32 0xE1965432AF4C9923F6EBB98F1721262967CFA6178008742D23041DC8EE74EE8F SWAP1 PUSH2 0xFC7 SWAP1 DUP4 ISZERO ISZERO DUP2 MSTORE PUSH1 0x20 ADD SWAP1 JUMP JUMPDEST PUSH1 0x40 MLOAD DUP1 SWAP2 SUB SWAP1 LOG1 POP JUMP JUMPDEST PUSH2 0xFDA PUSH2 0x2095 JUMP JUMPDEST PUSH1 0x1 PUSH1 0x1 PUSH1 0xA0 SHL SUB DUP2 AND PUSH2 0x1021 JUMPI PUSH1 0x40 MLOAD PUSH3 0x461BCD PUSH1 0xE5 SHL DUP2 MSTORE PUSH1 0x20 PUSH1 0x4 DUP3 ADD MSTORE PUSH1 0xE PUSH1 0x24 DUP3 ADD MSTORE PUSH14 0x24B73B30B634B21039B2B63632B9 PUSH1 0x91 SHL PUSH1 0x44 DUP3 ADD MSTORE PUSH1 0x64 ADD PUSH2 0xBDD JUMP JUMPDEST PUSH1 0x9 SLOAD PUSH1 0x40 DUP1 MLOAD PUSH1 0x1 PUSH1 0x1 PUSH1 0xA0 SHL SUB SWAP3 DUP4 AND DUP2 MSTORE SWAP2 DUP4 AND PUSH1 0x20 DUP4 ADD MSTORE PUSH32 0xD08DBBA23A735D81EAF53AC5EDE2C722BB186E9D3D46B62842853F0D017C2212 SWAP2 ADD PUSH1 0x40 MLOAD DUP1 SWAP2 SUB SWAP1 LOG1 PUSH1 0x9 DUP1 SLOAD PUSH1 0x1 PUSH1 0x1 PUSH1 0xA0 SHL SUB NOT AND PUSH1 0x1 PUSH1 0x1 PUSH1 0xA0 SHL SUB SWAP3 SWAP1 SWAP3 AND SWAP2 SWAP1 SWAP2 OR SWAP1 SSTORE JUMP JUMPDEST PUSH1 0xB SLOAD PUSH1 0x1 PUSH1 0x1 PUSH1 0xA0 SHL SUB AND CALLER EQ PUSH2 0x10B4 JUMPI PUSH1 0x40 MLOAD PUSH3 0x461BCD PUSH1 0xE5 SHL DUP2 MSTORE PUSH1 0x4 ADD PUSH2 0xBDD SWAP1 PUSH2 0x2E22 JUMP JUMPDEST PUSH1 0x1 PUSH1 0x1 PUSH1 0xA0 SHL SUB DUP2 AND PUSH1 0x0 DUP2 DUP2 MSTORE PUSH1 0x15 PUSH1 0x20 MSTORE PUSH1 0x40 DUP1 DUP3 KECCAK256 DUP1 SLOAD PUSH1 0xFF NOT AND PUSH1 0x1 OR SWAP1 SSTORE MLOAD PUSH32 0xEC25952115D724DE7FEC274999C9CBE0CFF9898F9F5128EAA42BD599138462A1 SWAP2 SWAP1 LOG2 POP JUMP JUMPDEST PUSH2 0x1108 PUSH2 0x2095 JUMP JUMPDEST PUSH1 0xB SLOAD PUSH1 0x1 PUSH1 0x1 PUSH1 0xA0 SHL SUB AND ISZERO PUSH2 0x1153 JUMPI PUSH1 0x40 MLOAD PUSH3 0x461BCD PUSH1 0xE5 SHL DUP2 MSTORE PUSH1 0x20 PUSH1 0x4 DUP3 ADD MSTORE PUSH1 0xF PUSH1 0x24 DUP3 ADD MSTORE PUSH15 0x496E76616C69642061646472657373 PUSH1 0x88 SHL PUSH1 0x44 DUP3 ADD MSTORE PUSH1 0x64 ADD PUSH2 0xBDD JUMP JUMPDEST PUSH1 0x14 DUP1 SLOAD PUSH1 0x1 PUSH1 0x1 PUSH1 0xA0 SHL SUB NOT AND PUSH1 0x1 PUSH1 0x1 PUSH1 0xA0 SHL SUB SWAP3 SWAP1 SWAP3 AND SWAP2 SWAP1 SWAP2 OR SWAP1 SSTORE JUMP JUMPDEST PUSH2 0x117D PUSH2 0x2145 JUMP JUMPDEST PUSH2 0x1185 PUSH2 0x20C2 JUMP JUMPDEST PUSH1 0xB SLOAD PUSH1 0x1 PUSH1 0x1 PUSH1 0xA0 SHL SUB AND CALLER EQ PUSH2 0x11AF JUMPI PUSH1 0x40 MLOAD PUSH3 0x461BCD PUSH1 0xE5 SHL DUP2 MSTORE PUSH1 0x4 ADD PUSH2 0xBDD SWAP1 PUSH2 0x2E22 JUMP JUMPDEST PUSH1 0xD SLOAD PUSH1 0x1 PUSH1 0xA0 SHL SWAP1 DIV PUSH1 0xFF AND ISZERO PUSH2 0x11FA JUMPI PUSH1 0x40 MLOAD PUSH3 0x461BCD PUSH1 0xE5 SHL DUP2 MSTORE PUSH1 0x20 PUSH1 0x4 DUP3 ADD MSTORE PUSH1 0xE PUSH1 0x24 DUP3 ADD MSTORE PUSH14 0x14D85B19481A185CC8195B991959 PUSH1 0x92 SHL PUSH1 0x44 DUP3 ADD MSTORE PUSH1 0x64 ADD PUSH2 0xBDD JUMP JUMPDEST PUSH1 0x1 PUSH1 0x1 PUSH1 0xA0 SHL SUB DUP3 AND PUSH1 0x0 SWAP1 DUP2 MSTORE PUSH1 0x15 PUSH1 0x20 MSTORE PUSH1 0x40 SWAP1 KECCAK256 SLOAD PUSH1 0xFF AND PUSH2 0x1253 JUMPI PUSH1 0x40 MLOAD PUSH3 0x461BCD PUSH1 0xE5 SHL DUP2 MSTORE PUSH1 0x20 PUSH1 0x4 DUP3 ADD MSTORE PUSH1 0xE PUSH1 0x24 DUP3 ADD MSTORE PUSH14 0x111A5CD8DB185A5B48199A5C9CDD PUSH1 0x92 SHL PUSH1 0x44 DUP3 ADD MSTORE PUSH1 0x64 ADD PUSH2 0xBDD JUMP JUMPDEST PUSH1 0x0 DUP2 GT PUSH2 0x128E JUMPI PUSH1 0x40 MLOAD PUSH3 0x461BCD PUSH1 0xE5 SHL DUP2 MSTORE PUSH1 0x20 PUSH1 0x4 DUP3 ADD MSTORE PUSH1 0x8 PUSH1 0x24 DUP3 ADD MSTORE PUSH8 0x416D6F756E743E3 PUSH1 0xC4 SHL PUSH1 0x44 DUP3 ADD MSTORE PUSH1 0x64 ADD PUSH2 0xBDD JUMP JUMPDEST PUSH1 0x1 PUSH1 0x1 PUSH1 0xA0 SHL SUB DUP3 AND PUSH1 0x0 SWAP1 DUP2 MSTORE PUSH1 0x16 PUSH1 0x20 SWAP1 DUP2 MSTORE PUSH1 0x40 SWAP2 DUP3 SWAP1 KECCAK256 DUP3 MLOAD DUP1 DUP5 ADD SWAP1 SWAP4 MSTORE DUP1 SLOAD DUP1 DUP5 MSTORE PUSH1 0x1 SWAP1 SWAP2 ADD SLOAD SWAP2 DUP4 ADD SWAP2 SWAP1 SWAP2 MSTORE ISZERO PUSH2 0x1385 JUMPI DUP1 MLOAD DUP3 EQ PUSH2 0x130D JUMPI PUSH1 0x40 MLOAD PUSH3 0x461BCD PUSH1 0xE5 SHL DUP2 MSTORE PUSH1 0x20 PUSH1 0x4 DUP3 ADD MSTORE PUSH1 0x11 PUSH1 0x24 DUP3 ADD MSTORE PUSH17 0x135D5CDD08189D5E481C995CD95C9D9959 PUSH1 0x7A SHL PUSH1 0x44 DUP3 ADD MSTORE PUSH1 0x64 ADD PUSH2 0xBDD JUMP JUMPDEST DUP2 PUSH1 0x12 PUSH1 0x0 DUP3 DUP3 SLOAD PUSH2 0x131F SWAP2 SWAP1 PUSH2 0x2CE3 JUMP JUMPDEST SWAP1 SWAP2 SSTORE POP POP PUSH1 0x1 PUSH1 0x1 PUSH1 0xA0 SHL SUB DUP4 AND PUSH1 0x0 SWAP1 DUP2 MSTORE PUSH1 0x16 PUSH1 0x20 MSTORE PUSH1 0x40 DUP2 KECCAK256 DUP2 DUP2 SSTORE PUSH1 0x1 ADD DUP2 SWAP1 SSTORE PUSH1 0xF DUP1 SLOAD DUP5 SWAP3 SWAP1 PUSH2 0x1357 SWAP1 DUP5 SWAP1 PUSH2 0x2CE3 JUMP JUMPDEST SWAP1 SWAP2 SSTORE POP POP PUSH1 0xE SLOAD PUSH2 0x1369 SWAP1 DUP4 PUSH2 0x2DE9 JUMP JUMPDEST PUSH1 0x11 PUSH1 0x0 DUP3 DUP3 SLOAD PUSH2 0x137A SWAP2 SWAP1 PUSH2 0x2CD0 JUMP JUMPDEST SWAP1 SWAP2 SSTORE POP PUSH2 0x1461 SWAP1 POP JUMP JUMPDEST PUSH1 0x12 SLOAD PUSH1 0xF SLOAD PUSH2 0x1395 SWAP2 SWAP1 PUSH2 0x2CE3 JUMP JUMPDEST DUP3 GT ISZERO PUSH2 0x13D3 JUMPI PUSH1 0x40 MLOAD PUSH3 0x461BCD PUSH1 0xE5 SHL DUP2 MSTORE PUSH1 0x20 PUSH1 0x4 DUP3 ADD MSTORE PUSH1 0xC PUSH1 0x24 DUP3 ADD MSTORE PUSH12 0x457863656564732073616C65 PUSH1 0xA0 SHL PUSH1 0x44 DUP3 ADD MSTORE PUSH1 0x64 ADD PUSH2 0xBDD JUMP JUMPDEST PUSH1 0x0 PUSH2 0x13E1 PUSH1 0x6 PUSH1 0xA PUSH2 0x2DDA JUMP JUMPDEST PUSH1 0xE SLOAD PUSH2 0x13EE SWAP1 DUP6 PUSH2 0x2DE9 JUMP JUMPDEST PUSH2 0x13F8 SWAP2 SWAP1 PUSH2 0x2E00 JUMP JUMPDEST SWAP1 POP PUSH2 0x142F PUSH1 0x1 PUSH1 0x1 PUSH1 0xA0 SHL SUB PUSH32 0x0 AND DUP6 ADDRESS DUP5 PUSH2 0x2244 JUMP JUMPDEST DUP3 PUSH1 0xF PUSH1 0x0 DUP3 DUP3 SLOAD PUSH2 0x1441 SWAP2 SWAP1 PUSH2 0x2CE3 JUMP JUMPDEST SWAP3 POP POP DUP2 SWAP1 SSTORE POP DUP1 PUSH1 0x11 PUSH1 0x0 DUP3 DUP3 SLOAD PUSH2 0x145A SWAP2 SWAP1 PUSH2 0x2CD0 JUMP JUMPDEST SWAP1 SWAP2 SSTORE POP POP POP JUMPDEST PUSH1 0x9 SLOAD PUSH2 0x1478 SWAP1 PUSH1 0x1 PUSH1 0x1 PUSH1 0xA0 SHL SUB AND DUP5 DUP5 PUSH2 0x20E6 JUMP JUMPDEST DUP3 PUSH1 0x1 PUSH1 0x1 PUSH1 0xA0 SHL SUB AND PUSH32 0x8F28852646C20CC973D3A8218F7EEFED58C25C909F78F0265AF4818C3D4DC271 DUP4 PUSH1 0x40 MLOAD PUSH2 0x14B3 SWAP2 DUP2 MSTORE PUSH1 0x20 ADD SWAP1 JUMP JUMPDEST PUSH1 0x40 MLOAD DUP1 SWAP2 SUB SWAP1 LOG2 POP PUSH2 0x14C6 PUSH1 0x1 PUSH1 0x6 SSTORE JUMP JUMPDEST POP POP JUMP JUMPDEST PUSH2 0x14D2 PUSH2 0x2095 JUMP JUMPDEST PUSH2 0xEF7 PUSH1 0x0 PUSH2 0x2283 JUMP JUMPDEST PUSH2 0x14E4 PUSH2 0x2095 JUMP JUMPDEST PUSH1 0x1 PUSH1 0x1 PUSH1 0xA0 SHL SUB DUP2 AND PUSH2 0x152C JUMPI PUSH1 0x40 MLOAD PUSH3 0x461BCD PUSH1 0xE5 SHL DUP2 MSTORE PUSH1 0x20 PUSH1 0x4 DUP3 ADD MSTORE PUSH1 0xF PUSH1 0x24 DUP3 ADD MSTORE PUSH15 0x496E76616C69642061646472657373 PUSH1 0x88 SHL PUSH1 0x44 DUP3 ADD MSTORE PUSH1 0x64 ADD PUSH2 0xBDD JUMP JUMPDEST PUSH1 0xD SLOAD PUSH1 0x40 MLOAD PUSH1 0x1 PUSH1 0x1 PUSH1 0xA0 SHL SUB DUP1 DUP5 AND SWAP3 AND SWAP1 PUSH32 0xB27A84474703CE30A05E600606FA29DBCFB1671AA7363E45DBF0F1B78F3EE116 SWAP1 PUSH1 0x0 SWAP1 LOG3 PUSH1 0xD DUP1 SLOAD PUSH1 0x1 PUSH1 0x1 PUSH1 0xA0 SHL SUB NOT AND PUSH1 0x1 PUSH1 0x1 PUSH1 0xA0 SHL SUB SWAP3 SWAP1 SWAP3 AND SWAP2 SWAP1 SWAP2 OR SWAP1 SSTORE JUMP JUMPDEST PUSH2 0x1590 PUSH2 0x2095 JUMP JUMPDEST PUSH2 0xEF7 PUSH2 0x22D5 JUMP JUMPDEST PUSH2 0x15A0 PUSH2 0x2095 JUMP JUMPDEST PUSH2 0x15A8 PUSH2 0x20C2 JUMP JUMPDEST PUSH1 0xD SLOAD PUSH1 0x1 PUSH1 0xA0 SHL SWAP1 DIV PUSH1 0xFF AND ISZERO PUSH2 0x15F7 JUMPI PUSH1 0x40 MLOAD PUSH3 0x461BCD PUSH1 0xE5 SHL DUP2 MSTORE PUSH1 0x20 PUSH1 0x4 DUP3 ADD MSTORE PUSH1 0x12 PUSH1 0x24 DUP3 ADD MSTORE PUSH18 0x14D85B1948185B1C9958591E48195B991959 PUSH1 0x72 SHL PUSH1 0x44 DUP3 ADD MSTORE PUSH1 0x64 ADD PUSH2 0xBDD JUMP JUMPDEST PUSH1 0xD DUP1 SLOAD PUSH1 0xFF PUSH1 0xA0 SHL NOT AND PUSH1 0x1 PUSH1 0xA0 SHL OR SWAP1 SSTORE PUSH1 0x0 PUSH1 0xF DUP2 SWAP1 SSTORE PUSH1 0x40 MLOAD PUSH32 0x7910379DD0DB65208B77494AC6A3ACCA01262C78703F044E0ABB7E4386A0BCBE SWAP2 SWAP1 LOG1 JUMP JUMPDEST PUSH1 0x60 PUSH1 0x4 DUP1 SLOAD PUSH2 0xAD2 SWAP1 PUSH2 0x2C80 JUMP JUMPDEST PUSH2 0x1651 PUSH2 0x2145 JUMP JUMPDEST PUSH2 0x1659 PUSH2 0x20C2 JUMP JUMPDEST PUSH1 0x5 SLOAD PUSH1 0x1 PUSH1 0x1 PUSH1 0xA0 SHL SUB AND CALLER EQ DUP1 PUSH2 0x167C JUMPI POP PUSH1 0xA SLOAD PUSH1 0x1 PUSH1 0x1 PUSH1 0xA0 SHL SUB AND CALLER EQ JUMPDEST PUSH2 0x16B9 JUMPI PUSH1 0x40 MLOAD PUSH3 0x461BCD PUSH1 0xE5 SHL DUP2 MSTORE PUSH1 0x20 PUSH1 0x4 DUP3 ADD MSTORE PUSH1 0xE PUSH1 0x24 DUP3 ADD MSTORE PUSH14 0x139BDD08185D5D1A1BDC9A5E9959 PUSH1 0x92 SHL PUSH1 0x44 DUP3 ADD MSTORE PUSH1 0x64 ADD PUSH2 0xBDD JUMP JUMPDEST PUSH1 0xD SLOAD PUSH1 0x1 PUSH1 0xA0 SHL SWAP1 DIV PUSH1 0xFF AND PUSH2 0x1712 JUMPI PUSH1 0x40 MLOAD PUSH3 0x461BCD PUSH1 0xE5 SHL DUP2 MSTORE PUSH1 0x20 PUSH1 0x4 DUP3 ADD MSTORE PUSH1 0x1B PUSH1 0x24 DUP3 ADD MSTORE PUSH32 0x43616E6E6F7420776974686472617720647572696E672073616C650000000000 PUSH1 0x44 DUP3 ADD MSTORE PUSH1 0x64 ADD PUSH2 0xBDD JUMP JUMPDEST PUSH1 0x40 MLOAD PUSH4 0x70A08231 PUSH1 0xE0 SHL DUP2 MSTORE ADDRESS PUSH1 0x4 DUP3 ADD MSTORE PUSH1 0x0 SWAP1 PUSH32 0x0 PUSH1 0x1 PUSH1 0x1 PUSH1 0xA0 SHL SUB AND SWAP1 PUSH4 0x70A08231 SWAP1 PUSH1 0x24 ADD PUSH1 0x20 PUSH1 0x40 MLOAD DUP1 DUP4 SUB DUP2 DUP7 GAS STATICCALL ISZERO DUP1 ISZERO PUSH2 0x1779 JUMPI RETURNDATASIZE PUSH1 0x0 DUP1 RETURNDATACOPY RETURNDATASIZE PUSH1 0x0 REVERT JUMPDEST POP POP POP POP PUSH1 0x40 MLOAD RETURNDATASIZE PUSH1 0x1F NOT PUSH1 0x1F DUP3 ADD AND DUP3 ADD DUP1 PUSH1 0x40 MSTORE POP DUP2 ADD SWAP1 PUSH2 0x179D SWAP2 SWAP1 PUSH2 0x2E48 JUMP JUMPDEST SWAP1 POP PUSH1 0x0 DUP2 GT PUSH2 0x17E6 JUMPI PUSH1 0x40 MLOAD PUSH3 0x461BCD PUSH1 0xE5 SHL DUP2 MSTORE PUSH1 0x20 PUSH1 0x4 DUP3 ADD MSTORE PUSH1 0x14 PUSH1 0x24 DUP3 ADD MSTORE PUSH20 0x4E6F2066756E647320746F207769746864726177 PUSH1 0x60 SHL PUSH1 0x44 DUP3 ADD MSTORE PUSH1 0x64 ADD PUSH2 0xBDD JUMP JUMPDEST PUSH1 0x9 SLOAD PUSH2 0x1820 SWAP1 PUSH1 0x1 PUSH1 0x1 PUSH1 0xA0 SHL SUB PUSH32 0x0 DUP2 AND SWAP2 AND DUP4 PUSH2 0x216F JUMP JUMPDEST PUSH1 0x9 SLOAD PUSH1 0x40 DUP1 MLOAD DUP4 DUP2 MSTORE PUSH1 0x1 PUSH1 0x1 PUSH1 0xA0 SHL SUB SWAP1 SWAP3 AND PUSH1 0x20 DUP4 ADD MSTORE PUSH32 0x8C7CDAD0D12A8DB3E23561B42DA6F10C8137914C97BEFF202213A410E1F520A3 SWAP2 ADD PUSH1 0x40 MLOAD DUP1 SWAP2 SUB SWAP1 LOG1 POP PUSH2 0xEF7 PUSH1 0x1 PUSH1 0x6 SSTORE JUMP JUMPDEST PUSH1 0x7 SLOAD PUSH1 0x0 SWAP1 PUSH2 0x100 SWAP1 DIV PUSH1 0xFF AND ISZERO PUSH2 0x18C7 JUMPI PUSH1 0x40 MLOAD PUSH3 0x461BCD PUSH1 0xE5 SHL DUP2 MSTORE PUSH1 0x20 PUSH1 0x4 DUP3 ADD MSTORE PUSH1 0x19 PUSH1 0x24 DUP3 ADD MSTORE PUSH25 0x111A5C9958DD081D1C985B9CD9995C9CC8191A5CD8589B1959 PUSH1 0x3A SHL PUSH1 0x44 DUP3 ADD MSTORE PUSH1 0x64 ADD PUSH2 0xBDD JUMP JUMPDEST PUSH2 0x18D1 DUP4 DUP4 PUSH2 0x2312 JUMP JUMPDEST SWAP4 SWAP3 POP POP POP JUMP JUMPDEST PUSH2 0x18E0 PUSH2 0x2095 JUMP JUMPDEST PUSH1 0x1 PUSH1 0x1 PUSH1 0xA0 SHL SUB DUP2 AND PUSH2 0x1925 JUMPI PUSH1 0x40 MLOAD PUSH3 0x461BCD PUSH1 0xE5 SHL DUP2 MSTORE PUSH1 0x20 PUSH1 0x4 DUP3 ADD MSTORE PUSH1 0xC PUSH1 0x24 DUP3 ADD MSTORE PUSH12 0x5A65726F2061646472657373 PUSH1 0xA0 SHL PUSH1 0x44 DUP3 ADD MSTORE PUSH1 0x64 ADD PUSH2 0xBDD JUMP JUMPDEST PUSH1 0xC DUP1 SLOAD PUSH1 0x1 PUSH1 0x1 PUSH1 0xA0 SHL SUB NOT AND PUSH1 0x1 PUSH1 0x1 PUSH1 0xA0 SHL SUB SWAP3 SWAP1 SWAP3 AND SWAP2 SWAP1 SWAP2 OR SWAP1 SSTORE JUMP JUMPDEST PUSH1 0xB SLOAD PUSH1 0x1 PUSH1 0x1 PUSH1 0xA0 SHL SUB AND CALLER EQ PUSH2 0x1971 JUMPI PUSH1 0x40 MLOAD PUSH3 0x461BCD PUSH1 0xE5 SHL DUP2 MSTORE PUSH1 0x4 ADD PUSH2 0xBDD SWAP1 PUSH2 0x2E22 JUMP JUMPDEST PUSH1 0x0 DUP2 GT PUSH2 0x19AC JUMPI PUSH1 0x40 MLOAD PUSH3 0x461BCD PUSH1 0xE5 SHL DUP2 MSTORE PUSH1 0x20 PUSH1 0x4 DUP3 ADD MSTORE PUSH1 0x8 PUSH1 0x24 DUP3 ADD MSTORE PUSH8 0x416D6F756E743E3 PUSH1 0xC4 SHL PUSH1 0x44 DUP3 ADD MSTORE PUSH1 0x64 ADD PUSH2 0xBDD JUMP JUMPDEST PUSH1 0x1 PUSH1 0x1 PUSH1 0xA0 SHL SUB DUP3 AND PUSH1 0x0 SWAP1 DUP2 MSTORE PUSH1 0x16 PUSH1 0x20 MSTORE PUSH1 0x40 SWAP1 KECCAK256 SLOAD ISZERO PUSH2 0x1A05 JUMPI PUSH1 0x40 MLOAD PUSH3 0x461BCD PUSH1 0xE5 SHL DUP2 MSTORE PUSH1 0x20 PUSH1 0x4 DUP3 ADD MSTORE PUSH1 0x10 PUSH1 0x24 DUP3 ADD MSTORE PUSH16 0x105B1C9958591E481C995CD95C9D9959 PUSH1 0x82 SHL PUSH1 0x44 DUP3 ADD MSTORE PUSH1 0x64 ADD PUSH2 0xBDD JUMP JUMPDEST PUSH1 0x12 SLOAD PUSH1 0xF SLOAD PUSH2 0x1A15 SWAP2 SWAP1 PUSH2 0x2CE3 JUMP JUMPDEST DUP2 GT ISZERO PUSH2 0x1A53 JUMPI PUSH1 0x40 MLOAD PUSH3 0x461BCD PUSH1 0xE5 SHL DUP2 MSTORE PUSH1 0x20 PUSH1 0x4 DUP3 ADD MSTORE PUSH1 0xC PUSH1 0x24 DUP3 ADD MSTORE PUSH12 0x457863656564732073616C65 PUSH1 0xA0 SHL PUSH1 0x44 DUP3 ADD MSTORE PUSH1 0x64 ADD PUSH2 0xBDD JUMP JUMPDEST PUSH1 0x0 PUSH2 0x1A61 PUSH1 0x6 PUSH1 0xA PUSH2 0x2DDA JUMP JUMPDEST PUSH1 0xE SLOAD PUSH2 0x1A6E SWAP1 DUP5 PUSH2 0x2DE9 JUMP JUMPDEST PUSH2 0x1A78 SWAP2 SWAP1 PUSH2 0x2E00 JUMP JUMPDEST SWAP1 POP PUSH2 0x1AAF PUSH1 0x1 PUSH1 0x1 PUSH1 0xA0 SHL SUB PUSH32 0x0 AND DUP5 ADDRESS DUP5 PUSH2 0x2244 JUMP JUMPDEST PUSH1 0x40 DUP1 MLOAD DUP1 DUP3 ADD DUP3 MSTORE DUP4 DUP2 MSTORE TIMESTAMP PUSH1 0x20 DUP1 DUP4 ADD SWAP2 DUP3 MSTORE PUSH1 0x1 PUSH1 0x1 PUSH1 0xA0 SHL SUB DUP8 AND PUSH1 0x0 SWAP1 DUP2 MSTORE PUSH1 0x16 SWAP1 SWAP2 MSTORE SWAP3 DUP4 KECCAK256 SWAP2 MLOAD DUP3 SSTORE MLOAD PUSH1 0x1 SWAP1 SWAP2 ADD SSTORE PUSH1 0x12 DUP1 SLOAD DUP5 SWAP3 SWAP1 PUSH2 0x1AF8 SWAP1 DUP5 SWAP1 PUSH2 0x2CD0 JUMP JUMPDEST SWAP1 SWAP2 SSTORE POP POP POP POP POP JUMP JUMPDEST PUSH2 0x1B0A PUSH2 0x2095 JUMP JUMPDEST PUSH1 0x1 PUSH1 0x1 PUSH1 0xA0 SHL SUB DUP2 AND PUSH2 0x1B53 JUMPI PUSH1 0x40 MLOAD PUSH3 0x461BCD PUSH1 0xE5 SHL DUP2 MSTORE PUSH1 0x20 PUSH1 0x4 DUP3 ADD MSTORE PUSH1 0x10 PUSH1 0x24 DUP3 ADD MSTORE PUSH16 0x24B73B30B634B21037B832B930BA37B9 PUSH1 0x81 SHL PUSH1 0x44 DUP3 ADD MSTORE PUSH1 0x64 ADD PUSH2 0xBDD JUMP JUMPDEST PUSH1 0xA DUP1 SLOAD PUSH1 0x1 PUSH1 0x1 PUSH1 0xA0 SHL SUB NOT AND PUSH1 0x1 PUSH1 0x1 PUSH1 0xA0 SHL SUB DUP4 AND SWAP1 DUP2 OR SWAP1 SWAP2 SSTORE PUSH1 0x40 MLOAD DUP2 SWAP1 PUSH32 0xFBE5B6CBAFB274F445D7FED869DC77A838D8243A22C460DE156560E8857CAD03 SWAP1 PUSH1 0x0 SWAP1 LOG3 POP JUMP JUMPDEST PUSH2 0x1BA7 PUSH2 0x2095 JUMP JUMPDEST PUSH1 0xF SLOAD ISZERO PUSH2 0x1BF0 JUMPI PUSH1 0x40 MLOAD PUSH3 0x461BCD PUSH1 0xE5 SHL DUP2 MSTORE PUSH1 0x20 PUSH1 0x4 DUP3 ADD MSTORE PUSH1 0x16 PUSH1 0x24 DUP3 ADD MSTORE PUSH22 0x43616E2774206D696E7420647572696E672073616C65 PUSH1 0x50 SHL PUSH1 0x44 DUP3 ADD MSTORE PUSH1 0x64 ADD PUSH2 0xBDD JUMP JUMPDEST PUSH1 0x9 SLOAD PUSH2 0x1C06 SWAP1 PUSH1 0x1 PUSH1 0x1 PUSH1 0xA0 SHL SUB AND DUP3 PUSH2 0x2320 JUMP JUMPDEST PUSH1 0x40 MLOAD DUP2 DUP2 MSTORE PUSH32 0x359675C23A13743CF846E03B084A0B1FD129FFA3404DBDD936EFFD23FB97AA9D SWAP1 PUSH1 0x20 ADD PUSH2 0xFC7 JUMP JUMPDEST PUSH2 0x1C3E PUSH2 0x2095 JUMP JUMPDEST PUSH1 0x7 DUP1 SLOAD SWAP2 ISZERO ISZERO PUSH2 0x100 MUL PUSH2 0xFF00 NOT SWAP1 SWAP3 AND SWAP2 SWAP1 SWAP2 OR SWAP1 SSTORE JUMP JUMPDEST PUSH2 0x1C64 PUSH1 0x3 PUSH1 0x64 PUSH2 0x2E61 JUMP JUMPDEST DUP2 JUMP JUMPDEST PUSH1 0x0 PUSH2 0x1C71 PUSH2 0x20C2 JUMP JUMPDEST PUSH1 0x0 DUP7 DUP2 MSTORE PUSH1 0x8 PUSH1 0x20 MSTORE PUSH1 0x40 SWAP1 KECCAK256 SLOAD PUSH1 0xFF AND ISZERO PUSH2 0x1CC0 JUMPI PUSH1 0x40 MLOAD PUSH3 0x461BCD PUSH1 0xE5 SHL DUP2 MSTORE PUSH1 0x20 PUSH1 0x4 DUP3 ADD MSTORE PUSH1 0xD PUSH1 0x24 DUP3 ADD MSTORE PUSH13 0x427566666572207265706C6179 PUSH1 0x98 SHL PUSH1 0x44 DUP3 ADD MSTORE PUSH1 0x64 ADD PUSH2 0xBDD JUMP JUMPDEST PUSH1 0x0 DUP7 DUP2 MSTORE PUSH1 0x8 PUSH1 0x20 SWAP1 DUP2 MSTORE PUSH1 0x40 DUP1 DUP4 KECCAK256 DUP1 SLOAD PUSH1 0xFF NOT AND PUSH1 0x1 OR SWAP1 SSTORE MLOAD PUSH2 0x1D1D SWAP2 DUP10 SWAP2 CALLER SWAP2 DUP9 SWAP2 DUP9 SWAP2 ADD SWAP4 DUP5 MSTORE PUSH1 0x60 SWAP3 DUP4 SHL PUSH12 0xFFFFFFFFFFFFFFFFFFFFFFFF NOT SWAP1 DUP2 AND PUSH1 0x20 DUP7 ADD MSTORE SWAP2 SWAP1 SWAP3 SHL AND PUSH1 0x34 DUP4 ADD MSTORE PUSH1 0x48 DUP3 ADD MSTORE PUSH1 0x68 ADD SWAP1 JUMP JUMPDEST PUSH1 0x40 MLOAD PUSH1 0x20 DUP2 DUP4 SUB SUB DUP2 MSTORE SWAP1 PUSH1 0x40 MSTORE DUP1 MLOAD SWAP1 PUSH1 0x20 ADD KECCAK256 SWAP1 POP PUSH1 0x0 PUSH2 0x1D6E DUP3 PUSH32 0x19457468657265756D205369676E6564204D6573736167653A0A333200000000 PUSH1 0x0 SWAP1 DUP2 MSTORE PUSH1 0x1C SWAP2 SWAP1 SWAP2 MSTORE PUSH1 0x3C SWAP1 KECCAK256 SWAP1 JUMP JUMPDEST SWAP1 POP PUSH1 0x0 PUSH2 0x1DB4 DUP9 DUP9 DUP1 DUP1 PUSH1 0x1F ADD PUSH1 0x20 DUP1 SWAP2 DIV MUL PUSH1 0x20 ADD PUSH1 0x40 MLOAD SWAP1 DUP2 ADD PUSH1 0x40 MSTORE DUP1 SWAP4 SWAP3 SWAP2 SWAP1 DUP2 DUP2 MSTORE PUSH1 0x20 ADD DUP4 DUP4 DUP1 DUP3 DUP5 CALLDATACOPY PUSH1 0x0 SWAP3 ADD SWAP2 SWAP1 SWAP2 MSTORE POP DUP7 SWAP4 SWAP3 POP POP PUSH2 0x2356 SWAP1 POP JUMP JUMPDEST PUSH1 0x14 SLOAD SWAP1 SWAP2 POP PUSH1 0x1 PUSH1 0x1 PUSH1 0xA0 SHL SUB DUP1 DUP4 AND SWAP2 AND EQ PUSH2 0x1E08 JUMPI PUSH1 0x40 MLOAD PUSH3 0x461BCD PUSH1 0xE5 SHL DUP2 MSTORE PUSH1 0x20 PUSH1 0x4 DUP3 ADD MSTORE PUSH1 0x11 PUSH1 0x24 DUP3 ADD MSTORE PUSH17 0x496E76616C6964207369676E6174757265 PUSH1 0x78 SHL PUSH1 0x44 DUP3 ADD MSTORE PUSH1 0x64 ADD PUSH2 0xBDD JUMP JUMPDEST PUSH2 0x1E13 CALLER DUP8 DUP8 PUSH2 0x20E6 JUMP JUMPDEST POP PUSH1 0x1 SWAP9 SWAP8 POP POP POP POP POP POP POP POP JUMP JUMPDEST PUSH2 0x1E2A PUSH2 0x2095 JUMP JUMPDEST PUSH2 0x1E32 PUSH2 0x20C2 JUMP JUMPDEST PUSH1 0x0 DUP3 GT PUSH2 0x1E74 JUMPI PUSH1 0x40 MLOAD PUSH3 0x461BCD PUSH1 0xE5 SHL DUP2 MSTORE PUSH1 0x20 PUSH1 0x4 DUP3 ADD MSTORE PUSH1 0xF PUSH1 0x24 DUP3 ADD MSTORE PUSH15 0x546F6B656E207072696365203E203 PUSH1 0x8C SHL PUSH1 0x44 DUP3 ADD MSTORE PUSH1 0x64 ADD PUSH2 0xBDD JUMP JUMPDEST PUSH1 0x0 PUSH2 0x1E7F PUSH1 0x2 SLOAD SWAP1 JUMP JUMPDEST PUSH1 0x13 DUP2 SWAP1 SSTORE SWAP1 POP PUSH1 0x64 PUSH2 0x1E93 PUSH1 0xA DUP4 PUSH2 0x2DE9 JUMP JUMPDEST PUSH2 0x1E9D SWAP2 SWAP1 PUSH2 0x2E00 JUMP JUMPDEST DUP3 LT ISZERO PUSH2 0x1EDC JUMPI PUSH1 0x40 MLOAD PUSH3 0x461BCD PUSH1 0xE5 SHL DUP2 MSTORE PUSH1 0x20 PUSH1 0x4 DUP3 ADD MSTORE PUSH1 0xD PUSH1 0x24 DUP3 ADD MSTORE PUSH13 0x546172676574203E3D20313025 PUSH1 0x98 SHL PUSH1 0x44 DUP3 ADD MSTORE PUSH1 0x64 ADD PUSH2 0xBDD JUMP JUMPDEST PUSH1 0x64 PUSH2 0x1EE9 PUSH1 0x1E DUP4 PUSH2 0x2DE9 JUMP JUMPDEST PUSH2 0x1EF3 SWAP2 SWAP1 PUSH2 0x2E00 JUMP JUMPDEST DUP3 GT ISZERO PUSH2 0x1F32 JUMPI PUSH1 0x40 MLOAD PUSH3 0x461BCD PUSH1 0xE5 SHL DUP2 MSTORE PUSH1 0x20 PUSH1 0x4 DUP3 ADD MSTORE PUSH1 0xD PUSH1 0x24 DUP3 ADD MSTORE PUSH13 0x546172676574203C3D20333025 PUSH1 0x98 SHL PUSH1 0x44 DUP3 ADD MSTORE PUSH1 0x64 ADD PUSH2 0xBDD JUMP JUMPDEST PUSH1 0x9 SLOAD PUSH1 0x1 PUSH1 0x1 PUSH1 0xA0 SHL SUB AND PUSH1 0x0 SWAP1 DUP2 MSTORE PUSH1 0x20 DUP2 SWAP1 MSTORE PUSH1 0x40 SWAP1 KECCAK256 SLOAD DUP5 GT ISZERO PUSH2 0x1F8D JUMPI PUSH1 0x40 MLOAD PUSH3 0x461BCD PUSH1 0xE5 SHL DUP2 MSTORE PUSH1 0x20 PUSH1 0x4 DUP3 ADD MSTORE PUSH1 0xE PUSH1 0x24 DUP3 ADD MSTORE PUSH14 0x53656C6C65722062616C206C6F77 PUSH1 0x90 SHL PUSH1 0x44 DUP3 ADD MSTORE PUSH1 0x64 ADD PUSH2 0xBDD JUMP JUMPDEST PUSH1 0x9 SLOAD PUSH1 0x1 PUSH1 0x1 PUSH1 0xA0 SHL SUB AND PUSH1 0x0 SWAP1 DUP2 MSTORE PUSH1 0x20 DUP2 SWAP1 MSTORE PUSH1 0x40 SWAP1 KECCAK256 SLOAD DUP3 SWAP1 PUSH2 0x1FB5 SWAP1 DUP7 SWAP1 PUSH2 0x2CE3 JUMP JUMPDEST EQ PUSH2 0x1FF7 JUMPI PUSH1 0x40 MLOAD PUSH3 0x461BCD PUSH1 0xE5 SHL DUP2 MSTORE PUSH1 0x20 PUSH1 0x4 DUP3 ADD MSTORE PUSH1 0x12 PUSH1 0x24 DUP3 ADD MSTORE PUSH18 0x109859081CD85B194BDD19DD081CDC1B1A5D PUSH1 0x72 SHL PUSH1 0x44 DUP3 ADD MSTORE PUSH1 0x64 ADD PUSH2 0xBDD JUMP JUMPDEST PUSH1 0xF DUP5 SWAP1 SSTORE PUSH1 0xE DUP4 SWAP1 SSTORE PUSH1 0x10 DUP3 SWAP1 SSTORE PUSH1 0x40 DUP1 MLOAD DUP6 DUP2 MSTORE PUSH1 0x20 DUP2 ADD DUP6 SWAP1 MSTORE SWAP1 DUP2 ADD DUP4 SWAP1 MSTORE PUSH32 0x4D012A69148885509F5EB0377244099C968F990DB1F853707B9D8E3FEA20F7B9 SWAP1 PUSH1 0x60 ADD PUSH1 0x40 MLOAD DUP1 SWAP2 SUB SWAP1 LOG1 POP POP POP POP JUMP JUMPDEST PUSH2 0x2055 PUSH2 0x2095 JUMP JUMPDEST PUSH1 0x1 PUSH1 0x1 PUSH1 0xA0 SHL SUB DUP2 AND PUSH2 0x207F JUMPI PUSH1 0x40 MLOAD PUSH4 0x1E4FBDF7 PUSH1 0xE0 SHL DUP2 MSTORE PUSH1 0x0 PUSH1 0x4 DUP3 ADD MSTORE PUSH1 0x24 ADD PUSH2 0xBDD JUMP JUMPDEST PUSH2 0xE6A DUP2 PUSH2 0x2283 JUMP JUMPDEST PUSH2 0xC51 DUP4 DUP4 DUP4 PUSH1 0x1 PUSH2 0x2380 JUMP JUMPDEST PUSH1 0x5 SLOAD PUSH1 0x1 PUSH1 0x1 PUSH1 0xA0 SHL SUB AND CALLER EQ PUSH2 0xEF7 JUMPI PUSH1 0x40 MLOAD PUSH4 0x118CDAA7 PUSH1 0xE0 SHL DUP2 MSTORE CALLER PUSH1 0x4 DUP3 ADD MSTORE PUSH1 0x24 ADD PUSH2 0xBDD JUMP JUMPDEST PUSH1 0x7 SLOAD PUSH1 0xFF AND ISZERO PUSH2 0xEF7 JUMPI PUSH1 0x40 MLOAD PUSH4 0xD93C0665 PUSH1 0xE0 SHL DUP2 MSTORE PUSH1 0x4 ADD PUSH1 0x40 MLOAD DUP1 SWAP2 SUB SWAP1 REVERT JUMPDEST PUSH1 0x1 PUSH1 0x1 PUSH1 0xA0 SHL SUB DUP4 AND PUSH2 0x2110 JUMPI PUSH1 0x40 MLOAD PUSH4 0x4B637E8F PUSH1 0xE1 SHL DUP2 MSTORE PUSH1 0x0 PUSH1 0x4 DUP3 ADD MSTORE PUSH1 0x24 ADD PUSH2 0xBDD JUMP JUMPDEST PUSH1 0x1 PUSH1 0x1 PUSH1 0xA0 SHL SUB DUP3 AND PUSH2 0x213A JUMPI PUSH1 0x40 MLOAD PUSH4 0xEC442F05 PUSH1 0xE0 SHL DUP2 MSTORE PUSH1 0x0 PUSH1 0x4 DUP3 ADD MSTORE PUSH1 0x24 ADD PUSH2 0xBDD JUMP JUMPDEST PUSH2 0xC51 DUP4 DUP4 DUP4 PUSH2 0x2455 JUMP JUMPDEST PUSH1 0x2 PUSH1 0x6 SLOAD SUB PUSH2 0x2168 JUMPI PUSH1 0x40 MLOAD PUSH4 0x3EE5AEB5 PUSH1 0xE0 SHL DUP2 MSTORE PUSH1 0x4 ADD PUSH1 0x40 MLOAD DUP1 SWAP2 SUB SWAP1 REVERT JUMPDEST PUSH1 0x2 PUSH1 0x6 SSTORE JUMP JUMPDEST PUSH1 0x40 MLOAD PUSH1 0x1 PUSH1 0x1 PUSH1 0xA0 SHL SUB DUP4 DUP2 AND PUSH1 0x24 DUP4 ADD MSTORE PUSH1 0x44 DUP3 ADD DUP4 SWAP1 MSTORE PUSH2 0xC51 SWAP2 DUP6 SWAP2 DUP3 AND SWAP1 PUSH4 0xA9059CBB SWAP1 PUSH1 0x64 ADD JUMPDEST PUSH1 0x40 MLOAD PUSH1 0x20 DUP2 DUP4 SUB SUB DUP2 MSTORE SWAP1 PUSH1 0x40 MSTORE SWAP2 POP PUSH1 0xE0 SHL PUSH1 0x20 DUP3 ADD DUP1 MLOAD PUSH1 0x1 PUSH1 0x1 PUSH1 0xE0 SHL SUB DUP4 DUP2 DUP4 AND OR DUP4 MSTORE POP POP POP POP PUSH2 0x246B JUMP JUMPDEST PUSH1 0x0 CALLER PUSH2 0x21DC DUP6 DUP3 DUP6 PUSH2 0x24DC JUMP JUMPDEST PUSH2 0x21E7 DUP6 DUP6 DUP6 PUSH2 0x20E6 JUMP JUMPDEST POP PUSH1 0x1 SWAP5 SWAP4 POP POP POP POP JUMP JUMPDEST PUSH2 0x21FA PUSH2 0x2555 JUMP JUMPDEST PUSH1 0x7 DUP1 SLOAD PUSH1 0xFF NOT AND SWAP1 SSTORE PUSH32 0x5DB9EE0A495BF2E6FF9C91A7834C1BA4FDD244A5E8AA4E537BD38AEAE4B073AA CALLER JUMPDEST PUSH1 0x40 MLOAD PUSH1 0x1 PUSH1 0x1 PUSH1 0xA0 SHL SUB SWAP1 SWAP2 AND DUP2 MSTORE PUSH1 0x20 ADD PUSH1 0x40 MLOAD DUP1 SWAP2 SUB SWAP1 LOG1 JUMP JUMPDEST PUSH1 0x40 MLOAD PUSH1 0x1 PUSH1 0x1 PUSH1 0xA0 SHL SUB DUP5 DUP2 AND PUSH1 0x24 DUP4 ADD MSTORE DUP4 DUP2 AND PUSH1 0x44 DUP4 ADD MSTORE PUSH1 0x64 DUP3 ADD DUP4 SWAP1 MSTORE PUSH2 0x227D SWAP2 DUP7 SWAP2 DUP3 AND SWAP1 PUSH4 0x23B872DD SWAP1 PUSH1 0x84 ADD PUSH2 0x219C JUMP JUMPDEST POP POP POP POP JUMP JUMPDEST PUSH1 0x5 DUP1 SLOAD PUSH1 0x1 PUSH1 0x1 PUSH1 0xA0 SHL SUB DUP4 DUP2 AND PUSH1 0x1 PUSH1 0x1 PUSH1 0xA0 SHL SUB NOT DUP4 AND DUP2 OR SWAP1 SWAP4 SSTORE PUSH1 0x40 MLOAD SWAP2 AND SWAP2 SWAP1 DUP3 SWAP1 PUSH32 0x8BE0079C531659141344CD1FD0A4F28419497F9722A3DAAFE3B4186F6B6457E0 SWAP1 PUSH1 0x0 SWAP1 LOG3 POP POP JUMP JUMPDEST PUSH2 0x22DD PUSH2 0x20C2 JUMP JUMPDEST PUSH1 0x7 DUP1 SLOAD PUSH1 0xFF NOT AND PUSH1 0x1 OR SWAP1 SSTORE PUSH32 0x62E78CEA01BEE320CD4E420270B5EA74000D11B0C9F74754EBDBFC544B05A258 PUSH2 0x2227 CALLER SWAP1 JUMP JUMPDEST PUSH1 0x0 CALLER PUSH2 0xB63 DUP2 DUP6 DUP6 PUSH2 0x20E6 JUMP JUMPDEST PUSH1 0x1 PUSH1 0x1 PUSH1 0xA0 SHL SUB DUP3 AND PUSH2 0x234A JUMPI PUSH1 0x40 MLOAD PUSH4 0xEC442F05 PUSH1 0xE0 SHL DUP2 MSTORE PUSH1 0x0 PUSH1 0x4 DUP3 ADD MSTORE PUSH1 0x24 ADD PUSH2 0xBDD JUMP JUMPDEST PUSH2 0x14C6 PUSH1 0x0 DUP4 DUP4 PUSH2 0x2455 JUMP JUMPDEST PUSH1 0x0 DUP1 PUSH1 0x0 DUP1 PUSH2 0x2366 DUP7 DUP7 PUSH2 0x2578 JUMP JUMPDEST SWAP3 POP SWAP3 POP SWAP3 POP PUSH2 0x2376 DUP3 DUP3 PUSH2 0x25C5 JUMP JUMPDEST POP SWAP1 SWAP5 SWAP4 POP POP POP POP JUMP JUMPDEST PUSH1 0x1 PUSH1 0x1 PUSH1 0xA0 SHL SUB DUP5 AND PUSH2 0x23AA JUMPI PUSH1 0x40 MLOAD PUSH4 0xE602DF05 PUSH1 0xE0 SHL DUP2 MSTORE PUSH1 0x0 PUSH1 0x4 DUP3 ADD MSTORE PUSH1 0x24 ADD PUSH2 0xBDD JUMP JUMPDEST PUSH1 0x1 PUSH1 0x1 PUSH1 0xA0 SHL SUB DUP4 AND PUSH2 0x23D4 JUMPI PUSH1 0x40 MLOAD PUSH4 0x4A1406B1 PUSH1 0xE1 SHL DUP2 MSTORE PUSH1 0x0 PUSH1 0x4 DUP3 ADD MSTORE PUSH1 0x24 ADD PUSH2 0xBDD JUMP JUMPDEST PUSH1 0x1 PUSH1 0x1 PUSH1 0xA0 SHL SUB DUP1 DUP6 AND PUSH1 0x0 SWAP1 DUP2 MSTORE PUSH1 0x1 PUSH1 0x20 SWAP1 DUP2 MSTORE PUSH1 0x40 DUP1 DUP4 KECCAK256 SWAP4 DUP8 AND DUP4 MSTORE SWAP3 SWAP1 MSTORE KECCAK256 DUP3 SWAP1 SSTORE DUP1 ISZERO PUSH2 0x227D JUMPI DUP3 PUSH1 0x1 PUSH1 0x1 PUSH1 0xA0 SHL SUB AND DUP5 PUSH1 0x1 PUSH1 0x1 PUSH1 0xA0 SHL SUB AND PUSH32 0x8C5BE1E5EBEC7D5BD14F71427D1E84F3DD0314C0F7B2291E5B200AC8C7C3B925 DUP5 PUSH1 0x40 MLOAD PUSH2 0x2447 SWAP2 DUP2 MSTORE PUSH1 0x20 ADD SWAP1 JUMP JUMPDEST PUSH1 0x40 MLOAD DUP1 SWAP2 SUB SWAP1 LOG3 POP POP POP POP JUMP JUMPDEST PUSH2 0x2460 DUP4 DUP4 DUP4 PUSH2 0x267E JUMP JUMPDEST PUSH2 0xC51 DUP4 DUP4 DUP4 PUSH2 0x286D JUMP JUMPDEST PUSH1 0x0 DUP1 PUSH1 0x20 PUSH1 0x0 DUP5 MLOAD PUSH1 0x20 DUP7 ADD PUSH1 0x0 DUP9 GAS CALL DUP1 PUSH2 0x248E JUMPI PUSH1 0x40 MLOAD RETURNDATASIZE PUSH1 0x0 DUP3 RETURNDATACOPY RETURNDATASIZE DUP2 REVERT JUMPDEST POP POP PUSH1 0x0 MLOAD RETURNDATASIZE SWAP2 POP DUP2 ISZERO PUSH2 0x24A6 JUMPI DUP1 PUSH1 0x1 EQ ISZERO PUSH2 0x24B3 JUMP JUMPDEST PUSH1 0x1 PUSH1 0x1 PUSH1 0xA0 SHL SUB DUP5 AND EXTCODESIZE ISZERO JUMPDEST ISZERO PUSH2 0x227D JUMPI PUSH1 0x40 MLOAD PUSH4 0x5274AFE7 PUSH1 0xE0 SHL DUP2 MSTORE PUSH1 0x1 PUSH1 0x1 PUSH1 0xA0 SHL SUB DUP6 AND PUSH1 0x4 DUP3 ADD MSTORE PUSH1 0x24 ADD PUSH2 0xBDD JUMP JUMPDEST PUSH1 0x1 PUSH1 0x1 PUSH1 0xA0 SHL SUB DUP4 DUP2 AND PUSH1 0x0 SWAP1 DUP2 MSTORE PUSH1 0x1 PUSH1 0x20 SWAP1 DUP2 MSTORE PUSH1 0x40 DUP1 DUP4 KECCAK256 SWAP4 DUP7 AND DUP4 MSTORE SWAP3 SWAP1 MSTORE KECCAK256 SLOAD PUSH1 0x0 NOT DUP2 LT ISZERO PUSH2 0x227D JUMPI DUP2 DUP2 LT ISZERO PUSH2 0x2546 JUMPI PUSH1 0x40 MLOAD PUSH4 0x7DC7A0D9 PUSH1 0xE1 SHL DUP2 MSTORE PUSH1 0x1 PUSH1 0x1 PUSH1 0xA0 SHL SUB DUP5 AND PUSH1 0x4 DUP3 ADD MSTORE PUSH1 0x24 DUP2 ADD DUP3 SWAP1 MSTORE PUSH1 0x44 DUP2 ADD DUP4 SWAP1 MSTORE PUSH1 0x64 ADD PUSH2 0xBDD JUMP JUMPDEST PUSH2 0x227D DUP5 DUP5 DUP5 DUP5 SUB PUSH1 0x0 PUSH2 0x2380 JUMP JUMPDEST PUSH1 0x7 SLOAD PUSH1 0xFF AND PUSH2 0xEF7 JUMPI PUSH1 0x40 MLOAD PUSH4 0x8DFC202B PUSH1 0xE0 SHL DUP2 MSTORE PUSH1 0x4 ADD PUSH1 0x40 MLOAD DUP1 SWAP2 SUB SWAP1 REVERT JUMPDEST PUSH1 0x0 DUP1 PUSH1 0x0 DUP4 MLOAD PUSH1 0x41 SUB PUSH2 0x25B2 JUMPI PUSH1 0x20 DUP5 ADD MLOAD PUSH1 0x40 DUP6 ADD MLOAD PUSH1 0x60 DUP7 ADD MLOAD PUSH1 0x0 BYTE PUSH2 0x25A4 DUP9 DUP3 DUP6 DUP6 PUSH2 0x2997 JUMP JUMPDEST SWAP6 POP SWAP6 POP SWAP6 POP POP POP POP PUSH2 0x25BE JUMP JUMPDEST POP POP DUP2 MLOAD PUSH1 0x0 SWAP2 POP PUSH1 0x2 SWAP1 JUMPDEST SWAP3 POP SWAP3 POP SWAP3 JUMP JUMPDEST PUSH1 0x0 DUP3 PUSH1 0x3 DUP2 GT ISZERO PUSH2 0x25D9 JUMPI PUSH2 0x25D9 PUSH2 0x2E7A JUMP JUMPDEST SUB PUSH2 0x25E2 JUMPI POP POP JUMP JUMPDEST PUSH1 0x1 DUP3 PUSH1 0x3 DUP2 GT ISZERO PUSH2 0x25F6 JUMPI PUSH2 0x25F6 PUSH2 0x2E7A JUMP JUMPDEST SUB PUSH2 0x2614 JUMPI PUSH1 0x40 MLOAD PUSH4 0xF645EEDF PUSH1 0xE0 SHL DUP2 MSTORE PUSH1 0x4 ADD PUSH1 0x40 MLOAD DUP1 SWAP2 SUB SWAP1 REVERT JUMPDEST PUSH1 0x2 DUP3 PUSH1 0x3 DUP2 GT ISZERO PUSH2 0x2628 JUMPI PUSH2 0x2628 PUSH2 0x2E7A JUMP JUMPDEST SUB PUSH2 0x2649 JUMPI PUSH1 0x40 MLOAD PUSH4 0xFCE698F7 PUSH1 0xE0 SHL DUP2 MSTORE PUSH1 0x4 DUP2 ADD DUP3 SWAP1 MSTORE PUSH1 0x24 ADD PUSH2 0xBDD JUMP JUMPDEST PUSH1 0x3 DUP3 PUSH1 0x3 DUP2 GT ISZERO PUSH2 0x265D JUMPI PUSH2 0x265D PUSH2 0x2E7A JUMP JUMPDEST SUB PUSH2 0x14C6 JUMPI PUSH1 0x40 MLOAD PUSH4 0x35E2F383 PUSH1 0xE2 SHL DUP2 MSTORE PUSH1 0x4 DUP2 ADD DUP3 SWAP1 MSTORE PUSH1 0x24 ADD PUSH2 0xBDD JUMP JUMPDEST PUSH1 0xD SLOAD PUSH1 0x1 PUSH1 0xA8 SHL SWAP1 DIV PUSH1 0xFF AND DUP1 PUSH2 0x269D JUMPI POP PUSH1 0x1 PUSH1 0x1 PUSH1 0xA0 SHL SUB DUP4 AND ISZERO JUMPDEST DUP1 PUSH2 0x26AF JUMPI POP PUSH1 0x1 PUSH1 0x1 PUSH1 0xA0 SHL SUB DUP3 AND ISZERO JUMPDEST PUSH2 0x26F4 JUMPI PUSH1 0x40 MLOAD PUSH3 0x461BCD PUSH1 0xE5 SHL DUP2 MSTORE PUSH1 0x20 PUSH1 0x4 DUP3 ADD MSTORE PUSH1 0x16 PUSH1 0x24 DUP3 ADD MSTORE PUSH22 0x151C985B9CD9995C9CC8185C9948191A5CD8589B1959 PUSH1 0x52 SHL PUSH1 0x44 DUP3 ADD MSTORE PUSH1 0x64 ADD PUSH2 0xBDD JUMP JUMPDEST PUSH1 0x1 PUSH1 0x1 PUSH1 0xA0 SHL SUB DUP4 AND ISZERO DUP1 ISZERO SWAP1 PUSH2 0x2714 JUMPI POP PUSH1 0x1 PUSH1 0x1 PUSH1 0xA0 SHL SUB DUP3 AND ISZERO ISZERO JUMPDEST ISZERO PUSH2 0xC51 JUMPI PUSH1 0x9 SLOAD PUSH1 0x1 PUSH1 0x1 PUSH1 0xA0 SHL SUB SWAP1 DUP2 AND SWAP1 DUP5 AND SUB PUSH2 0x27B7 JUMPI PUSH1 0x9 SLOAD PUSH1 0x1 PUSH1 0x1 PUSH1 0xA0 SHL SUB AND PUSH1 0x0 SWAP1 DUP2 MSTORE PUSH1 0x20 DUP2 SWAP1 MSTORE PUSH1 0x40 DUP2 KECCAK256 SLOAD PUSH2 0x2755 SWAP1 DUP4 SWAP1 PUSH2 0x2CE3 JUMP JUMPDEST SWAP1 POP PUSH1 0x10 SLOAD DUP2 LT ISZERO PUSH2 0x27B5 JUMPI PUSH1 0x40 MLOAD PUSH3 0x461BCD PUSH1 0xE5 SHL DUP2 MSTORE PUSH1 0x20 PUSH1 0x4 DUP3 ADD MSTORE PUSH1 0x24 DUP1 DUP3 ADD MSTORE PUSH32 0x53656C6C6572206D7573742072657461696E206D696E696D756D206F776E6572 PUSH1 0x44 DUP3 ADD MSTORE PUSH4 0x7368697 PUSH1 0xE4 SHL PUSH1 0x64 DUP3 ADD MSTORE PUSH1 0x84 ADD PUSH2 0xBDD JUMP JUMPDEST POP JUMPDEST PUSH1 0x9 SLOAD PUSH1 0x1 PUSH1 0x1 PUSH1 0xA0 SHL SUB DUP4 DUP2 AND SWAP2 AND EQ PUSH2 0xC51 JUMPI PUSH1 0x0 PUSH1 0x13 SLOAD PUSH1 0x0 EQ PUSH2 0x27E0 JUMPI PUSH1 0x13 SLOAD PUSH2 0x27E4 JUMP JUMPDEST PUSH1 0x2 SLOAD JUMPDEST SWAP1 POP PUSH1 0x64 PUSH2 0x27F3 PUSH1 0xF DUP4 PUSH2 0x2DE9 JUMP JUMPDEST PUSH2 0x27FD SWAP2 SWAP1 PUSH2 0x2E00 JUMP JUMPDEST DUP3 PUSH2 0x281D DUP6 PUSH1 0x1 PUSH1 0x1 PUSH1 0xA0 SHL SUB AND PUSH1 0x0 SWAP1 DUP2 MSTORE PUSH1 0x20 DUP2 SWAP1 MSTORE PUSH1 0x40 SWAP1 KECCAK256 SLOAD SWAP1 JUMP JUMPDEST PUSH2 0x2827 SWAP2 SWAP1 PUSH2 0x2CD0 JUMP JUMPDEST GT ISZERO PUSH2 0x227D JUMPI PUSH1 0x40 MLOAD PUSH3 0x461BCD PUSH1 0xE5 SHL DUP2 MSTORE PUSH1 0x20 PUSH1 0x4 DUP3 ADD MSTORE PUSH1 0x15 PUSH1 0x24 DUP3 ADD MSTORE PUSH21 0x42757965722065786365656473203135252063617 PUSH1 0x5C SHL PUSH1 0x44 DUP3 ADD MSTORE PUSH1 0x64 ADD PUSH2 0xBDD JUMP JUMPDEST PUSH1 0x1 PUSH1 0x1 PUSH1 0xA0 SHL SUB DUP4 AND PUSH2 0x2898 JUMPI DUP1 PUSH1 0x2 PUSH1 0x0 DUP3 DUP3 SLOAD PUSH2 0x288D SWAP2 SWAP1 PUSH2 0x2CD0 JUMP JUMPDEST SWAP1 SWAP2 SSTORE POP PUSH2 0x290A SWAP1 POP JUMP JUMPDEST PUSH1 0x1 PUSH1 0x1 PUSH1 0xA0 SHL SUB DUP4 AND PUSH1 0x0 SWAP1 DUP2 MSTORE PUSH1 0x20 DUP2 SWAP1 MSTORE PUSH1 0x40 SWAP1 KECCAK256 SLOAD DUP2 DUP2 LT ISZERO PUSH2 0x28EB JUMPI PUSH1 0x40 MLOAD PUSH4 0x391434E3 PUSH1 0xE2 SHL DUP2 MSTORE PUSH1 0x1 PUSH1 0x1 PUSH1 0xA0 SHL SUB DUP6 AND PUSH1 0x4 DUP3 ADD MSTORE PUSH1 0x24 DUP2 ADD DUP3 SWAP1 MSTORE PUSH1 0x44 DUP2 ADD DUP4 SWAP1 MSTORE PUSH1 0x64 ADD PUSH2 0xBDD JUMP JUMPDEST PUSH1 0x1 PUSH1 0x1 PUSH1 0xA0 SHL SUB DUP5 AND PUSH1 0x0 SWAP1 DUP2 MSTORE PUSH1 0x20 DUP2 SWAP1 MSTORE PUSH1 0x40 SWAP1 KECCAK256 SWAP1 DUP3 SWAP1 SUB SWAP1 SSTORE JUMPDEST PUSH1 0x1 PUSH1 0x1 PUSH1 0xA0 SHL SUB DUP3 AND PUSH2 0x2926 JUMPI PUSH1 0x2 DUP1 SLOAD DUP3 SWAP1 SUB SWAP1 SSTORE PUSH2 0x2945 JUMP JUMPDEST PUSH1 0x1 PUSH1 0x1 PUSH1 0xA0 SHL SUB DUP3 AND PUSH1 0x0 SWAP1 DUP2 MSTORE PUSH1 0x20 DUP2 SWAP1 MSTORE PUSH1 0x40 SWAP1 KECCAK256 DUP1 SLOAD DUP3 ADD SWAP1 SSTORE JUMPDEST DUP2 PUSH1 0x1 PUSH1 0x1 PUSH1 0xA0 SHL SUB AND DUP4 PUSH1 0x1 PUSH1 0x1 PUSH1 0xA0 SHL SUB AND PUSH32 0xDDF252AD1BE2C89B69C2B068FC378DAA952BA7F163C4A11628F55A4DF523B3EF DUP4 PUSH1 0x40 MLOAD PUSH2 0x298A SWAP2 DUP2 MSTORE PUSH1 0x20 ADD SWAP1 JUMP JUMPDEST PUSH1 0x40 MLOAD DUP1 SWAP2 SUB SWAP1 LOG3 POP POP POP JUMP JUMPDEST PUSH1 0x0 DUP1 DUP1 PUSH32 0x7FFFFFFFFFFFFFFFFFFFFFFFFFFFFFFF5D576E7357A4501DDFE92F46681B20A0 DUP5 GT ISZERO PUSH2 0x29D2 JUMPI POP PUSH1 0x0 SWAP2 POP PUSH1 0x3 SWAP1 POP DUP3 PUSH2 0x2A5C JUMP JUMPDEST PUSH1 0x40 DUP1 MLOAD PUSH1 0x0 DUP1 DUP3 MSTORE PUSH1 0x20 DUP3 ADD DUP1 DUP5 MSTORE DUP11 SWAP1 MSTORE PUSH1 0xFF DUP10 AND SWAP3 DUP3 ADD SWAP3 SWAP1 SWAP3 MSTORE PUSH1 0x60 DUP2 ADD DUP8 SWAP1 MSTORE PUSH1 0x80 DUP2 ADD DUP7 SWAP1 MSTORE PUSH1 0x1 SWAP1 PUSH1 0xA0 ADD PUSH1 0x20 PUSH1 0x40 MLOAD PUSH1 0x20 DUP2 SUB SWAP1 DUP1 DUP5 SUB SWAP1 DUP6 GAS STATICCALL ISZERO DUP1 ISZERO PUSH2 0x2A26 JUMPI RETURNDATASIZE PUSH1 0x0 DUP1 RETURNDATACOPY RETURNDATASIZE PUSH1 0x0 REVERT JUMPDEST POP POP PUSH1 0x40 MLOAD PUSH1 0x1F NOT ADD MLOAD SWAP2 POP POP PUSH1 0x1 PUSH1 0x1 PUSH1 0xA0 SHL SUB DUP2 AND PUSH2 0x2A52 JUMPI POP PUSH1 0x0 SWAP3 POP PUSH1 0x1 SWAP2 POP DUP3 SWAP1 POP PUSH2 0x2A5C JUMP JUMPDEST SWAP3 POP PUSH1 0x0 SWAP2 POP DUP2 SWAP1 POP JUMPDEST SWAP5 POP SWAP5 POP SWAP5 SWAP2 POP POP JUMP JUMPDEST PUSH1 0x0 PUSH1 0x20 DUP1 DUP4 MSTORE DUP4 MLOAD DUP1 DUP3 DUP6 ADD MSTORE PUSH1 0x0 JUMPDEST DUP2 DUP2 LT ISZERO PUSH2 0x2A93 JUMPI DUP6 DUP2 ADD DUP4 ADD MLOAD DUP6 DUP3 ADD PUSH1 0x40 ADD MSTORE DUP3 ADD PUSH2 0x2A77 JUMP JUMPDEST POP PUSH1 0x0 PUSH1 0x40 DUP3 DUP7 ADD ADD MSTORE PUSH1 0x40 PUSH1 0x1F NOT PUSH1 0x1F DUP4 ADD AND DUP6 ADD ADD SWAP3 POP POP POP SWAP3 SWAP2 POP POP JUMP JUMPDEST DUP1 CALLDATALOAD PUSH1 0x1 PUSH1 0x1 PUSH1 0xA0 SHL SUB DUP2 AND DUP2 EQ PUSH2 0x2ACB JUMPI PUSH1 0x0 DUP1 REVERT JUMPDEST SWAP2 SWAP1 POP JUMP JUMPDEST PUSH1 0x0 DUP1 PUSH1 0x40 DUP4 DUP6 SUB SLT ISZERO PUSH2 0x2AE3 JUMPI PUSH1 0x0 DUP1 REVERT JUMPDEST PUSH2 0x2AEC DUP4 PUSH2 0x2AB4 JUMP JUMPDEST SWAP5 PUSH1 0x20 SWAP4 SWAP1 SWAP4 ADD CALLDATALOAD SWAP4 POP POP POP JUMP JUMPDEST PUSH1 0x0 DUP1 PUSH1 0x0 PUSH1 0x60 DUP5 DUP7 SUB SLT ISZERO PUSH2 0x2B0F JUMPI PUSH1 0x0 DUP1 REVERT JUMPDEST PUSH2 0x2B18 DUP5 PUSH2 0x2AB4 JUMP JUMPDEST SWAP3 POP PUSH2 0x2B26 PUSH1 0x20 DUP6 ADD PUSH2 0x2AB4 JUMP JUMPDEST SWAP2 POP PUSH1 0x40 DUP5 ADD CALLDATALOAD SWAP1 POP SWAP3 POP SWAP3 POP SWAP3 JUMP JUMPDEST PUSH1 0x0 PUSH1 0x20 DUP3 DUP5 SUB SLT ISZERO PUSH2 0x2B48 JUMPI PUSH1 0x0 DUP1 REVERT JUMPDEST PUSH2 0x18D1 DUP3 PUSH2 0x2AB4 JUMP JUMPDEST PUSH1 0x0 PUSH1 0x20 DUP3 DUP5 SUB SLT ISZERO PUSH2 0x2B63 JUMPI PUSH1 0x0 DUP1 REVERT JUMPDEST POP CALLDATALOAD SWAP2 SWAP1 POP JUMP JUMPDEST PUSH1 0x0 PUSH1 0x20 DUP3 DUP5 SUB SLT ISZERO PUSH2 0x2B7C JUMPI PUSH1 0x0 DUP1 REVERT JUMPDEST DUP2 CALLDATALOAD DUP1 ISZERO ISZERO DUP2 EQ PUSH2 0x18D1 JUMPI PUSH1 0x0 DUP1 REVERT JUMPDEST PUSH1 0x0 DUP1 PUSH1 0x0 DUP1 PUSH1 0x0 PUSH1 0x80 DUP7 DUP9 SUB SLT ISZERO PUSH2 0x2BA4 JUMPI PUSH1 0x0 DUP1 REVERT JUMPDEST DUP6 CALLDATALOAD SWAP5 POP PUSH1 0x20 DUP7 ADD CALLDATALOAD PUSH8 0xFFFFFFFFFFFFFFFF DUP1 DUP3 GT ISZERO PUSH2 0x2BC3 JUMPI PUSH1 0x0 DUP1 REVERT JUMPDEST DUP2 DUP9 ADD SWAP2 POP DUP9 PUSH1 0x1F DUP4 ADD SLT PUSH2 0x2BD7 JUMPI PUSH1 0x0 DUP1 REVERT JUMPDEST DUP2 CALLDATALOAD DUP2 DUP2 GT ISZERO PUSH2 0x2BE6 JUMPI PUSH1 0x0 DUP1 REVERT JUMPDEST DUP10 PUSH1 0x20 DUP3 DUP6 ADD ADD GT ISZERO PUSH2 0x2BF8 JUMPI PUSH1 0x0 DUP1 REVERT JUMPDEST PUSH1 0x20 DUP4 ADD SWAP7 POP DUP1 SWAP6 POP POP POP POP PUSH2 0x2C10 PUSH1 0x40 DUP8 ADD PUSH2 0x2AB4 JUMP JUMPDEST SWAP5 SWAP8 SWAP4 SWAP7 POP SWAP2 SWAP5 PUSH1 0x60 ADD CALLDATALOAD SWAP3 SWAP2 POP POP JUMP JUMPDEST PUSH1 0x0 DUP1 PUSH1 0x40 DUP4 DUP6 SUB SLT ISZERO PUSH2 0x2C34 JUMPI PUSH1 0x0 DUP1 REVERT JUMPDEST PUSH2 0x2C3D DUP4 PUSH2 0x2AB4 JUMP JUMPDEST SWAP2 POP PUSH2 0x2C4B PUSH1 0x20 DUP5 ADD PUSH2 0x2AB4 JUMP JUMPDEST SWAP1 POP SWAP3 POP SWAP3 SWAP1 POP JUMP JUMPDEST PUSH1 0x0 DUP1 PUSH1 0x0 PUSH1 0x60 DUP5 DUP7 SUB SLT ISZERO PUSH2 0x2C69 JUMPI PUSH1 0x0 DUP1 REVERT JUMPDEST POP POP DUP2 CALLDATALOAD SWAP4 PUSH1 0x20 DUP4 ADD CALLDATALOAD SWAP4 POP PUSH1 0x40 SWAP1 SWAP3 ADD CALLDATALOAD SWAP2 SWAP1 POP JUMP JUMPDEST PUSH1 0x1 DUP2 DUP2 SHR SWAP1 DUP3 AND DUP1 PUSH2 0x2C94 JUMPI PUSH1 0x7F DUP3 AND SWAP2 POP JUMPDEST PUSH1 0x20 DUP3 LT DUP2 SUB PUSH2 0x2CB4 JUMPI PUSH4 0x4E487B71 PUSH1 0xE0 SHL PUSH1 0x0 MSTORE PUSH1 0x22 PUSH1 0x4 MSTORE PUSH1 0x24 PUSH1 0x0 REVERT JUMPDEST POP SWAP2 SWAP1 POP JUMP JUMPDEST PUSH4 0x4E487B71 PUSH1 0xE0 SHL PUSH1 0x0 MSTORE PUSH1 0x11 PUSH1 0x4 MSTORE PUSH1 0x24 PUSH1 0x0 REVERT JUMPDEST DUP1 DUP3 ADD DUP1 DUP3 GT ISZERO PUSH2 0xB69 JUMPI PUSH2 0xB69 PUSH2 0x2CBA JUMP JUMPDEST DUP2 DUP2 SUB DUP2 DUP2 GT ISZERO PUSH2 0xB69 JUMPI PUSH2 0xB69 PUSH2 0x2CBA JUMP JUMPDEST PUSH1 0x1 DUP2 DUP2 JUMPDEST DUP1 DUP6 GT ISZERO PUSH2 0x2D31 JUMPI DUP2 PUSH1 0x0 NOT DIV DUP3 GT ISZERO PUSH2 0x2D17 JUMPI PUSH2 0x2D17 PUSH2 0x2CBA JUMP JUMPDEST DUP1 DUP6 AND ISZERO PUSH2 0x2D24 JUMPI SWAP2 DUP2 MUL SWAP2 JUMPDEST SWAP4 DUP5 SHR SWAP4 SWAP1 DUP1 MUL SWAP1 PUSH2 0x2CFB JUMP JUMPDEST POP SWAP3 POP SWAP3 SWAP1 POP JUMP JUMPDEST PUSH1 0x0 DUP3 PUSH2 0x2D48 JUMPI POP PUSH1 0x1 PUSH2 0xB69 JUMP JUMPDEST DUP2 PUSH2 0x2D55 JUMPI POP PUSH1 0x0 PUSH2 0xB69 JUMP JUMPDEST DUP2 PUSH1 0x1 DUP2 EQ PUSH2 0x2D6B JUMPI PUSH1 0x2 DUP2 EQ PUSH2 0x2D75 JUMPI PUSH2 0x2D91 JUMP JUMPDEST PUSH1 0x1 SWAP2 POP POP PUSH2 0xB69 JUMP JUMPDEST PUSH1 0xFF DUP5 GT ISZERO PUSH2 0x2D86 JUMPI PUSH2 0x2D86 PUSH2 0x2CBA JUMP JUMPDEST POP POP PUSH1 0x1 DUP3 SHL PUSH2 0xB69 JUMP JUMPDEST POP PUSH1 0x20 DUP4 LT PUSH2 0x133 DUP4 LT AND PUSH1 0x4E DUP5 LT PUSH1 0xB DUP5 LT AND OR ISZERO PUSH2 0x2DB4 JUMPI POP DUP2 DUP2 EXP PUSH2 0xB69 JUMP JUMPDEST PUSH2 0x2DBE DUP4 DUP4 PUSH2 0x2CF6 JUMP JUMPDEST DUP1 PUSH1 0x0 NOT DIV DUP3 GT ISZERO PUSH2 0x2DD2 JUMPI PUSH2 0x2DD2 PUSH2 0x2CBA JUMP JUMPDEST MUL SWAP4 SWAP3 POP POP POP JUMP JUMPDEST PUSH1 0x0 PUSH2 0x18D1 PUSH1 0xFF DUP5 AND DUP4 PUSH2 0x2D39 JUMP JUMPDEST DUP1 DUP3 MUL DUP2 ISZERO DUP3 DUP3 DIV DUP5 EQ OR PUSH2 0xB69 JUMPI PUSH2 0xB69 PUSH2 0x2CBA JUMP JUMPDEST PUSH1 0x0 DUP3 PUSH2 0x2E1D JUMPI PUSH4 0x4E487B71 PUSH1 0xE0 SHL PUSH1 0x0 MSTORE PUSH1 0x12 PUSH1 0x4 MSTORE PUSH1 0x24 PUSH1 0x0 REVERT JUMPDEST POP DIV SWAP1 JUMP JUMPDEST PUSH1 0x20 DUP1 DUP3 MSTORE PUSH1 0xC SWAP1 DUP3 ADD MSTORE PUSH12 0x4F6E6C7920666163746F7279 PUSH1 0xA0 SHL PUSH1 0x40 DUP3 ADD MSTORE PUSH1 0x60 ADD SWAP1 JUMP JUMPDEST PUSH1 0x0 PUSH1 0x20 DUP3 DUP5 SUB SLT ISZERO PUSH2 0x2E5A JUMPI PUSH1 0x0 DUP1 REVERT JUMPDEST POP MLOAD SWAP2 SWAP1 POP JUMP JUMPDEST PUSH1 0xFF DUP3 DUP2 AND DUP3 DUP3 AND SUB SWAP1 DUP2 GT ISZERO PUSH2 0xB69 JUMPI PUSH2 0xB69 PUSH2 0x2CBA JUMP JUMPDEST PUSH4 0x4E487B71 PUSH1 0xE0 SHL PUSH1 0x0 MSTORE PUSH1 0x21 PUSH1 0x4 MSTORE PUSH1 0x24 PUSH1 0x0 REVERT INVALID LOG2 PUSH5 0x6970667358 0x22 SLT KECCAK256 PUSH12 0xCB7485133DE53760FF1A8C37 0xB9 0xFB ISZERO 0xFB GT PUSH20 0x9CF182C76ACE1FA955B5AC23E664736F6C634300 ADDMOD EQ STOP CALLER "},"methodIdentifiers":{"AGREEMENT_TIMEOUT()":"00267f9a","MAX_BUYER_PERCENT()":"d5cf7cfe","MAX_SELLER_PERCENT()":"624b233d","MIN_SELLER_PERCENT()":"7b239e22","PERCENT_BASE()":"805d835d","SELLER_ALLOCATION_PERCENT()":"c157c5ff","WHIMSY_ALLOCATION_PERCENT()":"b91f6f0e","agreeDisclaimerFor(address)":"6add3bdb","allowance(address,address)":"dd62ed3e","approve(address,uint256)":"095ea7b3","balanceOf(address)":"70a08231","bufferUsed(bytes32)":"58bcc4fb","buyTokensFor(address,uint256)":"712daa75","decimals()":"313ce567","endSaleEarly()":"8f52f0f9","factory()":"c45a0155","getPostMoneyValuation(uint256)":"2b319a8f","governanceContract()":"b172b222","hasAgreedDisclaimer(address)":"7d6c8c00","increaseSupply(uint256)":"b921e163","name()":"06fdde03","operator()":"570ca735","operatorTransfer(address,address,uint256)":"0d1af103","owner()":"8da5cb5b","pause()":"8456cb59","paused()":"5c975abb","paymentToken()":"3013ce29","pendingReservations(address)":"490deb3d","refundUnagreedBuyer(address)":"1df37492","renounceOwnership()":"715018a6","requireSignatureOnTransfer()":"93634c0a","reserveTokensFor(address,uint256)":"b2826b91","saleEnded()":"9b8906ae","saleSupplySnapshot()":"15482ce1","seller()":"08551a53","setFactory(address)":"5bb47808","setGovernance(address)":"ab033ea9","setOperator(address)":"b3ab15fb","setRequireSignatureOnTransfer(bool)":"bbd30fb9","setSaleParameters(uint256,uint256,uint256)":"e249b7ce","setSigner(address)":"6c19e783","setWhimsy(address)":"74faa74b","signatureTransfer(bytes32,bytes,address,uint256)":"c421d18f","symbol()":"95d89b41","targetSellerOwnership()":"bb979d62","toggleTransfers(bool)":"68504158","tokenPrice()":"7ff9b596","tokensForSale()":"12aef8c3","totalRaised()":"c5c4744c","totalReserved()":"c71b0e1c","totalSupply()":"18160ddd","transfer(address,uint256)":"a9059cbb","transferFrom(address,address,uint256)":"23b872dd","transferOwnership(address)":"f2fde38b","transfersEnabled()":"bef97c87","unpause()":"3f4ba83a","updateSellerAddress(address)":"685dab8f","whimsy()":"16314a69","withdrawPayment()":"a118babd"}}}}}