{
  "_format": "hh-sol-artifact-1",
  "contractName": "PropertyTokenFactory",
  "sourceName": "contracts/PropertyTokenFactory.sol",
  "abi": [
    {
      "inputs": [
        {
          "internalType": "address",
          "name": "whimsyAddress",
          "type": "address"
        },
        {
          "internalType": "address",
          "name": "paymentTokenAddress",
          "type": "address"
        }
      ],
      "stateMutability": "nonpayable",
      "type": "constructor"
    },
    {
      "inputs": [],
      "name": "EnforcedPause",
      "type": "error"
    },
    {
      "inputs": [],
      "name": "ExpectedPause",
      "type": "error"
    },
    {
      "inputs": [
        {
          "internalType": "address",
          "name": "owner",
          "type": "address"
        }
      ],
      "name": "OwnableInvalidOwner",
      "type": "error"
    },
    {
      "inputs": [
        {
          "internalType": "address",
          "name": "account",
          "type": "address"
        }
      ],
      "name": "OwnableUnauthorizedAccount",
      "type": "error"
    },
    {
      "inputs": [],
      "name": "Unauthorized",
      "type": "error"
    },
    {
      "anonymous": false,
      "inputs": [
        {
          "indexed": true,
          "internalType": "uint256",
          "name": "propertyId",
          "type": "uint256"
        },
        {
          "indexed": true,
          "internalType": "address",
          "name": "tokenOwner",
          "type": "address"
        },
        {
          "indexed": false,
          "internalType": "uint256",
          "name": "amount",
          "type": "uint256"
        }
      ],
      "name": "Clawback",
      "type": "event"
    },
    {
      "anonymous": false,
      "inputs": [
        {
          "indexed": true,
          "internalType": "uint256",
          "name": "propertyId",
          "type": "uint256"
        },
        {
          "indexed": false,
          "internalType": "address",
          "name": "tokenAddress",
          "type": "address"
        }
      ],
      "name": "NewProperty",
      "type": "event"
    },
    {
      "anonymous": false,
      "inputs": [
        {
          "indexed": true,
          "internalType": "address",
          "name": "previousOwner",
          "type": "address"
        },
        {
          "indexed": true,
          "internalType": "address",
          "name": "newOwner",
          "type": "address"
        }
      ],
      "name": "OwnershipTransferred",
      "type": "event"
    },
    {
      "anonymous": false,
      "inputs": [
        {
          "indexed": false,
          "internalType": "address",
          "name": "account",
          "type": "address"
        }
      ],
      "name": "Paused",
      "type": "event"
    },
    {
      "anonymous": false,
      "inputs": [
        {
          "indexed": true,
          "internalType": "uint256",
          "name": "propertyId",
          "type": "uint256"
        },
        {
          "indexed": false,
          "internalType": "uint256",
          "name": "tokensForSale",
          "type": "uint256"
        },
        {
          "indexed": false,
          "internalType": "uint256",
          "name": "price",
          "type": "uint256"
        },
        {
          "indexed": false,
          "internalType": "uint256",
          "name": "sellerOwnership",
          "type": "uint256"
        }
      ],
      "name": "SaleParametersSet",
      "type": "event"
    },
    {
      "anonymous": false,
      "inputs": [
        {
          "indexed": true,
          "internalType": "uint256",
          "name": "propertyId",
          "type": "uint256"
        },
        {
          "indexed": false,
          "internalType": "address",
          "name": "newSeller",
          "type": "address"
        }
      ],
      "name": "SellerUpdated",
      "type": "event"
    },
    {
      "anonymous": false,
      "inputs": [
        {
          "indexed": true,
          "internalType": "uint256",
          "name": "propertyId",
          "type": "uint256"
        },
        {
          "indexed": false,
          "internalType": "uint256",
          "name": "newAmount",
          "type": "uint256"
        }
      ],
      "name": "SupplyIncreased",
      "type": "event"
    },
    {
      "anonymous": false,
      "inputs": [
        {
          "indexed": true,
          "internalType": "uint256",
          "name": "propertyId",
          "type": "uint256"
        },
        {
          "indexed": true,
          "internalType": "address",
          "name": "previousOwner",
          "type": "address"
        },
        {
          "indexed": true,
          "internalType": "address",
          "name": "newOwner",
          "type": "address"
        }
      ],
      "name": "TokenOwnershipTransferred",
      "type": "event"
    },
    {
      "anonymous": false,
      "inputs": [
        {
          "indexed": true,
          "internalType": "uint256",
          "name": "propertyId",
          "type": "uint256"
        },
        {
          "indexed": false,
          "internalType": "address",
          "name": "buyer",
          "type": "address"
        },
        {
          "indexed": false,
          "internalType": "uint256",
          "name": "amount",
          "type": "uint256"
        }
      ],
      "name": "TokensPurchased",
      "type": "event"
    },
    {
      "anonymous": false,
      "inputs": [
        {
          "indexed": false,
          "internalType": "address",
          "name": "account",
          "type": "address"
        }
      ],
      "name": "Unpaused",
      "type": "event"
    },
    {
      "anonymous": false,
      "inputs": [
        {
          "indexed": true,
          "internalType": "address",
          "name": "oldWhimsy",
          "type": "address"
        },
        {
          "indexed": true,
          "internalType": "address",
          "name": "newWhimsy",
          "type": "address"
        }
      ],
      "name": "WhimsyUpdated",
      "type": "event"
    },
    {
      "inputs": [
        {
          "internalType": "uint256",
          "name": "pid",
          "type": "uint256"
        }
      ],
      "name": "agreeDisclaimer",
      "outputs": [],
      "stateMutability": "nonpayable",
      "type": "function"
    },
    {
      "inputs": [
        {
          "internalType": "uint256",
          "name": "propertyId",
          "type": "uint256"
        },
        {
          "internalType": "uint256",
          "name": "amount",
          "type": "uint256"
        }
      ],
      "name": "buyTokens",
      "outputs": [],
      "stateMutability": "nonpayable",
      "type": "function"
    },
    {
      "inputs": [
        {
          "internalType": "uint256",
          "name": "propertyId",
          "type": "uint256"
        },
        {
          "internalType": "address",
          "name": "tokenOwner",
          "type": "address"
        }
      ],
      "name": "clawback",
      "outputs": [],
      "stateMutability": "nonpayable",
      "type": "function"
    },
    {
      "inputs": [
        {
          "internalType": "string",
          "name": "name",
          "type": "string"
        },
        {
          "internalType": "string",
          "name": "symbol",
          "type": "string"
        },
        {
          "internalType": "uint256",
          "name": "initialSupply",
          "type": "uint256"
        },
        {
          "internalType": "address",
          "name": "seller",
          "type": "address"
        },
        {
          "internalType": "uint256",
          "name": "targetSellerOwnership",
          "type": "uint256"
        },
        {
          "internalType": "uint256",
          "name": "tokenPrice",
          "type": "uint256"
        }
      ],
      "name": "createIPropertyToken",
      "outputs": [
        {
          "internalType": "address",
          "name": "",
          "type": "address"
        }
      ],
      "stateMutability": "nonpayable",
      "type": "function"
    },
    {
      "inputs": [
        {
          "internalType": "uint256",
          "name": "propertyId",
          "type": "uint256"
        }
      ],
      "name": "endSaleEarly",
      "outputs": [],
      "stateMutability": "nonpayable",
      "type": "function"
    },
    {
      "inputs": [
        {
          "internalType": "uint256",
          "name": "pid",
          "type": "uint256"
        }
      ],
      "name": "getIPropertyToken",
      "outputs": [
        {
          "internalType": "address",
          "name": "",
          "type": "address"
        }
      ],
      "stateMutability": "view",
      "type": "function"
    },
    {
      "inputs": [
        {
          "internalType": "uint256",
          "name": "pid",
          "type": "uint256"
        },
        {
          "internalType": "uint256",
          "name": "pre",
          "type": "uint256"
        }
      ],
      "name": "getPostMoneyValuation",
      "outputs": [
        {
          "internalType": "uint256",
          "name": "",
          "type": "uint256"
        }
      ],
      "stateMutability": "view",
      "type": "function"
    },
    {
      "inputs": [
        {
          "internalType": "uint256",
          "name": "pid",
          "type": "uint256"
        },
        {
          "internalType": "uint256",
          "name": "propId",
          "type": "uint256"
        }
      ],
      "name": "getProposal",
      "outputs": [
        {
          "internalType": "string",
          "name": "",
          "type": "string"
        },
        {
          "internalType": "uint256",
          "name": "",
          "type": "uint256"
        },
        {
          "internalType": "uint256",
          "name": "",
          "type": "uint256"
        },
        {
          "internalType": "bool",
          "name": "",
          "type": "bool"
        }
      ],
      "stateMutability": "view",
      "type": "function"
    },
    {
      "inputs": [
        {
          "internalType": "uint256",
          "name": "pid",
          "type": "uint256"
        }
      ],
      "name": "getSeller",
      "outputs": [
        {
          "internalType": "address",
          "name": "",
          "type": "address"
        }
      ],
      "stateMutability": "view",
      "type": "function"
    },
    {
      "inputs": [
        {
          "internalType": "uint256",
          "name": "propertyId",
          "type": "uint256"
        },
        {
          "internalType": "uint256",
          "name": "amount",
          "type": "uint256"
        }
      ],
      "name": "increaseSupply",
      "outputs": [],
      "stateMutability": "nonpayable",
      "type": "function"
    },
    {
      "inputs": [
        {
          "internalType": "uint256",
          "name": "pid",
          "type": "uint256"
        },
        {
          "internalType": "uint256",
          "name": "amt",
          "type": "uint256"
        }
      ],
      "name": "mintMoreSupply",
      "outputs": [],
      "stateMutability": "nonpayable",
      "type": "function"
    },
    {
      "inputs": [],
      "name": "owner",
      "outputs": [
        {
          "internalType": "address",
          "name": "",
          "type": "address"
        }
      ],
      "stateMutability": "view",
      "type": "function"
    },
    {
      "inputs": [
        {
          "internalType": "uint256",
          "name": "pid",
          "type": "uint256"
        }
      ],
      "name": "pauseToken",
      "outputs": [],
      "stateMutability": "nonpayable",
      "type": "function"
    },
    {
      "inputs": [],
      "name": "paused",
      "outputs": [
        {
          "internalType": "bool",
          "name": "",
          "type": "bool"
        }
      ],
      "stateMutability": "view",
      "type": "function"
    },
    {
      "inputs": [],
      "name": "paymentToken",
      "outputs": [
        {
          "internalType": "contract IERC20",
          "name": "",
          "type": "address"
        }
      ],
      "stateMutability": "view",
      "type": "function"
    },
    {
      "inputs": [
        {
          "internalType": "uint256",
          "name": "",
          "type": "uint256"
        }
      ],
      "name": "properties",
      "outputs": [
        {
          "internalType": "address",
          "name": "token",
          "type": "address"
        },
        {
          "internalType": "address",
          "name": "seller",
          "type": "address"
        }
      ],
      "stateMutability": "view",
      "type": "function"
    },
    {
      "inputs": [],
      "name": "propertyCount",
      "outputs": [
        {
          "internalType": "uint256",
          "name": "",
          "type": "uint256"
        }
      ],
      "stateMutability": "view",
      "type": "function"
    },
    {
      "inputs": [
        {
          "internalType": "uint256",
          "name": "pid",
          "type": "uint256"
        }
      ],
      "name": "proposalsLength",
      "outputs": [
        {
          "internalType": "uint256",
          "name": "",
          "type": "uint256"
        }
      ],
      "stateMutability": "view",
      "type": "function"
    },
    {
      "inputs": [
        {
          "internalType": "uint256",
          "name": "pid",
          "type": "uint256"
        },
        {
          "internalType": "address",
          "name": "b",
          "type": "address"
        }
      ],
      "name": "refundUnagreedBuyer",
      "outputs": [],
      "stateMutability": "nonpayable",
      "type": "function"
    },
    {
      "inputs": [],
      "name": "renounceOwnership",
      "outputs": [],
      "stateMutability": "nonpayable",
      "type": "function"
    },
    {
      "inputs": [
        {
          "internalType": "uint256",
          "name": "pid",
          "type": "uint256"
        },
        {
          "internalType": "uint256",
          "name": "amount",
          "type": "uint256"
        }
      ],
      "name": "reserveTokens",
      "outputs": [],
      "stateMutability": "nonpayable",
      "type": "function"
    },
    {
      "inputs": [
        {
          "internalType": "uint256",
          "name": "propertyId",
          "type": "uint256"
        },
        {
          "internalType": "uint256",
          "name": "tokensForSale",
          "type": "uint256"
        },
        {
          "internalType": "uint256",
          "name": "tokenPrice",
          "type": "uint256"
        },
        {
          "internalType": "uint256",
          "name": "sellerTargetOwnership",
          "type": "uint256"
        }
      ],
      "name": "setSaleParameters",
      "outputs": [],
      "stateMutability": "nonpayable",
      "type": "function"
    },
    {
      "inputs": [
        {
          "internalType": "address",
          "name": "assignedSigner",
          "type": "address"
        }
      ],
      "name": "setSigner",
      "outputs": [],
      "stateMutability": "nonpayable",
      "type": "function"
    },
    {
      "inputs": [
        {
          "internalType": "uint256",
          "name": "pid",
          "type": "uint256"
        },
        {
          "internalType": "address",
          "name": "op",
          "type": "address"
        }
      ],
      "name": "setTokenOperator",
      "outputs": [],
      "stateMutability": "nonpayable",
      "type": "function"
    },
    {
      "inputs": [
        {
          "internalType": "uint256",
          "name": "propertyId",
          "type": "uint256"
        },
        {
          "internalType": "address",
          "name": "assignedSigner",
          "type": "address"
        }
      ],
      "name": "setTokenSigner",
      "outputs": [],
      "stateMutability": "nonpayable",
      "type": "function"
    },
    {
      "inputs": [
        {
          "internalType": "uint256",
          "name": "propertyId",
          "type": "uint256"
        },
        {
          "internalType": "address",
          "name": "newWhimsy",
          "type": "address"
        }
      ],
      "name": "setWhimsy",
      "outputs": [],
      "stateMutability": "nonpayable",
      "type": "function"
    },
    {
      "inputs": [
        {
          "internalType": "uint256",
          "name": "pid",
          "type": "uint256"
        },
        {
          "internalType": "bool",
          "name": "e",
          "type": "bool"
        }
      ],
      "name": "toggleTokenTransfers",
      "outputs": [],
      "stateMutability": "nonpayable",
      "type": "function"
    },
    {
      "inputs": [
        {
          "internalType": "address",
          "name": "newOwner",
          "type": "address"
        }
      ],
      "name": "transferOwnership",
      "outputs": [],
      "stateMutability": "nonpayable",
      "type": "function"
    },
    {
      "inputs": [
        {
          "internalType": "uint256",
          "name": "propertyId",
          "type": "uint256"
        },
        {
          "internalType": "address",
          "name": "newOwner",
          "type": "address"
        }
      ],
      "name": "transferTokenOwnership",
      "outputs": [],
      "stateMutability": "nonpayable",
      "type": "function"
    },
    {
      "inputs": [
        {
          "internalType": "uint256",
          "name": "pid",
          "type": "uint256"
        }
      ],
      "name": "unpauseToken",
      "outputs": [],
      "stateMutability": "nonpayable",
      "type": "function"
    },
    {
      "inputs": [
        {
          "internalType": "uint256",
          "name": "propertyId",
          "type": "uint256"
        },
        {
          "internalType": "address",
          "name": "newSeller",
          "type": "address"
        }
      ],
      "name": "updateSellerAddress",
      "outputs": [],
      "stateMutability": "nonpayable",
      "type": "function"
    },
    {
      "inputs": [],
      "name": "whimsy",
      "outputs": [
        {
          "internalType": "address",
          "name": "",
          "type": "address"
        }
      ],
      "stateMutability": "view",
      "type": "function"
    },
    {
      "inputs": [
        {
          "internalType": "uint256",
          "name": "propertyId",
          "type": "uint256"
        }
      ],
      "name": "withdrawPayment",
      "outputs": [],
      "stateMutability": "nonpayable",
      "type": "function"
    }
  ],
  "bytecode": "0x60a06040523480156200001157600080fd5b50604051620060cb380380620060cb8339810160408190526200003491620001b8565b33806200005c57604051631e4fbdf760e01b8152600060048201526024015b60405180910390fd5b62000067816200014b565b506000805460ff60a01b191690556001600160a01b038216620000cd5760405162461bcd60e51b815260206004820152601460248201527f466163746f72793a207a65726f207768696d7379000000000000000000000000604482015260640162000053565b6001600160a01b038116620001255760405162461bcd60e51b815260206004820152601a60248201527f466163746f72793a207a65726f207061796d656e74546f6b656e000000000000604482015260640162000053565b600380546001600160a01b0319166001600160a01b0393841617905516608052620001f0565b600080546001600160a01b038381166001600160a01b0319831681178455604051919092169283917f8be0079c531659141344cd1fd0a4f28419497f9722a3daafe3b4186f6b6457e09190a35050565b80516001600160a01b0381168114620001b357600080fd5b919050565b60008060408385031215620001cc57600080fd5b620001d7836200019b565b9150620001e7602084016200019b565b90509250929050565b608051615eb862000213600039600081816102b701526113a50152615eb86000f3fe60806040523480156200001157600080fd5b5060043610620002255760003560e01c80638cceffc51162000131578063dbd3cd6211620000bb578063e9e7e5991162000086578063e9e7e59914620004e4578063ee2e569314620004fb578063f2fde38b1462000512578063f7b108081462000529578063fbd395f8146200058157600080fd5b8063dbd3cd621462000488578063df2f9edb146200049f578063e303540514620004b6578063e9cf64e614620004cd57600080fd5b8063c26da3c711620000fc578063c26da3c71462000439578063c361a3351462000450578063c7692e55146200045a578063d6a9de51146200047157600080fd5b80638cceffc514620003d05780638da5cb5b14620003e75780639a78aa7c14620003f9578063aba21009146200041057600080fd5b80634e1fe5d811620001b35780636c19e783116200017e5780636c19e7831462000381578063715018a61462000398578063776ab63414620003a25780637975ce2814620003b957600080fd5b80634e1fe5d8146200031e5780634ffc101914620003355780635c975abb146200034c578063651cffd3146200036a57600080fd5b80633013ce2911620001f45780633013ce2914620002b1578063308749b114620002d957806335586b2914620002f057806343ea46e1146200030757600080fd5b806312655190146200022a57806316314a69146200024357806318128d9e146200027457806319479cd6146200028b575b600080fd5b620002416200023b36600462002066565b62000598565b005b60035462000257906001600160a01b031681565b6040516001600160a01b0390911681526020015b60405180910390f35b620002416200028536600462002099565b620006e4565b620002a26200029c36600462002099565b620007c5565b6040519081526020016200026b565b620002577f000000000000000000000000000000000000000000000000000000000000000081565b62000241620002ea366004620020c9565b620008a7565b6200024162000301366004620020fc565b620009e3565b620002a262000318366004620020fc565b62000a98565b620002416200032f366004620020c9565b62000b89565b6200024162000346366004620020fc565b62000c59565b600054600160a01b900460ff1660405190151581526020016200026b565b620002416200037b3660046200212e565b62000d06565b620002416200039236600462002156565b62000db6565b6200024162000de2565b62000241620003b336600462002099565b62000dfa565b62000241620003ca366004620020fc565b62000eb4565b62000241620003e1366004620020c9565b62000fa3565b6000546001600160a01b031662000257565b620002416200040a36600462002099565b62001053565b6200042762000421366004620020fc565b62001117565b6040516200026b9493929190620021ca565b620002416200044a366004620020c9565b6200121a565b620002a260025481565b620002576200046b366004620022ce565b62001260565b620002576200048236600462002099565b62001563565b620002416200049936600462002099565b620015f0565b62000257620004b036600462002099565b620016b3565b62000241620004c7366004620020c9565b6200173c565b62000241620004de366004620020c9565b6200199f565b62000241620004f5366004620020fc565b62001b89565b620002416200050c366004620020c9565b62001caa565b620002416200052336600462002156565b62001e8a565b620005606200053a36600462002099565b600160208190526000918252604090912080549101546001600160a01b03918216911682565b604080516001600160a01b039384168152929091166020830152016200026b565b620002416200059236600462002099565b62001ece565b620005a262001f92565b620005ac62001fc1565b83600081118015620005c057506002548111155b620005e85760405162461bcd60e51b8152600401620005df9062002369565b60405180910390fd5b6000818152600160205260409020546001600160a01b03166200061f5760405162461bcd60e51b8152600401620005df9062002392565b60008581526001602052604090819020549051637124dbe760e11b81526004810186905260248101859052604481018490526001600160a01b039091169063e249b7ce90606401600060405180830381600087803b1580156200068157600080fd5b505af115801562000696573d6000803e3d6000fd5b505060408051878152602081018790529081018590528792507f8ddcfc1d9950b6c2bd638293ff3274aca360e3a83ebb7ba9cf720d4c946877e7915060600160405180910390a25050505050565b620006ee62001fc1565b806000811180156200070257506002548111155b620007215760405162461bcd60e51b8152600401620005df9062002369565b6000818152600160205260409020546001600160a01b0316620007585760405162461bcd60e51b8152600401620005df9062002392565b620007638262001fed565b604051636add3bdb60e01b81523360048201526001600160a01b039190911690636add3bdb906024015b600060405180830381600087803b158015620007a857600080fd5b505af1158015620007bd573d6000803e3d6000fd5b505050505050565b600081600081118015620007db57506002548111155b620007fa5760405162461bcd60e51b8152600401620005df9062002369565b6000818152600160205260409020546001600160a01b0316620008315760405162461bcd60e51b8152600401620005df9062002392565b6200083c8362001fed565b6001600160a01b03166344c7c8676040518163ffffffff1660e01b8152600401602060405180830381865afa1580156200087a573d6000803e3d6000fd5b505050506040513d601f19601f82011682018060405250810190620008a09190620023bd565b9392505050565b620008b162001f92565b620008bb62001fc1565b81600081118015620008cf57506002548111155b620008ee5760405162461bcd60e51b8152600401620005df9062002369565b6000818152600160205260409020546001600160a01b0316620009255760405162461bcd60e51b8152600401620005df9062002392565b6001600160a01b038216620009735760405162461bcd60e51b81526020600482015260136024820152722330b1ba37b93c9d103d32b93790313abcb2b960691b6044820152606401620005df565b6200097e8362001fed565b604051630ef9ba4960e11b81526001600160a01b0384811660048301529190911690631df37492906024015b600060405180830381600087803b158015620009c557600080fd5b505af1158015620009da573d6000803e3d6000fd5b50505050505050565b620009ed62001fc1565b8160008111801562000a0157506002548111155b62000a205760405162461bcd60e51b8152600401620005df9062002369565b6000818152600160205260409020546001600160a01b031662000a575760405162461bcd60e51b8152600401620005df9062002392565b62000a628362001fed565b60405163b2826b9160e01b8152336004820152602481018490526001600160a01b03919091169063b2826b9190604401620009aa565b60008260008111801562000aae57506002548111155b62000acd5760405162461bcd60e51b8152600401620005df9062002369565b6000818152600160205260409020546001600160a01b031662000b045760405162461bcd60e51b8152600401620005df9062002392565b62000b0f8462001fed565b6001600160a01b0316632b319a8f846040518263ffffffff1660e01b815260040162000b3d91815260200190565b602060405180830381865afa15801562000b5b573d6000803e3d6000fd5b505050506040513d601f19601f8201168201806040525081019062000b819190620023bd565b949350505050565b62000b9362001f92565b6001600160a01b03811662000be35760405162461bcd60e51b8152602060048201526015602482015274466163746f72793a207a65726f206164647265737360581b6044820152606401620005df565b6003546040516001600160a01b038084169216907fb27a84474703ce30a05e600606fa29dbcfb1671aa7363e45dbf0f1b78f3ee11690600090a362000c288262001fed565b6040516374faa74b60e01b81526001600160a01b03838116600483015291909116906374faa74b906024016200078d565b62000c6362001f92565b8160008111801562000c7757506002548111155b62000c965760405162461bcd60e51b8152600401620005df9062002369565b6000818152600160205260409020546001600160a01b031662000ccd5760405162461bcd60e51b8152600401620005df9062002392565b62000cd88362001fed565b6001600160a01b031663b921e163836040518263ffffffff1660e01b8152600401620009aa91815260200190565b62000d1062001f92565b8160008111801562000d2457506002548111155b62000d435760405162461bcd60e51b8152600401620005df9062002369565b6000818152600160205260409020546001600160a01b031662000d7a5760405162461bcd60e51b8152600401620005df9062002392565b62000d858362001fed565b604051630d0a082b60e31b815283151560048201526001600160a01b039190911690636850415890602401620009aa565b62000dc062001f92565b600480546001600160a01b0319166001600160a01b0392909216919091179055565b62000dec62001f92565b62000df8600062002008565b565b62000e0462001f92565b8060008111801562000e1857506002548111155b62000e375760405162461bcd60e51b8152600401620005df9062002369565b6000818152600160205260409020546001600160a01b031662000e6e5760405162461bcd60e51b8152600401620005df9062002392565b62000e798262001fed565b6001600160a01b0316633f4ba83a6040518163ffffffff1660e01b8152600401600060405180830381600087803b158015620007a857600080fd5b62000ebe62001fc1565b8160008111801562000ed257506002548111155b62000ef15760405162461bcd60e51b8152600401620005df9062002369565b6000818152600160205260409020546001600160a01b031662000f285760405162461bcd60e51b8152600401620005df9062002392565b6000838152600160205260409081902054905163712daa7560e01b8152336004820152602481018490526001600160a01b0390911690819063712daa7590604401600060405180830381600087803b15801562000f8457600080fd5b505af115801562000f99573d6000803e3d6000fd5b5050505050505050565b62000fad62001f92565b8160008111801562000fc157506002548111155b62000fe05760405162461bcd60e51b8152600401620005df9062002369565b6000818152600160205260409020546001600160a01b0316620010175760405162461bcd60e51b8152600401620005df9062002392565b620010228362001fed565b60405163b3ab15fb60e01b81526001600160a01b038481166004830152919091169063b3ab15fb90602401620009aa565b6200105d62001f92565b6200106762001fc1565b806000811180156200107b57506002548111155b6200109a5760405162461bcd60e51b8152600401620005df9062002369565b6000818152600160205260409020546001600160a01b0316620010d15760405162461bcd60e51b8152600401620005df9062002392565b620010dc8262001fed565b6001600160a01b0316638f52f0f96040518163ffffffff1660e01b8152600401600060405180830381600087803b158015620007a857600080fd5b60606000806000856000811180156200113257506002548111155b620011515760405162461bcd60e51b8152600401620005df9062002369565b6000818152600160205260409020546001600160a01b0316620011885760405162461bcd60e51b8152600401620005df9062002392565b620011938762001fed565b6001600160a01b031663c7f758a8876040518263ffffffff1660e01b8152600401620011c191815260200190565b600060405180830381865afa158015620011df573d6000803e3d6000fd5b505050506040513d6000823e601f3d908101601f19168201604052620012099190810190620023d7565b929a91995097509095509350505050565b6200122462001f92565b6200122f8262001fed565b604051636c19e78360e01b81526001600160a01b0383811660048301529190911690636c19e783906024016200078d565b60006200126c62001f92565b6200127662001fc1565b6001600160a01b038416620012bc5760405162461bcd60e51b815260206004820152600b60248201526a3d32b9379039b2b63632b960a91b6044820152606401620005df565b60008211620012fb5760405162461bcd60e51b815260206004820152600a6024820152697072696365207a65726f60b01b6044820152606401620005df565b60646200130a86600a62002497565b620013169190620024b7565b831015801562001340575060646200133086601e62002497565b6200133c9190620024b7565b8311155b620013815760405162461bcd60e51b815260206004820152601060248201526f74617267657420313020746f2033302560801b6044820152606401620005df565b6003546004546040516000928a928a928a928a926001600160a01b039182169230927f0000000000000000000000000000000000000000000000000000000000000000921690620013d29062002058565b620013e5989796959493929190620024da565b604051809103906000f08015801562001402573d6000803e3d6000fd5b509050600060646200141660038962002497565b620014229190620024b7565b905060008562001433838a62002546565b6200143f919062002546565b604051637124dbe760e11b81526004810182905260248101879052604481018890529091506001600160a01b0384169063e249b7ce90606401600060405180830381600087803b1580156200149357600080fd5b505af1158015620014a8573d6000803e3d6000fd5b505050506000600260008154620014bf906200255c565b91829055506040805180820182526001600160a01b038781168083528c821660208085019182526000878152600180835290879020955186549086166001600160a01b0319918216178755925195018054959094169490911693909317909155915191825291925082917fe4c85afbede48f9150a9112b5279f9f137aad21303dca0d760254767e8b2e321910160405180910390a250919998505050505050505050565b6000816000811180156200157957506002548111155b620015985760405162461bcd60e51b8152600401620005df9062002369565b6000818152600160205260409020546001600160a01b0316620015cf5760405162461bcd60e51b8152600401620005df9062002392565b5050600090815260016020819052604090912001546001600160a01b031690565b620015fa62001f92565b806000811180156200160e57506002548111155b6200162d5760405162461bcd60e51b8152600401620005df9062002369565b6000818152600160205260409020546001600160a01b0316620016645760405162461bcd60e51b8152600401620005df9062002392565b60008281526001602052604080822054815163a118babd60e01b815291516001600160a01b0390911692839263a118babd926004808301939282900301818387803b158015620009c557600080fd5b600081600081118015620016c957506002548111155b620016e85760405162461bcd60e51b8152600401620005df9062002369565b6000818152600160205260409020546001600160a01b03166200171f5760405162461bcd60e51b8152600401620005df9062002392565b50506000908152600160205260409020546001600160a01b031690565b6200174662001f92565b816000811180156200175a57506002548111155b620017795760405162461bcd60e51b8152600401620005df9062002369565b6000818152600160205260409020546001600160a01b0316620017b05760405162461bcd60e51b8152600401620005df9062002392565b6001600160a01b038216620017fe5760405162461bcd60e51b81526020600482015260136024820152722330b1ba37b93c9d103d32b9379037bbb732b960691b6044820152606401620005df565b6000838152600160205260408082205490516370a0823160e01b81526001600160a01b038581166004830152909116919082906370a0823190602401602060405180830381865afa15801562001858573d6000803e3d6000fd5b505050506040513d601f19601f820116820180604052508101906200187e9190620023bd565b905060008111620018c75760405162461bcd60e51b8152602060048201526012602482015271466163746f72793a206e6f20746f6b656e7360701b6044820152606401620005df565b816001600160a01b0316630d1af10385620018ea6000546001600160a01b031690565b6040516001600160e01b031960e085901b1681526001600160a01b0392831660048201529116602482015260448101849052606401600060405180830381600087803b1580156200193a57600080fd5b505af11580156200194f573d6000803e3d6000fd5b50505050836001600160a01b0316857f8d51ff47ba0b154c805873a2dc1b3fb485ca749e7623caa525430480c0e0e50c836040516200199091815260200190565b60405180910390a35050505050565b620019a962001f92565b81600081118015620019bd57506002548111155b620019dc5760405162461bcd60e51b8152600401620005df9062002369565b6000818152600160205260409020546001600160a01b031662001a135760405162461bcd60e51b8152600401620005df9062002392565b6001600160a01b03821662001a645760405162461bcd60e51b81526020600482015260166024820152752330b1ba37b93c9d103d32b937903732bba7bbb732b960511b6044820152606401620005df565b6000838152600160209081526040808320548151638da5cb5b60e01b815291516001600160a01b0390911693928492638da5cb5b92600480830193928290030181865afa15801562001aba573d6000803e3d6000fd5b505050506040513d601f19601f8201168201806040525081019062001ae0919062002578565b60405163f2fde38b60e01b81526001600160a01b0386811660048301529192509083169063f2fde38b90602401600060405180830381600087803b15801562001b2857600080fd5b505af115801562001b3d573d6000803e3d6000fd5b50505050836001600160a01b0316816001600160a01b0316867fa2e7a8a370533462b13ece2478d36768ad75462e24ab1658cbfb7858f6d8aab060405160405180910390a45050505050565b62001b9362001f92565b8160008111801562001ba757506002548111155b62001bc65760405162461bcd60e51b8152600401620005df9062002369565b6000818152600160205260409020546001600160a01b031662001bfd5760405162461bcd60e51b8152600401620005df9062002392565b6000838152600160205260409081902054905163b921e16360e01b8152600481018490526001600160a01b039091169063b921e16390602401600060405180830381600087803b15801562001c5157600080fd5b505af115801562001c66573d6000803e3d6000fd5b50505050827fef18524e45a9c3793f74939b40ae82cfa0160b2993a65ceee104545152736f878360405162001c9d91815260200190565b60405180910390a2505050565b62001cb462001fc1565b8160008111801562001cc857506002548111155b62001ce75760405162461bcd60e51b8152600401620005df9062002369565b6000818152600160205260409020546001600160a01b031662001d1e5760405162461bcd60e51b8152600401620005df9062002392565b6001600160a01b03821662001d765760405162461bcd60e51b815260206004820152601760248201527f466163746f72793a207a65726f206e657753656c6c65720000000000000000006044820152606401620005df565b6000838152600160208190526040909120908101546001600160a01b0316331480159062001daf57506003546001600160a01b03163314155b1562001dcd576040516282b42960e81b815260040160405180910390fd5b6001810180546001600160a01b0319166001600160a01b03858116918217909255825460405163685dab8f60e01b815260048101929092529091169063685dab8f90602401600060405180830381600087803b15801562001e2d57600080fd5b505af115801562001e42573d6000803e3d6000fd5b50506040516001600160a01b03861681528692507f22f521e934c9001da312648dad17f10caf3270d1f5d7b091d1a096f40239b3da915060200160405180910390a250505050565b62001e9462001f92565b6001600160a01b03811662001ec057604051631e4fbdf760e01b815260006004820152602401620005df565b62001ecb8162002008565b50565b62001ed862001f92565b62001ee262001fc1565b8060008111801562001ef657506002548111155b62001f155760405162461bcd60e51b8152600401620005df9062002369565b6000818152600160205260409020546001600160a01b031662001f4c5760405162461bcd60e51b8152600401620005df9062002392565b62001f578262001fed565b6001600160a01b0316638456cb596040518163ffffffff1660e01b8152600401600060405180830381600087803b158015620007a857600080fd5b6000546001600160a01b0316331462000df85760405163118cdaa760e01b8152336004820152602401620005df565b600054600160a01b900460ff161562000df85760405163d93c066560e01b815260040160405180910390fd5b6000908152600160205260409020546001600160a01b031690565b600080546001600160a01b038381166001600160a01b0319831681178455604051919092169283917f8be0079c531659141344cd1fd0a4f28419497f9722a3daafe3b4186f6b6457e09190a35050565b6138ea806200259983390190565b600080600080608085870312156200207d57600080fd5b5050823594602084013594506040840135936060013592509050565b600060208284031215620020ac57600080fd5b5035919050565b6001600160a01b038116811462001ecb57600080fd5b60008060408385031215620020dd57600080fd5b823591506020830135620020f181620020b3565b809150509250929050565b600080604083850312156200211057600080fd5b50508035926020909101359150565b801515811462001ecb57600080fd5b600080604083850312156200214257600080fd5b823591506020830135620020f1816200211f565b6000602082840312156200216957600080fd5b8135620008a081620020b3565b60005b838110156200219357818101518382015260200162002179565b50506000910152565b60008151808452620021b681602086016020860162002176565b601f01601f19169290920160200192915050565b608081526000620021df60808301876200219c565b60208301959095525060408101929092521515606090910152919050565b634e487b7160e01b600052604160045260246000fd5b604051601f8201601f1916810167ffffffffffffffff811182821017156200223f576200223f620021fd565b604052919050565b600067ffffffffffffffff821115620022645762002264620021fd565b50601f01601f191660200190565b600082601f8301126200228457600080fd5b81356200229b620022958262002247565b62002213565b818152846020838601011115620022b157600080fd5b816020850160208301376000918101602001919091529392505050565b60008060008060008060c08789031215620022e857600080fd5b863567ffffffffffffffff808211156200230157600080fd5b6200230f8a838b0162002272565b975060208901359150808211156200232657600080fd5b506200233589828a0162002272565b9550506040870135935060608701356200234f81620020b3565b9598949750929560808101359460a0909101359350915050565b6020808252600f908201526e119858dd1bdc9e4e88189859081a59608a1b604082015260600190565b6020808252601190820152702330b1ba37b93c9d103737903a37b5b2b760791b604082015260600190565b600060208284031215620023d057600080fd5b5051919050565b60008060008060808587031215620023ee57600080fd5b845167ffffffffffffffff8111156200240657600080fd5b8501601f810187136200241857600080fd5b805162002429620022958262002247565b8181528860208385010111156200243f57600080fd5b6200245282602083016020860162002176565b8096505050506020850151925060408501519150606085015162002476816200211f565b939692955090935050565b634e487b7160e01b600052601160045260246000fd5b8082028115828204841417620024b157620024b162002481565b92915050565b600082620024d557634e487b7160e01b600052601260045260246000fd5b500490565b6000610100808352620024f08184018c6200219c565b9050828103602084015262002506818b6200219c565b604084019990995250506001600160a01b039586166060820152938516608085015291841660a0840152831660c083015290911660e09091015292915050565b81810381811115620024b157620024b162002481565b60006001820162002571576200257162002481565b5060010190565b6000602082840312156200258b57600080fd5b8151620008a081620020b356fe60a06040526007805461ff001916610100179055600d805461ffff60a01b1916600160a81b1790553480156200003457600080fd5b50604051620038ea380380620038ea833981016040819052620000579162000735565b828888600362000068838262000894565b50600462000077828262000894565b5050506001600160a01b038116620000aa57604051631e4fbdf760e01b8152600060048201526024015b60405180910390fd5b620000b58162000256565b5060016006556007805460ff191690556001600160a01b0385166200010e5760405162461bcd60e51b815260206004820152600e60248201526d24b73b30b634b21039b2b63632b960911b6044820152606401620000a1565b6001600160a01b038416620001575760405162461bcd60e51b815260206004820152600e60248201526d496e76616c6964207768696d737960901b6044820152606401620000a1565b6001600160a01b038216620001af5760405162461bcd60e51b815260206004820152601460248201527f496e76616c6964207061796d656e74546f6b656e0000000000000000000000006044820152606401620000a1565b600d80546001600160a01b038087166001600160a01b03199283161790925560098054888416908316179055600b80548684169083161790558382166080526014805492841692909116919091179055600060646200021060038962000976565b6200021c919062000996565b905060006200022c8289620009b9565b90506200023a8782620002a8565b620002468683620002a8565b50505050505050505050620009e5565b600580546001600160a01b038381166001600160a01b0319831681179093556040519116919082907f8be0079c531659141344cd1fd0a4f28419497f9722a3daafe3b4186f6b6457e090600090a35050565b6001600160a01b038216620002d45760405163ec442f0560e01b815260006004820152602401620000a1565b620002e260008383620002e6565b5050565b620002f383838362000305565b6200030083838362000520565b505050565b600d54600160a81b900460ff16806200032557506001600160a01b038316155b806200033857506001600160a01b038216155b620003865760405162461bcd60e51b815260206004820152601660248201527f5472616e7366657273206172652064697361626c6564000000000000000000006044820152606401620000a1565b6001600160a01b03831615801590620003a757506001600160a01b03821615155b1562000300576009546001600160a01b039081169084160362000450576009546001600160a01b0316600090815260208190526040812054620003ec908390620009b9565b90506010548110156200044e5760405162461bcd60e51b8152602060048201526024808201527f53656c6c6572206d7573742072657461696e206d696e696d756d206f776e65726044820152630736869760e41b6064820152608401620000a1565b505b6009546001600160a01b03838116911614620003005760006013546000146200047c5760135462000480565b6002545b9050606462000491600f8362000976565b6200049d919062000996565b82620004be856001600160a01b031660009081526020819052604090205490565b620004ca9190620009cf565b11156200051a5760405162461bcd60e51b815260206004820152601560248201527f42757965722065786365656473203135252063617000000000000000000000006044820152606401620000a1565b50505050565b6001600160a01b0383166200054f578060026000828254620005439190620009cf565b90915550620005c39050565b6001600160a01b03831660009081526020819052604090205481811015620005a45760405163391434e360e21b81526001600160a01b03851660048201526024810182905260448101839052606401620000a1565b6001600160a01b03841660009081526020819052604090209082900390555b6001600160a01b038216620005e15760028054829003905562000600565b6001600160a01b03821660009081526020819052604090208054820190555b816001600160a01b0316836001600160a01b03167fddf252ad1be2c89b69c2b068fc378daa952ba7f163c4a11628f55a4df523b3ef836040516200064691815260200190565b60405180910390a3505050565b634e487b7160e01b600052604160045260246000fd5b600082601f8301126200067b57600080fd5b81516001600160401b038082111562000698576200069862000653565b604051601f8301601f19908116603f01168101908282118183101715620006c357620006c362000653565b81604052838152602092508683858801011115620006e057600080fd5b600091505b83821015620007045785820183015181830184015290820190620006e5565b600093810190920192909252949350505050565b80516001600160a01b03811681146200073057600080fd5b919050565b600080600080600080600080610100898b0312156200075357600080fd5b88516001600160401b03808211156200076b57600080fd5b620007798c838d0162000669565b995060208b01519150808211156200079057600080fd5b506200079f8b828c0162000669565b97505060408901519550620007b760608a0162000718565b9450620007c760808a0162000718565b9350620007d760a08a0162000718565b9250620007e760c08a0162000718565b9150620007f760e08a0162000718565b90509295985092959890939650565b600181811c908216806200081b57607f821691505b6020821081036200083c57634e487b7160e01b600052602260045260246000fd5b50919050565b601f8211156200030057600081815260208120601f850160051c810160208610156200086b5750805b601f850160051c820191505b818110156200088c5782815560010162000877565b505050505050565b81516001600160401b03811115620008b057620008b062000653565b620008c881620008c1845462000806565b8462000842565b602080601f831160018114620009005760008415620008e75750858301515b600019600386901b1c1916600185901b1785556200088c565b600085815260208120601f198616915b82811015620009315788860151825594840194600190910190840162000910565b5085821015620009505787850151600019600388901b60f8161c191681555b5050505050600190811b01905550565b634e487b7160e01b600052601160045260246000fd5b808202811582820484141762000990576200099062000960565b92915050565b600082620009b457634e487b7160e01b600052601260045260246000fd5b500490565b8181038181111562000990576200099062000960565b8082018082111562000990576200099062000960565b608051612ec662000a246000396000818161050f01528181610df7015281816114070152818161172a015281816117f70152611a870152612ec66000f3fe60806040526004361061035f5760003560e01c80637b239e22116101c4578063b3ab15fb116100f6578063c421d18f1161009a578063d5cf7cfe1161006c578063d5cf7cfe14610a28578063dd62ed3e14610a3d578063e249b7ce14610a83578063f2fde38b14610aa357005b8063c421d18f146109bc578063c45a0155146109dc578063c5c4744c146109fc578063c71b0e1c14610a1257005b8063bb979d62116100d3578063bb979d6214610950578063bbd30fb914610966578063bef97c8714610986578063c157c5ff146109a757005b8063b3ab15fb146108fb578063b91f6f0e1461091b578063b921e1631461093057005b806393634c0a11610168578063a9059cbb1161013a578063a9059cbb1461087b578063ab033ea91461089b578063b172b222146108bb578063b2826b91146108db57005b806393634c0a1461081157806395d89b41146108305780639b8906ae14610845578063a118babd1461086657005b8063805d835d116101a1578063805d835d146107b45780638456cb59146107c95780638da5cb5b146107de5780638f52f0f9146107fc57005b80637b239e22146107595780637d6c8c001461076e5780637ff9b5961461079e57005b80633f4ba83a1161029d578063685041581161024157806370a082311161021357806370a08231146106ce578063712daa7514610704578063715018a61461072457806374faa74b1461073957005b8063685041581461064e578063685dab8f1461066e5780636add3bdb1461068e5780636c19e783146106ae57005b806358bcc4fb1161027a57806358bcc4fb146105d15780635bb47808146106015780635c975abb14610621578063624b233d1461063957005b80633f4ba83a14610553578063490deb3d14610568578063570ca735146105b157005b806316314a691161030457806323b872dd116102e157806323b872dd146104bd5780632b319a8f146104dd5780633013ce29146104fd578063313ce5671461053157005b806316314a691461046857806318160ddd146104885780631df374921461049d57005b8063095ea7b31161033d578063095ea7b3146103ec5780630d1af1031461041c57806312aef8c31461043c57806315482ce11461045257005b8062267f9a1461036857806306fdde031461039257806308551a53146103b457005b3661036657005b005b34801561037457600080fd5b5061037f6206978081565b6040519081526020015b60405180910390f35b34801561039e57600080fd5b506103a7610ac3565b6040516103899190612a66565b3480156103c057600080fd5b506009546103d4906001600160a01b031681565b6040516001600160a01b039091168152602001610389565b3480156103f857600080fd5b5061040c610407366004612ad0565b610b55565b6040519015158152602001610389565b34801561042857600080fd5b50610366610437366004612afa565b610b6f565b34801561044857600080fd5b5061037f600f5481565b34801561045e57600080fd5b5061037f60135481565b34801561047457600080fd5b50600d546103d4906001600160a01b031681565b34801561049457600080fd5b5060025461037f565b3480156104a957600080fd5b506103666104b8366004612b36565b610c56565b3480156104c957600080fd5b5061040c6104d8366004612afa565b610e6d565b3480156104e957600080fd5b5061037f6104f8366004612b51565b610ed7565b34801561050957600080fd5b506103d47f000000000000000000000000000000000000000000000000000000000000000081565b34801561053d57600080fd5b5060065b60405160ff9091168152602001610389565b34801561055f57600080fd5b50610366610ee7565b34801561057457600080fd5b5061059c610583366004612b36565b6016602052600090815260409020805460019091015482565b60408051928352602083019190915201610389565b3480156105bd57600080fd5b50600a546103d4906001600160a01b031681565b3480156105dd57600080fd5b5061040c6105ec366004612b51565b60086020526000908152604090205460ff1681565b34801561060d57600080fd5b5061036661061c366004612b36565b610ef9565b34801561062d57600080fd5b5060075460ff1661040c565b34801561064557600080fd5b50610541601e81565b34801561065a57600080fd5b50610366610669366004612b6a565b610f72565b34801561067a57600080fd5b50610366610689366004612b36565b610fd2565b34801561069a57600080fd5b506103666106a9366004612b36565b61108a565b3480156106ba57600080fd5b506103666106c9366004612b36565b611100565b3480156106da57600080fd5b5061037f6106e9366004612b36565b6001600160a01b031660009081526020819052604090205490565b34801561071057600080fd5b5061036661071f366004612ad0565b611175565b34801561073057600080fd5b506103666114ca565b34801561074557600080fd5b50610366610754366004612b36565b6114dc565b34801561076557600080fd5b50610541600a81565b34801561077a57600080fd5b5061040c610789366004612b36565b60156020526000908152604090205460ff1681565b3480156107aa57600080fd5b5061037f600e5481565b3480156107c057600080fd5b50610541606481565b3480156107d557600080fd5b50610366611588565b3480156107ea57600080fd5b506005546001600160a01b03166103d4565b34801561080857600080fd5b50610366611598565b34801561081d57600080fd5b5060075461040c90610100900460ff1681565b34801561083c57600080fd5b506103a761163a565b34801561085157600080fd5b50600d5461040c90600160a01b900460ff1681565b34801561087257600080fd5b50610366611649565b34801561088757600080fd5b5061040c610896366004612ad0565b611870565b3480156108a757600080fd5b506103666108b6366004612b36565b6118d8565b3480156108c757600080fd5b50600c546103d4906001600160a01b031681565b3480156108e757600080fd5b506103666108f6366004612ad0565b611947565b34801561090757600080fd5b50610366610916366004612b36565b611b02565b34801561092757600080fd5b50610541600381565b34801561093c57600080fd5b5061036661094b366004612b51565b611b9f565b34801561095c57600080fd5b5061037f60105481565b34801561097257600080fd5b50610366610981366004612b6a565b611c36565b34801561099257600080fd5b50600d5461040c90600160a81b900460ff1681565b3480156109b357600080fd5b50610541611c58565b3480156109c857600080fd5b5061040c6109d7366004612b8c565b611c67565b3480156109e857600080fd5b50600b546103d4906001600160a01b031681565b348015610a0857600080fd5b5061037f60115481565b348015610a1e57600080fd5b5061037f60125481565b348015610a3457600080fd5b50610541600f81565b348015610a4957600080fd5b5061037f610a58366004612c21565b6001600160a01b03918216600090815260016020908152604080832093909416825291909152205490565b348015610a8f57600080fd5b50610366610a9e366004612c54565b611e22565b348015610aaf57600080fd5b50610366610abe366004612b36565b61204d565b606060038054610ad290612c80565b80601f0160208091040260200160405190810160405280929190818152602001828054610afe90612c80565b8015610b4b5780601f10610b2057610100808354040283529160200191610b4b565b820191906000526020600020905b815481529060010190602001808311610b2e57829003601f168201915b5050505050905090565b600033610b63818585612088565b60019150505b92915050565b610b77612095565b610b7f6120c2565b6001600160a01b038316610be65760405162461bcd60e51b815260206004820152602360248201527f6f70657261746f725472616e736665723a2066726f6d207a65726f206164647260448201526265737360e81b60648201526084015b60405180910390fd5b6001600160a01b038216610c465760405162461bcd60e51b815260206004820152602160248201527f6f70657261746f725472616e736665723a20746f207a65726f206164647265736044820152607360f81b6064820152608401610bdd565b610c518383836120e6565b505050565b610c5e612095565b610c666120c2565b610c6e612145565b6001600160a01b0381166000908152601660209081526040918290208251808401909352805480845260019091015491830191909152610ce15760405162461bcd60e51b815260206004820152600e60248201526d2737903932b9b2b93b30ba34b7b760911b6044820152606401610bdd565b6001600160a01b03821660009081526015602052604090205460ff1615610d3b5760405162461bcd60e51b815260206004820152600e60248201526d105b1c9958591e481859dc99595960921b6044820152606401610bdd565b620697808160200151610d4e9190612cd0565b421015610d895760405162461bcd60e51b8152602060048201526009602482015268546f6f206561726c7960b81b6044820152606401610bdd565b805160128054600090610d9d908490612ce3565b90915550506001600160a01b0382166000908152601660205260408120818155600101819055610dcf6006600a612dda565b600e548351610dde9190612de9565b610de89190612e00565b9050610e1e6001600160a01b037f000000000000000000000000000000000000000000000000000000000000000016848361216f565b81516040519081526001600160a01b038416907fa171b6942063c6f2800ce40a780edce37baa2b618571b11eedd1e69e626e7d769060200160405180910390a25050610e6a6001600655565b50565b600754600090610100900460ff1615610ec45760405162461bcd60e51b8152602060048201526019602482015278111a5c9958dd081d1c985b9cd9995c9cc8191a5cd8589b1959603a1b6044820152606401610bdd565b610ecf8484846121ce565b949350505050565b600060115482610b699190612cd0565b610eef612095565b610ef76121f2565b565b610f01612095565b600b546001600160a01b031615610f505760405162461bcd60e51b8152602060048201526013602482015272119858dd1bdc9e48185b1c9958591e481cd95d606a1b6044820152606401610bdd565b600b80546001600160a01b0319166001600160a01b0392909216919091179055565b610f7a612095565b600d8054821515600160a81b0260ff60a81b199091161790556040517fe1965432af4c9923f6ebb98f1721262967cfa6178008742d23041dc8ee74ee8f90610fc790831515815260200190565b60405180910390a150565b610fda612095565b6001600160a01b0381166110215760405162461bcd60e51b815260206004820152600e60248201526d24b73b30b634b21039b2b63632b960911b6044820152606401610bdd565b600954604080516001600160a01b03928316815291831660208301527fd08dbba23a735d81eaf53ac5ede2c722bb186e9d3d46b62842853f0d017c2212910160405180910390a1600980546001600160a01b0319166001600160a01b0392909216919091179055565b600b546001600160a01b031633146110b45760405162461bcd60e51b8152600401610bdd90612e22565b6001600160a01b038116600081815260156020526040808220805460ff19166001179055517fec25952115d724de7fec274999c9cbe0cff9898f9f5128eaa42bd599138462a19190a250565b611108612095565b600b546001600160a01b0316156111535760405162461bcd60e51b815260206004820152600f60248201526e496e76616c6964206164647265737360881b6044820152606401610bdd565b601480546001600160a01b0319166001600160a01b0392909216919091179055565b61117d612145565b6111856120c2565b600b546001600160a01b031633146111af5760405162461bcd60e51b8152600401610bdd90612e22565b600d54600160a01b900460ff16156111fa5760405162461bcd60e51b815260206004820152600e60248201526d14d85b19481a185cc8195b99195960921b6044820152606401610bdd565b6001600160a01b03821660009081526015602052604090205460ff166112535760405162461bcd60e51b815260206004820152600e60248201526d111a5cd8db185a5b48199a5c9cdd60921b6044820152606401610bdd565b6000811161128e5760405162461bcd60e51b81526020600482015260086024820152670416d6f756e743e360c41b6044820152606401610bdd565b6001600160a01b038216600090815260166020908152604091829020825180840190935280548084526001909101549183019190915215611385578051821461130d5760405162461bcd60e51b8152602060048201526011602482015270135d5cdd08189d5e481c995cd95c9d9959607a1b6044820152606401610bdd565b816012600082825461131f9190612ce3565b90915550506001600160a01b0383166000908152601660205260408120818155600101819055600f8054849290611357908490612ce3565b9091555050600e546113699083612de9565b6011600082825461137a9190612cd0565b909155506114619050565b601254600f546113959190612ce3565b8211156113d35760405162461bcd60e51b815260206004820152600c60248201526b457863656564732073616c6560a01b6044820152606401610bdd565b60006113e16006600a612dda565b600e546113ee9085612de9565b6113f89190612e00565b905061142f6001600160a01b037f000000000000000000000000000000000000000000000000000000000000000016853084612244565b82600f60008282546114419190612ce3565b92505081905550806011600082825461145a9190612cd0565b9091555050505b600954611478906001600160a01b031684846120e6565b826001600160a01b03167f8f28852646c20cc973d3a8218f7eefed58c25c909f78f0265af4818c3d4dc271836040516114b391815260200190565b60405180910390a2506114c66001600655565b5050565b6114d2612095565b610ef76000612283565b6114e4612095565b6001600160a01b03811661152c5760405162461bcd60e51b815260206004820152600f60248201526e496e76616c6964206164647265737360881b6044820152606401610bdd565b600d546040516001600160a01b038084169216907fb27a84474703ce30a05e600606fa29dbcfb1671aa7363e45dbf0f1b78f3ee11690600090a3600d80546001600160a01b0319166001600160a01b0392909216919091179055565b611590612095565b610ef76122d5565b6115a0612095565b6115a86120c2565b600d54600160a01b900460ff16156115f75760405162461bcd60e51b815260206004820152601260248201527114d85b1948185b1c9958591e48195b99195960721b6044820152606401610bdd565b600d805460ff60a01b1916600160a01b1790556000600f8190556040517f7910379dd0db65208b77494ac6a3acca01262c78703f044e0abb7e4386a0bcbe9190a1565b606060048054610ad290612c80565b611651612145565b6116596120c2565b6005546001600160a01b031633148061167c5750600a546001600160a01b031633145b6116b95760405162461bcd60e51b815260206004820152600e60248201526d139bdd08185d5d1a1bdc9a5e995960921b6044820152606401610bdd565b600d54600160a01b900460ff166117125760405162461bcd60e51b815260206004820152601b60248201527f43616e6e6f7420776974686472617720647572696e672073616c6500000000006044820152606401610bdd565b6040516370a0823160e01b81523060048201526000907f00000000000000000000000000000000000000000000000000000000000000006001600160a01b0316906370a0823190602401602060405180830381865afa158015611779573d6000803e3d6000fd5b505050506040513d601f19601f8201168201806040525081019061179d9190612e48565b9050600081116117e65760405162461bcd60e51b81526020600482015260146024820152734e6f2066756e647320746f20776974686472617760601b6044820152606401610bdd565b600954611820906001600160a01b037f0000000000000000000000000000000000000000000000000000000000000000811691168361216f565b600954604080518381526001600160a01b0390921660208301527f8c7cdad0d12a8db3e23561b42da6f10c8137914c97beff202213a410e1f520a3910160405180910390a150610ef76001600655565b600754600090610100900460ff16156118c75760405162461bcd60e51b8152602060048201526019602482015278111a5c9958dd081d1c985b9cd9995c9cc8191a5cd8589b1959603a1b6044820152606401610bdd565b6118d18383612312565b9392505050565b6118e0612095565b6001600160a01b0381166119255760405162461bcd60e51b815260206004820152600c60248201526b5a65726f206164647265737360a01b6044820152606401610bdd565b600c80546001600160a01b0319166001600160a01b0392909216919091179055565b600b546001600160a01b031633146119715760405162461bcd60e51b8152600401610bdd90612e22565b600081116119ac5760405162461bcd60e51b81526020600482015260086024820152670416d6f756e743e360c41b6044820152606401610bdd565b6001600160a01b03821660009081526016602052604090205415611a055760405162461bcd60e51b815260206004820152601060248201526f105b1c9958591e481c995cd95c9d995960821b6044820152606401610bdd565b601254600f54611a159190612ce3565b811115611a535760405162461bcd60e51b815260206004820152600c60248201526b457863656564732073616c6560a01b6044820152606401610bdd565b6000611a616006600a612dda565b600e54611a6e9084612de9565b611a789190612e00565b9050611aaf6001600160a01b037f000000000000000000000000000000000000000000000000000000000000000016843084612244565b6040805180820182528381524260208083019182526001600160a01b03871660009081526016909152928320915182555160019091015560128054849290611af8908490612cd0565b9091555050505050565b611b0a612095565b6001600160a01b038116611b535760405162461bcd60e51b815260206004820152601060248201526f24b73b30b634b21037b832b930ba37b960811b6044820152606401610bdd565b600a80546001600160a01b0319166001600160a01b03831690811790915560405181907ffbe5b6cbafb274f445d7fed869dc77a838d8243a22c460de156560e8857cad0390600090a350565b611ba7612095565b600f5415611bf05760405162461bcd60e51b815260206004820152601660248201527543616e2774206d696e7420647572696e672073616c6560501b6044820152606401610bdd565b600954611c06906001600160a01b031682612320565b6040518181527f359675c23a13743cf846e03b084a0b1fd129ffa3404dbdd936effd23fb97aa9d90602001610fc7565b611c3e612095565b600780549115156101000261ff0019909216919091179055565b611c6460036064612e61565b81565b6000611c716120c2565b60008681526008602052604090205460ff1615611cc05760405162461bcd60e51b815260206004820152600d60248201526c427566666572207265706c617960981b6044820152606401610bdd565b6000868152600860209081526040808320805460ff1916600117905551611d1d91899133918891889101938452606092831b6bffffffffffffffffffffffff1990811660208601529190921b166034830152604882015260680190565b6040516020818303038152906040528051906020012090506000611d6e827f19457468657265756d205369676e6564204d6573736167653a0a3332000000006000908152601c91909152603c902090565b90506000611db488888080601f01602080910402602001604051908101604052809392919081815260200183838082843760009201919091525086939250506123569050565b6014549091506001600160a01b03808316911614611e085760405162461bcd60e51b8152602060048201526011602482015270496e76616c6964207369676e617475726560781b6044820152606401610bdd565b611e133387876120e6565b50600198975050505050505050565b611e2a612095565b611e326120c2565b60008211611e745760405162461bcd60e51b815260206004820152600f60248201526e0546f6b656e207072696365203e203608c1b6044820152606401610bdd565b6000611e7f60025490565b601381905590506064611e93600a83612de9565b611e9d9190612e00565b821015611edc5760405162461bcd60e51b815260206004820152600d60248201526c546172676574203e3d2031302560981b6044820152606401610bdd565b6064611ee9601e83612de9565b611ef39190612e00565b821115611f325760405162461bcd60e51b815260206004820152600d60248201526c546172676574203c3d2033302560981b6044820152606401610bdd565b6009546001600160a01b0316600090815260208190526040902054841115611f8d5760405162461bcd60e51b815260206004820152600e60248201526d53656c6c65722062616c206c6f7760901b6044820152606401610bdd565b6009546001600160a01b03166000908152602081905260409020548290611fb5908690612ce3565b14611ff75760405162461bcd60e51b8152602060048201526012602482015271109859081cd85b194bdd19dd081cdc1b1a5d60721b6044820152606401610bdd565b600f849055600e839055601082905560408051858152602081018590529081018390527f4d012a69148885509f5eb0377244099c968f990db1f853707b9d8e3fea20f7b99060600160405180910390a150505050565b612055612095565b6001600160a01b03811661207f57604051631e4fbdf760e01b815260006004820152602401610bdd565b610e6a81612283565b610c518383836001612380565b6005546001600160a01b03163314610ef75760405163118cdaa760e01b8152336004820152602401610bdd565b60075460ff1615610ef75760405163d93c066560e01b815260040160405180910390fd5b6001600160a01b03831661211057604051634b637e8f60e11b815260006004820152602401610bdd565b6001600160a01b03821661213a5760405163ec442f0560e01b815260006004820152602401610bdd565b610c51838383612455565b60026006540361216857604051633ee5aeb560e01b815260040160405180910390fd5b6002600655565b6040516001600160a01b03838116602483015260448201839052610c5191859182169063a9059cbb906064015b604051602081830303815290604052915060e01b6020820180516001600160e01b03838183161783525050505061246b565b6000336121dc8582856124dc565b6121e78585856120e6565b506001949350505050565b6121fa612555565b6007805460ff191690557f5db9ee0a495bf2e6ff9c91a7834c1ba4fdd244a5e8aa4e537bd38aeae4b073aa335b6040516001600160a01b03909116815260200160405180910390a1565b6040516001600160a01b03848116602483015283811660448301526064820183905261227d9186918216906323b872dd9060840161219c565b50505050565b600580546001600160a01b038381166001600160a01b0319831681179093556040519116919082907f8be0079c531659141344cd1fd0a4f28419497f9722a3daafe3b4186f6b6457e090600090a35050565b6122dd6120c2565b6007805460ff191660011790557f62e78cea01bee320cd4e420270b5ea74000d11b0c9f74754ebdbfc544b05a2586122273390565b600033610b638185856120e6565b6001600160a01b03821661234a5760405163ec442f0560e01b815260006004820152602401610bdd565b6114c660008383612455565b6000806000806123668686612578565b92509250925061237682826125c5565b5090949350505050565b6001600160a01b0384166123aa5760405163e602df0560e01b815260006004820152602401610bdd565b6001600160a01b0383166123d457604051634a1406b160e11b815260006004820152602401610bdd565b6001600160a01b038085166000908152600160209081526040808320938716835292905220829055801561227d57826001600160a01b0316846001600160a01b03167f8c5be1e5ebec7d5bd14f71427d1e84f3dd0314c0f7b2291e5b200ac8c7c3b9258460405161244791815260200190565b60405180910390a350505050565b61246083838361267e565b610c5183838361286d565b600080602060008451602086016000885af18061248e576040513d6000823e3d81fd5b50506000513d915081156124a65780600114156124b3565b6001600160a01b0384163b155b1561227d57604051635274afe760e01b81526001600160a01b0385166004820152602401610bdd565b6001600160a01b0383811660009081526001602090815260408083209386168352929052205460001981101561227d578181101561254657604051637dc7a0d960e11b81526001600160a01b03841660048201526024810182905260448101839052606401610bdd565b61227d84848484036000612380565b60075460ff16610ef757604051638dfc202b60e01b815260040160405180910390fd5b600080600083516041036125b25760208401516040850151606086015160001a6125a488828585612997565b9550955095505050506125be565b50508151600091506002905b9250925092565b60008260038111156125d9576125d9612e7a565b036125e2575050565b60018260038111156125f6576125f6612e7a565b036126145760405163f645eedf60e01b815260040160405180910390fd5b600282600381111561262857612628612e7a565b036126495760405163fce698f760e01b815260048101829052602401610bdd565b600382600381111561265d5761265d612e7a565b036114c6576040516335e2f38360e21b815260048101829052602401610bdd565b600d54600160a81b900460ff168061269d57506001600160a01b038316155b806126af57506001600160a01b038216155b6126f45760405162461bcd60e51b8152602060048201526016602482015275151c985b9cd9995c9cc8185c9948191a5cd8589b195960521b6044820152606401610bdd565b6001600160a01b0383161580159061271457506001600160a01b03821615155b15610c51576009546001600160a01b03908116908416036127b7576009546001600160a01b0316600090815260208190526040812054612755908390612ce3565b90506010548110156127b55760405162461bcd60e51b8152602060048201526024808201527f53656c6c6572206d7573742072657461696e206d696e696d756d206f776e65726044820152630736869760e41b6064820152608401610bdd565b505b6009546001600160a01b03838116911614610c515760006013546000146127e0576013546127e4565b6002545b905060646127f3600f83612de9565b6127fd9190612e00565b8261281d856001600160a01b031660009081526020819052604090205490565b6128279190612cd0565b111561227d5760405162461bcd60e51b8152602060048201526015602482015274042757965722065786365656473203135252063617605c1b6044820152606401610bdd565b6001600160a01b03831661289857806002600082825461288d9190612cd0565b9091555061290a9050565b6001600160a01b038316600090815260208190526040902054818110156128eb5760405163391434e360e21b81526001600160a01b03851660048201526024810182905260448101839052606401610bdd565b6001600160a01b03841660009081526020819052604090209082900390555b6001600160a01b03821661292657600280548290039055612945565b6001600160a01b03821660009081526020819052604090208054820190555b816001600160a01b0316836001600160a01b03167fddf252ad1be2c89b69c2b068fc378daa952ba7f163c4a11628f55a4df523b3ef8360405161298a91815260200190565b60405180910390a3505050565b600080807f7fffffffffffffffffffffffffffffff5d576e7357a4501ddfe92f46681b20a08411156129d25750600091506003905082612a5c565b604080516000808252602082018084528a905260ff891692820192909252606081018790526080810186905260019060a0016020604051602081039080840390855afa158015612a26573d6000803e3d6000fd5b5050604051601f1901519150506001600160a01b038116612a5257506000925060019150829050612a5c565b9250600091508190505b9450945094915050565b600060208083528351808285015260005b81811015612a9357858101830151858201604001528201612a77565b506000604082860101526040601f19601f8301168501019250505092915050565b80356001600160a01b0381168114612acb57600080fd5b919050565b60008060408385031215612ae357600080fd5b612aec83612ab4565b946020939093013593505050565b600080600060608486031215612b0f57600080fd5b612b1884612ab4565b9250612b2660208501612ab4565b9150604084013590509250925092565b600060208284031215612b4857600080fd5b6118d182612ab4565b600060208284031215612b6357600080fd5b5035919050565b600060208284031215612b7c57600080fd5b813580151581146118d157600080fd5b600080600080600060808688031215612ba457600080fd5b85359450602086013567ffffffffffffffff80821115612bc357600080fd5b818801915088601f830112612bd757600080fd5b813581811115612be657600080fd5b896020828501011115612bf857600080fd5b602083019650809550505050612c1060408701612ab4565b949793965091946060013592915050565b60008060408385031215612c3457600080fd5b612c3d83612ab4565b9150612c4b60208401612ab4565b90509250929050565b600080600060608486031215612c6957600080fd5b505081359360208301359350604090920135919050565b600181811c90821680612c9457607f821691505b602082108103612cb457634e487b7160e01b600052602260045260246000fd5b50919050565b634e487b7160e01b600052601160045260246000fd5b80820180821115610b6957610b69612cba565b81810381811115610b6957610b69612cba565b600181815b80851115612d31578160001904821115612d1757612d17612cba565b80851615612d2457918102915b93841c9390800290612cfb565b509250929050565b600082612d4857506001610b69565b81612d5557506000610b69565b8160018114612d6b5760028114612d7557612d91565b6001915050610b69565b60ff841115612d8657612d86612cba565b50506001821b610b69565b5060208310610133831016604e8410600b8410161715612db4575081810a610b69565b612dbe8383612cf6565b8060001904821115612dd257612dd2612cba565b029392505050565b60006118d160ff841683612d39565b8082028115828204841417610b6957610b69612cba565b600082612e1d57634e487b7160e01b600052601260045260246000fd5b500490565b6020808252600c908201526b4f6e6c7920666163746f727960a01b604082015260600190565b600060208284031215612e5a57600080fd5b5051919050565b60ff8281168282160390811115610b6957610b69612cba565b634e487b7160e01b600052602160045260246000fdfea26469706673582212206bcb7485133de53760ff1a8c37b9fb15fb11739cf182c76ace1fa955b5ac23e664736f6c63430008140033a2646970667358221220d14117f8e0375cc002a07d4da97720bdb0cf790f0debd8dae5f14a1f36a1690764736f6c63430008140033",
  "linkReferences": {},
  "deployedLinkReferences": {}
}