{
  "_format": "hh-sol-artifact-1",
  "contractName": "PropertyTokenFactory",
  "sourceName": "contracts/PropertyTokenFactory.sol",
  "abi": [
    {
      "inputs": [
        {
          "internalType": "address",
          "name": "whimsyAddress",
          "type": "address"
        }
      ],
      "stateMutability": "nonpayable",
      "type": "constructor"
    },
    {
      "inputs": [],
      "name": "EnforcedPause",
      "type": "error"
    },
    {
      "inputs": [],
      "name": "ExpectedPause",
      "type": "error"
    },
    {
      "inputs": [
        {
          "internalType": "address",
          "name": "owner",
          "type": "address"
        }
      ],
      "name": "OwnableInvalidOwner",
      "type": "error"
    },
    {
      "inputs": [
        {
          "internalType": "address",
          "name": "account",
          "type": "address"
        }
      ],
      "name": "OwnableUnauthorizedAccount",
      "type": "error"
    },
    {
      "inputs": [],
      "name": "Unauthorized",
      "type": "error"
    },
    {
      "anonymous": false,
      "inputs": [
        {
          "indexed": true,
          "internalType": "uint256",
          "name": "propertyId",
          "type": "uint256"
        },
        {
          "indexed": true,
          "internalType": "address",
          "name": "tokenOwner",
          "type": "address"
        },
        {
          "indexed": false,
          "internalType": "uint256",
          "name": "amount",
          "type": "uint256"
        }
      ],
      "name": "Clawback",
      "type": "event"
    },
    {
      "anonymous": false,
      "inputs": [
        {
          "indexed": true,
          "internalType": "uint256",
          "name": "propertyId",
          "type": "uint256"
        },
        {
          "indexed": false,
          "internalType": "address",
          "name": "tokenAddress",
          "type": "address"
        }
      ],
      "name": "NewProperty",
      "type": "event"
    },
    {
      "anonymous": false,
      "inputs": [
        {
          "indexed": true,
          "internalType": "address",
          "name": "previousOwner",
          "type": "address"
        },
        {
          "indexed": true,
          "internalType": "address",
          "name": "newOwner",
          "type": "address"
        }
      ],
      "name": "OwnershipTransferred",
      "type": "event"
    },
    {
      "anonymous": false,
      "inputs": [
        {
          "indexed": false,
          "internalType": "address",
          "name": "account",
          "type": "address"
        }
      ],
      "name": "Paused",
      "type": "event"
    },
    {
      "anonymous": false,
      "inputs": [
        {
          "indexed": true,
          "internalType": "uint256",
          "name": "propertyId",
          "type": "uint256"
        },
        {
          "indexed": false,
          "internalType": "address",
          "name": "newSeller",
          "type": "address"
        }
      ],
      "name": "SellerUpdated",
      "type": "event"
    },
    {
      "anonymous": false,
      "inputs": [
        {
          "indexed": true,
          "internalType": "uint256",
          "name": "propertyId",
          "type": "uint256"
        },
        {
          "indexed": true,
          "internalType": "address",
          "name": "previousOwner",
          "type": "address"
        },
        {
          "indexed": true,
          "internalType": "address",
          "name": "newOwner",
          "type": "address"
        }
      ],
      "name": "TokenOwnershipTransferred",
      "type": "event"
    },
    {
      "anonymous": false,
      "inputs": [
        {
          "indexed": false,
          "internalType": "address",
          "name": "account",
          "type": "address"
        }
      ],
      "name": "Unpaused",
      "type": "event"
    },
    {
      "inputs": [
        {
          "internalType": "uint256",
          "name": "pid",
          "type": "uint256"
        }
      ],
      "name": "agreeDisclaimer",
      "outputs": [],
      "stateMutability": "nonpayable",
      "type": "function"
    },
    {
      "inputs": [
        {
          "internalType": "uint256",
          "name": "pid",
          "type": "uint256"
        },
        {
          "internalType": "uint256",
          "name": "amount",
          "type": "uint256"
        }
      ],
      "name": "buyTokens",
      "outputs": [],
      "stateMutability": "payable",
      "type": "function"
    },
    {
      "inputs": [
        {
          "internalType": "uint256",
          "name": "pid",
          "type": "uint256"
        },
        {
          "internalType": "address",
          "name": "who",
          "type": "address"
        }
      ],
      "name": "clawback",
      "outputs": [],
      "stateMutability": "nonpayable",
      "type": "function"
    },
    {
      "inputs": [
        {
          "internalType": "string",
          "name": "name",
          "type": "string"
        },
        {
          "internalType": "string",
          "name": "symbol",
          "type": "string"
        },
        {
          "internalType": "uint256",
          "name": "initialSupply",
          "type": "uint256"
        },
        {
          "internalType": "address",
          "name": "seller_",
          "type": "address"
        }
      ],
      "name": "createIPropertyToken",
      "outputs": [
        {
          "internalType": "address",
          "name": "tok",
          "type": "address"
        }
      ],
      "stateMutability": "nonpayable",
      "type": "function"
    },
    {
      "inputs": [
        {
          "internalType": "uint256",
          "name": "pid",
          "type": "uint256"
        },
        {
          "internalType": "string",
          "name": "desc",
          "type": "string"
        }
      ],
      "name": "createProposal",
      "outputs": [],
      "stateMutability": "nonpayable",
      "type": "function"
    },
    {
      "inputs": [
        {
          "internalType": "uint256",
          "name": "pid",
          "type": "uint256"
        },
        {
          "internalType": "uint256",
          "name": "propId",
          "type": "uint256"
        }
      ],
      "name": "finalizeProposal",
      "outputs": [],
      "stateMutability": "nonpayable",
      "type": "function"
    },
    {
      "inputs": [
        {
          "internalType": "uint256",
          "name": "pid",
          "type": "uint256"
        }
      ],
      "name": "getIPropertyToken",
      "outputs": [
        {
          "internalType": "address",
          "name": "",
          "type": "address"
        }
      ],
      "stateMutability": "view",
      "type": "function"
    },
    {
      "inputs": [
        {
          "internalType": "uint256",
          "name": "pid",
          "type": "uint256"
        },
        {
          "internalType": "uint256",
          "name": "pre",
          "type": "uint256"
        }
      ],
      "name": "getPostMoneyValuation",
      "outputs": [
        {
          "internalType": "uint256",
          "name": "",
          "type": "uint256"
        }
      ],
      "stateMutability": "view",
      "type": "function"
    },
    {
      "inputs": [
        {
          "internalType": "uint256",
          "name": "pid",
          "type": "uint256"
        },
        {
          "internalType": "uint256",
          "name": "propId",
          "type": "uint256"
        }
      ],
      "name": "getProposal",
      "outputs": [
        {
          "internalType": "string",
          "name": "",
          "type": "string"
        },
        {
          "internalType": "uint256",
          "name": "",
          "type": "uint256"
        },
        {
          "internalType": "uint256",
          "name": "",
          "type": "uint256"
        },
        {
          "internalType": "bool",
          "name": "",
          "type": "bool"
        }
      ],
      "stateMutability": "view",
      "type": "function"
    },
    {
      "inputs": [
        {
          "internalType": "uint256",
          "name": "pid",
          "type": "uint256"
        }
      ],
      "name": "getSeller",
      "outputs": [
        {
          "internalType": "address",
          "name": "",
          "type": "address"
        }
      ],
      "stateMutability": "view",
      "type": "function"
    },
    {
      "inputs": [
        {
          "internalType": "uint256",
          "name": "pid",
          "type": "uint256"
        },
        {
          "internalType": "uint256",
          "name": "amt",
          "type": "uint256"
        }
      ],
      "name": "increaseSupply",
      "outputs": [],
      "stateMutability": "nonpayable",
      "type": "function"
    },
    {
      "inputs": [
        {
          "internalType": "uint256",
          "name": "pid",
          "type": "uint256"
        },
        {
          "internalType": "uint256",
          "name": "amt",
          "type": "uint256"
        }
      ],
      "name": "mintMoreSupply",
      "outputs": [],
      "stateMutability": "nonpayable",
      "type": "function"
    },
    {
      "inputs": [],
      "name": "owner",
      "outputs": [
        {
          "internalType": "address",
          "name": "",
          "type": "address"
        }
      ],
      "stateMutability": "view",
      "type": "function"
    },
    {
      "inputs": [
        {
          "internalType": "uint256",
          "name": "pid",
          "type": "uint256"
        }
      ],
      "name": "pauseToken",
      "outputs": [],
      "stateMutability": "nonpayable",
      "type": "function"
    },
    {
      "inputs": [],
      "name": "paused",
      "outputs": [
        {
          "internalType": "bool",
          "name": "",
          "type": "bool"
        }
      ],
      "stateMutability": "view",
      "type": "function"
    },
    {
      "inputs": [
        {
          "internalType": "uint256",
          "name": "",
          "type": "uint256"
        }
      ],
      "name": "properties",
      "outputs": [
        {
          "internalType": "address",
          "name": "token",
          "type": "address"
        },
        {
          "internalType": "address",
          "name": "seller",
          "type": "address"
        }
      ],
      "stateMutability": "view",
      "type": "function"
    },
    {
      "inputs": [],
      "name": "propertyCount",
      "outputs": [
        {
          "internalType": "uint256",
          "name": "",
          "type": "uint256"
        }
      ],
      "stateMutability": "view",
      "type": "function"
    },
    {
      "inputs": [
        {
          "internalType": "uint256",
          "name": "pid",
          "type": "uint256"
        }
      ],
      "name": "proposalsLength",
      "outputs": [
        {
          "internalType": "uint256",
          "name": "",
          "type": "uint256"
        }
      ],
      "stateMutability": "view",
      "type": "function"
    },
    {
      "inputs": [
        {
          "internalType": "uint256",
          "name": "pid",
          "type": "uint256"
        },
        {
          "internalType": "address",
          "name": "b",
          "type": "address"
        }
      ],
      "name": "refundUnagreedBuyer",
      "outputs": [],
      "stateMutability": "nonpayable",
      "type": "function"
    },
    {
      "inputs": [],
      "name": "renounceOwnership",
      "outputs": [],
      "stateMutability": "nonpayable",
      "type": "function"
    },
    {
      "inputs": [
        {
          "internalType": "uint256",
          "name": "pid",
          "type": "uint256"
        },
        {
          "internalType": "uint256",
          "name": "amount",
          "type": "uint256"
        }
      ],
      "name": "reserveTokens",
      "outputs": [],
      "stateMutability": "payable",
      "type": "function"
    },
    {
      "inputs": [
        {
          "internalType": "uint256",
          "name": "pid",
          "type": "uint256"
        },
        {
          "internalType": "uint256",
          "name": "forSale",
          "type": "uint256"
        },
        {
          "internalType": "uint256",
          "name": "price",
          "type": "uint256"
        },
        {
          "internalType": "uint256",
          "name": "target",
          "type": "uint256"
        }
      ],
      "name": "setSaleParameters",
      "outputs": [],
      "stateMutability": "nonpayable",
      "type": "function"
    },
    {
      "inputs": [
        {
          "internalType": "uint256",
          "name": "pid",
          "type": "uint256"
        },
        {
          "internalType": "address",
          "name": "op",
          "type": "address"
        }
      ],
      "name": "setTokenOperator",
      "outputs": [],
      "stateMutability": "nonpayable",
      "type": "function"
    },
    {
      "inputs": [
        {
          "internalType": "uint256",
          "name": "pid",
          "type": "uint256"
        },
        {
          "internalType": "bool",
          "name": "e",
          "type": "bool"
        }
      ],
      "name": "toggleTokenTransfers",
      "outputs": [],
      "stateMutability": "nonpayable",
      "type": "function"
    },
    {
      "inputs": [
        {
          "internalType": "address",
          "name": "newOwner",
          "type": "address"
        }
      ],
      "name": "transferOwnership",
      "outputs": [],
      "stateMutability": "nonpayable",
      "type": "function"
    },
    {
      "inputs": [
        {
          "internalType": "uint256",
          "name": "pid",
          "type": "uint256"
        },
        {
          "internalType": "address",
          "name": "newOwner",
          "type": "address"
        }
      ],
      "name": "transferTokenOwnership",
      "outputs": [],
      "stateMutability": "nonpayable",
      "type": "function"
    },
    {
      "inputs": [
        {
          "internalType": "uint256",
          "name": "pid",
          "type": "uint256"
        }
      ],
      "name": "unpauseToken",
      "outputs": [],
      "stateMutability": "nonpayable",
      "type": "function"
    },
    {
      "inputs": [
        {
          "internalType": "uint256",
          "name": "pid",
          "type": "uint256"
        },
        {
          "internalType": "address",
          "name": "newSeller",
          "type": "address"
        }
      ],
      "name": "updateSellerAddress",
      "outputs": [],
      "stateMutability": "nonpayable",
      "type": "function"
    },
    {
      "inputs": [
        {
          "internalType": "uint256",
          "name": "pid",
          "type": "uint256"
        },
        {
          "internalType": "uint256",
          "name": "propId",
          "type": "uint256"
        },
        {
          "internalType": "bool",
          "name": "support",
          "type": "bool"
        }
      ],
      "name": "vote",
      "outputs": [],
      "stateMutability": "nonpayable",
      "type": "function"
    },
    {
      "inputs": [],
      "name": "whimsy",
      "outputs": [
        {
          "internalType": "address",
          "name": "",
          "type": "address"
        }
      ],
      "stateMutability": "view",
      "type": "function"
    },
    {
      "inputs": [
        {
          "internalType": "uint256",
          "name": "pid",
          "type": "uint256"
        }
      ],
      "name": "withdrawETHFromToken",
      "outputs": [],
      "stateMutability": "nonpayable",
      "type": "function"
    }
  ],
  "bytecode": "0x60a06040523480156200001157600080fd5b50604051620056623803806200566283398101604081905262000034916200012f565b33806200005c57604051631e4fbdf760e01b8152600060048201526024015b60405180910390fd5b6200006781620000df565b506000805460ff60a01b191690556001600160a01b038116620000cd5760405162461bcd60e51b815260206004820152601460248201527f466163746f72793a207a65726f207768696d7379000000000000000000000000604482015260640162000053565b6001600160a01b031660805262000161565b600080546001600160a01b038381166001600160a01b0319831681178455604051919092169283917f8be0079c531659141344cd1fd0a4f28419497f9722a3daafe3b4186f6b6457e09190a35050565b6000602082840312156200014257600080fd5b81516001600160a01b03811681146200015a57600080fd5b9392505050565b6080516154d76200018b600039600081816102340152818161103e015261170601526154d76000f3fe608060405260043610620001aa5760003560e01c80637975ce2811620000f5578063e30354051162000090578063e3035405146200050f578063e9cf64e61462000534578063e9e7e5991462000328578063ee2e56931462000559578063f2fde38b146200057e578063f7b1080814620005a3578063f80339a81462000609578063fbd395f8146200062e57600080fd5b80637975ce2814620003fd5780638cceffc514620004145780638da5cb5b1462000439578063aba210091462000451578063c361a3351462000488578063c47ab24c14620004a0578063d6a9de5114620004c5578063df2f9edb14620004ea57600080fd5b806302d52fa414620001af57806307f277a414620001d65780631265519014620001fb57806316314a69146200022057806318128d9e146200026e57806319479cd61462000293578063308749b114620002c757806335586b2914620002ec57806343ea46e114620003035780634ffc101914620003285780635c975abb146200034d578063651cffd314620003765780636a18ff7a146200039b578063715018a614620003c0578063776ab63414620003d8575b600080fd5b348015620001bc57600080fd5b50620001d4620001ce36600462001a31565b62000653565b005b348015620001e357600080fd5b50620001d4620001f536600462001ab1565b6200070d565b3480156200020857600080fd5b50620001d46200021a36600462001acb565b620007ad565b3480156200022d57600080fd5b50620002567f000000000000000000000000000000000000000000000000000000000000000081565b60405162000265919062001afe565b60405180910390f35b3480156200027b57600080fd5b50620001d46200028d36600462001ab1565b62000872565b348015620002a057600080fd5b50620002b8620002b236600462001ab1565b62000902565b60405190815260200162000265565b348015620002d457600080fd5b50620001d4620002e636600462001b28565b620009ad565b620001d4620002fd36600462001b5b565b62000ab3565b3480156200031057600080fd5b50620002b86200032236600462001b5b565b62000b45565b3480156200033557600080fd5b50620001d46200034736600462001b5b565b62000bff565b3480156200035a57600080fd5b506200036562000c75565b604051901515815260200162000265565b3480156200038357600080fd5b50620001d46200039536600462001b8d565b62000c85565b348015620003a857600080fd5b50620001d4620003ba36600462001bb5565b62000cfe565b348015620003cd57600080fd5b50620001d462000d7a565b348015620003e557600080fd5b50620001d4620003f736600462001ab1565b62000d92565b620001d46200040e36600462001b5b565b62000e15565b3480156200042157600080fd5b50620001d46200043336600462001b28565b62000e8d565b3480156200044657600080fd5b506200025662000f02565b3480156200045e57600080fd5b50620004766200047036600462001b5b565b62000f11565b60405162000265949392919062001c45565b3480156200049557600080fd5b50620002b860025481565b348015620004ad57600080fd5b5062000256620004bf36600462001d47565b62000fdd565b348015620004d257600080fd5b5062000256620004e436600462001ab1565b620011ce565b348015620004f757600080fd5b50620002566200050936600462001ab1565b62001224565b3480156200051c57600080fd5b50620001d46200052e36600462001b28565b62001276565b3480156200054157600080fd5b50620001d46200055336600462001b28565b6200149c565b3480156200056657600080fd5b50620001d46200057836600462001b28565b6200164d565b3480156200058b57600080fd5b50620001d46200059d36600462001dcf565b62001810565b348015620005b057600080fd5b50620005e8620005c236600462001ab1565b600160208190526000918252604090912080549101546001600160a01b03918216911682565b604080516001600160a01b0393841681529290911660208301520162000265565b3480156200061657600080fd5b50620001d46200062836600462001b5b565b62001855565b3480156200063b57600080fd5b50620001d46200064d36600462001ab1565b620018cb565b6200065d62001958565b826000811180156200067157506002548111155b620006995760405162461bcd60e51b8152600401620006909062001def565b60405180910390fd5b620006a4846200198f565b6001600160a01b03166349c2a1a684846040518363ffffffff1660e01b8152600401620006d392919062001e18565b600060405180830381600087803b158015620006ee57600080fd5b505af115801562000703573d6000803e3d6000fd5b5050505050505050565b6200071762001958565b806000811180156200072b57506002548111155b6200074a5760405162461bcd60e51b8152600401620006909062001def565b62000755826200198f565b6001600160a01b0316633ccfd60b6040518163ffffffff1660e01b8152600401600060405180830381600087803b1580156200079057600080fd5b505af1158015620007a5573d6000803e3d6000fd5b505050505050565b620007b762001958565b620007c1620019aa565b83600081118015620007d557506002548111155b620007f45760405162461bcd60e51b8152600401620006909062001def565b620007ff856200198f565b604051637124dbe760e11b81526004810186905260248101859052604481018490526001600160a01b03919091169063e249b7ce90606401600060405180830381600087803b1580156200085257600080fd5b505af115801562000867573d6000803e3d6000fd5b505050505050505050565b6200087c620019aa565b806000811180156200089057506002548111155b620008af5760405162461bcd60e51b8152600401620006909062001def565b620008ba826200198f565b6001600160a01b0316636add3bdb336040518263ffffffff1660e01b8152600401620008e7919062001afe565b600060405180830381600087803b1580156200079057600080fd5b6000816000811180156200091857506002548111155b620009375760405162461bcd60e51b8152600401620006909062001def565b62000942836200198f565b6001600160a01b03166344c7c8676040518163ffffffff1660e01b8152600401602060405180830381865afa15801562000980573d6000803e3d6000fd5b505050506040513d601f19601f82011682018060405250810190620009a6919062001e47565b9392505050565b620009b762001958565b620009c1620019aa565b81600081118015620009d557506002548111155b620009f45760405162461bcd60e51b8152600401620006909062001def565b6001600160a01b03821662000a425760405162461bcd60e51b81526020600482015260136024820152722330b1ba37b93c9d103d32b93790313abcb2b960691b604482015260640162000690565b62000a4d836200198f565b6001600160a01b0316631df37492836040518263ffffffff1660e01b815260040162000a7a919062001afe565b600060405180830381600087803b15801562000a9557600080fd5b505af115801562000aaa573d6000803e3d6000fd5b50505050505050565b62000abd620019aa565b8160008111801562000ad157506002548111155b62000af05760405162461bcd60e51b8152600401620006909062001def565b62000afb836200198f565b6001600160a01b031663b2826b913433856040518463ffffffff1660e01b815260040162000b2b92919062001e61565b6000604051808303818588803b158015620006ee57600080fd5b60008260008111801562000b5b57506002548111155b62000b7a5760405162461bcd60e51b8152600401620006909062001def565b62000b85846200198f565b6001600160a01b0316632b319a8f846040518263ffffffff1660e01b815260040162000bb391815260200190565b602060405180830381865afa15801562000bd1573d6000803e3d6000fd5b505050506040513d601f19601f8201168201806040525081019062000bf7919062001e47565b949350505050565b62000c0962001958565b8160008111801562000c1d57506002548111155b62000c3c5760405162461bcd60e51b8152600401620006909062001def565b62000c47836200198f565b6001600160a01b031663b921e163836040518263ffffffff1660e01b815260040162000a7a91815260200190565b600054600160a01b900460ff1690565b62000c8f62001958565b8160008111801562000ca357506002548111155b62000cc25760405162461bcd60e51b8152600401620006909062001def565b62000ccd836200198f565b604051630d0a082b60e31b815283151560048201526001600160a01b03919091169063685041589060240162000a7a565b8260008111801562000d1257506002548111155b62000d315760405162461bcd60e51b8152600401620006909062001def565b62000d3c846200198f565b6040516318aa3f5360e11b81523360048201526024810185905283151560448201526001600160a01b0391909116906331547ea690606401620006d3565b62000d8462001958565b62000d906000620019d3565b565b62000d9c62001958565b8060008111801562000db057506002548111155b62000dcf5760405162461bcd60e51b8152600401620006909062001def565b62000dda826200198f565b6001600160a01b0316633f4ba83a6040518163ffffffff1660e01b8152600401600060405180830381600087803b1580156200079057600080fd5b62000e1f620019aa565b8160008111801562000e3357506002548111155b62000e525760405162461bcd60e51b8152600401620006909062001def565b62000e5d836200198f565b6001600160a01b031663712daa753433856040518463ffffffff1660e01b815260040162000b2b92919062001e61565b62000e9762001958565b8160008111801562000eab57506002548111155b62000eca5760405162461bcd60e51b8152600401620006909062001def565b62000ed5836200198f565b6001600160a01b031663b3ab15fb836040518263ffffffff1660e01b815260040162000a7a919062001afe565b6000546001600160a01b031690565b606060008060008560008111801562000f2c57506002548111155b62000f4b5760405162461bcd60e51b8152600401620006909062001def565b62000f56876200198f565b6001600160a01b031663c7f758a8876040518263ffffffff1660e01b815260040162000f8491815260200190565b600060405180830381865afa15801562000fa2573d6000803e3d6000fd5b505050506040513d6000823e601f3d908101601f1916820160405262000fcc919081019062001e7a565b929a91995097509095509350505050565b600062000fe962001958565b6001600160a01b038216620010385760405162461bcd60e51b81526020600482015260146024820152732330b1ba37b93c9d103d32b9379039b2b63632b960611b604482015260640162000690565b848484847f0000000000000000000000000000000000000000000000000000000000000000306040516200106c9062001a23565b6200107d9695949392919062001f18565b604051809103906000f0801580156200109a573d6000803e3d6000fd5b5060405163b3ab15fb60e01b81529091506001600160a01b0382169063b3ab15fb90620010cc90309060040162001afe565b600060405180830381600087803b158015620010e757600080fd5b505af1158015620010fc573d6000803e3d6000fd5b505050506040518060400160405280826001600160a01b03168152602001836001600160a01b0316815250600160006002600081546200113c9062001f72565b918290555081526020808201929092526040908101600020835181546001600160a01b039182166001600160a01b031991821617835594909301516001909101805491909316931692909217905560025490517fe4c85afbede48f9150a9112b5279f9f137aad21303dca0d760254767e8b2e32190620011be90849062001afe565b60405180910390a2949350505050565b600081600081118015620011e457506002548111155b620012035760405162461bcd60e51b8152600401620006909062001def565b5050600090815260016020819052604090912001546001600160a01b031690565b6000816000811180156200123a57506002548111155b620012595760405162461bcd60e51b8152600401620006909062001def565b50506000908152600160205260409020546001600160a01b031690565b6200128062001958565b816000811180156200129457506002548111155b620012b35760405162461bcd60e51b8152600401620006909062001def565b6001600160a01b038216620013015760405162461bcd60e51b81526020600482015260136024820152722330b1ba37b93c9d103d32b9379037bbb732b960691b604482015260640162000690565b60006200130e846200198f565b90506000816001600160a01b03166370a08231856040518263ffffffff1660e01b815260040162001340919062001afe565b602060405180830381865afa1580156200135e573d6000803e3d6000fd5b505050506040513d601f19601f8201168201806040525081019062001384919062001e47565b905060008111620013cd5760405162461bcd60e51b8152602060048201526012602482015271466163746f72793a206e6f20746f6b656e7360701b604482015260640162000690565b816001600160a01b0316630d1af10385620013e762000f02565b6040516001600160e01b031960e085901b1681526001600160a01b0392831660048201529116602482015260448101849052606401600060405180830381600087803b1580156200143757600080fd5b505af11580156200144c573d6000803e3d6000fd5b50505050836001600160a01b0316857f8d51ff47ba0b154c805873a2dc1b3fb485ca749e7623caa525430480c0e0e50c836040516200148d91815260200190565b60405180910390a35050505050565b620014a662001958565b81600081118015620014ba57506002548111155b620014d95760405162461bcd60e51b8152600401620006909062001def565b6001600160a01b0382166200152a5760405162461bcd60e51b81526020600482015260166024820152752330b1ba37b93c9d103d32b937903732bba7bbb732b960511b604482015260640162000690565b600062001537846200198f565b90506000816001600160a01b0316638da5cb5b6040518163ffffffff1660e01b8152600401602060405180830381865afa1580156200157a573d6000803e3d6000fd5b505050506040513d601f19601f82011682018060405250810190620015a0919062001f9a565b60405163f2fde38b60e01b81529091506001600160a01b0383169063f2fde38b90620015d190879060040162001afe565b600060405180830381600087803b158015620015ec57600080fd5b505af115801562001601573d6000803e3d6000fd5b50505050836001600160a01b0316816001600160a01b0316867fa2e7a8a370533462b13ece2478d36768ad75462e24ab1658cbfb7858f6d8aab060405160405180910390a45050505050565b816000811180156200166157506002548111155b620016805760405162461bcd60e51b8152600401620006909062001def565b6001600160a01b038216620016d25760405162461bcd60e51b81526020600482015260176024820152762330b1ba37b93c9d103d32b937903732bba9b2b63632b960491b604482015260640162000690565b6000838152600160208190526040909120908101546001600160a01b03163314801590620017295750336001600160a01b037f00000000000000000000000000000000000000000000000000000000000000001614155b1562001747576040516282b42960e81b815260040160405180910390fd5b6001810180546001600160a01b0319166001600160a01b0385161790556200176f846200198f565b6001600160a01b031663685dab8f846040518263ffffffff1660e01b81526004016200179c919062001afe565b600060405180830381600087803b158015620017b757600080fd5b505af1158015620017cc573d6000803e3d6000fd5b50505050837f22f521e934c9001da312648dad17f10caf3270d1f5d7b091d1a096f40239b3da8460405162001802919062001afe565b60405180910390a250505050565b6200181a62001958565b6001600160a01b03811662001847576000604051631e4fbdf760e01b815260040162000690919062001afe565b6200185281620019d3565b50565b6200185f62001958565b816000811180156200187357506002548111155b620018925760405162461bcd60e51b8152600401620006909062001def565b6200189d836200198f565b6001600160a01b0316635652077c836040518263ffffffff1660e01b815260040162000a7a91815260200190565b620018d562001958565b620018df620019aa565b80600081118015620018f357506002548111155b620019125760405162461bcd60e51b8152600401620006909062001def565b6200191d826200198f565b6001600160a01b0316638456cb596040518163ffffffff1660e01b8152600401600060405180830381600087803b1580156200079057600080fd5b336200196362000f02565b6001600160a01b03161462000d90573360405163118cdaa760e01b815260040162000690919062001afe565b6000908152600160205260409020546001600160a01b031690565b620019b462000c75565b1562000d905760405163d93c066560e01b815260040160405180910390fd5b600080546001600160a01b038381166001600160a01b0319831681178455604051919092169283917f8be0079c531659141344cd1fd0a4f28419497f9722a3daafe3b4186f6b6457e09190a35050565b6134e78062001fbb83390190565b60008060006040848603121562001a4757600080fd5b8335925060208401356001600160401b038082111562001a6657600080fd5b818601915086601f83011262001a7b57600080fd5b81358181111562001a8b57600080fd5b87602082850101111562001a9e57600080fd5b6020830194508093505050509250925092565b60006020828403121562001ac457600080fd5b5035919050565b6000806000806080858703121562001ae257600080fd5b5050823594602084013594506040840135936060013592509050565b6001600160a01b0391909116815260200190565b6001600160a01b03811681146200185257600080fd5b6000806040838503121562001b3c57600080fd5b82359150602083013562001b508162001b12565b809150509250929050565b6000806040838503121562001b6f57600080fd5b50508035926020909101359150565b80151581146200185257600080fd5b6000806040838503121562001ba157600080fd5b82359150602083013562001b508162001b7e565b60008060006060848603121562001bcb57600080fd5b8335925060208401359150604084013562001be68162001b7e565b809150509250925092565b60005b8381101562001c0e57818101518382015260200162001bf4565b50506000910152565b6000815180845262001c3181602086016020860162001bf1565b601f01601f19169290920160200192915050565b60808152600062001c5a608083018762001c17565b60208301959095525060408101929092521515606090910152919050565b634e487b7160e01b600052604160045260246000fd5b604051601f8201601f191681016001600160401b038111828210171562001cb95762001cb962001c78565b604052919050565b60006001600160401b0382111562001cdd5762001cdd62001c78565b50601f01601f191660200190565b600082601f83011262001cfd57600080fd5b813562001d1462001d0e8262001cc1565b62001c8e565b81815284602083860101111562001d2a57600080fd5b816020850160208301376000918101602001919091529392505050565b6000806000806080858703121562001d5e57600080fd5b84356001600160401b038082111562001d7657600080fd5b62001d848883890162001ceb565b9550602087013591508082111562001d9b57600080fd5b5062001daa8782880162001ceb565b93505060408501359150606085013562001dc48162001b12565b939692955090935050565b60006020828403121562001de257600080fd5b8135620009a68162001b12565b6020808252600f908201526e119858dd1bdc9e4e88189859081a59608a1b604082015260600190565b60208152816020820152818360408301376000818301604090810191909152601f909201601f19160101919050565b60006020828403121562001e5a57600080fd5b5051919050565b6001600160a01b03929092168252602082015260400190565b6000806000806080858703121562001e9157600080fd5b84516001600160401b0381111562001ea857600080fd5b8501601f8101871362001eba57600080fd5b805162001ecb62001d0e8262001cc1565b81815288602083850101111562001ee157600080fd5b62001ef482602083016020860162001bf1565b8096505050506020850151925060408501519150606085015162001dc48162001b7e565b60c08152600062001f2d60c083018962001c17565b828103602084015262001f41818962001c17565b604084019790975250506001600160a01b039384166060820152918316608083015290911660a09091015292915050565b60006001820162001f9357634e487b7160e01b600052601160045260246000fd5b5060010190565b60006020828403121562001fad57600080fd5b8151620009a68162001b1256fe6080604052600b805460ff60a01b1916600160a01b1790553480156200002457600080fd5b50604051620034e7380380620034e78339810160408190526200004791620006c9565b808686600362000058838262000801565b50600462000067828262000801565b5050506001600160a01b0381166200009a57604051631e4fbdf760e01b8152600060048201526024015b60405180910390fd5b620000a581620001ea565b5060016006556007805460ff191690556001600160a01b038316620000fe5760405162461bcd60e51b815260206004820152600e60248201526d24b73b30b634b21039b2b63632b960911b604482015260640162000091565b6001600160a01b038216620001475760405162461bcd60e51b815260206004820152600e60248201526d496e76616c6964207768696d737960901b604482015260640162000091565b600980546001600160a01b038086166001600160a01b031992831617909255600b8054928416929091169190911790556000606462000188600387620008e3565b62000194919062000903565b905060006064620001a760038262000926565b620001b69060ff1688620008e3565b620001c2919062000903565b9050620001d085826200023c565b620001dc84836200023c565b50505050505050506200096e565b600580546001600160a01b038381166001600160a01b0319831681179093556040519116919082907f8be0079c531659141344cd1fd0a4f28419497f9722a3daafe3b4186f6b6457e090600090a35050565b6001600160a01b038216620002685760405163ec442f0560e01b81526000600482015260240162000091565b62000276600083836200027a565b5050565b6200028783838362000299565b62000294838383620004b4565b505050565b600b54600160a01b900460ff1680620002b957506001600160a01b038316155b80620002cc57506001600160a01b038216155b6200031a5760405162461bcd60e51b815260206004820152601660248201527f5472616e7366657273206172652064697361626c656400000000000000000000604482015260640162000091565b6001600160a01b038316158015906200033b57506001600160a01b03821615155b1562000294576009546001600160a01b0390811690841603620003e4576009546001600160a01b03166000908152602081905260408120546200038090839062000942565b9050600e54811015620003e25760405162461bcd60e51b8152602060048201526024808201527f53656c6c6572206d7573742072657461696e206d696e696d756d206f776e65726044820152630736869760e41b606482015260840162000091565b505b6009546001600160a01b0383811691161462000294576000601154600014620004105760115462000414565b6002545b9050606462000425600f83620008e3565b62000431919062000903565b8262000452856001600160a01b031660009081526020819052604090205490565b6200045e919062000958565b1115620004ae5760405162461bcd60e51b815260206004820152601560248201527f4275796572206578636565647320313525206361700000000000000000000000604482015260640162000091565b50505050565b6001600160a01b038316620004e3578060026000828254620004d7919062000958565b90915550620005579050565b6001600160a01b03831660009081526020819052604090205481811015620005385760405163391434e360e21b81526001600160a01b0385166004820152602481018290526044810183905260640162000091565b6001600160a01b03841660009081526020819052604090209082900390555b6001600160a01b038216620005755760028054829003905562000594565b6001600160a01b03821660009081526020819052604090208054820190555b816001600160a01b0316836001600160a01b03167fddf252ad1be2c89b69c2b068fc378daa952ba7f163c4a11628f55a4df523b3ef83604051620005da91815260200190565b60405180910390a3505050565b634e487b7160e01b600052604160045260246000fd5b600082601f8301126200060f57600080fd5b81516001600160401b03808211156200062c576200062c620005e7565b604051601f8301601f19908116603f01168101908282118183101715620006575762000657620005e7565b816040528381526020925086838588010111156200067457600080fd5b600091505b8382101562000698578582018301518183018401529082019062000679565b600093810190920192909252949350505050565b80516001600160a01b0381168114620006c457600080fd5b919050565b60008060008060008060c08789031215620006e357600080fd5b86516001600160401b0380821115620006fb57600080fd5b620007098a838b01620005fd565b975060208901519150808211156200072057600080fd5b506200072f89828a01620005fd565b955050604087015193506200074760608801620006ac565b92506200075760808801620006ac565b91506200076760a08801620006ac565b90509295509295509295565b600181811c908216806200078857607f821691505b602082108103620007a957634e487b7160e01b600052602260045260246000fd5b50919050565b601f8211156200029457600081815260208120601f850160051c81016020861015620007d85750805b601f850160051c820191505b81811015620007f957828155600101620007e4565b505050505050565b81516001600160401b038111156200081d576200081d620005e7565b62000835816200082e845462000773565b84620007af565b602080601f8311600181146200086d5760008415620008545750858301515b600019600386901b1c1916600185901b178555620007f9565b600085815260208120601f198616915b828110156200089e578886015182559484019460019091019084016200087d565b5085821015620008bd5787850151600019600388901b60f8161c191681555b5050505050600190811b01905550565b634e487b7160e01b600052601160045260246000fd5b8082028115828204841417620008fd57620008fd620008cd565b92915050565b6000826200092157634e487b7160e01b600052601260045260246000fd5b500490565b60ff8281168282160390811115620008fd57620008fd620008cd565b81810381811115620008fd57620008fd620008cd565b80820180821115620008fd57620008fd620008cd565b612b69806200097e6000396000f3fe6080604052600436106102765760003560e01c806370a082311161014a578063b91f6f0e116100b9578063b91f6f0e1461070a578063b921e1631461071f578063bb979d621461073f578063bef97c8714610755578063c157c5ff14610776578063c45a01551461078b578063c5c4744c146107ab578063c71b0e1c146107c1578063c7f758a8146107d7578063d5cf7cfe14610807578063dd62ed3e1461081c578063e249b7ce1461083c578063f2fde38b1461085c57005b806370a08231146105c0578063712daa75146105e0578063715018a6146105f35780637b239e22146106085780637d6c8c001461061d5780637ff9b5961461064d578063805d835d146106635780638456cb59146106785780638da5cb5b1461068d57806395d89b41146106a2578063a9059cbb146106b7578063b2826b91146106d7578063b3ab15fb146106ea57005b80633ccfd60b116101e65780633ccfd60b1461042b5780633f4ba83a1461044057806344c7c86714610455578063490deb3d1461046a57806349c2a1a6146104b35780635652077c146104d3578063570ca735146104f35780635bb47808146105135780635c975abb14610533578063624b233d1461054b5780636850415814610560578063685dab8f146105805780636add3bdb146105a057005b8062267f9a1461027f57806306fdde03146102a957806308551a53146102cb578063095ea7b3146102f85780630d1af1031461032857806312aef8c31461034857806315482ce11461035e57806318160ddd146103745780631df374921461038957806323b872dd146103a95780632b319a8f146103c9578063313ce567146103e957806331547ea61461040b57005b3661027d57005b005b34801561028b57600080fd5b506102966206978081565b6040519081526020015b60405180910390f35b3480156102b557600080fd5b506102be61087c565b6040516102a091906125cf565b3480156102d757600080fd5b506009546102eb906001600160a01b031681565b6040516102a091906125e9565b34801561030457600080fd5b50610318610313366004612619565b61090e565b60405190151581526020016102a0565b34801561033457600080fd5b5061027d610343366004612643565b610928565b34801561035457600080fd5b50610296600d5481565b34801561036a57600080fd5b5061029660115481565b34801561038057600080fd5b50600254610296565b34801561039557600080fd5b5061027d6103a436600461267f565b610a35565b3480156103b557600080fd5b506103186103c4366004612643565b610d17565b3480156103d557600080fd5b506102966103e436600461269a565b610d3b565b3480156103f557600080fd5b5060125b60405160ff90911681526020016102a0565b34801561041757600080fd5b5061027d6104263660046126c3565b610d4b565b34801561043757600080fd5b5061027d610d80565b34801561044c57600080fd5b5061027d610f29565b34801561046157600080fd5b50610296610f39565b34801561047657600080fd5b5061049e61048536600461267f565b6013602052600090815260409020805460019091015482565b604080519283526020830191909152016102a0565b3480156104bf57600080fd5b5061027d6104ce366004612715565b610f49565b3480156104df57600080fd5b5061027d6104ee36600461269a565b610f7c565b3480156104ff57600080fd5b50600a546102eb906001600160a01b031681565b34801561051f57600080fd5b5061027d61052e36600461267f565b610faf565b34801561053f57600080fd5b5060075460ff16610318565b34801561055757600080fd5b506103f9601e81565b34801561056c57600080fd5b5061027d61057b3660046127c6565b611028565b34801561058c57600080fd5b5061027d61059b36600461267f565b611088565b3480156105ac57600080fd5b5061027d6105bb36600461267f565b611141565b3480156105cc57600080fd5b506102966105db36600461267f565b6111b7565b61027d6105ee366004612619565b6111d2565b3480156105ff57600080fd5b5061027d6114e5565b34801561061457600080fd5b506103f9600a81565b34801561062957600080fd5b5061031861063836600461267f565b60126020526000908152604090205460ff1681565b34801561065957600080fd5b50610296600c5481565b34801561066f57600080fd5b506103f9606481565b34801561068457600080fd5b5061027d6114f7565b34801561069957600080fd5b506102eb611507565b3480156106ae57600080fd5b506102be611516565b3480156106c357600080fd5b506103186106d2366004612619565b611525565b61027d6106e5366004612619565b611533565b3480156106f657600080fd5b5061027d61070536600461267f565b6116d8565b34801561071657600080fd5b506103f9600381565b34801561072b57600080fd5b5061027d61073a36600461269a565b61178d565b34801561074b57600080fd5b50610296600e5481565b34801561076157600080fd5b50600b5461031890600160a01b900460ff1681565b34801561078257600080fd5b506103f961182b565b34801561079757600080fd5b50600b546102eb906001600160a01b031681565b3480156107b757600080fd5b50610296600f5481565b3480156107cd57600080fd5b5061029660105481565b3480156107e357600080fd5b506107f76107f236600461269a565b61183a565b6040516102a094939291906127e1565b34801561081357600080fd5b506103f9600f81565b34801561082857600080fd5b50610296610837366004612812565b611859565b34801561084857600080fd5b5061027d610857366004612845565b611884565b34801561086857600080fd5b5061027d61087736600461267f565b611afb565b60606003805461088b90612871565b80601f01602080910402602001604051908101604052809291908181526020018280546108b790612871565b80156109045780601f106108d957610100808354040283529160200191610904565b820191906000526020600020905b8154815290600101906020018083116108e757829003601f168201915b5050505050905090565b60003361091c818585611b36565b60019150505b92915050565b600a546001600160a01b0316331461095b5760405162461bcd60e51b8152600401610952906128ab565b60405180910390fd5b610963611b43565b6001600160a01b0383166109c55760405162461bcd60e51b815260206004820152602360248201527f6f70657261746f725472616e736665723a2066726f6d207a65726f206164647260448201526265737360e81b6064820152608401610952565b6001600160a01b038216610a255760405162461bcd60e51b815260206004820152602160248201527f6f70657261746f725472616e736665723a20746f207a65726f206164647265736044820152607360f81b6064820152608401610952565b610a30838383611b67565b505050565b600a546001600160a01b03163314610a5f5760405162461bcd60e51b8152600401610952906128ab565b610a67611b43565b610a6f611bc6565b6001600160a01b038116610acf5760405162461bcd60e51b815260206004820152602160248201527f726566756e64556e61677265656442757965723a207a65726f206164647265736044820152607360f81b6064820152608401610952565b6001600160a01b0381166000908152601360209081526040918290208251808401909352805480845260019091015491830191909152610b425760405162461bcd60e51b815260206004820152600e60248201526d2737903932b9b2b93b30ba34b7b760911b6044820152606401610952565b6001600160a01b03821660009081526012602052604090205460ff1615610ba25760405162461bcd60e51b8152602060048201526014602482015273109d5e595c88185b1c9958591e481859dc99595960621b6044820152606401610952565b620697808160200151610bb591906128f8565b421015610bfa5760405162461bcd60e51b8152602060048201526013602482015272151a5b595bdd5d081b9bdd081c995858da1959606a1b6044820152606401610952565b805160108054600090610c0e90849061290b565b90915550506001600160a01b0382166000818152601360205260408120818155600101819055600c548351919291610c46919061291e565b604051600081818185875af1925050503d8060008114610c82576040519150601f19603f3d011682016040523d82523d6000602084013e610c87565b606091505b5050905080610cc85760405162461bcd60e51b815260206004820152600d60248201526c1499599d5b990819985a5b1959609a1b6044820152606401610952565b81516040519081526001600160a01b038416907fa171b6942063c6f2800ce40a780edce37baa2b618571b11eedd1e69e626e7d769060200160405180910390a25050610d146001600655565b50565b600033610d25858285611bf0565b610d30858585611b67565b506001949350505050565b6000600f548261092291906128f8565b600a546001600160a01b03163314610d755760405162461bcd60e51b8152600401610952906128ab565b610a30838383611c44565b610d88611bc6565b610d90611b43565b610d98611507565b6001600160a01b0316336001600160a01b03161480610dc15750600a546001600160a01b031633145b610dfe5760405162461bcd60e51b815260206004820152600e60248201526d139bdd08185d5d1a1bdc9a5e995960921b6044820152606401610952565b4780610e415760405162461bcd60e51b81526020600482015260126024820152714e6f2045544820746f20776974686472617760701b6044820152606401610952565b6009546040516000916001600160a01b03169083908381818185875af1925050503d8060008114610e8e576040519150601f19603f3d011682016040523d82523d6000602084013e610e93565b606091505b5050905080610ed65760405162461bcd60e51b815260206004820152600f60248201526e15da5d1a191c985dc819985a5b1959608a1b6044820152606401610952565b600954604080518481526001600160a01b0390921660208301527f8c7cdad0d12a8db3e23561b42da6f10c8137914c97beff202213a410e1f520a3910160405180910390a15050610f276001600655565b565b610f31611e0f565b610f27611e41565b6000610f4460085490565b905090565b600a546001600160a01b03163314610f735760405162461bcd60e51b8152600401610952906128ab565b610d1481611e8d565b600a546001600160a01b03163314610fa65760405162461bcd60e51b8152600401610952906128ab565b610d1481611f18565b610fb7611e0f565b600b546001600160a01b0316156110065760405162461bcd60e51b8152602060048201526013602482015272119858dd1bdc9e48185b1c9958591e481cd95d606a1b6044820152606401610952565b600b80546001600160a01b0319166001600160a01b0392909216919091179055565b611030611e0f565b600b8054821515600160a01b0260ff60a01b199091161790556040517fe1965432af4c9923f6ebb98f1721262967cfa6178008742d23041dc8ee74ee8f9061107d90831515815260200190565b60405180910390a150565b611090611e0f565b6001600160a01b0381166110d85760405162461bcd60e51b815260206004820152600f60248201526e496e76616c6964206164647265737360881b6044820152606401610952565b600954604080516001600160a01b03928316815291831660208301527fd08dbba23a735d81eaf53ac5ede2c722bb186e9d3d46b62842853f0d017c2212910160405180910390a1600980546001600160a01b0319166001600160a01b0392909216919091179055565b600b546001600160a01b0316331461116b5760405162461bcd60e51b815260040161095290612935565b6001600160a01b038116600081815260126020526040808220805460ff19166001179055517fec25952115d724de7fec274999c9cbe0cff9898f9f5128eaa42bd599138462a19190a250565b6001600160a01b031660009081526020819052604090205490565b6111da611b43565b6111e2611bc6565b600b546001600160a01b0316331461120c5760405162461bcd60e51b815260040161095290612935565b6001600160a01b03821660009081526012602052604090205460ff166112745760405162461bcd60e51b815260206004820152601e60248201527f4d75737420616772656520746f20646973636c61696d657220666972737400006044820152606401610952565b600081116112945760405162461bcd60e51b81526004016109529061295b565b6001600160a01b0382166000908152601360209081526040918290208251808401909352805480845260019091015491830191909152156113cf578051821461131a5760405162461bcd60e51b8152602060048201526018602482015277135d5cdd08189d5e481c995cd95c9d995908185b5bdd5b9d60421b6044820152606401610952565b34156113575760405162461bcd60e51b815260206004820152600c60248201526b09cde40caf0e8e4c2408aa8960a31b6044820152606401610952565b8160106000828254611369919061290b565b90915550506001600160a01b0383166000908152601360205260408120818155600101819055600d80548492906113a190849061290b565b9091555050600c546113b3908361291e565b600f60008282546113c491906128f8565b9091555061147c9050565b601054600d546113df919061290b565b8211156114205760405162461bcd60e51b815260206004820152600f60248201526e139bdd08195b9bdd59da081b19599d608a1b6044820152606401610952565b600c5461142d908361291e565b341461144b5760405162461bcd60e51b815260040161095290612987565b81600d600082825461145d919061290b565b9250508190555034600f600082825461147691906128f8565b90915550505b600954611493906001600160a01b03168484611b67565b826001600160a01b03167f8f28852646c20cc973d3a8218f7eefed58c25c909f78f0265af4818c3d4dc271836040516114ce91815260200190565b60405180910390a2506114e16001600655565b5050565b6114ed611e0f565b610f276000611fe1565b6114ff611e0f565b610f27612033565b6005546001600160a01b031690565b60606004805461088b90612871565b60003361091c818585611b67565b600b546001600160a01b0316331461155d5760405162461bcd60e51b815260040161095290612935565b600c5461156a908261291e565b34146115885760405162461bcd60e51b815260040161095290612987565b600081116115a85760405162461bcd60e51b81526004016109529061295b565b6001600160a01b038216600090815260136020526040902054156116035760405162461bcd60e51b81526020600482015260126024820152715265736572766174696f6e2065786973747360701b6044820152606401610952565b601054600d54611613919061290b565b81111561165b5760405162461bcd60e51b8152602060048201526016602482015275139bdd08195b9bdd59da081d1bdad95b9cc81b19599d60521b6044820152606401610952565b600c54611668908261291e565b34146116865760405162461bcd60e51b815260040161095290612987565b6040805180820182528281524260208083019182526001600160a01b038616600090815260139091529283209151825551600190910155601080548392906116cf9084906128f8565b90915550505050565b6116e0611e0f565b6001600160a01b0381166117315760405162461bcd60e51b8152602060048201526018602482015277496e76616c6964206f70657261746f72206164647265737360401b6044820152606401610952565b600a546040516001600160a01b038084169216907ffbe5b6cbafb274f445d7fed869dc77a838d8243a22c460de156560e8857cad0390600090a3600a80546001600160a01b0319166001600160a01b0392909216919091179055565b611795611e0f565b600d54156117e55760405162461bcd60e51b815260206004820152601d60248201527f43616e2774206d696e7420647572696e67206163746976652073616c650000006044820152606401610952565b6009546117fb906001600160a01b031682612070565b6040518181527f359675c23a13743cf846e03b084a0b1fd129ffa3404dbdd936effd23fb97aa9d9060200161107d565b611837600360646129b3565b81565b6060600080600061184a856120a6565b93509350935093509193509193565b6001600160a01b03918216600090815260016020908152604080832093909416825291909152205490565b600a546001600160a01b031633146118ae5760405162461bcd60e51b8152600401610952906128ab565b6118b6611b43565b600082116119005760405162461bcd60e51b81526020600482015260176024820152760546f6b656e207072696365206d757374206265203e203604c1b6044820152606401610952565b600061190b60025490565b60118190559050606461191f600a8361291e565b61192991906129cc565b8210156119685760405162461bcd60e51b815260206004820152600d60248201526c546172676574203e3d2031302560981b6044820152606401610952565b6064611975601e8361291e565b61197f91906129cc565b8211156119be5760405162461bcd60e51b815260206004820152600d60248201526c546172676574203c3d2033302560981b6044820152606401610952565b60095484906119d5906001600160a01b03166111b7565b1015611a185760405162461bcd60e51b815260206004820152601260248201527153656c6c65722062616c616e6365206c6f7760701b6044820152606401610952565b60095482908590611a31906001600160a01b03166111b7565b611a3b919061290b565b14611aa55760405162461bcd60e51b815260206004820152603460248201527f746f6b656e73466f7253616c65206d75737420657175616c2073656c6c65722060448201527318985b185b98d9481b5a5b9d5cc81d185c99d95d60621b6064820152608401610952565b600c839055600d849055600e82905560408051858152602081018590529081018390527f4d012a69148885509f5eb0377244099c968f990db1f853707b9d8e3fea20f7b99060600160405180910390a150505050565b611b03611e0f565b6001600160a01b038116611b2d576000604051631e4fbdf760e01b815260040161095291906125e9565b610d1481611fe1565b610a30838383600161218d565b60075460ff1615610f275760405163d93c066560e01b815260040160405180910390fd5b6001600160a01b038316611b91576000604051634b637e8f60e11b815260040161095291906125e9565b6001600160a01b038216611bbb57600060405163ec442f0560e01b815260040161095291906125e9565b610a30838383612262565b600260065403611be957604051633ee5aeb560e01b815260040160405180910390fd5b6002600655565b6000611bfc8484611859565b9050600019811015611c3e5781811015611c2f57828183604051637dc7a0d960e11b8152600401610952939291906129ee565b611c3e8484848403600061218d565b50505050565b600060088381548110611c5957611c59612a0f565b60009182526020909120600590910201600381015490915060ff1615611cb65760405162461bcd60e51b8152602060048201526012602482015271141c9bdc1bdcd85b08199a5b985b1a5e995960721b6044820152606401610952565b6001600160a01b038416600090815260048201602052604090205460ff1615611d115760405162461bcd60e51b815260206004820152600d60248201526c105b1c9958591e481d9bdd1959609a1b6044820152606401610952565b6000611d1c856111b7565b905060008111611d605760405162461bcd60e51b815260206004820152600f60248201526e2737903b37ba34b733903837bbb2b960891b6044820152606401610952565b8215611d855780826001016000828254611d7a91906128f8565b90915550611d9f9050565b80826002016000828254611d9991906128f8565b90915550505b6001600160a01b0385166000818152600484016020908152604091829020805460ff19166001179055815192835285151590830152810182905284907f7c2de587c00d75474a0c6c6fa96fd3b45dc974cd4e8a75f712bb84c950dce1b59060600160405180910390a25050505050565b33611e18611507565b6001600160a01b031614610f27573360405163118cdaa760e01b815260040161095291906125e9565b611e49612278565b6007805460ff191690557f5db9ee0a495bf2e6ff9c91a7834c1ba4fdd244a5e8aa4e537bd38aeae4b073aa335b604051611e8391906125e9565b60405180910390a1565b600880546001810182556000919091526005027ff3f7a9fe364faab93b216da50a3214154f22a0a2b415b23a84c8169e8b636ee30180611ecd8382612a73565b50600854611edd9060019061290b565b7f9c770c289ab5bf7e57cb1d23c8ceae993aea46eb64847072fd3d78ca60d3e43283604051611f0c91906125cf565b60405180910390a25050565b600060088281548110611f2d57611f2d612a0f565b60009182526020909120600590910201600381015490915060ff1615611f895760405162461bcd60e51b8152602060048201526011602482015270105b1c9958591e48199a5b985b1a5e9959607a1b6044820152606401610952565b60038101805460ff1916600190811790915560028201549082015460405191108082529083907fb5ac567fcf1b069e0235e4f16734625c6cf54c1b40517fd9eb85517f6e1265a79060200160405180910390a2505050565b600580546001600160a01b038381166001600160a01b0319831681179093556040519116919082907f8be0079c531659141344cd1fd0a4f28419497f9722a3daafe3b4186f6b6457e090600090a35050565b61203b611b43565b6007805460ff191660011790557f62e78cea01bee320cd4e420270b5ea74000d11b0c9f74754ebdbfc544b05a258611e763390565b6001600160a01b03821661209a57600060405163ec442f0560e01b815260040161095291906125e9565b6114e160008383612262565b6060600080600080600886815481106120c1576120c1612a0f565b9060005260206000209060050201905080600001816001015482600201548360030160009054906101000a900460ff168380546120fd90612871565b80601f016020809104026020016040519081016040528092919081815260200182805461212990612871565b80156121765780601f1061214b57610100808354040283529160200191612176565b820191906000526020600020905b81548152906001019060200180831161215957829003601f168201915b505050505093509450945094509450509193509193565b6001600160a01b0384166121b757600060405163e602df0560e01b815260040161095291906125e9565b6001600160a01b0383166121e1576000604051634a1406b160e11b815260040161095291906125e9565b6001600160a01b0380851660009081526001602090815260408083209387168352929052208290558015611c3e57826001600160a01b0316846001600160a01b03167f8c5be1e5ebec7d5bd14f71427d1e84f3dd0314c0f7b2291e5b200ac8c7c3b9258460405161225491815260200190565b60405180910390a350505050565b61226d83838361229b565b610a30838383612472565b60075460ff16610f2757604051638dfc202b60e01b815260040160405180910390fd5b600b54600160a01b900460ff16806122ba57506001600160a01b038316155b806122cc57506001600160a01b038216155b6123115760405162461bcd60e51b8152602060048201526016602482015275151c985b9cd9995c9cc8185c9948191a5cd8589b195960521b6044820152606401610952565b6001600160a01b0383161580159061233157506001600160a01b03821615155b15610a30576009546001600160a01b03908116908416036123d2576009546000908290612366906001600160a01b03166111b7565b612370919061290b565b9050600e548110156123d05760405162461bcd60e51b8152602060048201526024808201527f53656c6c6572206d7573742072657461696e206d696e696d756d206f776e65726044820152630736869760e41b6064820152608401610952565b505b6009546001600160a01b03838116911614610a305760006011546000146123fb576011546123ff565b6002545b9050606461240e600f8361291e565b61241891906129cc565b82612422856111b7565b61242c91906128f8565b1115611c3e5760405162461bcd60e51b8152602060048201526015602482015274042757965722065786365656473203135252063617605c1b6044820152606401610952565b6001600160a01b03831661249d57806002600082825461249291906128f8565b909155506124fc9050565b6001600160a01b038316600090815260208190526040902054818110156124dd5783818360405163391434e360e21b8152600401610952939291906129ee565b6001600160a01b03841660009081526020819052604090209082900390555b6001600160a01b03821661251857600280548290039055612537565b6001600160a01b03821660009081526020819052604090208054820190555b816001600160a01b0316836001600160a01b03167fddf252ad1be2c89b69c2b068fc378daa952ba7f163c4a11628f55a4df523b3ef8360405161257c91815260200190565b60405180910390a3505050565b6000815180845260005b818110156125af57602081850181015186830182015201612593565b506000602082860101526020601f19601f83011685010191505092915050565b6020815260006125e26020830184612589565b9392505050565b6001600160a01b0391909116815260200190565b80356001600160a01b038116811461261457600080fd5b919050565b6000806040838503121561262c57600080fd5b612635836125fd565b946020939093013593505050565b60008060006060848603121561265857600080fd5b612661846125fd565b925061266f602085016125fd565b9150604084013590509250925092565b60006020828403121561269157600080fd5b6125e2826125fd565b6000602082840312156126ac57600080fd5b5035919050565b8035801515811461261457600080fd5b6000806000606084860312156126d857600080fd5b6126e1846125fd565b9250602084013591506126f6604085016126b3565b90509250925092565b634e487b7160e01b600052604160045260246000fd5b60006020828403121561272757600080fd5b813567ffffffffffffffff8082111561273f57600080fd5b818401915084601f83011261275357600080fd5b813581811115612765576127656126ff565b604051601f8201601f19908116603f0116810190838211818310171561278d5761278d6126ff565b816040528281528760208487010111156127a657600080fd5b826020860160208301376000928101602001929092525095945050505050565b6000602082840312156127d857600080fd5b6125e2826126b3565b6080815260006127f46080830187612589565b60208301959095525060408101929092521515606090910152919050565b6000806040838503121561282557600080fd5b61282e836125fd565b915061283c602084016125fd565b90509250929050565b60008060006060848603121561285a57600080fd5b505081359360208301359350604090920135919050565b600181811c9082168061288557607f821691505b6020821081036128a557634e487b7160e01b600052602260045260246000fd5b50919050565b6020808252601d908201527f4e6f7420617574686f72697a65643a206f70657261746f72206f6e6c79000000604082015260600190565b634e487b7160e01b600052601160045260246000fd5b80820180821115610922576109226128e2565b81810381811115610922576109226128e2565b8082028115828204841417610922576109226128e2565b6020808252600c908201526b4f6e6c7920666163746f727960a01b604082015260600190565b6020808252601290820152710416d6f756e74206d757374206265203e20360741b604082015260600190565b602080825260129082015271125b98dbdc9c9958dd08115512081cd95b9d60721b604082015260600190565b60ff8281168282160390811115610922576109226128e2565b6000826129e957634e487b7160e01b600052601260045260246000fd5b500490565b6001600160a01b039390931683526020830191909152604082015260600190565b634e487b7160e01b600052603260045260246000fd5b601f821115610a3057600081815260208120601f850160051c81016020861015612a4c5750805b601f850160051c820191505b81811015612a6b57828155600101612a58565b505050505050565b815167ffffffffffffffff811115612a8d57612a8d6126ff565b612aa181612a9b8454612871565b84612a25565b602080601f831160018114612ad65760008415612abe5750858301515b600019600386901b1c1916600185901b178555612a6b565b600085815260208120601f198616915b82811015612b0557888601518255948401946001909101908401612ae6565b5085821015612b235787850151600019600388901b60f8161c191681555b5050505050600190811b0190555056fea264697066735822122059ba56882ca45a6c724fa6594a1b390a59da6d894dd7460825e2d924d58cad6964736f6c63430008140033a26469706673582212209c10cee10401c8060a2c439b169e3c055fe20ecc09bde0be2df4f4120834cffc64736f6c63430008140033",
  "linkReferences": {},
  "deployedLinkReferences": {}
}