{
  "_format": "hh-sol-artifact-1",
  "contractName": "PropertyTokenFactory",
  "sourceName": "contracts/PropertyTokenFactory.sol",
  "abi": [
    {
      "inputs": [
        {
          "internalType": "address",
          "name": "whimsyAddress",
          "type": "address"
        }
      ],
      "stateMutability": "nonpayable",
      "type": "constructor"
    },
    {
      "inputs": [
        {
          "internalType": "address",
          "name": "owner",
          "type": "address"
        }
      ],
      "name": "OwnableInvalidOwner",
      "type": "error"
    },
    {
      "inputs": [
        {
          "internalType": "address",
          "name": "account",
          "type": "address"
        }
      ],
      "name": "OwnableUnauthorizedAccount",
      "type": "error"
    },
    {
      "inputs": [],
      "name": "Unauthorized",
      "type": "error"
    },
    {
      "anonymous": false,
      "inputs": [
        {
          "indexed": true,
          "internalType": "uint256",
          "name": "propertyId",
          "type": "uint256"
        },
        {
          "indexed": false,
          "internalType": "address",
          "name": "tokenAddress",
          "type": "address"
        }
      ],
      "name": "NewProperty",
      "type": "event"
    },
    {
      "anonymous": false,
      "inputs": [
        {
          "indexed": true,
          "internalType": "address",
          "name": "previousOwner",
          "type": "address"
        },
        {
          "indexed": true,
          "internalType": "address",
          "name": "newOwner",
          "type": "address"
        }
      ],
      "name": "OwnershipTransferred",
      "type": "event"
    },
    {
      "anonymous": false,
      "inputs": [
        {
          "indexed": true,
          "internalType": "uint256",
          "name": "propertyId",
          "type": "uint256"
        },
        {
          "indexed": false,
          "internalType": "uint256",
          "name": "proposalId",
          "type": "uint256"
        },
        {
          "indexed": false,
          "internalType": "string",
          "name": "description",
          "type": "string"
        }
      ],
      "name": "ProposalCreated",
      "type": "event"
    },
    {
      "anonymous": false,
      "inputs": [
        {
          "indexed": true,
          "internalType": "uint256",
          "name": "propertyId",
          "type": "uint256"
        },
        {
          "indexed": false,
          "internalType": "uint256",
          "name": "proposalId",
          "type": "uint256"
        },
        {
          "indexed": false,
          "internalType": "bool",
          "name": "passed",
          "type": "bool"
        }
      ],
      "name": "ProposalFinalized",
      "type": "event"
    },
    {
      "anonymous": false,
      "inputs": [
        {
          "indexed": true,
          "internalType": "uint256",
          "name": "propertyId",
          "type": "uint256"
        },
        {
          "indexed": false,
          "internalType": "uint256",
          "name": "tokensForSale",
          "type": "uint256"
        },
        {
          "indexed": false,
          "internalType": "uint256",
          "name": "price",
          "type": "uint256"
        },
        {
          "indexed": false,
          "internalType": "uint256",
          "name": "sellerOwnership",
          "type": "uint256"
        }
      ],
      "name": "SaleParametersSet",
      "type": "event"
    },
    {
      "anonymous": false,
      "inputs": [
        {
          "indexed": true,
          "internalType": "uint256",
          "name": "propertyId",
          "type": "uint256"
        },
        {
          "indexed": false,
          "internalType": "address",
          "name": "newSeller",
          "type": "address"
        }
      ],
      "name": "SellerUpdated",
      "type": "event"
    },
    {
      "anonymous": false,
      "inputs": [
        {
          "indexed": true,
          "internalType": "uint256",
          "name": "propertyId",
          "type": "uint256"
        },
        {
          "indexed": false,
          "internalType": "uint256",
          "name": "newAmount",
          "type": "uint256"
        }
      ],
      "name": "SupplyIncreased",
      "type": "event"
    },
    {
      "anonymous": false,
      "inputs": [
        {
          "indexed": true,
          "internalType": "uint256",
          "name": "propertyId",
          "type": "uint256"
        },
        {
          "indexed": false,
          "internalType": "address",
          "name": "buyer",
          "type": "address"
        },
        {
          "indexed": false,
          "internalType": "uint256",
          "name": "amount",
          "type": "uint256"
        }
      ],
      "name": "TokensPurchased",
      "type": "event"
    },
    {
      "anonymous": false,
      "inputs": [
        {
          "indexed": true,
          "internalType": "uint256",
          "name": "propertyId",
          "type": "uint256"
        },
        {
          "indexed": false,
          "internalType": "uint256",
          "name": "proposalId",
          "type": "uint256"
        },
        {
          "indexed": false,
          "internalType": "address",
          "name": "voter",
          "type": "address"
        },
        {
          "indexed": false,
          "internalType": "bool",
          "name": "support",
          "type": "bool"
        },
        {
          "indexed": false,
          "internalType": "uint256",
          "name": "weight",
          "type": "uint256"
        }
      ],
      "name": "Voted",
      "type": "event"
    },
    {
      "anonymous": false,
      "inputs": [
        {
          "indexed": true,
          "internalType": "uint256",
          "name": "propertyId",
          "type": "uint256"
        },
        {
          "indexed": false,
          "internalType": "uint256",
          "name": "amount",
          "type": "uint256"
        },
        {
          "indexed": false,
          "internalType": "address",
          "name": "to",
          "type": "address"
        }
      ],
      "name": "Withdrawn",
      "type": "event"
    },
    {
      "inputs": [
        {
          "internalType": "uint256",
          "name": "propertyId",
          "type": "uint256"
        }
      ],
      "name": "agreeDisclaimer",
      "outputs": [],
      "stateMutability": "nonpayable",
      "type": "function"
    },
    {
      "inputs": [
        {
          "internalType": "uint256",
          "name": "propertyId",
          "type": "uint256"
        },
        {
          "internalType": "uint256",
          "name": "amount",
          "type": "uint256"
        }
      ],
      "name": "buyTokens",
      "outputs": [],
      "stateMutability": "payable",
      "type": "function"
    },
    {
      "inputs": [
        {
          "internalType": "string",
          "name": "name",
          "type": "string"
        },
        {
          "internalType": "string",
          "name": "symbol",
          "type": "string"
        },
        {
          "internalType": "uint256",
          "name": "initialSupply",
          "type": "uint256"
        },
        {
          "internalType": "address",
          "name": "seller",
          "type": "address"
        }
      ],
      "name": "createIPropertyToken",
      "outputs": [
        {
          "internalType": "address",
          "name": "token",
          "type": "address"
        }
      ],
      "stateMutability": "nonpayable",
      "type": "function"
    },
    {
      "inputs": [
        {
          "internalType": "uint256",
          "name": "propertyId",
          "type": "uint256"
        },
        {
          "internalType": "string",
          "name": "description",
          "type": "string"
        }
      ],
      "name": "createProposal",
      "outputs": [],
      "stateMutability": "nonpayable",
      "type": "function"
    },
    {
      "inputs": [
        {
          "internalType": "uint256",
          "name": "propertyId",
          "type": "uint256"
        },
        {
          "internalType": "uint256",
          "name": "proposalId",
          "type": "uint256"
        }
      ],
      "name": "finalizeProposal",
      "outputs": [],
      "stateMutability": "nonpayable",
      "type": "function"
    },
    {
      "inputs": [
        {
          "internalType": "uint256",
          "name": "propertyId",
          "type": "uint256"
        }
      ],
      "name": "getIPropertyToken",
      "outputs": [
        {
          "internalType": "address",
          "name": "",
          "type": "address"
        }
      ],
      "stateMutability": "view",
      "type": "function"
    },
    {
      "inputs": [
        {
          "internalType": "uint256",
          "name": "propertyId",
          "type": "uint256"
        },
        {
          "internalType": "uint256",
          "name": "preMoneyValuation",
          "type": "uint256"
        }
      ],
      "name": "getPostMoneyValuation",
      "outputs": [
        {
          "internalType": "uint256",
          "name": "",
          "type": "uint256"
        }
      ],
      "stateMutability": "view",
      "type": "function"
    },
    {
      "inputs": [
        {
          "internalType": "uint256",
          "name": "propertyId",
          "type": "uint256"
        }
      ],
      "name": "getSeller",
      "outputs": [
        {
          "internalType": "address",
          "name": "",
          "type": "address"
        }
      ],
      "stateMutability": "view",
      "type": "function"
    },
    {
      "inputs": [
        {
          "internalType": "uint256",
          "name": "propertyId",
          "type": "uint256"
        },
        {
          "internalType": "uint256",
          "name": "amount",
          "type": "uint256"
        }
      ],
      "name": "increaseSupply",
      "outputs": [],
      "stateMutability": "nonpayable",
      "type": "function"
    },
    {
      "inputs": [],
      "name": "owner",
      "outputs": [
        {
          "internalType": "address",
          "name": "",
          "type": "address"
        }
      ],
      "stateMutability": "view",
      "type": "function"
    },
    {
      "inputs": [
        {
          "internalType": "uint256",
          "name": "",
          "type": "uint256"
        }
      ],
      "name": "properties",
      "outputs": [
        {
          "internalType": "address",
          "name": "token",
          "type": "address"
        },
        {
          "internalType": "address",
          "name": "seller",
          "type": "address"
        }
      ],
      "stateMutability": "view",
      "type": "function"
    },
    {
      "inputs": [],
      "name": "propertyCount",
      "outputs": [
        {
          "internalType": "uint256",
          "name": "",
          "type": "uint256"
        }
      ],
      "stateMutability": "view",
      "type": "function"
    },
    {
      "inputs": [
        {
          "internalType": "uint256",
          "name": "propertyId",
          "type": "uint256"
        },
        {
          "internalType": "address",
          "name": "buyer",
          "type": "address"
        }
      ],
      "name": "refundUnagreedBuyer",
      "outputs": [],
      "stateMutability": "nonpayable",
      "type": "function"
    },
    {
      "inputs": [],
      "name": "renounceOwnership",
      "outputs": [],
      "stateMutability": "nonpayable",
      "type": "function"
    },
    {
      "inputs": [
        {
          "internalType": "uint256",
          "name": "propertyId",
          "type": "uint256"
        },
        {
          "internalType": "uint256",
          "name": "amount",
          "type": "uint256"
        }
      ],
      "name": "reserveTokens",
      "outputs": [],
      "stateMutability": "payable",
      "type": "function"
    },
    {
      "inputs": [
        {
          "internalType": "uint256",
          "name": "propertyId",
          "type": "uint256"
        },
        {
          "internalType": "uint256",
          "name": "tokensForSale",
          "type": "uint256"
        },
        {
          "internalType": "uint256",
          "name": "tokenPrice",
          "type": "uint256"
        },
        {
          "internalType": "uint256",
          "name": "sellerTargetOwnership",
          "type": "uint256"
        }
      ],
      "name": "setSaleParameters",
      "outputs": [],
      "stateMutability": "nonpayable",
      "type": "function"
    },
    {
      "inputs": [
        {
          "internalType": "address",
          "name": "newOwner",
          "type": "address"
        }
      ],
      "name": "transferOwnership",
      "outputs": [],
      "stateMutability": "nonpayable",
      "type": "function"
    },
    {
      "inputs": [
        {
          "internalType": "uint256",
          "name": "propertyId",
          "type": "uint256"
        },
        {
          "internalType": "address",
          "name": "newSeller",
          "type": "address"
        }
      ],
      "name": "updateSellerAddress",
      "outputs": [],
      "stateMutability": "nonpayable",
      "type": "function"
    },
    {
      "inputs": [
        {
          "internalType": "uint256",
          "name": "propertyId",
          "type": "uint256"
        },
        {
          "internalType": "uint256",
          "name": "proposalId",
          "type": "uint256"
        },
        {
          "internalType": "bool",
          "name": "support",
          "type": "bool"
        }
      ],
      "name": "vote",
      "outputs": [],
      "stateMutability": "nonpayable",
      "type": "function"
    },
    {
      "inputs": [],
      "name": "whimsy",
      "outputs": [
        {
          "internalType": "address",
          "name": "",
          "type": "address"
        }
      ],
      "stateMutability": "view",
      "type": "function"
    },
    {
      "inputs": [
        {
          "internalType": "uint256",
          "name": "propertyId",
          "type": "uint256"
        }
      ],
      "name": "withdraw",
      "outputs": [],
      "stateMutability": "nonpayable",
      "type": "function"
    }
  ],
  "bytecode": "0x60a060405234801561001057600080fd5b506040516200446438038062004464833981016040819052610031916100c2565b338061005757604051631e4fbdf760e01b81526000600482015260240160405180910390fd5b61006081610072565b506001600160a01b03166080526100f2565b600080546001600160a01b038381166001600160a01b0319831681178455604051919092169283917f8be0079c531659141344cd1fd0a4f28419497f9722a3daafe3b4186f6b6457e09190a35050565b6000602082840312156100d457600080fd5b81516001600160a01b03811681146100eb57600080fd5b9392505050565b60805161434f62000115600039600081816101860152610cdf015261434f6000f3fe608060405260043610620001215760003560e01c80637975ce2811620000a85780637975ce2814620002b75780638da5cb5b14620002ce578063c361a33514620002ee578063c47ab24c1462000306578063d6a9de51146200032b578063df2f9edb1462000369578063e9e7e59914620003a3578063ee2e569314620003c8578063f2fde38b14620003ed578063f7b108081462000412578063f80339a8146200047857600080fd5b806302d52fa4146200012657806312655190146200014d57806316314a69146200017257806318128d9e14620001c05780632e1a7d4d14620001e5578063308749b1146200020a57806335586b29146200022f57806343ea46e114620002465780636a18ff7a146200027a578063715018a6146200029f575b600080fd5b3480156200013357600080fd5b506200014b6200014536600462001322565b6200049d565b005b3480156200015a57600080fd5b506200014b6200016c3660046200136c565b620005e6565b3480156200017f57600080fd5b50620001a87f000000000000000000000000000000000000000000000000000000000000000081565b604051620001b791906200139f565b60405180910390f35b348015620001cd57600080fd5b506200014b620001df366004620013b3565b620006d7565b348015620001f257600080fd5b506200014b62000204366004620013b3565b62000763565b3480156200021757600080fd5b506200014b62000229366004620013ea565b620008b4565b6200014b6200024036600462001419565b62000957565b3480156200025357600080fd5b506200026b6200026536600462001419565b620009ec565b604051908152602001620001b7565b3480156200028757600080fd5b506200014b620002993660046200144b565b62000a8f565b348015620002ac57600080fd5b506200014b62000bea565b6200014b620002c836600462001419565b62000c02565b348015620002db57600080fd5b506000546001600160a01b0316620001a8565b348015620002fb57600080fd5b506200026b60025481565b3480156200031357600080fd5b50620001a86200032536600462001487565b62000ccb565b3480156200033857600080fd5b50620001a86200034a366004620013b3565b600090815260016020819052604090912001546001600160a01b031690565b3480156200037657600080fd5b50620001a862000388366004620013b3565b6000908152600160205260409020546001600160a01b031690565b348015620003b057600080fd5b506200014b620003c236600462001419565b62000e5b565b348015620003d557600080fd5b506200014b620003e7366004620013ea565b62000f25565b348015620003fa57600080fd5b506200014b6200040c3660046200150d565b62001019565b3480156200041f57600080fd5b506200045762000431366004620013b3565b600160208190526000918252604090912080549101546001600160a01b03918216911682565b604080516001600160a01b03938416815292909116602083015201620001b7565b3480156200048557600080fd5b506200014b6200049736600462001419565b6200105e565b620004a7620011c5565b60008281526001602081815260408084208151808301835281546001600160a01b0390811680835292909501549094168484015281516344c7c86760e01b8152915193949093909284926344c7c86792600480830193928290030181865afa15801562000518573d6000803e3d6000fd5b505050506040513d601f19601f820116820180604052508101906200053e919062001532565b6040516324e150d360e11b81529091506001600160a01b038316906349c2a1a6906200056f908790600401620015a0565b600060405180830381600087803b1580156200058a57600080fd5b505af11580156200059f573d6000803e3d6000fd5b50505050847f7aade497c2cd4241d757f694370d0e4a250bfa251b3ab287406b2ab58d3fdad68286604051620005d7929190620015b5565b60405180910390a25050505050565b620005f0620011c5565b6000848152600160208181526040928390208351808501855281546001600160a01b039081168083529290940154909316918301919091529151637124dbe760e11b8152600481018690526024810185905260448101849052909190819063e249b7ce90606401600060405180830381600087803b1580156200067257600080fd5b505af115801562000687573d6000803e3d6000fd5b505060408051888152602081018890529081018690528892507f8ddcfc1d9950b6c2bd638293ff3274aca360e3a83ebb7ba9cf720d4c946877e791506060015b60405180910390a2505050505050565b60008181526001602081815260408084208151808301835281546001600160a01b039081168083529290950154909416928401929092528051637494b47360e11b8152905192939192839263e92968e6926004808201939182900301818387803b1580156200074557600080fd5b505af11580156200075a573d6000803e3d6000fd5b50505050505050565b6200076d620011c5565b600081815260016020818152604092839020835180850190945280546001600160a01b03908116808652919093015490921690830152620007ed5760405162461bcd60e51b8152602060048201526015602482015274496e76616c696420746f6b656e206164647265737360581b60448201526064015b60405180910390fd5b600047905081600001516001600160a01b0316633ccfd60b6040518163ffffffff1660e01b8152600401600060405180830381600087803b1580156200083257600080fd5b505af115801562000847573d6000803e3d6000fd5b50505050600081476200085b9190620015ee565b9050837f02ffa641367f5b897c0f8be81bce51f2ef055b4113d7a1e4fd082feea749bf52828560200151604051620008a69291909182526001600160a01b0316602082015260400190565b60405180910390a250505050565b620008be620011c5565b6000828152600160208181526040928390208351808501855281546001600160a01b039081168083529290940154909316918301919091529151630ef9ba4960e11b81529091908190631df37492906200091d9086906004016200139f565b600060405180830381600087803b1580156200093857600080fd5b505af11580156200094d573d6000803e3d6000fd5b5050505050505050565b6000828152600160208181526040928390208351808501855281546001600160a01b03908116808352929094015490931691830191909152915163d031370b60e01b815260048101849052909190819063d031370b9034906024016000604051808303818588803b158015620009cc57600080fd5b505af1158015620009e1573d6000803e3d6000fd5b505050505050505050565b60008281526001602081815260408084208151808301835281546001600160a01b0390811680835292909501549094169284019290925251632b319a8f60e01b8152600481018590528190632b319a8f90602401602060405180830381865afa15801562000a5e573d6000803e3d6000fd5b505050506040513d601f19601f8201168201806040525081019062000a84919062001532565b925050505b92915050565b6000838152600160208181526040928390208351808501855281546001600160a01b0390811680835292909401549093169183019190915291516364e93d7f60e11b8152600481018590528315156024820152909190819063c9d27afe90604401600060405180830381600087803b15801562000b0b57600080fd5b505af115801562000b20573d6000803e3d6000fd5b505083516040516370a0823160e01b8152600093506001600160a01b0390911691506370a082319062000b589033906004016200139f565b602060405180830381865afa15801562000b76573d6000803e3d6000fd5b505050506040513d601f19601f8201168201806040525081019062000b9c919062001532565b60408051878152336020820152861515918101919091526060810182905290915086907fcba8212abe84b02f9ea158460f9fb5f991ed6945b87767b4ffcbe6dda848cd7590608001620006c7565b62000bf4620011c5565b62000c006000620011f5565b565b6000828152600160208181526040928390208351808501855281546001600160a01b039081168083529290940154909316918301919091529151631b08392760e11b8152600481018490529091908190633610724e9034906024016000604051808303818588803b15801562000c7757600080fd5b505af115801562000c8c573d6000803e3d6000fd5b505060408051338152602081018890528894507faf357506555a8fdf38c81d9a8fa2c6bca372e817f179cf596c9645902a927aea9350019050620008a6565b600062000cd7620011c5565b6000858585857f000000000000000000000000000000000000000000000000000000000000000060405162000d0c9062001245565b62000d1c95949392919062001604565b604051809103906000f08015801562000d39573d6000803e3d6000fd5b5060405163b3ab15fb60e01b81529091506001600160a01b0382169063b3ab15fb9062000d6b9030906004016200139f565b600060405180830381600087803b15801562000d8657600080fd5b505af115801562000d9b573d6000803e3d6000fd5b5050505060016002600082825462000db4919062001655565b90915550506040805180820182526001600160a01b0380841682528581166020808401918252600280546000908152600192839052869020945185549085166001600160a01b0319918216178655925194909101805494909316939091169290921790555490517fe4c85afbede48f9150a9112b5279f9f137aad21303dca0d760254767e8b2e3219062000e4a9084906200139f565b60405180910390a295945050505050565b62000e65620011c5565b6000828152600160208181526040928390208351808501855281546001600160a01b03908116808352929094015490931691830191909152915163b921e16360e01b815260048101849052909190819063b921e16390602401600060405180830381600087803b15801562000ed957600080fd5b505af115801562000eee573d6000803e3d6000fd5b50505050837fef18524e45a9c3793f74939b40ae82cfa0160b2993a65ceee104545152736f8784604051620008a691815260200190565b600082815260016020819052604090912080549181015490916001600160a01b039081169116331462000f6a576040516282b42960e81b815260040160405180910390fd5b6001820180546001600160a01b0319166001600160a01b038581169190911790915560405163685dab8f60e01b81529082169063685dab8f9062000fb39086906004016200139f565b600060405180830381600087803b15801562000fce57600080fd5b505af115801562000fe3573d6000803e3d6000fd5b50505050837f22f521e934c9001da312648dad17f10caf3270d1f5d7b091d1a096f40239b3da84604051620008a691906200139f565b62001023620011c5565b6001600160a01b03811662001050576000604051631e4fbdf760e01b8152600401620007e491906200139f565b6200105b81620011f5565b50565b62001068620011c5565b6000828152600160208181526040928390208351808501855281546001600160a01b03908116808352929094015490931691830191909152915163159481df60e21b8152600481018490529091908190635652077c90602401600060405180830381600087803b158015620010dc57600080fd5b505af1158015620010f1573d6000803e3d6000fd5b505083516040516318feeb1560e31b8152600481018790526000935083925082916001600160a01b03169063c7f758a890602401600060405180830381865afa15801562001143573d6000803e3d6000fd5b505050506040513d6000823e601f3d908101601f191682016040526200116d91908101906200166b565b93509350935050867fb1a545a19aebaf09784addd3ddfe6d1b2581c20c6b7563acafc2cccb455e2d5f878486118015620011a45750835b6040805192835290151560208301520160405180910390a250505050505050565b6000546001600160a01b0316331462000c00573360405163118cdaa760e01b8152600401620007e491906200139f565b600080546001600160a01b038381166001600160a01b0319831681178455604051919092169283917f8be0079c531659141344cd1fd0a4f28419497f9722a3daafe3b4186f6b6457e09190a35050565b612c05806200171583390190565b634e487b7160e01b600052604160045260246000fd5b604051601f8201601f191681016001600160401b038111828210171562001294576200129462001253565b604052919050565b60006001600160401b03821115620012b857620012b862001253565b50601f01601f191660200190565b600082601f830112620012d857600080fd5b8135620012ef620012e9826200129c565b62001269565b8181528460208386010111156200130557600080fd5b816020850160208301376000918101602001919091529392505050565b600080604083850312156200133657600080fd5b8235915060208301356001600160401b038111156200135457600080fd5b6200136285828601620012c6565b9150509250929050565b600080600080608085870312156200138357600080fd5b5050823594602084013594506040840135936060013592509050565b6001600160a01b0391909116815260200190565b600060208284031215620013c657600080fd5b5035919050565b80356001600160a01b0381168114620013e557600080fd5b919050565b60008060408385031215620013fe57600080fd5b823591506200141060208401620013cd565b90509250929050565b600080604083850312156200142d57600080fd5b50508035926020909101359150565b80151581146200105b57600080fd5b6000806000606084860312156200146157600080fd5b833592506020840135915060408401356200147c816200143c565b809150509250925092565b600080600080608085870312156200149e57600080fd5b84356001600160401b0380821115620014b657600080fd5b620014c488838901620012c6565b95506020870135915080821115620014db57600080fd5b50620014ea87828801620012c6565b935050604085013591506200150260608601620013cd565b905092959194509250565b6000602082840312156200152057600080fd5b6200152b82620013cd565b9392505050565b6000602082840312156200154557600080fd5b5051919050565b60005b83811015620015695781810151838201526020016200154f565b50506000910152565b600081518084526200158c8160208601602086016200154c565b601f01601f19169290920160200192915050565b6020815260006200152b602083018462001572565b828152604060208201526000620015d0604083018462001572565b949350505050565b634e487b7160e01b600052601160045260246000fd5b8181038181111562000a895762000a89620015d8565b60a0815260006200161960a083018862001572565b82810360208401526200162d818862001572565b604084019690965250506001600160a01b039283166060820152911660809091015292915050565b8082018082111562000a895762000a89620015d8565b600080600080608085870312156200168257600080fd5b84516001600160401b038111156200169957600080fd5b8501601f81018713620016ab57600080fd5b8051620016bc620012e9826200129c565b818152886020838501011115620016d257600080fd5b620016e58260208301602086016200154c565b8096505050506020850151925060408501519150606085015162001709816200143c565b93969295509093505056fe60806040526007805460ff60a01b1916600160a01b1790553480156200002457600080fd5b5060405162002c0538038062002c05833981016040819052620000479162000669565b338585600362000058838262000790565b50600462000067828262000790565b5050506001600160a01b0381166200009a57604051631e4fbdf760e01b8152600060048201526024015b60405180910390fd5b620000a581620001c5565b506001600160a01b038216620000fe5760405162461bcd60e51b815260206004820152601660248201527f496e76616c69642073656c6c6572206164647265737300000000000000000000604482015260640162000091565b6001600160a01b038116620001565760405162461bcd60e51b815260206004820152601660248201527f496e76616c6964207768696d7379206164647265737300000000000000000000604482015260640162000091565b600680546001600160a01b0319166001600160a01b038416179055600060646200018285600362000872565b6200018e919062000892565b905060006200019e8286620008b5565b9050620001ac848262000217565b620001b8838362000217565b50505050505050620008e1565b600580546001600160a01b038381166001600160a01b0319831681179093556040519116919082907f8be0079c531659141344cd1fd0a4f28419497f9722a3daafe3b4186f6b6457e090600090a35050565b6001600160a01b038216620002435760405163ec442f0560e01b81526000600482015260240162000091565b620002516000838362000255565b5050565b6200026283838362000274565b6200026f83838362000454565b505050565b6001600160a01b03831615806200029257506001600160a01b038216155b156200029d57505050565b600754600160a01b900460ff16620002f85760405162461bcd60e51b815260206004820152601660248201527f5472616e7366657273206172652064697361626c656400000000000000000000604482015260640162000091565b6006546001600160a01b03908116908416036200039b576006546001600160a01b031660009081526020819052604081205462000337908390620008b5565b9050600a54811015620003995760405162461bcd60e51b8152602060048201526024808201527f53656c6c6572206d7573742072657461696e206d696e696d756d206f776e65726044820152630736869760e41b606482015260840162000091565b505b6006546001600160a01b038381169116146200026f576064600f620003bf60025490565b620003cb919062000872565b620003d7919062000892565b81620003f8846001600160a01b031660009081526020819052604090205490565b620004049190620008cb565b11156200026f5760405162461bcd60e51b815260206004820152601960248201527f526563697069656e742065786365656473203135252063617000000000000000604482015260640162000091565b6001600160a01b03831662000483578060026000828254620004779190620008cb565b90915550620004f79050565b6001600160a01b03831660009081526020819052604090205481811015620004d85760405163391434e360e21b81526001600160a01b0385166004820152602481018290526044810183905260640162000091565b6001600160a01b03841660009081526020819052604090209082900390555b6001600160a01b038216620005155760028054829003905562000534565b6001600160a01b03821660009081526020819052604090208054820190555b816001600160a01b0316836001600160a01b03167fddf252ad1be2c89b69c2b068fc378daa952ba7f163c4a11628f55a4df523b3ef836040516200057a91815260200190565b60405180910390a3505050565b634e487b7160e01b600052604160045260246000fd5b600082601f830112620005af57600080fd5b81516001600160401b0380821115620005cc57620005cc62000587565b604051601f8301601f19908116603f01168101908282118183101715620005f757620005f762000587565b816040528381526020925086838588010111156200061457600080fd5b600091505b8382101562000638578582018301518183018401529082019062000619565b600093810190920192909252949350505050565b80516001600160a01b03811681146200066457600080fd5b919050565b600080600080600060a086880312156200068257600080fd5b85516001600160401b03808211156200069a57600080fd5b620006a889838a016200059d565b96506020880151915080821115620006bf57600080fd5b50620006ce888289016200059d565b94505060408601519250620006e6606087016200064c565b9150620006f6608087016200064c565b90509295509295909350565b600181811c908216806200071757607f821691505b6020821081036200073857634e487b7160e01b600052602260045260246000fd5b50919050565b601f8211156200026f57600081815260208120601f850160051c81016020861015620007675750805b601f850160051c820191505b81811015620007885782815560010162000773565b505050505050565b81516001600160401b03811115620007ac57620007ac62000587565b620007c481620007bd845462000702565b846200073e565b602080601f831160018114620007fc5760008415620007e35750858301515b600019600386901b1c1916600185901b17855562000788565b600085815260208120601f198616915b828110156200082d578886015182559484019460019091019084016200080c565b50858210156200084c5787850151600019600388901b60f8161c191681555b5050505050600190811b01905550565b634e487b7160e01b600052601160045260246000fd5b80820281158282048414176200088c576200088c6200085c565b92915050565b600082620008b057634e487b7160e01b600052601260045260246000fd5b500490565b818103818111156200088c576200088c6200085c565b808201808211156200088c576200088c6200085c565b61231480620008f16000396000f3fe6080604052600436106101e75760003560e01c806370a0823111610108578063bef97c8711610098578063bef97c8714610581578063c5c4744c146105a2578063c7f758a8146105b8578063c9d27afe146105e8578063d031370b14610608578063d5cf7cfe1461061b578063dd62ed3e14610630578063e249b7ce14610650578063e92968e614610670578063f2fde38b1461068557005b806370a0823114610466578063715018a6146104865780637d6c8c001461049b5780637ff9b596146104cb5780638da5cb5b146104e157806395d89b41146104f6578063a9059cbb1461050b578063b3ab15fb1461052b578063b921e1631461054b578063bb979d621461056b57005b8063313ce56711610183578063313ce567146103245780633610724e146103405780633ccfd60b1461035357806344c7c86714610368578063490deb3d1461037d57806349c2a1a6146103c65780635652077c146103e6578063570ca735146104065780636850415814610426578063685dab8f1461044657005b8062267f9a146101f057806306fdde031461021a57806308551a531461023c578063095ea7b31461026957806312aef8c31461029957806318160ddd146102af5780631df37492146102c457806323b872dd146102e45780632b319a8f1461030457005b366101ee57005b005b3480156101fc57600080fd5b506102076206978081565b6040519081526020015b60405180910390f35b34801561022657600080fd5b5061022f6106a5565b6040516102119190611dd2565b34801561024857600080fd5b5060065461025c906001600160a01b031681565b6040516102119190611dec565b34801561027557600080fd5b50610289610284366004611e1c565b610737565b6040519015158152602001610211565b3480156102a557600080fd5b5061020760095481565b3480156102bb57600080fd5b50600254610207565b3480156102d057600080fd5b506101ee6102df366004611e46565b610751565b3480156102f057600080fd5b506102896102ff366004611e61565b6109aa565b34801561031057600080fd5b5061020761031f366004611e9d565b6109ce565b34801561033057600080fd5b5060405160128152602001610211565b6101ee61034e366004611e9d565b6109de565b34801561035f57600080fd5b506101ee610c60565b34801561037457600080fd5b50600e54610207565b34801561038957600080fd5b506103b1610398366004611e46565b600d602052600090815260409020805460019091015482565b60408051928352602083019190915201610211565b3480156103d257600080fd5b506101ee6103e1366004611ecc565b610def565b3480156103f257600080fd5b506101ee610401366004611e9d565b610ea4565b34801561041257600080fd5b5060075461025c906001600160a01b031681565b34801561043257600080fd5b506101ee610441366004611f8d565b610f8f565b34801561045257600080fd5b506101ee610461366004611e46565b610fef565b34801561047257600080fd5b50610207610481366004611e46565b6110a8565b34801561049257600080fd5b506101ee6110c3565b3480156104a757600080fd5b506102896104b6366004611e46565b600c6020526000908152604090205460ff1681565b3480156104d757600080fd5b5061020760085481565b3480156104ed57600080fd5b5061025c6110d7565b34801561050257600080fd5b5061022f6110e6565b34801561051757600080fd5b50610289610526366004611e1c565b6110f5565b34801561053757600080fd5b506101ee610546366004611e46565b611103565b34801561055757600080fd5b506101ee610566366004611e9d565b6111b8565b34801561057757600080fd5b50610207600a5481565b34801561058d57600080fd5b5060075461028990600160a01b900460ff1681565b3480156105ae57600080fd5b50610207600b5481565b3480156105c457600080fd5b506105d86105d3366004611e9d565b611228565b6040516102119493929190611fa8565b3480156105f457600080fd5b506101ee610603366004611fd9565b61130f565b6101ee610616366004611e9d565b6114c7565b34801561062757600080fd5b50610207600f81565b34801561063c57600080fd5b5061020761064b366004612005565b611595565b34801561065c57600080fd5b506101ee61066b36600461202f565b6115c0565b34801561067c57600080fd5b506101ee6117de565b34801561069157600080fd5b506101ee6106a0366004611e46565b611820565b6060600380546106b49061205b565b80601f01602080910402602001604051908101604052809291908181526020018280546106e09061205b565b801561072d5780601f106107025761010080835404028352916020019161072d565b820191906000526020600020905b81548152906001019060200180831161071057829003601f168201915b5050505050905090565b60003361074581858561185e565b60019150505b92915050565b6007546001600160a01b031633146107845760405162461bcd60e51b815260040161077b90612095565b60405180910390fd5b6001600160a01b0381166000908152600d602090815260409182902082518084019093528054808452600190910154918301919091526107f75760405162461bcd60e51b815260206004820152600e60248201526d2737903932b9b2b93b30ba34b7b760911b604482015260640161077b565b6001600160a01b0382166000908152600c602052604090205460ff16156108575760405162461bcd60e51b8152602060048201526014602482015273109d5e595c88185b1c9958591e481859dc99595960621b604482015260640161077b565b62069780816020015161086a91906120e2565b4210156108af5760405162461bcd60e51b8152602060048201526013602482015272151a5b595bdd5d081b9bdd081c995858da1959606a1b604482015260640161077b565b6001600160a01b0382166000818152600d6020526040812081815560010181905560085483519192916108e291906120f5565b604051600081818185875af1925050503d806000811461091e576040519150601f19603f3d011682016040523d82523d6000602084013e610923565b606091505b50509050806109645760405162461bcd60e51b815260206004820152600d60248201526c1499599d5b990819985a5b1959609a1b604482015260640161077b565b81516040519081526001600160a01b038416907fa171b6942063c6f2800ce40a780edce37baa2b618571b11eedd1e69e626e7d76906020015b60405180910390a2505050565b6000336109b8858285611870565b6109c38585856118c4565b506001949350505050565b6000600b548261074b91906120e2565b336000908152600c602052604090205460ff16610a3d5760405162461bcd60e51b815260206004820152601e60248201527f4d75737420616772656520746f20646973636c61696d65722066697273740000604482015260640161077b565b60008111610a5d5760405162461bcd60e51b815260040161077b9061210c565b600954811115610aac5760405162461bcd60e51b815260206004820152601a6024820152794e6f7420656e6f75676820746f6b656e7320666f722073616c6560301b604482015260640161077b565b600854610ab990826120f5565b3414610ad75760405162461bcd60e51b815260040161077b90612138565b6064600f610ae460025490565b610aee91906120f5565b610af89190612164565b81610b02336110a8565b610b0c91906120e2565b1115610b525760405162461bcd60e51b8152602060048201526015602482015274042757965722065786365656473203135252063617605c1b604482015260640161077b565b600a546006548290610b6c906001600160a01b03166110a8565b610b769190612186565b1015610bc45760405162461bcd60e51b815260206004820152601c60248201527f53656c6c657220776f756c6420676f2062656c6f772074617267657400000000604482015260640161077b565b8060096000828254610bd69190612186565b9250508190555034600b6000828254610bef91906120e2565b9091555050600654610c0b906001600160a01b031633836118c4565b336000818152600d602052604080822082815560010191909155517f8f28852646c20cc973d3a8218f7eefed58c25c909f78f0265af4818c3d4dc27190610c559084815260200190565b60405180910390a250565b610c686110d7565b6001600160a01b0316336001600160a01b03161480610c9157506007546001600160a01b031633145b610cce5760405162461bcd60e51b815260206004820152600e60248201526d139bdd08185d5d1a1bdc9a5e995960921b604482015260640161077b565b4780610d115760405162461bcd60e51b81526020600482015260126024820152714e6f2045544820746f20776974686472617760701b604482015260640161077b565b6006546040516000916001600160a01b03169083908381818185875af1925050503d8060008114610d5e576040519150601f19603f3d011682016040523d82523d6000602084013e610d63565b606091505b5050905080610da65760405162461bcd60e51b815260206004820152600f60248201526e15da5d1a191c985dc819985a5b1959608a1b604482015260640161077b565b600654604080518481526001600160a01b0390921660208301527f8c7cdad0d12a8db3e23561b42da6f10c8137914c97beff202213a410e1f520a3910160405180910390a15050565b6007546001600160a01b03163314610e195760405162461bcd60e51b815260040161077b90612095565b600e80546001810182556000919091526005027fbb7b4a454dc3493923482f07822329ed19e8244eff582cc204f8554c3620c3fd0180610e5983826121e7565b50600e54610e6990600190612186565b7f9c770c289ab5bf7e57cb1d23c8ceae993aea46eb64847072fd3d78ca60d3e43283604051610e989190611dd2565b60405180910390a25050565b6007546001600160a01b03163314610ece5760405162461bcd60e51b815260040161077b90612095565b6000600e8281548110610ee357610ee36122a7565b60009182526020909120600590910201600381015490915060ff1615610f3f5760405162461bcd60e51b8152602060048201526011602482015270105b1c9958591e48199a5b985b1a5e9959607a1b604482015260640161077b565b60038101805460ff1916600190811790915560028201549082015460405191108082529083907fb5ac567fcf1b069e0235e4f16734625c6cf54c1b40517fd9eb85517f6e1265a79060200161099d565b610f97611923565b60078054821515600160a01b0260ff60a01b199091161790556040517fe1965432af4c9923f6ebb98f1721262967cfa6178008742d23041dc8ee74ee8f90610fe490831515815260200190565b60405180910390a150565b610ff7611923565b6001600160a01b03811661103f5760405162461bcd60e51b815260206004820152600f60248201526e496e76616c6964206164647265737360881b604482015260640161077b565b600654604080516001600160a01b03928316815291831660208301527fd08dbba23a735d81eaf53ac5ede2c722bb186e9d3d46b62842853f0d017c2212910160405180910390a1600680546001600160a01b0319166001600160a01b0392909216919091179055565b6001600160a01b031660009081526020819052604090205490565b6110cb611923565b6110d56000611955565b565b6005546001600160a01b031690565b6060600480546106b49061205b565b6000336107458185856118c4565b61110b611923565b6001600160a01b03811661115c5760405162461bcd60e51b8152602060048201526018602482015277496e76616c6964206f70657261746f72206164647265737360401b604482015260640161077b565b6007546040516001600160a01b038084169216907ffbe5b6cbafb274f445d7fed869dc77a838d8243a22c460de156560e8857cad0390600090a3600780546001600160a01b0319166001600160a01b0392909216919091179055565b6007546001600160a01b031633146111e25760405162461bcd60e51b815260040161077b90612095565b6006546111f8906001600160a01b0316826119a7565b6040518181527f359675c23a13743cf846e03b084a0b1fd129ffa3404dbdd936effd23fb97aa9d90602001610fe4565b6060600080600080600e8681548110611243576112436122a7565b9060005260206000209060050201905080600001816001015482600201548360030160009054906101000a900460ff1683805461127f9061205b565b80601f01602080910402602001604051908101604052809291908181526020018280546112ab9061205b565b80156112f85780601f106112cd576101008083540402835291602001916112f8565b820191906000526020600020905b8154815290600101906020018083116112db57829003601f168201915b505050505093509450945094509450509193509193565b6000600e8381548110611324576113246122a7565b60009182526020909120600590910201600381015490915060ff16156113815760405162461bcd60e51b8152602060048201526012602482015271141c9bdc1bdcd85b08199a5b985b1a5e995960721b604482015260640161077b565b33600090815260048201602052604090205460ff16156113d35760405162461bcd60e51b815260206004820152600d60248201526c105b1c9958591e481d9bdd1959609a1b604482015260640161077b565b60006113de336110a8565b9050600081116114225760405162461bcd60e51b815260206004820152600f60248201526e2737903b37ba34b733903837bbb2b960891b604482015260640161077b565b8215611447578082600101600082825461143c91906120e2565b909155506114619050565b8082600201600082825461145b91906120e2565b90915550505b336000818152600484016020908152604091829020805460ff19166001179055815192835285151590830152810182905284907f7c2de587c00d75474a0c6c6fa96fd3b45dc974cd4e8a75f712bb84c950dce1b59060600160405180910390a250505050565b600081116114e75760405162461bcd60e51b815260040161077b9061210c565b336000908152600d6020526040902054156115395760405162461bcd60e51b81526020600482015260126024820152715265736572766174696f6e2065786973747360701b604482015260640161077b565b60085461154690826120f5565b34146115645760405162461bcd60e51b815260040161077b90612138565b604080518082018252918252426020808401918252336000908152600d909152919091209151825551600190910155565b6001600160a01b03918216600090815260016020908152604080832093909416825291909152205490565b6007546001600160a01b031633146115ea5760405162461bcd60e51b815260040161077b90612095565b60006115f560025490565b9050606461160482600a6120f5565b61160e9190612164565b82101561164c5760405162461bcd60e51b815260206004820152600c60248201526b546172676574203c2031302560a01b604482015260640161077b565b606461165982601e6120f5565b6116639190612164565b8211156116a15760405162461bcd60e51b815260206004820152600c60248201526b546172676574203e2033302560a01b604482015260640161077b565b60065484906116b8906001600160a01b03166110a8565b10156116fb5760405162461bcd60e51b815260206004820152601260248201527153656c6c65722062616c616e6365206c6f7760701b604482015260640161077b565b60065482908590611714906001600160a01b03166110a8565b61171e9190612186565b146117885760405162461bcd60e51b815260206004820152603460248201527f746f6b656e73466f7253616c65206d75737420657175616c2073656c6c65722060448201527318985b185b98d9481b5a5b9d5cc81d185c99d95d60621b606482015260840161077b565b60088390556009849055600a82905560408051858152602081018590529081018390527f4d012a69148885509f5eb0377244099c968f990db1f853707b9d8e3fea20f7b99060600160405180910390a150505050565b336000818152600c6020526040808220805460ff19166001179055517fec25952115d724de7fec274999c9cbe0cff9898f9f5128eaa42bd599138462a19190a2565b611828611923565b6001600160a01b038116611852576000604051631e4fbdf760e01b815260040161077b9190611dec565b61185b81611955565b50565b61186b83838360016119e1565b505050565b600061187c8484611595565b90506000198110156118be57818110156118af57828183604051637dc7a0d960e11b815260040161077b939291906122bd565b6118be848484840360006119e1565b50505050565b6001600160a01b0383166118ee576000604051634b637e8f60e11b815260040161077b9190611dec565b6001600160a01b03821661191857600060405163ec442f0560e01b815260040161077b9190611dec565b61186b838383611ab6565b3361192c6110d7565b6001600160a01b0316146110d5573360405163118cdaa760e01b815260040161077b9190611dec565b600580546001600160a01b038381166001600160a01b0319831681179093556040519116919082907f8be0079c531659141344cd1fd0a4f28419497f9722a3daafe3b4186f6b6457e090600090a35050565b6001600160a01b0382166119d157600060405163ec442f0560e01b815260040161077b9190611dec565b6119dd60008383611ab6565b5050565b6001600160a01b038416611a0b57600060405163e602df0560e01b815260040161077b9190611dec565b6001600160a01b038316611a35576000604051634a1406b160e11b815260040161077b9190611dec565b6001600160a01b03808516600090815260016020908152604080832093871683529290522082905580156118be57826001600160a01b0316846001600160a01b03167f8c5be1e5ebec7d5bd14f71427d1e84f3dd0314c0f7b2291e5b200ac8c7c3b92584604051611aa891815260200190565b60405180910390a350505050565b611ac1838383611acc565b61186b838383611c75565b6001600160a01b0383161580611ae957506001600160a01b038216155b15611af357505050565b600754600160a01b900460ff16611b455760405162461bcd60e51b8152602060048201526016602482015275151c985b9cd9995c9cc8185c9948191a5cd8589b195960521b604482015260640161077b565b6006546001600160a01b0390811690841603611be1576006546000908290611b75906001600160a01b03166110a8565b611b7f9190612186565b9050600a54811015611bdf5760405162461bcd60e51b8152602060048201526024808201527f53656c6c6572206d7573742072657461696e206d696e696d756d206f776e65726044820152630736869760e41b606482015260840161077b565b505b6006546001600160a01b0383811691161461186b576064600f611c0360025490565b611c0d91906120f5565b611c179190612164565b81611c21846110a8565b611c2b91906120e2565b111561186b5760405162461bcd60e51b81526020600482015260196024820152780526563697069656e742065786365656473203135252063617603c1b604482015260640161077b565b6001600160a01b038316611ca0578060026000828254611c9591906120e2565b90915550611cff9050565b6001600160a01b03831660009081526020819052604090205481811015611ce05783818360405163391434e360e21b815260040161077b939291906122bd565b6001600160a01b03841660009081526020819052604090209082900390555b6001600160a01b038216611d1b57600280548290039055611d3a565b6001600160a01b03821660009081526020819052604090208054820190555b816001600160a01b0316836001600160a01b03167fddf252ad1be2c89b69c2b068fc378daa952ba7f163c4a11628f55a4df523b3ef83604051611d7f91815260200190565b60405180910390a3505050565b6000815180845260005b81811015611db257602081850181015186830182015201611d96565b506000602082860101526020601f19601f83011685010191505092915050565b602081526000611de56020830184611d8c565b9392505050565b6001600160a01b0391909116815260200190565b80356001600160a01b0381168114611e1757600080fd5b919050565b60008060408385031215611e2f57600080fd5b611e3883611e00565b946020939093013593505050565b600060208284031215611e5857600080fd5b611de582611e00565b600080600060608486031215611e7657600080fd5b611e7f84611e00565b9250611e8d60208501611e00565b9150604084013590509250925092565b600060208284031215611eaf57600080fd5b5035919050565b634e487b7160e01b600052604160045260246000fd5b600060208284031215611ede57600080fd5b813567ffffffffffffffff80821115611ef657600080fd5b818401915084601f830112611f0a57600080fd5b813581811115611f1c57611f1c611eb6565b604051601f8201601f19908116603f01168101908382118183101715611f4457611f44611eb6565b81604052828152876020848701011115611f5d57600080fd5b826020860160208301376000928101602001929092525095945050505050565b80358015158114611e1757600080fd5b600060208284031215611f9f57600080fd5b611de582611f7d565b608081526000611fbb6080830187611d8c565b60208301959095525060408101929092521515606090910152919050565b60008060408385031215611fec57600080fd5b82359150611ffc60208401611f7d565b90509250929050565b6000806040838503121561201857600080fd5b61202183611e00565b9150611ffc60208401611e00565b60008060006060848603121561204457600080fd5b505081359360208301359350604090920135919050565b600181811c9082168061206f57607f821691505b60208210810361208f57634e487b7160e01b600052602260045260246000fd5b50919050565b6020808252601d908201527f4e6f7420617574686f72697a65643a206f70657261746f72206f6e6c79000000604082015260600190565b634e487b7160e01b600052601160045260246000fd5b8082018082111561074b5761074b6120cc565b808202811582820484141761074b5761074b6120cc565b6020808252601290820152710416d6f756e74206d757374206265203e20360741b604082015260600190565b602080825260129082015271125b98dbdc9c9958dd08115512081cd95b9d60721b604082015260600190565b60008261218157634e487b7160e01b600052601260045260246000fd5b500490565b8181038181111561074b5761074b6120cc565b601f82111561186b57600081815260208120601f850160051c810160208610156121c05750805b601f850160051c820191505b818110156121df578281556001016121cc565b505050505050565b815167ffffffffffffffff81111561220157612201611eb6565b6122158161220f845461205b565b84612199565b602080601f83116001811461224a57600084156122325750858301515b600019600386901b1c1916600185901b1785556121df565b600085815260208120601f198616915b828110156122795788860151825594840194600190910190840161225a565b50858210156122975787850151600019600388901b60f8161c191681555b5050505050600190811b01905550565b634e487b7160e01b600052603260045260246000fd5b6001600160a01b03939093168352602083019190915260408201526060019056fea2646970667358221220fd3d3d73545c07d0b46a6348790923831579a78e56e67066bf38a384b9cc8cb964736f6c63430008140033a2646970667358221220f30f6faa1c96049f0eaf73ed17eb395ad57791e09a5c1a23fb0dda4e1eb2719b64736f6c63430008140033",
  "linkReferences": {},
  "deployedLinkReferences": {}
}