{
  "_format": "hh-sol-artifact-1",
  "contractName": "TokenOperator",
  "sourceName": "contracts/TokenOperator.sol",
  "abi": [
    {
      "inputs": [
        {
          "internalType": "contract PropertyToken",
          "name": "_tokenContract",
          "type": "address"
        }
      ],
      "stateMutability": "nonpayable",
      "type": "constructor"
    },
    {
      "inputs": [
        {
          "internalType": "address",
          "name": "owner",
          "type": "address"
        }
      ],
      "name": "OwnableInvalidOwner",
      "type": "error"
    },
    {
      "inputs": [
        {
          "internalType": "address",
          "name": "account",
          "type": "address"
        }
      ],
      "name": "OwnableUnauthorizedAccount",
      "type": "error"
    },
    {
      "anonymous": false,
      "inputs": [
        {
          "indexed": true,
          "internalType": "address",
          "name": "previousOwner",
          "type": "address"
        },
        {
          "indexed": true,
          "internalType": "address",
          "name": "newOwner",
          "type": "address"
        }
      ],
      "name": "OwnershipTransferred",
      "type": "event"
    },
    {
      "anonymous": false,
      "inputs": [
        {
          "indexed": false,
          "internalType": "uint256",
          "name": "tokensForSale",
          "type": "uint256"
        },
        {
          "indexed": false,
          "internalType": "uint256",
          "name": "tokenPrice",
          "type": "uint256"
        },
        {
          "indexed": false,
          "internalType": "uint256",
          "name": "targetSellerOwnership",
          "type": "uint256"
        }
      ],
      "name": "SaleParametersSet",
      "type": "event"
    },
    {
      "anonymous": false,
      "inputs": [
        {
          "indexed": false,
          "internalType": "uint256",
          "name": "additionalTokens",
          "type": "uint256"
        }
      ],
      "name": "SupplyIncreased",
      "type": "event"
    },
    {
      "inputs": [
        {
          "internalType": "uint256",
          "name": "additionalTokens",
          "type": "uint256"
        }
      ],
      "name": "increaseSupply",
      "outputs": [],
      "stateMutability": "nonpayable",
      "type": "function"
    },
    {
      "inputs": [],
      "name": "owner",
      "outputs": [
        {
          "internalType": "address",
          "name": "",
          "type": "address"
        }
      ],
      "stateMutability": "view",
      "type": "function"
    },
    {
      "inputs": [],
      "name": "renounceOwnership",
      "outputs": [],
      "stateMutability": "nonpayable",
      "type": "function"
    },
    {
      "inputs": [
        {
          "internalType": "uint256",
          "name": "tokensForSale",
          "type": "uint256"
        },
        {
          "internalType": "uint256",
          "name": "tokenPrice",
          "type": "uint256"
        },
        {
          "internalType": "uint256",
          "name": "targetSellerOwnership",
          "type": "uint256"
        }
      ],
      "name": "setSaleParameters",
      "outputs": [],
      "stateMutability": "nonpayable",
      "type": "function"
    },
    {
      "inputs": [
        {
          "internalType": "bool",
          "name": "enabled",
          "type": "bool"
        }
      ],
      "name": "toggleTransfers",
      "outputs": [],
      "stateMutability": "nonpayable",
      "type": "function"
    },
    {
      "inputs": [],
      "name": "tokenContract",
      "outputs": [
        {
          "internalType": "contract PropertyToken",
          "name": "",
          "type": "address"
        }
      ],
      "stateMutability": "view",
      "type": "function"
    },
    {
      "inputs": [
        {
          "internalType": "address",
          "name": "newOwner",
          "type": "address"
        }
      ],
      "name": "transferOwnership",
      "outputs": [],
      "stateMutability": "nonpayable",
      "type": "function"
    }
  ],
  "bytecode": "0x608060405234801561001057600080fd5b50604051610b5f380380610b5f83398181016040528101906100329190610235565b33600073ffffffffffffffffffffffffffffffffffffffff168173ffffffffffffffffffffffffffffffffffffffff16036100a55760006040517f1e4fbdf700000000000000000000000000000000000000000000000000000000815260040161009c9190610271565b60405180910390fd5b6100b4816100fc60201b60201c565b5080600160006101000a81548173ffffffffffffffffffffffffffffffffffffffff021916908373ffffffffffffffffffffffffffffffffffffffff1602179055505061028c565b60008060009054906101000a900473ffffffffffffffffffffffffffffffffffffffff169050816000806101000a81548173ffffffffffffffffffffffffffffffffffffffff021916908373ffffffffffffffffffffffffffffffffffffffff1602179055508173ffffffffffffffffffffffffffffffffffffffff168173ffffffffffffffffffffffffffffffffffffffff167f8be0079c531659141344cd1fd0a4f28419497f9722a3daafe3b4186f6b6457e060405160405180910390a35050565b600080fd5b600073ffffffffffffffffffffffffffffffffffffffff82169050919050565b60006101f0826101c5565b9050919050565b6000610202826101e5565b9050919050565b610212816101f7565b811461021d57600080fd5b50565b60008151905061022f81610209565b92915050565b60006020828403121561024b5761024a6101c0565b5b600061025984828501610220565b91505092915050565b61026b816101e5565b82525050565b60006020820190506102866000830184610262565b92915050565b6108c48061029b6000396000f3fe608060405234801561001057600080fd5b506004361061007d5760003560e01c80638da5cb5b1161005b5780638da5cb5b146100c6578063b921e163146100e4578063e249b7ce14610100578063f2fde38b1461011c5761007d565b806355a373d61461008257806368504158146100a0578063715018a6146100bc575b600080fd5b61008a610138565b6040516100979190610633565b60405180910390f35b6100ba60048036038101906100b5919061068b565b61015e565b005b6100c46101f6565b005b6100ce61020a565b6040516100db91906106d9565b60405180910390f35b6100fe60048036038101906100f9919061072a565b610233565b005b61011a60048036038101906101159190610757565b610302565b005b610136600480360381019061013191906107d6565b6103db565b005b600160009054906101000a900473ffffffffffffffffffffffffffffffffffffffff1681565b610166610461565b600160009054906101000a900473ffffffffffffffffffffffffffffffffffffffff1673ffffffffffffffffffffffffffffffffffffffff166368504158826040518263ffffffff1660e01b81526004016101c19190610812565b600060405180830381600087803b1580156101db57600080fd5b505af11580156101ef573d6000803e3d6000fd5b5050505050565b6101fe610461565b61020860006104e8565b565b60008060009054906101000a900473ffffffffffffffffffffffffffffffffffffffff16905090565b61023b610461565b600160009054906101000a900473ffffffffffffffffffffffffffffffffffffffff1673ffffffffffffffffffffffffffffffffffffffff1663b921e163826040518263ffffffff1660e01b8152600401610296919061083c565b600060405180830381600087803b1580156102b057600080fd5b505af11580156102c4573d6000803e3d6000fd5b505050507f359675c23a13743cf846e03b084a0b1fd129ffa3404dbdd936effd23fb97aa9d816040516102f7919061083c565b60405180910390a150565b61030a610461565b600160009054906101000a900473ffffffffffffffffffffffffffffffffffffffff1673ffffffffffffffffffffffffffffffffffffffff1663e249b7ce8484846040518463ffffffff1660e01b815260040161036993929190610857565b600060405180830381600087803b15801561038357600080fd5b505af1158015610397573d6000803e3d6000fd5b505050507f2eeb09a1e8eb79016fadf65707e7d67f9b07ddbca630d5e00c77c1963e11f2fd8383836040516103ce93929190610857565b60405180910390a1505050565b6103e3610461565b600073ffffffffffffffffffffffffffffffffffffffff168173ffffffffffffffffffffffffffffffffffffffff16036104555760006040517f1e4fbdf700000000000000000000000000000000000000000000000000000000815260040161044c91906106d9565b60405180910390fd5b61045e816104e8565b50565b6104696105ac565b73ffffffffffffffffffffffffffffffffffffffff1661048761020a565b73ffffffffffffffffffffffffffffffffffffffff16146104e6576104aa6105ac565b6040517f118cdaa70000000000000000000000000000000000000000000000000000000081526004016104dd91906106d9565b60405180910390fd5b565b60008060009054906101000a900473ffffffffffffffffffffffffffffffffffffffff169050816000806101000a81548173ffffffffffffffffffffffffffffffffffffffff021916908373ffffffffffffffffffffffffffffffffffffffff1602179055508173ffffffffffffffffffffffffffffffffffffffff168173ffffffffffffffffffffffffffffffffffffffff167f8be0079c531659141344cd1fd0a4f28419497f9722a3daafe3b4186f6b6457e060405160405180910390a35050565b600033905090565b600073ffffffffffffffffffffffffffffffffffffffff82169050919050565b6000819050919050565b60006105f96105f46105ef846105b4565b6105d4565b6105b4565b9050919050565b600061060b826105de565b9050919050565b600061061d82610600565b9050919050565b61062d81610612565b82525050565b60006020820190506106486000830184610624565b92915050565b600080fd5b60008115159050919050565b61066881610653565b811461067357600080fd5b50565b6000813590506106858161065f565b92915050565b6000602082840312156106a1576106a061064e565b5b60006106af84828501610676565b91505092915050565b60006106c3826105b4565b9050919050565b6106d3816106b8565b82525050565b60006020820190506106ee60008301846106ca565b92915050565b6000819050919050565b610707816106f4565b811461071257600080fd5b50565b600081359050610724816106fe565b92915050565b6000602082840312156107405761073f61064e565b5b600061074e84828501610715565b91505092915050565b6000806000606084860312156107705761076f61064e565b5b600061077e86828701610715565b935050602061078f86828701610715565b92505060406107a086828701610715565b9150509250925092565b6107b3816106b8565b81146107be57600080fd5b50565b6000813590506107d0816107aa565b92915050565b6000602082840312156107ec576107eb61064e565b5b60006107fa848285016107c1565b91505092915050565b61080c81610653565b82525050565b60006020820190506108276000830184610803565b92915050565b610836816106f4565b82525050565b6000602082019050610851600083018461082d565b92915050565b600060608201905061086c600083018661082d565b610879602083018561082d565b610886604083018461082d565b94935050505056fea2646970667358221220e8c398f787f73a48e4b8adf5b321bbc852f608cd14baec8c258990c63c12756e64736f6c63430008140033",
  "linkReferences": {},
  "deployedLinkReferences": {}
}