{
  "_format": "hh-sol-artifact-1",
  "contractName": "PropertyToken",
  "sourceName": "contracts/PropertyToken.sol",
  "abi": [
    {
      "inputs": [
        {
          "internalType": "string",
          "name": "name_",
          "type": "string"
        },
        {
          "internalType": "string",
          "name": "symbol_",
          "type": "string"
        },
        {
          "internalType": "uint256",
          "name": "initialSupply_",
          "type": "uint256"
        },
        {
          "internalType": "address",
          "name": "seller_",
          "type": "address"
        },
        {
          "internalType": "address",
          "name": "whimsyAddress",
          "type": "address"
        }
      ],
      "stateMutability": "nonpayable",
      "type": "constructor"
    },
    {
      "inputs": [
        {
          "internalType": "address",
          "name": "spender",
          "type": "address"
        },
        {
          "internalType": "uint256",
          "name": "allowance",
          "type": "uint256"
        },
        {
          "internalType": "uint256",
          "name": "needed",
          "type": "uint256"
        }
      ],
      "name": "ERC20InsufficientAllowance",
      "type": "error"
    },
    {
      "inputs": [
        {
          "internalType": "address",
          "name": "sender",
          "type": "address"
        },
        {
          "internalType": "uint256",
          "name": "balance",
          "type": "uint256"
        },
        {
          "internalType": "uint256",
          "name": "needed",
          "type": "uint256"
        }
      ],
      "name": "ERC20InsufficientBalance",
      "type": "error"
    },
    {
      "inputs": [
        {
          "internalType": "address",
          "name": "approver",
          "type": "address"
        }
      ],
      "name": "ERC20InvalidApprover",
      "type": "error"
    },
    {
      "inputs": [
        {
          "internalType": "address",
          "name": "receiver",
          "type": "address"
        }
      ],
      "name": "ERC20InvalidReceiver",
      "type": "error"
    },
    {
      "inputs": [
        {
          "internalType": "address",
          "name": "sender",
          "type": "address"
        }
      ],
      "name": "ERC20InvalidSender",
      "type": "error"
    },
    {
      "inputs": [
        {
          "internalType": "address",
          "name": "spender",
          "type": "address"
        }
      ],
      "name": "ERC20InvalidSpender",
      "type": "error"
    },
    {
      "inputs": [
        {
          "internalType": "address",
          "name": "owner",
          "type": "address"
        }
      ],
      "name": "OwnableInvalidOwner",
      "type": "error"
    },
    {
      "inputs": [
        {
          "internalType": "address",
          "name": "account",
          "type": "address"
        }
      ],
      "name": "OwnableUnauthorizedAccount",
      "type": "error"
    },
    {
      "anonymous": false,
      "inputs": [
        {
          "indexed": true,
          "internalType": "address",
          "name": "owner",
          "type": "address"
        },
        {
          "indexed": true,
          "internalType": "address",
          "name": "spender",
          "type": "address"
        },
        {
          "indexed": false,
          "internalType": "uint256",
          "name": "value",
          "type": "uint256"
        }
      ],
      "name": "Approval",
      "type": "event"
    },
    {
      "anonymous": false,
      "inputs": [
        {
          "indexed": true,
          "internalType": "address",
          "name": "oldOperator",
          "type": "address"
        },
        {
          "indexed": true,
          "internalType": "address",
          "name": "newOperator",
          "type": "address"
        }
      ],
      "name": "OperatorUpdated",
      "type": "event"
    },
    {
      "anonymous": false,
      "inputs": [
        {
          "indexed": true,
          "internalType": "address",
          "name": "previousOwner",
          "type": "address"
        },
        {
          "indexed": true,
          "internalType": "address",
          "name": "newOwner",
          "type": "address"
        }
      ],
      "name": "OwnershipTransferred",
      "type": "event"
    },
    {
      "anonymous": false,
      "inputs": [
        {
          "indexed": false,
          "internalType": "uint256",
          "name": "tokensForSale",
          "type": "uint256"
        },
        {
          "indexed": false,
          "internalType": "uint256",
          "name": "tokenPrice",
          "type": "uint256"
        },
        {
          "indexed": false,
          "internalType": "uint256",
          "name": "targetSellerOwnership",
          "type": "uint256"
        }
      ],
      "name": "SaleParametersUpdated",
      "type": "event"
    },
    {
      "anonymous": false,
      "inputs": [
        {
          "indexed": false,
          "internalType": "address",
          "name": "oldSeller",
          "type": "address"
        },
        {
          "indexed": false,
          "internalType": "address",
          "name": "newSeller",
          "type": "address"
        }
      ],
      "name": "SellerAddressUpdated",
      "type": "event"
    },
    {
      "anonymous": false,
      "inputs": [
        {
          "indexed": false,
          "internalType": "uint256",
          "name": "additionalTokens",
          "type": "uint256"
        }
      ],
      "name": "SupplyIncreased",
      "type": "event"
    },
    {
      "anonymous": false,
      "inputs": [
        {
          "indexed": true,
          "internalType": "address",
          "name": "from",
          "type": "address"
        },
        {
          "indexed": true,
          "internalType": "address",
          "name": "to",
          "type": "address"
        },
        {
          "indexed": false,
          "internalType": "uint256",
          "name": "value",
          "type": "uint256"
        }
      ],
      "name": "Transfer",
      "type": "event"
    },
    {
      "anonymous": false,
      "inputs": [
        {
          "indexed": false,
          "internalType": "bool",
          "name": "enabled",
          "type": "bool"
        }
      ],
      "name": "TransfersToggled",
      "type": "event"
    },
    {
      "inputs": [],
      "name": "MAX_BUYER_PERCENT",
      "outputs": [
        {
          "internalType": "uint256",
          "name": "",
          "type": "uint256"
        }
      ],
      "stateMutability": "view",
      "type": "function"
    },
    {
      "inputs": [
        {
          "internalType": "address",
          "name": "owner",
          "type": "address"
        },
        {
          "internalType": "address",
          "name": "spender",
          "type": "address"
        }
      ],
      "name": "allowance",
      "outputs": [
        {
          "internalType": "uint256",
          "name": "",
          "type": "uint256"
        }
      ],
      "stateMutability": "view",
      "type": "function"
    },
    {
      "inputs": [
        {
          "internalType": "address",
          "name": "spender",
          "type": "address"
        },
        {
          "internalType": "uint256",
          "name": "value",
          "type": "uint256"
        }
      ],
      "name": "approve",
      "outputs": [
        {
          "internalType": "bool",
          "name": "",
          "type": "bool"
        }
      ],
      "stateMutability": "nonpayable",
      "type": "function"
    },
    {
      "inputs": [
        {
          "internalType": "address",
          "name": "account",
          "type": "address"
        }
      ],
      "name": "balanceOf",
      "outputs": [
        {
          "internalType": "uint256",
          "name": "",
          "type": "uint256"
        }
      ],
      "stateMutability": "view",
      "type": "function"
    },
    {
      "inputs": [
        {
          "internalType": "uint256",
          "name": "amount",
          "type": "uint256"
        }
      ],
      "name": "buyTokens",
      "outputs": [],
      "stateMutability": "payable",
      "type": "function"
    },
    {
      "inputs": [],
      "name": "decimals",
      "outputs": [
        {
          "internalType": "uint8",
          "name": "",
          "type": "uint8"
        }
      ],
      "stateMutability": "view",
      "type": "function"
    },
    {
      "inputs": [
        {
          "internalType": "uint256",
          "name": "preMoneyValuation",
          "type": "uint256"
        }
      ],
      "name": "getPostMoneyValuation",
      "outputs": [
        {
          "internalType": "uint256",
          "name": "",
          "type": "uint256"
        }
      ],
      "stateMutability": "view",
      "type": "function"
    },
    {
      "inputs": [
        {
          "internalType": "uint256",
          "name": "additionalTokens",
          "type": "uint256"
        }
      ],
      "name": "increaseSupply",
      "outputs": [],
      "stateMutability": "nonpayable",
      "type": "function"
    },
    {
      "inputs": [],
      "name": "name",
      "outputs": [
        {
          "internalType": "string",
          "name": "",
          "type": "string"
        }
      ],
      "stateMutability": "view",
      "type": "function"
    },
    {
      "inputs": [],
      "name": "operator",
      "outputs": [
        {
          "internalType": "address",
          "name": "",
          "type": "address"
        }
      ],
      "stateMutability": "view",
      "type": "function"
    },
    {
      "inputs": [],
      "name": "owner",
      "outputs": [
        {
          "internalType": "address",
          "name": "",
          "type": "address"
        }
      ],
      "stateMutability": "view",
      "type": "function"
    },
    {
      "inputs": [],
      "name": "renounceOwnership",
      "outputs": [],
      "stateMutability": "nonpayable",
      "type": "function"
    },
    {
      "inputs": [],
      "name": "seller",
      "outputs": [
        {
          "internalType": "address",
          "name": "",
          "type": "address"
        }
      ],
      "stateMutability": "view",
      "type": "function"
    },
    {
      "inputs": [
        {
          "internalType": "address",
          "name": "newOperator",
          "type": "address"
        }
      ],
      "name": "setOperator",
      "outputs": [],
      "stateMutability": "nonpayable",
      "type": "function"
    },
    {
      "inputs": [
        {
          "internalType": "uint256",
          "name": "_tokensForSale",
          "type": "uint256"
        },
        {
          "internalType": "uint256",
          "name": "_tokenPrice",
          "type": "uint256"
        },
        {
          "internalType": "uint256",
          "name": "_targetSellerOwnership",
          "type": "uint256"
        }
      ],
      "name": "setSaleParameters",
      "outputs": [],
      "stateMutability": "nonpayable",
      "type": "function"
    },
    {
      "inputs": [],
      "name": "symbol",
      "outputs": [
        {
          "internalType": "string",
          "name": "",
          "type": "string"
        }
      ],
      "stateMutability": "view",
      "type": "function"
    },
    {
      "inputs": [],
      "name": "targetSellerOwnership",
      "outputs": [
        {
          "internalType": "uint256",
          "name": "",
          "type": "uint256"
        }
      ],
      "stateMutability": "view",
      "type": "function"
    },
    {
      "inputs": [
        {
          "internalType": "bool",
          "name": "enabled",
          "type": "bool"
        }
      ],
      "name": "toggleTransfers",
      "outputs": [],
      "stateMutability": "nonpayable",
      "type": "function"
    },
    {
      "inputs": [],
      "name": "tokenPrice",
      "outputs": [
        {
          "internalType": "uint256",
          "name": "",
          "type": "uint256"
        }
      ],
      "stateMutability": "view",
      "type": "function"
    },
    {
      "inputs": [],
      "name": "tokensForSale",
      "outputs": [
        {
          "internalType": "uint256",
          "name": "",
          "type": "uint256"
        }
      ],
      "stateMutability": "view",
      "type": "function"
    },
    {
      "inputs": [],
      "name": "totalSupply",
      "outputs": [
        {
          "internalType": "uint256",
          "name": "",
          "type": "uint256"
        }
      ],
      "stateMutability": "view",
      "type": "function"
    },
    {
      "inputs": [
        {
          "internalType": "address",
          "name": "to",
          "type": "address"
        },
        {
          "internalType": "uint256",
          "name": "value",
          "type": "uint256"
        }
      ],
      "name": "transfer",
      "outputs": [
        {
          "internalType": "bool",
          "name": "",
          "type": "bool"
        }
      ],
      "stateMutability": "nonpayable",
      "type": "function"
    },
    {
      "inputs": [
        {
          "internalType": "address",
          "name": "from",
          "type": "address"
        },
        {
          "internalType": "address",
          "name": "to",
          "type": "address"
        },
        {
          "internalType": "uint256",
          "name": "value",
          "type": "uint256"
        }
      ],
      "name": "transferFrom",
      "outputs": [
        {
          "internalType": "bool",
          "name": "",
          "type": "bool"
        }
      ],
      "stateMutability": "nonpayable",
      "type": "function"
    },
    {
      "inputs": [
        {
          "internalType": "address",
          "name": "newOwner",
          "type": "address"
        }
      ],
      "name": "transferOwnership",
      "outputs": [],
      "stateMutability": "nonpayable",
      "type": "function"
    },
    {
      "inputs": [],
      "name": "transfersEnabled",
      "outputs": [
        {
          "internalType": "bool",
          "name": "",
          "type": "bool"
        }
      ],
      "stateMutability": "view",
      "type": "function"
    },
    {
      "inputs": [
        {
          "internalType": "address",
          "name": "newSeller",
          "type": "address"
        }
      ],
      "name": "updateSellerAddress",
      "outputs": [],
      "stateMutability": "nonpayable",
      "type": "function"
    }
  ],
  "bytecode": "0x60806040526001600760146101000a81548160ff0219169083151502179055503480156200002c57600080fd5b506040516200356738038062003567833981810160405281019062000052919062000903565b818585816003908162000066919062000c0a565b50806004908162000078919062000c0a565b505050600073ffffffffffffffffffffffffffffffffffffffff168173ffffffffffffffffffffffffffffffffffffffff1603620000f05760006040517f1e4fbdf7000000000000000000000000000000000000000000000000000000008152600401620000e7919062000d02565b60405180910390fd5b62000101816200024b60201b60201c565b50600073ffffffffffffffffffffffffffffffffffffffff168273ffffffffffffffffffffffffffffffffffffffff160362000174576040517f08c379a00000000000000000000000000000000000000000000000000000000081526004016200016b9062000d80565b60405180910390fd5b81600660006101000a81548173ffffffffffffffffffffffffffffffffffffffff021916908373ffffffffffffffffffffffffffffffffffffffff160217905550620001e9600660009054906101000a900473ffffffffffffffffffffffffffffffffffffffff16846200031160201b60201c565b60006064600385620001fc919062000dd1565b62000208919062000e4b565b90506200023f600660009054906101000a900473ffffffffffffffffffffffffffffffffffffffff1683836200039e60201b60201c565b50505050505062000f29565b6000600560009054906101000a900473ffffffffffffffffffffffffffffffffffffffff16905081600560006101000a81548173ffffffffffffffffffffffffffffffffffffffff021916908373ffffffffffffffffffffffffffffffffffffffff1602179055508173ffffffffffffffffffffffffffffffffffffffff168173ffffffffffffffffffffffffffffffffffffffff167f8be0079c531659141344cd1fd0a4f28419497f9722a3daafe3b4186f6b6457e060405160405180910390a35050565b600073ffffffffffffffffffffffffffffffffffffffff168273ffffffffffffffffffffffffffffffffffffffff1603620003865760006040517fec442f050000000000000000000000000000000000000000000000000000000081526004016200037d919062000d02565b60405180910390fd5b6200039a60008383620004a060201b60201c565b5050565b600073ffffffffffffffffffffffffffffffffffffffff168373ffffffffffffffffffffffffffffffffffffffff1603620004135760006040517f96c6fd1e0000000000000000000000000000000000000000000000000000000081526004016200040a919062000d02565b60405180910390fd5b600073ffffffffffffffffffffffffffffffffffffffff168273ffffffffffffffffffffffffffffffffffffffff1603620004885760006040517fec442f050000000000000000000000000000000000000000000000000000000081526004016200047f919062000d02565b60405180910390fd5b6200049b838383620004a060201b60201c565b505050565b600073ffffffffffffffffffffffffffffffffffffffff168373ffffffffffffffffffffffffffffffffffffffff1603620004f6578060026000828254620004e9919062000e83565b92505081905550620005cc565b60008060008573ffffffffffffffffffffffffffffffffffffffff1673ffffffffffffffffffffffffffffffffffffffff1681526020019081526020016000205490508181101562000585578381836040517fe450d38c0000000000000000000000000000000000000000000000000000000081526004016200057c9392919062000ecf565b60405180910390fd5b8181036000808673ffffffffffffffffffffffffffffffffffffffff1673ffffffffffffffffffffffffffffffffffffffff16815260200190815260200160002081905550505b600073ffffffffffffffffffffffffffffffffffffffff168273ffffffffffffffffffffffffffffffffffffffff160362000617578060026000828254039250508190555062000664565b806000808473ffffffffffffffffffffffffffffffffffffffff1673ffffffffffffffffffffffffffffffffffffffff168152602001908152602001600020600082825401925050819055505b8173ffffffffffffffffffffffffffffffffffffffff168373ffffffffffffffffffffffffffffffffffffffff167fddf252ad1be2c89b69c2b068fc378daa952ba7f163c4a11628f55a4df523b3ef83604051620006c3919062000f0c565b60405180910390a3505050565b6000604051905090565b600080fd5b600080fd5b600080fd5b600080fd5b6000601f19601f8301169050919050565b7f4e487b7100000000000000000000000000000000000000000000000000000000600052604160045260246000fd5b6200073982620006ee565b810181811067ffffffffffffffff821117156200075b576200075a620006ff565b5b80604052505050565b600062000770620006d0565b90506200077e82826200072e565b919050565b600067ffffffffffffffff821115620007a157620007a0620006ff565b5b620007ac82620006ee565b9050602081019050919050565b60005b83811015620007d9578082015181840152602081019050620007bc565b60008484015250505050565b6000620007fc620007f68462000783565b62000764565b9050828152602081018484840111156200081b576200081a620006e9565b5b62000828848285620007b9565b509392505050565b600082601f830112620008485762000847620006e4565b5b81516200085a848260208601620007e5565b91505092915050565b6000819050919050565b620008788162000863565b81146200088457600080fd5b50565b60008151905062000898816200086d565b92915050565b600073ffffffffffffffffffffffffffffffffffffffff82169050919050565b6000620008cb826200089e565b9050919050565b620008dd81620008be565b8114620008e957600080fd5b50565b600081519050620008fd81620008d2565b92915050565b600080600080600060a08688031215620009225762000921620006da565b5b600086015167ffffffffffffffff811115620009435762000942620006df565b5b620009518882890162000830565b955050602086015167ffffffffffffffff811115620009755762000974620006df565b5b620009838882890162000830565b9450506040620009968882890162000887565b9350506060620009a988828901620008ec565b9250506080620009bc88828901620008ec565b9150509295509295909350565b600081519050919050565b7f4e487b7100000000000000000000000000000000000000000000000000000000600052602260045260246000fd5b6000600282049050600182168062000a1c57607f821691505b60208210810362000a325762000a31620009d4565b5b50919050565b60008190508160005260206000209050919050565b60006020601f8301049050919050565b600082821b905092915050565b60006008830262000a9c7fffffffffffffffffffffffffffffffffffffffffffffffffffffffffffffffff8262000a5d565b62000aa8868362000a5d565b95508019841693508086168417925050509392505050565b6000819050919050565b600062000aeb62000ae562000adf8462000863565b62000ac0565b62000863565b9050919050565b6000819050919050565b62000b078362000aca565b62000b1f62000b168262000af2565b84845462000a6a565b825550505050565b600090565b62000b3662000b27565b62000b4381848462000afc565b505050565b5b8181101562000b6b5762000b5f60008262000b2c565b60018101905062000b49565b5050565b601f82111562000bba5762000b848162000a38565b62000b8f8462000a4d565b8101602085101562000b9f578190505b62000bb762000bae8562000a4d565b83018262000b48565b50505b505050565b600082821c905092915050565b600062000bdf6000198460080262000bbf565b1980831691505092915050565b600062000bfa838362000bcc565b9150826002028217905092915050565b62000c1582620009c9565b67ffffffffffffffff81111562000c315762000c30620006ff565b5b62000c3d825462000a03565b62000c4a82828562000b6f565b600060209050601f83116001811462000c82576000841562000c6d578287015190505b62000c79858262000bec565b86555062000ce9565b601f19841662000c928662000a38565b60005b8281101562000cbc5784890151825560018201915060208501945060208101905062000c95565b8683101562000cdc578489015162000cd8601f89168262000bcc565b8355505b6001600288020188555050505b505050505050565b62000cfc81620008be565b82525050565b600060208201905062000d19600083018462000cf1565b92915050565b600082825260208201905092915050565b7f496e76616c69642073656c6c6572206164647265737300000000000000000000600082015250565b600062000d6860168362000d1f565b915062000d758262000d30565b602082019050919050565b6000602082019050818103600083015262000d9b8162000d59565b9050919050565b7f4e487b7100000000000000000000000000000000000000000000000000000000600052601160045260246000fd5b600062000dde8262000863565b915062000deb8362000863565b925082820262000dfb8162000863565b9150828204841483151762000e155762000e1462000da2565b5b5092915050565b7f4e487b7100000000000000000000000000000000000000000000000000000000600052601260045260246000fd5b600062000e588262000863565b915062000e658362000863565b92508262000e785762000e7762000e1c565b5b828204905092915050565b600062000e908262000863565b915062000e9d8362000863565b925082820190508082111562000eb85762000eb762000da2565b5b92915050565b62000ec98162000863565b82525050565b600060608201905062000ee6600083018662000cf1565b62000ef5602083018562000ebe565b62000f04604083018462000ebe565b949350505050565b600060208201905062000f23600083018462000ebe565b92915050565b61262e8062000f396000396000f3fe6080604052600436106101815760003560e01c8063715018a6116100d1578063b921e1631161008a578063d5cf7cfe11610064578063d5cf7cfe14610567578063dd62ed3e14610592578063e249b7ce146105cf578063f2fde38b146105f857610181565b8063b921e163146104e8578063bb979d6214610511578063bef97c871461053c57610181565b8063715018a6146103ea5780637ff9b596146104015780638da5cb5b1461042c57806395d89b4114610457578063a9059cbb14610482578063b3ab15fb146104bf57610181565b80632b319a8f1161013e578063570ca73511610118578063570ca73514610330578063685041581461035b578063685dab8f1461038457806370a08231146103ad57610181565b80632b319a8f146102ac578063313ce567146102e95780633610724e1461031457610181565b806306fdde031461018657806308551a53146101b1578063095ea7b3146101dc57806312aef8c31461021957806318160ddd1461024457806323b872dd1461026f575b600080fd5b34801561019257600080fd5b5061019b610621565b6040516101a89190611a7f565b60405180910390f35b3480156101bd57600080fd5b506101c66106b3565b6040516101d39190611ae2565b60405180910390f35b3480156101e857600080fd5b5061020360048036038101906101fe9190611b64565b6106d9565b6040516102109190611bbf565b60405180910390f35b34801561022557600080fd5b5061022e6106fc565b60405161023b9190611be9565b60405180910390f35b34801561025057600080fd5b50610259610702565b6040516102669190611be9565b60405180910390f35b34801561027b57600080fd5b5061029660048036038101906102919190611c04565b61070c565b6040516102a39190611bbf565b60405180910390f35b3480156102b857600080fd5b506102d360048036038101906102ce9190611c57565b61073b565b6040516102e09190611be9565b60405180910390f35b3480156102f557600080fd5b506102fe6107ac565b60405161030b9190611ca0565b60405180910390f35b61032e60048036038101906103299190611c57565b6107b5565b005b34801561033c57600080fd5b506103456109c4565b6040516103529190611ae2565b60405180910390f35b34801561036757600080fd5b50610382600480360381019061037d9190611ce7565b6109ea565b005b34801561039057600080fd5b506103ab60048036038101906103a69190611d14565b610a46565b005b3480156103b957600080fd5b506103d460048036038101906103cf9190611d14565b610b5c565b6040516103e19190611be9565b60405180910390f35b3480156103f657600080fd5b506103ff610ba4565b005b34801561040d57600080fd5b50610416610bb8565b6040516104239190611be9565b60405180910390f35b34801561043857600080fd5b50610441610bbe565b60405161044e9190611ae2565b60405180910390f35b34801561046357600080fd5b5061046c610be8565b6040516104799190611a7f565b60405180910390f35b34801561048e57600080fd5b506104a960048036038101906104a49190611b64565b610c7a565b6040516104b69190611bbf565b60405180910390f35b3480156104cb57600080fd5b506104e660048036038101906104e19190611d14565b610c9d565b005b3480156104f457600080fd5b5061050f600480360381019061050a9190611c57565b610dd4565b005b34801561051d57600080fd5b50610526610eca565b6040516105339190611be9565b60405180910390f35b34801561054857600080fd5b50610551610ed0565b60405161055e9190611bbf565b60405180910390f35b34801561057357600080fd5b5061057c610ee3565b6040516105899190611be9565b60405180910390f35b34801561059e57600080fd5b506105b960048036038101906105b49190611d41565b610ee8565b6040516105c69190611be9565b60405180910390f35b3480156105db57600080fd5b506105f660048036038101906105f19190611d81565b610f6f565b005b34801561060457600080fd5b5061061f600480360381019061061a9190611d14565b6111fb565b005b60606003805461063090611e03565b80601f016020809104026020016040519081016040528092919081815260200182805461065c90611e03565b80156106a95780601f1061067e576101008083540402835291602001916106a9565b820191906000526020600020905b81548152906001019060200180831161068c57829003601f168201915b5050505050905090565b600660009054906101000a900473ffffffffffffffffffffffffffffffffffffffff1681565b6000806106e4611281565b90506106f1818585611289565b600191505092915050565b60095481565b6000600254905090565b600080610717611281565b905061072485828561129b565b61072f858585611330565b60019150509392505050565b600080600a5460095461076f600660009054906101000a900473ffffffffffffffffffffffffffffffffffffffff16610b5c565b6107799190611e63565b6107839190611e97565b90506000600854826107959190611ecb565b905080846107a39190611e63565b92505050919050565b60006012905090565b600081116107f8576040517f08c379a00000000000000000000000000000000000000000000000000000000081526004016107ef90611f59565b60405180910390fd5b60095481111561083d576040517f08c379a000000000000000000000000000000000000000000000000000000000815260040161083490611feb565b60405180910390fd5b6008548161084b9190611ecb565b341461088c576040517f08c379a000000000000000000000000000000000000000000000000000000000815260040161088390612057565b60405180910390fd5b6064600f610898610702565b6108a29190611ecb565b6108ac91906120a6565b816108b633610b5c565b6108c09190611e63565b1115610901576040517f08c379a00000000000000000000000000000000000000000000000000000000081526004016108f890612149565b60405180910390fd5b600a5481610930600660009054906101000a900473ffffffffffffffffffffffffffffffffffffffff16610b5c565b61093a9190611e97565b101561097b576040517f08c379a0000000000000000000000000000000000000000000000000000000008152600401610972906121db565b60405180910390fd5b806009600082825461098d9190611e97565b925050819055506109c1600660009054906101000a900473ffffffffffffffffffffffffffffffffffffffff163383611330565b50565b600760009054906101000a900473ffffffffffffffffffffffffffffffffffffffff1681565b6109f2611424565b80600760146101000a81548160ff0219169083151502179055507fe1965432af4c9923f6ebb98f1721262967cfa6178008742d23041dc8ee74ee8f81604051610a3b9190611bbf565b60405180910390a150565b610a4e611424565b600073ffffffffffffffffffffffffffffffffffffffff168173ffffffffffffffffffffffffffffffffffffffff1603610abd576040517f08c379a0000000000000000000000000000000000000000000000000000000008152600401610ab490612247565b60405180910390fd5b7fd08dbba23a735d81eaf53ac5ede2c722bb186e9d3d46b62842853f0d017c2212600660009054906101000a900473ffffffffffffffffffffffffffffffffffffffff1682604051610b10929190612267565b60405180910390a180600660006101000a81548173ffffffffffffffffffffffffffffffffffffffff021916908373ffffffffffffffffffffffffffffffffffffffff16021790555050565b60008060008373ffffffffffffffffffffffffffffffffffffffff1673ffffffffffffffffffffffffffffffffffffffff168152602001908152602001600020549050919050565b610bac611424565b610bb660006114ab565b565b60085481565b6000600560009054906101000a900473ffffffffffffffffffffffffffffffffffffffff16905090565b606060048054610bf790611e03565b80601f0160208091040260200160405190810160405280929190818152602001828054610c2390611e03565b8015610c705780601f10610c4557610100808354040283529160200191610c70565b820191906000526020600020905b815481529060010190602001808311610c5357829003601f168201915b5050505050905090565b600080610c85611281565b9050610c92818585611330565b600191505092915050565b610ca5611424565b600073ffffffffffffffffffffffffffffffffffffffff168173ffffffffffffffffffffffffffffffffffffffff1603610d14576040517f08c379a0000000000000000000000000000000000000000000000000000000008152600401610d0b906122dc565b60405180910390fd5b8073ffffffffffffffffffffffffffffffffffffffff16600760009054906101000a900473ffffffffffffffffffffffffffffffffffffffff1673ffffffffffffffffffffffffffffffffffffffff167ffbe5b6cbafb274f445d7fed869dc77a838d8243a22c460de156560e8857cad0360405160405180910390a380600760006101000a81548173ffffffffffffffffffffffffffffffffffffffff021916908373ffffffffffffffffffffffffffffffffffffffff16021790555050565b600760009054906101000a900473ffffffffffffffffffffffffffffffffffffffff1673ffffffffffffffffffffffffffffffffffffffff163373ffffffffffffffffffffffffffffffffffffffff1614610e64576040517f08c379a0000000000000000000000000000000000000000000000000000000008152600401610e5b90612348565b60405180910390fd5b610e90600660009054906101000a900473ffffffffffffffffffffffffffffffffffffffff1682611571565b7f359675c23a13743cf846e03b084a0b1fd129ffa3404dbdd936effd23fb97aa9d81604051610ebf9190611be9565b60405180910390a150565b600a5481565b600760149054906101000a900460ff1681565b600f81565b6000600160008473ffffffffffffffffffffffffffffffffffffffff1673ffffffffffffffffffffffffffffffffffffffff16815260200190815260200160002060008373ffffffffffffffffffffffffffffffffffffffff1673ffffffffffffffffffffffffffffffffffffffff16815260200190815260200160002054905092915050565b600760009054906101000a900473ffffffffffffffffffffffffffffffffffffffff1673ffffffffffffffffffffffffffffffffffffffff163373ffffffffffffffffffffffffffffffffffffffff1614610fff576040517f08c379a0000000000000000000000000000000000000000000000000000000008152600401610ff690612348565b60405180910390fd5b6000611009610702565b90506064600a8261101a9190611ecb565b61102491906120a6565b821015611066576040517f08c379a000000000000000000000000000000000000000000000000000000000815260040161105d906123da565b60405180910390fd5b6064601e826110759190611ecb565b61107f91906120a6565b8211156110c1576040517f08c379a00000000000000000000000000000000000000000000000000000000081526004016110b89061246c565b60405180910390fd5b836110ed600660009054906101000a900473ffffffffffffffffffffffffffffffffffffffff16610b5c565b101561112e576040517f08c379a0000000000000000000000000000000000000000000000000000000008152600401611125906124d8565b60405180910390fd5b818461115b600660009054906101000a900473ffffffffffffffffffffffffffffffffffffffff16610b5c565b6111659190611e97565b146111a5576040517f08c379a000000000000000000000000000000000000000000000000000000000815260040161119c9061256a565b60405180910390fd5b836009819055508260088190555081600a819055507f4d012a69148885509f5eb0377244099c968f990db1f853707b9d8e3fea20f7b98484846040516111ed9392919061258a565b60405180910390a150505050565b611203611424565b600073ffffffffffffffffffffffffffffffffffffffff168173ffffffffffffffffffffffffffffffffffffffff16036112755760006040517f1e4fbdf700000000000000000000000000000000000000000000000000000000815260040161126c9190611ae2565b60405180910390fd5b61127e816114ab565b50565b600033905090565b61129683838360016115f3565b505050565b60006112a78484610ee8565b90507fffffffffffffffffffffffffffffffffffffffffffffffffffffffffffffffff81101561132a578181101561131a578281836040517ffb8f41b2000000000000000000000000000000000000000000000000000000008152600401611311939291906125c1565b60405180910390fd5b611329848484840360006115f3565b5b50505050565b600073ffffffffffffffffffffffffffffffffffffffff168373ffffffffffffffffffffffffffffffffffffffff16036113a25760006040517f96c6fd1e0000000000000000000000000000000000000000000000000000000081526004016113999190611ae2565b60405180910390fd5b600073ffffffffffffffffffffffffffffffffffffffff168273ffffffffffffffffffffffffffffffffffffffff16036114145760006040517fec442f0500000000000000000000000000000000000000000000000000000000815260040161140b9190611ae2565b60405180910390fd5b61141f8383836117ca565b505050565b61142c611281565b73ffffffffffffffffffffffffffffffffffffffff1661144a610bbe565b73ffffffffffffffffffffffffffffffffffffffff16146114a95761146d611281565b6040517f118cdaa70000000000000000000000000000000000000000000000000000000081526004016114a09190611ae2565b60405180910390fd5b565b6000600560009054906101000a900473ffffffffffffffffffffffffffffffffffffffff16905081600560006101000a81548173ffffffffffffffffffffffffffffffffffffffff021916908373ffffffffffffffffffffffffffffffffffffffff1602179055508173ffffffffffffffffffffffffffffffffffffffff168173ffffffffffffffffffffffffffffffffffffffff167f8be0079c531659141344cd1fd0a4f28419497f9722a3daafe3b4186f6b6457e060405160405180910390a35050565b600073ffffffffffffffffffffffffffffffffffffffff168273ffffffffffffffffffffffffffffffffffffffff16036115e35760006040517fec442f050000000000000000000000000000000000000000000000000000000081526004016115da9190611ae2565b60405180910390fd5b6115ef600083836117ca565b5050565b600073ffffffffffffffffffffffffffffffffffffffff168473ffffffffffffffffffffffffffffffffffffffff16036116655760006040517fe602df0500000000000000000000000000000000000000000000000000000000815260040161165c9190611ae2565b60405180910390fd5b600073ffffffffffffffffffffffffffffffffffffffff168373ffffffffffffffffffffffffffffffffffffffff16036116d75760006040517f94280d620000000000000000000000000000000000000000000000000000000081526004016116ce9190611ae2565b60405180910390fd5b81600160008673ffffffffffffffffffffffffffffffffffffffff1673ffffffffffffffffffffffffffffffffffffffff16815260200190815260200160002060008573ffffffffffffffffffffffffffffffffffffffff1673ffffffffffffffffffffffffffffffffffffffff1681526020019081526020016000208190555080156117c4578273ffffffffffffffffffffffffffffffffffffffff168473ffffffffffffffffffffffffffffffffffffffff167f8c5be1e5ebec7d5bd14f71427d1e84f3dd0314c0f7b2291e5b200ac8c7c3b925846040516117bb9190611be9565b60405180910390a35b50505050565b600073ffffffffffffffffffffffffffffffffffffffff168373ffffffffffffffffffffffffffffffffffffffff160361181c5780600260008282546118109190611e63565b925050819055506118ef565b60008060008573ffffffffffffffffffffffffffffffffffffffff1673ffffffffffffffffffffffffffffffffffffffff168152602001908152602001600020549050818110156118a8578381836040517fe450d38c00000000000000000000000000000000000000000000000000000000815260040161189f939291906125c1565b60405180910390fd5b8181036000808673ffffffffffffffffffffffffffffffffffffffff1673ffffffffffffffffffffffffffffffffffffffff16815260200190815260200160002081905550505b600073ffffffffffffffffffffffffffffffffffffffff168273ffffffffffffffffffffffffffffffffffffffff16036119385780600260008282540392505081905550611985565b806000808473ffffffffffffffffffffffffffffffffffffffff1673ffffffffffffffffffffffffffffffffffffffff168152602001908152602001600020600082825401925050819055505b8173ffffffffffffffffffffffffffffffffffffffff168373ffffffffffffffffffffffffffffffffffffffff167fddf252ad1be2c89b69c2b068fc378daa952ba7f163c4a11628f55a4df523b3ef836040516119e29190611be9565b60405180910390a3505050565b600081519050919050565b600082825260208201905092915050565b60005b83811015611a29578082015181840152602081019050611a0e565b60008484015250505050565b6000601f19601f8301169050919050565b6000611a51826119ef565b611a5b81856119fa565b9350611a6b818560208601611a0b565b611a7481611a35565b840191505092915050565b60006020820190508181036000830152611a998184611a46565b905092915050565b600073ffffffffffffffffffffffffffffffffffffffff82169050919050565b6000611acc82611aa1565b9050919050565b611adc81611ac1565b82525050565b6000602082019050611af76000830184611ad3565b92915050565b600080fd5b611b0b81611ac1565b8114611b1657600080fd5b50565b600081359050611b2881611b02565b92915050565b6000819050919050565b611b4181611b2e565b8114611b4c57600080fd5b50565b600081359050611b5e81611b38565b92915050565b60008060408385031215611b7b57611b7a611afd565b5b6000611b8985828601611b19565b9250506020611b9a85828601611b4f565b9150509250929050565b60008115159050919050565b611bb981611ba4565b82525050565b6000602082019050611bd46000830184611bb0565b92915050565b611be381611b2e565b82525050565b6000602082019050611bfe6000830184611bda565b92915050565b600080600060608486031215611c1d57611c1c611afd565b5b6000611c2b86828701611b19565b9350506020611c3c86828701611b19565b9250506040611c4d86828701611b4f565b9150509250925092565b600060208284031215611c6d57611c6c611afd565b5b6000611c7b84828501611b4f565b91505092915050565b600060ff82169050919050565b611c9a81611c84565b82525050565b6000602082019050611cb56000830184611c91565b92915050565b611cc481611ba4565b8114611ccf57600080fd5b50565b600081359050611ce181611cbb565b92915050565b600060208284031215611cfd57611cfc611afd565b5b6000611d0b84828501611cd2565b91505092915050565b600060208284031215611d2a57611d29611afd565b5b6000611d3884828501611b19565b91505092915050565b60008060408385031215611d5857611d57611afd565b5b6000611d6685828601611b19565b9250506020611d7785828601611b19565b9150509250929050565b600080600060608486031215611d9a57611d99611afd565b5b6000611da886828701611b4f565b9350506020611db986828701611b4f565b9250506040611dca86828701611b4f565b9150509250925092565b7f4e487b7100000000000000000000000000000000000000000000000000000000600052602260045260246000fd5b60006002820490506001821680611e1b57607f821691505b602082108103611e2e57611e2d611dd4565b5b50919050565b7f4e487b7100000000000000000000000000000000000000000000000000000000600052601160045260246000fd5b6000611e6e82611b2e565b9150611e7983611b2e565b9250828201905080821115611e9157611e90611e34565b5b92915050565b6000611ea282611b2e565b9150611ead83611b2e565b9250828203905081811115611ec557611ec4611e34565b5b92915050565b6000611ed682611b2e565b9150611ee183611b2e565b9250828202611eef81611b2e565b91508282048414831517611f0657611f05611e34565b5b5092915050565b7f416d6f756e74206d757374206265203e20300000000000000000000000000000600082015250565b6000611f436012836119fa565b9150611f4e82611f0d565b602082019050919050565b60006020820190508181036000830152611f7281611f36565b9050919050565b7f4e6f7420656e6f75676820746f6b656e7320617661696c61626c6520666f722060008201527f73616c6500000000000000000000000000000000000000000000000000000000602082015250565b6000611fd56024836119fa565b9150611fe082611f79565b604082019050919050565b6000602082019050818103600083015261200481611fc8565b9050919050565b7f496e636f7272656374204554482073656e740000000000000000000000000000600082015250565b60006120416012836119fa565b915061204c8261200b565b602082019050919050565b6000602082019050818103600083015261207081612034565b9050919050565b7f4e487b7100000000000000000000000000000000000000000000000000000000600052601260045260246000fd5b60006120b182611b2e565b91506120bc83611b2e565b9250826120cc576120cb612077565b5b828204905092915050565b7f427579657220776f756c642065786365656420313525206f6620746f74616c2060008201527f737570706c790000000000000000000000000000000000000000000000000000602082015250565b60006121336026836119fa565b915061213e826120d7565b604082019050919050565b6000602082019050818103600083015261216281612126565b9050919050565b7f53656c6c65722063616e6e6f742064726f702062656c6f77207461726765742060008201527f6f776e6572736869700000000000000000000000000000000000000000000000602082015250565b60006121c56029836119fa565b91506121d082612169565b604082019050919050565b600060208201905081810360008301526121f4816121b8565b9050919050565b7f496e76616c696420616464726573730000000000000000000000000000000000600082015250565b6000612231600f836119fa565b915061223c826121fb565b602082019050919050565b6000602082019050818103600083015261226081612224565b9050919050565b600060408201905061227c6000830185611ad3565b6122896020830184611ad3565b9392505050565b7f496e76616c6964206f70657261746f7220616464726573730000000000000000600082015250565b60006122c66018836119fa565b91506122d182612290565b602082019050919050565b600060208201905081810360008301526122f5816122b9565b9050919050565b7f4e6f7420617574686f72697a65643a206f70657261746f72206f6e6c79000000600082015250565b6000612332601d836119fa565b915061233d826122fc565b602082019050919050565b6000602082019050818103600083015261236181612325565b9050919050565b7f546172676574206f776e6572736869702062656c6f7720313025206f6620746f60008201527f74616c20737570706c7900000000000000000000000000000000000000000000602082015250565b60006123c4602a836119fa565b91506123cf82612368565b604082019050919050565b600060208201905081810360008301526123f3816123b7565b9050919050565b7f546172676574206f776e6572736869702061626f766520333025206f6620746f60008201527f74616c20737570706c7900000000000000000000000000000000000000000000602082015250565b6000612456602a836119fa565b9150612461826123fa565b604082019050919050565b6000602082019050818103600083015261248581612449565b9050919050565b7f53656c6c65722062616c616e636520696e73756666696369656e740000000000600082015250565b60006124c2601b836119fa565b91506124cd8261248c565b602082019050919050565b600060208201905081810360008301526124f1816124b5565b9050919050565b7f53616c6520746f6b656e73206d75737420657175616c2073656c6c657220626160008201527f6c616e6365206d696e757320746172676574206f776e65727368697000000000602082015250565b6000612554603c836119fa565b915061255f826124f8565b604082019050919050565b6000602082019050818103600083015261258381612547565b9050919050565b600060608201905061259f6000830186611bda565b6125ac6020830185611bda565b6125b96040830184611bda565b949350505050565b60006060820190506125d66000830186611ad3565b6125e36020830185611bda565b6125f06040830184611bda565b94935050505056fea2646970667358221220a0c4aaa436c2377adec06527b97a01a4cfd4b0c2f0bd6efcc83d314c2cacdc6c64736f6c63430008140033",
  "linkReferences": {},
  "deployedLinkReferences": {}
}