{
  "_format": "hh-sol-artifact-1",
  "contractName": "PropertyToken",
  "sourceName": "contracts/PropertyToken.sol",
  "abi": [
    {
      "inputs": [
        {
          "internalType": "string",
          "name": "name_",
          "type": "string"
        },
        {
          "internalType": "string",
          "name": "symbol_",
          "type": "string"
        },
        {
          "internalType": "uint256",
          "name": "initialSupply_",
          "type": "uint256"
        },
        {
          "internalType": "address",
          "name": "seller_",
          "type": "address"
        },
        {
          "internalType": "address",
          "name": "whimsyAddress",
          "type": "address"
        }
      ],
      "stateMutability": "nonpayable",
      "type": "constructor"
    },
    {
      "inputs": [
        {
          "internalType": "address",
          "name": "spender",
          "type": "address"
        },
        {
          "internalType": "uint256",
          "name": "allowance",
          "type": "uint256"
        },
        {
          "internalType": "uint256",
          "name": "needed",
          "type": "uint256"
        }
      ],
      "name": "ERC20InsufficientAllowance",
      "type": "error"
    },
    {
      "inputs": [
        {
          "internalType": "address",
          "name": "sender",
          "type": "address"
        },
        {
          "internalType": "uint256",
          "name": "balance",
          "type": "uint256"
        },
        {
          "internalType": "uint256",
          "name": "needed",
          "type": "uint256"
        }
      ],
      "name": "ERC20InsufficientBalance",
      "type": "error"
    },
    {
      "inputs": [
        {
          "internalType": "address",
          "name": "approver",
          "type": "address"
        }
      ],
      "name": "ERC20InvalidApprover",
      "type": "error"
    },
    {
      "inputs": [
        {
          "internalType": "address",
          "name": "receiver",
          "type": "address"
        }
      ],
      "name": "ERC20InvalidReceiver",
      "type": "error"
    },
    {
      "inputs": [
        {
          "internalType": "address",
          "name": "sender",
          "type": "address"
        }
      ],
      "name": "ERC20InvalidSender",
      "type": "error"
    },
    {
      "inputs": [
        {
          "internalType": "address",
          "name": "spender",
          "type": "address"
        }
      ],
      "name": "ERC20InvalidSpender",
      "type": "error"
    },
    {
      "inputs": [
        {
          "internalType": "address",
          "name": "owner",
          "type": "address"
        }
      ],
      "name": "OwnableInvalidOwner",
      "type": "error"
    },
    {
      "inputs": [
        {
          "internalType": "address",
          "name": "account",
          "type": "address"
        }
      ],
      "name": "OwnableUnauthorizedAccount",
      "type": "error"
    },
    {
      "anonymous": false,
      "inputs": [
        {
          "indexed": true,
          "internalType": "address",
          "name": "owner",
          "type": "address"
        },
        {
          "indexed": true,
          "internalType": "address",
          "name": "spender",
          "type": "address"
        },
        {
          "indexed": false,
          "internalType": "uint256",
          "name": "value",
          "type": "uint256"
        }
      ],
      "name": "Approval",
      "type": "event"
    },
    {
      "anonymous": false,
      "inputs": [
        {
          "indexed": true,
          "internalType": "address",
          "name": "buyer",
          "type": "address"
        }
      ],
      "name": "DisclaimerAgreed",
      "type": "event"
    },
    {
      "anonymous": false,
      "inputs": [
        {
          "indexed": true,
          "internalType": "address",
          "name": "oldOperator",
          "type": "address"
        },
        {
          "indexed": true,
          "internalType": "address",
          "name": "newOperator",
          "type": "address"
        }
      ],
      "name": "OperatorUpdated",
      "type": "event"
    },
    {
      "anonymous": false,
      "inputs": [
        {
          "indexed": true,
          "internalType": "address",
          "name": "previousOwner",
          "type": "address"
        },
        {
          "indexed": true,
          "internalType": "address",
          "name": "newOwner",
          "type": "address"
        }
      ],
      "name": "OwnershipTransferred",
      "type": "event"
    },
    {
      "anonymous": false,
      "inputs": [
        {
          "indexed": true,
          "internalType": "uint256",
          "name": "proposalId",
          "type": "uint256"
        },
        {
          "indexed": false,
          "internalType": "string",
          "name": "description",
          "type": "string"
        }
      ],
      "name": "ProposalCreated",
      "type": "event"
    },
    {
      "anonymous": false,
      "inputs": [
        {
          "indexed": true,
          "internalType": "uint256",
          "name": "proposalId",
          "type": "uint256"
        },
        {
          "indexed": false,
          "internalType": "bool",
          "name": "passed",
          "type": "bool"
        }
      ],
      "name": "ProposalFinalized",
      "type": "event"
    },
    {
      "anonymous": false,
      "inputs": [
        {
          "indexed": true,
          "internalType": "address",
          "name": "buyer",
          "type": "address"
        },
        {
          "indexed": false,
          "internalType": "uint256",
          "name": "amount",
          "type": "uint256"
        }
      ],
      "name": "RefundIssued",
      "type": "event"
    },
    {
      "anonymous": false,
      "inputs": [
        {
          "indexed": false,
          "internalType": "uint256",
          "name": "tokensForSale",
          "type": "uint256"
        },
        {
          "indexed": false,
          "internalType": "uint256",
          "name": "tokenPrice",
          "type": "uint256"
        },
        {
          "indexed": false,
          "internalType": "uint256",
          "name": "targetSellerOwnership",
          "type": "uint256"
        }
      ],
      "name": "SaleParametersUpdated",
      "type": "event"
    },
    {
      "anonymous": false,
      "inputs": [
        {
          "indexed": false,
          "internalType": "address",
          "name": "oldSeller",
          "type": "address"
        },
        {
          "indexed": false,
          "internalType": "address",
          "name": "newSeller",
          "type": "address"
        }
      ],
      "name": "SellerAddressUpdated",
      "type": "event"
    },
    {
      "anonymous": false,
      "inputs": [
        {
          "indexed": false,
          "internalType": "uint256",
          "name": "additionalTokens",
          "type": "uint256"
        }
      ],
      "name": "SupplyIncreased",
      "type": "event"
    },
    {
      "anonymous": false,
      "inputs": [
        {
          "indexed": true,
          "internalType": "address",
          "name": "buyer",
          "type": "address"
        },
        {
          "indexed": false,
          "internalType": "uint256",
          "name": "amount",
          "type": "uint256"
        }
      ],
      "name": "TokensPurchased",
      "type": "event"
    },
    {
      "anonymous": false,
      "inputs": [
        {
          "indexed": true,
          "internalType": "address",
          "name": "from",
          "type": "address"
        },
        {
          "indexed": true,
          "internalType": "address",
          "name": "to",
          "type": "address"
        },
        {
          "indexed": false,
          "internalType": "uint256",
          "name": "value",
          "type": "uint256"
        }
      ],
      "name": "Transfer",
      "type": "event"
    },
    {
      "anonymous": false,
      "inputs": [
        {
          "indexed": false,
          "internalType": "bool",
          "name": "enabled",
          "type": "bool"
        }
      ],
      "name": "TransfersToggled",
      "type": "event"
    },
    {
      "anonymous": false,
      "inputs": [
        {
          "indexed": true,
          "internalType": "uint256",
          "name": "proposalId",
          "type": "uint256"
        },
        {
          "indexed": false,
          "internalType": "address",
          "name": "voter",
          "type": "address"
        },
        {
          "indexed": false,
          "internalType": "bool",
          "name": "support",
          "type": "bool"
        },
        {
          "indexed": false,
          "internalType": "uint256",
          "name": "weight",
          "type": "uint256"
        }
      ],
      "name": "Voted",
      "type": "event"
    },
    {
      "anonymous": false,
      "inputs": [
        {
          "indexed": false,
          "internalType": "uint256",
          "name": "amount",
          "type": "uint256"
        },
        {
          "indexed": false,
          "internalType": "address",
          "name": "to",
          "type": "address"
        }
      ],
      "name": "Withdrawn",
      "type": "event"
    },
    {
      "stateMutability": "payable",
      "type": "fallback"
    },
    {
      "inputs": [],
      "name": "AGREEMENT_TIMEOUT",
      "outputs": [
        {
          "internalType": "uint256",
          "name": "",
          "type": "uint256"
        }
      ],
      "stateMutability": "view",
      "type": "function"
    },
    {
      "inputs": [],
      "name": "MAX_BUYER_PERCENT",
      "outputs": [
        {
          "internalType": "uint256",
          "name": "",
          "type": "uint256"
        }
      ],
      "stateMutability": "view",
      "type": "function"
    },
    {
      "inputs": [],
      "name": "agreeDisclaimer",
      "outputs": [],
      "stateMutability": "nonpayable",
      "type": "function"
    },
    {
      "inputs": [
        {
          "internalType": "address",
          "name": "owner",
          "type": "address"
        },
        {
          "internalType": "address",
          "name": "spender",
          "type": "address"
        }
      ],
      "name": "allowance",
      "outputs": [
        {
          "internalType": "uint256",
          "name": "",
          "type": "uint256"
        }
      ],
      "stateMutability": "view",
      "type": "function"
    },
    {
      "inputs": [
        {
          "internalType": "address",
          "name": "spender",
          "type": "address"
        },
        {
          "internalType": "uint256",
          "name": "value",
          "type": "uint256"
        }
      ],
      "name": "approve",
      "outputs": [
        {
          "internalType": "bool",
          "name": "",
          "type": "bool"
        }
      ],
      "stateMutability": "nonpayable",
      "type": "function"
    },
    {
      "inputs": [
        {
          "internalType": "address",
          "name": "account",
          "type": "address"
        }
      ],
      "name": "balanceOf",
      "outputs": [
        {
          "internalType": "uint256",
          "name": "",
          "type": "uint256"
        }
      ],
      "stateMutability": "view",
      "type": "function"
    },
    {
      "inputs": [
        {
          "internalType": "uint256",
          "name": "amount",
          "type": "uint256"
        }
      ],
      "name": "buyTokens",
      "outputs": [],
      "stateMutability": "payable",
      "type": "function"
    },
    {
      "inputs": [
        {
          "internalType": "string",
          "name": "description",
          "type": "string"
        }
      ],
      "name": "createProposal",
      "outputs": [],
      "stateMutability": "nonpayable",
      "type": "function"
    },
    {
      "inputs": [],
      "name": "decimals",
      "outputs": [
        {
          "internalType": "uint8",
          "name": "",
          "type": "uint8"
        }
      ],
      "stateMutability": "view",
      "type": "function"
    },
    {
      "inputs": [
        {
          "internalType": "uint256",
          "name": "proposalId",
          "type": "uint256"
        }
      ],
      "name": "finalizeProposal",
      "outputs": [],
      "stateMutability": "nonpayable",
      "type": "function"
    },
    {
      "inputs": [
        {
          "internalType": "uint256",
          "name": "preMoneyValuation",
          "type": "uint256"
        }
      ],
      "name": "getPostMoneyValuation",
      "outputs": [
        {
          "internalType": "uint256",
          "name": "",
          "type": "uint256"
        }
      ],
      "stateMutability": "view",
      "type": "function"
    },
    {
      "inputs": [
        {
          "internalType": "uint256",
          "name": "proposalId",
          "type": "uint256"
        }
      ],
      "name": "getProposal",
      "outputs": [
        {
          "internalType": "string",
          "name": "description",
          "type": "string"
        },
        {
          "internalType": "uint256",
          "name": "yesVotes",
          "type": "uint256"
        },
        {
          "internalType": "uint256",
          "name": "noVotes",
          "type": "uint256"
        },
        {
          "internalType": "bool",
          "name": "finalized",
          "type": "bool"
        }
      ],
      "stateMutability": "view",
      "type": "function"
    },
    {
      "inputs": [
        {
          "internalType": "address",
          "name": "",
          "type": "address"
        }
      ],
      "name": "hasAgreedDisclaimer",
      "outputs": [
        {
          "internalType": "bool",
          "name": "",
          "type": "bool"
        }
      ],
      "stateMutability": "view",
      "type": "function"
    },
    {
      "inputs": [
        {
          "internalType": "uint256",
          "name": "amount",
          "type": "uint256"
        }
      ],
      "name": "increaseSupply",
      "outputs": [],
      "stateMutability": "nonpayable",
      "type": "function"
    },
    {
      "inputs": [],
      "name": "name",
      "outputs": [
        {
          "internalType": "string",
          "name": "",
          "type": "string"
        }
      ],
      "stateMutability": "view",
      "type": "function"
    },
    {
      "inputs": [],
      "name": "operator",
      "outputs": [
        {
          "internalType": "address",
          "name": "",
          "type": "address"
        }
      ],
      "stateMutability": "view",
      "type": "function"
    },
    {
      "inputs": [
        {
          "internalType": "address",
          "name": "from",
          "type": "address"
        },
        {
          "internalType": "address",
          "name": "to",
          "type": "address"
        },
        {
          "internalType": "uint256",
          "name": "amount",
          "type": "uint256"
        }
      ],
      "name": "operatorTransfer",
      "outputs": [],
      "stateMutability": "nonpayable",
      "type": "function"
    },
    {
      "inputs": [],
      "name": "owner",
      "outputs": [
        {
          "internalType": "address",
          "name": "",
          "type": "address"
        }
      ],
      "stateMutability": "view",
      "type": "function"
    },
    {
      "inputs": [
        {
          "internalType": "address",
          "name": "",
          "type": "address"
        }
      ],
      "name": "pendingReservations",
      "outputs": [
        {
          "internalType": "uint256",
          "name": "amount",
          "type": "uint256"
        },
        {
          "internalType": "uint256",
          "name": "timestamp",
          "type": "uint256"
        }
      ],
      "stateMutability": "view",
      "type": "function"
    },
    {
      "inputs": [],
      "name": "proposalsLength",
      "outputs": [
        {
          "internalType": "uint256",
          "name": "",
          "type": "uint256"
        }
      ],
      "stateMutability": "view",
      "type": "function"
    },
    {
      "inputs": [
        {
          "internalType": "address",
          "name": "buyer",
          "type": "address"
        }
      ],
      "name": "refundUnagreedBuyer",
      "outputs": [],
      "stateMutability": "nonpayable",
      "type": "function"
    },
    {
      "inputs": [],
      "name": "renounceOwnership",
      "outputs": [],
      "stateMutability": "nonpayable",
      "type": "function"
    },
    {
      "inputs": [
        {
          "internalType": "uint256",
          "name": "amount",
          "type": "uint256"
        }
      ],
      "name": "reserveTokens",
      "outputs": [],
      "stateMutability": "payable",
      "type": "function"
    },
    {
      "inputs": [],
      "name": "seller",
      "outputs": [
        {
          "internalType": "address",
          "name": "",
          "type": "address"
        }
      ],
      "stateMutability": "view",
      "type": "function"
    },
    {
      "inputs": [
        {
          "internalType": "address",
          "name": "newOperator",
          "type": "address"
        }
      ],
      "name": "setOperator",
      "outputs": [],
      "stateMutability": "nonpayable",
      "type": "function"
    },
    {
      "inputs": [
        {
          "internalType": "uint256",
          "name": "_tokensForSale",
          "type": "uint256"
        },
        {
          "internalType": "uint256",
          "name": "_tokenPrice",
          "type": "uint256"
        },
        {
          "internalType": "uint256",
          "name": "_targetSellerOwnership",
          "type": "uint256"
        }
      ],
      "name": "setSaleParameters",
      "outputs": [],
      "stateMutability": "nonpayable",
      "type": "function"
    },
    {
      "inputs": [],
      "name": "symbol",
      "outputs": [
        {
          "internalType": "string",
          "name": "",
          "type": "string"
        }
      ],
      "stateMutability": "view",
      "type": "function"
    },
    {
      "inputs": [],
      "name": "targetSellerOwnership",
      "outputs": [
        {
          "internalType": "uint256",
          "name": "",
          "type": "uint256"
        }
      ],
      "stateMutability": "view",
      "type": "function"
    },
    {
      "inputs": [
        {
          "internalType": "bool",
          "name": "enabled",
          "type": "bool"
        }
      ],
      "name": "toggleTransfers",
      "outputs": [],
      "stateMutability": "nonpayable",
      "type": "function"
    },
    {
      "inputs": [],
      "name": "tokenPrice",
      "outputs": [
        {
          "internalType": "uint256",
          "name": "",
          "type": "uint256"
        }
      ],
      "stateMutability": "view",
      "type": "function"
    },
    {
      "inputs": [],
      "name": "tokensForSale",
      "outputs": [
        {
          "internalType": "uint256",
          "name": "",
          "type": "uint256"
        }
      ],
      "stateMutability": "view",
      "type": "function"
    },
    {
      "inputs": [],
      "name": "totalRaised",
      "outputs": [
        {
          "internalType": "uint256",
          "name": "",
          "type": "uint256"
        }
      ],
      "stateMutability": "view",
      "type": "function"
    },
    {
      "inputs": [],
      "name": "totalSupply",
      "outputs": [
        {
          "internalType": "uint256",
          "name": "",
          "type": "uint256"
        }
      ],
      "stateMutability": "view",
      "type": "function"
    },
    {
      "inputs": [
        {
          "internalType": "address",
          "name": "to",
          "type": "address"
        },
        {
          "internalType": "uint256",
          "name": "value",
          "type": "uint256"
        }
      ],
      "name": "transfer",
      "outputs": [
        {
          "internalType": "bool",
          "name": "",
          "type": "bool"
        }
      ],
      "stateMutability": "nonpayable",
      "type": "function"
    },
    {
      "inputs": [
        {
          "internalType": "address",
          "name": "from",
          "type": "address"
        },
        {
          "internalType": "address",
          "name": "to",
          "type": "address"
        },
        {
          "internalType": "uint256",
          "name": "value",
          "type": "uint256"
        }
      ],
      "name": "transferFrom",
      "outputs": [
        {
          "internalType": "bool",
          "name": "",
          "type": "bool"
        }
      ],
      "stateMutability": "nonpayable",
      "type": "function"
    },
    {
      "inputs": [
        {
          "internalType": "address",
          "name": "newOwner",
          "type": "address"
        }
      ],
      "name": "transferOwnership",
      "outputs": [],
      "stateMutability": "nonpayable",
      "type": "function"
    },
    {
      "inputs": [],
      "name": "transfersEnabled",
      "outputs": [
        {
          "internalType": "bool",
          "name": "",
          "type": "bool"
        }
      ],
      "stateMutability": "view",
      "type": "function"
    },
    {
      "inputs": [
        {
          "internalType": "address",
          "name": "newSeller",
          "type": "address"
        }
      ],
      "name": "updateSellerAddress",
      "outputs": [],
      "stateMutability": "nonpayable",
      "type": "function"
    },
    {
      "inputs": [
        {
          "internalType": "uint256",
          "name": "proposalId",
          "type": "uint256"
        },
        {
          "internalType": "bool",
          "name": "support",
          "type": "bool"
        }
      ],
      "name": "vote",
      "outputs": [],
      "stateMutability": "nonpayable",
      "type": "function"
    },
    {
      "inputs": [],
      "name": "withdraw",
      "outputs": [],
      "stateMutability": "nonpayable",
      "type": "function"
    },
    {
      "stateMutability": "payable",
      "type": "receive"
    }
  ],
  "bytecode": "0x60806040526007805460ff60a01b1916600160a01b1790553480156200002457600080fd5b5060405162002c4338038062002c43833981016040819052620000479162000669565b338585600362000058838262000790565b50600462000067828262000790565b5050506001600160a01b0381166200009a57604051631e4fbdf760e01b8152600060048201526024015b60405180910390fd5b620000a581620001c5565b506001600160a01b038216620000fe5760405162461bcd60e51b815260206004820152601660248201527f496e76616c69642073656c6c6572206164647265737300000000000000000000604482015260640162000091565b6001600160a01b038116620001565760405162461bcd60e51b815260206004820152601660248201527f496e76616c6964207768696d7379206164647265737300000000000000000000604482015260640162000091565b600680546001600160a01b0319166001600160a01b038416179055600060646200018285600362000872565b6200018e919062000892565b905060006200019e8286620008b5565b9050620001ac848262000217565b620001b8838362000217565b50505050505050620008e1565b600580546001600160a01b038381166001600160a01b0319831681179093556040519116919082907f8be0079c531659141344cd1fd0a4f28419497f9722a3daafe3b4186f6b6457e090600090a35050565b6001600160a01b038216620002435760405163ec442f0560e01b81526000600482015260240162000091565b620002516000838362000255565b5050565b6200026283838362000274565b6200026f83838362000454565b505050565b6001600160a01b03831615806200029257506001600160a01b038216155b156200029d57505050565b600754600160a01b900460ff16620002f85760405162461bcd60e51b815260206004820152601660248201527f5472616e7366657273206172652064697361626c656400000000000000000000604482015260640162000091565b6006546001600160a01b03908116908416036200039b576006546001600160a01b031660009081526020819052604081205462000337908390620008b5565b9050600a54811015620003995760405162461bcd60e51b8152602060048201526024808201527f53656c6c6572206d7573742072657461696e206d696e696d756d206f776e65726044820152630736869760e41b606482015260840162000091565b505b6006546001600160a01b038381169116146200026f576064600f620003bf60025490565b620003cb919062000872565b620003d7919062000892565b81620003f8846001600160a01b031660009081526020819052604090205490565b620004049190620008cb565b11156200026f5760405162461bcd60e51b815260206004820152601960248201527f526563697069656e742065786365656473203135252063617000000000000000604482015260640162000091565b6001600160a01b03831662000483578060026000828254620004779190620008cb565b90915550620004f79050565b6001600160a01b03831660009081526020819052604090205481811015620004d85760405163391434e360e21b81526001600160a01b0385166004820152602481018290526044810183905260640162000091565b6001600160a01b03841660009081526020819052604090209082900390555b6001600160a01b038216620005155760028054829003905562000534565b6001600160a01b03821660009081526020819052604090208054820190555b816001600160a01b0316836001600160a01b03167fddf252ad1be2c89b69c2b068fc378daa952ba7f163c4a11628f55a4df523b3ef836040516200057a91815260200190565b60405180910390a3505050565b634e487b7160e01b600052604160045260246000fd5b600082601f830112620005af57600080fd5b81516001600160401b0380821115620005cc57620005cc62000587565b604051601f8301601f19908116603f01168101908282118183101715620005f757620005f762000587565b816040528381526020925086838588010111156200061457600080fd5b600091505b8382101562000638578582018301518183018401529082019062000619565b600093810190920192909252949350505050565b80516001600160a01b03811681146200066457600080fd5b919050565b600080600080600060a086880312156200068257600080fd5b85516001600160401b03808211156200069a57600080fd5b620006a889838a016200059d565b96506020880151915080821115620006bf57600080fd5b50620006ce888289016200059d565b94505060408601519250620006e6606087016200064c565b9150620006f6608087016200064c565b90509295509295909350565b600181811c908216806200071757607f821691505b6020821081036200073857634e487b7160e01b600052602260045260246000fd5b50919050565b601f8211156200026f57600081815260208120601f850160051c81016020861015620007675750805b601f850160051c820191505b81811015620007885782815560010162000773565b505050505050565b81516001600160401b03811115620007ac57620007ac62000587565b620007c481620007bd845462000702565b846200073e565b602080601f831160018114620007fc5760008415620007e35750858301515b600019600386901b1c1916600185901b17855562000788565b600085815260208120601f198616915b828110156200082d578886015182559484019460019091019084016200080c565b50858210156200084c5787850151600019600388901b60f8161c191681555b5050505050600190811b01905550565b634e487b7160e01b600052601160045260246000fd5b80820281158282048414176200088c576200088c6200085c565b92915050565b600082620008b057634e487b7160e01b600052601260045260246000fd5b500490565b818103818111156200088c576200088c6200085c565b808201808211156200088c576200088c6200085c565b61235280620008f16000396000f3fe6080604052600436106101f25760003560e01c806370a0823111610108578063bef97c8711610098578063bef97c87146105ac578063c5c4744c146105cd578063c7f758a8146105e3578063c9d27afe14610613578063d031370b14610633578063d5cf7cfe14610646578063dd62ed3e1461065b578063e249b7ce1461067b578063e92968e61461069b578063f2fde38b146106b057005b806370a0823114610491578063715018a6146104b15780637d6c8c00146104c65780637ff9b596146104f65780638da5cb5b1461050c57806395d89b4114610521578063a9059cbb14610536578063b3ab15fb14610556578063b921e16314610576578063bb979d621461059657005b8063313ce56711610183578063313ce5671461034f5780633610724e1461036b5780633ccfd60b1461037e57806344c7c86714610393578063490deb3d146103a857806349c2a1a6146103f15780635652077c14610411578063570ca735146104315780636850415814610451578063685dab8f1461047157005b8062267f9a146101fb57806306fdde031461022557806308551a5314610247578063095ea7b3146102745780630d1af103146102a457806312aef8c3146102c457806318160ddd146102da5780631df37492146102ef57806323b872dd1461030f5780632b319a8f1461032f57005b366101f957005b005b34801561020757600080fd5b506102126206978081565b6040519081526020015b60405180910390f35b34801561023157600080fd5b5061023a6106d0565b60405161021c9190611e10565b34801561025357600080fd5b50600654610267906001600160a01b031681565b60405161021c9190611e2a565b34801561028057600080fd5b5061029461028f366004611e5a565b610762565b604051901515815260200161021c565b3480156102b057600080fd5b506101f96102bf366004611e84565b61077c565b3480156102d057600080fd5b5061021260095481565b3480156102e657600080fd5b50600254610212565b3480156102fb57600080fd5b506101f961030a366004611ec0565b6107bf565b34801561031b57600080fd5b5061029461032a366004611e84565b610a0f565b34801561033b57600080fd5b5061021261034a366004611edb565b610a33565b34801561035b57600080fd5b506040516012815260200161021c565b6101f9610379366004611edb565b610a43565b34801561038a57600080fd5b506101f9610cc5565b34801561039f57600080fd5b50600e54610212565b3480156103b457600080fd5b506103dc6103c3366004611ec0565b600d602052600090815260409020805460019091015482565b6040805192835260208301919091520161021c565b3480156103fd57600080fd5b506101f961040c366004611f0a565b610e54565b34801561041d57600080fd5b506101f961042c366004611edb565b610f09565b34801561043d57600080fd5b50600754610267906001600160a01b031681565b34801561045d57600080fd5b506101f961046c366004611fcb565b610ff4565b34801561047d57600080fd5b506101f961048c366004611ec0565b611054565b34801561049d57600080fd5b506102126104ac366004611ec0565b61110d565b3480156104bd57600080fd5b506101f9611128565b3480156104d257600080fd5b506102946104e1366004611ec0565b600c6020526000908152604090205460ff1681565b34801561050257600080fd5b5061021260085481565b34801561051857600080fd5b5061026761113c565b34801561052d57600080fd5b5061023a61114b565b34801561054257600080fd5b50610294610551366004611e5a565b61115a565b34801561056257600080fd5b506101f9610571366004611ec0565b611168565b34801561058257600080fd5b506101f9610591366004611edb565b61121d565b3480156105a257600080fd5b50610212600a5481565b3480156105b857600080fd5b5060075461029490600160a01b900460ff1681565b3480156105d957600080fd5b50610212600b5481565b3480156105ef57600080fd5b506106036105fe366004611edb565b61126b565b60405161021c9493929190611fe6565b34801561061f57600080fd5b506101f961062e366004612017565b611352565b6101f9610641366004611edb565b61150a565b34801561065257600080fd5b50610212600f81565b34801561066757600080fd5b50610212610676366004612043565b6115d8565b34801561068757600080fd5b506101f961069636600461206d565b611603565b3480156106a757600080fd5b506101f9611821565b3480156106bc57600080fd5b506101f96106cb366004611ec0565b611863565b6060600380546106df90612099565b80601f016020809104026020016040519081016040528092919081815260200182805461070b90612099565b80156107585780601f1061072d57610100808354040283529160200191610758565b820191906000526020600020905b81548152906001019060200180831161073b57829003601f168201915b5050505050905090565b6000336107708185856118a1565b60019150505b92915050565b6007546001600160a01b031633146107af5760405162461bcd60e51b81526004016107a6906120d3565b60405180910390fd5b6107ba8383836118ae565b505050565b6007546001600160a01b031633146107e95760405162461bcd60e51b81526004016107a6906120d3565b6001600160a01b0381166000908152600d6020908152604091829020825180840190935280548084526001909101549183019190915261085c5760405162461bcd60e51b815260206004820152600e60248201526d2737903932b9b2b93b30ba34b7b760911b60448201526064016107a6565b6001600160a01b0382166000908152600c602052604090205460ff16156108bc5760405162461bcd60e51b8152602060048201526014602482015273109d5e595c88185b1c9958591e481859dc99595960621b60448201526064016107a6565b6206978081602001516108cf9190612120565b4210156109145760405162461bcd60e51b8152602060048201526013602482015272151a5b595bdd5d081b9bdd081c995858da1959606a1b60448201526064016107a6565b6001600160a01b0382166000818152600d6020526040812081815560010181905560085483519192916109479190612133565b604051600081818185875af1925050503d8060008114610983576040519150601f19603f3d011682016040523d82523d6000602084013e610988565b606091505b50509050806109c95760405162461bcd60e51b815260206004820152600d60248201526c1499599d5b990819985a5b1959609a1b60448201526064016107a6565b81516040519081526001600160a01b038416907fa171b6942063c6f2800ce40a780edce37baa2b618571b11eedd1e69e626e7d76906020015b60405180910390a2505050565b600033610a1d85828561190d565b610a288585856118ae565b506001949350505050565b6000600b54826107769190612120565b336000908152600c602052604090205460ff16610aa25760405162461bcd60e51b815260206004820152601e60248201527f4d75737420616772656520746f20646973636c61696d6572206669727374000060448201526064016107a6565b60008111610ac25760405162461bcd60e51b81526004016107a69061214a565b600954811115610b115760405162461bcd60e51b815260206004820152601a6024820152794e6f7420656e6f75676820746f6b656e7320666f722073616c6560301b60448201526064016107a6565b600854610b1e9082612133565b3414610b3c5760405162461bcd60e51b81526004016107a690612176565b6064600f610b4960025490565b610b539190612133565b610b5d91906121a2565b81610b673361110d565b610b719190612120565b1115610bb75760405162461bcd60e51b8152602060048201526015602482015274042757965722065786365656473203135252063617605c1b60448201526064016107a6565b600a546006548290610bd1906001600160a01b031661110d565b610bdb91906121c4565b1015610c295760405162461bcd60e51b815260206004820152601c60248201527f53656c6c657220776f756c6420676f2062656c6f77207461726765740000000060448201526064016107a6565b8060096000828254610c3b91906121c4565b9250508190555034600b6000828254610c549190612120565b9091555050600654610c70906001600160a01b031633836118ae565b336000818152600d602052604080822082815560010191909155517f8f28852646c20cc973d3a8218f7eefed58c25c909f78f0265af4818c3d4dc27190610cba9084815260200190565b60405180910390a250565b610ccd61113c565b6001600160a01b0316336001600160a01b03161480610cf657506007546001600160a01b031633145b610d335760405162461bcd60e51b815260206004820152600e60248201526d139bdd08185d5d1a1bdc9a5e995960921b60448201526064016107a6565b4780610d765760405162461bcd60e51b81526020600482015260126024820152714e6f2045544820746f20776974686472617760701b60448201526064016107a6565b6006546040516000916001600160a01b03169083908381818185875af1925050503d8060008114610dc3576040519150601f19603f3d011682016040523d82523d6000602084013e610dc8565b606091505b5050905080610e0b5760405162461bcd60e51b815260206004820152600f60248201526e15da5d1a191c985dc819985a5b1959608a1b60448201526064016107a6565b600654604080518481526001600160a01b0390921660208301527f8c7cdad0d12a8db3e23561b42da6f10c8137914c97beff202213a410e1f520a3910160405180910390a15050565b6007546001600160a01b03163314610e7e5760405162461bcd60e51b81526004016107a6906120d3565b600e80546001810182556000919091526005027fbb7b4a454dc3493923482f07822329ed19e8244eff582cc204f8554c3620c3fd0180610ebe8382612225565b50600e54610ece906001906121c4565b7f9c770c289ab5bf7e57cb1d23c8ceae993aea46eb64847072fd3d78ca60d3e43283604051610efd9190611e10565b60405180910390a25050565b6007546001600160a01b03163314610f335760405162461bcd60e51b81526004016107a6906120d3565b6000600e8281548110610f4857610f486122e5565b60009182526020909120600590910201600381015490915060ff1615610fa45760405162461bcd60e51b8152602060048201526011602482015270105b1c9958591e48199a5b985b1a5e9959607a1b60448201526064016107a6565b60038101805460ff1916600190811790915560028201549082015460405191108082529083907fb5ac567fcf1b069e0235e4f16734625c6cf54c1b40517fd9eb85517f6e1265a790602001610a02565b610ffc611961565b60078054821515600160a01b0260ff60a01b199091161790556040517fe1965432af4c9923f6ebb98f1721262967cfa6178008742d23041dc8ee74ee8f9061104990831515815260200190565b60405180910390a150565b61105c611961565b6001600160a01b0381166110a45760405162461bcd60e51b815260206004820152600f60248201526e496e76616c6964206164647265737360881b60448201526064016107a6565b600654604080516001600160a01b03928316815291831660208301527fd08dbba23a735d81eaf53ac5ede2c722bb186e9d3d46b62842853f0d017c2212910160405180910390a1600680546001600160a01b0319166001600160a01b0392909216919091179055565b6001600160a01b031660009081526020819052604090205490565b611130611961565b61113a6000611993565b565b6005546001600160a01b031690565b6060600480546106df90612099565b6000336107708185856118ae565b611170611961565b6001600160a01b0381166111c15760405162461bcd60e51b8152602060048201526018602482015277496e76616c6964206f70657261746f72206164647265737360401b60448201526064016107a6565b6007546040516001600160a01b038084169216907ffbe5b6cbafb274f445d7fed869dc77a838d8243a22c460de156560e8857cad0390600090a3600780546001600160a01b0319166001600160a01b0392909216919091179055565b611225611961565b60065461123b906001600160a01b0316826119e5565b6040518181527f359675c23a13743cf846e03b084a0b1fd129ffa3404dbdd936effd23fb97aa9d90602001611049565b6060600080600080600e8681548110611286576112866122e5565b9060005260206000209060050201905080600001816001015482600201548360030160009054906101000a900460ff168380546112c290612099565b80601f01602080910402602001604051908101604052809291908181526020018280546112ee90612099565b801561133b5780601f106113105761010080835404028352916020019161133b565b820191906000526020600020905b81548152906001019060200180831161131e57829003601f168201915b505050505093509450945094509450509193509193565b6000600e8381548110611367576113676122e5565b60009182526020909120600590910201600381015490915060ff16156113c45760405162461bcd60e51b8152602060048201526012602482015271141c9bdc1bdcd85b08199a5b985b1a5e995960721b60448201526064016107a6565b33600090815260048201602052604090205460ff16156114165760405162461bcd60e51b815260206004820152600d60248201526c105b1c9958591e481d9bdd1959609a1b60448201526064016107a6565b60006114213361110d565b9050600081116114655760405162461bcd60e51b815260206004820152600f60248201526e2737903b37ba34b733903837bbb2b960891b60448201526064016107a6565b821561148a578082600101600082825461147f9190612120565b909155506114a49050565b8082600201600082825461149e9190612120565b90915550505b336000818152600484016020908152604091829020805460ff19166001179055815192835285151590830152810182905284907f7c2de587c00d75474a0c6c6fa96fd3b45dc974cd4e8a75f712bb84c950dce1b59060600160405180910390a250505050565b6000811161152a5760405162461bcd60e51b81526004016107a69061214a565b336000908152600d60205260409020541561157c5760405162461bcd60e51b81526020600482015260126024820152715265736572766174696f6e2065786973747360701b60448201526064016107a6565b6008546115899082612133565b34146115a75760405162461bcd60e51b81526004016107a690612176565b604080518082018252918252426020808401918252336000908152600d909152919091209151825551600190910155565b6001600160a01b03918216600090815260016020908152604080832093909416825291909152205490565b6007546001600160a01b0316331461162d5760405162461bcd60e51b81526004016107a6906120d3565b600061163860025490565b9050606461164782600a612133565b61165191906121a2565b82101561168f5760405162461bcd60e51b815260206004820152600c60248201526b546172676574203c2031302560a01b60448201526064016107a6565b606461169c82601e612133565b6116a691906121a2565b8211156116e45760405162461bcd60e51b815260206004820152600c60248201526b546172676574203e2033302560a01b60448201526064016107a6565b60065484906116fb906001600160a01b031661110d565b101561173e5760405162461bcd60e51b815260206004820152601260248201527153656c6c65722062616c616e6365206c6f7760701b60448201526064016107a6565b60065482908590611757906001600160a01b031661110d565b61176191906121c4565b146117cb5760405162461bcd60e51b815260206004820152603460248201527f746f6b656e73466f7253616c65206d75737420657175616c2073656c6c65722060448201527318985b185b98d9481b5a5b9d5cc81d185c99d95d60621b60648201526084016107a6565b60088390556009849055600a82905560408051858152602081018590529081018390527f4d012a69148885509f5eb0377244099c968f990db1f853707b9d8e3fea20f7b99060600160405180910390a150505050565b336000818152600c6020526040808220805460ff19166001179055517fec25952115d724de7fec274999c9cbe0cff9898f9f5128eaa42bd599138462a19190a2565b61186b611961565b6001600160a01b038116611895576000604051631e4fbdf760e01b81526004016107a69190611e2a565b61189e81611993565b50565b6107ba8383836001611a1f565b6001600160a01b0383166118d8576000604051634b637e8f60e11b81526004016107a69190611e2a565b6001600160a01b03821661190257600060405163ec442f0560e01b81526004016107a69190611e2a565b6107ba838383611af4565b600061191984846115d8565b905060001981101561195b578181101561194c57828183604051637dc7a0d960e11b81526004016107a6939291906122fb565b61195b84848484036000611a1f565b50505050565b3361196a61113c565b6001600160a01b03161461113a573360405163118cdaa760e01b81526004016107a69190611e2a565b600580546001600160a01b038381166001600160a01b0319831681179093556040519116919082907f8be0079c531659141344cd1fd0a4f28419497f9722a3daafe3b4186f6b6457e090600090a35050565b6001600160a01b038216611a0f57600060405163ec442f0560e01b81526004016107a69190611e2a565b611a1b60008383611af4565b5050565b6001600160a01b038416611a4957600060405163e602df0560e01b81526004016107a69190611e2a565b6001600160a01b038316611a73576000604051634a1406b160e11b81526004016107a69190611e2a565b6001600160a01b038085166000908152600160209081526040808320938716835292905220829055801561195b57826001600160a01b0316846001600160a01b03167f8c5be1e5ebec7d5bd14f71427d1e84f3dd0314c0f7b2291e5b200ac8c7c3b92584604051611ae691815260200190565b60405180910390a350505050565b611aff838383611b0a565b6107ba838383611cb3565b6001600160a01b0383161580611b2757506001600160a01b038216155b15611b3157505050565b600754600160a01b900460ff16611b835760405162461bcd60e51b8152602060048201526016602482015275151c985b9cd9995c9cc8185c9948191a5cd8589b195960521b60448201526064016107a6565b6006546001600160a01b0390811690841603611c1f576006546000908290611bb3906001600160a01b031661110d565b611bbd91906121c4565b9050600a54811015611c1d5760405162461bcd60e51b8152602060048201526024808201527f53656c6c6572206d7573742072657461696e206d696e696d756d206f776e65726044820152630736869760e41b60648201526084016107a6565b505b6006546001600160a01b038381169116146107ba576064600f611c4160025490565b611c4b9190612133565b611c5591906121a2565b81611c5f8461110d565b611c699190612120565b11156107ba5760405162461bcd60e51b81526020600482015260196024820152780526563697069656e742065786365656473203135252063617603c1b60448201526064016107a6565b6001600160a01b038316611cde578060026000828254611cd39190612120565b90915550611d3d9050565b6001600160a01b03831660009081526020819052604090205481811015611d1e5783818360405163391434e360e21b81526004016107a6939291906122fb565b6001600160a01b03841660009081526020819052604090209082900390555b6001600160a01b038216611d5957600280548290039055611d78565b6001600160a01b03821660009081526020819052604090208054820190555b816001600160a01b0316836001600160a01b03167fddf252ad1be2c89b69c2b068fc378daa952ba7f163c4a11628f55a4df523b3ef83604051611dbd91815260200190565b60405180910390a3505050565b6000815180845260005b81811015611df057602081850181015186830182015201611dd4565b506000602082860101526020601f19601f83011685010191505092915050565b602081526000611e236020830184611dca565b9392505050565b6001600160a01b0391909116815260200190565b80356001600160a01b0381168114611e5557600080fd5b919050565b60008060408385031215611e6d57600080fd5b611e7683611e3e565b946020939093013593505050565b600080600060608486031215611e9957600080fd5b611ea284611e3e565b9250611eb060208501611e3e565b9150604084013590509250925092565b600060208284031215611ed257600080fd5b611e2382611e3e565b600060208284031215611eed57600080fd5b5035919050565b634e487b7160e01b600052604160045260246000fd5b600060208284031215611f1c57600080fd5b813567ffffffffffffffff80821115611f3457600080fd5b818401915084601f830112611f4857600080fd5b813581811115611f5a57611f5a611ef4565b604051601f8201601f19908116603f01168101908382118183101715611f8257611f82611ef4565b81604052828152876020848701011115611f9b57600080fd5b826020860160208301376000928101602001929092525095945050505050565b80358015158114611e5557600080fd5b600060208284031215611fdd57600080fd5b611e2382611fbb565b608081526000611ff96080830187611dca565b60208301959095525060408101929092521515606090910152919050565b6000806040838503121561202a57600080fd5b8235915061203a60208401611fbb565b90509250929050565b6000806040838503121561205657600080fd5b61205f83611e3e565b915061203a60208401611e3e565b60008060006060848603121561208257600080fd5b505081359360208301359350604090920135919050565b600181811c908216806120ad57607f821691505b6020821081036120cd57634e487b7160e01b600052602260045260246000fd5b50919050565b6020808252601d908201527f4e6f7420617574686f72697a65643a206f70657261746f72206f6e6c79000000604082015260600190565b634e487b7160e01b600052601160045260246000fd5b808201808211156107765761077661210a565b80820281158282048414176107765761077661210a565b6020808252601290820152710416d6f756e74206d757374206265203e20360741b604082015260600190565b602080825260129082015271125b98dbdc9c9958dd08115512081cd95b9d60721b604082015260600190565b6000826121bf57634e487b7160e01b600052601260045260246000fd5b500490565b818103818111156107765761077661210a565b601f8211156107ba57600081815260208120601f850160051c810160208610156121fe5750805b601f850160051c820191505b8181101561221d5782815560010161220a565b505050505050565b815167ffffffffffffffff81111561223f5761223f611ef4565b6122538161224d8454612099565b846121d7565b602080601f83116001811461228857600084156122705750858301515b600019600386901b1c1916600185901b17855561221d565b600085815260208120601f198616915b828110156122b757888601518255948401946001909101908401612298565b50858210156122d55787850151600019600388901b60f8161c191681555b5050505050600190811b01905550565b634e487b7160e01b600052603260045260246000fd5b6001600160a01b03939093168352602083019190915260408201526060019056fea2646970667358221220444f3d3d9edaccc6549101e586662882add7d29d837a1b31bbc91b4fbcb573d764736f6c63430008140033",
  "linkReferences": {},
  "deployedLinkReferences": {}
}