{
  "_format": "hh-sol-artifact-1",
  "contractName": "PropertyToken",
  "sourceName": "contracts/PropertyToken.sol",
  "abi": [
    {
      "inputs": [
        {
          "internalType": "string",
          "name": "name_",
          "type": "string"
        },
        {
          "internalType": "string",
          "name": "symbol_",
          "type": "string"
        },
        {
          "internalType": "uint256",
          "name": "initialSupply_",
          "type": "uint256"
        },
        {
          "internalType": "address",
          "name": "seller_",
          "type": "address"
        },
        {
          "internalType": "address",
          "name": "whimsyAddress",
          "type": "address"
        },
        {
          "internalType": "address",
          "name": "owner_",
          "type": "address"
        },
        {
          "internalType": "address",
          "name": "paymentTokenAddress",
          "type": "address"
        },
        {
          "internalType": "address",
          "name": "assignedSigner",
          "type": "address"
        }
      ],
      "stateMutability": "nonpayable",
      "type": "constructor"
    },
    {
      "inputs": [],
      "name": "ECDSAInvalidSignature",
      "type": "error"
    },
    {
      "inputs": [
        {
          "internalType": "uint256",
          "name": "length",
          "type": "uint256"
        }
      ],
      "name": "ECDSAInvalidSignatureLength",
      "type": "error"
    },
    {
      "inputs": [
        {
          "internalType": "bytes32",
          "name": "s",
          "type": "bytes32"
        }
      ],
      "name": "ECDSAInvalidSignatureS",
      "type": "error"
    },
    {
      "inputs": [
        {
          "internalType": "address",
          "name": "spender",
          "type": "address"
        },
        {
          "internalType": "uint256",
          "name": "allowance",
          "type": "uint256"
        },
        {
          "internalType": "uint256",
          "name": "needed",
          "type": "uint256"
        }
      ],
      "name": "ERC20InsufficientAllowance",
      "type": "error"
    },
    {
      "inputs": [
        {
          "internalType": "address",
          "name": "sender",
          "type": "address"
        },
        {
          "internalType": "uint256",
          "name": "balance",
          "type": "uint256"
        },
        {
          "internalType": "uint256",
          "name": "needed",
          "type": "uint256"
        }
      ],
      "name": "ERC20InsufficientBalance",
      "type": "error"
    },
    {
      "inputs": [
        {
          "internalType": "address",
          "name": "approver",
          "type": "address"
        }
      ],
      "name": "ERC20InvalidApprover",
      "type": "error"
    },
    {
      "inputs": [
        {
          "internalType": "address",
          "name": "receiver",
          "type": "address"
        }
      ],
      "name": "ERC20InvalidReceiver",
      "type": "error"
    },
    {
      "inputs": [
        {
          "internalType": "address",
          "name": "sender",
          "type": "address"
        }
      ],
      "name": "ERC20InvalidSender",
      "type": "error"
    },
    {
      "inputs": [
        {
          "internalType": "address",
          "name": "spender",
          "type": "address"
        }
      ],
      "name": "ERC20InvalidSpender",
      "type": "error"
    },
    {
      "inputs": [],
      "name": "EnforcedPause",
      "type": "error"
    },
    {
      "inputs": [],
      "name": "ExpectedPause",
      "type": "error"
    },
    {
      "inputs": [
        {
          "internalType": "address",
          "name": "owner",
          "type": "address"
        }
      ],
      "name": "OwnableInvalidOwner",
      "type": "error"
    },
    {
      "inputs": [
        {
          "internalType": "address",
          "name": "account",
          "type": "address"
        }
      ],
      "name": "OwnableUnauthorizedAccount",
      "type": "error"
    },
    {
      "inputs": [],
      "name": "ReentrancyGuardReentrantCall",
      "type": "error"
    },
    {
      "inputs": [
        {
          "internalType": "address",
          "name": "token",
          "type": "address"
        }
      ],
      "name": "SafeERC20FailedOperation",
      "type": "error"
    },
    {
      "anonymous": false,
      "inputs": [
        {
          "indexed": true,
          "internalType": "address",
          "name": "owner",
          "type": "address"
        },
        {
          "indexed": true,
          "internalType": "address",
          "name": "spender",
          "type": "address"
        },
        {
          "indexed": false,
          "internalType": "uint256",
          "name": "value",
          "type": "uint256"
        }
      ],
      "name": "Approval",
      "type": "event"
    },
    {
      "anonymous": false,
      "inputs": [
        {
          "indexed": true,
          "internalType": "address",
          "name": "buyer",
          "type": "address"
        }
      ],
      "name": "DisclaimerAgreed",
      "type": "event"
    },
    {
      "anonymous": false,
      "inputs": [
        {
          "indexed": false,
          "internalType": "uint256",
          "name": "amount",
          "type": "uint256"
        },
        {
          "indexed": false,
          "internalType": "address",
          "name": "to",
          "type": "address"
        }
      ],
      "name": "ETHWithdrawn",
      "type": "event"
    },
    {
      "anonymous": false,
      "inputs": [
        {
          "indexed": true,
          "internalType": "address",
          "name": "oldOperator",
          "type": "address"
        },
        {
          "indexed": true,
          "internalType": "address",
          "name": "newOperator",
          "type": "address"
        }
      ],
      "name": "OperatorUpdated",
      "type": "event"
    },
    {
      "anonymous": false,
      "inputs": [
        {
          "indexed": true,
          "internalType": "address",
          "name": "previousOwner",
          "type": "address"
        },
        {
          "indexed": true,
          "internalType": "address",
          "name": "newOwner",
          "type": "address"
        }
      ],
      "name": "OwnershipTransferred",
      "type": "event"
    },
    {
      "anonymous": false,
      "inputs": [
        {
          "indexed": false,
          "internalType": "address",
          "name": "account",
          "type": "address"
        }
      ],
      "name": "Paused",
      "type": "event"
    },
    {
      "anonymous": false,
      "inputs": [
        {
          "indexed": true,
          "internalType": "address",
          "name": "buyer",
          "type": "address"
        },
        {
          "indexed": false,
          "internalType": "uint256",
          "name": "amount",
          "type": "uint256"
        }
      ],
      "name": "RefundIssued",
      "type": "event"
    },
    {
      "anonymous": false,
      "inputs": [],
      "name": "SaleEndedEarly",
      "type": "event"
    },
    {
      "anonymous": false,
      "inputs": [
        {
          "indexed": false,
          "internalType": "uint256",
          "name": "tokensForSale",
          "type": "uint256"
        },
        {
          "indexed": false,
          "internalType": "uint256",
          "name": "tokenPrice",
          "type": "uint256"
        },
        {
          "indexed": false,
          "internalType": "uint256",
          "name": "targetSellerOwnership",
          "type": "uint256"
        }
      ],
      "name": "SaleParametersUpdated",
      "type": "event"
    },
    {
      "anonymous": false,
      "inputs": [
        {
          "indexed": false,
          "internalType": "address",
          "name": "oldSeller",
          "type": "address"
        },
        {
          "indexed": false,
          "internalType": "address",
          "name": "newSeller",
          "type": "address"
        }
      ],
      "name": "SellerAddressUpdated",
      "type": "event"
    },
    {
      "anonymous": false,
      "inputs": [
        {
          "indexed": true,
          "internalType": "address",
          "name": "from",
          "type": "address"
        },
        {
          "indexed": true,
          "internalType": "address",
          "name": "to",
          "type": "address"
        },
        {
          "indexed": false,
          "internalType": "uint256",
          "name": "amount",
          "type": "uint256"
        },
        {
          "indexed": false,
          "internalType": "bytes32",
          "name": "buffer",
          "type": "bytes32"
        }
      ],
      "name": "SignatureTransfer",
      "type": "event"
    },
    {
      "anonymous": false,
      "inputs": [
        {
          "indexed": false,
          "internalType": "uint256",
          "name": "additionalTokens",
          "type": "uint256"
        }
      ],
      "name": "SupplyIncreased",
      "type": "event"
    },
    {
      "anonymous": false,
      "inputs": [
        {
          "indexed": true,
          "internalType": "address",
          "name": "buyer",
          "type": "address"
        },
        {
          "indexed": false,
          "internalType": "uint256",
          "name": "amount",
          "type": "uint256"
        }
      ],
      "name": "TokensPurchased",
      "type": "event"
    },
    {
      "anonymous": false,
      "inputs": [
        {
          "indexed": true,
          "internalType": "address",
          "name": "from",
          "type": "address"
        },
        {
          "indexed": true,
          "internalType": "address",
          "name": "to",
          "type": "address"
        },
        {
          "indexed": false,
          "internalType": "uint256",
          "name": "value",
          "type": "uint256"
        }
      ],
      "name": "Transfer",
      "type": "event"
    },
    {
      "anonymous": false,
      "inputs": [
        {
          "indexed": false,
          "internalType": "bool",
          "name": "enabled",
          "type": "bool"
        }
      ],
      "name": "TransfersToggled",
      "type": "event"
    },
    {
      "anonymous": false,
      "inputs": [
        {
          "indexed": false,
          "internalType": "address",
          "name": "account",
          "type": "address"
        }
      ],
      "name": "Unpaused",
      "type": "event"
    },
    {
      "anonymous": false,
      "inputs": [
        {
          "indexed": true,
          "internalType": "address",
          "name": "oldWhimsy",
          "type": "address"
        },
        {
          "indexed": true,
          "internalType": "address",
          "name": "newWhimsy",
          "type": "address"
        }
      ],
      "name": "WhimsyUpdated",
      "type": "event"
    },
    {
      "anonymous": false,
      "inputs": [
        {
          "indexed": false,
          "internalType": "uint256",
          "name": "amount",
          "type": "uint256"
        },
        {
          "indexed": false,
          "internalType": "address",
          "name": "to",
          "type": "address"
        }
      ],
      "name": "Withdrawn",
      "type": "event"
    },
    {
      "stateMutability": "payable",
      "type": "fallback"
    },
    {
      "inputs": [],
      "name": "AGREEMENT_TIMEOUT",
      "outputs": [
        {
          "internalType": "uint256",
          "name": "",
          "type": "uint256"
        }
      ],
      "stateMutability": "view",
      "type": "function"
    },
    {
      "inputs": [],
      "name": "MAX_BUYER_PERCENT",
      "outputs": [
        {
          "internalType": "uint8",
          "name": "",
          "type": "uint8"
        }
      ],
      "stateMutability": "view",
      "type": "function"
    },
    {
      "inputs": [],
      "name": "MAX_SELLER_PERCENT",
      "outputs": [
        {
          "internalType": "uint8",
          "name": "",
          "type": "uint8"
        }
      ],
      "stateMutability": "view",
      "type": "function"
    },
    {
      "inputs": [],
      "name": "MIN_SELLER_PERCENT",
      "outputs": [
        {
          "internalType": "uint8",
          "name": "",
          "type": "uint8"
        }
      ],
      "stateMutability": "view",
      "type": "function"
    },
    {
      "inputs": [],
      "name": "PERCENT_BASE",
      "outputs": [
        {
          "internalType": "uint8",
          "name": "",
          "type": "uint8"
        }
      ],
      "stateMutability": "view",
      "type": "function"
    },
    {
      "inputs": [],
      "name": "SELLER_ALLOCATION_PERCENT",
      "outputs": [
        {
          "internalType": "uint8",
          "name": "",
          "type": "uint8"
        }
      ],
      "stateMutability": "view",
      "type": "function"
    },
    {
      "inputs": [],
      "name": "WHIMSY_ALLOCATION_PERCENT",
      "outputs": [
        {
          "internalType": "uint8",
          "name": "",
          "type": "uint8"
        }
      ],
      "stateMutability": "view",
      "type": "function"
    },
    {
      "inputs": [
        {
          "internalType": "address",
          "name": "buyer",
          "type": "address"
        }
      ],
      "name": "agreeDisclaimerFor",
      "outputs": [],
      "stateMutability": "nonpayable",
      "type": "function"
    },
    {
      "inputs": [
        {
          "internalType": "address",
          "name": "owner",
          "type": "address"
        },
        {
          "internalType": "address",
          "name": "spender",
          "type": "address"
        }
      ],
      "name": "allowance",
      "outputs": [
        {
          "internalType": "uint256",
          "name": "",
          "type": "uint256"
        }
      ],
      "stateMutability": "view",
      "type": "function"
    },
    {
      "inputs": [
        {
          "internalType": "address",
          "name": "spender",
          "type": "address"
        },
        {
          "internalType": "uint256",
          "name": "value",
          "type": "uint256"
        }
      ],
      "name": "approve",
      "outputs": [
        {
          "internalType": "bool",
          "name": "",
          "type": "bool"
        }
      ],
      "stateMutability": "nonpayable",
      "type": "function"
    },
    {
      "inputs": [
        {
          "internalType": "address",
          "name": "account",
          "type": "address"
        }
      ],
      "name": "balanceOf",
      "outputs": [
        {
          "internalType": "uint256",
          "name": "",
          "type": "uint256"
        }
      ],
      "stateMutability": "view",
      "type": "function"
    },
    {
      "inputs": [
        {
          "internalType": "bytes32",
          "name": "",
          "type": "bytes32"
        }
      ],
      "name": "bufferUsed",
      "outputs": [
        {
          "internalType": "bool",
          "name": "",
          "type": "bool"
        }
      ],
      "stateMutability": "view",
      "type": "function"
    },
    {
      "inputs": [
        {
          "internalType": "address",
          "name": "buyer",
          "type": "address"
        },
        {
          "internalType": "uint256",
          "name": "amount",
          "type": "uint256"
        }
      ],
      "name": "buyTokensFor",
      "outputs": [],
      "stateMutability": "nonpayable",
      "type": "function"
    },
    {
      "inputs": [],
      "name": "decimals",
      "outputs": [
        {
          "internalType": "uint8",
          "name": "",
          "type": "uint8"
        }
      ],
      "stateMutability": "view",
      "type": "function"
    },
    {
      "inputs": [],
      "name": "endSaleEarly",
      "outputs": [],
      "stateMutability": "nonpayable",
      "type": "function"
    },
    {
      "inputs": [],
      "name": "factory",
      "outputs": [
        {
          "internalType": "address",
          "name": "",
          "type": "address"
        }
      ],
      "stateMutability": "view",
      "type": "function"
    },
    {
      "inputs": [
        {
          "internalType": "uint256",
          "name": "preMoneyValuation",
          "type": "uint256"
        }
      ],
      "name": "getPostMoneyValuation",
      "outputs": [
        {
          "internalType": "uint256",
          "name": "",
          "type": "uint256"
        }
      ],
      "stateMutability": "view",
      "type": "function"
    },
    {
      "inputs": [],
      "name": "governanceContract",
      "outputs": [
        {
          "internalType": "address",
          "name": "",
          "type": "address"
        }
      ],
      "stateMutability": "view",
      "type": "function"
    },
    {
      "inputs": [
        {
          "internalType": "address",
          "name": "",
          "type": "address"
        }
      ],
      "name": "hasAgreedDisclaimer",
      "outputs": [
        {
          "internalType": "bool",
          "name": "",
          "type": "bool"
        }
      ],
      "stateMutability": "view",
      "type": "function"
    },
    {
      "inputs": [
        {
          "internalType": "uint256",
          "name": "amount",
          "type": "uint256"
        }
      ],
      "name": "increaseSupply",
      "outputs": [],
      "stateMutability": "nonpayable",
      "type": "function"
    },
    {
      "inputs": [],
      "name": "name",
      "outputs": [
        {
          "internalType": "string",
          "name": "",
          "type": "string"
        }
      ],
      "stateMutability": "view",
      "type": "function"
    },
    {
      "inputs": [],
      "name": "operator",
      "outputs": [
        {
          "internalType": "address",
          "name": "",
          "type": "address"
        }
      ],
      "stateMutability": "view",
      "type": "function"
    },
    {
      "inputs": [
        {
          "internalType": "address",
          "name": "from",
          "type": "address"
        },
        {
          "internalType": "address",
          "name": "to",
          "type": "address"
        },
        {
          "internalType": "uint256",
          "name": "amount",
          "type": "uint256"
        }
      ],
      "name": "operatorTransfer",
      "outputs": [],
      "stateMutability": "nonpayable",
      "type": "function"
    },
    {
      "inputs": [],
      "name": "owner",
      "outputs": [
        {
          "internalType": "address",
          "name": "",
          "type": "address"
        }
      ],
      "stateMutability": "view",
      "type": "function"
    },
    {
      "inputs": [],
      "name": "pause",
      "outputs": [],
      "stateMutability": "nonpayable",
      "type": "function"
    },
    {
      "inputs": [],
      "name": "paused",
      "outputs": [
        {
          "internalType": "bool",
          "name": "",
          "type": "bool"
        }
      ],
      "stateMutability": "view",
      "type": "function"
    },
    {
      "inputs": [],
      "name": "paymentToken",
      "outputs": [
        {
          "internalType": "contract IERC20",
          "name": "",
          "type": "address"
        }
      ],
      "stateMutability": "view",
      "type": "function"
    },
    {
      "inputs": [],
      "name": "paymentTokenDecimals",
      "outputs": [
        {
          "internalType": "uint8",
          "name": "",
          "type": "uint8"
        }
      ],
      "stateMutability": "view",
      "type": "function"
    },
    {
      "inputs": [
        {
          "internalType": "address",
          "name": "",
          "type": "address"
        }
      ],
      "name": "pendingReservations",
      "outputs": [
        {
          "internalType": "uint256",
          "name": "amount",
          "type": "uint256"
        },
        {
          "internalType": "uint256",
          "name": "timestamp",
          "type": "uint256"
        }
      ],
      "stateMutability": "view",
      "type": "function"
    },
    {
      "inputs": [
        {
          "internalType": "address",
          "name": "buyer",
          "type": "address"
        }
      ],
      "name": "refundUnagreedBuyer",
      "outputs": [],
      "stateMutability": "nonpayable",
      "type": "function"
    },
    {
      "inputs": [],
      "name": "renounceOwnership",
      "outputs": [],
      "stateMutability": "nonpayable",
      "type": "function"
    },
    {
      "inputs": [],
      "name": "requireSignatureOnTransfer",
      "outputs": [
        {
          "internalType": "bool",
          "name": "",
          "type": "bool"
        }
      ],
      "stateMutability": "view",
      "type": "function"
    },
    {
      "inputs": [
        {
          "internalType": "address",
          "name": "buyer",
          "type": "address"
        },
        {
          "internalType": "uint256",
          "name": "amount",
          "type": "uint256"
        }
      ],
      "name": "reserveTokensFor",
      "outputs": [],
      "stateMutability": "nonpayable",
      "type": "function"
    },
    {
      "inputs": [],
      "name": "saleEnded",
      "outputs": [
        {
          "internalType": "bool",
          "name": "",
          "type": "bool"
        }
      ],
      "stateMutability": "view",
      "type": "function"
    },
    {
      "inputs": [],
      "name": "saleSupplySnapshot",
      "outputs": [
        {
          "internalType": "uint256",
          "name": "",
          "type": "uint256"
        }
      ],
      "stateMutability": "view",
      "type": "function"
    },
    {
      "inputs": [],
      "name": "seller",
      "outputs": [
        {
          "internalType": "address",
          "name": "",
          "type": "address"
        }
      ],
      "stateMutability": "view",
      "type": "function"
    },
    {
      "inputs": [
        {
          "internalType": "address",
          "name": "_factory",
          "type": "address"
        }
      ],
      "name": "setFactory",
      "outputs": [],
      "stateMutability": "nonpayable",
      "type": "function"
    },
    {
      "inputs": [
        {
          "internalType": "address",
          "name": "newOperator",
          "type": "address"
        }
      ],
      "name": "setOperator",
      "outputs": [],
      "stateMutability": "nonpayable",
      "type": "function"
    },
    {
      "inputs": [
        {
          "internalType": "bool",
          "name": "on",
          "type": "bool"
        }
      ],
      "name": "setRequireSignatureOnTransfer",
      "outputs": [],
      "stateMutability": "nonpayable",
      "type": "function"
    },
    {
      "inputs": [
        {
          "internalType": "uint256",
          "name": "_tokensForSale",
          "type": "uint256"
        },
        {
          "internalType": "uint256",
          "name": "_tokenPrice",
          "type": "uint256"
        },
        {
          "internalType": "uint256",
          "name": "_targetSellerOwnership",
          "type": "uint256"
        }
      ],
      "name": "setSaleParameters",
      "outputs": [],
      "stateMutability": "nonpayable",
      "type": "function"
    },
    {
      "inputs": [
        {
          "internalType": "address",
          "name": "assignedSigner",
          "type": "address"
        }
      ],
      "name": "setSigner",
      "outputs": [],
      "stateMutability": "nonpayable",
      "type": "function"
    },
    {
      "inputs": [
        {
          "internalType": "address",
          "name": "newWhimsy",
          "type": "address"
        }
      ],
      "name": "setWhimsy",
      "outputs": [],
      "stateMutability": "nonpayable",
      "type": "function"
    },
    {
      "inputs": [
        {
          "internalType": "bytes32",
          "name": "buffer",
          "type": "bytes32"
        },
        {
          "internalType": "bytes",
          "name": "sig",
          "type": "bytes"
        },
        {
          "internalType": "address",
          "name": "to",
          "type": "address"
        },
        {
          "internalType": "uint256",
          "name": "amount",
          "type": "uint256"
        }
      ],
      "name": "signatureTransfer",
      "outputs": [
        {
          "internalType": "bool",
          "name": "",
          "type": "bool"
        }
      ],
      "stateMutability": "nonpayable",
      "type": "function"
    },
    {
      "inputs": [],
      "name": "symbol",
      "outputs": [
        {
          "internalType": "string",
          "name": "",
          "type": "string"
        }
      ],
      "stateMutability": "view",
      "type": "function"
    },
    {
      "inputs": [],
      "name": "targetSellerOwnership",
      "outputs": [
        {
          "internalType": "uint256",
          "name": "",
          "type": "uint256"
        }
      ],
      "stateMutability": "view",
      "type": "function"
    },
    {
      "inputs": [
        {
          "internalType": "bool",
          "name": "enabled",
          "type": "bool"
        }
      ],
      "name": "toggleTransfers",
      "outputs": [],
      "stateMutability": "nonpayable",
      "type": "function"
    },
    {
      "inputs": [],
      "name": "tokenPrice",
      "outputs": [
        {
          "internalType": "uint256",
          "name": "",
          "type": "uint256"
        }
      ],
      "stateMutability": "view",
      "type": "function"
    },
    {
      "inputs": [],
      "name": "tokensForSale",
      "outputs": [
        {
          "internalType": "uint256",
          "name": "",
          "type": "uint256"
        }
      ],
      "stateMutability": "view",
      "type": "function"
    },
    {
      "inputs": [],
      "name": "totalRaised",
      "outputs": [
        {
          "internalType": "uint256",
          "name": "",
          "type": "uint256"
        }
      ],
      "stateMutability": "view",
      "type": "function"
    },
    {
      "inputs": [],
      "name": "totalReserved",
      "outputs": [
        {
          "internalType": "uint256",
          "name": "",
          "type": "uint256"
        }
      ],
      "stateMutability": "view",
      "type": "function"
    },
    {
      "inputs": [],
      "name": "totalSupply",
      "outputs": [
        {
          "internalType": "uint256",
          "name": "",
          "type": "uint256"
        }
      ],
      "stateMutability": "view",
      "type": "function"
    },
    {
      "inputs": [
        {
          "internalType": "address",
          "name": "to",
          "type": "address"
        },
        {
          "internalType": "uint256",
          "name": "amount",
          "type": "uint256"
        }
      ],
      "name": "transfer",
      "outputs": [
        {
          "internalType": "bool",
          "name": "",
          "type": "bool"
        }
      ],
      "stateMutability": "nonpayable",
      "type": "function"
    },
    {
      "inputs": [
        {
          "internalType": "address",
          "name": "from",
          "type": "address"
        },
        {
          "internalType": "address",
          "name": "to",
          "type": "address"
        },
        {
          "internalType": "uint256",
          "name": "amount",
          "type": "uint256"
        }
      ],
      "name": "transferFrom",
      "outputs": [
        {
          "internalType": "bool",
          "name": "",
          "type": "bool"
        }
      ],
      "stateMutability": "nonpayable",
      "type": "function"
    },
    {
      "inputs": [
        {
          "internalType": "address",
          "name": "newOwner",
          "type": "address"
        }
      ],
      "name": "transferOwnership",
      "outputs": [],
      "stateMutability": "nonpayable",
      "type": "function"
    },
    {
      "inputs": [],
      "name": "transfersEnabled",
      "outputs": [
        {
          "internalType": "bool",
          "name": "",
          "type": "bool"
        }
      ],
      "stateMutability": "view",
      "type": "function"
    },
    {
      "inputs": [],
      "name": "unpause",
      "outputs": [],
      "stateMutability": "nonpayable",
      "type": "function"
    },
    {
      "inputs": [
        {
          "internalType": "address",
          "name": "newSeller",
          "type": "address"
        }
      ],
      "name": "updateSellerAddress",
      "outputs": [],
      "stateMutability": "nonpayable",
      "type": "function"
    },
    {
      "inputs": [],
      "name": "whimsy",
      "outputs": [
        {
          "internalType": "address",
          "name": "",
          "type": "address"
        }
      ],
      "stateMutability": "view",
      "type": "function"
    },
    {
      "inputs": [],
      "name": "withdrawETH",
      "outputs": [],
      "stateMutability": "nonpayable",
      "type": "function"
    },
    {
      "inputs": [],
      "name": "withdrawPayment",
      "outputs": [],
      "stateMutability": "nonpayable",
      "type": "function"
    },
    {
      "stateMutability": "payable",
      "type": "receive"
    }
  ],
  "bytecode": "0x60a06040526007805461ff001916610100179055600d805461ffff60a01b1916600160a81b1790553480156200003457600080fd5b5060405162003a2238038062003a228339810160408190526200005791620007b8565b828888600362000068838262000917565b50600462000077828262000917565b5050506001600160a01b038116620000aa57604051631e4fbdf760e01b8152600060048201526024015b60405180910390fd5b620000b581620002d9565b5060016006556007805460ff191690556001600160a01b0385166200010e5760405162461bcd60e51b815260206004820152600e60248201526d24b73b30b634b21039b2b63632b960911b6044820152606401620000a1565b6001600160a01b038416620001575760405162461bcd60e51b815260206004820152600e60248201526d496e76616c6964207768696d737960901b6044820152606401620000a1565b6001600160a01b038216620001af5760405162461bcd60e51b815260206004820152601460248201527f496e76616c6964207061796d656e74546f6b656e0000000000000000000000006044820152606401620000a1565b600d80546001600160a01b038087166001600160a01b03199283161790925560098054888416908316179055600b8054868416908316179055838216608081905260148054938516939092169290921790556040805163313ce56760e01b8152905163313ce567916004818101926020929091908290030181865afa1580156200023d573d6000803e3d6000fd5b505050506040513d601f19601f82011682018060405250810190620002639190620009e3565b6014805460ff92909216600160a01b0260ff60a01b19909216919091179055600060646200029360038962000a25565b6200029f919062000a45565b90506000620002af828962000a68565b9050620002bd87826200032b565b620002c986836200032b565b5050505050505050505062000a94565b600580546001600160a01b038381166001600160a01b0319831681179093556040519116919082907f8be0079c531659141344cd1fd0a4f28419497f9722a3daafe3b4186f6b6457e090600090a35050565b6001600160a01b038216620003575760405163ec442f0560e01b815260006004820152602401620000a1565b620003656000838362000369565b5050565b6200037683838362000388565b62000383838383620005a3565b505050565b600d54600160a81b900460ff1680620003a857506001600160a01b038316155b80620003bb57506001600160a01b038216155b620004095760405162461bcd60e51b815260206004820152601660248201527f5472616e7366657273206172652064697361626c6564000000000000000000006044820152606401620000a1565b6001600160a01b038316158015906200042a57506001600160a01b03821615155b1562000383576009546001600160a01b0390811690841603620004d3576009546001600160a01b03166000908152602081905260408120546200046f90839062000a68565b9050601054811015620004d15760405162461bcd60e51b8152602060048201526024808201527f53656c6c6572206d7573742072657461696e206d696e696d756d206f776e65726044820152630736869760e41b6064820152608401620000a1565b505b6009546001600160a01b0383811691161462000383576000601354600014620004ff5760135462000503565b6002545b9050606462000514600f8362000a25565b62000520919062000a45565b8262000541856001600160a01b031660009081526020819052604090205490565b6200054d919062000a7e565b11156200059d5760405162461bcd60e51b815260206004820152601560248201527f42757965722065786365656473203135252063617000000000000000000000006044820152606401620000a1565b50505050565b6001600160a01b038316620005d2578060026000828254620005c6919062000a7e565b90915550620006469050565b6001600160a01b03831660009081526020819052604090205481811015620006275760405163391434e360e21b81526001600160a01b03851660048201526024810182905260448101839052606401620000a1565b6001600160a01b03841660009081526020819052604090209082900390555b6001600160a01b038216620006645760028054829003905562000683565b6001600160a01b03821660009081526020819052604090208054820190555b816001600160a01b0316836001600160a01b03167fddf252ad1be2c89b69c2b068fc378daa952ba7f163c4a11628f55a4df523b3ef83604051620006c991815260200190565b60405180910390a3505050565b634e487b7160e01b600052604160045260246000fd5b600082601f830112620006fe57600080fd5b81516001600160401b03808211156200071b576200071b620006d6565b604051601f8301601f19908116603f01168101908282118183101715620007465762000746620006d6565b816040528381526020925086838588010111156200076357600080fd5b600091505b8382101562000787578582018301518183018401529082019062000768565b600093810190920192909252949350505050565b80516001600160a01b0381168114620007b357600080fd5b919050565b600080600080600080600080610100898b031215620007d657600080fd5b88516001600160401b0380821115620007ee57600080fd5b620007fc8c838d01620006ec565b995060208b01519150808211156200081357600080fd5b50620008228b828c01620006ec565b975050604089015195506200083a60608a016200079b565b94506200084a60808a016200079b565b93506200085a60a08a016200079b565b92506200086a60c08a016200079b565b91506200087a60e08a016200079b565b90509295985092959890939650565b600181811c908216806200089e57607f821691505b602082108103620008bf57634e487b7160e01b600052602260045260246000fd5b50919050565b601f8211156200038357600081815260208120601f850160051c81016020861015620008ee5750805b601f850160051c820191505b818110156200090f57828155600101620008fa565b505050505050565b81516001600160401b03811115620009335762000933620006d6565b6200094b8162000944845462000889565b84620008c5565b602080601f8311600181146200098357600084156200096a5750858301515b600019600386901b1c1916600185901b1785556200090f565b600085815260208120601f198616915b82811015620009b45788860151825594840194600190910190840162000993565b5085821015620009d35787850151600019600388901b60f8161c191681555b5050505050600190811b01905550565b600060208284031215620009f657600080fd5b815160ff8116811462000a0857600080fd5b9392505050565b634e487b7160e01b600052601160045260246000fd5b808202811582820484141762000a3f5762000a3f62000a0f565b92915050565b60008262000a6357634e487b7160e01b600052601260045260246000fd5b500490565b8181038181111562000a3f5762000a3f62000a0f565b8082018082111562000a3f5762000a3f62000a0f565b608051612f4f62000ad3600039600081816104b601528181610d7601528181611329015281816116680152818161173801526118fa0152612f4f6000f3fe6080604052600436106102da5760003560e01c80637b239e221161017c578063b91f6f0e116100d2578063b91f6f0e146108a9578063b921e163146108be578063bb979d62146108de578063bbd30fb9146108f4578063bef97c8714610914578063c157c5ff14610935578063c421d18f1461094a578063c45a01551461096a578063c5c4744c1461098a578063c71b0e1c146109a0578063d5cf7cfe146109b6578063dd62ed3e146109cb578063e086e5ec146109eb578063e249b7ce14610a00578063f2fde38b14610a2057610300565b80637b239e22146107105780637d6c8c00146107255780637ff9b59614610755578063805d835d1461076b5780638456cb59146107805780638da5cb5b146107955780638f52f0f9146107aa57806393634c0a146107bf57806395d89b41146107de5780639b8906ae146107f3578063a118babd14610814578063a9059cbb14610829578063b172b22214610849578063b2826b9114610869578063b3ab15fb1461088957610300565b80633f4ba83a116102315780633f4ba83a14610520578063490deb3d14610535578063570ca7351461057e57806358bcc4fb1461059e5780635bb47808146105ce5780635c975abb146105ee578063624b233d14610606578063685041581461061b578063685dab8f1461063b5780636add3bdb1461065b5780636c19e7831461067b57806370a082311461069b578063712daa75146106bb578063715018a6146106db57806374faa74b146106f057610300565b8062267f9a1461031857806306fdde031461034257806308551a5314610364578063095ea7b3146103915780630d1af103146103c157806312aef8c3146103e357806315482ce1146103f957806316314a691461040f57806318160ddd1461042f5780631df374921461044457806323b872dd146104645780632b319a8f146104845780633013ce29146104a4578063313ce567146104d8578063325cd796146104ff57610300565b366103005760405162461bcd60e51b81526004016102f7906129fe565b60405180910390fd5b60405162461bcd60e51b81526004016102f7906129fe565b34801561032457600080fd5b5061032f6206978081565b6040519081526020015b60405180910390f35b34801561034e57600080fd5b50610357610a40565b6040516103399190612a28565b34801561037057600080fd5b50600954610384906001600160a01b031681565b6040516103399190612a76565b34801561039d57600080fd5b506103b16103ac366004612aa6565b610ad2565b6040519015158152602001610339565b3480156103cd57600080fd5b506103e16103dc366004612ad0565b610aec565b005b3480156103ef57600080fd5b5061032f600f5481565b34801561040557600080fd5b5061032f60135481565b34801561041b57600080fd5b50600d54610384906001600160a01b031681565b34801561043b57600080fd5b5060025461032f565b34801561045057600080fd5b506103e161045f366004612b0c565b610bce565b34801561047057600080fd5b506103b161047f366004612ad0565b610dec565b34801561049057600080fd5b5061032f61049f366004612b27565b610e2a565b3480156104b057600080fd5b506103847f000000000000000000000000000000000000000000000000000000000000000081565b3480156104e457600080fd5b506104ed610e3a565b60405160ff9091168152602001610339565b34801561050b57600080fd5b506014546104ed90600160a01b900460ff1681565b34801561052c57600080fd5b506103e1610e4a565b34801561054157600080fd5b50610569610550366004612b0c565b6016602052600090815260409020805460019091015482565b60408051928352602083019190915201610339565b34801561058a57600080fd5b50600a54610384906001600160a01b031681565b3480156105aa57600080fd5b506103b16105b9366004612b27565b60086020526000908152604090205460ff1681565b3480156105da57600080fd5b506103e16105e9366004612b0c565b610e5c565b3480156105fa57600080fd5b5060075460ff166103b1565b34801561061257600080fd5b506104ed601e81565b34801561062757600080fd5b506103e1610636366004612b40565b610edc565b34801561064757600080fd5b506103e1610656366004612b0c565b610f3c565b34801561066757600080fd5b506103e1610676366004612b0c565b610ff4565b34801561068757600080fd5b506103e1610696366004612b0c565b61106a565b3480156106a757600080fd5b5061032f6106b6366004612b0c565b6110ea565b3480156106c757600080fd5b506103e16106d6366004612aa6565b611105565b3480156106e757600080fd5b506103e16113eb565b3480156106fc57600080fd5b506103e161070b366004612b0c565b6113fd565b34801561071c57600080fd5b506104ed600a81565b34801561073157600080fd5b506103b1610740366004612b0c565b60156020526000908152604090205460ff1681565b34801561076157600080fd5b5061032f600e5481565b34801561077757600080fd5b506104ed606481565b34801561078c57600080fd5b506103e16114a9565b3480156107a157600080fd5b506103846114b9565b3480156107b657600080fd5b506103e16114c8565b3480156107cb57600080fd5b506007546103b190610100900460ff1681565b3480156107ea57600080fd5b5061035761156a565b3480156107ff57600080fd5b50600d546103b190600160a01b900460ff1681565b34801561082057600080fd5b506103e1611579565b34801561083557600080fd5b506103b1610844366004612aa6565b6117b1565b34801561085557600080fd5b50600c54610384906001600160a01b031681565b34801561087557600080fd5b506103e1610884366004612aa6565b6117ed565b34801561089557600080fd5b506103e16108a4366004612b0c565b611975565b3480156108b557600080fd5b506104ed600381565b3480156108ca57600080fd5b506103e16108d9366004612b27565b611a12565b3480156108ea57600080fd5b5061032f60105481565b34801561090057600080fd5b506103e161090f366004612b40565b611aa9565b34801561092057600080fd5b50600d546103b190600160a81b900460ff1681565b34801561094157600080fd5b506104ed611acb565b34801561095657600080fd5b506103b1610965366004612b62565b611ada565b34801561097657600080fd5b50600b54610384906001600160a01b031681565b34801561099657600080fd5b5061032f60115481565b3480156109ac57600080fd5b5061032f60125481565b3480156109c257600080fd5b506104ed600f81565b3480156109d757600080fd5b5061032f6109e6366004612bf7565b611cd6565b3480156109f757600080fd5b506103e1611d01565b348015610a0c57600080fd5b506103e1610a1b366004612c2a565b611e2e565b348015610a2c57600080fd5b506103e1610a3b366004612b0c565b61204f565b606060038054610a4f90612c56565b80601f0160208091040260200160405190810160405280929190818152602001828054610a7b90612c56565b8015610ac85780601f10610a9d57610100808354040283529160200191610ac8565b820191906000526020600020905b815481529060010190602001808311610aab57829003601f168201915b5050505050905090565b600033610ae081858561208a565b60019150505b92915050565b610af4612097565b610afc6120c9565b6001600160a01b038316610b5e5760405162461bcd60e51b815260206004820152602360248201527f6f70657261746f725472616e736665723a2066726f6d207a65726f206164647260448201526265737360e81b60648201526084016102f7565b6001600160a01b038216610bbe5760405162461bcd60e51b815260206004820152602160248201527f6f70657261746f725472616e736665723a20746f207a65726f206164647265736044820152607360f81b60648201526084016102f7565b610bc98383836120ed565b505050565b610bd6612097565b610bde6120c9565b610be661214c565b6001600160a01b0381166000908152601660209081526040918290208251808401909352805480845260019091015491830191909152610c595760405162461bcd60e51b815260206004820152600e60248201526d2737903932b9b2b93b30ba34b7b760911b60448201526064016102f7565b6001600160a01b03821660009081526015602052604090205460ff1615610cb35760405162461bcd60e51b815260206004820152600e60248201526d105b1c9958591e481859dc99595960921b60448201526064016102f7565b620697808160200151610cc69190612ca6565b421015610d015760405162461bcd60e51b8152602060048201526009602482015268546f6f206561726c7960b81b60448201526064016102f7565b805160128054600090610d15908490612cb9565b90915550506001600160a01b0382166000908152601660205260408120818155600101819055610d43610e3a565b610d4e90600a612db0565b600e548351610d5d9190612dbf565b610d679190612dd6565b9050610d9d6001600160a01b037f0000000000000000000000000000000000000000000000000000000000000000168483612176565b81516040519081526001600160a01b038416907fa171b6942063c6f2800ce40a780edce37baa2b618571b11eedd1e69e626e7d769060200160405180910390a25050610de96001600655565b50565b600754600090610100900460ff1615610e175760405162461bcd60e51b81526004016102f790612df8565b610e228484846121d5565b949350505050565b600060115482610ae69190612ca6565b601454600160a01b900460ff1690565b610e52612097565b610e5a6121f9565b565b610e64612097565b6001600160a01b038116610eba5760405162461bcd60e51b815260206004820152601e60248201527f466163746f72792063616e6e6f74206265207a65726f2061646472657373000060448201526064016102f7565b600b80546001600160a01b0319166001600160a01b0392909216919091179055565b610ee4612097565b600d8054821515600160a81b0260ff60a81b199091161790556040517fe1965432af4c9923f6ebb98f1721262967cfa6178008742d23041dc8ee74ee8f90610f3190831515815260200190565b60405180910390a150565b610f44612097565b6001600160a01b038116610f8b5760405162461bcd60e51b815260206004820152600e60248201526d24b73b30b634b21039b2b63632b960911b60448201526064016102f7565b600954604080516001600160a01b03928316815291831660208301527fd08dbba23a735d81eaf53ac5ede2c722bb186e9d3d46b62842853f0d017c2212910160405180910390a1600980546001600160a01b0319166001600160a01b0392909216919091179055565b600b546001600160a01b0316331461101e5760405162461bcd60e51b81526004016102f790612e2b565b6001600160a01b038116600081815260156020526040808220805460ff19166001179055517fec25952115d724de7fec274999c9cbe0cff9898f9f5128eaa42bd599138462a19190a250565b611072612097565b6001600160a01b0381166110c85760405162461bcd60e51b815260206004820152601d60248201527f5369676e65722063616e6e6f74206265207a65726f206164647265737300000060448201526064016102f7565b601480546001600160a01b0319166001600160a01b0392909216919091179055565b6001600160a01b031660009081526020819052604090205490565b61110d61214c565b6111156120c9565b600b546001600160a01b0316331461113f5760405162461bcd60e51b81526004016102f790612e2b565b600d54600160a01b900460ff161561118a5760405162461bcd60e51b815260206004820152600e60248201526d14d85b19481a185cc8195b99195960921b60448201526064016102f7565b6001600160a01b03821660009081526015602052604090205460ff166111e35760405162461bcd60e51b815260206004820152600e60248201526d111a5cd8db185a5b48199a5c9cdd60921b60448201526064016102f7565b600081116112035760405162461bcd60e51b81526004016102f790612e51565b600061120d610e3a565b61121890600a612db0565b600e546112259084612dbf565b61122f9190612dd6565b6001600160a01b038416600090815260166020908152604091829020825180840190935280548084526001909101549183019190915291925090156112ed57805183146112b25760405162461bcd60e51b8152602060048201526011602482015270135d5cdd08189d5e481c995cd95c9d9959607a1b60448201526064016102f7565b82601260008282546112c49190612cb9565b90915550506001600160a01b038416600090815260166020526040812081815560010155611351565b601254600f546112fd9190612cb9565b83111561131c5760405162461bcd60e51b81526004016102f790612e73565b6113516001600160a01b037f000000000000000000000000000000000000000000000000000000000000000016853085612245565b82600f60008282546113639190612cb9565b92505081905550816011600082825461137c9190612ca6565b9091555050600954611398906001600160a01b031685856120ed565b836001600160a01b03167f8f28852646c20cc973d3a8218f7eefed58c25c909f78f0265af4818c3d4dc271846040516113d391815260200190565b60405180910390a250506113e76001600655565b5050565b6113f3612097565b610e5a6000612284565b611405612097565b6001600160a01b03811661144d5760405162461bcd60e51b815260206004820152600f60248201526e496e76616c6964206164647265737360881b60448201526064016102f7565b600d546040516001600160a01b038084169216907fb27a84474703ce30a05e600606fa29dbcfb1671aa7363e45dbf0f1b78f3ee11690600090a3600d80546001600160a01b0319166001600160a01b0392909216919091179055565b6114b1612097565b610e5a6122d6565b6005546001600160a01b031690565b6114d0612097565b6114d86120c9565b600d54600160a01b900460ff16156115275760405162461bcd60e51b815260206004820152601260248201527114d85b1948185b1c9958591e48195b99195960721b60448201526064016102f7565b600d805460ff60a01b1916600160a01b1790556000600f8190556040517f7910379dd0db65208b77494ac6a3acca01262c78703f044e0abb7e4386a0bcbe9190a1565b606060048054610a4f90612c56565b61158161214c565b6115896120c9565b6115916114b9565b6001600160a01b0316336001600160a01b031614806115ba5750600a546001600160a01b031633145b6115f75760405162461bcd60e51b815260206004820152600e60248201526d139bdd08185d5d1a1bdc9a5e995960921b60448201526064016102f7565b600d54600160a01b900460ff1661164e5760405162461bcd60e51b815260206004820152601b60248201527a43616e6e6f7420776974686472617720647572696e672073616c6560281b60448201526064016102f7565b6040516370a0823160e01b81526000906001600160a01b037f000000000000000000000000000000000000000000000000000000000000000016906370a082319061169d903090600401612a76565b602060405180830381865afa1580156116ba573d6000803e3d6000fd5b505050506040513d601f19601f820116820180604052508101906116de9190612e99565b9050600081116117275760405162461bcd60e51b81526020600482015260146024820152734e6f2066756e647320746f20776974686472617760601b60448201526064016102f7565b600954611761906001600160a01b037f00000000000000000000000000000000000000000000000000000000000000008116911683612176565b6009546040517f8c7cdad0d12a8db3e23561b42da6f10c8137914c97beff202213a410e1f520a39161179e9184916001600160a01b031690612eb2565b60405180910390a150610e5a6001600655565b600754600090610100900460ff16156117dc5760405162461bcd60e51b81526004016102f790612df8565b6117e68383612313565b9392505050565b600b546001600160a01b031633146118175760405162461bcd60e51b81526004016102f790612e2b565b600081116118375760405162461bcd60e51b81526004016102f790612e51565b6001600160a01b038216600090815260166020526040902054156118905760405162461bcd60e51b815260206004820152601060248201526f105b1c9958591e481c995cd95c9d995960821b60448201526064016102f7565b601254600f546118a09190612cb9565b8111156118bf5760405162461bcd60e51b81526004016102f790612e73565b60006118c9610e3a565b6118d490600a612db0565b600e546118e19084612dbf565b6118eb9190612dd6565b90506119226001600160a01b037f000000000000000000000000000000000000000000000000000000000000000016843084612245565b6040805180820182528381524260208083019182526001600160a01b0387166000908152601690915292832091518255516001909101556012805484929061196b908490612ca6565b9091555050505050565b61197d612097565b6001600160a01b0381166119c65760405162461bcd60e51b815260206004820152601060248201526f24b73b30b634b21037b832b930ba37b960811b60448201526064016102f7565b600a80546001600160a01b0319166001600160a01b03831690811790915560405181907ffbe5b6cbafb274f445d7fed869dc77a838d8243a22c460de156560e8857cad0390600090a350565b611a1a612097565b600f5415611a635760405162461bcd60e51b815260206004820152601660248201527543616e2774206d696e7420647572696e672073616c6560501b60448201526064016102f7565b600954611a79906001600160a01b031682612321565b6040518181527f359675c23a13743cf846e03b084a0b1fd129ffa3404dbdd936effd23fb97aa9d90602001610f31565b611ab1612097565b600780549115156101000261ff0019909216919091179055565b611ad760036064612ec9565b81565b6000611ae46120c9565b60008681526008602052604090205460ff1615611b335760405162461bcd60e51b815260206004820152600d60248201526c427566666572207265706c617960981b60448201526064016102f7565b6000868152600860209081526040808320805460ff1916600117905551611b8b91899133918891889101938452606092831b6001600160601b031990811660208601529190921b166034830152604882015260680190565b6040516020818303038152906040528051906020012090506000611bdc827f19457468657265756d205369676e6564204d6573736167653a0a3332000000006000908152601c91909152603c902090565b90506000611c2288888080601f01602080910402602001604051908101604052809392919081815260200183838082843760009201919091525086939250506123579050565b6014549091506001600160a01b03808316911614611c765760405162461bcd60e51b8152602060048201526011602482015270496e76616c6964207369676e617475726560781b60448201526064016102f7565b611c813387876120ed565b60408051868152602081018b90526001600160a01b0388169133917fa50cbf27035f35522914ccdb748ac5870b90728775602ff8e87ab35817157f08910160405180910390a350600198975050505050505050565b6001600160a01b03918216600090815260016020908152604080832093909416825291909152205490565b611d09612097565b4780611d4c5760405162461bcd60e51b81526020600482015260126024820152714e6f2045544820746f20776974686472617760701b60448201526064016102f7565b6009546040516000916001600160a01b03169083908381818185875af1925050503d8060008114611d99576040519150601f19603f3d011682016040523d82523d6000602084013e611d9e565b606091505b5050905080611de55760405162461bcd60e51b8152602060048201526013602482015272115512081d1c985b9cd9995c8819985a5b1959606a1b60448201526064016102f7565b6009546040517f6148672a948a12b8e0bf92a9338349b9ac890fad62a234abaf0a4da99f62cfcc91611e229185916001600160a01b031690612eb2565b60405180910390a15050565b611e36612097565b611e3e6120c9565b60008211611e805760405162461bcd60e51b815260206004820152600f60248201526e0546f6b656e207072696365203e203608c1b60448201526064016102f7565b6000611e8b60025490565b601381905590506064611e9f600a83612dbf565b611ea99190612dd6565b821015611ee85760405162461bcd60e51b815260206004820152600d60248201526c546172676574203e3d2031302560981b60448201526064016102f7565b6064611ef5601e83612dbf565b611eff9190612dd6565b821115611f3e5760405162461bcd60e51b815260206004820152600d60248201526c546172676574203c3d2033302560981b60448201526064016102f7565b6009548490611f55906001600160a01b03166110ea565b1015611f945760405162461bcd60e51b815260206004820152600e60248201526d53656c6c65722062616c206c6f7760901b60448201526064016102f7565b60095482908590611fad906001600160a01b03166110ea565b611fb79190612cb9565b14611ff95760405162461bcd60e51b8152602060048201526012602482015271109859081cd85b194bdd19dd081cdc1b1a5d60721b60448201526064016102f7565b600f849055600e839055601082905560408051858152602081018590529081018390527f4d012a69148885509f5eb0377244099c968f990db1f853707b9d8e3fea20f7b99060600160405180910390a150505050565b612057612097565b6001600160a01b038116612081576000604051631e4fbdf760e01b81526004016102f79190612a76565b610de981612284565b610bc98383836001612381565b336120a06114b9565b6001600160a01b031614610e5a573360405163118cdaa760e01b81526004016102f79190612a76565b60075460ff1615610e5a5760405163d93c066560e01b815260040160405180910390fd5b6001600160a01b038316612117576000604051634b637e8f60e11b81526004016102f79190612a76565b6001600160a01b03821661214157600060405163ec442f0560e01b81526004016102f79190612a76565b610bc9838383612456565b60026006540361216f57604051633ee5aeb560e01b815260040160405180910390fd5b6002600655565b6040516001600160a01b03838116602483015260448201839052610bc991859182169063a9059cbb906064015b604051602081830303815290604052915060e01b6020820180516001600160e01b03838183161783525050505061246c565b6000336121e38582856124d4565b6121ee8585856120ed565b506001949350505050565b612201612522565b6007805460ff191690557f5db9ee0a495bf2e6ff9c91a7834c1ba4fdd244a5e8aa4e537bd38aeae4b073aa335b60405161223b9190612a76565b60405180910390a1565b6040516001600160a01b03848116602483015283811660448301526064820183905261227e9186918216906323b872dd906084016121a3565b50505050565b600580546001600160a01b038381166001600160a01b0319831681179093556040519116919082907f8be0079c531659141344cd1fd0a4f28419497f9722a3daafe3b4186f6b6457e090600090a35050565b6122de6120c9565b6007805460ff191660011790557f62e78cea01bee320cd4e420270b5ea74000d11b0c9f74754ebdbfc544b05a25861222e3390565b600033610ae08185856120ed565b6001600160a01b03821661234b57600060405163ec442f0560e01b81526004016102f79190612a76565b6113e760008383612456565b6000806000806123678686612545565b9250925092506123778282612592565b5090949350505050565b6001600160a01b0384166123ab57600060405163e602df0560e01b81526004016102f79190612a76565b6001600160a01b0383166123d5576000604051634a1406b160e11b81526004016102f79190612a76565b6001600160a01b038085166000908152600160209081526040808320938716835292905220829055801561227e57826001600160a01b0316846001600160a01b03167f8c5be1e5ebec7d5bd14f71427d1e84f3dd0314c0f7b2291e5b200ac8c7c3b9258460405161244891815260200190565b60405180910390a350505050565b61246183838361264b565b610bc9838383612822565b600080602060008451602086016000885af18061248f576040513d6000823e3d81fd5b50506000513d915081156124a75780600114156124b4565b6001600160a01b0384163b155b1561227e5783604051635274afe760e01b81526004016102f79190612a76565b60006124e08484611cd6565b905060001981101561227e578181101561251357828183604051637dc7a0d960e11b81526004016102f793929190612ee2565b61227e84848484036000612381565b60075460ff16610e5a57604051638dfc202b60e01b815260040160405180910390fd5b6000806000835160410361257f5760208401516040850151606086015160001a61257188828585612939565b95509550955050505061258b565b50508151600091506002905b9250925092565b60008260038111156125a6576125a6612f03565b036125af575050565b60018260038111156125c3576125c3612f03565b036125e15760405163f645eedf60e01b815260040160405180910390fd5b60028260038111156125f5576125f5612f03565b036126165760405163fce698f760e01b8152600481018290526024016102f7565b600382600381111561262a5761262a612f03565b036113e7576040516335e2f38360e21b8152600481018290526024016102f7565b600d54600160a81b900460ff168061266a57506001600160a01b038316155b8061267c57506001600160a01b038216155b6126c15760405162461bcd60e51b8152602060048201526016602482015275151c985b9cd9995c9cc8185c9948191a5cd8589b195960521b60448201526064016102f7565b6001600160a01b038316158015906126e157506001600160a01b03821615155b15610bc9576009546001600160a01b0390811690841603612782576009546000908290612716906001600160a01b03166110ea565b6127209190612cb9565b90506010548110156127805760405162461bcd60e51b8152602060048201526024808201527f53656c6c6572206d7573742072657461696e206d696e696d756d206f776e65726044820152630736869760e41b60648201526084016102f7565b505b6009546001600160a01b03838116911614610bc95760006013546000146127ab576013546127af565b6002545b905060646127be600f83612dbf565b6127c89190612dd6565b826127d2856110ea565b6127dc9190612ca6565b111561227e5760405162461bcd60e51b8152602060048201526015602482015274042757965722065786365656473203135252063617605c1b60448201526064016102f7565b6001600160a01b03831661284d5780600260008282546128429190612ca6565b909155506128ac9050565b6001600160a01b0383166000908152602081905260409020548181101561288d5783818360405163391434e360e21b81526004016102f793929190612ee2565b6001600160a01b03841660009081526020819052604090209082900390555b6001600160a01b0382166128c8576002805482900390556128e7565b6001600160a01b03821660009081526020819052604090208054820190555b816001600160a01b0316836001600160a01b03167fddf252ad1be2c89b69c2b068fc378daa952ba7f163c4a11628f55a4df523b3ef8360405161292c91815260200190565b60405180910390a3505050565b600080806fa2a8918ca85bafe22016d0b997e4df60600160ff1b0384111561296a57506000915060039050826129f4565b604080516000808252602082018084528a905260ff891692820192909252606081018790526080810186905260019060a0016020604051602081039080840390855afa1580156129be573d6000803e3d6000fd5b5050604051601f1901519150506001600160a01b0381166129ea575060009250600191508290506129f4565b9250600091508190505b9450945094915050565b60208082526010908201526f115512081b9bdd081858d8d95c1d195960821b604082015260600190565b600060208083528351808285015260005b81811015612a5557858101830151858201604001528201612a39565b506000604082860101526040601f19601f8301168501019250505092915050565b6001600160a01b0391909116815260200190565b80356001600160a01b0381168114612aa157600080fd5b919050565b60008060408385031215612ab957600080fd5b612ac283612a8a565b946020939093013593505050565b600080600060608486031215612ae557600080fd5b612aee84612a8a565b9250612afc60208501612a8a565b9150604084013590509250925092565b600060208284031215612b1e57600080fd5b6117e682612a8a565b600060208284031215612b3957600080fd5b5035919050565b600060208284031215612b5257600080fd5b813580151581146117e657600080fd5b600080600080600060808688031215612b7a57600080fd5b85359450602086013567ffffffffffffffff80821115612b9957600080fd5b818801915088601f830112612bad57600080fd5b813581811115612bbc57600080fd5b896020828501011115612bce57600080fd5b602083019650809550505050612be660408701612a8a565b949793965091946060013592915050565b60008060408385031215612c0a57600080fd5b612c1383612a8a565b9150612c2160208401612a8a565b90509250929050565b600080600060608486031215612c3f57600080fd5b505081359360208301359350604090920135919050565b600181811c90821680612c6a57607f821691505b602082108103612c8a57634e487b7160e01b600052602260045260246000fd5b50919050565b634e487b7160e01b600052601160045260246000fd5b80820180821115610ae657610ae6612c90565b81810381811115610ae657610ae6612c90565b600181815b80851115612d07578160001904821115612ced57612ced612c90565b80851615612cfa57918102915b93841c9390800290612cd1565b509250929050565b600082612d1e57506001610ae6565b81612d2b57506000610ae6565b8160018114612d415760028114612d4b57612d67565b6001915050610ae6565b60ff841115612d5c57612d5c612c90565b50506001821b610ae6565b5060208310610133831016604e8410600b8410161715612d8a575081810a610ae6565b612d948383612ccc565b8060001904821115612da857612da8612c90565b029392505050565b60006117e660ff841683612d0f565b8082028115828204841417610ae657610ae6612c90565b600082612df357634e487b7160e01b600052601260045260246000fd5b500490565b602080825260199082015278111a5c9958dd081d1c985b9cd9995c9cc8191a5cd8589b1959603a1b604082015260600190565b6020808252600c908201526b4f6e6c7920666163746f727960a01b604082015260600190565b6020808252600890820152670416d6f756e743e360c41b604082015260600190565b6020808252600c908201526b457863656564732073616c6560a01b604082015260600190565b600060208284031215612eab57600080fd5b5051919050565b9182526001600160a01b0316602082015260400190565b60ff8281168282160390811115610ae657610ae6612c90565b6001600160a01b039390931683526020830191909152604082015260600190565b634e487b7160e01b600052602160045260246000fdfea26469706673582212207db6f9cda1193d221d3997c846c70c1af491db0b638893b29b33730f1948f9ab64736f6c63430008140033",
  "linkReferences": {},
  "deployedLinkReferences": {}
}